{
	"Meta4Swap_flat.sol": {
		"Meta4Swap": {
			"abi": [
				{
					"inputs": [
						{
							"internalType": "address",
							"name": "_dao",
							"type": "address"
						},
						{
							"internalType": "address",
							"name": "_m4sToken",
							"type": "address"
						},
						{
							"internalType": "address",
							"name": "_priceFeed",
							"type": "address"
						}
					],
					"stateMutability": "nonpayable",
					"type": "constructor"
				},
				{
					"anonymous": false,
					"inputs": [
						{
							"indexed": false,
							"internalType": "uint256",
							"name": "orderId",
							"type": "uint256"
						}
					],
					"name": "DisputeCreated",
					"type": "event"
				},
				{
					"anonymous": false,
					"inputs": [
						{
							"indexed": false,
							"internalType": "uint256",
							"name": "orderId",
							"type": "uint256"
						}
					],
					"name": "DisputeUpdated",
					"type": "event"
				},
				{
					"anonymous": false,
					"inputs": [
						{
							"indexed": false,
							"internalType": "uint256",
							"name": "itemId",
							"type": "uint256"
						},
						{
							"indexed": false,
							"internalType": "address",
							"name": "creator",
							"type": "address"
						},
						{
							"indexed": false,
							"internalType": "string",
							"name": "metadata",
							"type": "string"
						},
						{
							"indexed": false,
							"internalType": "uint256",
							"name": "itemType",
							"type": "uint256"
						}
					],
					"name": "ItemCreated",
					"type": "event"
				},
				{
					"anonymous": false,
					"inputs": [
						{
							"indexed": false,
							"internalType": "uint256",
							"name": "itemId",
							"type": "uint256"
						}
					],
					"name": "ItemUpdated",
					"type": "event"
				},
				{
					"anonymous": false,
					"inputs": [
						{
							"indexed": false,
							"internalType": "uint256",
							"name": "itemId",
							"type": "uint256"
						},
						{
							"indexed": false,
							"internalType": "address",
							"name": "worker",
							"type": "address"
						}
					],
					"name": "OfferCreated",
					"type": "event"
				},
				{
					"anonymous": false,
					"inputs": [
						{
							"indexed": false,
							"internalType": "uint256",
							"name": "orderId",
							"type": "uint256"
						},
						{
							"indexed": false,
							"internalType": "uint256",
							"name": "itemId",
							"type": "uint256"
						},
						{
							"indexed": false,
							"internalType": "uint256",
							"name": "price",
							"type": "uint256"
						},
						{
							"indexed": false,
							"internalType": "uint256",
							"name": "serviceType",
							"type": "uint256"
						},
						{
							"indexed": false,
							"internalType": "address",
							"name": "buyer",
							"type": "address"
						},
						{
							"indexed": false,
							"internalType": "address",
							"name": "seller",
							"type": "address"
						}
					],
					"name": "OrderCreated",
					"type": "event"
				},
				{
					"anonymous": false,
					"inputs": [
						{
							"indexed": false,
							"internalType": "uint256",
							"name": "orderId",
							"type": "uint256"
						}
					],
					"name": "OrderUpdated",
					"type": "event"
				},
				{
					"inputs": [
						{
							"internalType": "uint256",
							"name": "_itemId",
							"type": "uint256"
						},
						{
							"internalType": "address",
							"name": "_worker",
							"type": "address"
						}
					],
					"name": "acceptOffer",
					"outputs": [
						{
							"internalType": "uint256",
							"name": "",
							"type": "uint256"
						}
					],
					"stateMutability": "payable",
					"type": "function"
				},
				{
					"inputs": [],
					"name": "admin",
					"outputs": [
						{
							"internalType": "address",
							"name": "",
							"type": "address"
						}
					],
					"stateMutability": "view",
					"type": "function"
				},
				{
					"inputs": [
						{
							"internalType": "uint256",
							"name": "_itemId",
							"type": "uint256"
						}
					],
					"name": "buy",
					"outputs": [
						{
							"internalType": "uint256",
							"name": "",
							"type": "uint256"
						}
					],
					"stateMutability": "payable",
					"type": "function"
				},
				{
					"inputs": [],
					"name": "buyerReward",
					"outputs": [
						{
							"internalType": "uint256",
							"name": "",
							"type": "uint256"
						}
					],
					"stateMutability": "view",
					"type": "function"
				},
				{
					"inputs": [
						{
							"internalType": "uint256",
							"name": "_orderId",
							"type": "uint256"
						}
					],
					"name": "cancel",
					"outputs": [],
					"stateMutability": "nonpayable",
					"type": "function"
				},
				{
					"inputs": [
						{
							"internalType": "uint256",
							"name": "_orderId",
							"type": "uint256"
						}
					],
					"name": "complete",
					"outputs": [],
					"stateMutability": "nonpayable",
					"type": "function"
				},
				{
					"inputs": [
						{
							"internalType": "string",
							"name": "_metadata",
							"type": "string"
						},
						{
							"internalType": "bool",
							"name": "_state",
							"type": "bool"
						},
						{
							"internalType": "uint256",
							"name": "_price",
							"type": "uint256"
						},
						{
							"internalType": "uint256",
							"name": "_serviceType",
							"type": "uint256"
						}
					],
					"name": "create",
					"outputs": [
						{
							"internalType": "uint256",
							"name": "",
							"type": "uint256"
						}
					],
					"stateMutability": "nonpayable",
					"type": "function"
				},
				{
					"inputs": [],
					"name": "dao",
					"outputs": [
						{
							"internalType": "address",
							"name": "",
							"type": "address"
						}
					],
					"stateMutability": "view",
					"type": "function"
				},
				{
					"inputs": [],
					"name": "daoReward",
					"outputs": [
						{
							"internalType": "uint256",
							"name": "",
							"type": "uint256"
						}
					],
					"stateMutability": "view",
					"type": "function"
				},
				{
					"inputs": [
						{
							"internalType": "uint256",
							"name": "_orderId",
							"type": "uint256"
						}
					],
					"name": "dispute",
					"outputs": [],
					"stateMutability": "nonpayable",
					"type": "function"
				},
				{
					"inputs": [
						{
							"internalType": "uint256",
							"name": "",
							"type": "uint256"
						}
					],
					"name": "disputeInfo",
					"outputs": [
						{
							"internalType": "string",
							"name": "buyerResponse",
							"type": "string"
						},
						{
							"internalType": "string",
							"name": "sellerResponse",
							"type": "string"
						},
						{
							"internalType": "uint256",
							"name": "created",
							"type": "uint256"
						},
						{
							"internalType": "bool",
							"name": "isLive",
							"type": "bool"
						}
					],
					"stateMutability": "view",
					"type": "function"
				},
				{
					"inputs": [
						{
							"internalType": "uint256",
							"name": "_itemId",
							"type": "uint256"
						},
						{
							"internalType": "string",
							"name": "_metadata",
							"type": "string"
						}
					],
					"name": "editMetadata",
					"outputs": [],
					"stateMutability": "nonpayable",
					"type": "function"
				},
				{
					"inputs": [
						{
							"internalType": "uint256",
							"name": "_itemId",
							"type": "uint256"
						},
						{
							"internalType": "uint256",
							"name": "_value",
							"type": "uint256"
						}
					],
					"name": "editPrice",
					"outputs": [],
					"stateMutability": "nonpayable",
					"type": "function"
				},
				{
					"inputs": [
						{
							"internalType": "uint256",
							"name": "_itemId",
							"type": "uint256"
						},
						{
							"internalType": "bool",
							"name": "_isLive",
							"type": "bool"
						}
					],
					"name": "editState",
					"outputs": [],
					"stateMutability": "nonpayable",
					"type": "function"
				},
				{
					"inputs": [],
					"name": "getLatestPrice",
					"outputs": [
						{
							"internalType": "int256",
							"name": "",
							"type": "int256"
						}
					],
					"stateMutability": "view",
					"type": "function"
				},
				{
					"inputs": [],
					"name": "itemCount",
					"outputs": [
						{
							"internalType": "uint256",
							"name": "",
							"type": "uint256"
						}
					],
					"stateMutability": "view",
					"type": "function"
				},
				{
					"inputs": [
						{
							"internalType": "uint256",
							"name": "",
							"type": "uint256"
						}
					],
					"name": "itemInfo",
					"outputs": [
						{
							"internalType": "uint256",
							"name": "id",
							"type": "uint256"
						},
						{
							"internalType": "string",
							"name": "metadata",
							"type": "string"
						},
						{
							"internalType": "bool",
							"name": "isLive",
							"type": "bool"
						},
						{
							"internalType": "uint256",
							"name": "price",
							"type": "uint256"
						},
						{
							"internalType": "address",
							"name": "owner",
							"type": "address"
						},
						{
							"internalType": "uint256",
							"name": "serviceType",
							"type": "uint256"
						}
					],
					"stateMutability": "view",
					"type": "function"
				},
				{
					"inputs": [],
					"name": "m4sToken",
					"outputs": [
						{
							"internalType": "address",
							"name": "",
							"type": "address"
						}
					],
					"stateMutability": "view",
					"type": "function"
				},
				{
					"inputs": [],
					"name": "marketplaceFee",
					"outputs": [
						{
							"internalType": "uint256",
							"name": "",
							"type": "uint256"
						}
					],
					"stateMutability": "view",
					"type": "function"
				},
				{
					"inputs": [],
					"name": "minFee",
					"outputs": [
						{
							"internalType": "uint256",
							"name": "",
							"type": "uint256"
						}
					],
					"stateMutability": "view",
					"type": "function"
				},
				{
					"inputs": [
						{
							"internalType": "uint256",
							"name": "_itemId",
							"type": "uint256"
						}
					],
					"name": "offer",
					"outputs": [],
					"stateMutability": "nonpayable",
					"type": "function"
				},
				{
					"inputs": [
						{
							"internalType": "address",
							"name": "",
							"type": "address"
						},
						{
							"internalType": "uint256",
							"name": "",
							"type": "uint256"
						}
					],
					"name": "offerInfo",
					"outputs": [
						{
							"internalType": "bool",
							"name": "",
							"type": "bool"
						}
					],
					"stateMutability": "view",
					"type": "function"
				},
				{
					"inputs": [],
					"name": "orderCount",
					"outputs": [
						{
							"internalType": "uint256",
							"name": "",
							"type": "uint256"
						}
					],
					"stateMutability": "view",
					"type": "function"
				},
				{
					"inputs": [
						{
							"internalType": "uint256",
							"name": "",
							"type": "uint256"
						}
					],
					"name": "orderInfo",
					"outputs": [
						{
							"internalType": "uint256",
							"name": "id",
							"type": "uint256"
						},
						{
							"internalType": "uint256",
							"name": "itemId",
							"type": "uint256"
						},
						{
							"internalType": "uint256",
							"name": "orderTotal",
							"type": "uint256"
						},
						{
							"internalType": "uint256",
							"name": "created",
							"type": "uint256"
						},
						{
							"internalType": "uint256",
							"name": "fee",
							"type": "uint256"
						},
						{
							"internalType": "uint256",
							"name": "itemPrice",
							"type": "uint256"
						},
						{
							"internalType": "uint256",
							"name": "chainLinkPrice",
							"type": "uint256"
						},
						{
							"internalType": "uint8",
							"name": "buyerState",
							"type": "uint8"
						},
						{
							"internalType": "uint8",
							"name": "sellerState",
							"type": "uint8"
						},
						{
							"internalType": "bool",
							"name": "isLive",
							"type": "bool"
						},
						{
							"internalType": "address",
							"name": "buyer",
							"type": "address"
						},
						{
							"internalType": "address",
							"name": "seller",
							"type": "address"
						}
					],
					"stateMutability": "view",
					"type": "function"
				},
				{
					"inputs": [],
					"name": "priceFeed",
					"outputs": [
						{
							"internalType": "address",
							"name": "",
							"type": "address"
						}
					],
					"stateMutability": "view",
					"type": "function"
				},
				{
					"inputs": [
						{
							"internalType": "address",
							"name": "",
							"type": "address"
						},
						{
							"internalType": "uint256",
							"name": "",
							"type": "uint256"
						}
					],
					"name": "ratingCheck",
					"outputs": [
						{
							"internalType": "bool",
							"name": "",
							"type": "bool"
						}
					],
					"stateMutability": "view",
					"type": "function"
				},
				{
					"inputs": [
						{
							"internalType": "uint256",
							"name": "_orderId",
							"type": "uint256"
						},
						{
							"internalType": "address",
							"name": "_winner",
							"type": "address"
						}
					],
					"name": "resolve",
					"outputs": [],
					"stateMutability": "nonpayable",
					"type": "function"
				},
				{
					"inputs": [],
					"name": "rewardsLive",
					"outputs": [
						{
							"internalType": "bool",
							"name": "",
							"type": "bool"
						}
					],
					"stateMutability": "view",
					"type": "function"
				},
				{
					"inputs": [],
					"name": "sellerReward",
					"outputs": [
						{
							"internalType": "uint256",
							"name": "",
							"type": "uint256"
						}
					],
					"stateMutability": "view",
					"type": "function"
				},
				{
					"inputs": [
						{
							"internalType": "uint256",
							"name": "_value",
							"type": "uint256"
						},
						{
							"internalType": "address",
							"name": "_newAddress",
							"type": "address"
						}
					],
					"name": "updateAddress",
					"outputs": [],
					"stateMutability": "nonpayable",
					"type": "function"
				},
				{
					"inputs": [
						{
							"internalType": "uint256",
							"name": "_orderId",
							"type": "uint256"
						},
						{
							"internalType": "string",
							"name": "_ipfsHash",
							"type": "string"
						}
					],
					"name": "updateDispute",
					"outputs": [],
					"stateMutability": "nonpayable",
					"type": "function"
				},
				{
					"inputs": [
						{
							"internalType": "bool",
							"name": "_state",
							"type": "bool"
						}
					],
					"name": "updateRewardsisLive",
					"outputs": [],
					"stateMutability": "nonpayable",
					"type": "function"
				},
				{
					"inputs": [
						{
							"internalType": "uint256",
							"name": "_variable",
							"type": "uint256"
						},
						{
							"internalType": "uint256",
							"name": "_value",
							"type": "uint256"
						}
					],
					"name": "updateRules",
					"outputs": [
						{
							"internalType": "bool",
							"name": "",
							"type": "bool"
						}
					],
					"stateMutability": "nonpayable",
					"type": "function"
				},
				{
					"inputs": [
						{
							"internalType": "address",
							"name": "",
							"type": "address"
						}
					],
					"name": "userProfile",
					"outputs": [
						{
							"internalType": "uint256",
							"name": "cancelled",
							"type": "uint256"
						},
						{
							"internalType": "uint256",
							"name": "completed",
							"type": "uint256"
						},
						{
							"internalType": "uint256",
							"name": "disputes",
							"type": "uint256"
						}
					],
					"stateMutability": "view",
					"type": "function"
				}
			],
			"devdoc": {
				"kind": "dev",
				"methods": {},
				"version": 1
			},
			"evm": {
				"assembly": "    /* \"Meta4Swap_flat.sol\":993:15645  contract Meta4Swap {... */\n  mstore(0x40, 0x80)\n    /* \"Meta4Swap_flat.sol\":2783:3135  constructor(address _dao, address _m4sToken, address _priceFeed) {... */\n  callvalue\n  dup1\n  iszero\n  tag_1\n  jumpi\n  0x00\n  dup1\n  revert\ntag_1:\n  pop\n  mload(0x40)\n  sub(codesize, bytecodeSize)\n  dup1\n  bytecodeSize\n  dup4\n  codecopy\n  dup2\n  dup2\n  add\n  0x40\n  mstore\n  dup2\n  add\n  swap1\n  tag_2\n  swap2\n  swap1\n  tag_3\n  jump\t// in\ntag_2:\n    /* \"Meta4Swap_flat.sol\":2875:2878  250 */\n  0xfa\n    /* \"Meta4Swap_flat.sol\":2858:2872  marketplaceFee */\n  0x02\n    /* \"Meta4Swap_flat.sol\":2858:2878  marketplaceFee = 250 */\n  dup2\n  swap1\n  sstore\n  pop\n    /* \"Meta4Swap_flat.sol\":2897:2898  0 */\n  0x00\n    /* \"Meta4Swap_flat.sol\":2888:2894  minFee */\n  0x0a\n    /* \"Meta4Swap_flat.sol\":2888:2898  minFee = 0 */\n  dup2\n  swap1\n  sstore\n  pop\n    /* \"Meta4Swap_flat.sol\":2922:2929  1 ether */\n  0x0de0b6b3a7640000\n    /* \"Meta4Swap_flat.sol\":2908:2919  buyerReward */\n  0x07\n    /* \"Meta4Swap_flat.sol\":2908:2929  buyerReward = 1 ether */\n  dup2\n  swap1\n  sstore\n  pop\n    /* \"Meta4Swap_flat.sol\":2954:2961  1 ether */\n  0x0de0b6b3a7640000\n    /* \"Meta4Swap_flat.sol\":2939:2951  sellerReward */\n  0x08\n    /* \"Meta4Swap_flat.sol\":2939:2961  sellerReward = 1 ether */\n  dup2\n  swap1\n  sstore\n  pop\n    /* \"Meta4Swap_flat.sol\":2983:2990  1 ether */\n  0x0de0b6b3a7640000\n    /* \"Meta4Swap_flat.sol\":2971:2980  daoReward */\n  0x09\n    /* \"Meta4Swap_flat.sol\":2971:2990  daoReward = 1 ether */\n  dup2\n  swap1\n  sstore\n  pop\n    /* \"Meta4Swap_flat.sol\":3008:3018  msg.sender */\n  caller\n    /* \"Meta4Swap_flat.sol\":3000:3005  admin */\n  0x03\n  0x00\n    /* \"Meta4Swap_flat.sol\":3000:3018  admin = msg.sender */\n  0x0100\n  exp\n  dup2\n  sload\n  dup2\n  0xffffffffffffffffffffffffffffffffffffffff\n  mul\n  not\n  and\n  swap1\n  dup4\n  0xffffffffffffffffffffffffffffffffffffffff\n  and\n  mul\n  or\n  swap1\n  sstore\n  pop\n    /* \"Meta4Swap_flat.sol\":3042:3046  true */\n  0x01\n    /* \"Meta4Swap_flat.sol\":3028:3039  rewardsLive */\n  0x0b\n  0x00\n    /* \"Meta4Swap_flat.sol\":3028:3046  rewardsLive = true */\n  0x0100\n  exp\n  dup2\n  sload\n  dup2\n  0xff\n  mul\n  not\n  and\n  swap1\n  dup4\n  iszero\n  iszero\n  mul\n  or\n  swap1\n  sstore\n  pop\n    /* \"Meta4Swap_flat.sol\":3062:3066  _dao */\n  dup3\n    /* \"Meta4Swap_flat.sol\":3056:3059  dao */\n  0x04\n  0x00\n    /* \"Meta4Swap_flat.sol\":3056:3066  dao = _dao */\n  0x0100\n  exp\n  dup2\n  sload\n  dup2\n  0xffffffffffffffffffffffffffffffffffffffff\n  mul\n  not\n  and\n  swap1\n  dup4\n  0xffffffffffffffffffffffffffffffffffffffff\n  and\n  mul\n  or\n  swap1\n  sstore\n  pop\n    /* \"Meta4Swap_flat.sol\":3087:3096  _m4sToken */\n  dup2\n    /* \"Meta4Swap_flat.sol\":3076:3084  m4sToken */\n  0x05\n  0x00\n    /* \"Meta4Swap_flat.sol\":3076:3096  m4sToken = _m4sToken */\n  0x0100\n  exp\n  dup2\n  sload\n  dup2\n  0xffffffffffffffffffffffffffffffffffffffff\n  mul\n  not\n  and\n  swap1\n  dup4\n  0xffffffffffffffffffffffffffffffffffffffff\n  and\n  mul\n  or\n  swap1\n  sstore\n  pop\n    /* \"Meta4Swap_flat.sol\":3118:3128  _priceFeed */\n  dup1\n    /* \"Meta4Swap_flat.sol\":3106:3115  priceFeed */\n  0x06\n  0x00\n    /* \"Meta4Swap_flat.sol\":3106:3128  priceFeed = _priceFeed */\n  0x0100\n  exp\n  dup2\n  sload\n  dup2\n  0xffffffffffffffffffffffffffffffffffffffff\n  mul\n  not\n  and\n  swap1\n  dup4\n  0xffffffffffffffffffffffffffffffffffffffff\n  and\n  mul\n  or\n  swap1\n  sstore\n  pop\n    /* \"Meta4Swap_flat.sol\":2783:3135  constructor(address _dao, address _m4sToken, address _priceFeed) {... */\n  pop\n  pop\n  pop\n    /* \"Meta4Swap_flat.sol\":993:15645  contract Meta4Swap {... */\n  jump(tag_6)\n    /* \"#utility.yul\":7:150   */\ntag_8:\n    /* \"#utility.yul\":64:69   */\n  0x00\n    /* \"#utility.yul\":95:101   */\n  dup2\n    /* \"#utility.yul\":89:102   */\n  mload\n    /* \"#utility.yul\":80:102   */\n  swap1\n  pop\n    /* \"#utility.yul\":111:144   */\n  tag_10\n    /* \"#utility.yul\":138:143   */\n  dup2\n    /* \"#utility.yul\":111:144   */\n  tag_11\n  jump\t// in\ntag_10:\n    /* \"#utility.yul\":7:150   */\n  swap3\n  swap2\n  pop\n  pop\n  jump\t// out\n    /* \"#utility.yul\":156:819   */\ntag_3:\n    /* \"#utility.yul\":244:250   */\n  0x00\n    /* \"#utility.yul\":252:258   */\n  dup1\n    /* \"#utility.yul\":260:266   */\n  0x00\n    /* \"#utility.yul\":309:311   */\n  0x60\n    /* \"#utility.yul\":297:306   */\n  dup5\n    /* \"#utility.yul\":288:295   */\n  dup7\n    /* \"#utility.yul\":284:307   */\n  sub\n    /* \"#utility.yul\":280:312   */\n  slt\n    /* \"#utility.yul\":277:396   */\n  iszero\n  tag_13\n  jumpi\n    /* \"#utility.yul\":315:394   */\n  tag_14\n  tag_15\n  jump\t// in\ntag_14:\n    /* \"#utility.yul\":277:396   */\ntag_13:\n    /* \"#utility.yul\":435:436   */\n  0x00\n    /* \"#utility.yul\":460:524   */\n  tag_16\n    /* \"#utility.yul\":516:523   */\n  dup7\n    /* \"#utility.yul\":507:513   */\n  dup3\n    /* \"#utility.yul\":496:505   */\n  dup8\n    /* \"#utility.yul\":492:514   */\n  add\n    /* \"#utility.yul\":460:524   */\n  tag_8\n  jump\t// in\ntag_16:\n    /* \"#utility.yul\":450:524   */\n  swap4\n  pop\n    /* \"#utility.yul\":406:534   */\n  pop\n    /* \"#utility.yul\":573:575   */\n  0x20\n    /* \"#utility.yul\":599:663   */\n  tag_17\n    /* \"#utility.yul\":655:662   */\n  dup7\n    /* \"#utility.yul\":646:652   */\n  dup3\n    /* \"#utility.yul\":635:644   */\n  dup8\n    /* \"#utility.yul\":631:653   */\n  add\n    /* \"#utility.yul\":599:663   */\n  tag_8\n  jump\t// in\ntag_17:\n    /* \"#utility.yul\":589:663   */\n  swap3\n  pop\n    /* \"#utility.yul\":544:673   */\n  pop\n    /* \"#utility.yul\":712:714   */\n  0x40\n    /* \"#utility.yul\":738:802   */\n  tag_18\n    /* \"#utility.yul\":794:801   */\n  dup7\n    /* \"#utility.yul\":785:791   */\n  dup3\n    /* \"#utility.yul\":774:783   */\n  dup8\n    /* \"#utility.yul\":770:792   */\n  add\n    /* \"#utility.yul\":738:802   */\n  tag_8\n  jump\t// in\ntag_18:\n    /* \"#utility.yul\":728:802   */\n  swap2\n  pop\n    /* \"#utility.yul\":683:812   */\n  pop\n    /* \"#utility.yul\":156:819   */\n  swap3\n  pop\n  swap3\n  pop\n  swap3\n  jump\t// out\n    /* \"#utility.yul\":906:1002   */\ntag_21:\n    /* \"#utility.yul\":943:950   */\n  0x00\n    /* \"#utility.yul\":972:996   */\n  tag_23\n    /* \"#utility.yul\":990:995   */\n  dup3\n    /* \"#utility.yul\":972:996   */\n  tag_24\n  jump\t// in\ntag_23:\n    /* \"#utility.yul\":961:996   */\n  swap1\n  pop\n    /* \"#utility.yul\":906:1002   */\n  swap2\n  swap1\n  pop\n  jump\t// out\n    /* \"#utility.yul\":1008:1134   */\ntag_24:\n    /* \"#utility.yul\":1045:1052   */\n  0x00\n    /* \"#utility.yul\":1085:1127   */\n  0xffffffffffffffffffffffffffffffffffffffff\n    /* \"#utility.yul\":1078:1083   */\n  dup3\n    /* \"#utility.yul\":1074:1128   */\n  and\n    /* \"#utility.yul\":1063:1128   */\n  swap1\n  pop\n    /* \"#utility.yul\":1008:1134   */\n  swap2\n  swap1\n  pop\n  jump\t// out\n    /* \"#utility.yul\":1263:1380   */\ntag_15:\n    /* \"#utility.yul\":1372:1373   */\n  0x00\n    /* \"#utility.yul\":1369:1370   */\n  dup1\n    /* \"#utility.yul\":1362:1374   */\n  revert\n    /* \"#utility.yul\":1386:1508   */\ntag_11:\n    /* \"#utility.yul\":1459:1483   */\n  tag_30\n    /* \"#utility.yul\":1477:1482   */\n  dup2\n    /* \"#utility.yul\":1459:1483   */\n  tag_21\n  jump\t// in\ntag_30:\n    /* \"#utility.yul\":1452:1457   */\n  dup2\n    /* \"#utility.yul\":1449:1484   */\n  eq\n    /* \"#utility.yul\":1439:1502   */\n  tag_31\n  jumpi\n    /* \"#utility.yul\":1498:1499   */\n  0x00\n    /* \"#utility.yul\":1495:1496   */\n  dup1\n    /* \"#utility.yul\":1488:1500   */\n  revert\n    /* \"#utility.yul\":1439:1502   */\ntag_31:\n    /* \"#utility.yul\":1386:1508   */\n  pop\n  jump\t// out\n    /* \"Meta4Swap_flat.sol\":993:15645  contract Meta4Swap {... */\ntag_6:\n  dataSize(sub_0)\n  dup1\n  dataOffset(sub_0)\n  0x00\n  codecopy\n  0x00\n  return\nstop\n\nsub_0: assembly {\n        /* \"Meta4Swap_flat.sol\":993:15645  contract Meta4Swap {... */\n      mstore(0x40, 0x80)\n      jumpi(tag_1, lt(calldatasize, 0x04))\n      shr(0xe0, calldataload(0x00))\n      dup1\n      0x741bef1a\n      gt\n      tag_36\n      jumpi\n      dup1\n      0xa0e50ca6\n      gt\n      tag_37\n      jumpi\n      dup1\n      0xd0e7a5cb\n      gt\n      tag_38\n      jumpi\n      dup1\n      0xd0e7a5cb\n      eq\n      tag_31\n      jumpi\n      dup1\n      0xd96a094a\n      eq\n      tag_32\n      jumpi\n      dup1\n      0xe039bec7\n      eq\n      tag_33\n      jumpi\n      dup1\n      0xf851a440\n      eq\n      tag_34\n      jumpi\n      dup1\n      0xfd2e997e\n      eq\n      tag_35\n      jumpi\n      jump(tag_1)\n    tag_38:\n      dup1\n      0xa0e50ca6\n      eq\n      tag_27\n      jumpi\n      dup1\n      0xaf0d467b\n      eq\n      tag_28\n      jumpi\n      dup1\n      0xc0eb4e7d\n      eq\n      tag_29\n      jumpi\n      dup1\n      0xc0f0f73f\n      eq\n      tag_30\n      jumpi\n      jump(tag_1)\n    tag_37:\n      dup1\n      0x86d6282c\n      gt\n      tag_39\n      jumpi\n      dup1\n      0x86d6282c\n      eq\n      tag_23\n      jumpi\n      dup1\n      0x8e15f473\n      eq\n      tag_24\n      jumpi\n      dup1\n      0x918d407d\n      eq\n      tag_25\n      jumpi\n      dup1\n      0x971d852f\n      eq\n      tag_26\n      jumpi\n      jump(tag_1)\n    tag_39:\n      dup1\n      0x741bef1a\n      eq\n      tag_19\n      jumpi\n      dup1\n      0x761610fc\n      eq\n      tag_20\n      jumpi\n      dup1\n      0x82c35bfa\n      eq\n      tag_21\n      jumpi\n      dup1\n      0x83219a8a\n      eq\n      tag_22\n      jumpi\n      jump(tag_1)\n    tag_36:\n      dup1\n      0x2ffbb678\n      gt\n      tag_40\n      jumpi\n      dup1\n      0x54282632\n      gt\n      tag_41\n      jumpi\n      dup1\n      0x54282632\n      eq\n      tag_14\n      jumpi\n      dup1\n      0x6a166964\n      eq\n      tag_15\n      jumpi\n      dup1\n      0x6ab34a4a\n      eq\n      tag_16\n      jumpi\n      dup1\n      0x6bfb0d01\n      eq\n      tag_17\n      jumpi\n      dup1\n      0x6c914501\n      eq\n      tag_18\n      jumpi\n      jump(tag_1)\n    tag_41:\n      dup1\n      0x2ffbb678\n      eq\n      tag_10\n      jumpi\n      dup1\n      0x34650412\n      eq\n      tag_11\n      jumpi\n      dup1\n      0x40e58ee5\n      eq\n      tag_12\n      jumpi\n      dup1\n      0x4162169f\n      eq\n      tag_13\n      jumpi\n      jump(tag_1)\n    tag_40:\n      dup1\n      0x22a5aebf\n      gt\n      tag_42\n      jumpi\n      dup1\n      0x22a5aebf\n      eq\n      tag_6\n      jumpi\n      dup1\n      0x2453ffa8\n      eq\n      tag_7\n      jumpi\n      dup1\n      0x24ec7590\n      eq\n      tag_8\n      jumpi\n      dup1\n      0x2ab29df7\n      eq\n      tag_9\n      jumpi\n      jump(tag_1)\n    tag_42:\n      dup1\n      0x101e1940\n      eq\n      tag_2\n      jumpi\n      dup1\n      0x16632302\n      eq\n      tag_3\n      jumpi\n      dup1\n      0x1885f580\n      eq\n      tag_4\n      jumpi\n      dup1\n      0x1c8e8962\n      eq\n      tag_5\n      jumpi\n    tag_1:\n      0x00\n      dup1\n      revert\n        /* \"Meta4Swap_flat.sol\":2507:2553  mapping(uint256 => Dispute) public disputeInfo */\n    tag_2:\n      callvalue\n      dup1\n      iszero\n      tag_43\n      jumpi\n      0x00\n      dup1\n      revert\n    tag_43:\n      pop\n      tag_44\n      0x04\n      dup1\n      calldatasize\n      sub\n      dup2\n      add\n      swap1\n      tag_45\n      swap2\n      swap1\n      tag_46\n      jump\t// in\n    tag_45:\n      tag_47\n      jump\t// in\n    tag_44:\n      mload(0x40)\n      tag_48\n      swap5\n      swap4\n      swap3\n      swap2\n      swap1\n      tag_49\n      jump\t// in\n    tag_48:\n      mload(0x40)\n      dup1\n      swap2\n      sub\n      swap1\n      return\n        /* \"Meta4Swap_flat.sol\":11090:11584  function updateDispute(uint256 _orderId, string memory _ipfsHash)... */\n    tag_3:\n      callvalue\n      dup1\n      iszero\n      tag_50\n      jumpi\n      0x00\n      dup1\n      revert\n    tag_50:\n      pop\n      tag_51\n      0x04\n      dup1\n      calldatasize\n      sub\n      dup2\n      add\n      swap1\n      tag_52\n      swap2\n      swap1\n      tag_53\n      jump\t// in\n    tag_52:\n      tag_54\n      jump\t// in\n    tag_51:\n      stop\n        /* \"Meta4Swap_flat.sol\":1374:1398  uint256 public daoReward */\n    tag_4:\n      callvalue\n      dup1\n      iszero\n      tag_55\n      jumpi\n      0x00\n      dup1\n      revert\n    tag_55:\n      pop\n      tag_56\n      tag_57\n      jump\t// in\n    tag_56:\n      mload(0x40)\n      tag_58\n      swap2\n      swap1\n      tag_59\n      jump\t// in\n    tag_58:\n      mload(0x40)\n      dup1\n      swap2\n      sub\n      swap1\n      return\n        /* \"Meta4Swap_flat.sol\":2596:2642  mapping(address => Profile) public userProfile */\n    tag_5:\n      callvalue\n      dup1\n      iszero\n      tag_60\n      jumpi\n      0x00\n      dup1\n      revert\n    tag_60:\n      pop\n      tag_61\n      0x04\n      dup1\n      calldatasize\n      sub\n      dup2\n      add\n      swap1\n      tag_62\n      swap2\n      swap1\n      tag_63\n      jump\t// in\n    tag_62:\n      tag_64\n      jump\t// in\n    tag_61:\n      mload(0x40)\n      tag_65\n      swap4\n      swap3\n      swap2\n      swap1\n      tag_66\n      jump\t// in\n    tag_65:\n      mload(0x40)\n      dup1\n      swap2\n      sub\n      swap1\n      return\n        /* \"Meta4Swap_flat.sol\":1215:1238  address public m4sToken */\n    tag_6:\n      callvalue\n      dup1\n      iszero\n      tag_67\n      jumpi\n      0x00\n      dup1\n      revert\n    tag_67:\n      pop\n      tag_68\n      tag_69\n      jump\t// in\n    tag_68:\n      mload(0x40)\n      tag_70\n      swap2\n      swap1\n      tag_71\n      jump\t// in\n    tag_70:\n      mload(0x40)\n      dup1\n      swap2\n      sub\n      swap1\n      return\n        /* \"Meta4Swap_flat.sol\":1039:1064  uint256 public orderCount */\n    tag_7:\n      callvalue\n      dup1\n      iszero\n      tag_72\n      jumpi\n      0x00\n      dup1\n      revert\n    tag_72:\n      pop\n      tag_73\n      tag_74\n      jump\t// in\n    tag_73:\n      mload(0x40)\n      tag_75\n      swap2\n      swap1\n      tag_59\n      jump\t// in\n    tag_75:\n      mload(0x40)\n      dup1\n      swap2\n      sub\n      swap1\n      return\n        /* \"Meta4Swap_flat.sol\":1411:1432  uint256 public minFee */\n    tag_8:\n      callvalue\n      dup1\n      iszero\n      tag_76\n      jumpi\n      0x00\n      dup1\n      revert\n    tag_76:\n      pop\n      tag_77\n      tag_78\n      jump\t// in\n    tag_77:\n      mload(0x40)\n      tag_79\n      swap2\n      swap1\n      tag_59\n      jump\t// in\n    tag_79:\n      mload(0x40)\n      dup1\n      swap2\n      sub\n      swap1\n      return\n        /* \"Meta4Swap_flat.sol\":13355:13892  function updateAddress(uint256 _value, address _newAddress) public {... */\n    tag_9:\n      callvalue\n      dup1\n      iszero\n      tag_80\n      jumpi\n      0x00\n      dup1\n      revert\n    tag_80:\n      pop\n      tag_81\n      0x04\n      dup1\n      calldatasize\n      sub\n      dup2\n      add\n      swap1\n      tag_82\n      swap2\n      swap1\n      tag_83\n      jump\t// in\n    tag_82:\n      tag_84\n      jump\t// in\n    tag_81:\n      stop\n        /* \"Meta4Swap_flat.sol\":13898:14098  function updateRewardsisLive(bool _state) public {... */\n    tag_10:\n      callvalue\n      dup1\n      iszero\n      tag_85\n      jumpi\n      0x00\n      dup1\n      revert\n    tag_85:\n      pop\n      tag_86\n      0x04\n      dup1\n      calldatasize\n      sub\n      dup2\n      add\n      swap1\n      tag_87\n      swap2\n      swap1\n      tag_88\n      jump\t// in\n    tag_87:\n      tag_89\n      jump\t// in\n    tag_86:\n      stop\n        /* \"Meta4Swap_flat.sol\":2417:2478  mapping(address => mapping(uint256 => bool)) public offerInfo */\n    tag_11:\n      callvalue\n      dup1\n      iszero\n      tag_90\n      jumpi\n      0x00\n      dup1\n      revert\n    tag_90:\n      pop\n      tag_91\n      0x04\n      dup1\n      calldatasize\n      sub\n      dup2\n      add\n      swap1\n      tag_92\n      swap2\n      swap1\n      tag_93\n      jump\t// in\n    tag_92:\n      tag_94\n      jump\t// in\n    tag_91:\n      mload(0x40)\n      tag_95\n      swap2\n      swap1\n      tag_96\n      jump\t// in\n    tag_95:\n      mload(0x40)\n      dup1\n      swap2\n      sub\n      swap1\n      return\n        /* \"Meta4Swap_flat.sol\":9871:10589  function cancel(uint256 _orderId) public {... */\n    tag_12:\n      callvalue\n      dup1\n      iszero\n      tag_97\n      jumpi\n      0x00\n      dup1\n      revert\n    tag_97:\n      pop\n      tag_98\n      0x04\n      dup1\n      calldatasize\n      sub\n      dup2\n      add\n      swap1\n      tag_99\n      swap2\n      swap1\n      tag_46\n      jump\t// in\n    tag_99:\n      tag_100\n      jump\t// in\n    tag_98:\n      stop\n        /* \"Meta4Swap_flat.sol\":1191:1209  address public dao */\n    tag_13:\n      callvalue\n      dup1\n      iszero\n      tag_101\n      jumpi\n      0x00\n      dup1\n      revert\n    tag_101:\n      pop\n      tag_102\n      tag_103\n      jump\t// in\n    tag_102:\n      mload(0x40)\n      tag_104\n      swap2\n      swap1\n      tag_71\n      jump\t// in\n    tag_104:\n      mload(0x40)\n      dup1\n      swap2\n      sub\n      swap1\n      return\n        /* \"Meta4Swap_flat.sol\":1331:1358  uint256 public sellerReward */\n    tag_14:\n      callvalue\n      dup1\n      iszero\n      tag_105\n      jumpi\n      0x00\n      dup1\n      revert\n    tag_105:\n      pop\n      tag_106\n      tag_107\n      jump\t// in\n    tag_106:\n      mload(0x40)\n      tag_108\n      swap2\n      swap1\n      tag_59\n      jump\t// in\n    tag_108:\n      mload(0x40)\n      dup1\n      swap2\n      sub\n      swap1\n      return\n        /* \"Meta4Swap_flat.sol\":1100:1129  uint256 public marketplaceFee */\n    tag_15:\n      callvalue\n      dup1\n      iszero\n      tag_109\n      jumpi\n      0x00\n      dup1\n      revert\n    tag_109:\n      pop\n      tag_110\n      tag_111\n      jump\t// in\n    tag_110:\n      mload(0x40)\n      tag_112\n      swap2\n      swap1\n      tag_59\n      jump\t// in\n    tag_112:\n      mload(0x40)\n      dup1\n      swap2\n      sub\n      swap1\n      return\n        /* \"Meta4Swap_flat.sol\":2334:2376  mapping(uint256 => Order) public orderInfo */\n    tag_16:\n      callvalue\n      dup1\n      iszero\n      tag_113\n      jumpi\n      0x00\n      dup1\n      revert\n    tag_113:\n      pop\n      tag_114\n      0x04\n      dup1\n      calldatasize\n      sub\n      dup2\n      add\n      swap1\n      tag_115\n      swap2\n      swap1\n      tag_46\n      jump\t// in\n    tag_115:\n      tag_116\n      jump\t// in\n    tag_114:\n      mload(0x40)\n      tag_117\n      swap13\n      swap12\n      swap11\n      swap10\n      swap9\n      swap8\n      swap7\n      swap6\n      swap5\n      swap4\n      swap3\n      swap2\n      swap1\n      tag_118\n      jump\t// in\n    tag_117:\n      mload(0x40)\n      dup1\n      swap2\n      sub\n      swap1\n      return\n        /* \"Meta4Swap_flat.sol\":1070:1094  uint256 public itemCount */\n    tag_17:\n      callvalue\n      dup1\n      iszero\n      tag_119\n      jumpi\n      0x00\n      dup1\n      revert\n    tag_119:\n      pop\n      tag_120\n      tag_121\n      jump\t// in\n    tag_120:\n      mload(0x40)\n      tag_122\n      swap2\n      swap1\n      tag_59\n      jump\t// in\n    tag_122:\n      mload(0x40)\n      dup1\n      swap2\n      sub\n      swap1\n      return\n        /* \"Meta4Swap_flat.sol\":3985:4604  function create(... */\n    tag_18:\n      callvalue\n      dup1\n      iszero\n      tag_123\n      jumpi\n      0x00\n      dup1\n      revert\n    tag_123:\n      pop\n      tag_124\n      0x04\n      dup1\n      calldatasize\n      sub\n      dup2\n      add\n      swap1\n      tag_125\n      swap2\n      swap1\n      tag_126\n      jump\t// in\n    tag_125:\n      tag_127\n      jump\t// in\n    tag_124:\n      mload(0x40)\n      tag_128\n      swap2\n      swap1\n      tag_59\n      jump\t// in\n    tag_128:\n      mload(0x40)\n      dup1\n      swap2\n      sub\n      swap1\n      return\n        /* \"Meta4Swap_flat.sol\":1244:1268  address public priceFeed */\n    tag_19:\n      callvalue\n      dup1\n      iszero\n      tag_129\n      jumpi\n      0x00\n      dup1\n      revert\n    tag_129:\n      pop\n      tag_130\n      tag_131\n      jump\t// in\n    tag_130:\n      mload(0x40)\n      tag_132\n      swap2\n      swap1\n      tag_71\n      jump\t// in\n    tag_132:\n      mload(0x40)\n      dup1\n      swap2\n      sub\n      swap1\n      return\n        /* \"Meta4Swap_flat.sol\":6115:6440  function offer(uint256 _itemId) public {... */\n    tag_20:\n      callvalue\n      dup1\n      iszero\n      tag_133\n      jumpi\n      0x00\n      dup1\n      revert\n    tag_133:\n      pop\n      tag_134\n      0x04\n      dup1\n      calldatasize\n      sub\n      dup2\n      add\n      swap1\n      tag_135\n      swap2\n      swap1\n      tag_46\n      jump\t// in\n    tag_135:\n      tag_136\n      jump\t// in\n    tag_134:\n      stop\n        /* \"Meta4Swap_flat.sol\":2676:2739  mapping(address => mapping(uint256 => bool)) public ratingCheck */\n    tag_21:\n      callvalue\n      dup1\n      iszero\n      tag_137\n      jumpi\n      0x00\n      dup1\n      revert\n    tag_137:\n      pop\n      tag_138\n      0x04\n      dup1\n      calldatasize\n      sub\n      dup2\n      add\n      swap1\n      tag_139\n      swap2\n      swap1\n      tag_93\n      jump\t// in\n    tag_139:\n      tag_140\n      jump\t// in\n    tag_138:\n      mload(0x40)\n      tag_141\n      swap2\n      swap1\n      tag_96\n      jump\t// in\n    tag_141:\n      mload(0x40)\n      dup1\n      swap2\n      sub\n      swap1\n      return\n        /* \"Meta4Swap_flat.sol\":14389:14670  function editMetadata(uint256 _itemId, string memory _metadata) public {... */\n    tag_22:\n      callvalue\n      dup1\n      iszero\n      tag_142\n      jumpi\n      0x00\n      dup1\n      revert\n    tag_142:\n      pop\n      tag_143\n      0x04\n      dup1\n      calldatasize\n      sub\n      dup2\n      add\n      swap1\n      tag_144\n      swap2\n      swap1\n      tag_53\n      jump\t// in\n    tag_144:\n      tag_145\n      jump\t// in\n    tag_143:\n      stop\n        /* \"Meta4Swap_flat.sol\":10611:11084  function dispute(uint256 _orderId) public onlyCounterpart(_orderId) {... */\n    tag_23:\n      callvalue\n      dup1\n      iszero\n      tag_146\n      jumpi\n      0x00\n      dup1\n      revert\n    tag_146:\n      pop\n      tag_147\n      0x04\n      dup1\n      calldatasize\n      sub\n      dup2\n      add\n      swap1\n      tag_148\n      swap2\n      swap1\n      tag_46\n      jump\t// in\n    tag_148:\n      tag_149\n      jump\t// in\n    tag_147:\n      stop\n        /* \"Meta4Swap_flat.sol\":15185:15643  function getLatestPrice() public view returns (int256) {... */\n    tag_24:\n      callvalue\n      dup1\n      iszero\n      tag_150\n      jumpi\n      0x00\n      dup1\n      revert\n    tag_150:\n      pop\n      tag_151\n      tag_152\n      jump\t// in\n    tag_151:\n      mload(0x40)\n      tag_153\n      swap2\n      swap1\n      tag_154\n      jump\t// in\n    tag_153:\n      mload(0x40)\n      dup1\n      swap2\n      sub\n      swap1\n      return\n        /* \"Meta4Swap_flat.sol\":6446:7995  function acceptOffer(uint _itemId, address _worker) public payable returns (uint256) {... */\n    tag_25:\n      tag_155\n      0x04\n      dup1\n      calldatasize\n      sub\n      dup2\n      add\n      swap1\n      tag_156\n      swap2\n      swap1\n      tag_83\n      jump\t// in\n    tag_156:\n      tag_157\n      jump\t// in\n    tag_155:\n      mload(0x40)\n      tag_158\n      swap2\n      swap1\n      tag_59\n      jump\t// in\n    tag_158:\n      mload(0x40)\n      dup1\n      swap2\n      sub\n      swap1\n      return\n        /* \"Meta4Swap_flat.sol\":8001:9865  function complete(uint256 _orderId) public onlyCounterpart(_orderId) {... */\n    tag_26:\n      callvalue\n      dup1\n      iszero\n      tag_159\n      jumpi\n      0x00\n      dup1\n      revert\n    tag_159:\n      pop\n      tag_160\n      0x04\n      dup1\n      calldatasize\n      sub\n      dup2\n      add\n      swap1\n      tag_161\n      swap2\n      swap1\n      tag_46\n      jump\t// in\n    tag_161:\n      tag_162\n      jump\t// in\n    tag_160:\n      stop\n        /* \"Meta4Swap_flat.sol\":12962:13328  function updateRules(uint256 _variable, uint256 _value)... */\n    tag_27:\n      callvalue\n      dup1\n      iszero\n      tag_163\n      jumpi\n      0x00\n      dup1\n      revert\n    tag_163:\n      pop\n      tag_164\n      0x04\n      dup1\n      calldatasize\n      sub\n      dup2\n      add\n      swap1\n      tag_165\n      swap2\n      swap1\n      tag_166\n      jump\t// in\n    tag_165:\n      tag_167\n      jump\t// in\n    tag_164:\n      mload(0x40)\n      tag_168\n      swap2\n      swap1\n      tag_96\n      jump\t// in\n    tag_168:\n      mload(0x40)\n      dup1\n      swap2\n      sub\n      swap1\n      return\n        /* \"Meta4Swap_flat.sol\":11591:12937  function resolve(uint256 _orderId, address _winner) public {... */\n    tag_28:\n      callvalue\n      dup1\n      iszero\n      tag_169\n      jumpi\n      0x00\n      dup1\n      revert\n    tag_169:\n      pop\n      tag_170\n      0x04\n      dup1\n      calldatasize\n      sub\n      dup2\n      add\n      swap1\n      tag_171\n      swap2\n      swap1\n      tag_83\n      jump\t// in\n    tag_171:\n      tag_172\n      jump\t// in\n    tag_170:\n      stop\n        /* \"Meta4Swap_flat.sol\":14676:14939  function editState(uint256 _itemId, bool _isLive) public {... */\n    tag_29:\n      callvalue\n      dup1\n      iszero\n      tag_173\n      jumpi\n      0x00\n      dup1\n      revert\n    tag_173:\n      pop\n      tag_174\n      0x04\n      dup1\n      calldatasize\n      sub\n      dup2\n      add\n      swap1\n      tag_175\n      swap2\n      swap1\n      tag_176\n      jump\t// in\n    tag_175:\n      tag_177\n      jump\t// in\n    tag_174:\n      stop\n        /* \"Meta4Swap_flat.sol\":1289:1315  uint256 public buyerReward */\n    tag_30:\n      callvalue\n      dup1\n      iszero\n      tag_178\n      jumpi\n      0x00\n      dup1\n      revert\n    tag_178:\n      pop\n      tag_179\n      tag_180\n      jump\t// in\n    tag_179:\n      mload(0x40)\n      tag_181\n      swap2\n      swap1\n      tag_59\n      jump\t// in\n    tag_181:\n      mload(0x40)\n      dup1\n      swap2\n      sub\n      swap1\n      return\n        /* \"Meta4Swap_flat.sol\":14120:14383  function editPrice(uint256 _itemId, uint256 _value) public {... */\n    tag_31:\n      callvalue\n      dup1\n      iszero\n      tag_182\n      jumpi\n      0x00\n      dup1\n      revert\n    tag_182:\n      pop\n      tag_183\n      0x04\n      dup1\n      calldatasize\n      sub\n      dup2\n      add\n      swap1\n      tag_184\n      swap2\n      swap1\n      tag_166\n      jump\t// in\n    tag_184:\n      tag_185\n      jump\t// in\n    tag_183:\n      stop\n        /* \"Meta4Swap_flat.sol\":4610:6109  function buy(uint256 _itemId)... */\n    tag_32:\n      tag_186\n      0x04\n      dup1\n      calldatasize\n      sub\n      dup2\n      add\n      swap1\n      tag_187\n      swap2\n      swap1\n      tag_46\n      jump\t// in\n    tag_187:\n      tag_188\n      jump\t// in\n    tag_186:\n      mload(0x40)\n      tag_189\n      swap2\n      swap1\n      tag_59\n      jump\t// in\n    tag_189:\n      mload(0x40)\n      dup1\n      swap2\n      sub\n      swap1\n      return\n        /* \"Meta4Swap_flat.sol\":1480:1503  bool public rewardsLive */\n    tag_33:\n      callvalue\n      dup1\n      iszero\n      tag_190\n      jumpi\n      0x00\n      dup1\n      revert\n    tag_190:\n      pop\n      tag_191\n      tag_192\n      jump\t// in\n    tag_191:\n      mload(0x40)\n      tag_193\n      swap2\n      swap1\n      tag_96\n      jump\t// in\n    tag_193:\n      mload(0x40)\n      dup1\n      swap2\n      sub\n      swap1\n      return\n        /* \"Meta4Swap_flat.sol\":1165:1185  address public admin */\n    tag_34:\n      callvalue\n      dup1\n      iszero\n      tag_194\n      jumpi\n      0x00\n      dup1\n      revert\n    tag_194:\n      pop\n      tag_195\n      tag_196\n      jump\t// in\n    tag_195:\n      mload(0x40)\n      tag_197\n      swap2\n      swap1\n      tag_71\n      jump\t// in\n    tag_197:\n      mload(0x40)\n      dup1\n      swap2\n      sub\n      swap1\n      return\n        /* \"Meta4Swap_flat.sol\":2255:2295  mapping(uint256 => Item) public itemInfo */\n    tag_35:\n      callvalue\n      dup1\n      iszero\n      tag_198\n      jumpi\n      0x00\n      dup1\n      revert\n    tag_198:\n      pop\n      tag_199\n      0x04\n      dup1\n      calldatasize\n      sub\n      dup2\n      add\n      swap1\n      tag_200\n      swap2\n      swap1\n      tag_46\n      jump\t// in\n    tag_200:\n      tag_201\n      jump\t// in\n    tag_199:\n      mload(0x40)\n      tag_202\n      swap7\n      swap6\n      swap5\n      swap4\n      swap3\n      swap2\n      swap1\n      tag_203\n      jump\t// in\n    tag_202:\n      mload(0x40)\n      dup1\n      swap2\n      sub\n      swap1\n      return\n        /* \"Meta4Swap_flat.sol\":2507:2553  mapping(uint256 => Dispute) public disputeInfo */\n    tag_47:\n      mstore(0x20, 0x0f)\n      dup1\n      0x00\n      mstore\n      keccak256(0x00, 0x40)\n      0x00\n      swap2\n      pop\n      swap1\n      pop\n      dup1\n      0x00\n      add\n      dup1\n      sload\n      tag_204\n      swap1\n      tag_205\n      jump\t// in\n    tag_204:\n      dup1\n      0x1f\n      add\n      0x20\n      dup1\n      swap2\n      div\n      mul\n      0x20\n      add\n      mload(0x40)\n      swap1\n      dup2\n      add\n      0x40\n      mstore\n      dup1\n      swap3\n      swap2\n      swap1\n      dup2\n      dup2\n      mstore\n      0x20\n      add\n      dup3\n      dup1\n      sload\n      tag_206\n      swap1\n      tag_205\n      jump\t// in\n    tag_206:\n      dup1\n      iszero\n      tag_207\n      jumpi\n      dup1\n      0x1f\n      lt\n      tag_208\n      jumpi\n      0x0100\n      dup1\n      dup4\n      sload\n      div\n      mul\n      dup4\n      mstore\n      swap2\n      0x20\n      add\n      swap2\n      jump(tag_207)\n    tag_208:\n      dup3\n      add\n      swap2\n      swap1\n      0x00\n      mstore\n      keccak256(0x00, 0x20)\n      swap1\n    tag_209:\n      dup2\n      sload\n      dup2\n      mstore\n      swap1\n      0x01\n      add\n      swap1\n      0x20\n      add\n      dup1\n      dup4\n      gt\n      tag_209\n      jumpi\n      dup3\n      swap1\n      sub\n      0x1f\n      and\n      dup3\n      add\n      swap2\n    tag_207:\n      pop\n      pop\n      pop\n      pop\n      pop\n      swap1\n      dup1\n      0x01\n      add\n      dup1\n      sload\n      tag_210\n      swap1\n      tag_205\n      jump\t// in\n    tag_210:\n      dup1\n      0x1f\n      add\n      0x20\n      dup1\n      swap2\n      div\n      mul\n      0x20\n      add\n      mload(0x40)\n      swap1\n      dup2\n      add\n      0x40\n      mstore\n      dup1\n      swap3\n      swap2\n      swap1\n      dup2\n      dup2\n      mstore\n      0x20\n      add\n      dup3\n      dup1\n      sload\n      tag_211\n      swap1\n      tag_205\n      jump\t// in\n    tag_211:\n      dup1\n      iszero\n      tag_212\n      jumpi\n      dup1\n      0x1f\n      lt\n      tag_213\n      jumpi\n      0x0100\n      dup1\n      dup4\n      sload\n      div\n      mul\n      dup4\n      mstore\n      swap2\n      0x20\n      add\n      swap2\n      jump(tag_212)\n    tag_213:\n      dup3\n      add\n      swap2\n      swap1\n      0x00\n      mstore\n      keccak256(0x00, 0x20)\n      swap1\n    tag_214:\n      dup2\n      sload\n      dup2\n      mstore\n      swap1\n      0x01\n      add\n      swap1\n      0x20\n      add\n      dup1\n      dup4\n      gt\n      tag_214\n      jumpi\n      dup3\n      swap1\n      sub\n      0x1f\n      and\n      dup3\n      add\n      swap2\n    tag_212:\n      pop\n      pop\n      pop\n      pop\n      pop\n      swap1\n      dup1\n      0x02\n      add\n      sload\n      swap1\n      dup1\n      0x03\n      add\n      0x00\n      swap1\n      sload\n      swap1\n      0x0100\n      exp\n      swap1\n      div\n      0xff\n      and\n      swap1\n      pop\n      dup5\n      jump\t// out\n        /* \"Meta4Swap_flat.sol\":11090:11584  function updateDispute(uint256 _orderId, string memory _ipfsHash)... */\n    tag_54:\n        /* \"Meta4Swap_flat.sol\":11195:11203  _orderId */\n      dup2\n        /* \"Meta4Swap_flat.sol\":3828:3838  msg.sender */\n      caller\n        /* \"Meta4Swap_flat.sol\":3799:3838  orderInfo[_orderId].buyer == msg.sender */\n      0xffffffffffffffffffffffffffffffffffffffff\n      and\n        /* \"Meta4Swap_flat.sol\":3799:3808  orderInfo */\n      0x0d\n        /* \"Meta4Swap_flat.sol\":3799:3818  orderInfo[_orderId] */\n      0x00\n        /* \"Meta4Swap_flat.sol\":3809:3817  _orderId */\n      dup4\n        /* \"Meta4Swap_flat.sol\":3799:3818  orderInfo[_orderId] */\n      dup2\n      mstore\n      0x20\n      add\n      swap1\n      dup2\n      mstore\n      0x20\n      add\n      0x00\n      keccak256\n        /* \"Meta4Swap_flat.sol\":3799:3824  orderInfo[_orderId].buyer */\n      0x07\n      add\n      0x03\n      swap1\n      sload\n      swap1\n      0x0100\n      exp\n      swap1\n      div\n      0xffffffffffffffffffffffffffffffffffffffff\n      and\n        /* \"Meta4Swap_flat.sol\":3799:3838  orderInfo[_orderId].buyer == msg.sender */\n      0xffffffffffffffffffffffffffffffffffffffff\n      and\n      eq\n        /* \"Meta4Swap_flat.sol\":3799:3898  orderInfo[_orderId].buyer == msg.sender ||... */\n      dup1\n      tag_216\n      jumpi\n      pop\n        /* \"Meta4Swap_flat.sol\":3888:3898  msg.sender */\n      caller\n        /* \"Meta4Swap_flat.sol\":3858:3898  orderInfo[_orderId].seller == msg.sender */\n      0xffffffffffffffffffffffffffffffffffffffff\n      and\n        /* \"Meta4Swap_flat.sol\":3858:3867  orderInfo */\n      0x0d\n        /* \"Meta4Swap_flat.sol\":3858:3877  orderInfo[_orderId] */\n      0x00\n        /* \"Meta4Swap_flat.sol\":3868:3876  _orderId */\n      dup4\n        /* \"Meta4Swap_flat.sol\":3858:3877  orderInfo[_orderId] */\n      dup2\n      mstore\n      0x20\n      add\n      swap1\n      dup2\n      mstore\n      0x20\n      add\n      0x00\n      keccak256\n        /* \"Meta4Swap_flat.sol\":3858:3884  orderInfo[_orderId].seller */\n      0x08\n      add\n      0x00\n      swap1\n      sload\n      swap1\n      0x0100\n      exp\n      swap1\n      div\n      0xffffffffffffffffffffffffffffffffffffffff\n      and\n        /* \"Meta4Swap_flat.sol\":3858:3898  orderInfo[_orderId].seller == msg.sender */\n      0xffffffffffffffffffffffffffffffffffffffff\n      and\n      eq\n        /* \"Meta4Swap_flat.sol\":3799:3898  orderInfo[_orderId].buyer == msg.sender ||... */\n    tag_216:\n        /* \"Meta4Swap_flat.sol\":3778:3961  require(... */\n      tag_217\n      jumpi\n      mload(0x40)\n      0x08c379a000000000000000000000000000000000000000000000000000000000\n      dup2\n      mstore\n      0x04\n      add\n      tag_218\n      swap1\n      tag_219\n      jump\t// in\n    tag_218:\n      mload(0x40)\n      dup1\n      swap2\n      sub\n      swap1\n      revert\n    tag_217:\n        /* \"Meta4Swap_flat.sol\":11259:11263  true */\n      0x01\n        /* \"Meta4Swap_flat.sol\":11227:11263  disputeInfo[_orderId].isLive == true */\n      iszero\n      iszero\n        /* \"Meta4Swap_flat.sol\":11227:11238  disputeInfo */\n      0x0f\n        /* \"Meta4Swap_flat.sol\":11227:11248  disputeInfo[_orderId] */\n      0x00\n        /* \"Meta4Swap_flat.sol\":11239:11247  _orderId */\n      dup6\n        /* \"Meta4Swap_flat.sol\":11227:11248  disputeInfo[_orderId] */\n      dup2\n      mstore\n      0x20\n      add\n      swap1\n      dup2\n      mstore\n      0x20\n      add\n      0x00\n      keccak256\n        /* \"Meta4Swap_flat.sol\":11227:11255  disputeInfo[_orderId].isLive */\n      0x03\n      add\n      0x00\n      swap1\n      sload\n      swap1\n      0x0100\n      exp\n      swap1\n      div\n      0xff\n      and\n        /* \"Meta4Swap_flat.sol\":11227:11263  disputeInfo[_orderId].isLive == true */\n      iszero\n      iszero\n      eq\n        /* \"Meta4Swap_flat.sol\":11219:11286  require(disputeInfo[_orderId].isLive == true, \"Dispute isn't live\") */\n      tag_221\n      jumpi\n      mload(0x40)\n      0x08c379a000000000000000000000000000000000000000000000000000000000\n      dup2\n      mstore\n      0x04\n      add\n      tag_222\n      swap1\n      tag_223\n      jump\t// in\n    tag_222:\n      mload(0x40)\n      dup1\n      swap2\n      sub\n      swap1\n      revert\n    tag_221:\n        /* \"Meta4Swap_flat.sol\":11314:11323  orderInfo */\n      0x0d\n        /* \"Meta4Swap_flat.sol\":11314:11333  orderInfo[_orderId] */\n      0x00\n        /* \"Meta4Swap_flat.sol\":11324:11332  _orderId */\n      dup5\n        /* \"Meta4Swap_flat.sol\":11314:11333  orderInfo[_orderId] */\n      dup2\n      mstore\n      0x20\n      add\n      swap1\n      dup2\n      mstore\n      0x20\n      add\n      0x00\n      keccak256\n        /* \"Meta4Swap_flat.sol\":11314:11339  orderInfo[_orderId].buyer */\n      0x07\n      add\n      0x03\n      swap1\n      sload\n      swap1\n      0x0100\n      exp\n      swap1\n      div\n      0xffffffffffffffffffffffffffffffffffffffff\n      and\n        /* \"Meta4Swap_flat.sol\":11300:11339  msg.sender == orderInfo[_orderId].buyer */\n      0xffffffffffffffffffffffffffffffffffffffff\n      and\n        /* \"Meta4Swap_flat.sol\":11300:11310  msg.sender */\n      caller\n        /* \"Meta4Swap_flat.sol\":11300:11339  msg.sender == orderInfo[_orderId].buyer */\n      0xffffffffffffffffffffffffffffffffffffffff\n      and\n      eq\n        /* \"Meta4Swap_flat.sol\":11296:11538  if (msg.sender == orderInfo[_orderId].buyer) {... */\n      iszero\n      tag_224\n      jumpi\n        /* \"Meta4Swap_flat.sol\":11393:11402  _ipfsHash */\n      dup2\n        /* \"Meta4Swap_flat.sol\":11355:11366  disputeInfo */\n      0x0f\n        /* \"Meta4Swap_flat.sol\":11355:11376  disputeInfo[_orderId] */\n      0x00\n        /* \"Meta4Swap_flat.sol\":11367:11375  _orderId */\n      dup6\n        /* \"Meta4Swap_flat.sol\":11355:11376  disputeInfo[_orderId] */\n      dup2\n      mstore\n      0x20\n      add\n      swap1\n      dup2\n      mstore\n      0x20\n      add\n      0x00\n      keccak256\n        /* \"Meta4Swap_flat.sol\":11355:11390  disputeInfo[_orderId].buyerResponse */\n      0x00\n      add\n        /* \"Meta4Swap_flat.sol\":11355:11402  disputeInfo[_orderId].buyerResponse = _ipfsHash */\n      swap1\n      dup1\n      mload\n      swap1\n      0x20\n      add\n      swap1\n      tag_225\n      swap3\n      swap2\n      swap1\n      tag_226\n      jump\t// in\n    tag_225:\n      pop\n        /* \"Meta4Swap_flat.sol\":11296:11538  if (msg.sender == orderInfo[_orderId].buyer) {... */\n      jump(tag_227)\n    tag_224:\n        /* \"Meta4Swap_flat.sol\":11437:11446  orderInfo */\n      0x0d\n        /* \"Meta4Swap_flat.sol\":11437:11456  orderInfo[_orderId] */\n      0x00\n        /* \"Meta4Swap_flat.sol\":11447:11455  _orderId */\n      dup5\n        /* \"Meta4Swap_flat.sol\":11437:11456  orderInfo[_orderId] */\n      dup2\n      mstore\n      0x20\n      add\n      swap1\n      dup2\n      mstore\n      0x20\n      add\n      0x00\n      keccak256\n        /* \"Meta4Swap_flat.sol\":11437:11463  orderInfo[_orderId].seller */\n      0x08\n      add\n      0x00\n      swap1\n      sload\n      swap1\n      0x0100\n      exp\n      swap1\n      div\n      0xffffffffffffffffffffffffffffffffffffffff\n      and\n        /* \"Meta4Swap_flat.sol\":11423:11463  msg.sender == orderInfo[_orderId].seller */\n      0xffffffffffffffffffffffffffffffffffffffff\n      and\n        /* \"Meta4Swap_flat.sol\":11423:11433  msg.sender */\n      caller\n        /* \"Meta4Swap_flat.sol\":11423:11463  msg.sender == orderInfo[_orderId].seller */\n      0xffffffffffffffffffffffffffffffffffffffff\n      and\n      eq\n        /* \"Meta4Swap_flat.sol\":11419:11538  if (msg.sender == orderInfo[_orderId].seller) {... */\n      iszero\n      tag_228\n      jumpi\n        /* \"Meta4Swap_flat.sol\":11518:11527  _ipfsHash */\n      dup2\n        /* \"Meta4Swap_flat.sol\":11479:11490  disputeInfo */\n      0x0f\n        /* \"Meta4Swap_flat.sol\":11479:11500  disputeInfo[_orderId] */\n      0x00\n        /* \"Meta4Swap_flat.sol\":11491:11499  _orderId */\n      dup6\n        /* \"Meta4Swap_flat.sol\":11479:11500  disputeInfo[_orderId] */\n      dup2\n      mstore\n      0x20\n      add\n      swap1\n      dup2\n      mstore\n      0x20\n      add\n      0x00\n      keccak256\n        /* \"Meta4Swap_flat.sol\":11479:11515  disputeInfo[_orderId].sellerResponse */\n      0x01\n      add\n        /* \"Meta4Swap_flat.sol\":11479:11527  disputeInfo[_orderId].sellerResponse = _ipfsHash */\n      swap1\n      dup1\n      mload\n      swap1\n      0x20\n      add\n      swap1\n      tag_229\n      swap3\n      swap2\n      swap1\n      tag_226\n      jump\t// in\n    tag_229:\n      pop\n        /* \"Meta4Swap_flat.sol\":11419:11538  if (msg.sender == orderInfo[_orderId].seller) {... */\n    tag_228:\n        /* \"Meta4Swap_flat.sol\":11296:11538  if (msg.sender == orderInfo[_orderId].buyer) {... */\n    tag_227:\n        /* \"Meta4Swap_flat.sol\":11553:11577  DisputeUpdated(_orderId) */\n      0x29a00cd7b143153a043355a38ed7fa14305cd81468035c2e2e389897f38980d8\n        /* \"Meta4Swap_flat.sol\":11568:11576  _orderId */\n      dup4\n        /* \"Meta4Swap_flat.sol\":11553:11577  DisputeUpdated(_orderId) */\n      mload(0x40)\n      tag_230\n      swap2\n      swap1\n      tag_59\n      jump\t// in\n    tag_230:\n      mload(0x40)\n      dup1\n      swap2\n      sub\n      swap1\n      log1\n        /* \"Meta4Swap_flat.sol\":11090:11584  function updateDispute(uint256 _orderId, string memory _ipfsHash)... */\n      pop\n      pop\n      pop\n      jump\t// out\n        /* \"Meta4Swap_flat.sol\":1374:1398  uint256 public daoReward */\n    tag_57:\n      sload(0x09)\n      dup2\n      jump\t// out\n        /* \"Meta4Swap_flat.sol\":2596:2642  mapping(address => Profile) public userProfile */\n    tag_64:\n      mstore(0x20, 0x10)\n      dup1\n      0x00\n      mstore\n      keccak256(0x00, 0x40)\n      0x00\n      swap2\n      pop\n      swap1\n      pop\n      dup1\n      0x00\n      add\n      sload\n      swap1\n      dup1\n      0x01\n      add\n      sload\n      swap1\n      dup1\n      0x02\n      add\n      sload\n      swap1\n      pop\n      dup4\n      jump\t// out\n        /* \"Meta4Swap_flat.sol\":1215:1238  address public m4sToken */\n    tag_69:\n      0x05\n      0x00\n      swap1\n      sload\n      swap1\n      0x0100\n      exp\n      swap1\n      div\n      0xffffffffffffffffffffffffffffffffffffffff\n      and\n      dup2\n      jump\t// out\n        /* \"Meta4Swap_flat.sol\":1039:1064  uint256 public orderCount */\n    tag_74:\n      sload(0x00)\n      dup2\n      jump\t// out\n        /* \"Meta4Swap_flat.sol\":1411:1432  uint256 public minFee */\n    tag_78:\n      sload(0x0a)\n      dup2\n      jump\t// out\n        /* \"Meta4Swap_flat.sol\":13355:13892  function updateAddress(uint256 _value, address _newAddress) public {... */\n    tag_84:\n        /* \"Meta4Swap_flat.sol\":13454:13459  admin */\n      0x03\n      0x00\n      swap1\n      sload\n      swap1\n      0x0100\n      exp\n      swap1\n      div\n      0xffffffffffffffffffffffffffffffffffffffff\n      and\n        /* \"Meta4Swap_flat.sol\":13440:13459  msg.sender == admin */\n      0xffffffffffffffffffffffffffffffffffffffff\n      and\n        /* \"Meta4Swap_flat.sol\":13440:13450  msg.sender */\n      caller\n        /* \"Meta4Swap_flat.sol\":13440:13459  msg.sender == admin */\n      0xffffffffffffffffffffffffffffffffffffffff\n      and\n      eq\n        /* \"Meta4Swap_flat.sol\":13432:13495  require(msg.sender == admin, \"Only company can change address\") */\n      tag_232\n      jumpi\n      mload(0x40)\n      0x08c379a000000000000000000000000000000000000000000000000000000000\n      dup2\n      mstore\n      0x04\n      add\n      tag_233\n      swap1\n      tag_234\n      jump\t// in\n    tag_233:\n      mload(0x40)\n      dup1\n      swap2\n      sub\n      swap1\n      revert\n    tag_232:\n        /* \"Meta4Swap_flat.sol\":13519:13520  0 */\n      0x00\n        /* \"Meta4Swap_flat.sol\":13509:13515  _value */\n      dup3\n        /* \"Meta4Swap_flat.sol\":13509:13520  _value == 0 */\n      eq\n        /* \"Meta4Swap_flat.sol\":13505:13886  if (_value == 0) {... */\n      iszero\n      tag_235\n      jumpi\n        /* \"Meta4Swap_flat.sol\":13568:13579  _newAddress */\n      dup1\n        /* \"Meta4Swap_flat.sol\":13562:13565  dao */\n      0x04\n      0x00\n        /* \"Meta4Swap_flat.sol\":13562:13579  dao = _newAddress */\n      0x0100\n      exp\n      dup2\n      sload\n      dup2\n      0xffffffffffffffffffffffffffffffffffffffff\n      mul\n      not\n      and\n      swap1\n      dup4\n      0xffffffffffffffffffffffffffffffffffffffff\n      and\n      mul\n      or\n      swap1\n      sstore\n      pop\n        /* \"Meta4Swap_flat.sol\":13505:13886  if (_value == 0) {... */\n      jump(tag_236)\n    tag_235:\n        /* \"Meta4Swap_flat.sol\":13610:13611  1 */\n      0x01\n        /* \"Meta4Swap_flat.sol\":13600:13606  _value */\n      dup3\n        /* \"Meta4Swap_flat.sol\":13600:13611  _value == 1 */\n      eq\n        /* \"Meta4Swap_flat.sol\":13596:13886  if (_value == 1) {... */\n      iszero\n      tag_237\n      jumpi\n        /* \"Meta4Swap_flat.sol\":13663:13674  _newAddress */\n      dup1\n        /* \"Meta4Swap_flat.sol\":13655:13660  admin */\n      0x03\n      0x00\n        /* \"Meta4Swap_flat.sol\":13655:13674  admin = _newAddress */\n      0x0100\n      exp\n      dup2\n      sload\n      dup2\n      0xffffffffffffffffffffffffffffffffffffffff\n      mul\n      not\n      and\n      swap1\n      dup4\n      0xffffffffffffffffffffffffffffffffffffffff\n      and\n      mul\n      or\n      swap1\n      sstore\n      pop\n        /* \"Meta4Swap_flat.sol\":13596:13886  if (_value == 1) {... */\n      jump(tag_238)\n    tag_237:\n        /* \"Meta4Swap_flat.sol\":13704:13705  2 */\n      0x02\n        /* \"Meta4Swap_flat.sol\":13694:13700  _value */\n      dup3\n        /* \"Meta4Swap_flat.sol\":13694:13705  _value == 2 */\n      eq\n        /* \"Meta4Swap_flat.sol\":13690:13886  if (_value == 2) {... */\n      iszero\n      tag_239\n      jumpi\n        /* \"Meta4Swap_flat.sol\":13760:13771  _newAddress */\n      dup1\n        /* \"Meta4Swap_flat.sol\":13749:13757  m4sToken */\n      0x05\n      0x00\n        /* \"Meta4Swap_flat.sol\":13749:13771  m4sToken = _newAddress */\n      0x0100\n      exp\n      dup2\n      sload\n      dup2\n      0xffffffffffffffffffffffffffffffffffffffff\n      mul\n      not\n      and\n      swap1\n      dup4\n      0xffffffffffffffffffffffffffffffffffffffff\n      and\n      mul\n      or\n      swap1\n      sstore\n      pop\n        /* \"Meta4Swap_flat.sol\":13690:13886  if (_value == 2) {... */\n      jump(tag_240)\n    tag_239:\n        /* \"Meta4Swap_flat.sol\":13802:13803  3 */\n      0x03\n        /* \"Meta4Swap_flat.sol\":13792:13798  _value */\n      dup3\n        /* \"Meta4Swap_flat.sol\":13792:13803  _value == 3 */\n      eq\n        /* \"Meta4Swap_flat.sol\":13788:13886  if (_value == 3) {... */\n      iszero\n      tag_241\n      jumpi\n        /* \"Meta4Swap_flat.sol\":13864:13875  _newAddress */\n      dup1\n        /* \"Meta4Swap_flat.sol\":13852:13861  priceFeed */\n      0x06\n      0x00\n        /* \"Meta4Swap_flat.sol\":13852:13875  priceFeed = _newAddress */\n      0x0100\n      exp\n      dup2\n      sload\n      dup2\n      0xffffffffffffffffffffffffffffffffffffffff\n      mul\n      not\n      and\n      swap1\n      dup4\n      0xffffffffffffffffffffffffffffffffffffffff\n      and\n      mul\n      or\n      swap1\n      sstore\n      pop\n        /* \"Meta4Swap_flat.sol\":13788:13886  if (_value == 3) {... */\n    tag_241:\n        /* \"Meta4Swap_flat.sol\":13690:13886  if (_value == 2) {... */\n    tag_240:\n        /* \"Meta4Swap_flat.sol\":13596:13886  if (_value == 1) {... */\n    tag_238:\n        /* \"Meta4Swap_flat.sol\":13505:13886  if (_value == 0) {... */\n    tag_236:\n        /* \"Meta4Swap_flat.sol\":13355:13892  function updateAddress(uint256 _value, address _newAddress) public {... */\n      pop\n      pop\n      jump\t// out\n        /* \"Meta4Swap_flat.sol\":13898:14098  function updateRewardsisLive(bool _state) public {... */\n    tag_89:\n        /* \"Meta4Swap_flat.sol\":13992:13997  admin */\n      0x03\n      0x00\n      swap1\n      sload\n      swap1\n      0x0100\n      exp\n      swap1\n      div\n      0xffffffffffffffffffffffffffffffffffffffff\n      and\n        /* \"Meta4Swap_flat.sol\":13978:13997  msg.sender == admin */\n      0xffffffffffffffffffffffffffffffffffffffff\n      and\n        /* \"Meta4Swap_flat.sol\":13978:13988  msg.sender */\n      caller\n        /* \"Meta4Swap_flat.sol\":13978:13997  msg.sender == admin */\n      0xffffffffffffffffffffffffffffffffffffffff\n      and\n      eq\n        /* \"Meta4Swap_flat.sol\":13957:14061  require(... */\n      tag_243\n      jumpi\n      mload(0x40)\n      0x08c379a000000000000000000000000000000000000000000000000000000000\n      dup2\n      mstore\n      0x04\n      add\n      tag_244\n      swap1\n      tag_245\n      jump\t// in\n    tag_244:\n      mload(0x40)\n      dup1\n      swap2\n      sub\n      swap1\n      revert\n    tag_243:\n        /* \"Meta4Swap_flat.sol\":14085:14091  _state */\n      dup1\n        /* \"Meta4Swap_flat.sol\":14071:14082  rewardsLive */\n      0x0b\n      0x00\n        /* \"Meta4Swap_flat.sol\":14071:14091  rewardsLive = _state */\n      0x0100\n      exp\n      dup2\n      sload\n      dup2\n      0xff\n      mul\n      not\n      and\n      swap1\n      dup4\n      iszero\n      iszero\n      mul\n      or\n      swap1\n      sstore\n      pop\n        /* \"Meta4Swap_flat.sol\":13898:14098  function updateRewardsisLive(bool _state) public {... */\n      pop\n      jump\t// out\n        /* \"Meta4Swap_flat.sol\":2417:2478  mapping(address => mapping(uint256 => bool)) public offerInfo */\n    tag_94:\n      mstore(0x20, 0x0e)\n      dup2\n      0x00\n      mstore\n      mstore(0x20, keccak256(0x00, 0x40))\n      dup1\n      0x00\n      mstore\n      keccak256(0x00, 0x40)\n      0x00\n      swap2\n      pop\n      swap2\n      pop\n      swap1\n      sload\n      swap1\n      0x0100\n      exp\n      swap1\n      div\n      0xff\n      and\n      dup2\n      jump\t// out\n        /* \"Meta4Swap_flat.sol\":9871:10589  function cancel(uint256 _orderId) public {... */\n    tag_100:\n        /* \"Meta4Swap_flat.sol\":9957:9966  orderInfo */\n      0x0d\n        /* \"Meta4Swap_flat.sol\":9957:9976  orderInfo[_orderId] */\n      0x00\n        /* \"Meta4Swap_flat.sol\":9967:9975  _orderId */\n      dup3\n        /* \"Meta4Swap_flat.sol\":9957:9976  orderInfo[_orderId] */\n      dup2\n      mstore\n      0x20\n      add\n      swap1\n      dup2\n      mstore\n      0x20\n      add\n      0x00\n      keccak256\n        /* \"Meta4Swap_flat.sol\":9957:9983  orderInfo[_orderId].seller */\n      0x08\n      add\n      0x00\n      swap1\n      sload\n      swap1\n      0x0100\n      exp\n      swap1\n      div\n      0xffffffffffffffffffffffffffffffffffffffff\n      and\n        /* \"Meta4Swap_flat.sol\":9943:9983  msg.sender == orderInfo[_orderId].seller */\n      0xffffffffffffffffffffffffffffffffffffffff\n      and\n        /* \"Meta4Swap_flat.sol\":9943:9953  msg.sender */\n      caller\n        /* \"Meta4Swap_flat.sol\":9943:9983  msg.sender == orderInfo[_orderId].seller */\n      0xffffffffffffffffffffffffffffffffffffffff\n      and\n      eq\n        /* \"Meta4Swap_flat.sol\":9922:10031  require(... */\n      tag_247\n      jumpi\n      mload(0x40)\n      0x08c379a000000000000000000000000000000000000000000000000000000000\n      dup2\n      mstore\n      0x04\n      add\n      tag_248\n      swap1\n      tag_249\n      jump\t// in\n    tag_248:\n      mload(0x40)\n      dup1\n      swap2\n      sub\n      swap1\n      revert\n    tag_247:\n        /* \"Meta4Swap_flat.sol\":10079:10083  true */\n      0x01\n        /* \"Meta4Swap_flat.sol\":10049:10083  orderInfo[_orderId].isLive == true */\n      iszero\n      iszero\n        /* \"Meta4Swap_flat.sol\":10049:10058  orderInfo */\n      0x0d\n        /* \"Meta4Swap_flat.sol\":10049:10068  orderInfo[_orderId] */\n      0x00\n        /* \"Meta4Swap_flat.sol\":10059:10067  _orderId */\n      dup4\n        /* \"Meta4Swap_flat.sol\":10049:10068  orderInfo[_orderId] */\n      dup2\n      mstore\n      0x20\n      add\n      swap1\n      dup2\n      mstore\n      0x20\n      add\n      0x00\n      keccak256\n        /* \"Meta4Swap_flat.sol\":10049:10075  orderInfo[_orderId].isLive */\n      0x07\n      add\n      0x02\n      swap1\n      sload\n      swap1\n      0x0100\n      exp\n      swap1\n      div\n      0xff\n      and\n        /* \"Meta4Swap_flat.sol\":10049:10083  orderInfo[_orderId].isLive == true */\n      iszero\n      iszero\n      eq\n        /* \"Meta4Swap_flat.sol\":10041:10106  require(orderInfo[_orderId].isLive == true, \"Order isn't active\") */\n      tag_250\n      jumpi\n      mload(0x40)\n      0x08c379a000000000000000000000000000000000000000000000000000000000\n      dup2\n      mstore\n      0x04\n      add\n      tag_251\n      swap1\n      tag_252\n      jump\t// in\n    tag_251:\n      mload(0x40)\n      dup1\n      swap2\n      sub\n      swap1\n      revert\n    tag_250:\n        /* \"Meta4Swap_flat.sol\":10150:10151  2 */\n      0x02\n        /* \"Meta4Swap_flat.sol\":10116:10125  orderInfo */\n      0x0d\n        /* \"Meta4Swap_flat.sol\":10116:10135  orderInfo[_orderId] */\n      0x00\n        /* \"Meta4Swap_flat.sol\":10126:10134  _orderId */\n      dup4\n        /* \"Meta4Swap_flat.sol\":10116:10135  orderInfo[_orderId] */\n      dup2\n      mstore\n      0x20\n      add\n      swap1\n      dup2\n      mstore\n      0x20\n      add\n      0x00\n      keccak256\n        /* \"Meta4Swap_flat.sol\":10116:10147  orderInfo[_orderId].sellerState */\n      0x07\n      add\n      0x01\n        /* \"Meta4Swap_flat.sol\":10116:10151  orderInfo[_orderId].sellerState = 2 */\n      0x0100\n      exp\n      dup2\n      sload\n      dup2\n      0xff\n      mul\n      not\n      and\n      swap1\n      dup4\n      0xff\n      and\n      mul\n      or\n      swap1\n      sstore\n      pop\n        /* \"Meta4Swap_flat.sol\":10194:10195  2 */\n      0x02\n        /* \"Meta4Swap_flat.sol\":10161:10170  orderInfo */\n      0x0d\n        /* \"Meta4Swap_flat.sol\":10161:10180  orderInfo[_orderId] */\n      0x00\n        /* \"Meta4Swap_flat.sol\":10171:10179  _orderId */\n      dup4\n        /* \"Meta4Swap_flat.sol\":10161:10180  orderInfo[_orderId] */\n      dup2\n      mstore\n      0x20\n      add\n      swap1\n      dup2\n      mstore\n      0x20\n      add\n      0x00\n      keccak256\n        /* \"Meta4Swap_flat.sol\":10161:10191  orderInfo[_orderId].buyerState */\n      0x07\n      add\n      0x00\n        /* \"Meta4Swap_flat.sol\":10161:10195  orderInfo[_orderId].buyerState = 2 */\n      0x0100\n      exp\n      dup2\n      sload\n      dup2\n      0xff\n      mul\n      not\n      and\n      swap1\n      dup4\n      0xff\n      and\n      mul\n      or\n      swap1\n      sstore\n      pop\n        /* \"Meta4Swap_flat.sol\":10234:10239  false */\n      0x00\n        /* \"Meta4Swap_flat.sol\":10205:10214  orderInfo */\n      0x0d\n        /* \"Meta4Swap_flat.sol\":10205:10224  orderInfo[_orderId] */\n      0x00\n        /* \"Meta4Swap_flat.sol\":10215:10223  _orderId */\n      dup4\n        /* \"Meta4Swap_flat.sol\":10205:10224  orderInfo[_orderId] */\n      dup2\n      mstore\n      0x20\n      add\n      swap1\n      dup2\n      mstore\n      0x20\n      add\n      0x00\n      keccak256\n        /* \"Meta4Swap_flat.sol\":10205:10231  orderInfo[_orderId].isLive */\n      0x07\n      add\n      0x02\n        /* \"Meta4Swap_flat.sol\":10205:10239  orderInfo[_orderId].isLive = false */\n      0x0100\n      exp\n      dup2\n      sload\n      dup2\n      0xff\n      mul\n      not\n      and\n      swap1\n      dup4\n      iszero\n      iszero\n      mul\n      or\n      swap1\n      sstore\n      pop\n        /* \"Meta4Swap_flat.sol\":10303:10304  1 */\n      0x01\n        /* \"Meta4Swap_flat.sol\":10250:10261  userProfile */\n      0x10\n        /* \"Meta4Swap_flat.sol\":10250:10289  userProfile[orderInfo[_orderId].seller] */\n      0x00\n        /* \"Meta4Swap_flat.sol\":10262:10271  orderInfo */\n      0x0d\n        /* \"Meta4Swap_flat.sol\":10262:10281  orderInfo[_orderId] */\n      0x00\n        /* \"Meta4Swap_flat.sol\":10272:10280  _orderId */\n      dup6\n        /* \"Meta4Swap_flat.sol\":10262:10281  orderInfo[_orderId] */\n      dup2\n      mstore\n      0x20\n      add\n      swap1\n      dup2\n      mstore\n      0x20\n      add\n      0x00\n      keccak256\n        /* \"Meta4Swap_flat.sol\":10262:10288  orderInfo[_orderId].seller */\n      0x08\n      add\n      0x00\n      swap1\n      sload\n      swap1\n      0x0100\n      exp\n      swap1\n      div\n      0xffffffffffffffffffffffffffffffffffffffff\n      and\n        /* \"Meta4Swap_flat.sol\":10250:10289  userProfile[orderInfo[_orderId].seller] */\n      0xffffffffffffffffffffffffffffffffffffffff\n      and\n      0xffffffffffffffffffffffffffffffffffffffff\n      and\n      dup2\n      mstore\n      0x20\n      add\n      swap1\n      dup2\n      mstore\n      0x20\n      add\n      0x00\n      keccak256\n        /* \"Meta4Swap_flat.sol\":10250:10299  userProfile[orderInfo[_orderId].seller].cancelled */\n      0x00\n      add\n      0x00\n        /* \"Meta4Swap_flat.sol\":10250:10304  userProfile[orderInfo[_orderId].seller].cancelled += 1 */\n      dup3\n      dup3\n      sload\n      tag_253\n      swap2\n      swap1\n      tag_254\n      jump\t// in\n    tag_253:\n      swap3\n      pop\n      pop\n      dup2\n      swap1\n      sstore\n      pop\n        /* \"Meta4Swap_flat.sol\":10316:10325  bool sent */\n      0x00\n        /* \"Meta4Swap_flat.sol\":10327:10344  bytes memory data */\n      dup1\n        /* \"Meta4Swap_flat.sol\":10348:10357  orderInfo */\n      0x0d\n        /* \"Meta4Swap_flat.sol\":10348:10367  orderInfo[_orderId] */\n      0x00\n        /* \"Meta4Swap_flat.sol\":10358:10366  _orderId */\n      dup5\n        /* \"Meta4Swap_flat.sol\":10348:10367  orderInfo[_orderId] */\n      dup2\n      mstore\n      0x20\n      add\n      swap1\n      dup2\n      mstore\n      0x20\n      add\n      0x00\n      keccak256\n        /* \"Meta4Swap_flat.sol\":10348:10373  orderInfo[_orderId].buyer */\n      0x07\n      add\n      0x03\n      swap1\n      sload\n      swap1\n      0x0100\n      exp\n      swap1\n      div\n      0xffffffffffffffffffffffffffffffffffffffff\n      and\n        /* \"Meta4Swap_flat.sol\":10348:10378  orderInfo[_orderId].buyer.call */\n      0xffffffffffffffffffffffffffffffffffffffff\n      and\n        /* \"Meta4Swap_flat.sol\":10400:10409  orderInfo */\n      0x0d\n        /* \"Meta4Swap_flat.sol\":10400:10419  orderInfo[_orderId] */\n      0x00\n        /* \"Meta4Swap_flat.sol\":10410:10418  _orderId */\n      dup6\n        /* \"Meta4Swap_flat.sol\":10400:10419  orderInfo[_orderId] */\n      dup2\n      mstore\n      0x20\n      add\n      swap1\n      dup2\n      mstore\n      0x20\n      add\n      0x00\n      keccak256\n        /* \"Meta4Swap_flat.sol\":10400:10430  orderInfo[_orderId].orderTotal */\n      0x02\n      add\n      sload\n        /* \"Meta4Swap_flat.sol\":10348:10445  orderInfo[_orderId].buyer.call{... */\n      mload(0x40)\n      tag_255\n      swap1\n      tag_256\n      jump\t// in\n    tag_255:\n      0x00\n      mload(0x40)\n      dup1\n      dup4\n      sub\n      dup2\n      dup6\n      dup8\n      gas\n      call\n      swap3\n      pop\n      pop\n      pop\n      returndatasize\n      dup1\n      0x00\n      dup2\n      eq\n      tag_259\n      jumpi\n      mload(0x40)\n      swap2\n      pop\n      and(add(returndatasize, 0x3f), not(0x1f))\n      dup3\n      add\n      0x40\n      mstore\n      returndatasize\n      dup3\n      mstore\n      returndatasize\n      0x00\n      0x20\n      dup5\n      add\n      returndatacopy\n      jump(tag_258)\n    tag_259:\n      0x60\n      swap2\n      pop\n    tag_258:\n      pop\n        /* \"Meta4Swap_flat.sol\":10315:10445  (bool sent, bytes memory data) = orderInfo[_orderId].buyer.call{... */\n      swap2\n      pop\n      swap2\n      pop\n        /* \"Meta4Swap_flat.sol\":10477:10481  sent */\n      dup2\n        /* \"Meta4Swap_flat.sol\":10469:10506  require(sent, \"Failed to Send Ether\") */\n      tag_260\n      jumpi\n      mload(0x40)\n      0x08c379a000000000000000000000000000000000000000000000000000000000\n      dup2\n      mstore\n      0x04\n      add\n      tag_261\n      swap1\n      tag_262\n      jump\t// in\n    tag_261:\n      mload(0x40)\n      dup1\n      swap2\n      sub\n      swap1\n      revert\n    tag_260:\n        /* \"Meta4Swap_flat.sol\":10543:10544  0 */\n      0x00\n        /* \"Meta4Swap_flat.sol\":10517:10526  orderInfo */\n      0x0d\n        /* \"Meta4Swap_flat.sol\":10517:10536  orderInfo[_orderId] */\n      0x00\n        /* \"Meta4Swap_flat.sol\":10527:10535  _orderId */\n      dup6\n        /* \"Meta4Swap_flat.sol\":10517:10536  orderInfo[_orderId] */\n      dup2\n      mstore\n      0x20\n      add\n      swap1\n      dup2\n      mstore\n      0x20\n      add\n      0x00\n      keccak256\n        /* \"Meta4Swap_flat.sol\":10517:10540  orderInfo[_orderId].fee */\n      0x04\n      add\n        /* \"Meta4Swap_flat.sol\":10517:10544  orderInfo[_orderId].fee = 0 */\n      dup2\n      swap1\n      sstore\n      pop\n        /* \"Meta4Swap_flat.sol\":10560:10582  OrderUpdated(_orderId) */\n      0xb8b459bc0688c37baf5f735d17f1711684bc14ab7db116f88bc18bf409b9309a\n        /* \"Meta4Swap_flat.sol\":10573:10581  _orderId */\n      dup4\n        /* \"Meta4Swap_flat.sol\":10560:10582  OrderUpdated(_orderId) */\n      mload(0x40)\n      tag_263\n      swap2\n      swap1\n      tag_59\n      jump\t// in\n    tag_263:\n      mload(0x40)\n      dup1\n      swap2\n      sub\n      swap1\n      log1\n        /* \"Meta4Swap_flat.sol\":9912:10589  {... */\n      pop\n      pop\n        /* \"Meta4Swap_flat.sol\":9871:10589  function cancel(uint256 _orderId) public {... */\n      pop\n      jump\t// out\n        /* \"Meta4Swap_flat.sol\":1191:1209  address public dao */\n    tag_103:\n      0x04\n      0x00\n      swap1\n      sload\n      swap1\n      0x0100\n      exp\n      swap1\n      div\n      0xffffffffffffffffffffffffffffffffffffffff\n      and\n      dup2\n      jump\t// out\n        /* \"Meta4Swap_flat.sol\":1331:1358  uint256 public sellerReward */\n    tag_107:\n      sload(0x08)\n      dup2\n      jump\t// out\n        /* \"Meta4Swap_flat.sol\":1100:1129  uint256 public marketplaceFee */\n    tag_111:\n      sload(0x02)\n      dup2\n      jump\t// out\n        /* \"Meta4Swap_flat.sol\":2334:2376  mapping(uint256 => Order) public orderInfo */\n    tag_116:\n      mstore(0x20, 0x0d)\n      dup1\n      0x00\n      mstore\n      keccak256(0x00, 0x40)\n      0x00\n      swap2\n      pop\n      swap1\n      pop\n      dup1\n      0x00\n      add\n      sload\n      swap1\n      dup1\n      0x01\n      add\n      sload\n      swap1\n      dup1\n      0x02\n      add\n      sload\n      swap1\n      dup1\n      0x03\n      add\n      sload\n      swap1\n      dup1\n      0x04\n      add\n      sload\n      swap1\n      dup1\n      0x05\n      add\n      sload\n      swap1\n      dup1\n      0x06\n      add\n      sload\n      swap1\n      dup1\n      0x07\n      add\n      0x00\n      swap1\n      sload\n      swap1\n      0x0100\n      exp\n      swap1\n      div\n      0xff\n      and\n      swap1\n      dup1\n      0x07\n      add\n      0x01\n      swap1\n      sload\n      swap1\n      0x0100\n      exp\n      swap1\n      div\n      0xff\n      and\n      swap1\n      dup1\n      0x07\n      add\n      0x02\n      swap1\n      sload\n      swap1\n      0x0100\n      exp\n      swap1\n      div\n      0xff\n      and\n      swap1\n      dup1\n      0x07\n      add\n      0x03\n      swap1\n      sload\n      swap1\n      0x0100\n      exp\n      swap1\n      div\n      0xffffffffffffffffffffffffffffffffffffffff\n      and\n      swap1\n      dup1\n      0x08\n      add\n      0x00\n      swap1\n      sload\n      swap1\n      0x0100\n      exp\n      swap1\n      div\n      0xffffffffffffffffffffffffffffffffffffffff\n      and\n      swap1\n      pop\n      dup13\n      jump\t// out\n        /* \"Meta4Swap_flat.sol\":1070:1094  uint256 public itemCount */\n    tag_121:\n      sload(0x01)\n      dup2\n      jump\t// out\n        /* \"Meta4Swap_flat.sol\":3985:4604  function create(... */\n    tag_127:\n        /* \"Meta4Swap_flat.sol\":4131:4138  uint256 */\n      0x00\n        /* \"Meta4Swap_flat.sol\":4150:4159  itemCount */\n      0x01\n      0x00\n        /* \"Meta4Swap_flat.sol\":4150:4161  itemCount++ */\n      dup2\n      sload\n      dup1\n      swap3\n      swap2\n      swap1\n      tag_265\n      swap1\n      tag_266\n      jump\t// in\n    tag_265:\n      swap2\n      swap1\n      pop\n      sstore\n      pop\n        /* \"Meta4Swap_flat.sol\":4171:4188  Item memory _item */\n      tag_267\n      tag_268\n      jump\t// in\n    tag_267:\n        /* \"Meta4Swap_flat.sol\":4209:4218  itemCount */\n      sload(0x01)\n        /* \"Meta4Swap_flat.sol\":4198:4203  _item */\n      dup2\n        /* \"Meta4Swap_flat.sol\":4198:4206  _item.id */\n      0x00\n      add\n        /* \"Meta4Swap_flat.sol\":4198:4218  _item.id = itemCount */\n      dup2\n      dup2\n      mstore\n      pop\n      pop\n        /* \"Meta4Swap_flat.sol\":4245:4254  _metadata */\n      dup6\n        /* \"Meta4Swap_flat.sol\":4228:4233  _item */\n      dup2\n        /* \"Meta4Swap_flat.sol\":4228:4242  _item.metadata */\n      0x20\n      add\n        /* \"Meta4Swap_flat.sol\":4228:4254  _item.metadata = _metadata */\n      dup2\n      swap1\n      mstore\n      pop\n        /* \"Meta4Swap_flat.sol\":4279:4285  _state */\n      dup5\n        /* \"Meta4Swap_flat.sol\":4264:4269  _item */\n      dup2\n        /* \"Meta4Swap_flat.sol\":4264:4276  _item.isLive */\n      0x40\n      add\n        /* \"Meta4Swap_flat.sol\":4264:4285  _item.isLive = _state */\n      swap1\n      iszero\n      iszero\n      swap1\n      dup2\n      iszero\n      iszero\n      dup2\n      mstore\n      pop\n      pop\n        /* \"Meta4Swap_flat.sol\":4309:4315  _price */\n      dup4\n        /* \"Meta4Swap_flat.sol\":4295:4300  _item */\n      dup2\n        /* \"Meta4Swap_flat.sol\":4295:4306  _item.price */\n      0x60\n      add\n        /* \"Meta4Swap_flat.sol\":4295:4315  _item.price = _price */\n      dup2\n      dup2\n      mstore\n      pop\n      pop\n        /* \"Meta4Swap_flat.sol\":4339:4349  msg.sender */\n      caller\n        /* \"Meta4Swap_flat.sol\":4325:4330  _item */\n      dup2\n        /* \"Meta4Swap_flat.sol\":4325:4336  _item.owner */\n      0x80\n      add\n        /* \"Meta4Swap_flat.sol\":4325:4349  _item.owner = msg.sender */\n      swap1\n      0xffffffffffffffffffffffffffffffffffffffff\n      and\n      swap1\n      dup2\n      0xffffffffffffffffffffffffffffffffffffffff\n      and\n      dup2\n      mstore\n      pop\n      pop\n        /* \"Meta4Swap_flat.sol\":4379:4391  _serviceType */\n      dup3\n        /* \"Meta4Swap_flat.sol\":4359:4364  _item */\n      dup2\n        /* \"Meta4Swap_flat.sol\":4359:4376  _item.serviceType */\n      0xa0\n      add\n        /* \"Meta4Swap_flat.sol\":4359:4391  _item.serviceType = _serviceType */\n      dup2\n      dup2\n      mstore\n      pop\n      pop\n        /* \"Meta4Swap_flat.sol\":4423:4428  _item */\n      dup1\n        /* \"Meta4Swap_flat.sol\":4402:4410  itemInfo */\n      0x0c\n        /* \"Meta4Swap_flat.sol\":4402:4420  itemInfo[_item.id] */\n      0x00\n        /* \"Meta4Swap_flat.sol\":4411:4416  _item */\n      dup4\n        /* \"Meta4Swap_flat.sol\":4411:4419  _item.id */\n      0x00\n      add\n      mload\n        /* \"Meta4Swap_flat.sol\":4402:4420  itemInfo[_item.id] */\n      dup2\n      mstore\n      0x20\n      add\n      swap1\n      dup2\n      mstore\n      0x20\n      add\n      0x00\n      keccak256\n        /* \"Meta4Swap_flat.sol\":4402:4428  itemInfo[_item.id] = _item */\n      0x00\n      dup3\n      add\n      mload\n      dup2\n      0x00\n      add\n      sstore\n      0x20\n      dup3\n      add\n      mload\n      dup2\n      0x01\n      add\n      swap1\n      dup1\n      mload\n      swap1\n      0x20\n      add\n      swap1\n      tag_269\n      swap3\n      swap2\n      swap1\n      tag_226\n      jump\t// in\n    tag_269:\n      pop\n      0x40\n      dup3\n      add\n      mload\n      dup2\n      0x02\n      add\n      exp(0x0100, 0x00)\n      dup2\n      sload\n      dup2\n      0xff\n      mul\n      not\n      and\n      swap1\n      dup4\n      iszero\n      iszero\n      mul\n      or\n      swap1\n      sstore\n      pop\n      0x60\n      dup3\n      add\n      mload\n      dup2\n      0x03\n      add\n      sstore\n      0x80\n      dup3\n      add\n      mload\n      dup2\n      0x04\n      add\n      exp(0x0100, 0x00)\n      dup2\n      sload\n      dup2\n      0xffffffffffffffffffffffffffffffffffffffff\n      mul\n      not\n      and\n      swap1\n      dup4\n      0xffffffffffffffffffffffffffffffffffffffff\n      and\n      mul\n      or\n      swap1\n      sstore\n      pop\n      0xa0\n      dup3\n      add\n      mload\n      dup2\n      0x05\n      add\n      sstore\n      swap1\n      pop\n      pop\n        /* \"Meta4Swap_flat.sol\":4444:4571  ItemCreated(... */\n      0x1603f20f721362b0691bb408edb3cf01409cd56da9edd4627b178750b7dd49a8\n        /* \"Meta4Swap_flat.sol\":4469:4474  _item */\n      dup2\n        /* \"Meta4Swap_flat.sol\":4469:4477  _item.id */\n      0x00\n      add\n      mload\n        /* \"Meta4Swap_flat.sol\":4491:4496  _item */\n      dup3\n        /* \"Meta4Swap_flat.sol\":4491:4502  _item.owner */\n      0x80\n      add\n      mload\n        /* \"Meta4Swap_flat.sol\":4516:4521  _item */\n      dup4\n        /* \"Meta4Swap_flat.sol\":4516:4530  _item.metadata */\n      0x20\n      add\n      mload\n        /* \"Meta4Swap_flat.sol\":4544:4549  _item */\n      dup5\n        /* \"Meta4Swap_flat.sol\":4544:4561  _item.serviceType */\n      0xa0\n      add\n      mload\n        /* \"Meta4Swap_flat.sol\":4444:4571  ItemCreated(... */\n      mload(0x40)\n      tag_270\n      swap5\n      swap4\n      swap3\n      swap2\n      swap1\n      tag_271\n      jump\t// in\n    tag_270:\n      mload(0x40)\n      dup1\n      swap2\n      sub\n      swap1\n      log1\n        /* \"Meta4Swap_flat.sol\":4589:4594  _item */\n      dup1\n        /* \"Meta4Swap_flat.sol\":4589:4597  _item.id */\n      0x00\n      add\n      mload\n        /* \"Meta4Swap_flat.sol\":4582:4597  return _item.id */\n      swap2\n      pop\n      pop\n        /* \"Meta4Swap_flat.sol\":3985:4604  function create(... */\n      swap5\n      swap4\n      pop\n      pop\n      pop\n      pop\n      jump\t// out\n        /* \"Meta4Swap_flat.sol\":1244:1268  address public priceFeed */\n    tag_131:\n      0x06\n      0x00\n      swap1\n      sload\n      swap1\n      0x0100\n      exp\n      swap1\n      div\n      0xffffffffffffffffffffffffffffffffffffffff\n      and\n      dup2\n      jump\t// out\n        /* \"Meta4Swap_flat.sol\":6115:6440  function offer(uint256 _itemId) public {... */\n    tag_136:\n        /* \"Meta4Swap_flat.sol\":6198:6202  true */\n      0x01\n        /* \"Meta4Swap_flat.sol\":6172:6202  itemInfo[_itemId].isLive==true */\n      iszero\n      iszero\n        /* \"Meta4Swap_flat.sol\":6172:6180  itemInfo */\n      0x0c\n        /* \"Meta4Swap_flat.sol\":6172:6189  itemInfo[_itemId] */\n      0x00\n        /* \"Meta4Swap_flat.sol\":6181:6188  _itemId */\n      dup4\n        /* \"Meta4Swap_flat.sol\":6172:6189  itemInfo[_itemId] */\n      dup2\n      mstore\n      0x20\n      add\n      swap1\n      dup2\n      mstore\n      0x20\n      add\n      0x00\n      keccak256\n        /* \"Meta4Swap_flat.sol\":6172:6196  itemInfo[_itemId].isLive */\n      0x02\n      add\n      0x00\n      swap1\n      sload\n      swap1\n      0x0100\n      exp\n      swap1\n      div\n      0xff\n      and\n        /* \"Meta4Swap_flat.sol\":6172:6202  itemInfo[_itemId].isLive==true */\n      iszero\n      iszero\n      eq\n        /* \"Meta4Swap_flat.sol\":6164:6220  require(itemInfo[_itemId].isLive==true, \"Not available\") */\n      tag_273\n      jumpi\n      mload(0x40)\n      0x08c379a000000000000000000000000000000000000000000000000000000000\n      dup2\n      mstore\n      0x04\n      add\n      tag_274\n      swap1\n      tag_275\n      jump\t// in\n    tag_274:\n      mload(0x40)\n      dup1\n      swap2\n      sub\n      swap1\n      revert\n    tag_273:\n        /* \"Meta4Swap_flat.sol\":6270:6275  false */\n      0x00\n        /* \"Meta4Swap_flat.sol\":6238:6275  offerInfo[msg.sender][_itemId]==false */\n      iszero\n      iszero\n        /* \"Meta4Swap_flat.sol\":6238:6247  offerInfo */\n      0x0e\n        /* \"Meta4Swap_flat.sol\":6238:6259  offerInfo[msg.sender] */\n      0x00\n        /* \"Meta4Swap_flat.sol\":6248:6258  msg.sender */\n      caller\n        /* \"Meta4Swap_flat.sol\":6238:6259  offerInfo[msg.sender] */\n      0xffffffffffffffffffffffffffffffffffffffff\n      and\n      0xffffffffffffffffffffffffffffffffffffffff\n      and\n      dup2\n      mstore\n      0x20\n      add\n      swap1\n      dup2\n      mstore\n      0x20\n      add\n      0x00\n      keccak256\n        /* \"Meta4Swap_flat.sol\":6238:6268  offerInfo[msg.sender][_itemId] */\n      0x00\n        /* \"Meta4Swap_flat.sol\":6260:6267  _itemId */\n      dup4\n        /* \"Meta4Swap_flat.sol\":6238:6268  offerInfo[msg.sender][_itemId] */\n      dup2\n      mstore\n      0x20\n      add\n      swap1\n      dup2\n      mstore\n      0x20\n      add\n      0x00\n      keccak256\n      0x00\n      swap1\n      sload\n      swap1\n      0x0100\n      exp\n      swap1\n      div\n      0xff\n      and\n        /* \"Meta4Swap_flat.sol\":6238:6275  offerInfo[msg.sender][_itemId]==false */\n      iszero\n      iszero\n      eq\n        /* \"Meta4Swap_flat.sol\":6230:6303  require(offerInfo[msg.sender][_itemId]==false, \"User already made offer\") */\n      tag_276\n      jumpi\n      mload(0x40)\n      0x08c379a000000000000000000000000000000000000000000000000000000000\n      dup2\n      mstore\n      0x04\n      add\n      tag_277\n      swap1\n      tag_278\n      jump\t// in\n    tag_277:\n      mload(0x40)\n      dup1\n      swap2\n      sub\n      swap1\n      revert\n    tag_276:\n        /* \"Meta4Swap_flat.sol\":6345:6349  true */\n      0x01\n        /* \"Meta4Swap_flat.sol\":6314:6323  offerInfo */\n      0x0e\n        /* \"Meta4Swap_flat.sol\":6314:6335  offerInfo[msg.sender] */\n      0x00\n        /* \"Meta4Swap_flat.sol\":6324:6334  msg.sender */\n      caller\n        /* \"Meta4Swap_flat.sol\":6314:6335  offerInfo[msg.sender] */\n      0xffffffffffffffffffffffffffffffffffffffff\n      and\n      0xffffffffffffffffffffffffffffffffffffffff\n      and\n      dup2\n      mstore\n      0x20\n      add\n      swap1\n      dup2\n      mstore\n      0x20\n      add\n      0x00\n      keccak256\n        /* \"Meta4Swap_flat.sol\":6314:6344  offerInfo[msg.sender][_itemId] */\n      0x00\n        /* \"Meta4Swap_flat.sol\":6336:6343  _itemId */\n      dup4\n        /* \"Meta4Swap_flat.sol\":6314:6344  offerInfo[msg.sender][_itemId] */\n      dup2\n      mstore\n      0x20\n      add\n      swap1\n      dup2\n      mstore\n      0x20\n      add\n      0x00\n      keccak256\n      0x00\n        /* \"Meta4Swap_flat.sol\":6314:6349  offerInfo[msg.sender][_itemId]=true */\n      0x0100\n      exp\n      dup2\n      sload\n      dup2\n      0xff\n      mul\n      not\n      and\n      swap1\n      dup4\n      iszero\n      iszero\n      mul\n      or\n      swap1\n      sstore\n      pop\n        /* \"Meta4Swap_flat.sol\":6365:6432  OfferCreated(... */\n      0xb9fc72ab4a132463342124fb4c5ebd64bee8a9874c05d37f846eaf5758eff4b2\n        /* \"Meta4Swap_flat.sol\":6391:6398  _itemId */\n      dup2\n        /* \"Meta4Swap_flat.sol\":6412:6422  msg.sender */\n      caller\n        /* \"Meta4Swap_flat.sol\":6365:6432  OfferCreated(... */\n      mload(0x40)\n      tag_279\n      swap3\n      swap2\n      swap1\n      tag_280\n      jump\t// in\n    tag_279:\n      mload(0x40)\n      dup1\n      swap2\n      sub\n      swap1\n      log1\n        /* \"Meta4Swap_flat.sol\":6115:6440  function offer(uint256 _itemId) public {... */\n      pop\n      jump\t// out\n        /* \"Meta4Swap_flat.sol\":2676:2739  mapping(address => mapping(uint256 => bool)) public ratingCheck */\n    tag_140:\n      mstore(0x20, 0x11)\n      dup2\n      0x00\n      mstore\n      mstore(0x20, keccak256(0x00, 0x40))\n      dup1\n      0x00\n      mstore\n      keccak256(0x00, 0x40)\n      0x00\n      swap2\n      pop\n      swap2\n      pop\n      swap1\n      sload\n      swap1\n      0x0100\n      exp\n      swap1\n      div\n      0xff\n      and\n      dup2\n      jump\t// out\n        /* \"Meta4Swap_flat.sol\":14389:14670  function editMetadata(uint256 _itemId, string memory _metadata) public {... */\n    tag_145:\n        /* \"Meta4Swap_flat.sol\":14505:14513  itemInfo */\n      0x0c\n        /* \"Meta4Swap_flat.sol\":14505:14522  itemInfo[_itemId] */\n      0x00\n        /* \"Meta4Swap_flat.sol\":14514:14521  _itemId */\n      dup4\n        /* \"Meta4Swap_flat.sol\":14505:14522  itemInfo[_itemId] */\n      dup2\n      mstore\n      0x20\n      add\n      swap1\n      dup2\n      mstore\n      0x20\n      add\n      0x00\n      keccak256\n        /* \"Meta4Swap_flat.sol\":14505:14528  itemInfo[_itemId].owner */\n      0x04\n      add\n      0x00\n      swap1\n      sload\n      swap1\n      0x0100\n      exp\n      swap1\n      div\n      0xffffffffffffffffffffffffffffffffffffffff\n      and\n        /* \"Meta4Swap_flat.sol\":14491:14528  msg.sender == itemInfo[_itemId].owner */\n      0xffffffffffffffffffffffffffffffffffffffff\n      and\n        /* \"Meta4Swap_flat.sol\":14491:14501  msg.sender */\n      caller\n        /* \"Meta4Swap_flat.sol\":14491:14528  msg.sender == itemInfo[_itemId].owner */\n      0xffffffffffffffffffffffffffffffffffffffff\n      and\n      eq\n        /* \"Meta4Swap_flat.sol\":14470:14578  require(... */\n      tag_282\n      jumpi\n      mload(0x40)\n      0x08c379a000000000000000000000000000000000000000000000000000000000\n      dup2\n      mstore\n      0x04\n      add\n      tag_283\n      swap1\n      tag_284\n      jump\t// in\n    tag_283:\n      mload(0x40)\n      dup1\n      swap2\n      sub\n      swap1\n      revert\n    tag_282:\n        /* \"Meta4Swap_flat.sol\":14618:14627  _metadata */\n      dup1\n        /* \"Meta4Swap_flat.sol\":14589:14597  itemInfo */\n      0x0c\n        /* \"Meta4Swap_flat.sol\":14589:14606  itemInfo[_itemId] */\n      0x00\n        /* \"Meta4Swap_flat.sol\":14598:14605  _itemId */\n      dup5\n        /* \"Meta4Swap_flat.sol\":14589:14606  itemInfo[_itemId] */\n      dup2\n      mstore\n      0x20\n      add\n      swap1\n      dup2\n      mstore\n      0x20\n      add\n      0x00\n      keccak256\n        /* \"Meta4Swap_flat.sol\":14589:14615  itemInfo[_itemId].metadata */\n      0x01\n      add\n        /* \"Meta4Swap_flat.sol\":14589:14627  itemInfo[_itemId].metadata = _metadata */\n      swap1\n      dup1\n      mload\n      swap1\n      0x20\n      add\n      swap1\n      tag_285\n      swap3\n      swap2\n      swap1\n      tag_226\n      jump\t// in\n    tag_285:\n      pop\n        /* \"Meta4Swap_flat.sol\":14643:14663  ItemUpdated(_itemId) */\n      0x5e58dfa592b09c585a4ab7ef8158d20b1e52e9897f3095dbe1df700853905c2f\n        /* \"Meta4Swap_flat.sol\":14655:14662  _itemId */\n      dup3\n        /* \"Meta4Swap_flat.sol\":14643:14663  ItemUpdated(_itemId) */\n      mload(0x40)\n      tag_286\n      swap2\n      swap1\n      tag_59\n      jump\t// in\n    tag_286:\n      mload(0x40)\n      dup1\n      swap2\n      sub\n      swap1\n      log1\n        /* \"Meta4Swap_flat.sol\":14389:14670  function editMetadata(uint256 _itemId, string memory _metadata) public {... */\n      pop\n      pop\n      jump\t// out\n        /* \"Meta4Swap_flat.sol\":10611:11084  function dispute(uint256 _orderId) public onlyCounterpart(_orderId) {... */\n    tag_149:\n        /* \"Meta4Swap_flat.sol\":10669:10677  _orderId */\n      dup1\n        /* \"Meta4Swap_flat.sol\":3828:3838  msg.sender */\n      caller\n        /* \"Meta4Swap_flat.sol\":3799:3838  orderInfo[_orderId].buyer == msg.sender */\n      0xffffffffffffffffffffffffffffffffffffffff\n      and\n        /* \"Meta4Swap_flat.sol\":3799:3808  orderInfo */\n      0x0d\n        /* \"Meta4Swap_flat.sol\":3799:3818  orderInfo[_orderId] */\n      0x00\n        /* \"Meta4Swap_flat.sol\":3809:3817  _orderId */\n      dup4\n        /* \"Meta4Swap_flat.sol\":3799:3818  orderInfo[_orderId] */\n      dup2\n      mstore\n      0x20\n      add\n      swap1\n      dup2\n      mstore\n      0x20\n      add\n      0x00\n      keccak256\n        /* \"Meta4Swap_flat.sol\":3799:3824  orderInfo[_orderId].buyer */\n      0x07\n      add\n      0x03\n      swap1\n      sload\n      swap1\n      0x0100\n      exp\n      swap1\n      div\n      0xffffffffffffffffffffffffffffffffffffffff\n      and\n        /* \"Meta4Swap_flat.sol\":3799:3838  orderInfo[_orderId].buyer == msg.sender */\n      0xffffffffffffffffffffffffffffffffffffffff\n      and\n      eq\n        /* \"Meta4Swap_flat.sol\":3799:3898  orderInfo[_orderId].buyer == msg.sender ||... */\n      dup1\n      tag_288\n      jumpi\n      pop\n        /* \"Meta4Swap_flat.sol\":3888:3898  msg.sender */\n      caller\n        /* \"Meta4Swap_flat.sol\":3858:3898  orderInfo[_orderId].seller == msg.sender */\n      0xffffffffffffffffffffffffffffffffffffffff\n      and\n        /* \"Meta4Swap_flat.sol\":3858:3867  orderInfo */\n      0x0d\n        /* \"Meta4Swap_flat.sol\":3858:3877  orderInfo[_orderId] */\n      0x00\n        /* \"Meta4Swap_flat.sol\":3868:3876  _orderId */\n      dup4\n        /* \"Meta4Swap_flat.sol\":3858:3877  orderInfo[_orderId] */\n      dup2\n      mstore\n      0x20\n      add\n      swap1\n      dup2\n      mstore\n      0x20\n      add\n      0x00\n      keccak256\n        /* \"Meta4Swap_flat.sol\":3858:3884  orderInfo[_orderId].seller */\n      0x08\n      add\n      0x00\n      swap1\n      sload\n      swap1\n      0x0100\n      exp\n      swap1\n      div\n      0xffffffffffffffffffffffffffffffffffffffff\n      and\n        /* \"Meta4Swap_flat.sol\":3858:3898  orderInfo[_orderId].seller == msg.sender */\n      0xffffffffffffffffffffffffffffffffffffffff\n      and\n      eq\n        /* \"Meta4Swap_flat.sol\":3799:3898  orderInfo[_orderId].buyer == msg.sender ||... */\n    tag_288:\n        /* \"Meta4Swap_flat.sol\":3778:3961  require(... */\n      tag_289\n      jumpi\n      mload(0x40)\n      0x08c379a000000000000000000000000000000000000000000000000000000000\n      dup2\n      mstore\n      0x04\n      add\n      tag_290\n      swap1\n      tag_219\n      jump\t// in\n    tag_290:\n      mload(0x40)\n      dup1\n      swap2\n      sub\n      swap1\n      revert\n    tag_289:\n        /* \"Meta4Swap_flat.sol\":10727:10731  true */\n      0x01\n        /* \"Meta4Swap_flat.sol\":10697:10731  orderInfo[_orderId].isLive == true */\n      iszero\n      iszero\n        /* \"Meta4Swap_flat.sol\":10697:10706  orderInfo */\n      0x0d\n        /* \"Meta4Swap_flat.sol\":10697:10716  orderInfo[_orderId] */\n      0x00\n        /* \"Meta4Swap_flat.sol\":10707:10715  _orderId */\n      dup5\n        /* \"Meta4Swap_flat.sol\":10697:10716  orderInfo[_orderId] */\n      dup2\n      mstore\n      0x20\n      add\n      swap1\n      dup2\n      mstore\n      0x20\n      add\n      0x00\n      keccak256\n        /* \"Meta4Swap_flat.sol\":10697:10723  orderInfo[_orderId].isLive */\n      0x07\n      add\n      0x02\n      swap1\n      sload\n      swap1\n      0x0100\n      exp\n      swap1\n      div\n      0xff\n      and\n        /* \"Meta4Swap_flat.sol\":10697:10731  orderInfo[_orderId].isLive == true */\n      iszero\n      iszero\n      eq\n        /* \"Meta4Swap_flat.sol\":10689:10754  require(orderInfo[_orderId].isLive == true, \"Order isn't active\") */\n      tag_292\n      jumpi\n      mload(0x40)\n      0x08c379a000000000000000000000000000000000000000000000000000000000\n      dup2\n      mstore\n      0x04\n      add\n      tag_293\n      swap1\n      tag_252\n      jump\t// in\n    tag_293:\n      mload(0x40)\n      dup1\n      swap2\n      sub\n      swap1\n      revert\n    tag_292:\n        /* \"Meta4Swap_flat.sol\":10798:10799  3 */\n      0x03\n        /* \"Meta4Swap_flat.sol\":10764:10773  orderInfo */\n      0x0d\n        /* \"Meta4Swap_flat.sol\":10764:10783  orderInfo[_orderId] */\n      0x00\n        /* \"Meta4Swap_flat.sol\":10774:10782  _orderId */\n      dup5\n        /* \"Meta4Swap_flat.sol\":10764:10783  orderInfo[_orderId] */\n      dup2\n      mstore\n      0x20\n      add\n      swap1\n      dup2\n      mstore\n      0x20\n      add\n      0x00\n      keccak256\n        /* \"Meta4Swap_flat.sol\":10764:10795  orderInfo[_orderId].sellerState */\n      0x07\n      add\n      0x01\n        /* \"Meta4Swap_flat.sol\":10764:10799  orderInfo[_orderId].sellerState = 3 */\n      0x0100\n      exp\n      dup2\n      sload\n      dup2\n      0xff\n      mul\n      not\n      and\n      swap1\n      dup4\n      0xff\n      and\n      mul\n      or\n      swap1\n      sstore\n      pop\n        /* \"Meta4Swap_flat.sol\":10842:10843  3 */\n      0x03\n        /* \"Meta4Swap_flat.sol\":10809:10818  orderInfo */\n      0x0d\n        /* \"Meta4Swap_flat.sol\":10809:10828  orderInfo[_orderId] */\n      0x00\n        /* \"Meta4Swap_flat.sol\":10819:10827  _orderId */\n      dup5\n        /* \"Meta4Swap_flat.sol\":10809:10828  orderInfo[_orderId] */\n      dup2\n      mstore\n      0x20\n      add\n      swap1\n      dup2\n      mstore\n      0x20\n      add\n      0x00\n      keccak256\n        /* \"Meta4Swap_flat.sol\":10809:10839  orderInfo[_orderId].buyerState */\n      0x07\n      add\n      0x00\n        /* \"Meta4Swap_flat.sol\":10809:10843  orderInfo[_orderId].buyerState = 3 */\n      0x0100\n      exp\n      dup2\n      sload\n      dup2\n      0xff\n      mul\n      not\n      and\n      swap1\n      dup4\n      0xff\n      and\n      mul\n      or\n      swap1\n      sstore\n      pop\n        /* \"Meta4Swap_flat.sol\":10882:10887  false */\n      0x00\n        /* \"Meta4Swap_flat.sol\":10853:10862  orderInfo */\n      0x0d\n        /* \"Meta4Swap_flat.sol\":10853:10872  orderInfo[_orderId] */\n      0x00\n        /* \"Meta4Swap_flat.sol\":10863:10871  _orderId */\n      dup5\n        /* \"Meta4Swap_flat.sol\":10853:10872  orderInfo[_orderId] */\n      dup2\n      mstore\n      0x20\n      add\n      swap1\n      dup2\n      mstore\n      0x20\n      add\n      0x00\n      keccak256\n        /* \"Meta4Swap_flat.sol\":10853:10879  orderInfo[_orderId].isLive */\n      0x07\n      add\n      0x02\n        /* \"Meta4Swap_flat.sol\":10853:10887  orderInfo[_orderId].isLive = false */\n      0x0100\n      exp\n      dup2\n      sload\n      dup2\n      0xff\n      mul\n      not\n      and\n      swap1\n      dup4\n      iszero\n      iszero\n      mul\n      or\n      swap1\n      sstore\n      pop\n        /* \"Meta4Swap_flat.sol\":10898:10921  Dispute memory _dispute */\n      tag_294\n      tag_295\n      jump\t// in\n    tag_294:\n        /* \"Meta4Swap_flat.sol\":10950:10962  block.number */\n      number\n        /* \"Meta4Swap_flat.sol\":10931:10939  _dispute */\n      dup2\n        /* \"Meta4Swap_flat.sol\":10931:10947  _dispute.created */\n      0x40\n      add\n        /* \"Meta4Swap_flat.sol\":10931:10962  _dispute.created = block.number */\n      dup2\n      dup2\n      mstore\n      pop\n      pop\n        /* \"Meta4Swap_flat.sol\":10990:10994  true */\n      0x01\n        /* \"Meta4Swap_flat.sol\":10972:10980  _dispute */\n      dup2\n        /* \"Meta4Swap_flat.sol\":10972:10987  _dispute.isLive */\n      0x60\n      add\n        /* \"Meta4Swap_flat.sol\":10972:10994  _dispute.isLive = true */\n      swap1\n      iszero\n      iszero\n      swap1\n      dup2\n      iszero\n      iszero\n      dup2\n      mstore\n      pop\n      pop\n        /* \"Meta4Swap_flat.sol\":11029:11037  _dispute */\n      dup1\n        /* \"Meta4Swap_flat.sol\":11005:11016  disputeInfo */\n      0x0f\n        /* \"Meta4Swap_flat.sol\":11005:11026  disputeInfo[_orderId] */\n      0x00\n        /* \"Meta4Swap_flat.sol\":11017:11025  _orderId */\n      dup6\n        /* \"Meta4Swap_flat.sol\":11005:11026  disputeInfo[_orderId] */\n      dup2\n      mstore\n      0x20\n      add\n      swap1\n      dup2\n      mstore\n      0x20\n      add\n      0x00\n      keccak256\n        /* \"Meta4Swap_flat.sol\":11005:11037  disputeInfo[_orderId] = _dispute */\n      0x00\n      dup3\n      add\n      mload\n      dup2\n      0x00\n      add\n      swap1\n      dup1\n      mload\n      swap1\n      0x20\n      add\n      swap1\n      tag_296\n      swap3\n      swap2\n      swap1\n      tag_226\n      jump\t// in\n    tag_296:\n      pop\n      0x20\n      dup3\n      add\n      mload\n      dup2\n      0x01\n      add\n      swap1\n      dup1\n      mload\n      swap1\n      0x20\n      add\n      swap1\n      tag_297\n      swap3\n      swap2\n      swap1\n      tag_226\n      jump\t// in\n    tag_297:\n      pop\n      0x40\n      dup3\n      add\n      mload\n      dup2\n      0x02\n      add\n      sstore\n      0x60\n      dup3\n      add\n      mload\n      dup2\n      0x03\n      add\n      exp(0x0100, 0x00)\n      dup2\n      sload\n      dup2\n      0xff\n      mul\n      not\n      and\n      swap1\n      dup4\n      iszero\n      iszero\n      mul\n      or\n      swap1\n      sstore\n      pop\n      swap1\n      pop\n      pop\n        /* \"Meta4Swap_flat.sol\":11053:11077  DisputeCreated(_orderId) */\n      0xbe50084412c1b5b360c595d895466a9298980a464614ce7fd487fb4c7421f426\n        /* \"Meta4Swap_flat.sol\":11068:11076  _orderId */\n      dup4\n        /* \"Meta4Swap_flat.sol\":11053:11077  DisputeCreated(_orderId) */\n      mload(0x40)\n      tag_298\n      swap2\n      swap1\n      tag_59\n      jump\t// in\n    tag_298:\n      mload(0x40)\n      dup1\n      swap2\n      sub\n      swap1\n      log1\n        /* \"Meta4Swap_flat.sol\":10679:11084  {... */\n      pop\n        /* \"Meta4Swap_flat.sol\":10611:11084  function dispute(uint256 _orderId) public onlyCounterpart(_orderId) {... */\n      pop\n      pop\n      jump\t// out\n        /* \"Meta4Swap_flat.sol\":15185:15643  function getLatestPrice() public view returns (int256) {... */\n    tag_152:\n        /* \"Meta4Swap_flat.sol\":15232:15238  int256 */\n      0x00\n        /* \"Meta4Swap_flat.sol\":15309:15321  int256 price */\n      dup1\n        /* \"Meta4Swap_flat.sol\":15451:15460  priceFeed */\n      0x06\n      0x00\n      swap1\n      sload\n      swap1\n      0x0100\n      exp\n      swap1\n      div\n      0xffffffffffffffffffffffffffffffffffffffff\n      and\n        /* \"Meta4Swap_flat.sol\":15429:15477  AggregatorV3Interface(priceFeed).latestRoundData */\n      0xffffffffffffffffffffffffffffffffffffffff\n      and\n      0xfeaf968c\n        /* \"Meta4Swap_flat.sol\":15429:15479  AggregatorV3Interface(priceFeed).latestRoundData() */\n      mload(0x40)\n      dup2\n      0xffffffff\n      and\n      0xe0\n      shl\n      dup2\n      mstore\n      0x04\n      add\n      0xa0\n      mload(0x40)\n      dup1\n      dup4\n      sub\n      dup2\n      dup7\n      dup1\n      extcodesize\n      iszero\n      dup1\n      iszero\n      tag_300\n      jumpi\n      0x00\n      dup1\n      revert\n    tag_300:\n      pop\n      gas\n      staticcall\n      iszero\n      dup1\n      iszero\n      tag_302\n      jumpi\n      returndatasize\n      0x00\n      dup1\n      returndatacopy\n      revert(0x00, returndatasize)\n    tag_302:\n      pop\n      pop\n      pop\n      pop\n      mload(0x40)\n      returndatasize\n      not(0x1f)\n      0x1f\n      dup3\n      add\n      and\n      dup3\n      add\n      dup1\n      0x40\n      mstore\n      pop\n      dup2\n      add\n      swap1\n      tag_303\n      swap2\n      swap1\n      tag_304\n      jump\t// in\n    tag_303:\n        /* \"Meta4Swap_flat.sol\":15250:15479  (... */\n      pop\n      pop\n      pop\n      swap2\n      pop\n      pop\n        /* \"Meta4Swap_flat.sol\":15631:15636  price */\n      dup1\n        /* \"Meta4Swap_flat.sol\":15624:15636  return price */\n      swap2\n      pop\n      pop\n        /* \"Meta4Swap_flat.sol\":15185:15643  function getLatestPrice() public view returns (int256) {... */\n      swap1\n      jump\t// out\n        /* \"Meta4Swap_flat.sol\":6446:7995  function acceptOffer(uint _itemId, address _worker) public payable returns (uint256) {... */\n    tag_157:\n        /* \"Meta4Swap_flat.sol\":6522:6529  uint256 */\n      0x00\n        /* \"Meta4Swap_flat.sol\":6563:6571  itemInfo */\n      0x0c\n        /* \"Meta4Swap_flat.sol\":6563:6580  itemInfo[_itemId] */\n      0x00\n        /* \"Meta4Swap_flat.sol\":6572:6579  _itemId */\n      dup5\n        /* \"Meta4Swap_flat.sol\":6563:6580  itemInfo[_itemId] */\n      dup2\n      mstore\n      0x20\n      add\n      swap1\n      dup2\n      mstore\n      0x20\n      add\n      0x00\n      keccak256\n        /* \"Meta4Swap_flat.sol\":6563:6586  itemInfo[_itemId].owner */\n      0x04\n      add\n      0x00\n      swap1\n      sload\n      swap1\n      0x0100\n      exp\n      swap1\n      div\n      0xffffffffffffffffffffffffffffffffffffffff\n      and\n        /* \"Meta4Swap_flat.sol\":6549:6586  msg.sender == itemInfo[_itemId].owner */\n      0xffffffffffffffffffffffffffffffffffffffff\n      and\n        /* \"Meta4Swap_flat.sol\":6549:6559  msg.sender */\n      caller\n        /* \"Meta4Swap_flat.sol\":6549:6586  msg.sender == itemInfo[_itemId].owner */\n      0xffffffffffffffffffffffffffffffffffffffff\n      and\n      eq\n        /* \"Meta4Swap_flat.sol\":6541:6623  require(msg.sender == itemInfo[_itemId].owner, \"Only item owner can accept offer\") */\n      tag_306\n      jumpi\n      mload(0x40)\n      0x08c379a000000000000000000000000000000000000000000000000000000000\n      dup2\n      mstore\n      0x04\n      add\n      tag_307\n      swap1\n      tag_308\n      jump\t// in\n    tag_307:\n      mload(0x40)\n      dup1\n      swap2\n      sub\n      swap1\n      revert\n    tag_306:\n        /* \"Meta4Swap_flat.sol\":6670:6674  true */\n      0x01\n        /* \"Meta4Swap_flat.sol\":6641:6674  offerInfo[_worker][_itemId]==true */\n      iszero\n      iszero\n        /* \"Meta4Swap_flat.sol\":6641:6650  offerInfo */\n      0x0e\n        /* \"Meta4Swap_flat.sol\":6641:6659  offerInfo[_worker] */\n      0x00\n        /* \"Meta4Swap_flat.sol\":6651:6658  _worker */\n      dup5\n        /* \"Meta4Swap_flat.sol\":6641:6659  offerInfo[_worker] */\n      0xffffffffffffffffffffffffffffffffffffffff\n      and\n      0xffffffffffffffffffffffffffffffffffffffff\n      and\n      dup2\n      mstore\n      0x20\n      add\n      swap1\n      dup2\n      mstore\n      0x20\n      add\n      0x00\n      keccak256\n        /* \"Meta4Swap_flat.sol\":6641:6668  offerInfo[_worker][_itemId] */\n      0x00\n        /* \"Meta4Swap_flat.sol\":6660:6667  _itemId */\n      dup6\n        /* \"Meta4Swap_flat.sol\":6641:6668  offerInfo[_worker][_itemId] */\n      dup2\n      mstore\n      0x20\n      add\n      swap1\n      dup2\n      mstore\n      0x20\n      add\n      0x00\n      keccak256\n      0x00\n      swap1\n      sload\n      swap1\n      0x0100\n      exp\n      swap1\n      div\n      0xff\n      and\n        /* \"Meta4Swap_flat.sol\":6641:6674  offerInfo[_worker][_itemId]==true */\n      iszero\n      iszero\n      eq\n        /* \"Meta4Swap_flat.sol\":6633:6726  require(offerInfo[_worker][_itemId]==true, \"Can only accept offers from workers who offered\") */\n      tag_309\n      jumpi\n      mload(0x40)\n      0x08c379a000000000000000000000000000000000000000000000000000000000\n      dup2\n      mstore\n      0x04\n      add\n      tag_310\n      swap1\n      tag_311\n      jump\t// in\n    tag_310:\n      mload(0x40)\n      dup1\n      swap2\n      sub\n      swap1\n      revert\n    tag_309:\n        /* \"Meta4Swap_flat.sol\":6737:6747  orderCount */\n      0x00\n      dup1\n        /* \"Meta4Swap_flat.sol\":6737:6749  orderCount++ */\n      dup2\n      sload\n      dup1\n      swap3\n      swap2\n      swap1\n      tag_312\n      swap1\n      tag_266\n      jump\t// in\n    tag_312:\n      swap2\n      swap1\n      pop\n      sstore\n      pop\n        /* \"Meta4Swap_flat.sol\":6759:6778  Order memory _order */\n      tag_313\n      tag_314\n      jump\t// in\n    tag_313:\n        /* \"Meta4Swap_flat.sol\":6821:6837  getLatestPrice() */\n      tag_315\n        /* \"Meta4Swap_flat.sol\":6821:6835  getLatestPrice */\n      tag_152\n        /* \"Meta4Swap_flat.sol\":6821:6837  getLatestPrice() */\n      jump\t// in\n    tag_315:\n        /* \"Meta4Swap_flat.sol\":6789:6795  _order */\n      dup2\n        /* \"Meta4Swap_flat.sol\":6789:6810  _order.chainLinkPrice */\n      0xc0\n      add\n        /* \"Meta4Swap_flat.sol\":6789:6838  _order.chainLinkPrice = uint256(getLatestPrice()) */\n      dup2\n      dup2\n      mstore\n      pop\n      pop\n        /* \"Meta4Swap_flat.sol\":6848:6866  uint256 orderTotal */\n      0x00\n        /* \"Meta4Swap_flat.sol\":6934:6939  10**8 */\n      0x05f5e100\n        /* \"Meta4Swap_flat.sol\":6897:6903  _order */\n      dup3\n        /* \"Meta4Swap_flat.sol\":6897:6918  _order.chainLinkPrice */\n      0xc0\n      add\n      mload\n        /* \"Meta4Swap_flat.sol\":6871:6879  itemInfo */\n      0x0c\n        /* \"Meta4Swap_flat.sol\":6871:6888  itemInfo[_itemId] */\n      0x00\n        /* \"Meta4Swap_flat.sol\":6880:6887  _itemId */\n      dup9\n        /* \"Meta4Swap_flat.sol\":6871:6888  itemInfo[_itemId] */\n      dup2\n      mstore\n      0x20\n      add\n      swap1\n      dup2\n      mstore\n      0x20\n      add\n      0x00\n      keccak256\n        /* \"Meta4Swap_flat.sol\":6871:6894  itemInfo[_itemId].price */\n      0x03\n      add\n      sload\n        /* \"Meta4Swap_flat.sol\":6871:6918  itemInfo[_itemId].price / _order.chainLinkPrice */\n      tag_316\n      swap2\n      swap1\n      tag_317\n      jump\t// in\n    tag_316:\n        /* \"Meta4Swap_flat.sol\":6870:6939  (itemInfo[_itemId].price / _order.chainLinkPrice) *... */\n      tag_318\n      swap2\n      swap1\n      tag_319\n      jump\t// in\n    tag_318:\n        /* \"Meta4Swap_flat.sol\":6848:6940  uint256 orderTotal = ((itemInfo[_itemId].price / _order.chainLinkPrice) *... */\n      swap1\n      pop\n        /* \"Meta4Swap_flat.sol\":6950:6966  uint256 orderFee */\n      0x00\n        /* \"Meta4Swap_flat.sol\":7001:7006  10000 */\n      0x2710\n        /* \"Meta4Swap_flat.sol\":6987:6997  orderTotal */\n      dup3\n        /* \"Meta4Swap_flat.sol\":6970:6984  marketplaceFee */\n      sload(0x02)\n        /* \"Meta4Swap_flat.sol\":6970:6997  marketplaceFee * orderTotal */\n      tag_320\n      swap2\n      swap1\n      tag_319\n      jump\t// in\n    tag_320:\n        /* \"Meta4Swap_flat.sol\":6969:7006  (marketplaceFee * orderTotal) / 10000 */\n      tag_321\n      swap2\n      swap1\n      tag_317\n      jump\t// in\n    tag_321:\n        /* \"Meta4Swap_flat.sol\":6950:7006  uint256 orderFee = (marketplaceFee * orderTotal) / 10000 */\n      swap1\n      pop\n        /* \"Meta4Swap_flat.sol\":7037:7047  orderTotal */\n      dup2\n        /* \"Meta4Swap_flat.sol\":7024:7033  msg.value */\n      callvalue\n        /* \"Meta4Swap_flat.sol\":7024:7047  msg.value >= orderTotal */\n      lt\n      iszero\n        /* \"Meta4Swap_flat.sol\":7016:7082  require(msg.value >= orderTotal, \"Amount paid is less than total\") */\n      tag_322\n      jumpi\n      mload(0x40)\n      0x08c379a000000000000000000000000000000000000000000000000000000000\n      dup2\n      mstore\n      0x04\n      add\n      tag_323\n      swap1\n      tag_324\n      jump\t// in\n    tag_323:\n      mload(0x40)\n      dup1\n      swap2\n      sub\n      swap1\n      revert\n    tag_322:\n        /* \"Meta4Swap_flat.sol\":7105:7115  orderCount */\n      sload(0x00)\n        /* \"Meta4Swap_flat.sol\":7093:7099  _order */\n      dup4\n        /* \"Meta4Swap_flat.sol\":7093:7102  _order.id */\n      0x00\n      add\n        /* \"Meta4Swap_flat.sol\":7093:7115  _order.id = orderCount */\n      dup2\n      dup2\n      mstore\n      pop\n      pop\n        /* \"Meta4Swap_flat.sol\":7141:7148  _itemId */\n      dup6\n        /* \"Meta4Swap_flat.sol\":7125:7131  _order */\n      dup4\n        /* \"Meta4Swap_flat.sol\":7125:7138  _order.itemId */\n      0x20\n      add\n        /* \"Meta4Swap_flat.sol\":7125:7148  _order.itemId = _itemId */\n      dup2\n      dup2\n      mstore\n      pop\n      pop\n        /* \"Meta4Swap_flat.sol\":7177:7185  itemInfo */\n      0x0c\n        /* \"Meta4Swap_flat.sol\":7177:7194  itemInfo[_itemId] */\n      0x00\n        /* \"Meta4Swap_flat.sol\":7186:7193  _itemId */\n      dup8\n        /* \"Meta4Swap_flat.sol\":7177:7194  itemInfo[_itemId] */\n      dup2\n      mstore\n      0x20\n      add\n      swap1\n      dup2\n      mstore\n      0x20\n      add\n      0x00\n      keccak256\n        /* \"Meta4Swap_flat.sol\":7177:7200  itemInfo[_itemId].price */\n      0x03\n      add\n      sload\n        /* \"Meta4Swap_flat.sol\":7158:7164  _order */\n      dup4\n        /* \"Meta4Swap_flat.sol\":7158:7174  _order.itemPrice */\n      0xa0\n      add\n        /* \"Meta4Swap_flat.sol\":7158:7200  _order.itemPrice = itemInfo[_itemId].price */\n      dup2\n      dup2\n      mstore\n      pop\n      pop\n        /* \"Meta4Swap_flat.sol\":7230:7240  orderTotal */\n      dup2\n        /* \"Meta4Swap_flat.sol\":7210:7216  _order */\n      dup4\n        /* \"Meta4Swap_flat.sol\":7210:7227  _order.orderTotal */\n      0x40\n      add\n        /* \"Meta4Swap_flat.sol\":7210:7240  _order.orderTotal = orderTotal */\n      dup2\n      dup2\n      mstore\n      pop\n      pop\n        /* \"Meta4Swap_flat.sol\":7263:7271  orderFee */\n      dup1\n        /* \"Meta4Swap_flat.sol\":7250:7256  _order */\n      dup4\n        /* \"Meta4Swap_flat.sol\":7250:7260  _order.fee */\n      0x80\n      add\n        /* \"Meta4Swap_flat.sol\":7250:7271  _order.fee = orderFee */\n      dup2\n      dup2\n      mstore\n      pop\n      pop\n        /* \"Meta4Swap_flat.sol\":7297:7301  true */\n      0x01\n        /* \"Meta4Swap_flat.sol\":7281:7287  _order */\n      dup4\n        /* \"Meta4Swap_flat.sol\":7281:7294  _order.isLive */\n      0x0120\n      add\n        /* \"Meta4Swap_flat.sol\":7281:7301  _order.isLive = true */\n      swap1\n      iszero\n      iszero\n      swap1\n      dup2\n      iszero\n      iszero\n      dup2\n      mstore\n      pop\n      pop\n        /* \"Meta4Swap_flat.sol\":7328:7340  block.number */\n      number\n        /* \"Meta4Swap_flat.sol\":7311:7317  _order */\n      dup4\n        /* \"Meta4Swap_flat.sol\":7311:7325  _order.created */\n      0x60\n      add\n        /* \"Meta4Swap_flat.sol\":7311:7340  _order.created = block.number */\n      dup2\n      dup2\n      mstore\n      pop\n      pop\n        /* \"Meta4Swap_flat.sol\":7365:7375  msg.sender */\n      caller\n        /* \"Meta4Swap_flat.sol\":7350:7356  _order */\n      dup4\n        /* \"Meta4Swap_flat.sol\":7350:7362  _order.buyer */\n      0x0140\n      add\n        /* \"Meta4Swap_flat.sol\":7350:7375  _order.buyer = msg.sender */\n      swap1\n      0xffffffffffffffffffffffffffffffffffffffff\n      and\n      swap1\n      dup2\n      0xffffffffffffffffffffffffffffffffffffffff\n      and\n      dup2\n      mstore\n      pop\n      pop\n        /* \"Meta4Swap_flat.sol\":7401:7408  _worker */\n      dup5\n        /* \"Meta4Swap_flat.sol\":7385:7391  _order */\n      dup4\n        /* \"Meta4Swap_flat.sol\":7385:7398  _order.seller */\n      0x0160\n      add\n        /* \"Meta4Swap_flat.sol\":7385:7408  _order.seller = _worker */\n      swap1\n      0xffffffffffffffffffffffffffffffffffffffff\n      and\n      swap1\n      dup2\n      0xffffffffffffffffffffffffffffffffffffffff\n      and\n      dup2\n      mstore\n      pop\n      pop\n        /* \"Meta4Swap_flat.sol\":7450:7456  _order */\n      dup3\n        /* \"Meta4Swap_flat.sol\":7427:7436  orderInfo */\n      0x0d\n        /* \"Meta4Swap_flat.sol\":7427:7447  orderInfo[_order.id] */\n      0x00\n        /* \"Meta4Swap_flat.sol\":7437:7443  _order */\n      dup6\n        /* \"Meta4Swap_flat.sol\":7437:7446  _order.id */\n      0x00\n      add\n      mload\n        /* \"Meta4Swap_flat.sol\":7427:7447  orderInfo[_order.id] */\n      dup2\n      mstore\n      0x20\n      add\n      swap1\n      dup2\n      mstore\n      0x20\n      add\n      0x00\n      keccak256\n        /* \"Meta4Swap_flat.sol\":7427:7456  orderInfo[_order.id] = _order */\n      0x00\n      dup3\n      add\n      mload\n      dup2\n      0x00\n      add\n      sstore\n      0x20\n      dup3\n      add\n      mload\n      dup2\n      0x01\n      add\n      sstore\n      0x40\n      dup3\n      add\n      mload\n      dup2\n      0x02\n      add\n      sstore\n      0x60\n      dup3\n      add\n      mload\n      dup2\n      0x03\n      add\n      sstore\n      0x80\n      dup3\n      add\n      mload\n      dup2\n      0x04\n      add\n      sstore\n      0xa0\n      dup3\n      add\n      mload\n      dup2\n      0x05\n      add\n      sstore\n      0xc0\n      dup3\n      add\n      mload\n      dup2\n      0x06\n      add\n      sstore\n      0xe0\n      dup3\n      add\n      mload\n      dup2\n      0x07\n      add\n      exp(0x0100, 0x00)\n      dup2\n      sload\n      dup2\n      0xff\n      mul\n      not\n      and\n      swap1\n      dup4\n      0xff\n      and\n      mul\n      or\n      swap1\n      sstore\n      pop\n      0x0100\n      dup3\n      add\n      mload\n      dup2\n      0x07\n      add\n      exp(0x0100, 0x01)\n      dup2\n      sload\n      dup2\n      0xff\n      mul\n      not\n      and\n      swap1\n      dup4\n      0xff\n      and\n      mul\n      or\n      swap1\n      sstore\n      pop\n      0x0120\n      dup3\n      add\n      mload\n      dup2\n      0x07\n      add\n      exp(0x0100, 0x02)\n      dup2\n      sload\n      dup2\n      0xff\n      mul\n      not\n      and\n      swap1\n      dup4\n      iszero\n      iszero\n      mul\n      or\n      swap1\n      sstore\n      pop\n      0x0140\n      dup3\n      add\n      mload\n      dup2\n      0x07\n      add\n      exp(0x0100, 0x03)\n      dup2\n      sload\n      dup2\n      0xffffffffffffffffffffffffffffffffffffffff\n      mul\n      not\n      and\n      swap1\n      dup4\n      0xffffffffffffffffffffffffffffffffffffffff\n      and\n      mul\n      or\n      swap1\n      sstore\n      pop\n      0x0160\n      dup3\n      add\n      mload\n      dup2\n      0x08\n      add\n      exp(0x0100, 0x00)\n      dup2\n      sload\n      dup2\n      0xffffffffffffffffffffffffffffffffffffffff\n      mul\n      not\n      and\n      swap1\n      dup4\n      0xffffffffffffffffffffffffffffffffffffffff\n      and\n      mul\n      or\n      swap1\n      sstore\n      pop\n      swap1\n      pop\n      pop\n        /* \"Meta4Swap_flat.sol\":7483:7493  orderTotal */\n      dup2\n        /* \"Meta4Swap_flat.sol\":7471:7480  msg.value */\n      callvalue\n        /* \"Meta4Swap_flat.sol\":7471:7493  msg.value > orderTotal */\n      gt\n        /* \"Meta4Swap_flat.sol\":7467:7747  if (msg.value > orderTotal) {... */\n      iszero\n      tag_325\n      jumpi\n        /* \"Meta4Swap_flat.sol\":7553:7562  bool sent */\n      0x00\n        /* \"Meta4Swap_flat.sol\":7564:7581  bytes memory data */\n      dup1\n        /* \"Meta4Swap_flat.sol\":7585:7595  msg.sender */\n      caller\n        /* \"Meta4Swap_flat.sol\":7585:7600  msg.sender.call */\n      0xffffffffffffffffffffffffffffffffffffffff\n      and\n        /* \"Meta4Swap_flat.sol\":7638:7648  orderTotal */\n      dup5\n        /* \"Meta4Swap_flat.sol\":7626:7635  msg.value */\n      callvalue\n        /* \"Meta4Swap_flat.sol\":7626:7648  msg.value - orderTotal */\n      tag_326\n      swap2\n      swap1\n      tag_327\n      jump\t// in\n    tag_326:\n        /* \"Meta4Swap_flat.sol\":7585:7667  msg.sender.call{... */\n      mload(0x40)\n      tag_328\n      swap1\n      tag_256\n      jump\t// in\n    tag_328:\n      0x00\n      mload(0x40)\n      dup1\n      dup4\n      sub\n      dup2\n      dup6\n      dup8\n      gas\n      call\n      swap3\n      pop\n      pop\n      pop\n      returndatasize\n      dup1\n      0x00\n      dup2\n      eq\n      tag_331\n      jumpi\n      mload(0x40)\n      swap2\n      pop\n      and(add(returndatasize, 0x3f), not(0x1f))\n      dup3\n      add\n      0x40\n      mstore\n      returndatasize\n      dup3\n      mstore\n      returndatasize\n      0x00\n      0x20\n      dup5\n      add\n      returndatacopy\n      jump(tag_330)\n    tag_331:\n      0x60\n      swap2\n      pop\n    tag_330:\n      pop\n        /* \"Meta4Swap_flat.sol\":7552:7667  (bool sent, bytes memory data) = msg.sender.call{... */\n      swap2\n      pop\n      swap2\n      pop\n        /* \"Meta4Swap_flat.sol\":7707:7711  sent */\n      dup2\n        /* \"Meta4Swap_flat.sol\":7699:7736  require(sent, \"Failed to Send Ether\") */\n      tag_332\n      jumpi\n      mload(0x40)\n      0x08c379a000000000000000000000000000000000000000000000000000000000\n      dup2\n      mstore\n      0x04\n      add\n      tag_333\n      swap1\n      tag_262\n      jump\t// in\n    tag_333:\n      mload(0x40)\n      dup1\n      swap2\n      sub\n      swap1\n      revert\n    tag_332:\n        /* \"Meta4Swap_flat.sol\":7495:7747  {... */\n      pop\n      pop\n        /* \"Meta4Swap_flat.sol\":7467:7747  if (msg.value > orderTotal) {... */\n    tag_325:\n        /* \"Meta4Swap_flat.sol\":7762:7961  OrderCreated(... */\n      0x99fbe004d22c3a2c77dfabf08b2c8aa74000120f76db47401ab456fca80049e9\n        /* \"Meta4Swap_flat.sol\":7788:7794  _order */\n      dup4\n        /* \"Meta4Swap_flat.sol\":7788:7797  _order.id */\n      0x00\n      add\n      mload\n        /* \"Meta4Swap_flat.sol\":7811:7817  _order */\n      dup5\n        /* \"Meta4Swap_flat.sol\":7811:7824  _order.itemId */\n      0x20\n      add\n      mload\n        /* \"Meta4Swap_flat.sol\":7838:7844  _order */\n      dup6\n        /* \"Meta4Swap_flat.sol\":7838:7855  _order.orderTotal */\n      0x40\n      add\n      mload\n        /* \"Meta4Swap_flat.sol\":7869:7877  itemInfo */\n      0x0c\n        /* \"Meta4Swap_flat.sol\":7869:7886  itemInfo[_itemId] */\n      0x00\n        /* \"Meta4Swap_flat.sol\":7878:7885  _itemId */\n      dup12\n        /* \"Meta4Swap_flat.sol\":7869:7886  itemInfo[_itemId] */\n      dup2\n      mstore\n      0x20\n      add\n      swap1\n      dup2\n      mstore\n      0x20\n      add\n      0x00\n      keccak256\n        /* \"Meta4Swap_flat.sol\":7869:7898  itemInfo[_itemId].serviceType */\n      0x05\n      add\n      sload\n        /* \"Meta4Swap_flat.sol\":7912:7918  _order */\n      dup8\n        /* \"Meta4Swap_flat.sol\":7912:7924  _order.buyer */\n      0x0140\n      add\n      mload\n        /* \"Meta4Swap_flat.sol\":7938:7944  _order */\n      dup9\n        /* \"Meta4Swap_flat.sol\":7938:7951  _order.seller */\n      0x0160\n      add\n      mload\n        /* \"Meta4Swap_flat.sol\":7762:7961  OrderCreated(... */\n      mload(0x40)\n      tag_334\n      swap7\n      swap6\n      swap5\n      swap4\n      swap3\n      swap2\n      swap1\n      tag_335\n      jump\t// in\n    tag_334:\n      mload(0x40)\n      dup1\n      swap2\n      sub\n      swap1\n      log1\n        /* \"Meta4Swap_flat.sol\":7978:7984  _order */\n      dup3\n        /* \"Meta4Swap_flat.sol\":7978:7987  _order.id */\n      0x00\n      add\n      mload\n        /* \"Meta4Swap_flat.sol\":7971:7987  return _order.id */\n      swap4\n      pop\n      pop\n      pop\n      pop\n        /* \"Meta4Swap_flat.sol\":6446:7995  function acceptOffer(uint _itemId, address _worker) public payable returns (uint256) {... */\n      swap3\n      swap2\n      pop\n      pop\n      jump\t// out\n        /* \"Meta4Swap_flat.sol\":8001:9865  function complete(uint256 _orderId) public onlyCounterpart(_orderId) {... */\n    tag_162:\n        /* \"Meta4Swap_flat.sol\":8060:8068  _orderId */\n      dup1\n        /* \"Meta4Swap_flat.sol\":3828:3838  msg.sender */\n      caller\n        /* \"Meta4Swap_flat.sol\":3799:3838  orderInfo[_orderId].buyer == msg.sender */\n      0xffffffffffffffffffffffffffffffffffffffff\n      and\n        /* \"Meta4Swap_flat.sol\":3799:3808  orderInfo */\n      0x0d\n        /* \"Meta4Swap_flat.sol\":3799:3818  orderInfo[_orderId] */\n      0x00\n        /* \"Meta4Swap_flat.sol\":3809:3817  _orderId */\n      dup4\n        /* \"Meta4Swap_flat.sol\":3799:3818  orderInfo[_orderId] */\n      dup2\n      mstore\n      0x20\n      add\n      swap1\n      dup2\n      mstore\n      0x20\n      add\n      0x00\n      keccak256\n        /* \"Meta4Swap_flat.sol\":3799:3824  orderInfo[_orderId].buyer */\n      0x07\n      add\n      0x03\n      swap1\n      sload\n      swap1\n      0x0100\n      exp\n      swap1\n      div\n      0xffffffffffffffffffffffffffffffffffffffff\n      and\n        /* \"Meta4Swap_flat.sol\":3799:3838  orderInfo[_orderId].buyer == msg.sender */\n      0xffffffffffffffffffffffffffffffffffffffff\n      and\n      eq\n        /* \"Meta4Swap_flat.sol\":3799:3898  orderInfo[_orderId].buyer == msg.sender ||... */\n      dup1\n      tag_337\n      jumpi\n      pop\n        /* \"Meta4Swap_flat.sol\":3888:3898  msg.sender */\n      caller\n        /* \"Meta4Swap_flat.sol\":3858:3898  orderInfo[_orderId].seller == msg.sender */\n      0xffffffffffffffffffffffffffffffffffffffff\n      and\n        /* \"Meta4Swap_flat.sol\":3858:3867  orderInfo */\n      0x0d\n        /* \"Meta4Swap_flat.sol\":3858:3877  orderInfo[_orderId] */\n      0x00\n        /* \"Meta4Swap_flat.sol\":3868:3876  _orderId */\n      dup4\n        /* \"Meta4Swap_flat.sol\":3858:3877  orderInfo[_orderId] */\n      dup2\n      mstore\n      0x20\n      add\n      swap1\n      dup2\n      mstore\n      0x20\n      add\n      0x00\n      keccak256\n        /* \"Meta4Swap_flat.sol\":3858:3884  orderInfo[_orderId].seller */\n      0x08\n      add\n      0x00\n      swap1\n      sload\n      swap1\n      0x0100\n      exp\n      swap1\n      div\n      0xffffffffffffffffffffffffffffffffffffffff\n      and\n        /* \"Meta4Swap_flat.sol\":3858:3898  orderInfo[_orderId].seller == msg.sender */\n      0xffffffffffffffffffffffffffffffffffffffff\n      and\n      eq\n        /* \"Meta4Swap_flat.sol\":3799:3898  orderInfo[_orderId].buyer == msg.sender ||... */\n    tag_337:\n        /* \"Meta4Swap_flat.sol\":3778:3961  require(... */\n      tag_338\n      jumpi\n      mload(0x40)\n      0x08c379a000000000000000000000000000000000000000000000000000000000\n      dup2\n      mstore\n      0x04\n      add\n      tag_339\n      swap1\n      tag_219\n      jump\t// in\n    tag_339:\n      mload(0x40)\n      dup1\n      swap2\n      sub\n      swap1\n      revert\n    tag_338:\n        /* \"Meta4Swap_flat.sol\":8118:8122  true */\n      0x01\n        /* \"Meta4Swap_flat.sol\":8088:8122  orderInfo[_orderId].isLive == true */\n      iszero\n      iszero\n        /* \"Meta4Swap_flat.sol\":8088:8097  orderInfo */\n      0x0d\n        /* \"Meta4Swap_flat.sol\":8088:8107  orderInfo[_orderId] */\n      0x00\n        /* \"Meta4Swap_flat.sol\":8098:8106  _orderId */\n      dup5\n        /* \"Meta4Swap_flat.sol\":8088:8107  orderInfo[_orderId] */\n      dup2\n      mstore\n      0x20\n      add\n      swap1\n      dup2\n      mstore\n      0x20\n      add\n      0x00\n      keccak256\n        /* \"Meta4Swap_flat.sol\":8088:8114  orderInfo[_orderId].isLive */\n      0x07\n      add\n      0x02\n      swap1\n      sload\n      swap1\n      0x0100\n      exp\n      swap1\n      div\n      0xff\n      and\n        /* \"Meta4Swap_flat.sol\":8088:8122  orderInfo[_orderId].isLive == true */\n      iszero\n      iszero\n      eq\n        /* \"Meta4Swap_flat.sol\":8080:8145  require(orderInfo[_orderId].isLive == true, \"Order isn't active\") */\n      tag_341\n      jumpi\n      mload(0x40)\n      0x08c379a000000000000000000000000000000000000000000000000000000000\n      dup2\n      mstore\n      0x04\n      add\n      tag_342\n      swap1\n      tag_252\n      jump\t// in\n    tag_342:\n      mload(0x40)\n      dup1\n      swap2\n      sub\n      swap1\n      revert\n    tag_341:\n        /* \"Meta4Swap_flat.sol\":8187:8196  orderInfo */\n      0x0d\n        /* \"Meta4Swap_flat.sol\":8187:8206  orderInfo[_orderId] */\n      0x00\n        /* \"Meta4Swap_flat.sol\":8197:8205  _orderId */\n      dup4\n        /* \"Meta4Swap_flat.sol\":8187:8206  orderInfo[_orderId] */\n      dup2\n      mstore\n      0x20\n      add\n      swap1\n      dup2\n      mstore\n      0x20\n      add\n      0x00\n      keccak256\n        /* \"Meta4Swap_flat.sol\":8187:8212  orderInfo[_orderId].buyer */\n      0x07\n      add\n      0x03\n      swap1\n      sload\n      swap1\n      0x0100\n      exp\n      swap1\n      div\n      0xffffffffffffffffffffffffffffffffffffffff\n      and\n        /* \"Meta4Swap_flat.sol\":8173:8212  msg.sender == orderInfo[_orderId].buyer */\n      0xffffffffffffffffffffffffffffffffffffffff\n      and\n        /* \"Meta4Swap_flat.sol\":8173:8183  msg.sender */\n      caller\n        /* \"Meta4Swap_flat.sol\":8173:8212  msg.sender == orderInfo[_orderId].buyer */\n      0xffffffffffffffffffffffffffffffffffffffff\n      and\n      eq\n        /* \"Meta4Swap_flat.sol\":8173:8268  msg.sender == orderInfo[_orderId].buyer &&... */\n      dup1\n      iszero\n      tag_343\n      jumpi\n      pop\n        /* \"Meta4Swap_flat.sol\":8242:8251  orderInfo */\n      0x0d\n        /* \"Meta4Swap_flat.sol\":8242:8261  orderInfo[_orderId] */\n      0x00\n        /* \"Meta4Swap_flat.sol\":8252:8260  _orderId */\n      dup4\n        /* \"Meta4Swap_flat.sol\":8242:8261  orderInfo[_orderId] */\n      dup2\n      mstore\n      0x20\n      add\n      swap1\n      dup2\n      mstore\n      0x20\n      add\n      0x00\n      keccak256\n        /* \"Meta4Swap_flat.sol\":8242:8268  orderInfo[_orderId].seller */\n      0x08\n      add\n      0x00\n      swap1\n      sload\n      swap1\n      0x0100\n      exp\n      swap1\n      div\n      0xffffffffffffffffffffffffffffffffffffffff\n      and\n        /* \"Meta4Swap_flat.sol\":8228:8268  msg.sender == orderInfo[_orderId].seller */\n      0xffffffffffffffffffffffffffffffffffffffff\n      and\n        /* \"Meta4Swap_flat.sol\":8228:8238  msg.sender */\n      caller\n        /* \"Meta4Swap_flat.sol\":8228:8268  msg.sender == orderInfo[_orderId].seller */\n      0xffffffffffffffffffffffffffffffffffffffff\n      and\n      eq\n        /* \"Meta4Swap_flat.sol\":8173:8268  msg.sender == orderInfo[_orderId].buyer &&... */\n    tag_343:\n        /* \"Meta4Swap_flat.sol\":8156:8609  if (... */\n      iszero\n      tag_344\n      jumpi\n        /* \"Meta4Swap_flat.sol\":8326:8327  1 */\n      0x01\n        /* \"Meta4Swap_flat.sol\":8293:8302  orderInfo */\n      0x0d\n        /* \"Meta4Swap_flat.sol\":8293:8312  orderInfo[_orderId] */\n      0x00\n        /* \"Meta4Swap_flat.sol\":8303:8311  _orderId */\n      dup5\n        /* \"Meta4Swap_flat.sol\":8293:8312  orderInfo[_orderId] */\n      dup2\n      mstore\n      0x20\n      add\n      swap1\n      dup2\n      mstore\n      0x20\n      add\n      0x00\n      keccak256\n        /* \"Meta4Swap_flat.sol\":8293:8323  orderInfo[_orderId].buyerState */\n      0x07\n      add\n      0x00\n        /* \"Meta4Swap_flat.sol\":8293:8327  orderInfo[_orderId].buyerState = 1 */\n      0x0100\n      exp\n      dup2\n      sload\n      dup2\n      0xff\n      mul\n      not\n      and\n      swap1\n      dup4\n      0xff\n      and\n      mul\n      or\n      swap1\n      sstore\n      pop\n        /* \"Meta4Swap_flat.sol\":8375:8376  1 */\n      0x01\n        /* \"Meta4Swap_flat.sol\":8341:8350  orderInfo */\n      0x0d\n        /* \"Meta4Swap_flat.sol\":8341:8360  orderInfo[_orderId] */\n      0x00\n        /* \"Meta4Swap_flat.sol\":8351:8359  _orderId */\n      dup5\n        /* \"Meta4Swap_flat.sol\":8341:8360  orderInfo[_orderId] */\n      dup2\n      mstore\n      0x20\n      add\n      swap1\n      dup2\n      mstore\n      0x20\n      add\n      0x00\n      keccak256\n        /* \"Meta4Swap_flat.sol\":8341:8372  orderInfo[_orderId].sellerState */\n      0x07\n      add\n      0x01\n        /* \"Meta4Swap_flat.sol\":8341:8376  orderInfo[_orderId].sellerState = 1 */\n      0x0100\n      exp\n      dup2\n      sload\n      dup2\n      0xff\n      mul\n      not\n      and\n      swap1\n      dup4\n      0xff\n      and\n      mul\n      or\n      swap1\n      sstore\n      pop\n        /* \"Meta4Swap_flat.sol\":8156:8609  if (... */\n      jump(tag_345)\n    tag_344:\n        /* \"Meta4Swap_flat.sol\":8411:8420  orderInfo */\n      0x0d\n        /* \"Meta4Swap_flat.sol\":8411:8430  orderInfo[_orderId] */\n      0x00\n        /* \"Meta4Swap_flat.sol\":8421:8429  _orderId */\n      dup4\n        /* \"Meta4Swap_flat.sol\":8411:8430  orderInfo[_orderId] */\n      dup2\n      mstore\n      0x20\n      add\n      swap1\n      dup2\n      mstore\n      0x20\n      add\n      0x00\n      keccak256\n        /* \"Meta4Swap_flat.sol\":8411:8436  orderInfo[_orderId].buyer */\n      0x07\n      add\n      0x03\n      swap1\n      sload\n      swap1\n      0x0100\n      exp\n      swap1\n      div\n      0xffffffffffffffffffffffffffffffffffffffff\n      and\n        /* \"Meta4Swap_flat.sol\":8397:8436  msg.sender == orderInfo[_orderId].buyer */\n      0xffffffffffffffffffffffffffffffffffffffff\n      and\n        /* \"Meta4Swap_flat.sol\":8397:8407  msg.sender */\n      caller\n        /* \"Meta4Swap_flat.sol\":8397:8436  msg.sender == orderInfo[_orderId].buyer */\n      0xffffffffffffffffffffffffffffffffffffffff\n      and\n      eq\n        /* \"Meta4Swap_flat.sol\":8393:8609  if (msg.sender == orderInfo[_orderId].buyer) {... */\n      iszero\n      tag_346\n      jumpi\n        /* \"Meta4Swap_flat.sol\":8485:8486  1 */\n      0x01\n        /* \"Meta4Swap_flat.sol\":8452:8461  orderInfo */\n      0x0d\n        /* \"Meta4Swap_flat.sol\":8452:8471  orderInfo[_orderId] */\n      0x00\n        /* \"Meta4Swap_flat.sol\":8462:8470  _orderId */\n      dup5\n        /* \"Meta4Swap_flat.sol\":8452:8471  orderInfo[_orderId] */\n      dup2\n      mstore\n      0x20\n      add\n      swap1\n      dup2\n      mstore\n      0x20\n      add\n      0x00\n      keccak256\n        /* \"Meta4Swap_flat.sol\":8452:8482  orderInfo[_orderId].buyerState */\n      0x07\n      add\n      0x00\n        /* \"Meta4Swap_flat.sol\":8452:8486  orderInfo[_orderId].buyerState = 1 */\n      0x0100\n      exp\n      dup2\n      sload\n      dup2\n      0xff\n      mul\n      not\n      and\n      swap1\n      dup4\n      0xff\n      and\n      mul\n      or\n      swap1\n      sstore\n      pop\n        /* \"Meta4Swap_flat.sol\":8393:8609  if (msg.sender == orderInfo[_orderId].buyer) {... */\n      jump(tag_347)\n    tag_346:\n        /* \"Meta4Swap_flat.sol\":8521:8530  orderInfo */\n      0x0d\n        /* \"Meta4Swap_flat.sol\":8521:8540  orderInfo[_orderId] */\n      0x00\n        /* \"Meta4Swap_flat.sol\":8531:8539  _orderId */\n      dup4\n        /* \"Meta4Swap_flat.sol\":8521:8540  orderInfo[_orderId] */\n      dup2\n      mstore\n      0x20\n      add\n      swap1\n      dup2\n      mstore\n      0x20\n      add\n      0x00\n      keccak256\n        /* \"Meta4Swap_flat.sol\":8521:8547  orderInfo[_orderId].seller */\n      0x08\n      add\n      0x00\n      swap1\n      sload\n      swap1\n      0x0100\n      exp\n      swap1\n      div\n      0xffffffffffffffffffffffffffffffffffffffff\n      and\n        /* \"Meta4Swap_flat.sol\":8507:8547  msg.sender == orderInfo[_orderId].seller */\n      0xffffffffffffffffffffffffffffffffffffffff\n      and\n        /* \"Meta4Swap_flat.sol\":8507:8517  msg.sender */\n      caller\n        /* \"Meta4Swap_flat.sol\":8507:8547  msg.sender == orderInfo[_orderId].seller */\n      0xffffffffffffffffffffffffffffffffffffffff\n      and\n      eq\n        /* \"Meta4Swap_flat.sol\":8503:8609  if (msg.sender == orderInfo[_orderId].seller) {... */\n      iszero\n      tag_348\n      jumpi\n        /* \"Meta4Swap_flat.sol\":8597:8598  1 */\n      0x01\n        /* \"Meta4Swap_flat.sol\":8563:8572  orderInfo */\n      0x0d\n        /* \"Meta4Swap_flat.sol\":8563:8582  orderInfo[_orderId] */\n      0x00\n        /* \"Meta4Swap_flat.sol\":8573:8581  _orderId */\n      dup5\n        /* \"Meta4Swap_flat.sol\":8563:8582  orderInfo[_orderId] */\n      dup2\n      mstore\n      0x20\n      add\n      swap1\n      dup2\n      mstore\n      0x20\n      add\n      0x00\n      keccak256\n        /* \"Meta4Swap_flat.sol\":8563:8594  orderInfo[_orderId].sellerState */\n      0x07\n      add\n      0x01\n        /* \"Meta4Swap_flat.sol\":8563:8598  orderInfo[_orderId].sellerState = 1 */\n      0x0100\n      exp\n      dup2\n      sload\n      dup2\n      0xff\n      mul\n      not\n      and\n      swap1\n      dup4\n      0xff\n      and\n      mul\n      or\n      swap1\n      sstore\n      pop\n        /* \"Meta4Swap_flat.sol\":8503:8609  if (msg.sender == orderInfo[_orderId].seller) {... */\n    tag_348:\n        /* \"Meta4Swap_flat.sol\":8393:8609  if (msg.sender == orderInfo[_orderId].buyer) {... */\n    tag_347:\n        /* \"Meta4Swap_flat.sol\":8156:8609  if (... */\n    tag_345:\n        /* \"Meta4Swap_flat.sol\":8670:8671  1 */\n      0x01\n        /* \"Meta4Swap_flat.sol\":8636:8645  orderInfo */\n      0x0d\n        /* \"Meta4Swap_flat.sol\":8636:8655  orderInfo[_orderId] */\n      0x00\n        /* \"Meta4Swap_flat.sol\":8646:8654  _orderId */\n      dup5\n        /* \"Meta4Swap_flat.sol\":8636:8655  orderInfo[_orderId] */\n      dup2\n      mstore\n      0x20\n      add\n      swap1\n      dup2\n      mstore\n      0x20\n      add\n      0x00\n      keccak256\n        /* \"Meta4Swap_flat.sol\":8636:8666  orderInfo[_orderId].buyerState */\n      0x07\n      add\n      0x00\n      swap1\n      sload\n      swap1\n      0x0100\n      exp\n      swap1\n      div\n      0xff\n      and\n        /* \"Meta4Swap_flat.sol\":8636:8671  orderInfo[_orderId].buyerState == 1 */\n      0xff\n      and\n      eq\n        /* \"Meta4Swap_flat.sol\":8636:8723  orderInfo[_orderId].buyerState == 1 &&... */\n      dup1\n      iszero\n      tag_349\n      jumpi\n      pop\n        /* \"Meta4Swap_flat.sol\":8722:8723  1 */\n      0x01\n        /* \"Meta4Swap_flat.sol\":8687:8696  orderInfo */\n      0x0d\n        /* \"Meta4Swap_flat.sol\":8687:8706  orderInfo[_orderId] */\n      0x00\n        /* \"Meta4Swap_flat.sol\":8697:8705  _orderId */\n      dup5\n        /* \"Meta4Swap_flat.sol\":8687:8706  orderInfo[_orderId] */\n      dup2\n      mstore\n      0x20\n      add\n      swap1\n      dup2\n      mstore\n      0x20\n      add\n      0x00\n      keccak256\n        /* \"Meta4Swap_flat.sol\":8687:8718  orderInfo[_orderId].sellerState */\n      0x07\n      add\n      0x01\n      swap1\n      sload\n      swap1\n      0x0100\n      exp\n      swap1\n      div\n      0xff\n      and\n        /* \"Meta4Swap_flat.sol\":8687:8723  orderInfo[_orderId].sellerState == 1 */\n      0xff\n      and\n      eq\n        /* \"Meta4Swap_flat.sol\":8636:8723  orderInfo[_orderId].buyerState == 1 &&... */\n    tag_349:\n        /* \"Meta4Swap_flat.sol\":8619:9821  if (... */\n      iszero\n      tag_350\n      jumpi\n        /* \"Meta4Swap_flat.sol\":8777:8782  false */\n      0x00\n        /* \"Meta4Swap_flat.sol\":8748:8757  orderInfo */\n      0x0d\n        /* \"Meta4Swap_flat.sol\":8748:8767  orderInfo[_orderId] */\n      0x00\n        /* \"Meta4Swap_flat.sol\":8758:8766  _orderId */\n      dup5\n        /* \"Meta4Swap_flat.sol\":8748:8767  orderInfo[_orderId] */\n      dup2\n      mstore\n      0x20\n      add\n      swap1\n      dup2\n      mstore\n      0x20\n      add\n      0x00\n      keccak256\n        /* \"Meta4Swap_flat.sol\":8748:8774  orderInfo[_orderId].isLive */\n      0x07\n      add\n      0x02\n        /* \"Meta4Swap_flat.sol\":8748:8782  orderInfo[_orderId].isLive = false */\n      0x0100\n      exp\n      dup2\n      sload\n      dup2\n      0xff\n      mul\n      not\n      and\n      swap1\n      dup4\n      iszero\n      iszero\n      mul\n      or\n      swap1\n      sstore\n      pop\n        /* \"Meta4Swap_flat.sol\":8822:8831  bool sent */\n      0x00\n        /* \"Meta4Swap_flat.sol\":8833:8850  bytes memory data */\n      dup1\n        /* \"Meta4Swap_flat.sol\":8854:8863  orderInfo */\n      0x0d\n        /* \"Meta4Swap_flat.sol\":8854:8873  orderInfo[_orderId] */\n      0x00\n        /* \"Meta4Swap_flat.sol\":8864:8872  _orderId */\n      dup6\n        /* \"Meta4Swap_flat.sol\":8854:8873  orderInfo[_orderId] */\n      dup2\n      mstore\n      0x20\n      add\n      swap1\n      dup2\n      mstore\n      0x20\n      add\n      0x00\n      keccak256\n        /* \"Meta4Swap_flat.sol\":8854:8880  orderInfo[_orderId].seller */\n      0x08\n      add\n      0x00\n      swap1\n      sload\n      swap1\n      0x0100\n      exp\n      swap1\n      div\n      0xffffffffffffffffffffffffffffffffffffffff\n      and\n        /* \"Meta4Swap_flat.sol\":8854:8885  orderInfo[_orderId].seller.call */\n      0xffffffffffffffffffffffffffffffffffffffff\n      and\n        /* \"Meta4Swap_flat.sol\":8944:8953  orderInfo */\n      0x0d\n        /* \"Meta4Swap_flat.sol\":8944:8963  orderInfo[_orderId] */\n      0x00\n        /* \"Meta4Swap_flat.sol\":8954:8962  _orderId */\n      dup7\n        /* \"Meta4Swap_flat.sol\":8944:8963  orderInfo[_orderId] */\n      dup2\n      mstore\n      0x20\n      add\n      swap1\n      dup2\n      mstore\n      0x20\n      add\n      0x00\n      keccak256\n        /* \"Meta4Swap_flat.sol\":8944:8967  orderInfo[_orderId].fee */\n      0x04\n      add\n      sload\n        /* \"Meta4Swap_flat.sol\":8911:8920  orderInfo */\n      0x0d\n        /* \"Meta4Swap_flat.sol\":8911:8930  orderInfo[_orderId] */\n      0x00\n        /* \"Meta4Swap_flat.sol\":8921:8929  _orderId */\n      dup8\n        /* \"Meta4Swap_flat.sol\":8911:8930  orderInfo[_orderId] */\n      dup2\n      mstore\n      0x20\n      add\n      swap1\n      dup2\n      mstore\n      0x20\n      add\n      0x00\n      keccak256\n        /* \"Meta4Swap_flat.sol\":8911:8941  orderInfo[_orderId].orderTotal */\n      0x02\n      add\n      sload\n        /* \"Meta4Swap_flat.sol\":8911:8967  orderInfo[_orderId].orderTotal - orderInfo[_orderId].fee */\n      tag_351\n      swap2\n      swap1\n      tag_327\n      jump\t// in\n    tag_351:\n        /* \"Meta4Swap_flat.sol\":8854:8986  orderInfo[_orderId].seller.call{... */\n      mload(0x40)\n      tag_352\n      swap1\n      tag_256\n      jump\t// in\n    tag_352:\n      0x00\n      mload(0x40)\n      dup1\n      dup4\n      sub\n      dup2\n      dup6\n      dup8\n      gas\n      call\n      swap3\n      pop\n      pop\n      pop\n      returndatasize\n      dup1\n      0x00\n      dup2\n      eq\n      tag_355\n      jumpi\n      mload(0x40)\n      swap2\n      pop\n      and(add(returndatasize, 0x3f), not(0x1f))\n      dup3\n      add\n      0x40\n      mstore\n      returndatasize\n      dup3\n      mstore\n      returndatasize\n      0x00\n      0x20\n      dup5\n      add\n      returndatacopy\n      jump(tag_354)\n    tag_355:\n      0x60\n      swap2\n      pop\n    tag_354:\n      pop\n        /* \"Meta4Swap_flat.sol\":8821:8986  (bool sent, bytes memory data) = orderInfo[_orderId].seller.call{... */\n      swap2\n      pop\n      swap2\n      pop\n        /* \"Meta4Swap_flat.sol\":9026:9030  sent */\n      dup2\n        /* \"Meta4Swap_flat.sol\":9018:9055  require(sent, \"Failed to Send Ether\") */\n      tag_356\n      jumpi\n      mload(0x40)\n      0x08c379a000000000000000000000000000000000000000000000000000000000\n      dup2\n      mstore\n      0x04\n      add\n      tag_357\n      swap1\n      tag_262\n      jump\t// in\n    tag_357:\n      mload(0x40)\n      dup1\n      swap2\n      sub\n      swap1\n      revert\n    tag_356:\n        /* \"Meta4Swap_flat.sol\":9095:9137  _transferEarnings(orderInfo[_orderId].fee) */\n      tag_358\n        /* \"Meta4Swap_flat.sol\":9113:9122  orderInfo */\n      0x0d\n        /* \"Meta4Swap_flat.sol\":9113:9132  orderInfo[_orderId] */\n      0x00\n        /* \"Meta4Swap_flat.sol\":9123:9131  _orderId */\n      dup7\n        /* \"Meta4Swap_flat.sol\":9113:9132  orderInfo[_orderId] */\n      dup2\n      mstore\n      0x20\n      add\n      swap1\n      dup2\n      mstore\n      0x20\n      add\n      0x00\n      keccak256\n        /* \"Meta4Swap_flat.sol\":9113:9136  orderInfo[_orderId].fee */\n      0x04\n      add\n      sload\n        /* \"Meta4Swap_flat.sol\":9095:9112  _transferEarnings */\n      tag_359\n        /* \"Meta4Swap_flat.sol\":9095:9137  _transferEarnings(orderInfo[_orderId].fee) */\n      jump\t// in\n    tag_358:\n        /* \"Meta4Swap_flat.sol\":9230:9231  1 */\n      0x01\n        /* \"Meta4Swap_flat.sol\":9178:9189  userProfile */\n      0x10\n        /* \"Meta4Swap_flat.sol\":9178:9216  userProfile[orderInfo[_orderId].buyer] */\n      0x00\n        /* \"Meta4Swap_flat.sol\":9190:9199  orderInfo */\n      0x0d\n        /* \"Meta4Swap_flat.sol\":9190:9209  orderInfo[_orderId] */\n      0x00\n        /* \"Meta4Swap_flat.sol\":9200:9208  _orderId */\n      dup9\n        /* \"Meta4Swap_flat.sol\":9190:9209  orderInfo[_orderId] */\n      dup2\n      mstore\n      0x20\n      add\n      swap1\n      dup2\n      mstore\n      0x20\n      add\n      0x00\n      keccak256\n        /* \"Meta4Swap_flat.sol\":9190:9215  orderInfo[_orderId].buyer */\n      0x07\n      add\n      0x03\n      swap1\n      sload\n      swap1\n      0x0100\n      exp\n      swap1\n      div\n      0xffffffffffffffffffffffffffffffffffffffff\n      and\n        /* \"Meta4Swap_flat.sol\":9178:9216  userProfile[orderInfo[_orderId].buyer] */\n      0xffffffffffffffffffffffffffffffffffffffff\n      and\n      0xffffffffffffffffffffffffffffffffffffffff\n      and\n      dup2\n      mstore\n      0x20\n      add\n      swap1\n      dup2\n      mstore\n      0x20\n      add\n      0x00\n      keccak256\n        /* \"Meta4Swap_flat.sol\":9178:9226  userProfile[orderInfo[_orderId].buyer].completed */\n      0x01\n      add\n      0x00\n        /* \"Meta4Swap_flat.sol\":9178:9231  userProfile[orderInfo[_orderId].buyer].completed += 1 */\n      dup3\n      dup3\n      sload\n      tag_360\n      swap2\n      swap1\n      tag_254\n      jump\t// in\n    tag_360:\n      swap3\n      pop\n      pop\n      dup2\n      swap1\n      sstore\n      pop\n        /* \"Meta4Swap_flat.sol\":9326:9327  1 */\n      0x01\n        /* \"Meta4Swap_flat.sol\":9273:9284  userProfile */\n      0x10\n        /* \"Meta4Swap_flat.sol\":9273:9312  userProfile[orderInfo[_orderId].seller] */\n      0x00\n        /* \"Meta4Swap_flat.sol\":9285:9294  orderInfo */\n      0x0d\n        /* \"Meta4Swap_flat.sol\":9285:9304  orderInfo[_orderId] */\n      0x00\n        /* \"Meta4Swap_flat.sol\":9295:9303  _orderId */\n      dup9\n        /* \"Meta4Swap_flat.sol\":9285:9304  orderInfo[_orderId] */\n      dup2\n      mstore\n      0x20\n      add\n      swap1\n      dup2\n      mstore\n      0x20\n      add\n      0x00\n      keccak256\n        /* \"Meta4Swap_flat.sol\":9285:9311  orderInfo[_orderId].seller */\n      0x08\n      add\n      0x00\n      swap1\n      sload\n      swap1\n      0x0100\n      exp\n      swap1\n      div\n      0xffffffffffffffffffffffffffffffffffffffff\n      and\n        /* \"Meta4Swap_flat.sol\":9273:9312  userProfile[orderInfo[_orderId].seller] */\n      0xffffffffffffffffffffffffffffffffffffffff\n      and\n      0xffffffffffffffffffffffffffffffffffffffff\n      and\n      dup2\n      mstore\n      0x20\n      add\n      swap1\n      dup2\n      mstore\n      0x20\n      add\n      0x00\n      keccak256\n        /* \"Meta4Swap_flat.sol\":9273:9322  userProfile[orderInfo[_orderId].seller].completed */\n      0x01\n      add\n      0x00\n        /* \"Meta4Swap_flat.sol\":9273:9327  userProfile[orderInfo[_orderId].seller].completed += 1 */\n      dup3\n      dup3\n      sload\n      tag_361\n      swap2\n      swap1\n      tag_254\n      jump\t// in\n    tag_361:\n      swap3\n      pop\n      pop\n      dup2\n      swap1\n      sstore\n      pop\n        /* \"Meta4Swap_flat.sol\":9371:9382  rewardsLive */\n      0x0b\n      0x00\n      swap1\n      sload\n      swap1\n      0x0100\n      exp\n      swap1\n      div\n      0xff\n      and\n        /* \"Meta4Swap_flat.sol\":9371:9419  rewardsLive && orderInfo[_orderId].fee >= minFee */\n      dup1\n      iszero\n      tag_362\n      jumpi\n      pop\n        /* \"Meta4Swap_flat.sol\":9413:9419  minFee */\n      sload(0x0a)\n        /* \"Meta4Swap_flat.sol\":9386:9395  orderInfo */\n      0x0d\n        /* \"Meta4Swap_flat.sol\":9386:9405  orderInfo[_orderId] */\n      0x00\n        /* \"Meta4Swap_flat.sol\":9396:9404  _orderId */\n      dup7\n        /* \"Meta4Swap_flat.sol\":9386:9405  orderInfo[_orderId] */\n      dup2\n      mstore\n      0x20\n      add\n      swap1\n      dup2\n      mstore\n      0x20\n      add\n      0x00\n      keccak256\n        /* \"Meta4Swap_flat.sol\":9386:9409  orderInfo[_orderId].fee */\n      0x04\n      add\n      sload\n        /* \"Meta4Swap_flat.sol\":9386:9419  orderInfo[_orderId].fee >= minFee */\n      lt\n      iszero\n        /* \"Meta4Swap_flat.sol\":9371:9419  rewardsLive && orderInfo[_orderId].fee >= minFee */\n    tag_362:\n        /* \"Meta4Swap_flat.sol\":9367:9811  if (rewardsLive && orderInfo[_orderId].fee >= minFee) {... */\n      iszero\n      tag_363\n      jumpi\n        /* \"Meta4Swap_flat.sol\":9454:9462  m4sToken */\n      0x05\n      0x00\n      swap1\n      sload\n      swap1\n      0x0100\n      exp\n      swap1\n      div\n      0xffffffffffffffffffffffffffffffffffffffff\n      and\n        /* \"Meta4Swap_flat.sol\":9439:9474  Meta4SwapToken(m4sToken).mintReward */\n      0xffffffffffffffffffffffffffffffffffffffff\n      and\n      0x9a49090e\n        /* \"Meta4Swap_flat.sol\":9496:9505  orderInfo */\n      0x0d\n        /* \"Meta4Swap_flat.sol\":9496:9515  orderInfo[_orderId] */\n      0x00\n        /* \"Meta4Swap_flat.sol\":9506:9514  _orderId */\n      dup8\n        /* \"Meta4Swap_flat.sol\":9496:9515  orderInfo[_orderId] */\n      dup2\n      mstore\n      0x20\n      add\n      swap1\n      dup2\n      mstore\n      0x20\n      add\n      0x00\n      keccak256\n        /* \"Meta4Swap_flat.sol\":9496:9521  orderInfo[_orderId].buyer */\n      0x07\n      add\n      0x03\n      swap1\n      sload\n      swap1\n      0x0100\n      exp\n      swap1\n      div\n      0xffffffffffffffffffffffffffffffffffffffff\n      and\n        /* \"Meta4Swap_flat.sol\":9543:9554  buyerReward */\n      sload(0x07)\n        /* \"Meta4Swap_flat.sol\":9439:9572  Meta4SwapToken(m4sToken).mintReward(... */\n      mload(0x40)\n      dup4\n      0xffffffff\n      and\n      0xe0\n      shl\n      dup2\n      mstore\n      0x04\n      add\n      tag_364\n      swap3\n      swap2\n      swap1\n      tag_365\n      jump\t// in\n    tag_364:\n      0x20\n      mload(0x40)\n      dup1\n      dup4\n      sub\n      dup2\n      0x00\n      dup8\n      dup1\n      extcodesize\n      iszero\n      dup1\n      iszero\n      tag_366\n      jumpi\n      0x00\n      dup1\n      revert\n    tag_366:\n      pop\n      gas\n      call\n      iszero\n      dup1\n      iszero\n      tag_368\n      jumpi\n      returndatasize\n      0x00\n      dup1\n      returndatacopy\n      revert(0x00, returndatasize)\n    tag_368:\n      pop\n      pop\n      pop\n      pop\n      mload(0x40)\n      returndatasize\n      not(0x1f)\n      0x1f\n      dup3\n      add\n      and\n      dup3\n      add\n      dup1\n      0x40\n      mstore\n      pop\n      dup2\n      add\n      swap1\n      tag_369\n      swap2\n      swap1\n      tag_370\n      jump\t// in\n    tag_369:\n      pop\n        /* \"Meta4Swap_flat.sol\":9605:9613  m4sToken */\n      0x05\n      0x00\n      swap1\n      sload\n      swap1\n      0x0100\n      exp\n      swap1\n      div\n      0xffffffffffffffffffffffffffffffffffffffff\n      and\n        /* \"Meta4Swap_flat.sol\":9590:9625  Meta4SwapToken(m4sToken).mintReward */\n      0xffffffffffffffffffffffffffffffffffffffff\n      and\n      0x9a49090e\n        /* \"Meta4Swap_flat.sol\":9647:9656  orderInfo */\n      0x0d\n        /* \"Meta4Swap_flat.sol\":9647:9666  orderInfo[_orderId] */\n      0x00\n        /* \"Meta4Swap_flat.sol\":9657:9665  _orderId */\n      dup8\n        /* \"Meta4Swap_flat.sol\":9647:9666  orderInfo[_orderId] */\n      dup2\n      mstore\n      0x20\n      add\n      swap1\n      dup2\n      mstore\n      0x20\n      add\n      0x00\n      keccak256\n        /* \"Meta4Swap_flat.sol\":9647:9673  orderInfo[_orderId].seller */\n      0x08\n      add\n      0x00\n      swap1\n      sload\n      swap1\n      0x0100\n      exp\n      swap1\n      div\n      0xffffffffffffffffffffffffffffffffffffffff\n      and\n        /* \"Meta4Swap_flat.sol\":9695:9707  sellerReward */\n      sload(0x08)\n        /* \"Meta4Swap_flat.sol\":9590:9725  Meta4SwapToken(m4sToken).mintReward(... */\n      mload(0x40)\n      dup4\n      0xffffffff\n      and\n      0xe0\n      shl\n      dup2\n      mstore\n      0x04\n      add\n      tag_371\n      swap3\n      swap2\n      swap1\n      tag_365\n      jump\t// in\n    tag_371:\n      0x20\n      mload(0x40)\n      dup1\n      dup4\n      sub\n      dup2\n      0x00\n      dup8\n      dup1\n      extcodesize\n      iszero\n      dup1\n      iszero\n      tag_372\n      jumpi\n      0x00\n      dup1\n      revert\n    tag_372:\n      pop\n      gas\n      call\n      iszero\n      dup1\n      iszero\n      tag_374\n      jumpi\n      returndatasize\n      0x00\n      dup1\n      returndatacopy\n      revert(0x00, returndatasize)\n    tag_374:\n      pop\n      pop\n      pop\n      pop\n      mload(0x40)\n      returndatasize\n      not(0x1f)\n      0x1f\n      dup3\n      add\n      and\n      dup3\n      add\n      dup1\n      0x40\n      mstore\n      pop\n      dup2\n      add\n      swap1\n      tag_375\n      swap2\n      swap1\n      tag_370\n      jump\t// in\n    tag_375:\n      pop\n        /* \"Meta4Swap_flat.sol\":9758:9766  m4sToken */\n      0x05\n      0x00\n      swap1\n      sload\n      swap1\n      0x0100\n      exp\n      swap1\n      div\n      0xffffffffffffffffffffffffffffffffffffffff\n      and\n        /* \"Meta4Swap_flat.sol\":9743:9778  Meta4SwapToken(m4sToken).mintReward */\n      0xffffffffffffffffffffffffffffffffffffffff\n      and\n      0x9a49090e\n        /* \"Meta4Swap_flat.sol\":9779:9784  admin */\n      0x03\n      0x00\n      swap1\n      sload\n      swap1\n      0x0100\n      exp\n      swap1\n      div\n      0xffffffffffffffffffffffffffffffffffffffff\n      and\n        /* \"Meta4Swap_flat.sol\":9786:9795  daoReward */\n      sload(0x09)\n        /* \"Meta4Swap_flat.sol\":9743:9796  Meta4SwapToken(m4sToken).mintReward(admin, daoReward) */\n      mload(0x40)\n      dup4\n      0xffffffff\n      and\n      0xe0\n      shl\n      dup2\n      mstore\n      0x04\n      add\n      tag_376\n      swap3\n      swap2\n      swap1\n      tag_365\n      jump\t// in\n    tag_376:\n      0x20\n      mload(0x40)\n      dup1\n      dup4\n      sub\n      dup2\n      0x00\n      dup8\n      dup1\n      extcodesize\n      iszero\n      dup1\n      iszero\n      tag_377\n      jumpi\n      0x00\n      dup1\n      revert\n    tag_377:\n      pop\n      gas\n      call\n      iszero\n      dup1\n      iszero\n      tag_379\n      jumpi\n      returndatasize\n      0x00\n      dup1\n      returndatacopy\n      revert(0x00, returndatasize)\n    tag_379:\n      pop\n      pop\n      pop\n      pop\n      mload(0x40)\n      returndatasize\n      not(0x1f)\n      0x1f\n      dup3\n      add\n      and\n      dup3\n      add\n      dup1\n      0x40\n      mstore\n      pop\n      dup2\n      add\n      swap1\n      tag_380\n      swap2\n      swap1\n      tag_370\n      jump\t// in\n    tag_380:\n      pop\n        /* \"Meta4Swap_flat.sol\":9367:9811  if (rewardsLive && orderInfo[_orderId].fee >= minFee) {... */\n    tag_363:\n        /* \"Meta4Swap_flat.sol\":8734:9821  {... */\n      pop\n      pop\n        /* \"Meta4Swap_flat.sol\":8619:9821  if (... */\n    tag_350:\n        /* \"Meta4Swap_flat.sol\":9836:9858  OrderUpdated(_orderId) */\n      0xb8b459bc0688c37baf5f735d17f1711684bc14ab7db116f88bc18bf409b9309a\n        /* \"Meta4Swap_flat.sol\":9849:9857  _orderId */\n      dup3\n        /* \"Meta4Swap_flat.sol\":9836:9858  OrderUpdated(_orderId) */\n      mload(0x40)\n      tag_381\n      swap2\n      swap1\n      tag_59\n      jump\t// in\n    tag_381:\n      mload(0x40)\n      dup1\n      swap2\n      sub\n      swap1\n      log1\n        /* \"Meta4Swap_flat.sol\":8001:9865  function complete(uint256 _orderId) public onlyCounterpart(_orderId) {... */\n      pop\n      pop\n      jump\t// out\n        /* \"Meta4Swap_flat.sol\":12962:13328  function updateRules(uint256 _variable, uint256 _value)... */\n    tag_167:\n        /* \"Meta4Swap_flat.sol\":13050:13054  bool */\n      0x00\n        /* \"Meta4Swap_flat.sol\":13085:13095  msg.sender */\n      caller\n        /* \"Meta4Swap_flat.sol\":13078:13095  dao == msg.sender */\n      0xffffffffffffffffffffffffffffffffffffffff\n      and\n        /* \"Meta4Swap_flat.sol\":13078:13081  dao */\n      0x04\n      0x00\n      swap1\n      sload\n      swap1\n      0x0100\n      exp\n      swap1\n      div\n      0xffffffffffffffffffffffffffffffffffffffff\n      and\n        /* \"Meta4Swap_flat.sol\":13078:13095  dao == msg.sender */\n      0xffffffffffffffffffffffffffffffffffffffff\n      and\n      eq\n        /* \"Meta4Swap_flat.sol\":13070:13096  require(dao == msg.sender) */\n      tag_383\n      jumpi\n      0x00\n      dup1\n      revert\n    tag_383:\n        /* \"Meta4Swap_flat.sol\":13123:13124  0 */\n      0x00\n        /* \"Meta4Swap_flat.sol\":13110:13119  _variable */\n      dup4\n        /* \"Meta4Swap_flat.sol\":13110:13124  _variable == 0 */\n      eq\n        /* \"Meta4Swap_flat.sol\":13106:13299  if (_variable == 0) {... */\n      iszero\n      tag_384\n      jumpi\n        /* \"Meta4Swap_flat.sol\":13180:13186  _value */\n      dup2\n        /* \"Meta4Swap_flat.sol\":13163:13177  marketplaceFee */\n      0x02\n        /* \"Meta4Swap_flat.sol\":13163:13186  marketplaceFee = _value */\n      dup2\n      swap1\n      sstore\n      pop\n        /* \"Meta4Swap_flat.sol\":13106:13299  if (_variable == 0) {... */\n      jump(tag_385)\n    tag_384:\n        /* \"Meta4Swap_flat.sol\":13230:13231  1 */\n      0x01\n        /* \"Meta4Swap_flat.sol\":13217:13226  _variable */\n      dup4\n        /* \"Meta4Swap_flat.sol\":13217:13231  _variable == 1 */\n      eq\n        /* \"Meta4Swap_flat.sol\":13213:13299  if (_variable == 1) {... */\n      iszero\n      tag_386\n      jumpi\n        /* \"Meta4Swap_flat.sol\":13282:13288  _value */\n      dup2\n        /* \"Meta4Swap_flat.sol\":13273:13279  minFee */\n      0x0a\n        /* \"Meta4Swap_flat.sol\":13273:13288  minFee = _value */\n      dup2\n      swap1\n      sstore\n      pop\n        /* \"Meta4Swap_flat.sol\":13213:13299  if (_variable == 1) {... */\n    tag_386:\n        /* \"Meta4Swap_flat.sol\":13106:13299  if (_variable == 0) {... */\n    tag_385:\n        /* \"Meta4Swap_flat.sol\":13317:13321  true */\n      0x01\n        /* \"Meta4Swap_flat.sol\":13310:13321  return true */\n      swap1\n      pop\n        /* \"Meta4Swap_flat.sol\":12962:13328  function updateRules(uint256 _variable, uint256 _value)... */\n      swap3\n      swap2\n      pop\n      pop\n      jump\t// out\n        /* \"Meta4Swap_flat.sol\":11591:12937  function resolve(uint256 _orderId, address _winner) public {... */\n    tag_172:\n        /* \"Meta4Swap_flat.sol\":11713:11717  true */\n      0x01\n        /* \"Meta4Swap_flat.sol\":11681:11717  disputeInfo[_orderId].isLive == true */\n      iszero\n      iszero\n        /* \"Meta4Swap_flat.sol\":11681:11692  disputeInfo */\n      0x0f\n        /* \"Meta4Swap_flat.sol\":11681:11702  disputeInfo[_orderId] */\n      0x00\n        /* \"Meta4Swap_flat.sol\":11693:11701  _orderId */\n      dup5\n        /* \"Meta4Swap_flat.sol\":11681:11702  disputeInfo[_orderId] */\n      dup2\n      mstore\n      0x20\n      add\n      swap1\n      dup2\n      mstore\n      0x20\n      add\n      0x00\n      keccak256\n        /* \"Meta4Swap_flat.sol\":11681:11709  disputeInfo[_orderId].isLive */\n      0x03\n      add\n      0x00\n      swap1\n      sload\n      swap1\n      0x0100\n      exp\n      swap1\n      div\n      0xff\n      and\n        /* \"Meta4Swap_flat.sol\":11681:11717  disputeInfo[_orderId].isLive == true */\n      iszero\n      iszero\n      eq\n        /* \"Meta4Swap_flat.sol\":11660:11785  require(... */\n      tag_388\n      jumpi\n      mload(0x40)\n      0x08c379a000000000000000000000000000000000000000000000000000000000\n      dup2\n      mstore\n      0x04\n      add\n      tag_389\n      swap1\n      tag_390\n      jump\t// in\n    tag_389:\n      mload(0x40)\n      dup1\n      swap2\n      sub\n      swap1\n      revert\n    tag_388:\n        /* \"Meta4Swap_flat.sol\":11815:11820  admin */\n      0x03\n      0x00\n      swap1\n      sload\n      swap1\n      0x0100\n      exp\n      swap1\n      div\n      0xffffffffffffffffffffffffffffffffffffffff\n      and\n        /* \"Meta4Swap_flat.sol\":11803:11820  msg.sender==admin */\n      0xffffffffffffffffffffffffffffffffffffffff\n      and\n        /* \"Meta4Swap_flat.sol\":11803:11813  msg.sender */\n      caller\n        /* \"Meta4Swap_flat.sol\":11803:11820  msg.sender==admin */\n      0xffffffffffffffffffffffffffffffffffffffff\n      and\n      eq\n        /* \"Meta4Swap_flat.sol\":11795:11862  require(msg.sender==admin, \"Only DAO address can resolve disputes\") */\n      tag_391\n      jumpi\n      mload(0x40)\n      0x08c379a000000000000000000000000000000000000000000000000000000000\n      dup2\n      mstore\n      0x04\n      add\n      tag_392\n      swap1\n      tag_393\n      jump\t// in\n    tag_392:\n      mload(0x40)\n      dup1\n      swap2\n      sub\n      swap1\n      revert\n    tag_391:\n        /* \"Meta4Swap_flat.sol\":11886:11895  orderInfo */\n      0x0d\n        /* \"Meta4Swap_flat.sol\":11886:11905  orderInfo[_orderId] */\n      0x00\n        /* \"Meta4Swap_flat.sol\":11896:11904  _orderId */\n      dup4\n        /* \"Meta4Swap_flat.sol\":11886:11905  orderInfo[_orderId] */\n      dup2\n      mstore\n      0x20\n      add\n      swap1\n      dup2\n      mstore\n      0x20\n      add\n      0x00\n      keccak256\n        /* \"Meta4Swap_flat.sol\":11886:11911  orderInfo[_orderId].buyer */\n      0x07\n      add\n      0x03\n      swap1\n      sload\n      swap1\n      0x0100\n      exp\n      swap1\n      div\n      0xffffffffffffffffffffffffffffffffffffffff\n      and\n        /* \"Meta4Swap_flat.sol\":11877:11911  _winner==orderInfo[_orderId].buyer */\n      0xffffffffffffffffffffffffffffffffffffffff\n      and\n        /* \"Meta4Swap_flat.sol\":11877:11884  _winner */\n      dup2\n        /* \"Meta4Swap_flat.sol\":11877:11911  _winner==orderInfo[_orderId].buyer */\n      0xffffffffffffffffffffffffffffffffffffffff\n      and\n      eq\n        /* \"Meta4Swap_flat.sol\":11873:12630  if (_winner==orderInfo[_orderId].buyer) {... */\n      iszero\n      tag_394\n      jumpi\n        /* \"Meta4Swap_flat.sol\":11971:11980  bool sent */\n      0x00\n        /* \"Meta4Swap_flat.sol\":11982:11999  bytes memory data */\n      dup1\n        /* \"Meta4Swap_flat.sol\":12003:12012  orderInfo */\n      0x0d\n        /* \"Meta4Swap_flat.sol\":12003:12022  orderInfo[_orderId] */\n      0x00\n        /* \"Meta4Swap_flat.sol\":12013:12021  _orderId */\n      dup6\n        /* \"Meta4Swap_flat.sol\":12003:12022  orderInfo[_orderId] */\n      dup2\n      mstore\n      0x20\n      add\n      swap1\n      dup2\n      mstore\n      0x20\n      add\n      0x00\n      keccak256\n        /* \"Meta4Swap_flat.sol\":12003:12028  orderInfo[_orderId].buyer */\n      0x07\n      add\n      0x03\n      swap1\n      sload\n      swap1\n      0x0100\n      exp\n      swap1\n      div\n      0xffffffffffffffffffffffffffffffffffffffff\n      and\n        /* \"Meta4Swap_flat.sol\":12003:12033  orderInfo[_orderId].buyer.call */\n      0xffffffffffffffffffffffffffffffffffffffff\n      and\n        /* \"Meta4Swap_flat.sol\":12058:12067  orderInfo */\n      0x0d\n        /* \"Meta4Swap_flat.sol\":12058:12077  orderInfo[_orderId] */\n      0x00\n        /* \"Meta4Swap_flat.sol\":12068:12076  _orderId */\n      dup7\n        /* \"Meta4Swap_flat.sol\":12058:12077  orderInfo[_orderId] */\n      dup2\n      mstore\n      0x20\n      add\n      swap1\n      dup2\n      mstore\n      0x20\n      add\n      0x00\n      keccak256\n        /* \"Meta4Swap_flat.sol\":12058:12088  orderInfo[_orderId].orderTotal */\n      0x02\n      add\n      sload\n        /* \"Meta4Swap_flat.sol\":12003:12106  orderInfo[_orderId].buyer.call{... */\n      mload(0x40)\n      tag_395\n      swap1\n      tag_256\n      jump\t// in\n    tag_395:\n      0x00\n      mload(0x40)\n      dup1\n      dup4\n      sub\n      dup2\n      dup6\n      dup8\n      gas\n      call\n      swap3\n      pop\n      pop\n      pop\n      returndatasize\n      dup1\n      0x00\n      dup2\n      eq\n      tag_398\n      jumpi\n      mload(0x40)\n      swap2\n      pop\n      and(add(returndatasize, 0x3f), not(0x1f))\n      dup3\n      add\n      0x40\n      mstore\n      returndatasize\n      dup3\n      mstore\n      returndatasize\n      0x00\n      0x20\n      dup5\n      add\n      returndatacopy\n      jump(tag_397)\n    tag_398:\n      0x60\n      swap2\n      pop\n    tag_397:\n      pop\n        /* \"Meta4Swap_flat.sol\":11970:12106  (bool sent, bytes memory data) = orderInfo[_orderId].buyer.call{... */\n      swap2\n      pop\n      swap2\n      pop\n        /* \"Meta4Swap_flat.sol\":12146:12150  sent */\n      dup2\n        /* \"Meta4Swap_flat.sol\":12138:12175  require(sent, \"Failed to Send Ether\") */\n      tag_399\n      jumpi\n      mload(0x40)\n      0x08c379a000000000000000000000000000000000000000000000000000000000\n      dup2\n      mstore\n      0x04\n      add\n      tag_400\n      swap1\n      tag_262\n      jump\t// in\n    tag_400:\n      mload(0x40)\n      dup1\n      swap2\n      sub\n      swap1\n      revert\n    tag_399:\n        /* \"Meta4Swap_flat.sol\":12215:12216  0 */\n      0x00\n        /* \"Meta4Swap_flat.sol\":12189:12198  orderInfo */\n      0x0d\n        /* \"Meta4Swap_flat.sol\":12189:12208  orderInfo[_orderId] */\n      0x00\n        /* \"Meta4Swap_flat.sol\":12199:12207  _orderId */\n      dup7\n        /* \"Meta4Swap_flat.sol\":12189:12208  orderInfo[_orderId] */\n      dup2\n      mstore\n      0x20\n      add\n      swap1\n      dup2\n      mstore\n      0x20\n      add\n      0x00\n      keccak256\n        /* \"Meta4Swap_flat.sol\":12189:12212  orderInfo[_orderId].fee */\n      0x04\n      add\n        /* \"Meta4Swap_flat.sol\":12189:12216  orderInfo[_orderId].fee = 0 */\n      dup2\n      swap1\n      sstore\n      pop\n        /* \"Meta4Swap_flat.sol\":11913:12227  {... */\n      pop\n      pop\n        /* \"Meta4Swap_flat.sol\":11873:12630  if (_winner==orderInfo[_orderId].buyer) {... */\n      jump(tag_401)\n    tag_394:\n        /* \"Meta4Swap_flat.sol\":12246:12255  orderInfo */\n      0x0d\n        /* \"Meta4Swap_flat.sol\":12246:12265  orderInfo[_orderId] */\n      0x00\n        /* \"Meta4Swap_flat.sol\":12256:12264  _orderId */\n      dup4\n        /* \"Meta4Swap_flat.sol\":12246:12265  orderInfo[_orderId] */\n      dup2\n      mstore\n      0x20\n      add\n      swap1\n      dup2\n      mstore\n      0x20\n      add\n      0x00\n      keccak256\n        /* \"Meta4Swap_flat.sol\":12246:12272  orderInfo[_orderId].seller */\n      0x08\n      add\n      0x00\n      swap1\n      sload\n      swap1\n      0x0100\n      exp\n      swap1\n      div\n      0xffffffffffffffffffffffffffffffffffffffff\n      and\n        /* \"Meta4Swap_flat.sol\":12237:12272  _winner==orderInfo[_orderId].seller */\n      0xffffffffffffffffffffffffffffffffffffffff\n      and\n        /* \"Meta4Swap_flat.sol\":12237:12244  _winner */\n      dup2\n        /* \"Meta4Swap_flat.sol\":12237:12272  _winner==orderInfo[_orderId].seller */\n      0xffffffffffffffffffffffffffffffffffffffff\n      and\n      eq\n        /* \"Meta4Swap_flat.sol\":12233:12630  if (_winner==orderInfo[_orderId].seller) {... */\n      iszero\n      tag_402\n      jumpi\n        /* \"Meta4Swap_flat.sol\":12329:12338  bool sent */\n      0x00\n        /* \"Meta4Swap_flat.sol\":12340:12357  bytes memory data */\n      dup1\n        /* \"Meta4Swap_flat.sol\":12361:12370  orderInfo */\n      0x0d\n        /* \"Meta4Swap_flat.sol\":12361:12380  orderInfo[_orderId] */\n      0x00\n        /* \"Meta4Swap_flat.sol\":12371:12379  _orderId */\n      dup6\n        /* \"Meta4Swap_flat.sol\":12361:12380  orderInfo[_orderId] */\n      dup2\n      mstore\n      0x20\n      add\n      swap1\n      dup2\n      mstore\n      0x20\n      add\n      0x00\n      keccak256\n        /* \"Meta4Swap_flat.sol\":12361:12387  orderInfo[_orderId].seller */\n      0x08\n      add\n      0x00\n      swap1\n      sload\n      swap1\n      0x0100\n      exp\n      swap1\n      div\n      0xffffffffffffffffffffffffffffffffffffffff\n      and\n        /* \"Meta4Swap_flat.sol\":12361:12392  orderInfo[_orderId].seller.call */\n      0xffffffffffffffffffffffffffffffffffffffff\n      and\n        /* \"Meta4Swap_flat.sol\":12451:12460  orderInfo */\n      0x0d\n        /* \"Meta4Swap_flat.sol\":12451:12470  orderInfo[_orderId] */\n      0x00\n        /* \"Meta4Swap_flat.sol\":12461:12469  _orderId */\n      dup7\n        /* \"Meta4Swap_flat.sol\":12451:12470  orderInfo[_orderId] */\n      dup2\n      mstore\n      0x20\n      add\n      swap1\n      dup2\n      mstore\n      0x20\n      add\n      0x00\n      keccak256\n        /* \"Meta4Swap_flat.sol\":12451:12474  orderInfo[_orderId].fee */\n      0x04\n      add\n      sload\n        /* \"Meta4Swap_flat.sol\":12418:12427  orderInfo */\n      0x0d\n        /* \"Meta4Swap_flat.sol\":12418:12437  orderInfo[_orderId] */\n      0x00\n        /* \"Meta4Swap_flat.sol\":12428:12436  _orderId */\n      dup8\n        /* \"Meta4Swap_flat.sol\":12418:12437  orderInfo[_orderId] */\n      dup2\n      mstore\n      0x20\n      add\n      swap1\n      dup2\n      mstore\n      0x20\n      add\n      0x00\n      keccak256\n        /* \"Meta4Swap_flat.sol\":12418:12448  orderInfo[_orderId].orderTotal */\n      0x02\n      add\n      sload\n        /* \"Meta4Swap_flat.sol\":12418:12474  orderInfo[_orderId].orderTotal - orderInfo[_orderId].fee */\n      tag_403\n      swap2\n      swap1\n      tag_327\n      jump\t// in\n    tag_403:\n        /* \"Meta4Swap_flat.sol\":12361:12493  orderInfo[_orderId].seller.call{... */\n      mload(0x40)\n      tag_404\n      swap1\n      tag_256\n      jump\t// in\n    tag_404:\n      0x00\n      mload(0x40)\n      dup1\n      dup4\n      sub\n      dup2\n      dup6\n      dup8\n      gas\n      call\n      swap3\n      pop\n      pop\n      pop\n      returndatasize\n      dup1\n      0x00\n      dup2\n      eq\n      tag_407\n      jumpi\n      mload(0x40)\n      swap2\n      pop\n      and(add(returndatasize, 0x3f), not(0x1f))\n      dup3\n      add\n      0x40\n      mstore\n      returndatasize\n      dup3\n      mstore\n      returndatasize\n      0x00\n      0x20\n      dup5\n      add\n      returndatacopy\n      jump(tag_406)\n    tag_407:\n      0x60\n      swap2\n      pop\n    tag_406:\n      pop\n        /* \"Meta4Swap_flat.sol\":12328:12493  (bool sent, bytes memory data) = orderInfo[_orderId].seller.call{... */\n      swap2\n      pop\n      swap2\n      pop\n        /* \"Meta4Swap_flat.sol\":12533:12537  sent */\n      dup2\n        /* \"Meta4Swap_flat.sol\":12525:12562  require(sent, \"Failed to Send Ether\") */\n      tag_408\n      jumpi\n      mload(0x40)\n      0x08c379a000000000000000000000000000000000000000000000000000000000\n      dup2\n      mstore\n      0x04\n      add\n      tag_409\n      swap1\n      tag_262\n      jump\t// in\n    tag_409:\n      mload(0x40)\n      dup1\n      swap2\n      sub\n      swap1\n      revert\n    tag_408:\n        /* \"Meta4Swap_flat.sol\":12576:12618  _transferEarnings(orderInfo[_orderId].fee) */\n      tag_410\n        /* \"Meta4Swap_flat.sol\":12594:12603  orderInfo */\n      0x0d\n        /* \"Meta4Swap_flat.sol\":12594:12613  orderInfo[_orderId] */\n      0x00\n        /* \"Meta4Swap_flat.sol\":12604:12612  _orderId */\n      dup7\n        /* \"Meta4Swap_flat.sol\":12594:12613  orderInfo[_orderId] */\n      dup2\n      mstore\n      0x20\n      add\n      swap1\n      dup2\n      mstore\n      0x20\n      add\n      0x00\n      keccak256\n        /* \"Meta4Swap_flat.sol\":12594:12617  orderInfo[_orderId].fee */\n      0x04\n      add\n      sload\n        /* \"Meta4Swap_flat.sol\":12576:12593  _transferEarnings */\n      tag_359\n        /* \"Meta4Swap_flat.sol\":12576:12618  _transferEarnings(orderInfo[_orderId].fee) */\n      jump\t// in\n    tag_410:\n        /* \"Meta4Swap_flat.sol\":12274:12630  {... */\n      pop\n      pop\n        /* \"Meta4Swap_flat.sol\":12233:12630  if (_winner==orderInfo[_orderId].seller) {... */\n    tag_402:\n        /* \"Meta4Swap_flat.sol\":11873:12630  if (_winner==orderInfo[_orderId].buyer) {... */\n    tag_401:\n        /* \"Meta4Swap_flat.sol\":12674:12675  4 */\n      0x04\n        /* \"Meta4Swap_flat.sol\":12640:12649  orderInfo */\n      0x0d\n        /* \"Meta4Swap_flat.sol\":12640:12659  orderInfo[_orderId] */\n      0x00\n        /* \"Meta4Swap_flat.sol\":12650:12658  _orderId */\n      dup5\n        /* \"Meta4Swap_flat.sol\":12640:12659  orderInfo[_orderId] */\n      dup2\n      mstore\n      0x20\n      add\n      swap1\n      dup2\n      mstore\n      0x20\n      add\n      0x00\n      keccak256\n        /* \"Meta4Swap_flat.sol\":12640:12671  orderInfo[_orderId].sellerState */\n      0x07\n      add\n      0x01\n        /* \"Meta4Swap_flat.sol\":12640:12675  orderInfo[_orderId].sellerState = 4 */\n      0x0100\n      exp\n      dup2\n      sload\n      dup2\n      0xff\n      mul\n      not\n      and\n      swap1\n      dup4\n      0xff\n      and\n      mul\n      or\n      swap1\n      sstore\n      pop\n        /* \"Meta4Swap_flat.sol\":12718:12719  4 */\n      0x04\n        /* \"Meta4Swap_flat.sol\":12685:12694  orderInfo */\n      0x0d\n        /* \"Meta4Swap_flat.sol\":12685:12704  orderInfo[_orderId] */\n      0x00\n        /* \"Meta4Swap_flat.sol\":12695:12703  _orderId */\n      dup5\n        /* \"Meta4Swap_flat.sol\":12685:12704  orderInfo[_orderId] */\n      dup2\n      mstore\n      0x20\n      add\n      swap1\n      dup2\n      mstore\n      0x20\n      add\n      0x00\n      keccak256\n        /* \"Meta4Swap_flat.sol\":12685:12715  orderInfo[_orderId].buyerState */\n      0x07\n      add\n      0x00\n        /* \"Meta4Swap_flat.sol\":12685:12719  orderInfo[_orderId].buyerState = 4 */\n      0x0100\n      exp\n      dup2\n      sload\n      dup2\n      0xff\n      mul\n      not\n      and\n      swap1\n      dup4\n      0xff\n      and\n      mul\n      or\n      swap1\n      sstore\n      pop\n        /* \"Meta4Swap_flat.sol\":12780:12781  1 */\n      0x01\n        /* \"Meta4Swap_flat.sol\":12730:12741  userProfile */\n      0x10\n        /* \"Meta4Swap_flat.sol\":12730:12768  userProfile[orderInfo[_orderId].buyer] */\n      0x00\n        /* \"Meta4Swap_flat.sol\":12742:12751  orderInfo */\n      0x0d\n        /* \"Meta4Swap_flat.sol\":12742:12761  orderInfo[_orderId] */\n      0x00\n        /* \"Meta4Swap_flat.sol\":12752:12760  _orderId */\n      dup7\n        /* \"Meta4Swap_flat.sol\":12742:12761  orderInfo[_orderId] */\n      dup2\n      mstore\n      0x20\n      add\n      swap1\n      dup2\n      mstore\n      0x20\n      add\n      0x00\n      keccak256\n        /* \"Meta4Swap_flat.sol\":12742:12767  orderInfo[_orderId].buyer */\n      0x07\n      add\n      0x03\n      swap1\n      sload\n      swap1\n      0x0100\n      exp\n      swap1\n      div\n      0xffffffffffffffffffffffffffffffffffffffff\n      and\n        /* \"Meta4Swap_flat.sol\":12730:12768  userProfile[orderInfo[_orderId].buyer] */\n      0xffffffffffffffffffffffffffffffffffffffff\n      and\n      0xffffffffffffffffffffffffffffffffffffffff\n      and\n      dup2\n      mstore\n      0x20\n      add\n      swap1\n      dup2\n      mstore\n      0x20\n      add\n      0x00\n      keccak256\n        /* \"Meta4Swap_flat.sol\":12730:12777  userProfile[orderInfo[_orderId].buyer].disputes */\n      0x02\n      add\n      0x00\n        /* \"Meta4Swap_flat.sol\":12730:12781  userProfile[orderInfo[_orderId].buyer].disputes +=1 */\n      dup3\n      dup3\n      sload\n      tag_411\n      swap2\n      swap1\n      tag_254\n      jump\t// in\n    tag_411:\n      swap3\n      pop\n      pop\n      dup2\n      swap1\n      sstore\n      pop\n        /* \"Meta4Swap_flat.sol\":12842:12843  1 */\n      0x01\n        /* \"Meta4Swap_flat.sol\":12791:12802  userProfile */\n      0x10\n        /* \"Meta4Swap_flat.sol\":12791:12830  userProfile[orderInfo[_orderId].seller] */\n      0x00\n        /* \"Meta4Swap_flat.sol\":12803:12812  orderInfo */\n      0x0d\n        /* \"Meta4Swap_flat.sol\":12803:12822  orderInfo[_orderId] */\n      0x00\n        /* \"Meta4Swap_flat.sol\":12813:12821  _orderId */\n      dup7\n        /* \"Meta4Swap_flat.sol\":12803:12822  orderInfo[_orderId] */\n      dup2\n      mstore\n      0x20\n      add\n      swap1\n      dup2\n      mstore\n      0x20\n      add\n      0x00\n      keccak256\n        /* \"Meta4Swap_flat.sol\":12803:12829  orderInfo[_orderId].seller */\n      0x08\n      add\n      0x00\n      swap1\n      sload\n      swap1\n      0x0100\n      exp\n      swap1\n      div\n      0xffffffffffffffffffffffffffffffffffffffff\n      and\n        /* \"Meta4Swap_flat.sol\":12791:12830  userProfile[orderInfo[_orderId].seller] */\n      0xffffffffffffffffffffffffffffffffffffffff\n      and\n      0xffffffffffffffffffffffffffffffffffffffff\n      and\n      dup2\n      mstore\n      0x20\n      add\n      swap1\n      dup2\n      mstore\n      0x20\n      add\n      0x00\n      keccak256\n        /* \"Meta4Swap_flat.sol\":12791:12839  userProfile[orderInfo[_orderId].seller].disputes */\n      0x02\n      add\n      0x00\n        /* \"Meta4Swap_flat.sol\":12791:12843  userProfile[orderInfo[_orderId].seller].disputes +=1 */\n      dup3\n      dup3\n      sload\n      tag_412\n      swap2\n      swap1\n      tag_254\n      jump\t// in\n    tag_412:\n      swap3\n      pop\n      pop\n      dup2\n      swap1\n      sstore\n      pop\n        /* \"Meta4Swap_flat.sol\":12885:12890  false */\n      0x00\n        /* \"Meta4Swap_flat.sol\":12854:12865  disputeInfo */\n      0x0f\n        /* \"Meta4Swap_flat.sol\":12854:12875  disputeInfo[_orderId] */\n      0x00\n        /* \"Meta4Swap_flat.sol\":12866:12874  _orderId */\n      dup5\n        /* \"Meta4Swap_flat.sol\":12854:12875  disputeInfo[_orderId] */\n      dup2\n      mstore\n      0x20\n      add\n      swap1\n      dup2\n      mstore\n      0x20\n      add\n      0x00\n      keccak256\n        /* \"Meta4Swap_flat.sol\":12854:12882  disputeInfo[_orderId].isLive */\n      0x03\n      add\n      0x00\n        /* \"Meta4Swap_flat.sol\":12854:12890  disputeInfo[_orderId].isLive = false */\n      0x0100\n      exp\n      dup2\n      sload\n      dup2\n      0xff\n      mul\n      not\n      and\n      swap1\n      dup4\n      iszero\n      iszero\n      mul\n      or\n      swap1\n      sstore\n      pop\n        /* \"Meta4Swap_flat.sol\":12906:12930  DisputeUpdated(_orderId) */\n      0x29a00cd7b143153a043355a38ed7fa14305cd81468035c2e2e389897f38980d8\n        /* \"Meta4Swap_flat.sol\":12921:12929  _orderId */\n      dup3\n        /* \"Meta4Swap_flat.sol\":12906:12930  DisputeUpdated(_orderId) */\n      mload(0x40)\n      tag_413\n      swap2\n      swap1\n      tag_59\n      jump\t// in\n    tag_413:\n      mload(0x40)\n      dup1\n      swap2\n      sub\n      swap1\n      log1\n        /* \"Meta4Swap_flat.sol\":11591:12937  function resolve(uint256 _orderId, address _winner) public {... */\n      pop\n      pop\n      jump\t// out\n        /* \"Meta4Swap_flat.sol\":14676:14939  function editState(uint256 _itemId, bool _isLive) public {... */\n    tag_177:\n        /* \"Meta4Swap_flat.sol\":14778:14786  itemInfo */\n      0x0c\n        /* \"Meta4Swap_flat.sol\":14778:14795  itemInfo[_itemId] */\n      0x00\n        /* \"Meta4Swap_flat.sol\":14787:14794  _itemId */\n      dup4\n        /* \"Meta4Swap_flat.sol\":14778:14795  itemInfo[_itemId] */\n      dup2\n      mstore\n      0x20\n      add\n      swap1\n      dup2\n      mstore\n      0x20\n      add\n      0x00\n      keccak256\n        /* \"Meta4Swap_flat.sol\":14778:14801  itemInfo[_itemId].owner */\n      0x04\n      add\n      0x00\n      swap1\n      sload\n      swap1\n      0x0100\n      exp\n      swap1\n      div\n      0xffffffffffffffffffffffffffffffffffffffff\n      and\n        /* \"Meta4Swap_flat.sol\":14764:14801  msg.sender == itemInfo[_itemId].owner */\n      0xffffffffffffffffffffffffffffffffffffffff\n      and\n        /* \"Meta4Swap_flat.sol\":14764:14774  msg.sender */\n      caller\n        /* \"Meta4Swap_flat.sol\":14764:14801  msg.sender == itemInfo[_itemId].owner */\n      0xffffffffffffffffffffffffffffffffffffffff\n      and\n      eq\n        /* \"Meta4Swap_flat.sol\":14743:14851  require(... */\n      tag_415\n      jumpi\n      mload(0x40)\n      0x08c379a000000000000000000000000000000000000000000000000000000000\n      dup2\n      mstore\n      0x04\n      add\n      tag_416\n      swap1\n      tag_284\n      jump\t// in\n    tag_416:\n      mload(0x40)\n      dup1\n      swap2\n      sub\n      swap1\n      revert\n    tag_415:\n        /* \"Meta4Swap_flat.sol\":14889:14896  _isLive */\n      dup1\n        /* \"Meta4Swap_flat.sol\":14862:14870  itemInfo */\n      0x0c\n        /* \"Meta4Swap_flat.sol\":14862:14879  itemInfo[_itemId] */\n      0x00\n        /* \"Meta4Swap_flat.sol\":14871:14878  _itemId */\n      dup5\n        /* \"Meta4Swap_flat.sol\":14862:14879  itemInfo[_itemId] */\n      dup2\n      mstore\n      0x20\n      add\n      swap1\n      dup2\n      mstore\n      0x20\n      add\n      0x00\n      keccak256\n        /* \"Meta4Swap_flat.sol\":14862:14886  itemInfo[_itemId].isLive */\n      0x02\n      add\n      0x00\n        /* \"Meta4Swap_flat.sol\":14862:14896  itemInfo[_itemId].isLive = _isLive */\n      0x0100\n      exp\n      dup2\n      sload\n      dup2\n      0xff\n      mul\n      not\n      and\n      swap1\n      dup4\n      iszero\n      iszero\n      mul\n      or\n      swap1\n      sstore\n      pop\n        /* \"Meta4Swap_flat.sol\":14912:14932  ItemUpdated(_itemId) */\n      0x5e58dfa592b09c585a4ab7ef8158d20b1e52e9897f3095dbe1df700853905c2f\n        /* \"Meta4Swap_flat.sol\":14924:14931  _itemId */\n      dup3\n        /* \"Meta4Swap_flat.sol\":14912:14932  ItemUpdated(_itemId) */\n      mload(0x40)\n      tag_417\n      swap2\n      swap1\n      tag_59\n      jump\t// in\n    tag_417:\n      mload(0x40)\n      dup1\n      swap2\n      sub\n      swap1\n      log1\n        /* \"Meta4Swap_flat.sol\":14676:14939  function editState(uint256 _itemId, bool _isLive) public {... */\n      pop\n      pop\n      jump\t// out\n        /* \"Meta4Swap_flat.sol\":1289:1315  uint256 public buyerReward */\n    tag_180:\n      sload(0x07)\n      dup2\n      jump\t// out\n        /* \"Meta4Swap_flat.sol\":14120:14383  function editPrice(uint256 _itemId, uint256 _value) public {... */\n    tag_185:\n        /* \"Meta4Swap_flat.sol\":14224:14232  itemInfo */\n      0x0c\n        /* \"Meta4Swap_flat.sol\":14224:14241  itemInfo[_itemId] */\n      0x00\n        /* \"Meta4Swap_flat.sol\":14233:14240  _itemId */\n      dup4\n        /* \"Meta4Swap_flat.sol\":14224:14241  itemInfo[_itemId] */\n      dup2\n      mstore\n      0x20\n      add\n      swap1\n      dup2\n      mstore\n      0x20\n      add\n      0x00\n      keccak256\n        /* \"Meta4Swap_flat.sol\":14224:14247  itemInfo[_itemId].owner */\n      0x04\n      add\n      0x00\n      swap1\n      sload\n      swap1\n      0x0100\n      exp\n      swap1\n      div\n      0xffffffffffffffffffffffffffffffffffffffff\n      and\n        /* \"Meta4Swap_flat.sol\":14210:14247  msg.sender == itemInfo[_itemId].owner */\n      0xffffffffffffffffffffffffffffffffffffffff\n      and\n        /* \"Meta4Swap_flat.sol\":14210:14220  msg.sender */\n      caller\n        /* \"Meta4Swap_flat.sol\":14210:14247  msg.sender == itemInfo[_itemId].owner */\n      0xffffffffffffffffffffffffffffffffffffffff\n      and\n      eq\n        /* \"Meta4Swap_flat.sol\":14189:14297  require(... */\n      tag_419\n      jumpi\n      mload(0x40)\n      0x08c379a000000000000000000000000000000000000000000000000000000000\n      dup2\n      mstore\n      0x04\n      add\n      tag_420\n      swap1\n      tag_284\n      jump\t// in\n    tag_420:\n      mload(0x40)\n      dup1\n      swap2\n      sub\n      swap1\n      revert\n    tag_419:\n        /* \"Meta4Swap_flat.sol\":14334:14340  _value */\n      dup1\n        /* \"Meta4Swap_flat.sol\":14308:14316  itemInfo */\n      0x0c\n        /* \"Meta4Swap_flat.sol\":14308:14325  itemInfo[_itemId] */\n      0x00\n        /* \"Meta4Swap_flat.sol\":14317:14324  _itemId */\n      dup5\n        /* \"Meta4Swap_flat.sol\":14308:14325  itemInfo[_itemId] */\n      dup2\n      mstore\n      0x20\n      add\n      swap1\n      dup2\n      mstore\n      0x20\n      add\n      0x00\n      keccak256\n        /* \"Meta4Swap_flat.sol\":14308:14331  itemInfo[_itemId].price */\n      0x03\n      add\n        /* \"Meta4Swap_flat.sol\":14308:14340  itemInfo[_itemId].price = _value */\n      dup2\n      swap1\n      sstore\n      pop\n        /* \"Meta4Swap_flat.sol\":14356:14376  ItemUpdated(_itemId) */\n      0x5e58dfa592b09c585a4ab7ef8158d20b1e52e9897f3095dbe1df700853905c2f\n        /* \"Meta4Swap_flat.sol\":14368:14375  _itemId */\n      dup3\n        /* \"Meta4Swap_flat.sol\":14356:14376  ItemUpdated(_itemId) */\n      mload(0x40)\n      tag_421\n      swap2\n      swap1\n      tag_59\n      jump\t// in\n    tag_421:\n      mload(0x40)\n      dup1\n      swap2\n      sub\n      swap1\n      log1\n        /* \"Meta4Swap_flat.sol\":14120:14383  function editPrice(uint256 _itemId, uint256 _value) public {... */\n      pop\n      pop\n      jump\t// out\n        /* \"Meta4Swap_flat.sol\":4610:6109  function buy(uint256 _itemId)... */\n    tag_188:\n        /* \"Meta4Swap_flat.sol\":4688:4695  uint256 */\n      0x00\n        /* \"Meta4Swap_flat.sol\":4760:4764  true */\n      0x01\n        /* \"Meta4Swap_flat.sol\":4732:4764  itemInfo[_itemId].isLive == true */\n      iszero\n      iszero\n        /* \"Meta4Swap_flat.sol\":4732:4740  itemInfo */\n      0x0c\n        /* \"Meta4Swap_flat.sol\":4732:4749  itemInfo[_itemId] */\n      0x00\n        /* \"Meta4Swap_flat.sol\":4741:4748  _itemId */\n      dup5\n        /* \"Meta4Swap_flat.sol\":4732:4749  itemInfo[_itemId] */\n      dup2\n      mstore\n      0x20\n      add\n      swap1\n      dup2\n      mstore\n      0x20\n      add\n      0x00\n      keccak256\n        /* \"Meta4Swap_flat.sol\":4732:4756  itemInfo[_itemId].isLive */\n      0x02\n      add\n      0x00\n      swap1\n      sload\n      swap1\n      0x0100\n      exp\n      swap1\n      div\n      0xff\n      and\n        /* \"Meta4Swap_flat.sol\":4732:4764  itemInfo[_itemId].isLive == true */\n      iszero\n      iszero\n      eq\n        /* \"Meta4Swap_flat.sol\":4711:4825  require(... */\n      tag_423\n      jumpi\n      mload(0x40)\n      0x08c379a000000000000000000000000000000000000000000000000000000000\n      dup2\n      mstore\n      0x04\n      add\n      tag_424\n      swap1\n      tag_425\n      jump\t// in\n    tag_424:\n      mload(0x40)\n      dup1\n      swap2\n      sub\n      swap1\n      revert\n    tag_423:\n        /* \"Meta4Swap_flat.sol\":4836:4846  orderCount */\n      0x00\n      dup1\n        /* \"Meta4Swap_flat.sol\":4836:4848  orderCount++ */\n      dup2\n      sload\n      dup1\n      swap3\n      swap2\n      swap1\n      tag_426\n      swap1\n      tag_266\n      jump\t// in\n    tag_426:\n      swap2\n      swap1\n      pop\n      sstore\n      pop\n        /* \"Meta4Swap_flat.sol\":4858:4877  Order memory _order */\n      tag_427\n      tag_314\n      jump\t// in\n    tag_427:\n        /* \"Meta4Swap_flat.sol\":4920:4936  getLatestPrice() */\n      tag_428\n        /* \"Meta4Swap_flat.sol\":4920:4934  getLatestPrice */\n      tag_152\n        /* \"Meta4Swap_flat.sol\":4920:4936  getLatestPrice() */\n      jump\t// in\n    tag_428:\n        /* \"Meta4Swap_flat.sol\":4888:4894  _order */\n      dup2\n        /* \"Meta4Swap_flat.sol\":4888:4909  _order.chainLinkPrice */\n      0xc0\n      add\n        /* \"Meta4Swap_flat.sol\":4888:4937  _order.chainLinkPrice = uint256(getLatestPrice()) */\n      dup2\n      dup2\n      mstore\n      pop\n      pop\n        /* \"Meta4Swap_flat.sol\":4947:4965  uint256 orderTotal */\n      0x00\n        /* \"Meta4Swap_flat.sol\":5033:5038  10**8 */\n      0x05f5e100\n        /* \"Meta4Swap_flat.sol\":4996:5002  _order */\n      dup3\n        /* \"Meta4Swap_flat.sol\":4996:5017  _order.chainLinkPrice */\n      0xc0\n      add\n      mload\n        /* \"Meta4Swap_flat.sol\":4970:4978  itemInfo */\n      0x0c\n        /* \"Meta4Swap_flat.sol\":4970:4987  itemInfo[_itemId] */\n      0x00\n        /* \"Meta4Swap_flat.sol\":4979:4986  _itemId */\n      dup8\n        /* \"Meta4Swap_flat.sol\":4970:4987  itemInfo[_itemId] */\n      dup2\n      mstore\n      0x20\n      add\n      swap1\n      dup2\n      mstore\n      0x20\n      add\n      0x00\n      keccak256\n        /* \"Meta4Swap_flat.sol\":4970:4993  itemInfo[_itemId].price */\n      0x03\n      add\n      sload\n        /* \"Meta4Swap_flat.sol\":4970:5017  itemInfo[_itemId].price / _order.chainLinkPrice */\n      tag_429\n      swap2\n      swap1\n      tag_317\n      jump\t// in\n    tag_429:\n        /* \"Meta4Swap_flat.sol\":4969:5038  (itemInfo[_itemId].price / _order.chainLinkPrice) *... */\n      tag_430\n      swap2\n      swap1\n      tag_319\n      jump\t// in\n    tag_430:\n        /* \"Meta4Swap_flat.sol\":4947:5039  uint256 orderTotal = ((itemInfo[_itemId].price / _order.chainLinkPrice) *... */\n      swap1\n      pop\n        /* \"Meta4Swap_flat.sol\":5049:5065  uint256 orderFee */\n      0x00\n        /* \"Meta4Swap_flat.sol\":5100:5105  10000 */\n      0x2710\n        /* \"Meta4Swap_flat.sol\":5086:5096  orderTotal */\n      dup3\n        /* \"Meta4Swap_flat.sol\":5069:5083  marketplaceFee */\n      sload(0x02)\n        /* \"Meta4Swap_flat.sol\":5069:5096  marketplaceFee * orderTotal */\n      tag_431\n      swap2\n      swap1\n      tag_319\n      jump\t// in\n    tag_431:\n        /* \"Meta4Swap_flat.sol\":5068:5105  (marketplaceFee * orderTotal) / 10000 */\n      tag_432\n      swap2\n      swap1\n      tag_317\n      jump\t// in\n    tag_432:\n        /* \"Meta4Swap_flat.sol\":5049:5105  uint256 orderFee = (marketplaceFee * orderTotal) / 10000 */\n      swap1\n      pop\n        /* \"Meta4Swap_flat.sol\":5136:5146  orderTotal */\n      dup2\n        /* \"Meta4Swap_flat.sol\":5123:5132  msg.value */\n      callvalue\n        /* \"Meta4Swap_flat.sol\":5123:5146  msg.value >= orderTotal */\n      lt\n      iszero\n        /* \"Meta4Swap_flat.sol\":5115:5181  require(msg.value >= orderTotal, \"Amount paid is less than total\") */\n      tag_433\n      jumpi\n      mload(0x40)\n      0x08c379a000000000000000000000000000000000000000000000000000000000\n      dup2\n      mstore\n      0x04\n      add\n      tag_434\n      swap1\n      tag_324\n      jump\t// in\n    tag_434:\n      mload(0x40)\n      dup1\n      swap2\n      sub\n      swap1\n      revert\n    tag_433:\n        /* \"Meta4Swap_flat.sol\":5204:5214  orderCount */\n      sload(0x00)\n        /* \"Meta4Swap_flat.sol\":5192:5198  _order */\n      dup4\n        /* \"Meta4Swap_flat.sol\":5192:5201  _order.id */\n      0x00\n      add\n        /* \"Meta4Swap_flat.sol\":5192:5214  _order.id = orderCount */\n      dup2\n      dup2\n      mstore\n      pop\n      pop\n        /* \"Meta4Swap_flat.sol\":5240:5247  _itemId */\n      dup5\n        /* \"Meta4Swap_flat.sol\":5224:5230  _order */\n      dup4\n        /* \"Meta4Swap_flat.sol\":5224:5237  _order.itemId */\n      0x20\n      add\n        /* \"Meta4Swap_flat.sol\":5224:5247  _order.itemId = _itemId */\n      dup2\n      dup2\n      mstore\n      pop\n      pop\n        /* \"Meta4Swap_flat.sol\":5276:5284  itemInfo */\n      0x0c\n        /* \"Meta4Swap_flat.sol\":5276:5293  itemInfo[_itemId] */\n      0x00\n        /* \"Meta4Swap_flat.sol\":5285:5292  _itemId */\n      dup7\n        /* \"Meta4Swap_flat.sol\":5276:5293  itemInfo[_itemId] */\n      dup2\n      mstore\n      0x20\n      add\n      swap1\n      dup2\n      mstore\n      0x20\n      add\n      0x00\n      keccak256\n        /* \"Meta4Swap_flat.sol\":5276:5299  itemInfo[_itemId].price */\n      0x03\n      add\n      sload\n        /* \"Meta4Swap_flat.sol\":5257:5263  _order */\n      dup4\n        /* \"Meta4Swap_flat.sol\":5257:5273  _order.itemPrice */\n      0xa0\n      add\n        /* \"Meta4Swap_flat.sol\":5257:5299  _order.itemPrice = itemInfo[_itemId].price */\n      dup2\n      dup2\n      mstore\n      pop\n      pop\n        /* \"Meta4Swap_flat.sol\":5329:5339  orderTotal */\n      dup2\n        /* \"Meta4Swap_flat.sol\":5309:5315  _order */\n      dup4\n        /* \"Meta4Swap_flat.sol\":5309:5326  _order.orderTotal */\n      0x40\n      add\n        /* \"Meta4Swap_flat.sol\":5309:5339  _order.orderTotal = orderTotal */\n      dup2\n      dup2\n      mstore\n      pop\n      pop\n        /* \"Meta4Swap_flat.sol\":5362:5370  orderFee */\n      dup1\n        /* \"Meta4Swap_flat.sol\":5349:5355  _order */\n      dup4\n        /* \"Meta4Swap_flat.sol\":5349:5359  _order.fee */\n      0x80\n      add\n        /* \"Meta4Swap_flat.sol\":5349:5370  _order.fee = orderFee */\n      dup2\n      dup2\n      mstore\n      pop\n      pop\n        /* \"Meta4Swap_flat.sol\":5396:5400  true */\n      0x01\n        /* \"Meta4Swap_flat.sol\":5380:5386  _order */\n      dup4\n        /* \"Meta4Swap_flat.sol\":5380:5393  _order.isLive */\n      0x0120\n      add\n        /* \"Meta4Swap_flat.sol\":5380:5400  _order.isLive = true */\n      swap1\n      iszero\n      iszero\n      swap1\n      dup2\n      iszero\n      iszero\n      dup2\n      mstore\n      pop\n      pop\n        /* \"Meta4Swap_flat.sol\":5427:5439  block.number */\n      number\n        /* \"Meta4Swap_flat.sol\":5410:5416  _order */\n      dup4\n        /* \"Meta4Swap_flat.sol\":5410:5424  _order.created */\n      0x60\n      add\n        /* \"Meta4Swap_flat.sol\":5410:5439  _order.created = block.number */\n      dup2\n      dup2\n      mstore\n      pop\n      pop\n        /* \"Meta4Swap_flat.sol\":5464:5474  msg.sender */\n      caller\n        /* \"Meta4Swap_flat.sol\":5449:5455  _order */\n      dup4\n        /* \"Meta4Swap_flat.sol\":5449:5461  _order.buyer */\n      0x0140\n      add\n        /* \"Meta4Swap_flat.sol\":5449:5474  _order.buyer = msg.sender */\n      swap1\n      0xffffffffffffffffffffffffffffffffffffffff\n      and\n      swap1\n      dup2\n      0xffffffffffffffffffffffffffffffffffffffff\n      and\n      dup2\n      mstore\n      pop\n      pop\n        /* \"Meta4Swap_flat.sol\":5500:5508  itemInfo */\n      0x0c\n        /* \"Meta4Swap_flat.sol\":5500:5517  itemInfo[_itemId] */\n      0x00\n        /* \"Meta4Swap_flat.sol\":5509:5516  _itemId */\n      dup7\n        /* \"Meta4Swap_flat.sol\":5500:5517  itemInfo[_itemId] */\n      dup2\n      mstore\n      0x20\n      add\n      swap1\n      dup2\n      mstore\n      0x20\n      add\n      0x00\n      keccak256\n        /* \"Meta4Swap_flat.sol\":5500:5523  itemInfo[_itemId].owner */\n      0x04\n      add\n      0x00\n      swap1\n      sload\n      swap1\n      0x0100\n      exp\n      swap1\n      div\n      0xffffffffffffffffffffffffffffffffffffffff\n      and\n        /* \"Meta4Swap_flat.sol\":5484:5490  _order */\n      dup4\n        /* \"Meta4Swap_flat.sol\":5484:5497  _order.seller */\n      0x0160\n      add\n        /* \"Meta4Swap_flat.sol\":5484:5523  _order.seller = itemInfo[_itemId].owner */\n      swap1\n      0xffffffffffffffffffffffffffffffffffffffff\n      and\n      swap1\n      dup2\n      0xffffffffffffffffffffffffffffffffffffffff\n      and\n      dup2\n      mstore\n      pop\n      pop\n        /* \"Meta4Swap_flat.sol\":5565:5571  _order */\n      dup3\n        /* \"Meta4Swap_flat.sol\":5542:5551  orderInfo */\n      0x0d\n        /* \"Meta4Swap_flat.sol\":5542:5562  orderInfo[_order.id] */\n      0x00\n        /* \"Meta4Swap_flat.sol\":5552:5558  _order */\n      dup6\n        /* \"Meta4Swap_flat.sol\":5552:5561  _order.id */\n      0x00\n      add\n      mload\n        /* \"Meta4Swap_flat.sol\":5542:5562  orderInfo[_order.id] */\n      dup2\n      mstore\n      0x20\n      add\n      swap1\n      dup2\n      mstore\n      0x20\n      add\n      0x00\n      keccak256\n        /* \"Meta4Swap_flat.sol\":5542:5571  orderInfo[_order.id] = _order */\n      0x00\n      dup3\n      add\n      mload\n      dup2\n      0x00\n      add\n      sstore\n      0x20\n      dup3\n      add\n      mload\n      dup2\n      0x01\n      add\n      sstore\n      0x40\n      dup3\n      add\n      mload\n      dup2\n      0x02\n      add\n      sstore\n      0x60\n      dup3\n      add\n      mload\n      dup2\n      0x03\n      add\n      sstore\n      0x80\n      dup3\n      add\n      mload\n      dup2\n      0x04\n      add\n      sstore\n      0xa0\n      dup3\n      add\n      mload\n      dup2\n      0x05\n      add\n      sstore\n      0xc0\n      dup3\n      add\n      mload\n      dup2\n      0x06\n      add\n      sstore\n      0xe0\n      dup3\n      add\n      mload\n      dup2\n      0x07\n      add\n      exp(0x0100, 0x00)\n      dup2\n      sload\n      dup2\n      0xff\n      mul\n      not\n      and\n      swap1\n      dup4\n      0xff\n      and\n      mul\n      or\n      swap1\n      sstore\n      pop\n      0x0100\n      dup3\n      add\n      mload\n      dup2\n      0x07\n      add\n      exp(0x0100, 0x01)\n      dup2\n      sload\n      dup2\n      0xff\n      mul\n      not\n      and\n      swap1\n      dup4\n      0xff\n      and\n      mul\n      or\n      swap1\n      sstore\n      pop\n      0x0120\n      dup3\n      add\n      mload\n      dup2\n      0x07\n      add\n      exp(0x0100, 0x02)\n      dup2\n      sload\n      dup2\n      0xff\n      mul\n      not\n      and\n      swap1\n      dup4\n      iszero\n      iszero\n      mul\n      or\n      swap1\n      sstore\n      pop\n      0x0140\n      dup3\n      add\n      mload\n      dup2\n      0x07\n      add\n      exp(0x0100, 0x03)\n      dup2\n      sload\n      dup2\n      0xffffffffffffffffffffffffffffffffffffffff\n      mul\n      not\n      and\n      swap1\n      dup4\n      0xffffffffffffffffffffffffffffffffffffffff\n      and\n      mul\n      or\n      swap1\n      sstore\n      pop\n      0x0160\n      dup3\n      add\n      mload\n      dup2\n      0x08\n      add\n      exp(0x0100, 0x00)\n      dup2\n      sload\n      dup2\n      0xffffffffffffffffffffffffffffffffffffffff\n      mul\n      not\n      and\n      swap1\n      dup4\n      0xffffffffffffffffffffffffffffffffffffffff\n      and\n      mul\n      or\n      swap1\n      sstore\n      pop\n      swap1\n      pop\n      pop\n        /* \"Meta4Swap_flat.sol\":5598:5608  orderTotal */\n      dup2\n        /* \"Meta4Swap_flat.sol\":5586:5595  msg.value */\n      callvalue\n        /* \"Meta4Swap_flat.sol\":5586:5608  msg.value > orderTotal */\n      gt\n        /* \"Meta4Swap_flat.sol\":5582:5862  if (msg.value > orderTotal) {... */\n      iszero\n      tag_435\n      jumpi\n        /* \"Meta4Swap_flat.sol\":5668:5677  bool sent */\n      0x00\n        /* \"Meta4Swap_flat.sol\":5679:5696  bytes memory data */\n      dup1\n        /* \"Meta4Swap_flat.sol\":5700:5710  msg.sender */\n      caller\n        /* \"Meta4Swap_flat.sol\":5700:5715  msg.sender.call */\n      0xffffffffffffffffffffffffffffffffffffffff\n      and\n        /* \"Meta4Swap_flat.sol\":5753:5763  orderTotal */\n      dup5\n        /* \"Meta4Swap_flat.sol\":5741:5750  msg.value */\n      callvalue\n        /* \"Meta4Swap_flat.sol\":5741:5763  msg.value - orderTotal */\n      tag_436\n      swap2\n      swap1\n      tag_327\n      jump\t// in\n    tag_436:\n        /* \"Meta4Swap_flat.sol\":5700:5782  msg.sender.call{... */\n      mload(0x40)\n      tag_437\n      swap1\n      tag_256\n      jump\t// in\n    tag_437:\n      0x00\n      mload(0x40)\n      dup1\n      dup4\n      sub\n      dup2\n      dup6\n      dup8\n      gas\n      call\n      swap3\n      pop\n      pop\n      pop\n      returndatasize\n      dup1\n      0x00\n      dup2\n      eq\n      tag_440\n      jumpi\n      mload(0x40)\n      swap2\n      pop\n      and(add(returndatasize, 0x3f), not(0x1f))\n      dup3\n      add\n      0x40\n      mstore\n      returndatasize\n      dup3\n      mstore\n      returndatasize\n      0x00\n      0x20\n      dup5\n      add\n      returndatacopy\n      jump(tag_439)\n    tag_440:\n      0x60\n      swap2\n      pop\n    tag_439:\n      pop\n        /* \"Meta4Swap_flat.sol\":5667:5782  (bool sent, bytes memory data) = msg.sender.call{... */\n      swap2\n      pop\n      swap2\n      pop\n        /* \"Meta4Swap_flat.sol\":5822:5826  sent */\n      dup2\n        /* \"Meta4Swap_flat.sol\":5814:5851  require(sent, \"Failed to Send Ether\") */\n      tag_441\n      jumpi\n      mload(0x40)\n      0x08c379a000000000000000000000000000000000000000000000000000000000\n      dup2\n      mstore\n      0x04\n      add\n      tag_442\n      swap1\n      tag_262\n      jump\t// in\n    tag_442:\n      mload(0x40)\n      dup1\n      swap2\n      sub\n      swap1\n      revert\n    tag_441:\n        /* \"Meta4Swap_flat.sol\":5610:5862  {... */\n      pop\n      pop\n        /* \"Meta4Swap_flat.sol\":5582:5862  if (msg.value > orderTotal) {... */\n    tag_435:\n        /* \"Meta4Swap_flat.sol\":5877:6076  OrderCreated(... */\n      0x99fbe004d22c3a2c77dfabf08b2c8aa74000120f76db47401ab456fca80049e9\n        /* \"Meta4Swap_flat.sol\":5903:5909  _order */\n      dup4\n        /* \"Meta4Swap_flat.sol\":5903:5912  _order.id */\n      0x00\n      add\n      mload\n        /* \"Meta4Swap_flat.sol\":5926:5932  _order */\n      dup5\n        /* \"Meta4Swap_flat.sol\":5926:5939  _order.itemId */\n      0x20\n      add\n      mload\n        /* \"Meta4Swap_flat.sol\":5953:5959  _order */\n      dup6\n        /* \"Meta4Swap_flat.sol\":5953:5970  _order.orderTotal */\n      0x40\n      add\n      mload\n        /* \"Meta4Swap_flat.sol\":5984:5992  itemInfo */\n      0x0c\n        /* \"Meta4Swap_flat.sol\":5984:6001  itemInfo[_itemId] */\n      0x00\n        /* \"Meta4Swap_flat.sol\":5993:6000  _itemId */\n      dup11\n        /* \"Meta4Swap_flat.sol\":5984:6001  itemInfo[_itemId] */\n      dup2\n      mstore\n      0x20\n      add\n      swap1\n      dup2\n      mstore\n      0x20\n      add\n      0x00\n      keccak256\n        /* \"Meta4Swap_flat.sol\":5984:6013  itemInfo[_itemId].serviceType */\n      0x05\n      add\n      sload\n        /* \"Meta4Swap_flat.sol\":6027:6033  _order */\n      dup8\n        /* \"Meta4Swap_flat.sol\":6027:6039  _order.buyer */\n      0x0140\n      add\n      mload\n        /* \"Meta4Swap_flat.sol\":6053:6059  _order */\n      dup9\n        /* \"Meta4Swap_flat.sol\":6053:6066  _order.seller */\n      0x0160\n      add\n      mload\n        /* \"Meta4Swap_flat.sol\":5877:6076  OrderCreated(... */\n      mload(0x40)\n      tag_443\n      swap7\n      swap6\n      swap5\n      swap4\n      swap3\n      swap2\n      swap1\n      tag_335\n      jump\t// in\n    tag_443:\n      mload(0x40)\n      dup1\n      swap2\n      sub\n      swap1\n      log1\n        /* \"Meta4Swap_flat.sol\":6093:6099  _order */\n      dup3\n        /* \"Meta4Swap_flat.sol\":6093:6102  _order.id */\n      0x00\n      add\n      mload\n        /* \"Meta4Swap_flat.sol\":6086:6102  return _order.id */\n      swap4\n      pop\n      pop\n      pop\n      pop\n        /* \"Meta4Swap_flat.sol\":4610:6109  function buy(uint256 _itemId)... */\n      swap2\n      swap1\n      pop\n      jump\t// out\n        /* \"Meta4Swap_flat.sol\":1480:1503  bool public rewardsLive */\n    tag_192:\n      0x0b\n      0x00\n      swap1\n      sload\n      swap1\n      0x0100\n      exp\n      swap1\n      div\n      0xff\n      and\n      dup2\n      jump\t// out\n        /* \"Meta4Swap_flat.sol\":1165:1185  address public admin */\n    tag_196:\n      0x03\n      0x00\n      swap1\n      sload\n      swap1\n      0x0100\n      exp\n      swap1\n      div\n      0xffffffffffffffffffffffffffffffffffffffff\n      and\n      dup2\n      jump\t// out\n        /* \"Meta4Swap_flat.sol\":2255:2295  mapping(uint256 => Item) public itemInfo */\n    tag_201:\n      mstore(0x20, 0x0c)\n      dup1\n      0x00\n      mstore\n      keccak256(0x00, 0x40)\n      0x00\n      swap2\n      pop\n      swap1\n      pop\n      dup1\n      0x00\n      add\n      sload\n      swap1\n      dup1\n      0x01\n      add\n      dup1\n      sload\n      tag_444\n      swap1\n      tag_205\n      jump\t// in\n    tag_444:\n      dup1\n      0x1f\n      add\n      0x20\n      dup1\n      swap2\n      div\n      mul\n      0x20\n      add\n      mload(0x40)\n      swap1\n      dup2\n      add\n      0x40\n      mstore\n      dup1\n      swap3\n      swap2\n      swap1\n      dup2\n      dup2\n      mstore\n      0x20\n      add\n      dup3\n      dup1\n      sload\n      tag_445\n      swap1\n      tag_205\n      jump\t// in\n    tag_445:\n      dup1\n      iszero\n      tag_446\n      jumpi\n      dup1\n      0x1f\n      lt\n      tag_447\n      jumpi\n      0x0100\n      dup1\n      dup4\n      sload\n      div\n      mul\n      dup4\n      mstore\n      swap2\n      0x20\n      add\n      swap2\n      jump(tag_446)\n    tag_447:\n      dup3\n      add\n      swap2\n      swap1\n      0x00\n      mstore\n      keccak256(0x00, 0x20)\n      swap1\n    tag_448:\n      dup2\n      sload\n      dup2\n      mstore\n      swap1\n      0x01\n      add\n      swap1\n      0x20\n      add\n      dup1\n      dup4\n      gt\n      tag_448\n      jumpi\n      dup3\n      swap1\n      sub\n      0x1f\n      and\n      dup3\n      add\n      swap2\n    tag_446:\n      pop\n      pop\n      pop\n      pop\n      pop\n      swap1\n      dup1\n      0x02\n      add\n      0x00\n      swap1\n      sload\n      swap1\n      0x0100\n      exp\n      swap1\n      div\n      0xff\n      and\n      swap1\n      dup1\n      0x03\n      add\n      sload\n      swap1\n      dup1\n      0x04\n      add\n      0x00\n      swap1\n      sload\n      swap1\n      0x0100\n      exp\n      swap1\n      div\n      0xffffffffffffffffffffffffffffffffffffffff\n      and\n      swap1\n      dup1\n      0x05\n      add\n      sload\n      swap1\n      pop\n      dup7\n      jump\t// out\n        /* \"Meta4Swap_flat.sol\":14960:15152  function _transferEarnings(uint256 _amount) internal {... */\n    tag_359:\n        /* \"Meta4Swap_flat.sol\":15024:15033  bool sent */\n      0x00\n        /* \"Meta4Swap_flat.sol\":15035:15052  bytes memory data */\n      dup1\n        /* \"Meta4Swap_flat.sol\":15056:15059  dao */\n      0x04\n      0x00\n      swap1\n      sload\n      swap1\n      0x0100\n      exp\n      swap1\n      div\n      0xffffffffffffffffffffffffffffffffffffffff\n      and\n        /* \"Meta4Swap_flat.sol\":15056:15064  dao.call */\n      0xffffffffffffffffffffffffffffffffffffffff\n      and\n        /* \"Meta4Swap_flat.sol\":15072:15079  _amount */\n      dup4\n        /* \"Meta4Swap_flat.sol\":15056:15084  dao.call{value: _amount}(\"\") */\n      mload(0x40)\n      tag_450\n      swap1\n      tag_256\n      jump\t// in\n    tag_450:\n      0x00\n      mload(0x40)\n      dup1\n      dup4\n      sub\n      dup2\n      dup6\n      dup8\n      gas\n      call\n      swap3\n      pop\n      pop\n      pop\n      returndatasize\n      dup1\n      0x00\n      dup2\n      eq\n      tag_453\n      jumpi\n      mload(0x40)\n      swap2\n      pop\n      and(add(returndatasize, 0x3f), not(0x1f))\n      dup3\n      add\n      0x40\n      mstore\n      returndatasize\n      dup3\n      mstore\n      returndatasize\n      0x00\n      0x20\n      dup5\n      add\n      returndatacopy\n      jump(tag_452)\n    tag_453:\n      0x60\n      swap2\n      pop\n    tag_452:\n      pop\n        /* \"Meta4Swap_flat.sol\":15023:15084  (bool sent, bytes memory data) = dao.call{value: _amount}(\"\") */\n      swap2\n      pop\n      swap2\n      pop\n        /* \"Meta4Swap_flat.sol\":15116:15120  sent */\n      dup2\n        /* \"Meta4Swap_flat.sol\":15108:15145  require(sent, \"Failed to Send Ether\") */\n      tag_454\n      jumpi\n      mload(0x40)\n      0x08c379a000000000000000000000000000000000000000000000000000000000\n      dup2\n      mstore\n      0x04\n      add\n      tag_455\n      swap1\n      tag_262\n      jump\t// in\n    tag_455:\n      mload(0x40)\n      dup1\n      swap2\n      sub\n      swap1\n      revert\n    tag_454:\n        /* \"Meta4Swap_flat.sol\":15013:15152  {... */\n      pop\n      pop\n        /* \"Meta4Swap_flat.sol\":14960:15152  function _transferEarnings(uint256 _amount) internal {... */\n      pop\n      jump\t// out\n    tag_226:\n      dup3\n      dup1\n      sload\n      tag_456\n      swap1\n      tag_205\n      jump\t// in\n    tag_456:\n      swap1\n      0x00\n      mstore\n      keccak256(0x00, 0x20)\n      swap1\n      0x1f\n      add\n      0x20\n      swap1\n      div\n      dup2\n      add\n      swap3\n      dup3\n      tag_458\n      jumpi\n      0x00\n      dup6\n      sstore\n      jump(tag_457)\n    tag_458:\n      dup3\n      0x1f\n      lt\n      tag_459\n      jumpi\n      dup1\n      mload\n      not(0xff)\n      and\n      dup4\n      dup1\n      add\n      or\n      dup6\n      sstore\n      jump(tag_457)\n    tag_459:\n      dup3\n      dup1\n      add\n      0x01\n      add\n      dup6\n      sstore\n      dup3\n      iszero\n      tag_457\n      jumpi\n      swap2\n      dup3\n      add\n    tag_460:\n      dup3\n      dup2\n      gt\n      iszero\n      tag_461\n      jumpi\n      dup3\n      mload\n      dup3\n      sstore\n      swap2\n      0x20\n      add\n      swap2\n      swap1\n      0x01\n      add\n      swap1\n      jump(tag_460)\n    tag_461:\n    tag_457:\n      pop\n      swap1\n      pop\n      tag_462\n      swap2\n      swap1\n      tag_463\n      jump\t// in\n    tag_462:\n      pop\n      swap1\n      jump\t// out\n    tag_268:\n      mload(0x40)\n      dup1\n      0xc0\n      add\n      0x40\n      mstore\n      dup1\n      0x00\n      dup2\n      mstore\n      0x20\n      add\n      0x60\n      dup2\n      mstore\n      0x20\n      add\n      iszero(iszero(0x00))\n      dup2\n      mstore\n      0x20\n      add\n      0x00\n      dup2\n      mstore\n      0x20\n      add\n      and(0xffffffffffffffffffffffffffffffffffffffff, 0x00)\n      dup2\n      mstore\n      0x20\n      add\n      0x00\n      dup2\n      mstore\n      pop\n      swap1\n      jump\t// out\n    tag_295:\n      mload(0x40)\n      dup1\n      0x80\n      add\n      0x40\n      mstore\n      dup1\n      0x60\n      dup2\n      mstore\n      0x20\n      add\n      0x60\n      dup2\n      mstore\n      0x20\n      add\n      0x00\n      dup2\n      mstore\n      0x20\n      add\n      iszero(iszero(0x00))\n      dup2\n      mstore\n      pop\n      swap1\n      jump\t// out\n    tag_314:\n      mload(0x40)\n      dup1\n      0x0180\n      add\n      0x40\n      mstore\n      dup1\n      0x00\n      dup2\n      mstore\n      0x20\n      add\n      0x00\n      dup2\n      mstore\n      0x20\n      add\n      0x00\n      dup2\n      mstore\n      0x20\n      add\n      0x00\n      dup2\n      mstore\n      0x20\n      add\n      0x00\n      dup2\n      mstore\n      0x20\n      add\n      0x00\n      dup2\n      mstore\n      0x20\n      add\n      0x00\n      dup2\n      mstore\n      0x20\n      add\n      and(0xff, 0x00)\n      dup2\n      mstore\n      0x20\n      add\n      and(0xff, 0x00)\n      dup2\n      mstore\n      0x20\n      add\n      iszero(iszero(0x00))\n      dup2\n      mstore\n      0x20\n      add\n      and(0xffffffffffffffffffffffffffffffffffffffff, 0x00)\n      dup2\n      mstore\n      0x20\n      add\n      and(0xffffffffffffffffffffffffffffffffffffffff, 0x00)\n      dup2\n      mstore\n      pop\n      swap1\n      jump\t// out\n    tag_463:\n    tag_464:\n      dup1\n      dup3\n      gt\n      iszero\n      tag_465\n      jumpi\n      0x00\n      dup2\n      0x00\n      swap1\n      sstore\n      pop\n      0x01\n      add\n      jump(tag_464)\n    tag_465:\n      pop\n      swap1\n      jump\t// out\n        /* \"#utility.yul\":7:419   */\n    tag_467:\n        /* \"#utility.yul\":85:90   */\n      0x00\n        /* \"#utility.yul\":110:176   */\n      tag_469\n        /* \"#utility.yul\":126:175   */\n      tag_470\n        /* \"#utility.yul\":168:174   */\n      dup5\n        /* \"#utility.yul\":126:175   */\n      tag_471\n      jump\t// in\n    tag_470:\n        /* \"#utility.yul\":110:176   */\n      tag_472\n      jump\t// in\n    tag_469:\n        /* \"#utility.yul\":101:176   */\n      swap1\n      pop\n        /* \"#utility.yul\":199:205   */\n      dup3\n        /* \"#utility.yul\":192:197   */\n      dup2\n        /* \"#utility.yul\":185:206   */\n      mstore\n        /* \"#utility.yul\":237:241   */\n      0x20\n        /* \"#utility.yul\":230:235   */\n      dup2\n        /* \"#utility.yul\":226:242   */\n      add\n        /* \"#utility.yul\":275:278   */\n      dup5\n        /* \"#utility.yul\":266:272   */\n      dup5\n        /* \"#utility.yul\":261:264   */\n      dup5\n        /* \"#utility.yul\":257:273   */\n      add\n        /* \"#utility.yul\":254:279   */\n      gt\n        /* \"#utility.yul\":251:363   */\n      iszero\n      tag_473\n      jumpi\n        /* \"#utility.yul\":282:361   */\n      tag_474\n      tag_475\n      jump\t// in\n    tag_474:\n        /* \"#utility.yul\":251:363   */\n    tag_473:\n        /* \"#utility.yul\":372:413   */\n      tag_476\n        /* \"#utility.yul\":406:412   */\n      dup5\n        /* \"#utility.yul\":401:404   */\n      dup3\n        /* \"#utility.yul\":396:399   */\n      dup6\n        /* \"#utility.yul\":372:413   */\n      tag_477\n      jump\t// in\n    tag_476:\n        /* \"#utility.yul\":91:419   */\n      pop\n        /* \"#utility.yul\":7:419   */\n      swap4\n      swap3\n      pop\n      pop\n      pop\n      jump\t// out\n        /* \"#utility.yul\":425:564   */\n    tag_478:\n        /* \"#utility.yul\":471:476   */\n      0x00\n        /* \"#utility.yul\":509:515   */\n      dup2\n        /* \"#utility.yul\":496:516   */\n      calldataload\n        /* \"#utility.yul\":487:516   */\n      swap1\n      pop\n        /* \"#utility.yul\":525:558   */\n      tag_480\n        /* \"#utility.yul\":552:557   */\n      dup2\n        /* \"#utility.yul\":525:558   */\n      tag_481\n      jump\t// in\n    tag_480:\n        /* \"#utility.yul\":425:564   */\n      swap3\n      swap2\n      pop\n      pop\n      jump\t// out\n        /* \"#utility.yul\":570:703   */\n    tag_482:\n        /* \"#utility.yul\":613:618   */\n      0x00\n        /* \"#utility.yul\":651:657   */\n      dup2\n        /* \"#utility.yul\":638:658   */\n      calldataload\n        /* \"#utility.yul\":629:658   */\n      swap1\n      pop\n        /* \"#utility.yul\":667:697   */\n      tag_484\n        /* \"#utility.yul\":691:696   */\n      dup2\n        /* \"#utility.yul\":667:697   */\n      tag_485\n      jump\t// in\n    tag_484:\n        /* \"#utility.yul\":570:703   */\n      swap3\n      swap2\n      pop\n      pop\n      jump\t// out\n        /* \"#utility.yul\":709:846   */\n    tag_486:\n        /* \"#utility.yul\":763:768   */\n      0x00\n        /* \"#utility.yul\":794:800   */\n      dup2\n        /* \"#utility.yul\":788:801   */\n      mload\n        /* \"#utility.yul\":779:801   */\n      swap1\n      pop\n        /* \"#utility.yul\":810:840   */\n      tag_488\n        /* \"#utility.yul\":834:839   */\n      dup2\n        /* \"#utility.yul\":810:840   */\n      tag_485\n      jump\t// in\n    tag_488:\n        /* \"#utility.yul\":709:846   */\n      swap3\n      swap2\n      pop\n      pop\n      jump\t// out\n        /* \"#utility.yul\":852:993   */\n    tag_489:\n        /* \"#utility.yul\":908:913   */\n      0x00\n        /* \"#utility.yul\":939:945   */\n      dup2\n        /* \"#utility.yul\":933:946   */\n      mload\n        /* \"#utility.yul\":924:946   */\n      swap1\n      pop\n        /* \"#utility.yul\":955:987   */\n      tag_491\n        /* \"#utility.yul\":981:986   */\n      dup2\n        /* \"#utility.yul\":955:987   */\n      tag_492\n      jump\t// in\n    tag_491:\n        /* \"#utility.yul\":852:993   */\n      swap3\n      swap2\n      pop\n      pop\n      jump\t// out\n        /* \"#utility.yul\":1013:1353   */\n    tag_493:\n        /* \"#utility.yul\":1069:1074   */\n      0x00\n        /* \"#utility.yul\":1118:1121   */\n      dup3\n        /* \"#utility.yul\":1111:1115   */\n      0x1f\n        /* \"#utility.yul\":1103:1109   */\n      dup4\n        /* \"#utility.yul\":1099:1116   */\n      add\n        /* \"#utility.yul\":1095:1122   */\n      slt\n        /* \"#utility.yul\":1085:1207   */\n      tag_495\n      jumpi\n        /* \"#utility.yul\":1126:1205   */\n      tag_496\n      tag_497\n      jump\t// in\n    tag_496:\n        /* \"#utility.yul\":1085:1207   */\n    tag_495:\n        /* \"#utility.yul\":1243:1249   */\n      dup2\n        /* \"#utility.yul\":1230:1250   */\n      calldataload\n        /* \"#utility.yul\":1268:1347   */\n      tag_498\n        /* \"#utility.yul\":1343:1346   */\n      dup5\n        /* \"#utility.yul\":1335:1341   */\n      dup3\n        /* \"#utility.yul\":1328:1332   */\n      0x20\n        /* \"#utility.yul\":1320:1326   */\n      dup7\n        /* \"#utility.yul\":1316:1333   */\n      add\n        /* \"#utility.yul\":1268:1347   */\n      tag_467\n      jump\t// in\n    tag_498:\n        /* \"#utility.yul\":1259:1347   */\n      swap2\n      pop\n        /* \"#utility.yul\":1075:1353   */\n      pop\n        /* \"#utility.yul\":1013:1353   */\n      swap3\n      swap2\n      pop\n      pop\n      jump\t// out\n        /* \"#utility.yul\":1359:1498   */\n    tag_499:\n        /* \"#utility.yul\":1405:1410   */\n      0x00\n        /* \"#utility.yul\":1443:1449   */\n      dup2\n        /* \"#utility.yul\":1430:1450   */\n      calldataload\n        /* \"#utility.yul\":1421:1450   */\n      swap1\n      pop\n        /* \"#utility.yul\":1459:1492   */\n      tag_501\n        /* \"#utility.yul\":1486:1491   */\n      dup2\n        /* \"#utility.yul\":1459:1492   */\n      tag_502\n      jump\t// in\n    tag_501:\n        /* \"#utility.yul\":1359:1498   */\n      swap3\n      swap2\n      pop\n      pop\n      jump\t// out\n        /* \"#utility.yul\":1504:1647   */\n    tag_503:\n        /* \"#utility.yul\":1561:1566   */\n      0x00\n        /* \"#utility.yul\":1592:1598   */\n      dup2\n        /* \"#utility.yul\":1586:1599   */\n      mload\n        /* \"#utility.yul\":1577:1599   */\n      swap1\n      pop\n        /* \"#utility.yul\":1608:1641   */\n      tag_505\n        /* \"#utility.yul\":1635:1640   */\n      dup2\n        /* \"#utility.yul\":1608:1641   */\n      tag_502\n      jump\t// in\n    tag_505:\n        /* \"#utility.yul\":1504:1647   */\n      swap3\n      swap2\n      pop\n      pop\n      jump\t// out\n        /* \"#utility.yul\":1653:1794   */\n    tag_506:\n        /* \"#utility.yul\":1709:1714   */\n      0x00\n        /* \"#utility.yul\":1740:1746   */\n      dup2\n        /* \"#utility.yul\":1734:1747   */\n      mload\n        /* \"#utility.yul\":1725:1747   */\n      swap1\n      pop\n        /* \"#utility.yul\":1756:1788   */\n      tag_508\n        /* \"#utility.yul\":1782:1787   */\n      dup2\n        /* \"#utility.yul\":1756:1788   */\n      tag_509\n      jump\t// in\n    tag_508:\n        /* \"#utility.yul\":1653:1794   */\n      swap3\n      swap2\n      pop\n      pop\n      jump\t// out\n        /* \"#utility.yul\":1800:2129   */\n    tag_63:\n        /* \"#utility.yul\":1859:1865   */\n      0x00\n        /* \"#utility.yul\":1908:1910   */\n      0x20\n        /* \"#utility.yul\":1896:1905   */\n      dup3\n        /* \"#utility.yul\":1887:1894   */\n      dup5\n        /* \"#utility.yul\":1883:1906   */\n      sub\n        /* \"#utility.yul\":1879:1911   */\n      slt\n        /* \"#utility.yul\":1876:1995   */\n      iszero\n      tag_511\n      jumpi\n        /* \"#utility.yul\":1914:1993   */\n      tag_512\n      tag_513\n      jump\t// in\n    tag_512:\n        /* \"#utility.yul\":1876:1995   */\n    tag_511:\n        /* \"#utility.yul\":2034:2035   */\n      0x00\n        /* \"#utility.yul\":2059:2112   */\n      tag_514\n        /* \"#utility.yul\":2104:2111   */\n      dup5\n        /* \"#utility.yul\":2095:2101   */\n      dup3\n        /* \"#utility.yul\":2084:2093   */\n      dup6\n        /* \"#utility.yul\":2080:2102   */\n      add\n        /* \"#utility.yul\":2059:2112   */\n      tag_478\n      jump\t// in\n    tag_514:\n        /* \"#utility.yul\":2049:2112   */\n      swap2\n      pop\n        /* \"#utility.yul\":2005:2122   */\n      pop\n        /* \"#utility.yul\":1800:2129   */\n      swap3\n      swap2\n      pop\n      pop\n      jump\t// out\n        /* \"#utility.yul\":2135:2609   */\n    tag_93:\n        /* \"#utility.yul\":2203:2209   */\n      0x00\n        /* \"#utility.yul\":2211:2217   */\n      dup1\n        /* \"#utility.yul\":2260:2262   */\n      0x40\n        /* \"#utility.yul\":2248:2257   */\n      dup4\n        /* \"#utility.yul\":2239:2246   */\n      dup6\n        /* \"#utility.yul\":2235:2258   */\n      sub\n        /* \"#utility.yul\":2231:2263   */\n      slt\n        /* \"#utility.yul\":2228:2347   */\n      iszero\n      tag_516\n      jumpi\n        /* \"#utility.yul\":2266:2345   */\n      tag_517\n      tag_513\n      jump\t// in\n    tag_517:\n        /* \"#utility.yul\":2228:2347   */\n    tag_516:\n        /* \"#utility.yul\":2386:2387   */\n      0x00\n        /* \"#utility.yul\":2411:2464   */\n      tag_518\n        /* \"#utility.yul\":2456:2463   */\n      dup6\n        /* \"#utility.yul\":2447:2453   */\n      dup3\n        /* \"#utility.yul\":2436:2445   */\n      dup7\n        /* \"#utility.yul\":2432:2454   */\n      add\n        /* \"#utility.yul\":2411:2464   */\n      tag_478\n      jump\t// in\n    tag_518:\n        /* \"#utility.yul\":2401:2464   */\n      swap3\n      pop\n        /* \"#utility.yul\":2357:2474   */\n      pop\n        /* \"#utility.yul\":2513:2515   */\n      0x20\n        /* \"#utility.yul\":2539:2592   */\n      tag_519\n        /* \"#utility.yul\":2584:2591   */\n      dup6\n        /* \"#utility.yul\":2575:2581   */\n      dup3\n        /* \"#utility.yul\":2564:2573   */\n      dup7\n        /* \"#utility.yul\":2560:2582   */\n      add\n        /* \"#utility.yul\":2539:2592   */\n      tag_499\n      jump\t// in\n    tag_519:\n        /* \"#utility.yul\":2529:2592   */\n      swap2\n      pop\n        /* \"#utility.yul\":2484:2602   */\n      pop\n        /* \"#utility.yul\":2135:2609   */\n      swap3\n      pop\n      swap3\n      swap1\n      pop\n      jump\t// out\n        /* \"#utility.yul\":2615:2938   */\n    tag_88:\n        /* \"#utility.yul\":2671:2677   */\n      0x00\n        /* \"#utility.yul\":2720:2722   */\n      0x20\n        /* \"#utility.yul\":2708:2717   */\n      dup3\n        /* \"#utility.yul\":2699:2706   */\n      dup5\n        /* \"#utility.yul\":2695:2718   */\n      sub\n        /* \"#utility.yul\":2691:2723   */\n      slt\n        /* \"#utility.yul\":2688:2807   */\n      iszero\n      tag_521\n      jumpi\n        /* \"#utility.yul\":2726:2805   */\n      tag_522\n      tag_513\n      jump\t// in\n    tag_522:\n        /* \"#utility.yul\":2688:2807   */\n    tag_521:\n        /* \"#utility.yul\":2846:2847   */\n      0x00\n        /* \"#utility.yul\":2871:2921   */\n      tag_523\n        /* \"#utility.yul\":2913:2920   */\n      dup5\n        /* \"#utility.yul\":2904:2910   */\n      dup3\n        /* \"#utility.yul\":2893:2902   */\n      dup6\n        /* \"#utility.yul\":2889:2911   */\n      add\n        /* \"#utility.yul\":2871:2921   */\n      tag_482\n      jump\t// in\n    tag_523:\n        /* \"#utility.yul\":2861:2921   */\n      swap2\n      pop\n        /* \"#utility.yul\":2817:2931   */\n      pop\n        /* \"#utility.yul\":2615:2938   */\n      swap3\n      swap2\n      pop\n      pop\n      jump\t// out\n        /* \"#utility.yul\":2944:3289   */\n    tag_370:\n        /* \"#utility.yul\":3011:3017   */\n      0x00\n        /* \"#utility.yul\":3060:3062   */\n      0x20\n        /* \"#utility.yul\":3048:3057   */\n      dup3\n        /* \"#utility.yul\":3039:3046   */\n      dup5\n        /* \"#utility.yul\":3035:3058   */\n      sub\n        /* \"#utility.yul\":3031:3063   */\n      slt\n        /* \"#utility.yul\":3028:3147   */\n      iszero\n      tag_525\n      jumpi\n        /* \"#utility.yul\":3066:3145   */\n      tag_526\n      tag_513\n      jump\t// in\n    tag_526:\n        /* \"#utility.yul\":3028:3147   */\n    tag_525:\n        /* \"#utility.yul\":3186:3187   */\n      0x00\n        /* \"#utility.yul\":3211:3272   */\n      tag_527\n        /* \"#utility.yul\":3264:3271   */\n      dup5\n        /* \"#utility.yul\":3255:3261   */\n      dup3\n        /* \"#utility.yul\":3244:3253   */\n      dup6\n        /* \"#utility.yul\":3240:3262   */\n      add\n        /* \"#utility.yul\":3211:3272   */\n      tag_486\n      jump\t// in\n    tag_527:\n        /* \"#utility.yul\":3201:3272   */\n      swap2\n      pop\n        /* \"#utility.yul\":3157:3282   */\n      pop\n        /* \"#utility.yul\":2944:3289   */\n      swap3\n      swap2\n      pop\n      pop\n      jump\t// out\n        /* \"#utility.yul\":3295:4234   */\n    tag_126:\n        /* \"#utility.yul\":3388:3394   */\n      0x00\n        /* \"#utility.yul\":3396:3402   */\n      dup1\n        /* \"#utility.yul\":3404:3410   */\n      0x00\n        /* \"#utility.yul\":3412:3418   */\n      dup1\n        /* \"#utility.yul\":3461:3464   */\n      0x80\n        /* \"#utility.yul\":3449:3458   */\n      dup6\n        /* \"#utility.yul\":3440:3447   */\n      dup8\n        /* \"#utility.yul\":3436:3459   */\n      sub\n        /* \"#utility.yul\":3432:3465   */\n      slt\n        /* \"#utility.yul\":3429:3549   */\n      iszero\n      tag_529\n      jumpi\n        /* \"#utility.yul\":3468:3547   */\n      tag_530\n      tag_513\n      jump\t// in\n    tag_530:\n        /* \"#utility.yul\":3429:3549   */\n    tag_529:\n        /* \"#utility.yul\":3616:3617   */\n      0x00\n        /* \"#utility.yul\":3605:3614   */\n      dup6\n        /* \"#utility.yul\":3601:3618   */\n      add\n        /* \"#utility.yul\":3588:3619   */\n      calldataload\n        /* \"#utility.yul\":3646:3664   */\n      0xffffffffffffffff\n        /* \"#utility.yul\":3638:3644   */\n      dup2\n        /* \"#utility.yul\":3635:3665   */\n      gt\n        /* \"#utility.yul\":3632:3749   */\n      iszero\n      tag_531\n      jumpi\n        /* \"#utility.yul\":3668:3747   */\n      tag_532\n      tag_533\n      jump\t// in\n    tag_532:\n        /* \"#utility.yul\":3632:3749   */\n    tag_531:\n        /* \"#utility.yul\":3773:3836   */\n      tag_534\n        /* \"#utility.yul\":3828:3835   */\n      dup8\n        /* \"#utility.yul\":3819:3825   */\n      dup3\n        /* \"#utility.yul\":3808:3817   */\n      dup9\n        /* \"#utility.yul\":3804:3826   */\n      add\n        /* \"#utility.yul\":3773:3836   */\n      tag_493\n      jump\t// in\n    tag_534:\n        /* \"#utility.yul\":3763:3836   */\n      swap5\n      pop\n        /* \"#utility.yul\":3559:3846   */\n      pop\n        /* \"#utility.yul\":3885:3887   */\n      0x20\n        /* \"#utility.yul\":3911:3961   */\n      tag_535\n        /* \"#utility.yul\":3953:3960   */\n      dup8\n        /* \"#utility.yul\":3944:3950   */\n      dup3\n        /* \"#utility.yul\":3933:3942   */\n      dup9\n        /* \"#utility.yul\":3929:3951   */\n      add\n        /* \"#utility.yul\":3911:3961   */\n      tag_482\n      jump\t// in\n    tag_535:\n        /* \"#utility.yul\":3901:3961   */\n      swap4\n      pop\n        /* \"#utility.yul\":3856:3971   */\n      pop\n        /* \"#utility.yul\":4010:4012   */\n      0x40\n        /* \"#utility.yul\":4036:4089   */\n      tag_536\n        /* \"#utility.yul\":4081:4088   */\n      dup8\n        /* \"#utility.yul\":4072:4078   */\n      dup3\n        /* \"#utility.yul\":4061:4070   */\n      dup9\n        /* \"#utility.yul\":4057:4079   */\n      add\n        /* \"#utility.yul\":4036:4089   */\n      tag_499\n      jump\t// in\n    tag_536:\n        /* \"#utility.yul\":4026:4089   */\n      swap3\n      pop\n        /* \"#utility.yul\":3981:4099   */\n      pop\n        /* \"#utility.yul\":4138:4140   */\n      0x60\n        /* \"#utility.yul\":4164:4217   */\n      tag_537\n        /* \"#utility.yul\":4209:4216   */\n      dup8\n        /* \"#utility.yul\":4200:4206   */\n      dup3\n        /* \"#utility.yul\":4189:4198   */\n      dup9\n        /* \"#utility.yul\":4185:4207   */\n      add\n        /* \"#utility.yul\":4164:4217   */\n      tag_499\n      jump\t// in\n    tag_537:\n        /* \"#utility.yul\":4154:4217   */\n      swap2\n      pop\n        /* \"#utility.yul\":4109:4227   */\n      pop\n        /* \"#utility.yul\":3295:4234   */\n      swap3\n      swap6\n      swap2\n      swap5\n      pop\n      swap3\n      pop\n      jump\t// out\n        /* \"#utility.yul\":4240:4569   */\n    tag_46:\n        /* \"#utility.yul\":4299:4305   */\n      0x00\n        /* \"#utility.yul\":4348:4350   */\n      0x20\n        /* \"#utility.yul\":4336:4345   */\n      dup3\n        /* \"#utility.yul\":4327:4334   */\n      dup5\n        /* \"#utility.yul\":4323:4346   */\n      sub\n        /* \"#utility.yul\":4319:4351   */\n      slt\n        /* \"#utility.yul\":4316:4435   */\n      iszero\n      tag_539\n      jumpi\n        /* \"#utility.yul\":4354:4433   */\n      tag_540\n      tag_513\n      jump\t// in\n    tag_540:\n        /* \"#utility.yul\":4316:4435   */\n    tag_539:\n        /* \"#utility.yul\":4474:4475   */\n      0x00\n        /* \"#utility.yul\":4499:4552   */\n      tag_541\n        /* \"#utility.yul\":4544:4551   */\n      dup5\n        /* \"#utility.yul\":4535:4541   */\n      dup3\n        /* \"#utility.yul\":4524:4533   */\n      dup6\n        /* \"#utility.yul\":4520:4542   */\n      add\n        /* \"#utility.yul\":4499:4552   */\n      tag_499\n      jump\t// in\n    tag_541:\n        /* \"#utility.yul\":4489:4552   */\n      swap2\n      pop\n        /* \"#utility.yul\":4445:4562   */\n      pop\n        /* \"#utility.yul\":4240:4569   */\n      swap3\n      swap2\n      pop\n      pop\n      jump\t// out\n        /* \"#utility.yul\":4575:5049   */\n    tag_83:\n        /* \"#utility.yul\":4643:4649   */\n      0x00\n        /* \"#utility.yul\":4651:4657   */\n      dup1\n        /* \"#utility.yul\":4700:4702   */\n      0x40\n        /* \"#utility.yul\":4688:4697   */\n      dup4\n        /* \"#utility.yul\":4679:4686   */\n      dup6\n        /* \"#utility.yul\":4675:4698   */\n      sub\n        /* \"#utility.yul\":4671:4703   */\n      slt\n        /* \"#utility.yul\":4668:4787   */\n      iszero\n      tag_543\n      jumpi\n        /* \"#utility.yul\":4706:4785   */\n      tag_544\n      tag_513\n      jump\t// in\n    tag_544:\n        /* \"#utility.yul\":4668:4787   */\n    tag_543:\n        /* \"#utility.yul\":4826:4827   */\n      0x00\n        /* \"#utility.yul\":4851:4904   */\n      tag_545\n        /* \"#utility.yul\":4896:4903   */\n      dup6\n        /* \"#utility.yul\":4887:4893   */\n      dup3\n        /* \"#utility.yul\":4876:4885   */\n      dup7\n        /* \"#utility.yul\":4872:4894   */\n      add\n        /* \"#utility.yul\":4851:4904   */\n      tag_499\n      jump\t// in\n    tag_545:\n        /* \"#utility.yul\":4841:4904   */\n      swap3\n      pop\n        /* \"#utility.yul\":4797:4914   */\n      pop\n        /* \"#utility.yul\":4953:4955   */\n      0x20\n        /* \"#utility.yul\":4979:5032   */\n      tag_546\n        /* \"#utility.yul\":5024:5031   */\n      dup6\n        /* \"#utility.yul\":5015:5021   */\n      dup3\n        /* \"#utility.yul\":5004:5013   */\n      dup7\n        /* \"#utility.yul\":5000:5022   */\n      add\n        /* \"#utility.yul\":4979:5032   */\n      tag_478\n      jump\t// in\n    tag_546:\n        /* \"#utility.yul\":4969:5032   */\n      swap2\n      pop\n        /* \"#utility.yul\":4924:5042   */\n      pop\n        /* \"#utility.yul\":4575:5049   */\n      swap3\n      pop\n      swap3\n      swap1\n      pop\n      jump\t// out\n        /* \"#utility.yul\":5055:5523   */\n    tag_176:\n        /* \"#utility.yul\":5120:5126   */\n      0x00\n        /* \"#utility.yul\":5128:5134   */\n      dup1\n        /* \"#utility.yul\":5177:5179   */\n      0x40\n        /* \"#utility.yul\":5165:5174   */\n      dup4\n        /* \"#utility.yul\":5156:5163   */\n      dup6\n        /* \"#utility.yul\":5152:5175   */\n      sub\n        /* \"#utility.yul\":5148:5180   */\n      slt\n        /* \"#utility.yul\":5145:5264   */\n      iszero\n      tag_548\n      jumpi\n        /* \"#utility.yul\":5183:5262   */\n      tag_549\n      tag_513\n      jump\t// in\n    tag_549:\n        /* \"#utility.yul\":5145:5264   */\n    tag_548:\n        /* \"#utility.yul\":5303:5304   */\n      0x00\n        /* \"#utility.yul\":5328:5381   */\n      tag_550\n        /* \"#utility.yul\":5373:5380   */\n      dup6\n        /* \"#utility.yul\":5364:5370   */\n      dup3\n        /* \"#utility.yul\":5353:5362   */\n      dup7\n        /* \"#utility.yul\":5349:5371   */\n      add\n        /* \"#utility.yul\":5328:5381   */\n      tag_499\n      jump\t// in\n    tag_550:\n        /* \"#utility.yul\":5318:5381   */\n      swap3\n      pop\n        /* \"#utility.yul\":5274:5391   */\n      pop\n        /* \"#utility.yul\":5430:5432   */\n      0x20\n        /* \"#utility.yul\":5456:5506   */\n      tag_551\n        /* \"#utility.yul\":5498:5505   */\n      dup6\n        /* \"#utility.yul\":5489:5495   */\n      dup3\n        /* \"#utility.yul\":5478:5487   */\n      dup7\n        /* \"#utility.yul\":5474:5496   */\n      add\n        /* \"#utility.yul\":5456:5506   */\n      tag_482\n      jump\t// in\n    tag_551:\n        /* \"#utility.yul\":5446:5506   */\n      swap2\n      pop\n        /* \"#utility.yul\":5401:5516   */\n      pop\n        /* \"#utility.yul\":5055:5523   */\n      swap3\n      pop\n      swap3\n      swap1\n      pop\n      jump\t// out\n        /* \"#utility.yul\":5529:6183   */\n    tag_53:\n        /* \"#utility.yul\":5607:5613   */\n      0x00\n        /* \"#utility.yul\":5615:5621   */\n      dup1\n        /* \"#utility.yul\":5664:5666   */\n      0x40\n        /* \"#utility.yul\":5652:5661   */\n      dup4\n        /* \"#utility.yul\":5643:5650   */\n      dup6\n        /* \"#utility.yul\":5639:5662   */\n      sub\n        /* \"#utility.yul\":5635:5667   */\n      slt\n        /* \"#utility.yul\":5632:5751   */\n      iszero\n      tag_553\n      jumpi\n        /* \"#utility.yul\":5670:5749   */\n      tag_554\n      tag_513\n      jump\t// in\n    tag_554:\n        /* \"#utility.yul\":5632:5751   */\n    tag_553:\n        /* \"#utility.yul\":5790:5791   */\n      0x00\n        /* \"#utility.yul\":5815:5868   */\n      tag_555\n        /* \"#utility.yul\":5860:5867   */\n      dup6\n        /* \"#utility.yul\":5851:5857   */\n      dup3\n        /* \"#utility.yul\":5840:5849   */\n      dup7\n        /* \"#utility.yul\":5836:5858   */\n      add\n        /* \"#utility.yul\":5815:5868   */\n      tag_499\n      jump\t// in\n    tag_555:\n        /* \"#utility.yul\":5805:5868   */\n      swap3\n      pop\n        /* \"#utility.yul\":5761:5878   */\n      pop\n        /* \"#utility.yul\":5945:5947   */\n      0x20\n        /* \"#utility.yul\":5934:5943   */\n      dup4\n        /* \"#utility.yul\":5930:5948   */\n      add\n        /* \"#utility.yul\":5917:5949   */\n      calldataload\n        /* \"#utility.yul\":5976:5994   */\n      0xffffffffffffffff\n        /* \"#utility.yul\":5968:5974   */\n      dup2\n        /* \"#utility.yul\":5965:5995   */\n      gt\n        /* \"#utility.yul\":5962:6079   */\n      iszero\n      tag_556\n      jumpi\n        /* \"#utility.yul\":5998:6077   */\n      tag_557\n      tag_533\n      jump\t// in\n    tag_557:\n        /* \"#utility.yul\":5962:6079   */\n    tag_556:\n        /* \"#utility.yul\":6103:6166   */\n      tag_558\n        /* \"#utility.yul\":6158:6165   */\n      dup6\n        /* \"#utility.yul\":6149:6155   */\n      dup3\n        /* \"#utility.yul\":6138:6147   */\n      dup7\n        /* \"#utility.yul\":6134:6156   */\n      add\n        /* \"#utility.yul\":6103:6166   */\n      tag_493\n      jump\t// in\n    tag_558:\n        /* \"#utility.yul\":6093:6166   */\n      swap2\n      pop\n        /* \"#utility.yul\":5888:6176   */\n      pop\n        /* \"#utility.yul\":5529:6183   */\n      swap3\n      pop\n      swap3\n      swap1\n      pop\n      jump\t// out\n        /* \"#utility.yul\":6189:6663   */\n    tag_166:\n        /* \"#utility.yul\":6257:6263   */\n      0x00\n        /* \"#utility.yul\":6265:6271   */\n      dup1\n        /* \"#utility.yul\":6314:6316   */\n      0x40\n        /* \"#utility.yul\":6302:6311   */\n      dup4\n        /* \"#utility.yul\":6293:6300   */\n      dup6\n        /* \"#utility.yul\":6289:6312   */\n      sub\n        /* \"#utility.yul\":6285:6317   */\n      slt\n        /* \"#utility.yul\":6282:6401   */\n      iszero\n      tag_560\n      jumpi\n        /* \"#utility.yul\":6320:6399   */\n      tag_561\n      tag_513\n      jump\t// in\n    tag_561:\n        /* \"#utility.yul\":6282:6401   */\n    tag_560:\n        /* \"#utility.yul\":6440:6441   */\n      0x00\n        /* \"#utility.yul\":6465:6518   */\n      tag_562\n        /* \"#utility.yul\":6510:6517   */\n      dup6\n        /* \"#utility.yul\":6501:6507   */\n      dup3\n        /* \"#utility.yul\":6490:6499   */\n      dup7\n        /* \"#utility.yul\":6486:6508   */\n      add\n        /* \"#utility.yul\":6465:6518   */\n      tag_499\n      jump\t// in\n    tag_562:\n        /* \"#utility.yul\":6455:6518   */\n      swap3\n      pop\n        /* \"#utility.yul\":6411:6528   */\n      pop\n        /* \"#utility.yul\":6567:6569   */\n      0x20\n        /* \"#utility.yul\":6593:6646   */\n      tag_563\n        /* \"#utility.yul\":6638:6645   */\n      dup6\n        /* \"#utility.yul\":6629:6635   */\n      dup3\n        /* \"#utility.yul\":6618:6627   */\n      dup7\n        /* \"#utility.yul\":6614:6636   */\n      add\n        /* \"#utility.yul\":6593:6646   */\n      tag_499\n      jump\t// in\n    tag_563:\n        /* \"#utility.yul\":6583:6646   */\n      swap2\n      pop\n        /* \"#utility.yul\":6538:6656   */\n      pop\n        /* \"#utility.yul\":6189:6663   */\n      swap3\n      pop\n      swap3\n      swap1\n      pop\n      jump\t// out\n        /* \"#utility.yul\":6669:7640   */\n    tag_304:\n        /* \"#utility.yul\":6772:6778   */\n      0x00\n        /* \"#utility.yul\":6780:6786   */\n      dup1\n        /* \"#utility.yul\":6788:6794   */\n      0x00\n        /* \"#utility.yul\":6796:6802   */\n      dup1\n        /* \"#utility.yul\":6804:6810   */\n      0x00\n        /* \"#utility.yul\":6853:6856   */\n      0xa0\n        /* \"#utility.yul\":6841:6850   */\n      dup7\n        /* \"#utility.yul\":6832:6839   */\n      dup9\n        /* \"#utility.yul\":6828:6851   */\n      sub\n        /* \"#utility.yul\":6824:6857   */\n      slt\n        /* \"#utility.yul\":6821:6941   */\n      iszero\n      tag_565\n      jumpi\n        /* \"#utility.yul\":6860:6939   */\n      tag_566\n      tag_513\n      jump\t// in\n    tag_566:\n        /* \"#utility.yul\":6821:6941   */\n    tag_565:\n        /* \"#utility.yul\":6980:6981   */\n      0x00\n        /* \"#utility.yul\":7005:7068   */\n      tag_567\n        /* \"#utility.yul\":7060:7067   */\n      dup9\n        /* \"#utility.yul\":7051:7057   */\n      dup3\n        /* \"#utility.yul\":7040:7049   */\n      dup10\n        /* \"#utility.yul\":7036:7058   */\n      add\n        /* \"#utility.yul\":7005:7068   */\n      tag_506\n      jump\t// in\n    tag_567:\n        /* \"#utility.yul\":6995:7068   */\n      swap6\n      pop\n        /* \"#utility.yul\":6951:7078   */\n      pop\n        /* \"#utility.yul\":7117:7119   */\n      0x20\n        /* \"#utility.yul\":7143:7206   */\n      tag_568\n        /* \"#utility.yul\":7198:7205   */\n      dup9\n        /* \"#utility.yul\":7189:7195   */\n      dup3\n        /* \"#utility.yul\":7178:7187   */\n      dup10\n        /* \"#utility.yul\":7174:7196   */\n      add\n        /* \"#utility.yul\":7143:7206   */\n      tag_489\n      jump\t// in\n    tag_568:\n        /* \"#utility.yul\":7133:7206   */\n      swap5\n      pop\n        /* \"#utility.yul\":7088:7216   */\n      pop\n        /* \"#utility.yul\":7255:7257   */\n      0x40\n        /* \"#utility.yul\":7281:7345   */\n      tag_569\n        /* \"#utility.yul\":7337:7344   */\n      dup9\n        /* \"#utility.yul\":7328:7334   */\n      dup3\n        /* \"#utility.yul\":7317:7326   */\n      dup10\n        /* \"#utility.yul\":7313:7335   */\n      add\n        /* \"#utility.yul\":7281:7345   */\n      tag_503\n      jump\t// in\n    tag_569:\n        /* \"#utility.yul\":7271:7345   */\n      swap4\n      pop\n        /* \"#utility.yul\":7226:7355   */\n      pop\n        /* \"#utility.yul\":7394:7396   */\n      0x60\n        /* \"#utility.yul\":7420:7484   */\n      tag_570\n        /* \"#utility.yul\":7476:7483   */\n      dup9\n        /* \"#utility.yul\":7467:7473   */\n      dup3\n        /* \"#utility.yul\":7456:7465   */\n      dup10\n        /* \"#utility.yul\":7452:7474   */\n      add\n        /* \"#utility.yul\":7420:7484   */\n      tag_503\n      jump\t// in\n    tag_570:\n        /* \"#utility.yul\":7410:7484   */\n      swap3\n      pop\n        /* \"#utility.yul\":7365:7494   */\n      pop\n        /* \"#utility.yul\":7533:7536   */\n      0x80\n        /* \"#utility.yul\":7560:7623   */\n      tag_571\n        /* \"#utility.yul\":7615:7622   */\n      dup9\n        /* \"#utility.yul\":7606:7612   */\n      dup3\n        /* \"#utility.yul\":7595:7604   */\n      dup10\n        /* \"#utility.yul\":7591:7613   */\n      add\n        /* \"#utility.yul\":7560:7623   */\n      tag_506\n      jump\t// in\n    tag_571:\n        /* \"#utility.yul\":7550:7623   */\n      swap2\n      pop\n        /* \"#utility.yul\":7504:7633   */\n      pop\n        /* \"#utility.yul\":6669:7640   */\n      swap3\n      swap6\n      pop\n      swap3\n      swap6\n      swap1\n      swap4\n      pop\n      jump\t// out\n        /* \"#utility.yul\":7646:7764   */\n    tag_572:\n        /* \"#utility.yul\":7733:7757   */\n      tag_574\n        /* \"#utility.yul\":7751:7756   */\n      dup2\n        /* \"#utility.yul\":7733:7757   */\n      tag_575\n      jump\t// in\n    tag_574:\n        /* \"#utility.yul\":7728:7731   */\n      dup3\n        /* \"#utility.yul\":7721:7758   */\n      mstore\n        /* \"#utility.yul\":7646:7764   */\n      pop\n      pop\n      jump\t// out\n        /* \"#utility.yul\":7770:7879   */\n    tag_576:\n        /* \"#utility.yul\":7851:7872   */\n      tag_578\n        /* \"#utility.yul\":7866:7871   */\n      dup2\n        /* \"#utility.yul\":7851:7872   */\n      tag_579\n      jump\t// in\n    tag_578:\n        /* \"#utility.yul\":7846:7849   */\n      dup3\n        /* \"#utility.yul\":7839:7873   */\n      mstore\n        /* \"#utility.yul\":7770:7879   */\n      pop\n      pop\n      jump\t// out\n        /* \"#utility.yul\":7885:8000   */\n    tag_580:\n        /* \"#utility.yul\":7970:7993   */\n      tag_582\n        /* \"#utility.yul\":7987:7992   */\n      dup2\n        /* \"#utility.yul\":7970:7993   */\n      tag_583\n      jump\t// in\n    tag_582:\n        /* \"#utility.yul\":7965:7968   */\n      dup3\n        /* \"#utility.yul\":7958:7994   */\n      mstore\n        /* \"#utility.yul\":7885:8000   */\n      pop\n      pop\n      jump\t// out\n        /* \"#utility.yul\":8006:8370   */\n    tag_584:\n        /* \"#utility.yul\":8094:8097   */\n      0x00\n        /* \"#utility.yul\":8122:8161   */\n      tag_586\n        /* \"#utility.yul\":8155:8160   */\n      dup3\n        /* \"#utility.yul\":8122:8161   */\n      tag_587\n      jump\t// in\n    tag_586:\n        /* \"#utility.yul\":8177:8248   */\n      tag_588\n        /* \"#utility.yul\":8241:8247   */\n      dup2\n        /* \"#utility.yul\":8236:8239   */\n      dup6\n        /* \"#utility.yul\":8177:8248   */\n      tag_589\n      jump\t// in\n    tag_588:\n        /* \"#utility.yul\":8170:8248   */\n      swap4\n      pop\n        /* \"#utility.yul\":8257:8309   */\n      tag_590\n        /* \"#utility.yul\":8302:8308   */\n      dup2\n        /* \"#utility.yul\":8297:8300   */\n      dup6\n        /* \"#utility.yul\":8290:8294   */\n      0x20\n        /* \"#utility.yul\":8283:8288   */\n      dup7\n        /* \"#utility.yul\":8279:8295   */\n      add\n        /* \"#utility.yul\":8257:8309   */\n      tag_591\n      jump\t// in\n    tag_590:\n        /* \"#utility.yul\":8334:8363   */\n      tag_592\n        /* \"#utility.yul\":8356:8362   */\n      dup2\n        /* \"#utility.yul\":8334:8363   */\n      tag_593\n      jump\t// in\n    tag_592:\n        /* \"#utility.yul\":8329:8332   */\n      dup5\n        /* \"#utility.yul\":8325:8364   */\n      add\n        /* \"#utility.yul\":8318:8364   */\n      swap2\n      pop\n        /* \"#utility.yul\":8098:8370   */\n      pop\n        /* \"#utility.yul\":8006:8370   */\n      swap3\n      swap2\n      pop\n      pop\n      jump\t// out\n        /* \"#utility.yul\":8376:8742   */\n    tag_594:\n        /* \"#utility.yul\":8518:8521   */\n      0x00\n        /* \"#utility.yul\":8539:8606   */\n      tag_596\n        /* \"#utility.yul\":8603:8605   */\n      0x23\n        /* \"#utility.yul\":8598:8601   */\n      dup4\n        /* \"#utility.yul\":8539:8606   */\n      tag_589\n      jump\t// in\n    tag_596:\n        /* \"#utility.yul\":8532:8606   */\n      swap2\n      pop\n        /* \"#utility.yul\":8615:8708   */\n      tag_597\n        /* \"#utility.yul\":8704:8707   */\n      dup3\n        /* \"#utility.yul\":8615:8708   */\n      tag_598\n      jump\t// in\n    tag_597:\n        /* \"#utility.yul\":8733:8735   */\n      0x40\n        /* \"#utility.yul\":8728:8731   */\n      dup3\n        /* \"#utility.yul\":8724:8736   */\n      add\n        /* \"#utility.yul\":8717:8736   */\n      swap1\n      pop\n        /* \"#utility.yul\":8376:8742   */\n      swap2\n      swap1\n      pop\n      jump\t// out\n        /* \"#utility.yul\":8748:9114   */\n    tag_599:\n        /* \"#utility.yul\":8890:8893   */\n      0x00\n        /* \"#utility.yul\":8911:8978   */\n      tag_601\n        /* \"#utility.yul\":8975:8977   */\n      0x14\n        /* \"#utility.yul\":8970:8973   */\n      dup4\n        /* \"#utility.yul\":8911:8978   */\n      tag_589\n      jump\t// in\n    tag_601:\n        /* \"#utility.yul\":8904:8978   */\n      swap2\n      pop\n        /* \"#utility.yul\":8987:9080   */\n      tag_602\n        /* \"#utility.yul\":9076:9079   */\n      dup3\n        /* \"#utility.yul\":8987:9080   */\n      tag_603\n      jump\t// in\n    tag_602:\n        /* \"#utility.yul\":9105:9107   */\n      0x20\n        /* \"#utility.yul\":9100:9103   */\n      dup3\n        /* \"#utility.yul\":9096:9108   */\n      add\n        /* \"#utility.yul\":9089:9108   */\n      swap1\n      pop\n        /* \"#utility.yul\":8748:9114   */\n      swap2\n      swap1\n      pop\n      jump\t// out\n        /* \"#utility.yul\":9120:9486   */\n    tag_604:\n        /* \"#utility.yul\":9262:9265   */\n      0x00\n        /* \"#utility.yul\":9283:9350   */\n      tag_606\n        /* \"#utility.yul\":9347:9349   */\n      0x2a\n        /* \"#utility.yul\":9342:9345   */\n      dup4\n        /* \"#utility.yul\":9283:9350   */\n      tag_589\n      jump\t// in\n    tag_606:\n        /* \"#utility.yul\":9276:9350   */\n      swap2\n      pop\n        /* \"#utility.yul\":9359:9452   */\n      tag_607\n        /* \"#utility.yul\":9448:9451   */\n      dup3\n        /* \"#utility.yul\":9359:9452   */\n      tag_608\n      jump\t// in\n    tag_607:\n        /* \"#utility.yul\":9477:9479   */\n      0x40\n        /* \"#utility.yul\":9472:9475   */\n      dup3\n        /* \"#utility.yul\":9468:9480   */\n      add\n        /* \"#utility.yul\":9461:9480   */\n      swap1\n      pop\n        /* \"#utility.yul\":9120:9486   */\n      swap2\n      swap1\n      pop\n      jump\t// out\n        /* \"#utility.yul\":9492:9858   */\n    tag_609:\n        /* \"#utility.yul\":9634:9637   */\n      0x00\n        /* \"#utility.yul\":9655:9722   */\n      tag_611\n        /* \"#utility.yul\":9719:9721   */\n      0x25\n        /* \"#utility.yul\":9714:9717   */\n      dup4\n        /* \"#utility.yul\":9655:9722   */\n      tag_589\n      jump\t// in\n    tag_611:\n        /* \"#utility.yul\":9648:9722   */\n      swap2\n      pop\n        /* \"#utility.yul\":9731:9824   */\n      tag_612\n        /* \"#utility.yul\":9820:9823   */\n      dup3\n        /* \"#utility.yul\":9731:9824   */\n      tag_613\n      jump\t// in\n    tag_612:\n        /* \"#utility.yul\":9849:9851   */\n      0x40\n        /* \"#utility.yul\":9844:9847   */\n      dup3\n        /* \"#utility.yul\":9840:9852   */\n      add\n        /* \"#utility.yul\":9833:9852   */\n      swap1\n      pop\n        /* \"#utility.yul\":9492:9858   */\n      swap2\n      swap1\n      pop\n      jump\t// out\n        /* \"#utility.yul\":9864:10230   */\n    tag_614:\n        /* \"#utility.yul\":10006:10009   */\n      0x00\n        /* \"#utility.yul\":10027:10094   */\n      tag_616\n        /* \"#utility.yul\":10091:10093   */\n      0x16\n        /* \"#utility.yul\":10086:10089   */\n      dup4\n        /* \"#utility.yul\":10027:10094   */\n      tag_589\n      jump\t// in\n    tag_616:\n        /* \"#utility.yul\":10020:10094   */\n      swap2\n      pop\n        /* \"#utility.yul\":10103:10196   */\n      tag_617\n        /* \"#utility.yul\":10192:10195   */\n      dup3\n        /* \"#utility.yul\":10103:10196   */\n      tag_618\n      jump\t// in\n    tag_617:\n        /* \"#utility.yul\":10221:10223   */\n      0x20\n        /* \"#utility.yul\":10216:10219   */\n      dup3\n        /* \"#utility.yul\":10212:10224   */\n      add\n        /* \"#utility.yul\":10205:10224   */\n      swap1\n      pop\n        /* \"#utility.yul\":9864:10230   */\n      swap2\n      swap1\n      pop\n      jump\t// out\n        /* \"#utility.yul\":10236:10602   */\n    tag_619:\n        /* \"#utility.yul\":10378:10381   */\n      0x00\n        /* \"#utility.yul\":10399:10466   */\n      tag_621\n        /* \"#utility.yul\":10463:10465   */\n      0x12\n        /* \"#utility.yul\":10458:10461   */\n      dup4\n        /* \"#utility.yul\":10399:10466   */\n      tag_589\n      jump\t// in\n    tag_621:\n        /* \"#utility.yul\":10392:10466   */\n      swap2\n      pop\n        /* \"#utility.yul\":10475:10568   */\n      tag_622\n        /* \"#utility.yul\":10564:10567   */\n      dup3\n        /* \"#utility.yul\":10475:10568   */\n      tag_623\n      jump\t// in\n    tag_622:\n        /* \"#utility.yul\":10593:10595   */\n      0x20\n        /* \"#utility.yul\":10588:10591   */\n      dup3\n        /* \"#utility.yul\":10584:10596   */\n      add\n        /* \"#utility.yul\":10577:10596   */\n      swap1\n      pop\n        /* \"#utility.yul\":10236:10602   */\n      swap2\n      swap1\n      pop\n      jump\t// out\n        /* \"#utility.yul\":10608:10974   */\n    tag_624:\n        /* \"#utility.yul\":10750:10753   */\n      0x00\n        /* \"#utility.yul\":10771:10838   */\n      tag_626\n        /* \"#utility.yul\":10835:10837   */\n      0x18\n        /* \"#utility.yul\":10830:10833   */\n      dup4\n        /* \"#utility.yul\":10771:10838   */\n      tag_589\n      jump\t// in\n    tag_626:\n        /* \"#utility.yul\":10764:10838   */\n      swap2\n      pop\n        /* \"#utility.yul\":10847:10940   */\n      tag_627\n        /* \"#utility.yul\":10936:10939   */\n      dup3\n        /* \"#utility.yul\":10847:10940   */\n      tag_628\n      jump\t// in\n    tag_627:\n        /* \"#utility.yul\":10965:10967   */\n      0x20\n        /* \"#utility.yul\":10960:10963   */\n      dup3\n        /* \"#utility.yul\":10956:10968   */\n      add\n        /* \"#utility.yul\":10949:10968   */\n      swap1\n      pop\n        /* \"#utility.yul\":10608:10974   */\n      swap2\n      swap1\n      pop\n      jump\t// out\n        /* \"#utility.yul\":10980:11346   */\n    tag_629:\n        /* \"#utility.yul\":11122:11125   */\n      0x00\n        /* \"#utility.yul\":11143:11210   */\n      tag_631\n        /* \"#utility.yul\":11207:11209   */\n      0x25\n        /* \"#utility.yul\":11202:11205   */\n      dup4\n        /* \"#utility.yul\":11143:11210   */\n      tag_589\n      jump\t// in\n    tag_631:\n        /* \"#utility.yul\":11136:11210   */\n      swap2\n      pop\n        /* \"#utility.yul\":11219:11312   */\n      tag_632\n        /* \"#utility.yul\":11308:11311   */\n      dup3\n        /* \"#utility.yul\":11219:11312   */\n      tag_633\n      jump\t// in\n    tag_632:\n        /* \"#utility.yul\":11337:11339   */\n      0x40\n        /* \"#utility.yul\":11332:11335   */\n      dup3\n        /* \"#utility.yul\":11328:11340   */\n      add\n        /* \"#utility.yul\":11321:11340   */\n      swap1\n      pop\n        /* \"#utility.yul\":10980:11346   */\n      swap2\n      swap1\n      pop\n      jump\t// out\n        /* \"#utility.yul\":11352:11718   */\n    tag_634:\n        /* \"#utility.yul\":11494:11497   */\n      0x00\n        /* \"#utility.yul\":11515:11582   */\n      tag_636\n        /* \"#utility.yul\":11579:11581   */\n      0x0d\n        /* \"#utility.yul\":11574:11577   */\n      dup4\n        /* \"#utility.yul\":11515:11582   */\n      tag_589\n      jump\t// in\n    tag_636:\n        /* \"#utility.yul\":11508:11582   */\n      swap2\n      pop\n        /* \"#utility.yul\":11591:11684   */\n      tag_637\n        /* \"#utility.yul\":11680:11683   */\n      dup3\n        /* \"#utility.yul\":11591:11684   */\n      tag_638\n      jump\t// in\n    tag_637:\n        /* \"#utility.yul\":11709:11711   */\n      0x20\n        /* \"#utility.yul\":11704:11707   */\n      dup3\n        /* \"#utility.yul\":11700:11712   */\n      add\n        /* \"#utility.yul\":11693:11712   */\n      swap1\n      pop\n        /* \"#utility.yul\":11352:11718   */\n      swap2\n      swap1\n      pop\n      jump\t// out\n        /* \"#utility.yul\":11724:12122   */\n    tag_639:\n        /* \"#utility.yul\":11883:11886   */\n      0x00\n        /* \"#utility.yul\":11904:11987   */\n      tag_641\n        /* \"#utility.yul\":11985:11986   */\n      0x00\n        /* \"#utility.yul\":11980:11983   */\n      dup4\n        /* \"#utility.yul\":11904:11987   */\n      tag_642\n      jump\t// in\n    tag_641:\n        /* \"#utility.yul\":11897:11987   */\n      swap2\n      pop\n        /* \"#utility.yul\":11996:12089   */\n      tag_643\n        /* \"#utility.yul\":12085:12088   */\n      dup3\n        /* \"#utility.yul\":11996:12089   */\n      tag_644\n      jump\t// in\n    tag_643:\n        /* \"#utility.yul\":12114:12115   */\n      0x00\n        /* \"#utility.yul\":12109:12112   */\n      dup3\n        /* \"#utility.yul\":12105:12116   */\n      add\n        /* \"#utility.yul\":12098:12116   */\n      swap1\n      pop\n        /* \"#utility.yul\":11724:12122   */\n      swap2\n      swap1\n      pop\n      jump\t// out\n        /* \"#utility.yul\":12128:12494   */\n    tag_645:\n        /* \"#utility.yul\":12270:12273   */\n      0x00\n        /* \"#utility.yul\":12291:12358   */\n      tag_647\n        /* \"#utility.yul\":12355:12357   */\n      0x2f\n        /* \"#utility.yul\":12350:12353   */\n      dup4\n        /* \"#utility.yul\":12291:12358   */\n      tag_589\n      jump\t// in\n    tag_647:\n        /* \"#utility.yul\":12284:12358   */\n      swap2\n      pop\n        /* \"#utility.yul\":12367:12460   */\n      tag_648\n        /* \"#utility.yul\":12456:12459   */\n      dup3\n        /* \"#utility.yul\":12367:12460   */\n      tag_649\n      jump\t// in\n    tag_648:\n        /* \"#utility.yul\":12485:12487   */\n      0x40\n        /* \"#utility.yul\":12480:12483   */\n      dup3\n        /* \"#utility.yul\":12476:12488   */\n      add\n        /* \"#utility.yul\":12469:12488   */\n      swap1\n      pop\n        /* \"#utility.yul\":12128:12494   */\n      swap2\n      swap1\n      pop\n      jump\t// out\n        /* \"#utility.yul\":12500:12866   */\n    tag_650:\n        /* \"#utility.yul\":12642:12645   */\n      0x00\n        /* \"#utility.yul\":12663:12730   */\n      tag_652\n        /* \"#utility.yul\":12727:12729   */\n      0x12\n        /* \"#utility.yul\":12722:12725   */\n      dup4\n        /* \"#utility.yul\":12663:12730   */\n      tag_589\n      jump\t// in\n    tag_652:\n        /* \"#utility.yul\":12656:12730   */\n      swap2\n      pop\n        /* \"#utility.yul\":12739:12832   */\n      tag_653\n        /* \"#utility.yul\":12828:12831   */\n      dup3\n        /* \"#utility.yul\":12739:12832   */\n      tag_654\n      jump\t// in\n    tag_653:\n        /* \"#utility.yul\":12857:12859   */\n      0x20\n        /* \"#utility.yul\":12852:12855   */\n      dup3\n        /* \"#utility.yul\":12848:12860   */\n      add\n        /* \"#utility.yul\":12841:12860   */\n      swap1\n      pop\n        /* \"#utility.yul\":12500:12866   */\n      swap2\n      swap1\n      pop\n      jump\t// out\n        /* \"#utility.yul\":12872:13238   */\n    tag_655:\n        /* \"#utility.yul\":13014:13017   */\n      0x00\n        /* \"#utility.yul\":13035:13102   */\n      tag_657\n        /* \"#utility.yul\":13099:13101   */\n      0x20\n        /* \"#utility.yul\":13094:13097   */\n      dup4\n        /* \"#utility.yul\":13035:13102   */\n      tag_589\n      jump\t// in\n    tag_657:\n        /* \"#utility.yul\":13028:13102   */\n      swap2\n      pop\n        /* \"#utility.yul\":13111:13204   */\n      tag_658\n        /* \"#utility.yul\":13200:13203   */\n      dup3\n        /* \"#utility.yul\":13111:13204   */\n      tag_659\n      jump\t// in\n    tag_658:\n        /* \"#utility.yul\":13229:13231   */\n      0x20\n        /* \"#utility.yul\":13224:13227   */\n      dup3\n        /* \"#utility.yul\":13220:13232   */\n      add\n        /* \"#utility.yul\":13213:13232   */\n      swap1\n      pop\n        /* \"#utility.yul\":12872:13238   */\n      swap2\n      swap1\n      pop\n      jump\t// out\n        /* \"#utility.yul\":13244:13610   */\n    tag_660:\n        /* \"#utility.yul\":13386:13389   */\n      0x00\n        /* \"#utility.yul\":13407:13474   */\n      tag_662\n        /* \"#utility.yul\":13471:13473   */\n      0x26\n        /* \"#utility.yul\":13466:13469   */\n      dup4\n        /* \"#utility.yul\":13407:13474   */\n      tag_589\n      jump\t// in\n    tag_662:\n        /* \"#utility.yul\":13400:13474   */\n      swap2\n      pop\n        /* \"#utility.yul\":13483:13576   */\n      tag_663\n        /* \"#utility.yul\":13572:13575   */\n      dup3\n        /* \"#utility.yul\":13483:13576   */\n      tag_664\n      jump\t// in\n    tag_663:\n        /* \"#utility.yul\":13601:13603   */\n      0x40\n        /* \"#utility.yul\":13596:13599   */\n      dup3\n        /* \"#utility.yul\":13592:13604   */\n      add\n        /* \"#utility.yul\":13585:13604   */\n      swap1\n      pop\n        /* \"#utility.yul\":13244:13610   */\n      swap2\n      swap1\n      pop\n      jump\t// out\n        /* \"#utility.yul\":13616:13982   */\n    tag_665:\n        /* \"#utility.yul\":13758:13761   */\n      0x00\n        /* \"#utility.yul\":13779:13846   */\n      tag_667\n        /* \"#utility.yul\":13843:13845   */\n      0x17\n        /* \"#utility.yul\":13838:13841   */\n      dup4\n        /* \"#utility.yul\":13779:13846   */\n      tag_589\n      jump\t// in\n    tag_667:\n        /* \"#utility.yul\":13772:13846   */\n      swap2\n      pop\n        /* \"#utility.yul\":13855:13948   */\n      tag_668\n        /* \"#utility.yul\":13944:13947   */\n      dup3\n        /* \"#utility.yul\":13855:13948   */\n      tag_669\n      jump\t// in\n    tag_668:\n        /* \"#utility.yul\":13973:13975   */\n      0x20\n        /* \"#utility.yul\":13968:13971   */\n      dup3\n        /* \"#utility.yul\":13964:13976   */\n      add\n        /* \"#utility.yul\":13957:13976   */\n      swap1\n      pop\n        /* \"#utility.yul\":13616:13982   */\n      swap2\n      swap1\n      pop\n      jump\t// out\n        /* \"#utility.yul\":13988:14354   */\n    tag_670:\n        /* \"#utility.yul\":14130:14133   */\n      0x00\n        /* \"#utility.yul\":14151:14218   */\n      tag_672\n        /* \"#utility.yul\":14215:14217   */\n      0x1f\n        /* \"#utility.yul\":14210:14213   */\n      dup4\n        /* \"#utility.yul\":14151:14218   */\n      tag_589\n      jump\t// in\n    tag_672:\n        /* \"#utility.yul\":14144:14218   */\n      swap2\n      pop\n        /* \"#utility.yul\":14227:14320   */\n      tag_673\n        /* \"#utility.yul\":14316:14319   */\n      dup3\n        /* \"#utility.yul\":14227:14320   */\n      tag_674\n      jump\t// in\n    tag_673:\n        /* \"#utility.yul\":14345:14347   */\n      0x20\n        /* \"#utility.yul\":14340:14343   */\n      dup3\n        /* \"#utility.yul\":14336:14348   */\n      add\n        /* \"#utility.yul\":14329:14348   */\n      swap1\n      pop\n        /* \"#utility.yul\":13988:14354   */\n      swap2\n      swap1\n      pop\n      jump\t// out\n        /* \"#utility.yul\":14360:14726   */\n    tag_675:\n        /* \"#utility.yul\":14502:14505   */\n      0x00\n        /* \"#utility.yul\":14523:14590   */\n      tag_677\n        /* \"#utility.yul\":14587:14589   */\n      0x1e\n        /* \"#utility.yul\":14582:14585   */\n      dup4\n        /* \"#utility.yul\":14523:14590   */\n      tag_589\n      jump\t// in\n    tag_677:\n        /* \"#utility.yul\":14516:14590   */\n      swap2\n      pop\n        /* \"#utility.yul\":14599:14692   */\n      tag_678\n        /* \"#utility.yul\":14688:14691   */\n      dup3\n        /* \"#utility.yul\":14599:14692   */\n      tag_679\n      jump\t// in\n    tag_678:\n        /* \"#utility.yul\":14717:14719   */\n      0x20\n        /* \"#utility.yul\":14712:14715   */\n      dup3\n        /* \"#utility.yul\":14708:14720   */\n      add\n        /* \"#utility.yul\":14701:14720   */\n      swap1\n      pop\n        /* \"#utility.yul\":14360:14726   */\n      swap2\n      swap1\n      pop\n      jump\t// out\n        /* \"#utility.yul\":14732:14850   */\n    tag_680:\n        /* \"#utility.yul\":14819:14843   */\n      tag_682\n        /* \"#utility.yul\":14837:14842   */\n      dup2\n        /* \"#utility.yul\":14819:14843   */\n      tag_683\n      jump\t// in\n    tag_682:\n        /* \"#utility.yul\":14814:14817   */\n      dup3\n        /* \"#utility.yul\":14807:14844   */\n      mstore\n        /* \"#utility.yul\":14732:14850   */\n      pop\n      pop\n      jump\t// out\n        /* \"#utility.yul\":14856:14968   */\n    tag_684:\n        /* \"#utility.yul\":14939:14961   */\n      tag_686\n        /* \"#utility.yul\":14955:14960   */\n      dup2\n        /* \"#utility.yul\":14939:14961   */\n      tag_687\n      jump\t// in\n    tag_686:\n        /* \"#utility.yul\":14934:14937   */\n      dup3\n        /* \"#utility.yul\":14927:14962   */\n      mstore\n        /* \"#utility.yul\":14856:14968   */\n      pop\n      pop\n      jump\t// out\n        /* \"#utility.yul\":14974:15353   */\n    tag_256:\n        /* \"#utility.yul\":15158:15161   */\n      0x00\n        /* \"#utility.yul\":15180:15327   */\n      tag_689\n        /* \"#utility.yul\":15323:15326   */\n      dup3\n        /* \"#utility.yul\":15180:15327   */\n      tag_639\n      jump\t// in\n    tag_689:\n        /* \"#utility.yul\":15173:15327   */\n      swap2\n      pop\n        /* \"#utility.yul\":15344:15347   */\n      dup2\n        /* \"#utility.yul\":15337:15347   */\n      swap1\n      pop\n        /* \"#utility.yul\":14974:15353   */\n      swap2\n      swap1\n      pop\n      jump\t// out\n        /* \"#utility.yul\":15359:15581   */\n    tag_71:\n        /* \"#utility.yul\":15452:15456   */\n      0x00\n        /* \"#utility.yul\":15490:15492   */\n      0x20\n        /* \"#utility.yul\":15479:15488   */\n      dup3\n        /* \"#utility.yul\":15475:15493   */\n      add\n        /* \"#utility.yul\":15467:15493   */\n      swap1\n      pop\n        /* \"#utility.yul\":15503:15574   */\n      tag_691\n        /* \"#utility.yul\":15571:15572   */\n      0x00\n        /* \"#utility.yul\":15560:15569   */\n      dup4\n        /* \"#utility.yul\":15556:15573   */\n      add\n        /* \"#utility.yul\":15547:15553   */\n      dup5\n        /* \"#utility.yul\":15503:15574   */\n      tag_572\n      jump\t// in\n    tag_691:\n        /* \"#utility.yul\":15359:15581   */\n      swap3\n      swap2\n      pop\n      pop\n      jump\t// out\n        /* \"#utility.yul\":15587:15919   */\n    tag_365:\n        /* \"#utility.yul\":15708:15712   */\n      0x00\n        /* \"#utility.yul\":15746:15748   */\n      0x40\n        /* \"#utility.yul\":15735:15744   */\n      dup3\n        /* \"#utility.yul\":15731:15749   */\n      add\n        /* \"#utility.yul\":15723:15749   */\n      swap1\n      pop\n        /* \"#utility.yul\":15759:15830   */\n      tag_693\n        /* \"#utility.yul\":15827:15828   */\n      0x00\n        /* \"#utility.yul\":15816:15825   */\n      dup4\n        /* \"#utility.yul\":15812:15829   */\n      add\n        /* \"#utility.yul\":15803:15809   */\n      dup6\n        /* \"#utility.yul\":15759:15830   */\n      tag_572\n      jump\t// in\n    tag_693:\n        /* \"#utility.yul\":15840:15912   */\n      tag_694\n        /* \"#utility.yul\":15908:15910   */\n      0x20\n        /* \"#utility.yul\":15897:15906   */\n      dup4\n        /* \"#utility.yul\":15893:15911   */\n      add\n        /* \"#utility.yul\":15884:15890   */\n      dup5\n        /* \"#utility.yul\":15840:15912   */\n      tag_680\n      jump\t// in\n    tag_694:\n        /* \"#utility.yul\":15587:15919   */\n      swap4\n      swap3\n      pop\n      pop\n      pop\n      jump\t// out\n        /* \"#utility.yul\":15925:16135   */\n    tag_96:\n        /* \"#utility.yul\":16012:16016   */\n      0x00\n        /* \"#utility.yul\":16050:16052   */\n      0x20\n        /* \"#utility.yul\":16039:16048   */\n      dup3\n        /* \"#utility.yul\":16035:16053   */\n      add\n        /* \"#utility.yul\":16027:16053   */\n      swap1\n      pop\n        /* \"#utility.yul\":16063:16128   */\n      tag_696\n        /* \"#utility.yul\":16125:16126   */\n      0x00\n        /* \"#utility.yul\":16114:16123   */\n      dup4\n        /* \"#utility.yul\":16110:16127   */\n      add\n        /* \"#utility.yul\":16101:16107   */\n      dup5\n        /* \"#utility.yul\":16063:16128   */\n      tag_576\n      jump\t// in\n    tag_696:\n        /* \"#utility.yul\":15925:16135   */\n      swap3\n      swap2\n      pop\n      pop\n      jump\t// out\n        /* \"#utility.yul\":16141:16359   */\n    tag_154:\n        /* \"#utility.yul\":16232:16236   */\n      0x00\n        /* \"#utility.yul\":16270:16272   */\n      0x20\n        /* \"#utility.yul\":16259:16268   */\n      dup3\n        /* \"#utility.yul\":16255:16273   */\n      add\n        /* \"#utility.yul\":16247:16273   */\n      swap1\n      pop\n        /* \"#utility.yul\":16283:16352   */\n      tag_698\n        /* \"#utility.yul\":16349:16350   */\n      0x00\n        /* \"#utility.yul\":16338:16347   */\n      dup4\n        /* \"#utility.yul\":16334:16351   */\n      add\n        /* \"#utility.yul\":16325:16331   */\n      dup5\n        /* \"#utility.yul\":16283:16352   */\n      tag_580\n      jump\t// in\n    tag_698:\n        /* \"#utility.yul\":16141:16359   */\n      swap3\n      swap2\n      pop\n      pop\n      jump\t// out\n        /* \"#utility.yul\":16365:17088   */\n    tag_49:\n        /* \"#utility.yul\":16576:16580   */\n      0x00\n        /* \"#utility.yul\":16614:16617   */\n      0x80\n        /* \"#utility.yul\":16603:16612   */\n      dup3\n        /* \"#utility.yul\":16599:16618   */\n      add\n        /* \"#utility.yul\":16591:16618   */\n      swap1\n      pop\n        /* \"#utility.yul\":16664:16673   */\n      dup2\n        /* \"#utility.yul\":16658:16662   */\n      dup2\n        /* \"#utility.yul\":16654:16674   */\n      sub\n        /* \"#utility.yul\":16650:16651   */\n      0x00\n        /* \"#utility.yul\":16639:16648   */\n      dup4\n        /* \"#utility.yul\":16635:16652   */\n      add\n        /* \"#utility.yul\":16628:16675   */\n      mstore\n        /* \"#utility.yul\":16692:16770   */\n      tag_700\n        /* \"#utility.yul\":16765:16769   */\n      dup2\n        /* \"#utility.yul\":16756:16762   */\n      dup8\n        /* \"#utility.yul\":16692:16770   */\n      tag_584\n      jump\t// in\n    tag_700:\n        /* \"#utility.yul\":16684:16770   */\n      swap1\n      pop\n        /* \"#utility.yul\":16817:16826   */\n      dup2\n        /* \"#utility.yul\":16811:16815   */\n      dup2\n        /* \"#utility.yul\":16807:16827   */\n      sub\n        /* \"#utility.yul\":16802:16804   */\n      0x20\n        /* \"#utility.yul\":16791:16800   */\n      dup4\n        /* \"#utility.yul\":16787:16805   */\n      add\n        /* \"#utility.yul\":16780:16828   */\n      mstore\n        /* \"#utility.yul\":16845:16923   */\n      tag_701\n        /* \"#utility.yul\":16918:16922   */\n      dup2\n        /* \"#utility.yul\":16909:16915   */\n      dup7\n        /* \"#utility.yul\":16845:16923   */\n      tag_584\n      jump\t// in\n    tag_701:\n        /* \"#utility.yul\":16837:16923   */\n      swap1\n      pop\n        /* \"#utility.yul\":16933:17005   */\n      tag_702\n        /* \"#utility.yul\":17001:17003   */\n      0x40\n        /* \"#utility.yul\":16990:16999   */\n      dup4\n        /* \"#utility.yul\":16986:17004   */\n      add\n        /* \"#utility.yul\":16977:16983   */\n      dup6\n        /* \"#utility.yul\":16933:17005   */\n      tag_680\n      jump\t// in\n    tag_702:\n        /* \"#utility.yul\":17015:17081   */\n      tag_703\n        /* \"#utility.yul\":17077:17079   */\n      0x60\n        /* \"#utility.yul\":17066:17075   */\n      dup4\n        /* \"#utility.yul\":17062:17080   */\n      add\n        /* \"#utility.yul\":17053:17059   */\n      dup5\n        /* \"#utility.yul\":17015:17081   */\n      tag_576\n      jump\t// in\n    tag_703:\n        /* \"#utility.yul\":16365:17088   */\n      swap6\n      swap5\n      pop\n      pop\n      pop\n      pop\n      pop\n      jump\t// out\n        /* \"#utility.yul\":17094:17513   */\n    tag_425:\n        /* \"#utility.yul\":17260:17264   */\n      0x00\n        /* \"#utility.yul\":17298:17300   */\n      0x20\n        /* \"#utility.yul\":17287:17296   */\n      dup3\n        /* \"#utility.yul\":17283:17301   */\n      add\n        /* \"#utility.yul\":17275:17301   */\n      swap1\n      pop\n        /* \"#utility.yul\":17347:17356   */\n      dup2\n        /* \"#utility.yul\":17341:17345   */\n      dup2\n        /* \"#utility.yul\":17337:17357   */\n      sub\n        /* \"#utility.yul\":17333:17334   */\n      0x00\n        /* \"#utility.yul\":17322:17331   */\n      dup4\n        /* \"#utility.yul\":17318:17335   */\n      add\n        /* \"#utility.yul\":17311:17358   */\n      mstore\n        /* \"#utility.yul\":17375:17506   */\n      tag_705\n        /* \"#utility.yul\":17501:17505   */\n      dup2\n        /* \"#utility.yul\":17375:17506   */\n      tag_594\n      jump\t// in\n    tag_705:\n        /* \"#utility.yul\":17367:17506   */\n      swap1\n      pop\n        /* \"#utility.yul\":17094:17513   */\n      swap2\n      swap1\n      pop\n      jump\t// out\n        /* \"#utility.yul\":17519:17938   */\n    tag_262:\n        /* \"#utility.yul\":17685:17689   */\n      0x00\n        /* \"#utility.yul\":17723:17725   */\n      0x20\n        /* \"#utility.yul\":17712:17721   */\n      dup3\n        /* \"#utility.yul\":17708:17726   */\n      add\n        /* \"#utility.yul\":17700:17726   */\n      swap1\n      pop\n        /* \"#utility.yul\":17772:17781   */\n      dup2\n        /* \"#utility.yul\":17766:17770   */\n      dup2\n        /* \"#utility.yul\":17762:17782   */\n      sub\n        /* \"#utility.yul\":17758:17759   */\n      0x00\n        /* \"#utility.yul\":17747:17756   */\n      dup4\n        /* \"#utility.yul\":17743:17760   */\n      add\n        /* \"#utility.yul\":17736:17783   */\n      mstore\n        /* \"#utility.yul\":17800:17931   */\n      tag_707\n        /* \"#utility.yul\":17926:17930   */\n      dup2\n        /* \"#utility.yul\":17800:17931   */\n      tag_599\n      jump\t// in\n    tag_707:\n        /* \"#utility.yul\":17792:17931   */\n      swap1\n      pop\n        /* \"#utility.yul\":17519:17938   */\n      swap2\n      swap1\n      pop\n      jump\t// out\n        /* \"#utility.yul\":17944:18363   */\n    tag_390:\n        /* \"#utility.yul\":18110:18114   */\n      0x00\n        /* \"#utility.yul\":18148:18150   */\n      0x20\n        /* \"#utility.yul\":18137:18146   */\n      dup3\n        /* \"#utility.yul\":18133:18151   */\n      add\n        /* \"#utility.yul\":18125:18151   */\n      swap1\n      pop\n        /* \"#utility.yul\":18197:18206   */\n      dup2\n        /* \"#utility.yul\":18191:18195   */\n      dup2\n        /* \"#utility.yul\":18187:18207   */\n      sub\n        /* \"#utility.yul\":18183:18184   */\n      0x00\n        /* \"#utility.yul\":18172:18181   */\n      dup4\n        /* \"#utility.yul\":18168:18185   */\n      add\n        /* \"#utility.yul\":18161:18208   */\n      mstore\n        /* \"#utility.yul\":18225:18356   */\n      tag_709\n        /* \"#utility.yul\":18351:18355   */\n      dup2\n        /* \"#utility.yul\":18225:18356   */\n      tag_604\n      jump\t// in\n    tag_709:\n        /* \"#utility.yul\":18217:18356   */\n      swap1\n      pop\n        /* \"#utility.yul\":17944:18363   */\n      swap2\n      swap1\n      pop\n      jump\t// out\n        /* \"#utility.yul\":18369:18788   */\n    tag_393:\n        /* \"#utility.yul\":18535:18539   */\n      0x00\n        /* \"#utility.yul\":18573:18575   */\n      0x20\n        /* \"#utility.yul\":18562:18571   */\n      dup3\n        /* \"#utility.yul\":18558:18576   */\n      add\n        /* \"#utility.yul\":18550:18576   */\n      swap1\n      pop\n        /* \"#utility.yul\":18622:18631   */\n      dup2\n        /* \"#utility.yul\":18616:18620   */\n      dup2\n        /* \"#utility.yul\":18612:18632   */\n      sub\n        /* \"#utility.yul\":18608:18609   */\n      0x00\n        /* \"#utility.yul\":18597:18606   */\n      dup4\n        /* \"#utility.yul\":18593:18610   */\n      add\n        /* \"#utility.yul\":18586:18633   */\n      mstore\n        /* \"#utility.yul\":18650:18781   */\n      tag_711\n        /* \"#utility.yul\":18776:18780   */\n      dup2\n        /* \"#utility.yul\":18650:18781   */\n      tag_609\n      jump\t// in\n    tag_711:\n        /* \"#utility.yul\":18642:18781   */\n      swap1\n      pop\n        /* \"#utility.yul\":18369:18788   */\n      swap2\n      swap1\n      pop\n      jump\t// out\n        /* \"#utility.yul\":18794:19213   */\n    tag_249:\n        /* \"#utility.yul\":18960:18964   */\n      0x00\n        /* \"#utility.yul\":18998:19000   */\n      0x20\n        /* \"#utility.yul\":18987:18996   */\n      dup3\n        /* \"#utility.yul\":18983:19001   */\n      add\n        /* \"#utility.yul\":18975:19001   */\n      swap1\n      pop\n        /* \"#utility.yul\":19047:19056   */\n      dup2\n        /* \"#utility.yul\":19041:19045   */\n      dup2\n        /* \"#utility.yul\":19037:19057   */\n      sub\n        /* \"#utility.yul\":19033:19034   */\n      0x00\n        /* \"#utility.yul\":19022:19031   */\n      dup4\n        /* \"#utility.yul\":19018:19035   */\n      add\n        /* \"#utility.yul\":19011:19058   */\n      mstore\n        /* \"#utility.yul\":19075:19206   */\n      tag_713\n        /* \"#utility.yul\":19201:19205   */\n      dup2\n        /* \"#utility.yul\":19075:19206   */\n      tag_614\n      jump\t// in\n    tag_713:\n        /* \"#utility.yul\":19067:19206   */\n      swap1\n      pop\n        /* \"#utility.yul\":18794:19213   */\n      swap2\n      swap1\n      pop\n      jump\t// out\n        /* \"#utility.yul\":19219:19638   */\n    tag_252:\n        /* \"#utility.yul\":19385:19389   */\n      0x00\n        /* \"#utility.yul\":19423:19425   */\n      0x20\n        /* \"#utility.yul\":19412:19421   */\n      dup3\n        /* \"#utility.yul\":19408:19426   */\n      add\n        /* \"#utility.yul\":19400:19426   */\n      swap1\n      pop\n        /* \"#utility.yul\":19472:19481   */\n      dup2\n        /* \"#utility.yul\":19466:19470   */\n      dup2\n        /* \"#utility.yul\":19462:19482   */\n      sub\n        /* \"#utility.yul\":19458:19459   */\n      0x00\n        /* \"#utility.yul\":19447:19456   */\n      dup4\n        /* \"#utility.yul\":19443:19460   */\n      add\n        /* \"#utility.yul\":19436:19483   */\n      mstore\n        /* \"#utility.yul\":19500:19631   */\n      tag_715\n        /* \"#utility.yul\":19626:19630   */\n      dup2\n        /* \"#utility.yul\":19500:19631   */\n      tag_619\n      jump\t// in\n    tag_715:\n        /* \"#utility.yul\":19492:19631   */\n      swap1\n      pop\n        /* \"#utility.yul\":19219:19638   */\n      swap2\n      swap1\n      pop\n      jump\t// out\n        /* \"#utility.yul\":19644:20063   */\n    tag_284:\n        /* \"#utility.yul\":19810:19814   */\n      0x00\n        /* \"#utility.yul\":19848:19850   */\n      0x20\n        /* \"#utility.yul\":19837:19846   */\n      dup3\n        /* \"#utility.yul\":19833:19851   */\n      add\n        /* \"#utility.yul\":19825:19851   */\n      swap1\n      pop\n        /* \"#utility.yul\":19897:19906   */\n      dup2\n        /* \"#utility.yul\":19891:19895   */\n      dup2\n        /* \"#utility.yul\":19887:19907   */\n      sub\n        /* \"#utility.yul\":19883:19884   */\n      0x00\n        /* \"#utility.yul\":19872:19881   */\n      dup4\n        /* \"#utility.yul\":19868:19885   */\n      add\n        /* \"#utility.yul\":19861:19908   */\n      mstore\n        /* \"#utility.yul\":19925:20056   */\n      tag_717\n        /* \"#utility.yul\":20051:20055   */\n      dup2\n        /* \"#utility.yul\":19925:20056   */\n      tag_624\n      jump\t// in\n    tag_717:\n        /* \"#utility.yul\":19917:20056   */\n      swap1\n      pop\n        /* \"#utility.yul\":19644:20063   */\n      swap2\n      swap1\n      pop\n      jump\t// out\n        /* \"#utility.yul\":20069:20488   */\n    tag_219:\n        /* \"#utility.yul\":20235:20239   */\n      0x00\n        /* \"#utility.yul\":20273:20275   */\n      0x20\n        /* \"#utility.yul\":20262:20271   */\n      dup3\n        /* \"#utility.yul\":20258:20276   */\n      add\n        /* \"#utility.yul\":20250:20276   */\n      swap1\n      pop\n        /* \"#utility.yul\":20322:20331   */\n      dup2\n        /* \"#utility.yul\":20316:20320   */\n      dup2\n        /* \"#utility.yul\":20312:20332   */\n      sub\n        /* \"#utility.yul\":20308:20309   */\n      0x00\n        /* \"#utility.yul\":20297:20306   */\n      dup4\n        /* \"#utility.yul\":20293:20310   */\n      add\n        /* \"#utility.yul\":20286:20333   */\n      mstore\n        /* \"#utility.yul\":20350:20481   */\n      tag_719\n        /* \"#utility.yul\":20476:20480   */\n      dup2\n        /* \"#utility.yul\":20350:20481   */\n      tag_629\n      jump\t// in\n    tag_719:\n        /* \"#utility.yul\":20342:20481   */\n      swap1\n      pop\n        /* \"#utility.yul\":20069:20488   */\n      swap2\n      swap1\n      pop\n      jump\t// out\n        /* \"#utility.yul\":20494:20913   */\n    tag_275:\n        /* \"#utility.yul\":20660:20664   */\n      0x00\n        /* \"#utility.yul\":20698:20700   */\n      0x20\n        /* \"#utility.yul\":20687:20696   */\n      dup3\n        /* \"#utility.yul\":20683:20701   */\n      add\n        /* \"#utility.yul\":20675:20701   */\n      swap1\n      pop\n        /* \"#utility.yul\":20747:20756   */\n      dup2\n        /* \"#utility.yul\":20741:20745   */\n      dup2\n        /* \"#utility.yul\":20737:20757   */\n      sub\n        /* \"#utility.yul\":20733:20734   */\n      0x00\n        /* \"#utility.yul\":20722:20731   */\n      dup4\n        /* \"#utility.yul\":20718:20735   */\n      add\n        /* \"#utility.yul\":20711:20758   */\n      mstore\n        /* \"#utility.yul\":20775:20906   */\n      tag_721\n        /* \"#utility.yul\":20901:20905   */\n      dup2\n        /* \"#utility.yul\":20775:20906   */\n      tag_634\n      jump\t// in\n    tag_721:\n        /* \"#utility.yul\":20767:20906   */\n      swap1\n      pop\n        /* \"#utility.yul\":20494:20913   */\n      swap2\n      swap1\n      pop\n      jump\t// out\n        /* \"#utility.yul\":20919:21338   */\n    tag_311:\n        /* \"#utility.yul\":21085:21089   */\n      0x00\n        /* \"#utility.yul\":21123:21125   */\n      0x20\n        /* \"#utility.yul\":21112:21121   */\n      dup3\n        /* \"#utility.yul\":21108:21126   */\n      add\n        /* \"#utility.yul\":21100:21126   */\n      swap1\n      pop\n        /* \"#utility.yul\":21172:21181   */\n      dup2\n        /* \"#utility.yul\":21166:21170   */\n      dup2\n        /* \"#utility.yul\":21162:21182   */\n      sub\n        /* \"#utility.yul\":21158:21159   */\n      0x00\n        /* \"#utility.yul\":21147:21156   */\n      dup4\n        /* \"#utility.yul\":21143:21160   */\n      add\n        /* \"#utility.yul\":21136:21183   */\n      mstore\n        /* \"#utility.yul\":21200:21331   */\n      tag_723\n        /* \"#utility.yul\":21326:21330   */\n      dup2\n        /* \"#utility.yul\":21200:21331   */\n      tag_645\n      jump\t// in\n    tag_723:\n        /* \"#utility.yul\":21192:21331   */\n      swap1\n      pop\n        /* \"#utility.yul\":20919:21338   */\n      swap2\n      swap1\n      pop\n      jump\t// out\n        /* \"#utility.yul\":21344:21763   */\n    tag_223:\n        /* \"#utility.yul\":21510:21514   */\n      0x00\n        /* \"#utility.yul\":21548:21550   */\n      0x20\n        /* \"#utility.yul\":21537:21546   */\n      dup3\n        /* \"#utility.yul\":21533:21551   */\n      add\n        /* \"#utility.yul\":21525:21551   */\n      swap1\n      pop\n        /* \"#utility.yul\":21597:21606   */\n      dup2\n        /* \"#utility.yul\":21591:21595   */\n      dup2\n        /* \"#utility.yul\":21587:21607   */\n      sub\n        /* \"#utility.yul\":21583:21584   */\n      0x00\n        /* \"#utility.yul\":21572:21581   */\n      dup4\n        /* \"#utility.yul\":21568:21585   */\n      add\n        /* \"#utility.yul\":21561:21608   */\n      mstore\n        /* \"#utility.yul\":21625:21756   */\n      tag_725\n        /* \"#utility.yul\":21751:21755   */\n      dup2\n        /* \"#utility.yul\":21625:21756   */\n      tag_650\n      jump\t// in\n    tag_725:\n        /* \"#utility.yul\":21617:21756   */\n      swap1\n      pop\n        /* \"#utility.yul\":21344:21763   */\n      swap2\n      swap1\n      pop\n      jump\t// out\n        /* \"#utility.yul\":21769:22188   */\n    tag_308:\n        /* \"#utility.yul\":21935:21939   */\n      0x00\n        /* \"#utility.yul\":21973:21975   */\n      0x20\n        /* \"#utility.yul\":21962:21971   */\n      dup3\n        /* \"#utility.yul\":21958:21976   */\n      add\n        /* \"#utility.yul\":21950:21976   */\n      swap1\n      pop\n        /* \"#utility.yul\":22022:22031   */\n      dup2\n        /* \"#utility.yul\":22016:22020   */\n      dup2\n        /* \"#utility.yul\":22012:22032   */\n      sub\n        /* \"#utility.yul\":22008:22009   */\n      0x00\n        /* \"#utility.yul\":21997:22006   */\n      dup4\n        /* \"#utility.yul\":21993:22010   */\n      add\n        /* \"#utility.yul\":21986:22033   */\n      mstore\n        /* \"#utility.yul\":22050:22181   */\n      tag_727\n        /* \"#utility.yul\":22176:22180   */\n      dup2\n        /* \"#utility.yul\":22050:22181   */\n      tag_655\n      jump\t// in\n    tag_727:\n        /* \"#utility.yul\":22042:22181   */\n      swap1\n      pop\n        /* \"#utility.yul\":21769:22188   */\n      swap2\n      swap1\n      pop\n      jump\t// out\n        /* \"#utility.yul\":22194:22613   */\n    tag_245:\n        /* \"#utility.yul\":22360:22364   */\n      0x00\n        /* \"#utility.yul\":22398:22400   */\n      0x20\n        /* \"#utility.yul\":22387:22396   */\n      dup3\n        /* \"#utility.yul\":22383:22401   */\n      add\n        /* \"#utility.yul\":22375:22401   */\n      swap1\n      pop\n        /* \"#utility.yul\":22447:22456   */\n      dup2\n        /* \"#utility.yul\":22441:22445   */\n      dup2\n        /* \"#utility.yul\":22437:22457   */\n      sub\n        /* \"#utility.yul\":22433:22434   */\n      0x00\n        /* \"#utility.yul\":22422:22431   */\n      dup4\n        /* \"#utility.yul\":22418:22435   */\n      add\n        /* \"#utility.yul\":22411:22458   */\n      mstore\n        /* \"#utility.yul\":22475:22606   */\n      tag_729\n        /* \"#utility.yul\":22601:22605   */\n      dup2\n        /* \"#utility.yul\":22475:22606   */\n      tag_660\n      jump\t// in\n    tag_729:\n        /* \"#utility.yul\":22467:22606   */\n      swap1\n      pop\n        /* \"#utility.yul\":22194:22613   */\n      swap2\n      swap1\n      pop\n      jump\t// out\n        /* \"#utility.yul\":22619:23038   */\n    tag_278:\n        /* \"#utility.yul\":22785:22789   */\n      0x00\n        /* \"#utility.yul\":22823:22825   */\n      0x20\n        /* \"#utility.yul\":22812:22821   */\n      dup3\n        /* \"#utility.yul\":22808:22826   */\n      add\n        /* \"#utility.yul\":22800:22826   */\n      swap1\n      pop\n        /* \"#utility.yul\":22872:22881   */\n      dup2\n        /* \"#utility.yul\":22866:22870   */\n      dup2\n        /* \"#utility.yul\":22862:22882   */\n      sub\n        /* \"#utility.yul\":22858:22859   */\n      0x00\n        /* \"#utility.yul\":22847:22856   */\n      dup4\n        /* \"#utility.yul\":22843:22860   */\n      add\n        /* \"#utility.yul\":22836:22883   */\n      mstore\n        /* \"#utility.yul\":22900:23031   */\n      tag_731\n        /* \"#utility.yul\":23026:23030   */\n      dup2\n        /* \"#utility.yul\":22900:23031   */\n      tag_665\n      jump\t// in\n    tag_731:\n        /* \"#utility.yul\":22892:23031   */\n      swap1\n      pop\n        /* \"#utility.yul\":22619:23038   */\n      swap2\n      swap1\n      pop\n      jump\t// out\n        /* \"#utility.yul\":23044:23463   */\n    tag_234:\n        /* \"#utility.yul\":23210:23214   */\n      0x00\n        /* \"#utility.yul\":23248:23250   */\n      0x20\n        /* \"#utility.yul\":23237:23246   */\n      dup3\n        /* \"#utility.yul\":23233:23251   */\n      add\n        /* \"#utility.yul\":23225:23251   */\n      swap1\n      pop\n        /* \"#utility.yul\":23297:23306   */\n      dup2\n        /* \"#utility.yul\":23291:23295   */\n      dup2\n        /* \"#utility.yul\":23287:23307   */\n      sub\n        /* \"#utility.yul\":23283:23284   */\n      0x00\n        /* \"#utility.yul\":23272:23281   */\n      dup4\n        /* \"#utility.yul\":23268:23285   */\n      add\n        /* \"#utility.yul\":23261:23308   */\n      mstore\n        /* \"#utility.yul\":23325:23456   */\n      tag_733\n        /* \"#utility.yul\":23451:23455   */\n      dup2\n        /* \"#utility.yul\":23325:23456   */\n      tag_670\n      jump\t// in\n    tag_733:\n        /* \"#utility.yul\":23317:23456   */\n      swap1\n      pop\n        /* \"#utility.yul\":23044:23463   */\n      swap2\n      swap1\n      pop\n      jump\t// out\n        /* \"#utility.yul\":23469:23888   */\n    tag_324:\n        /* \"#utility.yul\":23635:23639   */\n      0x00\n        /* \"#utility.yul\":23673:23675   */\n      0x20\n        /* \"#utility.yul\":23662:23671   */\n      dup3\n        /* \"#utility.yul\":23658:23676   */\n      add\n        /* \"#utility.yul\":23650:23676   */\n      swap1\n      pop\n        /* \"#utility.yul\":23722:23731   */\n      dup2\n        /* \"#utility.yul\":23716:23720   */\n      dup2\n        /* \"#utility.yul\":23712:23732   */\n      sub\n        /* \"#utility.yul\":23708:23709   */\n      0x00\n        /* \"#utility.yul\":23697:23706   */\n      dup4\n        /* \"#utility.yul\":23693:23710   */\n      add\n        /* \"#utility.yul\":23686:23733   */\n      mstore\n        /* \"#utility.yul\":23750:23881   */\n      tag_735\n        /* \"#utility.yul\":23876:23880   */\n      dup2\n        /* \"#utility.yul\":23750:23881   */\n      tag_675\n      jump\t// in\n    tag_735:\n        /* \"#utility.yul\":23742:23881   */\n      swap1\n      pop\n        /* \"#utility.yul\":23469:23888   */\n      swap2\n      swap1\n      pop\n      jump\t// out\n        /* \"#utility.yul\":23894:24116   */\n    tag_59:\n        /* \"#utility.yul\":23987:23991   */\n      0x00\n        /* \"#utility.yul\":24025:24027   */\n      0x20\n        /* \"#utility.yul\":24014:24023   */\n      dup3\n        /* \"#utility.yul\":24010:24028   */\n      add\n        /* \"#utility.yul\":24002:24028   */\n      swap1\n      pop\n        /* \"#utility.yul\":24038:24109   */\n      tag_737\n        /* \"#utility.yul\":24106:24107   */\n      0x00\n        /* \"#utility.yul\":24095:24104   */\n      dup4\n        /* \"#utility.yul\":24091:24108   */\n      add\n        /* \"#utility.yul\":24082:24088   */\n      dup5\n        /* \"#utility.yul\":24038:24109   */\n      tag_680\n      jump\t// in\n    tag_737:\n        /* \"#utility.yul\":23894:24116   */\n      swap3\n      swap2\n      pop\n      pop\n      jump\t// out\n        /* \"#utility.yul\":24122:24454   */\n    tag_280:\n        /* \"#utility.yul\":24243:24247   */\n      0x00\n        /* \"#utility.yul\":24281:24283   */\n      0x40\n        /* \"#utility.yul\":24270:24279   */\n      dup3\n        /* \"#utility.yul\":24266:24284   */\n      add\n        /* \"#utility.yul\":24258:24284   */\n      swap1\n      pop\n        /* \"#utility.yul\":24294:24365   */\n      tag_739\n        /* \"#utility.yul\":24362:24363   */\n      0x00\n        /* \"#utility.yul\":24351:24360   */\n      dup4\n        /* \"#utility.yul\":24347:24364   */\n      add\n        /* \"#utility.yul\":24338:24344   */\n      dup6\n        /* \"#utility.yul\":24294:24365   */\n      tag_680\n      jump\t// in\n    tag_739:\n        /* \"#utility.yul\":24375:24447   */\n      tag_740\n        /* \"#utility.yul\":24443:24445   */\n      0x20\n        /* \"#utility.yul\":24432:24441   */\n      dup4\n        /* \"#utility.yul\":24428:24446   */\n      add\n        /* \"#utility.yul\":24419:24425   */\n      dup5\n        /* \"#utility.yul\":24375:24447   */\n      tag_572\n      jump\t// in\n    tag_740:\n        /* \"#utility.yul\":24122:24454   */\n      swap4\n      swap3\n      pop\n      pop\n      pop\n      jump\t// out\n        /* \"#utility.yul\":24460:25104   */\n    tag_271:\n        /* \"#utility.yul\":24657:24661   */\n      0x00\n        /* \"#utility.yul\":24695:24698   */\n      0x80\n        /* \"#utility.yul\":24684:24693   */\n      dup3\n        /* \"#utility.yul\":24680:24699   */\n      add\n        /* \"#utility.yul\":24672:24699   */\n      swap1\n      pop\n        /* \"#utility.yul\":24709:24780   */\n      tag_742\n        /* \"#utility.yul\":24777:24778   */\n      0x00\n        /* \"#utility.yul\":24766:24775   */\n      dup4\n        /* \"#utility.yul\":24762:24779   */\n      add\n        /* \"#utility.yul\":24753:24759   */\n      dup8\n        /* \"#utility.yul\":24709:24780   */\n      tag_680\n      jump\t// in\n    tag_742:\n        /* \"#utility.yul\":24790:24862   */\n      tag_743\n        /* \"#utility.yul\":24858:24860   */\n      0x20\n        /* \"#utility.yul\":24847:24856   */\n      dup4\n        /* \"#utility.yul\":24843:24861   */\n      add\n        /* \"#utility.yul\":24834:24840   */\n      dup7\n        /* \"#utility.yul\":24790:24862   */\n      tag_572\n      jump\t// in\n    tag_743:\n        /* \"#utility.yul\":24909:24918   */\n      dup2\n        /* \"#utility.yul\":24903:24907   */\n      dup2\n        /* \"#utility.yul\":24899:24919   */\n      sub\n        /* \"#utility.yul\":24894:24896   */\n      0x40\n        /* \"#utility.yul\":24883:24892   */\n      dup4\n        /* \"#utility.yul\":24879:24897   */\n      add\n        /* \"#utility.yul\":24872:24920   */\n      mstore\n        /* \"#utility.yul\":24937:25015   */\n      tag_744\n        /* \"#utility.yul\":25010:25014   */\n      dup2\n        /* \"#utility.yul\":25001:25007   */\n      dup6\n        /* \"#utility.yul\":24937:25015   */\n      tag_584\n      jump\t// in\n    tag_744:\n        /* \"#utility.yul\":24929:25015   */\n      swap1\n      pop\n        /* \"#utility.yul\":25025:25097   */\n      tag_745\n        /* \"#utility.yul\":25093:25095   */\n      0x60\n        /* \"#utility.yul\":25082:25091   */\n      dup4\n        /* \"#utility.yul\":25078:25096   */\n      add\n        /* \"#utility.yul\":25069:25075   */\n      dup5\n        /* \"#utility.yul\":25025:25097   */\n      tag_680\n      jump\t// in\n    tag_745:\n        /* \"#utility.yul\":24460:25104   */\n      swap6\n      swap5\n      pop\n      pop\n      pop\n      pop\n      pop\n      jump\t// out\n        /* \"#utility.yul\":25110:25964   */\n    tag_203:\n        /* \"#utility.yul\":25357:25361   */\n      0x00\n        /* \"#utility.yul\":25395:25398   */\n      0xc0\n        /* \"#utility.yul\":25384:25393   */\n      dup3\n        /* \"#utility.yul\":25380:25399   */\n      add\n        /* \"#utility.yul\":25372:25399   */\n      swap1\n      pop\n        /* \"#utility.yul\":25409:25480   */\n      tag_747\n        /* \"#utility.yul\":25477:25478   */\n      0x00\n        /* \"#utility.yul\":25466:25475   */\n      dup4\n        /* \"#utility.yul\":25462:25479   */\n      add\n        /* \"#utility.yul\":25453:25459   */\n      dup10\n        /* \"#utility.yul\":25409:25480   */\n      tag_680\n      jump\t// in\n    tag_747:\n        /* \"#utility.yul\":25527:25536   */\n      dup2\n        /* \"#utility.yul\":25521:25525   */\n      dup2\n        /* \"#utility.yul\":25517:25537   */\n      sub\n        /* \"#utility.yul\":25512:25514   */\n      0x20\n        /* \"#utility.yul\":25501:25510   */\n      dup4\n        /* \"#utility.yul\":25497:25515   */\n      add\n        /* \"#utility.yul\":25490:25538   */\n      mstore\n        /* \"#utility.yul\":25555:25633   */\n      tag_748\n        /* \"#utility.yul\":25628:25632   */\n      dup2\n        /* \"#utility.yul\":25619:25625   */\n      dup9\n        /* \"#utility.yul\":25555:25633   */\n      tag_584\n      jump\t// in\n    tag_748:\n        /* \"#utility.yul\":25547:25633   */\n      swap1\n      pop\n        /* \"#utility.yul\":25643:25709   */\n      tag_749\n        /* \"#utility.yul\":25705:25707   */\n      0x40\n        /* \"#utility.yul\":25694:25703   */\n      dup4\n        /* \"#utility.yul\":25690:25708   */\n      add\n        /* \"#utility.yul\":25681:25687   */\n      dup8\n        /* \"#utility.yul\":25643:25709   */\n      tag_576\n      jump\t// in\n    tag_749:\n        /* \"#utility.yul\":25719:25791   */\n      tag_750\n        /* \"#utility.yul\":25787:25789   */\n      0x60\n        /* \"#utility.yul\":25776:25785   */\n      dup4\n        /* \"#utility.yul\":25772:25790   */\n      add\n        /* \"#utility.yul\":25763:25769   */\n      dup7\n        /* \"#utility.yul\":25719:25791   */\n      tag_680\n      jump\t// in\n    tag_750:\n        /* \"#utility.yul\":25801:25874   */\n      tag_751\n        /* \"#utility.yul\":25869:25872   */\n      0x80\n        /* \"#utility.yul\":25858:25867   */\n      dup4\n        /* \"#utility.yul\":25854:25873   */\n      add\n        /* \"#utility.yul\":25845:25851   */\n      dup6\n        /* \"#utility.yul\":25801:25874   */\n      tag_572\n      jump\t// in\n    tag_751:\n        /* \"#utility.yul\":25884:25957   */\n      tag_752\n        /* \"#utility.yul\":25952:25955   */\n      0xa0\n        /* \"#utility.yul\":25941:25950   */\n      dup4\n        /* \"#utility.yul\":25937:25956   */\n      add\n        /* \"#utility.yul\":25928:25934   */\n      dup5\n        /* \"#utility.yul\":25884:25957   */\n      tag_680\n      jump\t// in\n    tag_752:\n        /* \"#utility.yul\":25110:25964   */\n      swap8\n      swap7\n      pop\n      pop\n      pop\n      pop\n      pop\n      pop\n      pop\n      jump\t// out\n        /* \"#utility.yul\":25970:26412   */\n    tag_66:\n        /* \"#utility.yul\":26119:26123   */\n      0x00\n        /* \"#utility.yul\":26157:26159   */\n      0x60\n        /* \"#utility.yul\":26146:26155   */\n      dup3\n        /* \"#utility.yul\":26142:26160   */\n      add\n        /* \"#utility.yul\":26134:26160   */\n      swap1\n      pop\n        /* \"#utility.yul\":26170:26241   */\n      tag_754\n        /* \"#utility.yul\":26238:26239   */\n      0x00\n        /* \"#utility.yul\":26227:26236   */\n      dup4\n        /* \"#utility.yul\":26223:26240   */\n      add\n        /* \"#utility.yul\":26214:26220   */\n      dup7\n        /* \"#utility.yul\":26170:26241   */\n      tag_680\n      jump\t// in\n    tag_754:\n        /* \"#utility.yul\":26251:26323   */\n      tag_755\n        /* \"#utility.yul\":26319:26321   */\n      0x20\n        /* \"#utility.yul\":26308:26317   */\n      dup4\n        /* \"#utility.yul\":26304:26322   */\n      add\n        /* \"#utility.yul\":26295:26301   */\n      dup6\n        /* \"#utility.yul\":26251:26323   */\n      tag_680\n      jump\t// in\n    tag_755:\n        /* \"#utility.yul\":26333:26405   */\n      tag_756\n        /* \"#utility.yul\":26401:26403   */\n      0x40\n        /* \"#utility.yul\":26390:26399   */\n      dup4\n        /* \"#utility.yul\":26386:26404   */\n      add\n        /* \"#utility.yul\":26377:26383   */\n      dup5\n        /* \"#utility.yul\":26333:26405   */\n      tag_680\n      jump\t// in\n    tag_756:\n        /* \"#utility.yul\":25970:26412   */\n      swap5\n      swap4\n      pop\n      pop\n      pop\n      pop\n      jump\t// out\n        /* \"#utility.yul\":26418:27193   */\n    tag_335:\n        /* \"#utility.yul\":26651:26655   */\n      0x00\n        /* \"#utility.yul\":26689:26692   */\n      0xc0\n        /* \"#utility.yul\":26678:26687   */\n      dup3\n        /* \"#utility.yul\":26674:26693   */\n      add\n        /* \"#utility.yul\":26666:26693   */\n      swap1\n      pop\n        /* \"#utility.yul\":26703:26774   */\n      tag_758\n        /* \"#utility.yul\":26771:26772   */\n      0x00\n        /* \"#utility.yul\":26760:26769   */\n      dup4\n        /* \"#utility.yul\":26756:26773   */\n      add\n        /* \"#utility.yul\":26747:26753   */\n      dup10\n        /* \"#utility.yul\":26703:26774   */\n      tag_680\n      jump\t// in\n    tag_758:\n        /* \"#utility.yul\":26784:26856   */\n      tag_759\n        /* \"#utility.yul\":26852:26854   */\n      0x20\n        /* \"#utility.yul\":26841:26850   */\n      dup4\n        /* \"#utility.yul\":26837:26855   */\n      add\n        /* \"#utility.yul\":26828:26834   */\n      dup9\n        /* \"#utility.yul\":26784:26856   */\n      tag_680\n      jump\t// in\n    tag_759:\n        /* \"#utility.yul\":26866:26938   */\n      tag_760\n        /* \"#utility.yul\":26934:26936   */\n      0x40\n        /* \"#utility.yul\":26923:26932   */\n      dup4\n        /* \"#utility.yul\":26919:26937   */\n      add\n        /* \"#utility.yul\":26910:26916   */\n      dup8\n        /* \"#utility.yul\":26866:26938   */\n      tag_680\n      jump\t// in\n    tag_760:\n        /* \"#utility.yul\":26948:27020   */\n      tag_761\n        /* \"#utility.yul\":27016:27018   */\n      0x60\n        /* \"#utility.yul\":27005:27014   */\n      dup4\n        /* \"#utility.yul\":27001:27019   */\n      add\n        /* \"#utility.yul\":26992:26998   */\n      dup7\n        /* \"#utility.yul\":26948:27020   */\n      tag_680\n      jump\t// in\n    tag_761:\n        /* \"#utility.yul\":27030:27103   */\n      tag_762\n        /* \"#utility.yul\":27098:27101   */\n      0x80\n        /* \"#utility.yul\":27087:27096   */\n      dup4\n        /* \"#utility.yul\":27083:27102   */\n      add\n        /* \"#utility.yul\":27074:27080   */\n      dup6\n        /* \"#utility.yul\":27030:27103   */\n      tag_572\n      jump\t// in\n    tag_762:\n        /* \"#utility.yul\":27113:27186   */\n      tag_763\n        /* \"#utility.yul\":27181:27184   */\n      0xa0\n        /* \"#utility.yul\":27170:27179   */\n      dup4\n        /* \"#utility.yul\":27166:27185   */\n      add\n        /* \"#utility.yul\":27157:27163   */\n      dup5\n        /* \"#utility.yul\":27113:27186   */\n      tag_572\n      jump\t// in\n    tag_763:\n        /* \"#utility.yul\":26418:27193   */\n      swap8\n      swap7\n      pop\n      pop\n      pop\n      pop\n      pop\n      pop\n      pop\n      jump\t// out\n        /* \"#utility.yul\":27199:28616   */\n    tag_118:\n        /* \"#utility.yul\":27588:27592   */\n      0x00\n        /* \"#utility.yul\":27626:27629   */\n      0x0180\n        /* \"#utility.yul\":27615:27624   */\n      dup3\n        /* \"#utility.yul\":27611:27630   */\n      add\n        /* \"#utility.yul\":27603:27630   */\n      swap1\n      pop\n        /* \"#utility.yul\":27640:27711   */\n      tag_765\n        /* \"#utility.yul\":27708:27709   */\n      0x00\n        /* \"#utility.yul\":27697:27706   */\n      dup4\n        /* \"#utility.yul\":27693:27710   */\n      add\n        /* \"#utility.yul\":27684:27690   */\n      dup16\n        /* \"#utility.yul\":27640:27711   */\n      tag_680\n      jump\t// in\n    tag_765:\n        /* \"#utility.yul\":27721:27793   */\n      tag_766\n        /* \"#utility.yul\":27789:27791   */\n      0x20\n        /* \"#utility.yul\":27778:27787   */\n      dup4\n        /* \"#utility.yul\":27774:27792   */\n      add\n        /* \"#utility.yul\":27765:27771   */\n      dup15\n        /* \"#utility.yul\":27721:27793   */\n      tag_680\n      jump\t// in\n    tag_766:\n        /* \"#utility.yul\":27803:27875   */\n      tag_767\n        /* \"#utility.yul\":27871:27873   */\n      0x40\n        /* \"#utility.yul\":27860:27869   */\n      dup4\n        /* \"#utility.yul\":27856:27874   */\n      add\n        /* \"#utility.yul\":27847:27853   */\n      dup14\n        /* \"#utility.yul\":27803:27875   */\n      tag_680\n      jump\t// in\n    tag_767:\n        /* \"#utility.yul\":27885:27957   */\n      tag_768\n        /* \"#utility.yul\":27953:27955   */\n      0x60\n        /* \"#utility.yul\":27942:27951   */\n      dup4\n        /* \"#utility.yul\":27938:27956   */\n      add\n        /* \"#utility.yul\":27929:27935   */\n      dup13\n        /* \"#utility.yul\":27885:27957   */\n      tag_680\n      jump\t// in\n    tag_768:\n        /* \"#utility.yul\":27967:28040   */\n      tag_769\n        /* \"#utility.yul\":28035:28038   */\n      0x80\n        /* \"#utility.yul\":28024:28033   */\n      dup4\n        /* \"#utility.yul\":28020:28039   */\n      add\n        /* \"#utility.yul\":28011:28017   */\n      dup12\n        /* \"#utility.yul\":27967:28040   */\n      tag_680\n      jump\t// in\n    tag_769:\n        /* \"#utility.yul\":28050:28123   */\n      tag_770\n        /* \"#utility.yul\":28118:28121   */\n      0xa0\n        /* \"#utility.yul\":28107:28116   */\n      dup4\n        /* \"#utility.yul\":28103:28122   */\n      add\n        /* \"#utility.yul\":28094:28100   */\n      dup11\n        /* \"#utility.yul\":28050:28123   */\n      tag_680\n      jump\t// in\n    tag_770:\n        /* \"#utility.yul\":28133:28206   */\n      tag_771\n        /* \"#utility.yul\":28201:28204   */\n      0xc0\n        /* \"#utility.yul\":28190:28199   */\n      dup4\n        /* \"#utility.yul\":28186:28205   */\n      add\n        /* \"#utility.yul\":28177:28183   */\n      dup10\n        /* \"#utility.yul\":28133:28206   */\n      tag_680\n      jump\t// in\n    tag_771:\n        /* \"#utility.yul\":28216:28285   */\n      tag_772\n        /* \"#utility.yul\":28280:28283   */\n      0xe0\n        /* \"#utility.yul\":28269:28278   */\n      dup4\n        /* \"#utility.yul\":28265:28284   */\n      add\n        /* \"#utility.yul\":28256:28262   */\n      dup9\n        /* \"#utility.yul\":28216:28285   */\n      tag_684\n      jump\t// in\n    tag_772:\n        /* \"#utility.yul\":28295:28364   */\n      tag_773\n        /* \"#utility.yul\":28359:28362   */\n      0x0100\n        /* \"#utility.yul\":28348:28357   */\n      dup4\n        /* \"#utility.yul\":28344:28363   */\n      add\n        /* \"#utility.yul\":28335:28341   */\n      dup8\n        /* \"#utility.yul\":28295:28364   */\n      tag_684\n      jump\t// in\n    tag_773:\n        /* \"#utility.yul\":28374:28441   */\n      tag_774\n        /* \"#utility.yul\":28436:28439   */\n      0x0120\n        /* \"#utility.yul\":28425:28434   */\n      dup4\n        /* \"#utility.yul\":28421:28440   */\n      add\n        /* \"#utility.yul\":28412:28418   */\n      dup7\n        /* \"#utility.yul\":28374:28441   */\n      tag_576\n      jump\t// in\n    tag_774:\n        /* \"#utility.yul\":28451:28525   */\n      tag_775\n        /* \"#utility.yul\":28520:28523   */\n      0x0140\n        /* \"#utility.yul\":28509:28518   */\n      dup4\n        /* \"#utility.yul\":28505:28524   */\n      add\n        /* \"#utility.yul\":28495:28502   */\n      dup6\n        /* \"#utility.yul\":28451:28525   */\n      tag_572\n      jump\t// in\n    tag_775:\n        /* \"#utility.yul\":28535:28609   */\n      tag_776\n        /* \"#utility.yul\":28604:28607   */\n      0x0160\n        /* \"#utility.yul\":28593:28602   */\n      dup4\n        /* \"#utility.yul\":28589:28608   */\n      add\n        /* \"#utility.yul\":28579:28586   */\n      dup5\n        /* \"#utility.yul\":28535:28609   */\n      tag_572\n      jump\t// in\n    tag_776:\n        /* \"#utility.yul\":27199:28616   */\n      swap14\n      swap13\n      pop\n      pop\n      pop\n      pop\n      pop\n      pop\n      pop\n      pop\n      pop\n      pop\n      pop\n      pop\n      pop\n      jump\t// out\n        /* \"#utility.yul\":28622:28751   */\n    tag_472:\n        /* \"#utility.yul\":28656:28662   */\n      0x00\n        /* \"#utility.yul\":28683:28703   */\n      tag_778\n      tag_779\n      jump\t// in\n    tag_778:\n        /* \"#utility.yul\":28673:28703   */\n      swap1\n      pop\n        /* \"#utility.yul\":28712:28745   */\n      tag_780\n        /* \"#utility.yul\":28740:28744   */\n      dup3\n        /* \"#utility.yul\":28732:28738   */\n      dup3\n        /* \"#utility.yul\":28712:28745   */\n      tag_781\n      jump\t// in\n    tag_780:\n        /* \"#utility.yul\":28622:28751   */\n      swap2\n      swap1\n      pop\n      jump\t// out\n        /* \"#utility.yul\":28757:28832   */\n    tag_779:\n        /* \"#utility.yul\":28790:28796   */\n      0x00\n        /* \"#utility.yul\":28823:28825   */\n      0x40\n        /* \"#utility.yul\":28817:28826   */\n      mload\n        /* \"#utility.yul\":28807:28826   */\n      swap1\n      pop\n        /* \"#utility.yul\":28757:28832   */\n      swap1\n      jump\t// out\n        /* \"#utility.yul\":28838:29146   */\n    tag_471:\n        /* \"#utility.yul\":28900:28904   */\n      0x00\n        /* \"#utility.yul\":28990:29008   */\n      0xffffffffffffffff\n        /* \"#utility.yul\":28982:28988   */\n      dup3\n        /* \"#utility.yul\":28979:29009   */\n      gt\n        /* \"#utility.yul\":28976:29032   */\n      iszero\n      tag_784\n      jumpi\n        /* \"#utility.yul\":29012:29030   */\n      tag_785\n      tag_786\n      jump\t// in\n    tag_785:\n        /* \"#utility.yul\":28976:29032   */\n    tag_784:\n        /* \"#utility.yul\":29050:29079   */\n      tag_787\n        /* \"#utility.yul\":29072:29078   */\n      dup3\n        /* \"#utility.yul\":29050:29079   */\n      tag_593\n      jump\t// in\n    tag_787:\n        /* \"#utility.yul\":29042:29079   */\n      swap1\n      pop\n        /* \"#utility.yul\":29134:29138   */\n      0x20\n        /* \"#utility.yul\":29128:29132   */\n      dup2\n        /* \"#utility.yul\":29124:29139   */\n      add\n        /* \"#utility.yul\":29116:29139   */\n      swap1\n      pop\n        /* \"#utility.yul\":28838:29146   */\n      swap2\n      swap1\n      pop\n      jump\t// out\n        /* \"#utility.yul\":29152:29251   */\n    tag_587:\n        /* \"#utility.yul\":29204:29210   */\n      0x00\n        /* \"#utility.yul\":29238:29243   */\n      dup2\n        /* \"#utility.yul\":29232:29244   */\n      mload\n        /* \"#utility.yul\":29222:29244   */\n      swap1\n      pop\n        /* \"#utility.yul\":29152:29251   */\n      swap2\n      swap1\n      pop\n      jump\t// out\n        /* \"#utility.yul\":29257:29404   */\n    tag_642:\n        /* \"#utility.yul\":29358:29369   */\n      0x00\n        /* \"#utility.yul\":29395:29398   */\n      dup2\n        /* \"#utility.yul\":29380:29398   */\n      swap1\n      pop\n        /* \"#utility.yul\":29257:29404   */\n      swap3\n      swap2\n      pop\n      pop\n      jump\t// out\n        /* \"#utility.yul\":29410:29579   */\n    tag_589:\n        /* \"#utility.yul\":29494:29505   */\n      0x00\n        /* \"#utility.yul\":29528:29534   */\n      dup3\n        /* \"#utility.yul\":29523:29526   */\n      dup3\n        /* \"#utility.yul\":29516:29535   */\n      mstore\n        /* \"#utility.yul\":29568:29572   */\n      0x20\n        /* \"#utility.yul\":29563:29566   */\n      dup3\n        /* \"#utility.yul\":29559:29573   */\n      add\n        /* \"#utility.yul\":29544:29573   */\n      swap1\n      pop\n        /* \"#utility.yul\":29410:29579   */\n      swap3\n      swap2\n      pop\n      pop\n      jump\t// out\n        /* \"#utility.yul\":29585:29890   */\n    tag_254:\n        /* \"#utility.yul\":29625:29628   */\n      0x00\n        /* \"#utility.yul\":29644:29664   */\n      tag_792\n        /* \"#utility.yul\":29662:29663   */\n      dup3\n        /* \"#utility.yul\":29644:29664   */\n      tag_683\n      jump\t// in\n    tag_792:\n        /* \"#utility.yul\":29639:29664   */\n      swap2\n      pop\n        /* \"#utility.yul\":29678:29698   */\n      tag_793\n        /* \"#utility.yul\":29696:29697   */\n      dup4\n        /* \"#utility.yul\":29678:29698   */\n      tag_683\n      jump\t// in\n    tag_793:\n        /* \"#utility.yul\":29673:29698   */\n      swap3\n      pop\n        /* \"#utility.yul\":29832:29833   */\n      dup3\n        /* \"#utility.yul\":29764:29830   */\n      0xffffffffffffffffffffffffffffffffffffffffffffffffffffffffffffffff\n        /* \"#utility.yul\":29760:29834   */\n      sub\n        /* \"#utility.yul\":29757:29758   */\n      dup3\n        /* \"#utility.yul\":29754:29835   */\n      gt\n        /* \"#utility.yul\":29751:29858   */\n      iszero\n      tag_794\n      jumpi\n        /* \"#utility.yul\":29838:29856   */\n      tag_795\n      tag_796\n      jump\t// in\n    tag_795:\n        /* \"#utility.yul\":29751:29858   */\n    tag_794:\n        /* \"#utility.yul\":29882:29883   */\n      dup3\n        /* \"#utility.yul\":29879:29880   */\n      dup3\n        /* \"#utility.yul\":29875:29884   */\n      add\n        /* \"#utility.yul\":29868:29884   */\n      swap1\n      pop\n        /* \"#utility.yul\":29585:29890   */\n      swap3\n      swap2\n      pop\n      pop\n      jump\t// out\n        /* \"#utility.yul\":29896:30081   */\n    tag_317:\n        /* \"#utility.yul\":29936:29937   */\n      0x00\n        /* \"#utility.yul\":29953:29973   */\n      tag_798\n        /* \"#utility.yul\":29971:29972   */\n      dup3\n        /* \"#utility.yul\":29953:29973   */\n      tag_683\n      jump\t// in\n    tag_798:\n        /* \"#utility.yul\":29948:29973   */\n      swap2\n      pop\n        /* \"#utility.yul\":29987:30007   */\n      tag_799\n        /* \"#utility.yul\":30005:30006   */\n      dup4\n        /* \"#utility.yul\":29987:30007   */\n      tag_683\n      jump\t// in\n    tag_799:\n        /* \"#utility.yul\":29982:30007   */\n      swap3\n      pop\n        /* \"#utility.yul\":30026:30027   */\n      dup3\n        /* \"#utility.yul\":30016:30051   */\n      tag_800\n      jumpi\n        /* \"#utility.yul\":30031:30049   */\n      tag_801\n      tag_802\n      jump\t// in\n    tag_801:\n        /* \"#utility.yul\":30016:30051   */\n    tag_800:\n        /* \"#utility.yul\":30073:30074   */\n      dup3\n        /* \"#utility.yul\":30070:30071   */\n      dup3\n        /* \"#utility.yul\":30066:30075   */\n      div\n        /* \"#utility.yul\":30061:30075   */\n      swap1\n      pop\n        /* \"#utility.yul\":29896:30081   */\n      swap3\n      swap2\n      pop\n      pop\n      jump\t// out\n        /* \"#utility.yul\":30087:30435   */\n    tag_319:\n        /* \"#utility.yul\":30127:30134   */\n      0x00\n        /* \"#utility.yul\":30150:30170   */\n      tag_804\n        /* \"#utility.yul\":30168:30169   */\n      dup3\n        /* \"#utility.yul\":30150:30170   */\n      tag_683\n      jump\t// in\n    tag_804:\n        /* \"#utility.yul\":30145:30170   */\n      swap2\n      pop\n        /* \"#utility.yul\":30184:30204   */\n      tag_805\n        /* \"#utility.yul\":30202:30203   */\n      dup4\n        /* \"#utility.yul\":30184:30204   */\n      tag_683\n      jump\t// in\n    tag_805:\n        /* \"#utility.yul\":30179:30204   */\n      swap3\n      pop\n        /* \"#utility.yul\":30372:30373   */\n      dup2\n        /* \"#utility.yul\":30304:30370   */\n      0xffffffffffffffffffffffffffffffffffffffffffffffffffffffffffffffff\n        /* \"#utility.yul\":30300:30374   */\n      div\n        /* \"#utility.yul\":30297:30298   */\n      dup4\n        /* \"#utility.yul\":30294:30375   */\n      gt\n        /* \"#utility.yul\":30289:30290   */\n      dup3\n        /* \"#utility.yul\":30282:30291   */\n      iszero\n        /* \"#utility.yul\":30275:30292   */\n      iszero\n        /* \"#utility.yul\":30271:30376   */\n      and\n        /* \"#utility.yul\":30268:30399   */\n      iszero\n      tag_806\n      jumpi\n        /* \"#utility.yul\":30379:30397   */\n      tag_807\n      tag_796\n      jump\t// in\n    tag_807:\n        /* \"#utility.yul\":30268:30399   */\n    tag_806:\n        /* \"#utility.yul\":30427:30428   */\n      dup3\n        /* \"#utility.yul\":30424:30425   */\n      dup3\n        /* \"#utility.yul\":30420:30429   */\n      mul\n        /* \"#utility.yul\":30409:30429   */\n      swap1\n      pop\n        /* \"#utility.yul\":30087:30435   */\n      swap3\n      swap2\n      pop\n      pop\n      jump\t// out\n        /* \"#utility.yul\":30441:30632   */\n    tag_327:\n        /* \"#utility.yul\":30481:30485   */\n      0x00\n        /* \"#utility.yul\":30501:30521   */\n      tag_809\n        /* \"#utility.yul\":30519:30520   */\n      dup3\n        /* \"#utility.yul\":30501:30521   */\n      tag_683\n      jump\t// in\n    tag_809:\n        /* \"#utility.yul\":30496:30521   */\n      swap2\n      pop\n        /* \"#utility.yul\":30535:30555   */\n      tag_810\n        /* \"#utility.yul\":30553:30554   */\n      dup4\n        /* \"#utility.yul\":30535:30555   */\n      tag_683\n      jump\t// in\n    tag_810:\n        /* \"#utility.yul\":30530:30555   */\n      swap3\n      pop\n        /* \"#utility.yul\":30574:30575   */\n      dup3\n        /* \"#utility.yul\":30571:30572   */\n      dup3\n        /* \"#utility.yul\":30568:30576   */\n      lt\n        /* \"#utility.yul\":30565:30599   */\n      iszero\n      tag_811\n      jumpi\n        /* \"#utility.yul\":30579:30597   */\n      tag_812\n      tag_796\n      jump\t// in\n    tag_812:\n        /* \"#utility.yul\":30565:30599   */\n    tag_811:\n        /* \"#utility.yul\":30624:30625   */\n      dup3\n        /* \"#utility.yul\":30621:30622   */\n      dup3\n        /* \"#utility.yul\":30617:30626   */\n      sub\n        /* \"#utility.yul\":30609:30626   */\n      swap1\n      pop\n        /* \"#utility.yul\":30441:30632   */\n      swap3\n      swap2\n      pop\n      pop\n      jump\t// out\n        /* \"#utility.yul\":30638:30734   */\n    tag_575:\n        /* \"#utility.yul\":30675:30682   */\n      0x00\n        /* \"#utility.yul\":30704:30728   */\n      tag_814\n        /* \"#utility.yul\":30722:30727   */\n      dup3\n        /* \"#utility.yul\":30704:30728   */\n      tag_815\n      jump\t// in\n    tag_814:\n        /* \"#utility.yul\":30693:30728   */\n      swap1\n      pop\n        /* \"#utility.yul\":30638:30734   */\n      swap2\n      swap1\n      pop\n      jump\t// out\n        /* \"#utility.yul\":30740:30830   */\n    tag_579:\n        /* \"#utility.yul\":30774:30781   */\n      0x00\n        /* \"#utility.yul\":30817:30822   */\n      dup2\n        /* \"#utility.yul\":30810:30823   */\n      iszero\n        /* \"#utility.yul\":30803:30824   */\n      iszero\n        /* \"#utility.yul\":30792:30824   */\n      swap1\n      pop\n        /* \"#utility.yul\":30740:30830   */\n      swap2\n      swap1\n      pop\n      jump\t// out\n        /* \"#utility.yul\":30836:30912   */\n    tag_583:\n        /* \"#utility.yul\":30872:30879   */\n      0x00\n        /* \"#utility.yul\":30901:30906   */\n      dup2\n        /* \"#utility.yul\":30890:30906   */\n      swap1\n      pop\n        /* \"#utility.yul\":30836:30912   */\n      swap2\n      swap1\n      pop\n      jump\t// out\n        /* \"#utility.yul\":30918:31044   */\n    tag_815:\n        /* \"#utility.yul\":30955:30962   */\n      0x00\n        /* \"#utility.yul\":30995:31037   */\n      0xffffffffffffffffffffffffffffffffffffffff\n        /* \"#utility.yul\":30988:30993   */\n      dup3\n        /* \"#utility.yul\":30984:31038   */\n      and\n        /* \"#utility.yul\":30973:31038   */\n      swap1\n      pop\n        /* \"#utility.yul\":30918:31044   */\n      swap2\n      swap1\n      pop\n      jump\t// out\n        /* \"#utility.yul\":31050:31127   */\n    tag_683:\n        /* \"#utility.yul\":31087:31094   */\n      0x00\n        /* \"#utility.yul\":31116:31121   */\n      dup2\n        /* \"#utility.yul\":31105:31121   */\n      swap1\n      pop\n        /* \"#utility.yul\":31050:31127   */\n      swap2\n      swap1\n      pop\n      jump\t// out\n        /* \"#utility.yul\":31133:31219   */\n    tag_687:\n        /* \"#utility.yul\":31168:31175   */\n      0x00\n        /* \"#utility.yul\":31208:31212   */\n      0xff\n        /* \"#utility.yul\":31201:31206   */\n      dup3\n        /* \"#utility.yul\":31197:31213   */\n      and\n        /* \"#utility.yul\":31186:31213   */\n      swap1\n      pop\n        /* \"#utility.yul\":31133:31219   */\n      swap2\n      swap1\n      pop\n      jump\t// out\n        /* \"#utility.yul\":31225:31330   */\n    tag_821:\n        /* \"#utility.yul\":31261:31268   */\n      0x00\n        /* \"#utility.yul\":31301:31323   */\n      0xffffffffffffffffffff\n        /* \"#utility.yul\":31294:31299   */\n      dup3\n        /* \"#utility.yul\":31290:31324   */\n      and\n        /* \"#utility.yul\":31279:31324   */\n      swap1\n      pop\n        /* \"#utility.yul\":31225:31330   */\n      swap2\n      swap1\n      pop\n      jump\t// out\n        /* \"#utility.yul\":31336:31490   */\n    tag_477:\n        /* \"#utility.yul\":31420:31426   */\n      dup3\n        /* \"#utility.yul\":31415:31418   */\n      dup2\n        /* \"#utility.yul\":31410:31413   */\n      dup4\n        /* \"#utility.yul\":31397:31427   */\n      calldatacopy\n        /* \"#utility.yul\":31482:31483   */\n      0x00\n        /* \"#utility.yul\":31473:31479   */\n      dup4\n        /* \"#utility.yul\":31468:31471   */\n      dup4\n        /* \"#utility.yul\":31464:31480   */\n      add\n        /* \"#utility.yul\":31457:31484   */\n      mstore\n        /* \"#utility.yul\":31336:31490   */\n      pop\n      pop\n      pop\n      jump\t// out\n        /* \"#utility.yul\":31496:31803   */\n    tag_591:\n        /* \"#utility.yul\":31564:31565   */\n      0x00\n        /* \"#utility.yul\":31574:31687   */\n    tag_825:\n        /* \"#utility.yul\":31588:31594   */\n      dup4\n        /* \"#utility.yul\":31585:31586   */\n      dup2\n        /* \"#utility.yul\":31582:31595   */\n      lt\n        /* \"#utility.yul\":31574:31687   */\n      iszero\n      tag_827\n      jumpi\n        /* \"#utility.yul\":31673:31674   */\n      dup1\n        /* \"#utility.yul\":31668:31671   */\n      dup3\n        /* \"#utility.yul\":31664:31675   */\n      add\n        /* \"#utility.yul\":31658:31676   */\n      mload\n        /* \"#utility.yul\":31654:31655   */\n      dup2\n        /* \"#utility.yul\":31649:31652   */\n      dup5\n        /* \"#utility.yul\":31645:31656   */\n      add\n        /* \"#utility.yul\":31638:31677   */\n      mstore\n        /* \"#utility.yul\":31610:31612   */\n      0x20\n        /* \"#utility.yul\":31607:31608   */\n      dup2\n        /* \"#utility.yul\":31603:31613   */\n      add\n        /* \"#utility.yul\":31598:31613   */\n      swap1\n      pop\n        /* \"#utility.yul\":31574:31687   */\n      jump(tag_825)\n    tag_827:\n        /* \"#utility.yul\":31705:31711   */\n      dup4\n        /* \"#utility.yul\":31702:31703   */\n      dup2\n        /* \"#utility.yul\":31699:31712   */\n      gt\n        /* \"#utility.yul\":31696:31797   */\n      iszero\n      tag_828\n      jumpi\n        /* \"#utility.yul\":31785:31786   */\n      0x00\n        /* \"#utility.yul\":31776:31782   */\n      dup5\n        /* \"#utility.yul\":31771:31774   */\n      dup5\n        /* \"#utility.yul\":31767:31783   */\n      add\n        /* \"#utility.yul\":31760:31787   */\n      mstore\n        /* \"#utility.yul\":31696:31797   */\n    tag_828:\n        /* \"#utility.yul\":31545:31803   */\n      pop\n        /* \"#utility.yul\":31496:31803   */\n      pop\n      pop\n      pop\n      jump\t// out\n        /* \"#utility.yul\":31809:32129   */\n    tag_205:\n        /* \"#utility.yul\":31853:31859   */\n      0x00\n        /* \"#utility.yul\":31890:31891   */\n      0x02\n        /* \"#utility.yul\":31884:31888   */\n      dup3\n        /* \"#utility.yul\":31880:31892   */\n      div\n        /* \"#utility.yul\":31870:31892   */\n      swap1\n      pop\n        /* \"#utility.yul\":31937:31938   */\n      0x01\n        /* \"#utility.yul\":31931:31935   */\n      dup3\n        /* \"#utility.yul\":31927:31939   */\n      and\n        /* \"#utility.yul\":31958:31976   */\n      dup1\n        /* \"#utility.yul\":31948:32029   */\n      tag_830\n      jumpi\n        /* \"#utility.yul\":32014:32018   */\n      0x7f\n        /* \"#utility.yul\":32006:32012   */\n      dup3\n        /* \"#utility.yul\":32002:32019   */\n      and\n        /* \"#utility.yul\":31992:32019   */\n      swap2\n      pop\n        /* \"#utility.yul\":31948:32029   */\n    tag_830:\n        /* \"#utility.yul\":32076:32078   */\n      0x20\n        /* \"#utility.yul\":32068:32074   */\n      dup3\n        /* \"#utility.yul\":32065:32079   */\n      lt\n        /* \"#utility.yul\":32045:32063   */\n      dup2\n        /* \"#utility.yul\":32042:32080   */\n      eq\n        /* \"#utility.yul\":32039:32123   */\n      iszero\n      tag_831\n      jumpi\n        /* \"#utility.yul\":32095:32113   */\n      tag_832\n      tag_833\n      jump\t// in\n    tag_832:\n        /* \"#utility.yul\":32039:32123   */\n    tag_831:\n        /* \"#utility.yul\":31860:32129   */\n      pop\n        /* \"#utility.yul\":31809:32129   */\n      swap2\n      swap1\n      pop\n      jump\t// out\n        /* \"#utility.yul\":32135:32416   */\n    tag_781:\n        /* \"#utility.yul\":32218:32245   */\n      tag_835\n        /* \"#utility.yul\":32240:32244   */\n      dup3\n        /* \"#utility.yul\":32218:32245   */\n      tag_593\n      jump\t// in\n    tag_835:\n        /* \"#utility.yul\":32210:32216   */\n      dup2\n        /* \"#utility.yul\":32206:32246   */\n      add\n        /* \"#utility.yul\":32348:32354   */\n      dup2\n        /* \"#utility.yul\":32336:32346   */\n      dup2\n        /* \"#utility.yul\":32333:32355   */\n      lt\n        /* \"#utility.yul\":32312:32330   */\n      0xffffffffffffffff\n        /* \"#utility.yul\":32300:32310   */\n      dup3\n        /* \"#utility.yul\":32297:32331   */\n      gt\n        /* \"#utility.yul\":32294:32356   */\n      or\n        /* \"#utility.yul\":32291:32379   */\n      iszero\n      tag_836\n      jumpi\n        /* \"#utility.yul\":32359:32377   */\n      tag_837\n      tag_786\n      jump\t// in\n    tag_837:\n        /* \"#utility.yul\":32291:32379   */\n    tag_836:\n        /* \"#utility.yul\":32399:32409   */\n      dup1\n        /* \"#utility.yul\":32395:32397   */\n      0x40\n        /* \"#utility.yul\":32388:32410   */\n      mstore\n        /* \"#utility.yul\":32178:32416   */\n      pop\n        /* \"#utility.yul\":32135:32416   */\n      pop\n      pop\n      jump\t// out\n        /* \"#utility.yul\":32422:32655   */\n    tag_266:\n        /* \"#utility.yul\":32461:32464   */\n      0x00\n        /* \"#utility.yul\":32484:32508   */\n      tag_839\n        /* \"#utility.yul\":32502:32507   */\n      dup3\n        /* \"#utility.yul\":32484:32508   */\n      tag_683\n      jump\t// in\n    tag_839:\n        /* \"#utility.yul\":32475:32508   */\n      swap2\n      pop\n        /* \"#utility.yul\":32530:32596   */\n      0xffffffffffffffffffffffffffffffffffffffffffffffffffffffffffffffff\n        /* \"#utility.yul\":32523:32528   */\n      dup3\n        /* \"#utility.yul\":32520:32597   */\n      eq\n        /* \"#utility.yul\":32517:32620   */\n      iszero\n      tag_840\n      jumpi\n        /* \"#utility.yul\":32600:32618   */\n      tag_841\n      tag_796\n      jump\t// in\n    tag_841:\n        /* \"#utility.yul\":32517:32620   */\n    tag_840:\n        /* \"#utility.yul\":32647:32648   */\n      0x01\n        /* \"#utility.yul\":32640:32645   */\n      dup3\n        /* \"#utility.yul\":32636:32649   */\n      add\n        /* \"#utility.yul\":32629:32649   */\n      swap1\n      pop\n        /* \"#utility.yul\":32422:32655   */\n      swap2\n      swap1\n      pop\n      jump\t// out\n        /* \"#utility.yul\":32661:32841   */\n    tag_796:\n        /* \"#utility.yul\":32709:32786   */\n      0x4e487b7100000000000000000000000000000000000000000000000000000000\n        /* \"#utility.yul\":32706:32707   */\n      0x00\n        /* \"#utility.yul\":32699:32787   */\n      mstore\n        /* \"#utility.yul\":32806:32810   */\n      0x11\n        /* \"#utility.yul\":32803:32804   */\n      0x04\n        /* \"#utility.yul\":32796:32811   */\n      mstore\n        /* \"#utility.yul\":32830:32834   */\n      0x24\n        /* \"#utility.yul\":32827:32828   */\n      0x00\n        /* \"#utility.yul\":32820:32835   */\n      revert\n        /* \"#utility.yul\":32847:33027   */\n    tag_802:\n        /* \"#utility.yul\":32895:32972   */\n      0x4e487b7100000000000000000000000000000000000000000000000000000000\n        /* \"#utility.yul\":32892:32893   */\n      0x00\n        /* \"#utility.yul\":32885:32973   */\n      mstore\n        /* \"#utility.yul\":32992:32996   */\n      0x12\n        /* \"#utility.yul\":32989:32990   */\n      0x04\n        /* \"#utility.yul\":32982:32997   */\n      mstore\n        /* \"#utility.yul\":33016:33020   */\n      0x24\n        /* \"#utility.yul\":33013:33014   */\n      0x00\n        /* \"#utility.yul\":33006:33021   */\n      revert\n        /* \"#utility.yul\":33033:33213   */\n    tag_833:\n        /* \"#utility.yul\":33081:33158   */\n      0x4e487b7100000000000000000000000000000000000000000000000000000000\n        /* \"#utility.yul\":33078:33079   */\n      0x00\n        /* \"#utility.yul\":33071:33159   */\n      mstore\n        /* \"#utility.yul\":33178:33182   */\n      0x22\n        /* \"#utility.yul\":33175:33176   */\n      0x04\n        /* \"#utility.yul\":33168:33183   */\n      mstore\n        /* \"#utility.yul\":33202:33206   */\n      0x24\n        /* \"#utility.yul\":33199:33200   */\n      0x00\n        /* \"#utility.yul\":33192:33207   */\n      revert\n        /* \"#utility.yul\":33219:33399   */\n    tag_786:\n        /* \"#utility.yul\":33267:33344   */\n      0x4e487b7100000000000000000000000000000000000000000000000000000000\n        /* \"#utility.yul\":33264:33265   */\n      0x00\n        /* \"#utility.yul\":33257:33345   */\n      mstore\n        /* \"#utility.yul\":33364:33368   */\n      0x41\n        /* \"#utility.yul\":33361:33362   */\n      0x04\n        /* \"#utility.yul\":33354:33369   */\n      mstore\n        /* \"#utility.yul\":33388:33392   */\n      0x24\n        /* \"#utility.yul\":33385:33386   */\n      0x00\n        /* \"#utility.yul\":33378:33393   */\n      revert\n        /* \"#utility.yul\":33405:33522   */\n    tag_497:\n        /* \"#utility.yul\":33514:33515   */\n      0x00\n        /* \"#utility.yul\":33511:33512   */\n      dup1\n        /* \"#utility.yul\":33504:33516   */\n      revert\n        /* \"#utility.yul\":33528:33645   */\n    tag_475:\n        /* \"#utility.yul\":33637:33638   */\n      0x00\n        /* \"#utility.yul\":33634:33635   */\n      dup1\n        /* \"#utility.yul\":33627:33639   */\n      revert\n        /* \"#utility.yul\":33651:33768   */\n    tag_533:\n        /* \"#utility.yul\":33760:33761   */\n      0x00\n        /* \"#utility.yul\":33757:33758   */\n      dup1\n        /* \"#utility.yul\":33750:33762   */\n      revert\n        /* \"#utility.yul\":33774:33891   */\n    tag_513:\n        /* \"#utility.yul\":33883:33884   */\n      0x00\n        /* \"#utility.yul\":33880:33881   */\n      dup1\n        /* \"#utility.yul\":33873:33885   */\n      revert\n        /* \"#utility.yul\":33897:33999   */\n    tag_593:\n        /* \"#utility.yul\":33938:33944   */\n      0x00\n        /* \"#utility.yul\":33989:33991   */\n      0x1f\n        /* \"#utility.yul\":33985:33992   */\n      not\n        /* \"#utility.yul\":33980:33982   */\n      0x1f\n        /* \"#utility.yul\":33973:33978   */\n      dup4\n        /* \"#utility.yul\":33969:33983   */\n      add\n        /* \"#utility.yul\":33965:33993   */\n      and\n        /* \"#utility.yul\":33955:33993   */\n      swap1\n      pop\n        /* \"#utility.yul\":33897:33999   */\n      swap2\n      swap1\n      pop\n      jump\t// out\n        /* \"#utility.yul\":34005:34227   */\n    tag_598:\n        /* \"#utility.yul\":34145:34179   */\n      0x4974656d206e6f7420666f722073616c65206f7220646f65736e277420657869\n        /* \"#utility.yul\":34141:34142   */\n      0x00\n        /* \"#utility.yul\":34133:34139   */\n      dup3\n        /* \"#utility.yul\":34129:34143   */\n      add\n        /* \"#utility.yul\":34122:34180   */\n      mstore\n        /* \"#utility.yul\":34214:34219   */\n      0x73742e0000000000000000000000000000000000000000000000000000000000\n        /* \"#utility.yul\":34209:34211   */\n      0x20\n        /* \"#utility.yul\":34201:34207   */\n      dup3\n        /* \"#utility.yul\":34197:34212   */\n      add\n        /* \"#utility.yul\":34190:34220   */\n      mstore\n        /* \"#utility.yul\":34005:34227   */\n      pop\n      jump\t// out\n        /* \"#utility.yul\":34233:34403   */\n    tag_603:\n        /* \"#utility.yul\":34373:34395   */\n      0x4661696c656420746f2053656e64204574686572000000000000000000000000\n        /* \"#utility.yul\":34369:34370   */\n      0x00\n        /* \"#utility.yul\":34361:34367   */\n      dup3\n        /* \"#utility.yul\":34357:34371   */\n      add\n        /* \"#utility.yul\":34350:34396   */\n      mstore\n        /* \"#utility.yul\":34233:34403   */\n      pop\n      jump\t// out\n        /* \"#utility.yul\":34409:34638   */\n    tag_608:\n        /* \"#utility.yul\":34549:34583   */\n      0x446973707574652069736e2774206c697665206f7220697320616c7265616479\n        /* \"#utility.yul\":34545:34546   */\n      0x00\n        /* \"#utility.yul\":34537:34543   */\n      dup3\n        /* \"#utility.yul\":34533:34547   */\n      add\n        /* \"#utility.yul\":34526:34584   */\n      mstore\n        /* \"#utility.yul\":34618:34630   */\n      0x207265736f6c7665642e00000000000000000000000000000000000000000000\n        /* \"#utility.yul\":34613:34615   */\n      0x20\n        /* \"#utility.yul\":34605:34611   */\n      dup3\n        /* \"#utility.yul\":34601:34616   */\n      add\n        /* \"#utility.yul\":34594:34631   */\n      mstore\n        /* \"#utility.yul\":34409:34638   */\n      pop\n      jump\t// out\n        /* \"#utility.yul\":34644:34868   */\n    tag_613:\n        /* \"#utility.yul\":34784:34818   */\n      0x4f6e6c792044414f20616464726573732063616e207265736f6c766520646973\n        /* \"#utility.yul\":34780:34781   */\n      0x00\n        /* \"#utility.yul\":34772:34778   */\n      dup3\n        /* \"#utility.yul\":34768:34782   */\n      add\n        /* \"#utility.yul\":34761:34819   */\n      mstore\n        /* \"#utility.yul\":34853:34860   */\n      0x7075746573000000000000000000000000000000000000000000000000000000\n        /* \"#utility.yul\":34848:34850   */\n      0x20\n        /* \"#utility.yul\":34840:34846   */\n      dup3\n        /* \"#utility.yul\":34836:34851   */\n      add\n        /* \"#utility.yul\":34829:34861   */\n      mstore\n        /* \"#utility.yul\":34644:34868   */\n      pop\n      jump\t// out\n        /* \"#utility.yul\":34874:35046   */\n    tag_618:\n        /* \"#utility.yul\":35014:35038   */\n      0x4f6e6c792073656c6c65722063616e2063616e63656c00000000000000000000\n        /* \"#utility.yul\":35010:35011   */\n      0x00\n        /* \"#utility.yul\":35002:35008   */\n      dup3\n        /* \"#utility.yul\":34998:35012   */\n      add\n        /* \"#utility.yul\":34991:35039   */\n      mstore\n        /* \"#utility.yul\":34874:35046   */\n      pop\n      jump\t// out\n        /* \"#utility.yul\":35052:35220   */\n    tag_623:\n        /* \"#utility.yul\":35192:35212   */\n      0x4f726465722069736e2774206163746976650000000000000000000000000000\n        /* \"#utility.yul\":35188:35189   */\n      0x00\n        /* \"#utility.yul\":35180:35186   */\n      dup3\n        /* \"#utility.yul\":35176:35190   */\n      add\n        /* \"#utility.yul\":35169:35213   */\n      mstore\n        /* \"#utility.yul\":35052:35220   */\n      pop\n      jump\t// out\n        /* \"#utility.yul\":35226:35400   */\n    tag_628:\n        /* \"#utility.yul\":35366:35392   */\n      0x4f6e6c79206974656d206f776e65722063616e20656469740000000000000000\n        /* \"#utility.yul\":35362:35363   */\n      0x00\n        /* \"#utility.yul\":35354:35360   */\n      dup3\n        /* \"#utility.yul\":35350:35364   */\n      add\n        /* \"#utility.yul\":35343:35393   */\n      mstore\n        /* \"#utility.yul\":35226:35400   */\n      pop\n      jump\t// out\n        /* \"#utility.yul\":35406:35630   */\n    tag_633:\n        /* \"#utility.yul\":35546:35580   */\n      0x4e6f7420617574686f72697a65642e204275796572206f722053656c6c657220\n        /* \"#utility.yul\":35542:35543   */\n      0x00\n        /* \"#utility.yul\":35534:35540   */\n      dup3\n        /* \"#utility.yul\":35530:35544   */\n      add\n        /* \"#utility.yul\":35523:35581   */\n      mstore\n        /* \"#utility.yul\":35615:35622   */\n      0x6f6e6c792e000000000000000000000000000000000000000000000000000000\n        /* \"#utility.yul\":35610:35612   */\n      0x20\n        /* \"#utility.yul\":35602:35608   */\n      dup3\n        /* \"#utility.yul\":35598:35613   */\n      add\n        /* \"#utility.yul\":35591:35623   */\n      mstore\n        /* \"#utility.yul\":35406:35630   */\n      pop\n      jump\t// out\n        /* \"#utility.yul\":35636:35799   */\n    tag_638:\n        /* \"#utility.yul\":35776:35791   */\n      0x4e6f7420617661696c61626c6500000000000000000000000000000000000000\n        /* \"#utility.yul\":35772:35773   */\n      0x00\n        /* \"#utility.yul\":35764:35770   */\n      dup3\n        /* \"#utility.yul\":35760:35774   */\n      add\n        /* \"#utility.yul\":35753:35792   */\n      mstore\n        /* \"#utility.yul\":35636:35799   */\n      pop\n      jump\t// out\n        /* \"#utility.yul\":35805:35919   */\n    tag_644:\n      pop\n      jump\t// out\n        /* \"#utility.yul\":35925:36159   */\n    tag_649:\n        /* \"#utility.yul\":36065:36099   */\n      0x43616e206f6e6c7920616363657074206f66666572732066726f6d20776f726b\n        /* \"#utility.yul\":36061:36062   */\n      0x00\n        /* \"#utility.yul\":36053:36059   */\n      dup3\n        /* \"#utility.yul\":36049:36063   */\n      add\n        /* \"#utility.yul\":36042:36100   */\n      mstore\n        /* \"#utility.yul\":36134:36151   */\n      0x6572732077686f206f6666657265640000000000000000000000000000000000\n        /* \"#utility.yul\":36129:36131   */\n      0x20\n        /* \"#utility.yul\":36121:36127   */\n      dup3\n        /* \"#utility.yul\":36117:36132   */\n      add\n        /* \"#utility.yul\":36110:36152   */\n      mstore\n        /* \"#utility.yul\":35925:36159   */\n      pop\n      jump\t// out\n        /* \"#utility.yul\":36165:36333   */\n    tag_654:\n        /* \"#utility.yul\":36305:36325   */\n      0x446973707574652069736e2774206c6976650000000000000000000000000000\n        /* \"#utility.yul\":36301:36302   */\n      0x00\n        /* \"#utility.yul\":36293:36299   */\n      dup3\n        /* \"#utility.yul\":36289:36303   */\n      add\n        /* \"#utility.yul\":36282:36326   */\n      mstore\n        /* \"#utility.yul\":36165:36333   */\n      pop\n      jump\t// out\n        /* \"#utility.yul\":36339:36521   */\n    tag_659:\n        /* \"#utility.yul\":36479:36513   */\n      0x4f6e6c79206974656d206f776e65722063616e20616363657074206f66666572\n        /* \"#utility.yul\":36475:36476   */\n      0x00\n        /* \"#utility.yul\":36467:36473   */\n      dup3\n        /* \"#utility.yul\":36463:36477   */\n      add\n        /* \"#utility.yul\":36456:36514   */\n      mstore\n        /* \"#utility.yul\":36339:36521   */\n      pop\n      jump\t// out\n        /* \"#utility.yul\":36527:36752   */\n    tag_664:\n        /* \"#utility.yul\":36667:36701   */\n      0x4f6e6c7920636f6d70616e792063616e20757064617465207265776172647320\n        /* \"#utility.yul\":36663:36664   */\n      0x00\n        /* \"#utility.yul\":36655:36661   */\n      dup3\n        /* \"#utility.yul\":36651:36665   */\n      add\n        /* \"#utility.yul\":36644:36702   */\n      mstore\n        /* \"#utility.yul\":36736:36744   */\n      0x7374617475730000000000000000000000000000000000000000000000000000\n        /* \"#utility.yul\":36731:36733   */\n      0x20\n        /* \"#utility.yul\":36723:36729   */\n      dup3\n        /* \"#utility.yul\":36719:36734   */\n      add\n        /* \"#utility.yul\":36712:36745   */\n      mstore\n        /* \"#utility.yul\":36527:36752   */\n      pop\n      jump\t// out\n        /* \"#utility.yul\":36758:36931   */\n    tag_669:\n        /* \"#utility.yul\":36898:36923   */\n      0x5573657220616c7265616479206d616465206f66666572000000000000000000\n        /* \"#utility.yul\":36894:36895   */\n      0x00\n        /* \"#utility.yul\":36886:36892   */\n      dup3\n        /* \"#utility.yul\":36882:36896   */\n      add\n        /* \"#utility.yul\":36875:36924   */\n      mstore\n        /* \"#utility.yul\":36758:36931   */\n      pop\n      jump\t// out\n        /* \"#utility.yul\":36937:37118   */\n    tag_674:\n        /* \"#utility.yul\":37077:37110   */\n      0x4f6e6c7920636f6d70616e792063616e206368616e6765206164647265737300\n        /* \"#utility.yul\":37073:37074   */\n      0x00\n        /* \"#utility.yul\":37065:37071   */\n      dup3\n        /* \"#utility.yul\":37061:37075   */\n      add\n        /* \"#utility.yul\":37054:37111   */\n      mstore\n        /* \"#utility.yul\":36937:37118   */\n      pop\n      jump\t// out\n        /* \"#utility.yul\":37124:37304   */\n    tag_679:\n        /* \"#utility.yul\":37264:37296   */\n      0x416d6f756e742070616964206973206c657373207468616e20746f74616c0000\n        /* \"#utility.yul\":37260:37261   */\n      0x00\n        /* \"#utility.yul\":37252:37258   */\n      dup3\n        /* \"#utility.yul\":37248:37262   */\n      add\n        /* \"#utility.yul\":37241:37297   */\n      mstore\n        /* \"#utility.yul\":37124:37304   */\n      pop\n      jump\t// out\n        /* \"#utility.yul\":37310:37432   */\n    tag_481:\n        /* \"#utility.yul\":37383:37407   */\n      tag_869\n        /* \"#utility.yul\":37401:37406   */\n      dup2\n        /* \"#utility.yul\":37383:37407   */\n      tag_575\n      jump\t// in\n    tag_869:\n        /* \"#utility.yul\":37376:37381   */\n      dup2\n        /* \"#utility.yul\":37373:37408   */\n      eq\n        /* \"#utility.yul\":37363:37426   */\n      tag_870\n      jumpi\n        /* \"#utility.yul\":37422:37423   */\n      0x00\n        /* \"#utility.yul\":37419:37420   */\n      dup1\n        /* \"#utility.yul\":37412:37424   */\n      revert\n        /* \"#utility.yul\":37363:37426   */\n    tag_870:\n        /* \"#utility.yul\":37310:37432   */\n      pop\n      jump\t// out\n        /* \"#utility.yul\":37438:37554   */\n    tag_485:\n        /* \"#utility.yul\":37508:37529   */\n      tag_872\n        /* \"#utility.yul\":37523:37528   */\n      dup2\n        /* \"#utility.yul\":37508:37529   */\n      tag_579\n      jump\t// in\n    tag_872:\n        /* \"#utility.yul\":37501:37506   */\n      dup2\n        /* \"#utility.yul\":37498:37530   */\n      eq\n        /* \"#utility.yul\":37488:37548   */\n      tag_873\n      jumpi\n        /* \"#utility.yul\":37544:37545   */\n      0x00\n        /* \"#utility.yul\":37541:37542   */\n      dup1\n        /* \"#utility.yul\":37534:37546   */\n      revert\n        /* \"#utility.yul\":37488:37548   */\n    tag_873:\n        /* \"#utility.yul\":37438:37554   */\n      pop\n      jump\t// out\n        /* \"#utility.yul\":37560:37680   */\n    tag_492:\n        /* \"#utility.yul\":37632:37655   */\n      tag_875\n        /* \"#utility.yul\":37649:37654   */\n      dup2\n        /* \"#utility.yul\":37632:37655   */\n      tag_583\n      jump\t// in\n    tag_875:\n        /* \"#utility.yul\":37625:37630   */\n      dup2\n        /* \"#utility.yul\":37622:37656   */\n      eq\n        /* \"#utility.yul\":37612:37674   */\n      tag_876\n      jumpi\n        /* \"#utility.yul\":37670:37671   */\n      0x00\n        /* \"#utility.yul\":37667:37668   */\n      dup1\n        /* \"#utility.yul\":37660:37672   */\n      revert\n        /* \"#utility.yul\":37612:37674   */\n    tag_876:\n        /* \"#utility.yul\":37560:37680   */\n      pop\n      jump\t// out\n        /* \"#utility.yul\":37686:37808   */\n    tag_502:\n        /* \"#utility.yul\":37759:37783   */\n      tag_878\n        /* \"#utility.yul\":37777:37782   */\n      dup2\n        /* \"#utility.yul\":37759:37783   */\n      tag_683\n      jump\t// in\n    tag_878:\n        /* \"#utility.yul\":37752:37757   */\n      dup2\n        /* \"#utility.yul\":37749:37784   */\n      eq\n        /* \"#utility.yul\":37739:37802   */\n      tag_879\n      jumpi\n        /* \"#utility.yul\":37798:37799   */\n      0x00\n        /* \"#utility.yul\":37795:37796   */\n      dup1\n        /* \"#utility.yul\":37788:37800   */\n      revert\n        /* \"#utility.yul\":37739:37802   */\n    tag_879:\n        /* \"#utility.yul\":37686:37808   */\n      pop\n      jump\t// out\n        /* \"#utility.yul\":37814:37934   */\n    tag_509:\n        /* \"#utility.yul\":37886:37909   */\n      tag_881\n        /* \"#utility.yul\":37903:37908   */\n      dup2\n        /* \"#utility.yul\":37886:37909   */\n      tag_821\n      jump\t// in\n    tag_881:\n        /* \"#utility.yul\":37879:37884   */\n      dup2\n        /* \"#utility.yul\":37876:37910   */\n      eq\n        /* \"#utility.yul\":37866:37928   */\n      tag_882\n      jumpi\n        /* \"#utility.yul\":37924:37925   */\n      0x00\n        /* \"#utility.yul\":37921:37922   */\n      dup1\n        /* \"#utility.yul\":37914:37926   */\n      revert\n        /* \"#utility.yul\":37866:37928   */\n    tag_882:\n        /* \"#utility.yul\":37814:37934   */\n      pop\n      jump\t// out\n\n    auxdata: 0xa26469706673582212207c6af5adbec90d850758ebe30dddf2bdba90fe7d1c12e4dabaf98c47a899ee0264736f6c63430008070033\n}\n",
				"bytecode": {
					"linkReferences": {},
					"object": "60806040523480156200001157600080fd5b506040516200538e3803806200538e8339818101604052810190620000379190620001b3565b60fa6002819055506000600a81905550670de0b6b3a7640000600781905550670de0b6b3a7640000600881905550670de0b6b3a764000060098190555033600360006101000a81548173ffffffffffffffffffffffffffffffffffffffff021916908373ffffffffffffffffffffffffffffffffffffffff1602179055506001600b60006101000a81548160ff02191690831515021790555082600460006101000a81548173ffffffffffffffffffffffffffffffffffffffff021916908373ffffffffffffffffffffffffffffffffffffffff16021790555081600560006101000a81548173ffffffffffffffffffffffffffffffffffffffff021916908373ffffffffffffffffffffffffffffffffffffffff16021790555080600660006101000a81548173ffffffffffffffffffffffffffffffffffffffff021916908373ffffffffffffffffffffffffffffffffffffffff16021790555050505062000262565b600081519050620001ad8162000248565b92915050565b600080600060608486031215620001cf57620001ce62000243565b5b6000620001df868287016200019c565b9350506020620001f2868287016200019c565b925050604062000205868287016200019c565b9150509250925092565b60006200021c8262000223565b9050919050565b600073ffffffffffffffffffffffffffffffffffffffff82169050919050565b600080fd5b62000253816200020f565b81146200025f57600080fd5b50565b61511c80620002726000396000f3fe6080604052600436106101f95760003560e01c8063741bef1a1161010d578063a0e50ca6116100a0578063d0e7a5cb1161006f578063d0e7a5cb1461075c578063d96a094a14610785578063e039bec7146107b5578063f851a440146107e0578063fd2e997e1461080b576101f9565b8063a0e50ca6146106a2578063af0d467b146106df578063c0eb4e7d14610708578063c0f0f73f14610731576101f9565b806386d6282c116100dc57806386d6282c146105f55780638e15f4731461061e578063918d407d14610649578063971d852f14610679576101f9565b8063741bef1a1461053b578063761610fc1461056657806382c35bfa1461058f57806383219a8a146105cc576101f9565b80632ffbb67811610190578063542826321161015f57806354282632146104355780636a166964146104605780636ab34a4a1461048b5780636bfb0d01146104d35780636c914501146104fe576101f9565b80632ffbb6781461037b57806334650412146103a457806340e58ee5146103e15780634162169f1461040a576101f9565b806322a5aebf116101cc57806322a5aebf146102d15780632453ffa8146102fc57806324ec7590146103275780632ab29df714610352576101f9565b8063101e1940146101fe578063166323021461023e5780631885f580146102675780631c8e896214610292575b600080fd5b34801561020a57600080fd5b5061022560048036038101906102209190613f5f565b61084d565b6040516102359493929190614489565b60405180910390f35b34801561024a57600080fd5b506102656004803603810190610260919061400c565b61099a565b005b34801561027357600080fd5b5061027c610c82565b60405161028991906146dc565b60405180910390f35b34801561029e57600080fd5b506102b960048036038101906102b49190613e15565b610c88565b6040516102c8939291906147d4565b60405180910390f35b3480156102dd57600080fd5b506102e6610cb2565b6040516102f3919061440f565b60405180910390f35b34801561030857600080fd5b50610311610cd8565b60405161031e91906146dc565b60405180910390f35b34801561033357600080fd5b5061033c610cde565b60405161034991906146dc565b60405180910390f35b34801561035e57600080fd5b5061037960048036038101906103749190613f8c565b610ce4565b005b34801561038757600080fd5b506103a2600480360381019061039d9190613e82565b610eb3565b005b3480156103b057600080fd5b506103cb60048036038101906103c69190613e42565b610f60565b6040516103d89190614453565b60405180910390f35b3480156103ed57600080fd5b5061040860048036038101906104039190613f5f565b610f8f565b005b34801561041657600080fd5b5061041f61130e565b60405161042c919061440f565b60405180910390f35b34801561044157600080fd5b5061044a611334565b60405161045791906146dc565b60405180910390f35b34801561046c57600080fd5b5061047561133a565b60405161048291906146dc565b60405180910390f35b34801561049757600080fd5b506104b260048036038101906104ad9190613f5f565b611340565b6040516104ca9c9b9a9998979695949392919061486c565b60405180910390f35b3480156104df57600080fd5b506104e8611407565b6040516104f591906146dc565b60405180910390f35b34801561050a57600080fd5b5061052560048036038101906105209190613edc565b61140d565b60405161053291906146dc565b60405180910390f35b34801561054757600080fd5b506105506115ba565b60405161055d919061440f565b60405180910390f35b34801561057257600080fd5b5061058d60048036038101906105889190613f5f565b6115e0565b005b34801561059b57600080fd5b506105b660048036038101906105b19190613e42565b611793565b6040516105c39190614453565b60405180910390f35b3480156105d857600080fd5b506105f360048036038101906105ee919061400c565b6117c2565b005b34801561060157600080fd5b5061061c60048036038101906106179190613f5f565b6118cc565b005b34801561062a57600080fd5b50610633611bb0565b604051610640919061446e565b60405180910390f35b610663600480360381019061065e9190613f8c565b611c60565b60405161067091906146dc565b60405180910390f35b34801561068557600080fd5b506106a0600480360381019061069b9190613f5f565b6121e3565b005b3480156106ae57600080fd5b506106c960048036038101906106c49190614068565b612bdc565b6040516106d69190614453565b60405180910390f35b3480156106eb57600080fd5b5061070660048036038101906107019190613f8c565b612c69565b005b34801561071457600080fd5b5061072f600480360381019061072a9190613fcc565b61327c565b005b34801561073d57600080fd5b50610746613389565b60405161075391906146dc565b60405180910390f35b34801561076857600080fd5b50610783600480360381019061077e9190614068565b61338f565b005b61079f600480360381019061079a9190613f5f565b613489565b6040516107ac91906146dc565b60405180910390f35b3480156107c157600080fd5b506107ca613963565b6040516107d79190614453565b60405180910390f35b3480156107ec57600080fd5b506107f5613976565b604051610802919061440f565b60405180910390f35b34801561081757600080fd5b50610832600480360381019061082d9190613f5f565b61399c565b6040516108449695949392919061476c565b60405180910390f35b600f60205280600052604060002060009150905080600001805461087090614b6f565b80601f016020809104026020016040519081016040528092919081815260200182805461089c90614b6f565b80156108e95780601f106108be576101008083540402835291602001916108e9565b820191906000526020600020905b8154815290600101906020018083116108cc57829003601f168201915b5050505050908060010180546108fe90614b6f565b80601f016020809104026020016040519081016040528092919081815260200182805461092a90614b6f565b80156109775780601f1061094c57610100808354040283529160200191610977565b820191906000526020600020905b81548152906001019060200180831161095a57829003601f168201915b5050505050908060020154908060030160009054906101000a900460ff16905084565b813373ffffffffffffffffffffffffffffffffffffffff16600d600083815260200190815260200160002060070160039054906101000a900473ffffffffffffffffffffffffffffffffffffffff1673ffffffffffffffffffffffffffffffffffffffff161480610a6c57503373ffffffffffffffffffffffffffffffffffffffff16600d600083815260200190815260200160002060080160009054906101000a900473ffffffffffffffffffffffffffffffffffffffff1673ffffffffffffffffffffffffffffffffffffffff16145b610aab576040517f08c379a0000000000000000000000000000000000000000000000000000000008152600401610aa2906145bc565b60405180910390fd5b60011515600f600085815260200190815260200160002060030160009054906101000a900460ff16151514610b15576040517f08c379a0000000000000000000000000000000000000000000000000000000008152600401610b0c9061461c565b60405180910390fd5b600d600084815260200190815260200160002060070160039054906101000a900473ffffffffffffffffffffffffffffffffffffffff1673ffffffffffffffffffffffffffffffffffffffff163373ffffffffffffffffffffffffffffffffffffffff161415610baf5781600f60008581526020019081526020016000206000019080519060200190610ba9929190613b62565b50610c46565b600d600084815260200190815260200160002060080160009054906101000a900473ffffffffffffffffffffffffffffffffffffffff1673ffffffffffffffffffffffffffffffffffffffff163373ffffffffffffffffffffffffffffffffffffffff161415610c455781600f60008581526020019081526020016000206001019080519060200190610c43929190613b62565b505b5b7f29a00cd7b143153a043355a38ed7fa14305cd81468035c2e2e389897f38980d883604051610c7591906146dc565b60405180910390a1505050565b60095481565b60106020528060005260406000206000915090508060000154908060010154908060020154905083565b600560009054906101000a900473ffffffffffffffffffffffffffffffffffffffff1681565b60005481565b600a5481565b600360009054906101000a900473ffffffffffffffffffffffffffffffffffffffff1673ffffffffffffffffffffffffffffffffffffffff163373ffffffffffffffffffffffffffffffffffffffff1614610d74576040517f08c379a0000000000000000000000000000000000000000000000000000000008152600401610d6b9061469c565b60405180910390fd5b6000821415610dc35780600460006101000a81548173ffffffffffffffffffffffffffffffffffffffff021916908373ffffffffffffffffffffffffffffffffffffffff160217905550610eaf565b6001821415610e125780600360006101000a81548173ffffffffffffffffffffffffffffffffffffffff021916908373ffffffffffffffffffffffffffffffffffffffff160217905550610eae565b6002821415610e615780600560006101000a81548173ffffffffffffffffffffffffffffffffffffffff021916908373ffffffffffffffffffffffffffffffffffffffff160217905550610ead565b6003821415610eac5780600660006101000a81548173ffffffffffffffffffffffffffffffffffffffff021916908373ffffffffffffffffffffffffffffffffffffffff1602179055505b5b5b5b5050565b600360009054906101000a900473ffffffffffffffffffffffffffffffffffffffff1673ffffffffffffffffffffffffffffffffffffffff163373ffffffffffffffffffffffffffffffffffffffff1614610f43576040517f08c379a0000000000000000000000000000000000000000000000000000000008152600401610f3a9061465c565b60405180910390fd5b80600b60006101000a81548160ff02191690831515021790555050565b600e6020528160005260406000206020528060005260406000206000915091509054906101000a900460ff1681565b600d600082815260200190815260200160002060080160009054906101000a900473ffffffffffffffffffffffffffffffffffffffff1673ffffffffffffffffffffffffffffffffffffffff163373ffffffffffffffffffffffffffffffffffffffff1614611033576040517f08c379a000000000000000000000000000000000000000000000000000000000815260040161102a9061455c565b60405180910390fd5b60011515600d600083815260200190815260200160002060070160029054906101000a900460ff1615151461109d576040517f08c379a00000000000000000000000000000000000000000000000000000000081526004016110949061457c565b60405180910390fd5b6002600d600083815260200190815260200160002060070160016101000a81548160ff021916908360ff1602179055506002600d600083815260200190815260200160002060070160006101000a81548160ff021916908360ff1602179055506000600d600083815260200190815260200160002060070160026101000a81548160ff021916908315150217905550600160106000600d600085815260200190815260200160002060080160009054906101000a900473ffffffffffffffffffffffffffffffffffffffff1673ffffffffffffffffffffffffffffffffffffffff1673ffffffffffffffffffffffffffffffffffffffff16815260200190815260200160002060000160008282546111b591906149a3565b92505081905550600080600d600084815260200190815260200160002060070160039054906101000a900473ffffffffffffffffffffffffffffffffffffffff1673ffffffffffffffffffffffffffffffffffffffff16600d60008581526020019081526020016000206002015460405161122f906143fa565b60006040518083038185875af1925050503d806000811461126c576040519150601f19603f3d011682016040523d82523d6000602084013e611271565b606091505b5091509150816112b6576040517f08c379a00000000000000000000000000000000000000000000000000000000081526004016112ad906144fc565b60405180910390fd5b6000600d6000858152602001908152602001600020600401819055507fb8b459bc0688c37baf5f735d17f1711684bc14ab7db116f88bc18bf409b9309a8360405161130191906146dc565b60405180910390a1505050565b600460009054906101000a900473ffffffffffffffffffffffffffffffffffffffff1681565b60085481565b60025481565b600d6020528060005260406000206000915090508060000154908060010154908060020154908060030154908060040154908060050154908060060154908060070160009054906101000a900460ff16908060070160019054906101000a900460ff16908060070160029054906101000a900460ff16908060070160039054906101000a900473ffffffffffffffffffffffffffffffffffffffff16908060080160009054906101000a900473ffffffffffffffffffffffffffffffffffffffff1690508c565b60015481565b60006001600081548092919061142290614bd2565b919050555061142f613be8565b600154816000018181525050858160200181905250848160400190151590811515815250508381606001818152505033816080019073ffffffffffffffffffffffffffffffffffffffff16908173ffffffffffffffffffffffffffffffffffffffff1681525050828160a001818152505080600c6000836000015181526020019081526020016000206000820151816000015560208201518160010190805190602001906114de929190613b62565b5060408201518160020160006101000a81548160ff0219169083151502179055506060820151816003015560808201518160040160006101000a81548173ffffffffffffffffffffffffffffffffffffffff021916908373ffffffffffffffffffffffffffffffffffffffff16021790555060a082015181600501559050507f1603f20f721362b0691bb408edb3cf01409cd56da9edd4627b178750b7dd49a88160000151826080015183602001518460a001516040516115a29493929190614720565b60405180910390a18060000151915050949350505050565b600660009054906101000a900473ffffffffffffffffffffffffffffffffffffffff1681565b60011515600c600083815260200190815260200160002060020160009054906101000a900460ff1615151461164a576040517f08c379a0000000000000000000000000000000000000000000000000000000008152600401611641906145dc565b60405180910390fd5b60001515600e60003373ffffffffffffffffffffffffffffffffffffffff1673ffffffffffffffffffffffffffffffffffffffff168152602001908152602001600020600083815260200190815260200160002060009054906101000a900460ff161515146116ee576040517f08c379a00000000000000000000000000000000000000000000000000000000081526004016116e59061467c565b60405180910390fd5b6001600e60003373ffffffffffffffffffffffffffffffffffffffff1673ffffffffffffffffffffffffffffffffffffffff168152602001908152602001600020600083815260200190815260200160002060006101000a81548160ff0219169083151502179055507fb9fc72ab4a132463342124fb4c5ebd64bee8a9874c05d37f846eaf5758eff4b281336040516117889291906146f7565b60405180910390a150565b60116020528160005260406000206020528060005260406000206000915091509054906101000a900460ff1681565b600c600083815260200190815260200160002060040160009054906101000a900473ffffffffffffffffffffffffffffffffffffffff1673ffffffffffffffffffffffffffffffffffffffff163373ffffffffffffffffffffffffffffffffffffffff1614611866576040517f08c379a000000000000000000000000000000000000000000000000000000000815260040161185d9061459c565b60405180910390fd5b80600c60008481526020019081526020016000206001019080519060200190611890929190613b62565b507f5e58dfa592b09c585a4ab7ef8158d20b1e52e9897f3095dbe1df700853905c2f826040516118c091906146dc565b60405180910390a15050565b803373ffffffffffffffffffffffffffffffffffffffff16600d600083815260200190815260200160002060070160039054906101000a900473ffffffffffffffffffffffffffffffffffffffff1673ffffffffffffffffffffffffffffffffffffffff16148061199e57503373ffffffffffffffffffffffffffffffffffffffff16600d600083815260200190815260200160002060080160009054906101000a900473ffffffffffffffffffffffffffffffffffffffff1673ffffffffffffffffffffffffffffffffffffffff16145b6119dd576040517f08c379a00000000000000000000000000000000000000000000000000000000081526004016119d4906145bc565b60405180910390fd5b60011515600d600084815260200190815260200160002060070160029054906101000a900460ff16151514611a47576040517f08c379a0000000000000000000000000000000000000000000000000000000008152600401611a3e9061457c565b60405180910390fd5b6003600d600084815260200190815260200160002060070160016101000a81548160ff021916908360ff1602179055506003600d600084815260200190815260200160002060070160006101000a81548160ff021916908360ff1602179055506000600d600084815260200190815260200160002060070160026101000a81548160ff021916908315150217905550611ade613c36565b43816040018181525050600181606001901515908115158152505080600f60008581526020019081526020016000206000820151816000019080519060200190611b29929190613b62565b506020820151816001019080519060200190611b46929190613b62565b506040820151816002015560608201518160030160006101000a81548160ff0219169083151502179055509050507fbe50084412c1b5b360c595d895466a9298980a464614ce7fd487fb4c7421f42683604051611ba391906146dc565b60405180910390a1505050565b600080600660009054906101000a900473ffffffffffffffffffffffffffffffffffffffff1673ffffffffffffffffffffffffffffffffffffffff1663feaf968c6040518163ffffffff1660e01b815260040160a06040518083038186803b158015611c1b57600080fd5b505afa158015611c2f573d6000803e3d6000fd5b505050506040513d601f19601f82011682018060405250810190611c5391906140a8565b5050509150508091505090565b6000600c600084815260200190815260200160002060040160009054906101000a900473ffffffffffffffffffffffffffffffffffffffff1673ffffffffffffffffffffffffffffffffffffffff163373ffffffffffffffffffffffffffffffffffffffff1614611d06576040517f08c379a0000000000000000000000000000000000000000000000000000000008152600401611cfd9061463c565b60405180910390fd5b60011515600e60008473ffffffffffffffffffffffffffffffffffffffff1673ffffffffffffffffffffffffffffffffffffffff168152602001908152602001600020600085815260200190815260200160002060009054906101000a900460ff16151514611daa576040517f08c379a0000000000000000000000000000000000000000000000000000000008152600401611da1906145fc565b60405180910390fd5b600080815480929190611dbc90614bd2565b9190505550611dc9613c60565b611dd1611bb0565b8160c001818152505060006305f5e1008260c00151600c600088815260200190815260200160002060030154611e0791906149f9565b611e119190614a2a565b9050600061271082600254611e269190614a2a565b611e3091906149f9565b905081341015611e75576040517f08c379a0000000000000000000000000000000000000000000000000000000008152600401611e6c906146bc565b60405180910390fd5b60005483600001818152505085836020018181525050600c6000878152602001908152602001600020600301548360a00181815250508183604001818152505080836080018181525050600183610120019015159081151581525050438360600181815250503383610140019073ffffffffffffffffffffffffffffffffffffffff16908173ffffffffffffffffffffffffffffffffffffffff16815250508483610160019073ffffffffffffffffffffffffffffffffffffffff16908173ffffffffffffffffffffffffffffffffffffffff168152505082600d600085600001518152602001908152602001600020600082015181600001556020820151816001015560408201518160020155606082015181600301556080820151816004015560a0820151816005015560c0820151816006015560e08201518160070160006101000a81548160ff021916908360ff1602179055506101008201518160070160016101000a81548160ff021916908360ff1602179055506101208201518160070160026101000a81548160ff0219169083151502179055506101408201518160070160036101000a81548173ffffffffffffffffffffffffffffffffffffffff021916908373ffffffffffffffffffffffffffffffffffffffff1602179055506101608201518160080160006101000a81548173ffffffffffffffffffffffffffffffffffffffff021916908373ffffffffffffffffffffffffffffffffffffffff16021790555090505081341115612166576000803373ffffffffffffffffffffffffffffffffffffffff1684346120d09190614a84565b6040516120dc906143fa565b60006040518083038185875af1925050503d8060008114612119576040519150601f19603f3d011682016040523d82523d6000602084013e61211e565b606091505b509150915081612163576040517f08c379a000000000000000000000000000000000000000000000000000000000815260040161215a906144fc565b60405180910390fd5b50505b7f99fbe004d22c3a2c77dfabf08b2c8aa74000120f76db47401ab456fca80049e9836000015184602001518560400151600c60008b8152602001908152602001600020600501548761014001518861016001516040516121cb9695949392919061480b565b60405180910390a18260000151935050505092915050565b803373ffffffffffffffffffffffffffffffffffffffff16600d600083815260200190815260200160002060070160039054906101000a900473ffffffffffffffffffffffffffffffffffffffff1673ffffffffffffffffffffffffffffffffffffffff1614806122b557503373ffffffffffffffffffffffffffffffffffffffff16600d600083815260200190815260200160002060080160009054906101000a900473ffffffffffffffffffffffffffffffffffffffff1673ffffffffffffffffffffffffffffffffffffffff16145b6122f4576040517f08c379a00000000000000000000000000000000000000000000000000000000081526004016122eb906145bc565b60405180910390fd5b60011515600d600084815260200190815260200160002060070160029054906101000a900460ff1615151461235e576040517f08c379a00000000000000000000000000000000000000000000000000000000081526004016123559061457c565b60405180910390fd5b600d600083815260200190815260200160002060070160039054906101000a900473ffffffffffffffffffffffffffffffffffffffff1673ffffffffffffffffffffffffffffffffffffffff163373ffffffffffffffffffffffffffffffffffffffff161480156124305750600d600083815260200190815260200160002060080160009054906101000a900473ffffffffffffffffffffffffffffffffffffffff1673ffffffffffffffffffffffffffffffffffffffff163373ffffffffffffffffffffffffffffffffffffffff16145b1561249a576001600d600084815260200190815260200160002060070160006101000a81548160ff021916908360ff1602179055506001600d600084815260200190815260200160002060070160016101000a81548160ff021916908360ff1602179055506125d6565b600d600083815260200190815260200160002060070160039054906101000a900473ffffffffffffffffffffffffffffffffffffffff1673ffffffffffffffffffffffffffffffffffffffff163373ffffffffffffffffffffffffffffffffffffffff161415612539576001600d600084815260200190815260200160002060070160006101000a81548160ff021916908360ff1602179055506125d5565b600d600083815260200190815260200160002060080160009054906101000a900473ffffffffffffffffffffffffffffffffffffffff1673ffffffffffffffffffffffffffffffffffffffff163373ffffffffffffffffffffffffffffffffffffffff1614156125d4576001600d600084815260200190815260200160002060070160016101000a81548160ff021916908360ff1602179055505b5b5b6001600d600084815260200190815260200160002060070160009054906101000a900460ff1660ff1614801561263257506001600d600084815260200190815260200160002060070160019054906101000a900460ff1660ff16145b15612ba1576000600d600084815260200190815260200160002060070160026101000a81548160ff021916908315150217905550600080600d600085815260200190815260200160002060080160009054906101000a900473ffffffffffffffffffffffffffffffffffffffff1673ffffffffffffffffffffffffffffffffffffffff16600d600086815260200190815260200160002060040154600d6000878152602001908152602001600020600201546126ee9190614a84565b6040516126fa906143fa565b60006040518083038185875af1925050503d8060008114612737576040519150601f19603f3d011682016040523d82523d6000602084013e61273c565b606091505b509150915081612781576040517f08c379a0000000000000000000000000000000000000000000000000000000008152600401612778906144fc565b60405180910390fd5b6127a0600d600086815260200190815260200160002060040154613a8d565b600160106000600d600088815260200190815260200160002060070160039054906101000a900473ffffffffffffffffffffffffffffffffffffffff1673ffffffffffffffffffffffffffffffffffffffff1673ffffffffffffffffffffffffffffffffffffffff168152602001908152602001600020600101600082825461282991906149a3565b92505081905550600160106000600d600088815260200190815260200160002060080160009054906101000a900473ffffffffffffffffffffffffffffffffffffffff1673ffffffffffffffffffffffffffffffffffffffff1673ffffffffffffffffffffffffffffffffffffffff16815260200190815260200160002060010160008282546128b991906149a3565b92505081905550600b60009054906101000a900460ff1680156128f45750600a54600d60008681526020019081526020016000206004015410155b15612b9e57600560009054906101000a900473ffffffffffffffffffffffffffffffffffffffff1673ffffffffffffffffffffffffffffffffffffffff16639a49090e600d600087815260200190815260200160002060070160039054906101000a900473ffffffffffffffffffffffffffffffffffffffff166007546040518363ffffffff1660e01b815260040161298e92919061442a565b602060405180830381600087803b1580156129a857600080fd5b505af11580156129bc573d6000803e3d6000fd5b505050506040513d601f19601f820116820180604052508101906129e09190613eaf565b50600560009054906101000a900473ffffffffffffffffffffffffffffffffffffffff1673ffffffffffffffffffffffffffffffffffffffff16639a49090e600d600087815260200190815260200160002060080160009054906101000a900473ffffffffffffffffffffffffffffffffffffffff166008546040518363ffffffff1660e01b8152600401612a7692919061442a565b602060405180830381600087803b158015612a9057600080fd5b505af1158015612aa4573d6000803e3d6000fd5b505050506040513d601f19601f82011682018060405250810190612ac89190613eaf565b50600560009054906101000a900473ffffffffffffffffffffffffffffffffffffffff1673ffffffffffffffffffffffffffffffffffffffff16639a49090e600360009054906101000a900473ffffffffffffffffffffffffffffffffffffffff166009546040518363ffffffff1660e01b8152600401612b4a92919061442a565b602060405180830381600087803b158015612b6457600080fd5b505af1158015612b78573d6000803e3d6000fd5b505050506040513d601f19601f82011682018060405250810190612b9c9190613eaf565b505b50505b7fb8b459bc0688c37baf5f735d17f1711684bc14ab7db116f88bc18bf409b9309a82604051612bd091906146dc565b60405180910390a15050565b60003373ffffffffffffffffffffffffffffffffffffffff16600460009054906101000a900473ffffffffffffffffffffffffffffffffffffffff1673ffffffffffffffffffffffffffffffffffffffff1614612c3857600080fd5b6000831415612c4d5781600281905550612c5f565b6001831415612c5e5781600a819055505b5b6001905092915050565b60011515600f600084815260200190815260200160002060030160009054906101000a900460ff16151514612cd3576040517f08c379a0000000000000000000000000000000000000000000000000000000008152600401612cca9061451c565b60405180910390fd5b600360009054906101000a900473ffffffffffffffffffffffffffffffffffffffff1673ffffffffffffffffffffffffffffffffffffffff163373ffffffffffffffffffffffffffffffffffffffff1614612d63576040517f08c379a0000000000000000000000000000000000000000000000000000000008152600401612d5a9061453c565b60405180910390fd5b600d600083815260200190815260200160002060070160039054906101000a900473ffffffffffffffffffffffffffffffffffffffff1673ffffffffffffffffffffffffffffffffffffffff168173ffffffffffffffffffffffffffffffffffffffff161415612eea57600080600d600085815260200190815260200160002060070160039054906101000a900473ffffffffffffffffffffffffffffffffffffffff1673ffffffffffffffffffffffffffffffffffffffff16600d600086815260200190815260200160002060020154604051612e40906143fa565b60006040518083038185875af1925050503d8060008114612e7d576040519150601f19603f3d011682016040523d82523d6000602084013e612e82565b606091505b509150915081612ec7576040517f08c379a0000000000000000000000000000000000000000000000000000000008152600401612ebe906144fc565b60405180910390fd5b6000600d6000868152602001908152602001600020600401819055505050613092565b600d600083815260200190815260200160002060080160009054906101000a900473ffffffffffffffffffffffffffffffffffffffff1673ffffffffffffffffffffffffffffffffffffffff168173ffffffffffffffffffffffffffffffffffffffff16141561309157600080600d600085815260200190815260200160002060080160009054906101000a900473ffffffffffffffffffffffffffffffffffffffff1673ffffffffffffffffffffffffffffffffffffffff16600d600086815260200190815260200160002060040154600d600087815260200190815260200160002060020154612fdc9190614a84565b604051612fe8906143fa565b60006040518083038185875af1925050503d8060008114613025576040519150601f19603f3d011682016040523d82523d6000602084013e61302a565b606091505b50915091508161306f576040517f08c379a0000000000000000000000000000000000000000000000000000000008152600401613066906144fc565b60405180910390fd5b61308e600d600086815260200190815260200160002060040154613a8d565b50505b5b6004600d600084815260200190815260200160002060070160016101000a81548160ff021916908360ff1602179055506004600d600084815260200190815260200160002060070160006101000a81548160ff021916908360ff160217905550600160106000600d600086815260200190815260200160002060070160039054906101000a900473ffffffffffffffffffffffffffffffffffffffff1673ffffffffffffffffffffffffffffffffffffffff1673ffffffffffffffffffffffffffffffffffffffff168152602001908152602001600020600201600082825461317b91906149a3565b92505081905550600160106000600d600086815260200190815260200160002060080160009054906101000a900473ffffffffffffffffffffffffffffffffffffffff1673ffffffffffffffffffffffffffffffffffffffff1673ffffffffffffffffffffffffffffffffffffffff168152602001908152602001600020600201600082825461320b91906149a3565b925050819055506000600f600084815260200190815260200160002060030160006101000a81548160ff0219169083151502179055507f29a00cd7b143153a043355a38ed7fa14305cd81468035c2e2e389897f38980d88260405161327091906146dc565b60405180910390a15050565b600c600083815260200190815260200160002060040160009054906101000a900473ffffffffffffffffffffffffffffffffffffffff1673ffffffffffffffffffffffffffffffffffffffff163373ffffffffffffffffffffffffffffffffffffffff1614613320576040517f08c379a00000000000000000000000000000000000000000000000000000000081526004016133179061459c565b60405180910390fd5b80600c600084815260200190815260200160002060020160006101000a81548160ff0219169083151502179055507f5e58dfa592b09c585a4ab7ef8158d20b1e52e9897f3095dbe1df700853905c2f8260405161337d91906146dc565b60405180910390a15050565b60075481565b600c600083815260200190815260200160002060040160009054906101000a900473ffffffffffffffffffffffffffffffffffffffff1673ffffffffffffffffffffffffffffffffffffffff163373ffffffffffffffffffffffffffffffffffffffff1614613433576040517f08c379a000000000000000000000000000000000000000000000000000000000815260040161342a9061459c565b60405180910390fd5b80600c6000848152602001908152602001600020600301819055507f5e58dfa592b09c585a4ab7ef8158d20b1e52e9897f3095dbe1df700853905c2f8260405161347d91906146dc565b60405180910390a15050565b600060011515600c600084815260200190815260200160002060020160009054906101000a900460ff161515146134f5576040517f08c379a00000000000000000000000000000000000000000000000000000000081526004016134ec906144dc565b60405180910390fd5b60008081548092919061350790614bd2565b9190505550613514613c60565b61351c611bb0565b8160c001818152505060006305f5e1008260c00151600c60008781526020019081526020016000206003015461355291906149f9565b61355c9190614a2a565b90506000612710826002546135719190614a2a565b61357b91906149f9565b9050813410156135c0576040517f08c379a00000000000000000000000000000000000000000000000000000000081526004016135b7906146bc565b60405180910390fd5b60005483600001818152505084836020018181525050600c6000868152602001908152602001600020600301548360a00181815250508183604001818152505080836080018181525050600183610120019015159081151581525050438360600181815250503383610140019073ffffffffffffffffffffffffffffffffffffffff16908173ffffffffffffffffffffffffffffffffffffffff1681525050600c600086815260200190815260200160002060040160009054906101000a900473ffffffffffffffffffffffffffffffffffffffff1683610160019073ffffffffffffffffffffffffffffffffffffffff16908173ffffffffffffffffffffffffffffffffffffffff168152505082600d600085600001518152602001908152602001600020600082015181600001556020820151816001015560408201518160020155606082015181600301556080820151816004015560a0820151816005015560c0820151816006015560e08201518160070160006101000a81548160ff021916908360ff1602179055506101008201518160070160016101000a81548160ff021916908360ff1602179055506101208201518160070160026101000a81548160ff0219169083151502179055506101408201518160070160036101000a81548173ffffffffffffffffffffffffffffffffffffffff021916908373ffffffffffffffffffffffffffffffffffffffff1602179055506101608201518160080160006101000a81548173ffffffffffffffffffffffffffffffffffffffff021916908373ffffffffffffffffffffffffffffffffffffffff160217905550905050813411156138e7576000803373ffffffffffffffffffffffffffffffffffffffff1684346138519190614a84565b60405161385d906143fa565b60006040518083038185875af1925050503d806000811461389a576040519150601f19603f3d011682016040523d82523d6000602084013e61389f565b606091505b5091509150816138e4576040517f08c379a00000000000000000000000000000000000000000000000000000000081526004016138db906144fc565b60405180910390fd5b50505b7f99fbe004d22c3a2c77dfabf08b2c8aa74000120f76db47401ab456fca80049e9836000015184602001518560400151600c60008a81526020019081526020016000206005015487610140015188610160015160405161394c9695949392919061480b565b60405180910390a182600001519350505050919050565b600b60009054906101000a900460ff1681565b600360009054906101000a900473ffffffffffffffffffffffffffffffffffffffff1681565b600c6020528060005260406000206000915090508060000154908060010180546139c590614b6f565b80601f01602080910402602001604051908101604052809291908181526020018280546139f190614b6f565b8015613a3e5780601f10613a1357610100808354040283529160200191613a3e565b820191906000526020600020905b815481529060010190602001808311613a2157829003601f168201915b5050505050908060020160009054906101000a900460ff16908060030154908060040160009054906101000a900473ffffffffffffffffffffffffffffffffffffffff16908060050154905086565b600080600460009054906101000a900473ffffffffffffffffffffffffffffffffffffffff1673ffffffffffffffffffffffffffffffffffffffff1683604051613ad6906143fa565b60006040518083038185875af1925050503d8060008114613b13576040519150601f19603f3d011682016040523d82523d6000602084013e613b18565b606091505b509150915081613b5d576040517f08c379a0000000000000000000000000000000000000000000000000000000008152600401613b54906144fc565b60405180910390fd5b505050565b828054613b6e90614b6f565b90600052602060002090601f016020900481019282613b905760008555613bd7565b82601f10613ba957805160ff1916838001178555613bd7565b82800160010185558215613bd7579182015b82811115613bd6578251825591602001919060010190613bbb565b5b509050613be49190613cf5565b5090565b6040518060c00160405280600081526020016060815260200160001515815260200160008152602001600073ffffffffffffffffffffffffffffffffffffffff168152602001600081525090565b60405180608001604052806060815260200160608152602001600081526020016000151581525090565b60405180610180016040528060008152602001600081526020016000815260200160008152602001600081526020016000815260200160008152602001600060ff168152602001600060ff168152602001600015158152602001600073ffffffffffffffffffffffffffffffffffffffff168152602001600073ffffffffffffffffffffffffffffffffffffffff1681525090565b5b80821115613d0e576000816000905550600101613cf6565b5090565b6000613d25613d208461494b565b614926565b905082815260208101848484011115613d4157613d40614cdc565b5b613d4c848285614b2d565b509392505050565b600081359050613d6381615073565b92915050565b600081359050613d788161508a565b92915050565b600081519050613d8d8161508a565b92915050565b600081519050613da2816150a1565b92915050565b600082601f830112613dbd57613dbc614cd7565b5b8135613dcd848260208601613d12565b91505092915050565b600081359050613de5816150b8565b92915050565b600081519050613dfa816150b8565b92915050565b600081519050613e0f816150cf565b92915050565b600060208284031215613e2b57613e2a614ce6565b5b6000613e3984828501613d54565b91505092915050565b60008060408385031215613e5957613e58614ce6565b5b6000613e6785828601613d54565b9250506020613e7885828601613dd6565b9150509250929050565b600060208284031215613e9857613e97614ce6565b5b6000613ea684828501613d69565b91505092915050565b600060208284031215613ec557613ec4614ce6565b5b6000613ed384828501613d7e565b91505092915050565b60008060008060808587031215613ef657613ef5614ce6565b5b600085013567ffffffffffffffff811115613f1457613f13614ce1565b5b613f2087828801613da8565b9450506020613f3187828801613d69565b9350506040613f4287828801613dd6565b9250506060613f5387828801613dd6565b91505092959194509250565b600060208284031215613f7557613f74614ce6565b5b6000613f8384828501613dd6565b91505092915050565b60008060408385031215613fa357613fa2614ce6565b5b6000613fb185828601613dd6565b9250506020613fc285828601613d54565b9150509250929050565b60008060408385031215613fe357613fe2614ce6565b5b6000613ff185828601613dd6565b925050602061400285828601613d69565b9150509250929050565b6000806040838503121561402357614022614ce6565b5b600061403185828601613dd6565b925050602083013567ffffffffffffffff81111561405257614051614ce1565b5b61405e85828601613da8565b9150509250929050565b6000806040838503121561407f5761407e614ce6565b5b600061408d85828601613dd6565b925050602061409e85828601613dd6565b9150509250929050565b600080600080600060a086880312156140c4576140c3614ce6565b5b60006140d288828901613e00565b95505060206140e388828901613d93565b94505060406140f488828901613deb565b935050606061410588828901613deb565b925050608061411688828901613e00565b9150509295509295909350565b61412c81614ab8565b82525050565b61413b81614aca565b82525050565b61414a81614ad6565b82525050565b600061415b8261497c565b6141658185614992565b9350614175818560208601614b3c565b61417e81614ceb565b840191505092915050565b6000614196602383614992565b91506141a182614cfc565b604082019050919050565b60006141b9601483614992565b91506141c482614d4b565b602082019050919050565b60006141dc602a83614992565b91506141e782614d74565b604082019050919050565b60006141ff602583614992565b915061420a82614dc3565b604082019050919050565b6000614222601683614992565b915061422d82614e12565b602082019050919050565b6000614245601283614992565b915061425082614e3b565b602082019050919050565b6000614268601883614992565b915061427382614e64565b602082019050919050565b600061428b602583614992565b915061429682614e8d565b604082019050919050565b60006142ae600d83614992565b91506142b982614edc565b602082019050919050565b60006142d1600083614987565b91506142dc82614f05565b600082019050919050565b60006142f4602f83614992565b91506142ff82614f08565b604082019050919050565b6000614317601283614992565b915061432282614f57565b602082019050919050565b600061433a602083614992565b915061434582614f80565b602082019050919050565b600061435d602683614992565b915061436882614fa9565b604082019050919050565b6000614380601783614992565b915061438b82614ff8565b602082019050919050565b60006143a3601f83614992565b91506143ae82615021565b602082019050919050565b60006143c6601e83614992565b91506143d18261504a565b602082019050919050565b6143e581614b00565b82525050565b6143f481614b0a565b82525050565b6000614405826142c4565b9150819050919050565b60006020820190506144246000830184614123565b92915050565b600060408201905061443f6000830185614123565b61444c60208301846143dc565b9392505050565b60006020820190506144686000830184614132565b92915050565b60006020820190506144836000830184614141565b92915050565b600060808201905081810360008301526144a38187614150565b905081810360208301526144b78186614150565b90506144c660408301856143dc565b6144d36060830184614132565b95945050505050565b600060208201905081810360008301526144f581614189565b9050919050565b60006020820190508181036000830152614515816141ac565b9050919050565b60006020820190508181036000830152614535816141cf565b9050919050565b60006020820190508181036000830152614555816141f2565b9050919050565b6000602082019050818103600083015261457581614215565b9050919050565b6000602082019050818103600083015261459581614238565b9050919050565b600060208201905081810360008301526145b58161425b565b9050919050565b600060208201905081810360008301526145d58161427e565b9050919050565b600060208201905081810360008301526145f5816142a1565b9050919050565b60006020820190508181036000830152614615816142e7565b9050919050565b600060208201905081810360008301526146358161430a565b9050919050565b600060208201905081810360008301526146558161432d565b9050919050565b6000602082019050818103600083015261467581614350565b9050919050565b6000602082019050818103600083015261469581614373565b9050919050565b600060208201905081810360008301526146b581614396565b9050919050565b600060208201905081810360008301526146d5816143b9565b9050919050565b60006020820190506146f160008301846143dc565b92915050565b600060408201905061470c60008301856143dc565b6147196020830184614123565b9392505050565b600060808201905061473560008301876143dc565b6147426020830186614123565b81810360408301526147548185614150565b905061476360608301846143dc565b95945050505050565b600060c08201905061478160008301896143dc565b81810360208301526147938188614150565b90506147a26040830187614132565b6147af60608301866143dc565b6147bc6080830185614123565b6147c960a08301846143dc565b979650505050505050565b60006060820190506147e960008301866143dc565b6147f660208301856143dc565b61480360408301846143dc565b949350505050565b600060c08201905061482060008301896143dc565b61482d60208301886143dc565b61483a60408301876143dc565b61484760608301866143dc565b6148546080830185614123565b61486160a0830184614123565b979650505050505050565b600061018082019050614882600083018f6143dc565b61488f602083018e6143dc565b61489c604083018d6143dc565b6148a9606083018c6143dc565b6148b6608083018b6143dc565b6148c360a083018a6143dc565b6148d060c08301896143dc565b6148dd60e08301886143eb565b6148eb6101008301876143eb565b6148f9610120830186614132565b614907610140830185614123565b614915610160830184614123565b9d9c50505050505050505050505050565b6000614930614941565b905061493c8282614ba1565b919050565b6000604051905090565b600067ffffffffffffffff82111561496657614965614ca8565b5b61496f82614ceb565b9050602081019050919050565b600081519050919050565b600081905092915050565b600082825260208201905092915050565b60006149ae82614b00565b91506149b983614b00565b9250827fffffffffffffffffffffffffffffffffffffffffffffffffffffffffffffffff038211156149ee576149ed614c1b565b5b828201905092915050565b6000614a0482614b00565b9150614a0f83614b00565b925082614a1f57614a1e614c4a565b5b828204905092915050565b6000614a3582614b00565b9150614a4083614b00565b9250817fffffffffffffffffffffffffffffffffffffffffffffffffffffffffffffffff0483118215151615614a7957614a78614c1b565b5b828202905092915050565b6000614a8f82614b00565b9150614a9a83614b00565b925082821015614aad57614aac614c1b565b5b828203905092915050565b6000614ac382614ae0565b9050919050565b60008115159050919050565b6000819050919050565b600073ffffffffffffffffffffffffffffffffffffffff82169050919050565b6000819050919050565b600060ff82169050919050565b600069ffffffffffffffffffff82169050919050565b82818337600083830152505050565b60005b83811015614b5a578082015181840152602081019050614b3f565b83811115614b69576000848401525b50505050565b60006002820490506001821680614b8757607f821691505b60208210811415614b9b57614b9a614c79565b5b50919050565b614baa82614ceb565b810181811067ffffffffffffffff82111715614bc957614bc8614ca8565b5b80604052505050565b6000614bdd82614b00565b91507fffffffffffffffffffffffffffffffffffffffffffffffffffffffffffffffff821415614c1057614c0f614c1b565b5b600182019050919050565b7f4e487b7100000000000000000000000000000000000000000000000000000000600052601160045260246000fd5b7f4e487b7100000000000000000000000000000000000000000000000000000000600052601260045260246000fd5b7f4e487b7100000000000000000000000000000000000000000000000000000000600052602260045260246000fd5b7f4e487b7100000000000000000000000000000000000000000000000000000000600052604160045260246000fd5b600080fd5b600080fd5b600080fd5b600080fd5b6000601f19601f8301169050919050565b7f4974656d206e6f7420666f722073616c65206f7220646f65736e27742065786960008201527f73742e0000000000000000000000000000000000000000000000000000000000602082015250565b7f4661696c656420746f2053656e64204574686572000000000000000000000000600082015250565b7f446973707574652069736e2774206c697665206f7220697320616c726561647960008201527f207265736f6c7665642e00000000000000000000000000000000000000000000602082015250565b7f4f6e6c792044414f20616464726573732063616e207265736f6c76652064697360008201527f7075746573000000000000000000000000000000000000000000000000000000602082015250565b7f4f6e6c792073656c6c65722063616e2063616e63656c00000000000000000000600082015250565b7f4f726465722069736e2774206163746976650000000000000000000000000000600082015250565b7f4f6e6c79206974656d206f776e65722063616e20656469740000000000000000600082015250565b7f4e6f7420617574686f72697a65642e204275796572206f722053656c6c65722060008201527f6f6e6c792e000000000000000000000000000000000000000000000000000000602082015250565b7f4e6f7420617661696c61626c6500000000000000000000000000000000000000600082015250565b50565b7f43616e206f6e6c7920616363657074206f66666572732066726f6d20776f726b60008201527f6572732077686f206f6666657265640000000000000000000000000000000000602082015250565b7f446973707574652069736e2774206c6976650000000000000000000000000000600082015250565b7f4f6e6c79206974656d206f776e65722063616e20616363657074206f66666572600082015250565b7f4f6e6c7920636f6d70616e792063616e2075706461746520726577617264732060008201527f7374617475730000000000000000000000000000000000000000000000000000602082015250565b7f5573657220616c7265616479206d616465206f66666572000000000000000000600082015250565b7f4f6e6c7920636f6d70616e792063616e206368616e6765206164647265737300600082015250565b7f416d6f756e742070616964206973206c657373207468616e20746f74616c0000600082015250565b61507c81614ab8565b811461508757600080fd5b50565b61509381614aca565b811461509e57600080fd5b50565b6150aa81614ad6565b81146150b557600080fd5b50565b6150c181614b00565b81146150cc57600080fd5b50565b6150d881614b17565b81146150e357600080fd5b5056fea26469706673582212207c6af5adbec90d850758ebe30dddf2bdba90fe7d1c12e4dabaf98c47a899ee0264736f6c63430008070033",
					"opcodes": "PUSH1 0x80 PUSH1 0x40 MSTORE CALLVALUE DUP1 ISZERO PUSH3 0x11 JUMPI PUSH1 0x0 DUP1 REVERT JUMPDEST POP PUSH1 0x40 MLOAD PUSH3 0x538E CODESIZE SUB DUP1 PUSH3 0x538E DUP4 CODECOPY DUP2 DUP2 ADD PUSH1 0x40 MSTORE DUP2 ADD SWAP1 PUSH3 0x37 SWAP2 SWAP1 PUSH3 0x1B3 JUMP JUMPDEST PUSH1 0xFA PUSH1 0x2 DUP2 SWAP1 SSTORE POP PUSH1 0x0 PUSH1 0xA DUP2 SWAP1 SSTORE POP PUSH8 0xDE0B6B3A7640000 PUSH1 0x7 DUP2 SWAP1 SSTORE POP PUSH8 0xDE0B6B3A7640000 PUSH1 0x8 DUP2 SWAP1 SSTORE POP PUSH8 0xDE0B6B3A7640000 PUSH1 0x9 DUP2 SWAP1 SSTORE POP CALLER PUSH1 0x3 PUSH1 0x0 PUSH2 0x100 EXP DUP2 SLOAD DUP2 PUSH20 0xFFFFFFFFFFFFFFFFFFFFFFFFFFFFFFFFFFFFFFFF MUL NOT AND SWAP1 DUP4 PUSH20 0xFFFFFFFFFFFFFFFFFFFFFFFFFFFFFFFFFFFFFFFF AND MUL OR SWAP1 SSTORE POP PUSH1 0x1 PUSH1 0xB PUSH1 0x0 PUSH2 0x100 EXP DUP2 SLOAD DUP2 PUSH1 0xFF MUL NOT AND SWAP1 DUP4 ISZERO ISZERO MUL OR SWAP1 SSTORE POP DUP3 PUSH1 0x4 PUSH1 0x0 PUSH2 0x100 EXP DUP2 SLOAD DUP2 PUSH20 0xFFFFFFFFFFFFFFFFFFFFFFFFFFFFFFFFFFFFFFFF MUL NOT AND SWAP1 DUP4 PUSH20 0xFFFFFFFFFFFFFFFFFFFFFFFFFFFFFFFFFFFFFFFF AND MUL OR SWAP1 SSTORE POP DUP2 PUSH1 0x5 PUSH1 0x0 PUSH2 0x100 EXP DUP2 SLOAD DUP2 PUSH20 0xFFFFFFFFFFFFFFFFFFFFFFFFFFFFFFFFFFFFFFFF MUL NOT AND SWAP1 DUP4 PUSH20 0xFFFFFFFFFFFFFFFFFFFFFFFFFFFFFFFFFFFFFFFF AND MUL OR SWAP1 SSTORE POP DUP1 PUSH1 0x6 PUSH1 0x0 PUSH2 0x100 EXP DUP2 SLOAD DUP2 PUSH20 0xFFFFFFFFFFFFFFFFFFFFFFFFFFFFFFFFFFFFFFFF MUL NOT AND SWAP1 DUP4 PUSH20 0xFFFFFFFFFFFFFFFFFFFFFFFFFFFFFFFFFFFFFFFF AND MUL OR SWAP1 SSTORE POP POP POP POP PUSH3 0x262 JUMP JUMPDEST PUSH1 0x0 DUP2 MLOAD SWAP1 POP PUSH3 0x1AD DUP2 PUSH3 0x248 JUMP JUMPDEST SWAP3 SWAP2 POP POP JUMP JUMPDEST PUSH1 0x0 DUP1 PUSH1 0x0 PUSH1 0x60 DUP5 DUP7 SUB SLT ISZERO PUSH3 0x1CF JUMPI PUSH3 0x1CE PUSH3 0x243 JUMP JUMPDEST JUMPDEST PUSH1 0x0 PUSH3 0x1DF DUP7 DUP3 DUP8 ADD PUSH3 0x19C JUMP JUMPDEST SWAP4 POP POP PUSH1 0x20 PUSH3 0x1F2 DUP7 DUP3 DUP8 ADD PUSH3 0x19C JUMP JUMPDEST SWAP3 POP POP PUSH1 0x40 PUSH3 0x205 DUP7 DUP3 DUP8 ADD PUSH3 0x19C JUMP JUMPDEST SWAP2 POP POP SWAP3 POP SWAP3 POP SWAP3 JUMP JUMPDEST PUSH1 0x0 PUSH3 0x21C DUP3 PUSH3 0x223 JUMP JUMPDEST SWAP1 POP SWAP2 SWAP1 POP JUMP JUMPDEST PUSH1 0x0 PUSH20 0xFFFFFFFFFFFFFFFFFFFFFFFFFFFFFFFFFFFFFFFF DUP3 AND SWAP1 POP SWAP2 SWAP1 POP JUMP JUMPDEST PUSH1 0x0 DUP1 REVERT JUMPDEST PUSH3 0x253 DUP2 PUSH3 0x20F JUMP JUMPDEST DUP2 EQ PUSH3 0x25F JUMPI PUSH1 0x0 DUP1 REVERT JUMPDEST POP JUMP JUMPDEST PUSH2 0x511C DUP1 PUSH3 0x272 PUSH1 0x0 CODECOPY PUSH1 0x0 RETURN INVALID PUSH1 0x80 PUSH1 0x40 MSTORE PUSH1 0x4 CALLDATASIZE LT PUSH2 0x1F9 JUMPI PUSH1 0x0 CALLDATALOAD PUSH1 0xE0 SHR DUP1 PUSH4 0x741BEF1A GT PUSH2 0x10D JUMPI DUP1 PUSH4 0xA0E50CA6 GT PUSH2 0xA0 JUMPI DUP1 PUSH4 0xD0E7A5CB GT PUSH2 0x6F JUMPI DUP1 PUSH4 0xD0E7A5CB EQ PUSH2 0x75C JUMPI DUP1 PUSH4 0xD96A094A EQ PUSH2 0x785 JUMPI DUP1 PUSH4 0xE039BEC7 EQ PUSH2 0x7B5 JUMPI DUP1 PUSH4 0xF851A440 EQ PUSH2 0x7E0 JUMPI DUP1 PUSH4 0xFD2E997E EQ PUSH2 0x80B JUMPI PUSH2 0x1F9 JUMP JUMPDEST DUP1 PUSH4 0xA0E50CA6 EQ PUSH2 0x6A2 JUMPI DUP1 PUSH4 0xAF0D467B EQ PUSH2 0x6DF JUMPI DUP1 PUSH4 0xC0EB4E7D EQ PUSH2 0x708 JUMPI DUP1 PUSH4 0xC0F0F73F EQ PUSH2 0x731 JUMPI PUSH2 0x1F9 JUMP JUMPDEST DUP1 PUSH4 0x86D6282C GT PUSH2 0xDC JUMPI DUP1 PUSH4 0x86D6282C EQ PUSH2 0x5F5 JUMPI DUP1 PUSH4 0x8E15F473 EQ PUSH2 0x61E JUMPI DUP1 PUSH4 0x918D407D EQ PUSH2 0x649 JUMPI DUP1 PUSH4 0x971D852F EQ PUSH2 0x679 JUMPI PUSH2 0x1F9 JUMP JUMPDEST DUP1 PUSH4 0x741BEF1A EQ PUSH2 0x53B JUMPI DUP1 PUSH4 0x761610FC EQ PUSH2 0x566 JUMPI DUP1 PUSH4 0x82C35BFA EQ PUSH2 0x58F JUMPI DUP1 PUSH4 0x83219A8A EQ PUSH2 0x5CC JUMPI PUSH2 0x1F9 JUMP JUMPDEST DUP1 PUSH4 0x2FFBB678 GT PUSH2 0x190 JUMPI DUP1 PUSH4 0x54282632 GT PUSH2 0x15F JUMPI DUP1 PUSH4 0x54282632 EQ PUSH2 0x435 JUMPI DUP1 PUSH4 0x6A166964 EQ PUSH2 0x460 JUMPI DUP1 PUSH4 0x6AB34A4A EQ PUSH2 0x48B JUMPI DUP1 PUSH4 0x6BFB0D01 EQ PUSH2 0x4D3 JUMPI DUP1 PUSH4 0x6C914501 EQ PUSH2 0x4FE JUMPI PUSH2 0x1F9 JUMP JUMPDEST DUP1 PUSH4 0x2FFBB678 EQ PUSH2 0x37B JUMPI DUP1 PUSH4 0x34650412 EQ PUSH2 0x3A4 JUMPI DUP1 PUSH4 0x40E58EE5 EQ PUSH2 0x3E1 JUMPI DUP1 PUSH4 0x4162169F EQ PUSH2 0x40A JUMPI PUSH2 0x1F9 JUMP JUMPDEST DUP1 PUSH4 0x22A5AEBF GT PUSH2 0x1CC JUMPI DUP1 PUSH4 0x22A5AEBF EQ PUSH2 0x2D1 JUMPI DUP1 PUSH4 0x2453FFA8 EQ PUSH2 0x2FC JUMPI DUP1 PUSH4 0x24EC7590 EQ PUSH2 0x327 JUMPI DUP1 PUSH4 0x2AB29DF7 EQ PUSH2 0x352 JUMPI PUSH2 0x1F9 JUMP JUMPDEST DUP1 PUSH4 0x101E1940 EQ PUSH2 0x1FE JUMPI DUP1 PUSH4 0x16632302 EQ PUSH2 0x23E JUMPI DUP1 PUSH4 0x1885F580 EQ PUSH2 0x267 JUMPI DUP1 PUSH4 0x1C8E8962 EQ PUSH2 0x292 JUMPI JUMPDEST PUSH1 0x0 DUP1 REVERT JUMPDEST CALLVALUE DUP1 ISZERO PUSH2 0x20A JUMPI PUSH1 0x0 DUP1 REVERT JUMPDEST POP PUSH2 0x225 PUSH1 0x4 DUP1 CALLDATASIZE SUB DUP2 ADD SWAP1 PUSH2 0x220 SWAP2 SWAP1 PUSH2 0x3F5F JUMP JUMPDEST PUSH2 0x84D JUMP JUMPDEST PUSH1 0x40 MLOAD PUSH2 0x235 SWAP5 SWAP4 SWAP3 SWAP2 SWAP1 PUSH2 0x4489 JUMP JUMPDEST PUSH1 0x40 MLOAD DUP1 SWAP2 SUB SWAP1 RETURN JUMPDEST CALLVALUE DUP1 ISZERO PUSH2 0x24A JUMPI PUSH1 0x0 DUP1 REVERT JUMPDEST POP PUSH2 0x265 PUSH1 0x4 DUP1 CALLDATASIZE SUB DUP2 ADD SWAP1 PUSH2 0x260 SWAP2 SWAP1 PUSH2 0x400C JUMP JUMPDEST PUSH2 0x99A JUMP JUMPDEST STOP JUMPDEST CALLVALUE DUP1 ISZERO PUSH2 0x273 JUMPI PUSH1 0x0 DUP1 REVERT JUMPDEST POP PUSH2 0x27C PUSH2 0xC82 JUMP JUMPDEST PUSH1 0x40 MLOAD PUSH2 0x289 SWAP2 SWAP1 PUSH2 0x46DC JUMP JUMPDEST PUSH1 0x40 MLOAD DUP1 SWAP2 SUB SWAP1 RETURN JUMPDEST CALLVALUE DUP1 ISZERO PUSH2 0x29E JUMPI PUSH1 0x0 DUP1 REVERT JUMPDEST POP PUSH2 0x2B9 PUSH1 0x4 DUP1 CALLDATASIZE SUB DUP2 ADD SWAP1 PUSH2 0x2B4 SWAP2 SWAP1 PUSH2 0x3E15 JUMP JUMPDEST PUSH2 0xC88 JUMP JUMPDEST PUSH1 0x40 MLOAD PUSH2 0x2C8 SWAP4 SWAP3 SWAP2 SWAP1 PUSH2 0x47D4 JUMP JUMPDEST PUSH1 0x40 MLOAD DUP1 SWAP2 SUB SWAP1 RETURN JUMPDEST CALLVALUE DUP1 ISZERO PUSH2 0x2DD JUMPI PUSH1 0x0 DUP1 REVERT JUMPDEST POP PUSH2 0x2E6 PUSH2 0xCB2 JUMP JUMPDEST PUSH1 0x40 MLOAD PUSH2 0x2F3 SWAP2 SWAP1 PUSH2 0x440F JUMP JUMPDEST PUSH1 0x40 MLOAD DUP1 SWAP2 SUB SWAP1 RETURN JUMPDEST CALLVALUE DUP1 ISZERO PUSH2 0x308 JUMPI PUSH1 0x0 DUP1 REVERT JUMPDEST POP PUSH2 0x311 PUSH2 0xCD8 JUMP JUMPDEST PUSH1 0x40 MLOAD PUSH2 0x31E SWAP2 SWAP1 PUSH2 0x46DC JUMP JUMPDEST PUSH1 0x40 MLOAD DUP1 SWAP2 SUB SWAP1 RETURN JUMPDEST CALLVALUE DUP1 ISZERO PUSH2 0x333 JUMPI PUSH1 0x0 DUP1 REVERT JUMPDEST POP PUSH2 0x33C PUSH2 0xCDE JUMP JUMPDEST PUSH1 0x40 MLOAD PUSH2 0x349 SWAP2 SWAP1 PUSH2 0x46DC JUMP JUMPDEST PUSH1 0x40 MLOAD DUP1 SWAP2 SUB SWAP1 RETURN JUMPDEST CALLVALUE DUP1 ISZERO PUSH2 0x35E JUMPI PUSH1 0x0 DUP1 REVERT JUMPDEST POP PUSH2 0x379 PUSH1 0x4 DUP1 CALLDATASIZE SUB DUP2 ADD SWAP1 PUSH2 0x374 SWAP2 SWAP1 PUSH2 0x3F8C JUMP JUMPDEST PUSH2 0xCE4 JUMP JUMPDEST STOP JUMPDEST CALLVALUE DUP1 ISZERO PUSH2 0x387 JUMPI PUSH1 0x0 DUP1 REVERT JUMPDEST POP PUSH2 0x3A2 PUSH1 0x4 DUP1 CALLDATASIZE SUB DUP2 ADD SWAP1 PUSH2 0x39D SWAP2 SWAP1 PUSH2 0x3E82 JUMP JUMPDEST PUSH2 0xEB3 JUMP JUMPDEST STOP JUMPDEST CALLVALUE DUP1 ISZERO PUSH2 0x3B0 JUMPI PUSH1 0x0 DUP1 REVERT JUMPDEST POP PUSH2 0x3CB PUSH1 0x4 DUP1 CALLDATASIZE SUB DUP2 ADD SWAP1 PUSH2 0x3C6 SWAP2 SWAP1 PUSH2 0x3E42 JUMP JUMPDEST PUSH2 0xF60 JUMP JUMPDEST PUSH1 0x40 MLOAD PUSH2 0x3D8 SWAP2 SWAP1 PUSH2 0x4453 JUMP JUMPDEST PUSH1 0x40 MLOAD DUP1 SWAP2 SUB SWAP1 RETURN JUMPDEST CALLVALUE DUP1 ISZERO PUSH2 0x3ED JUMPI PUSH1 0x0 DUP1 REVERT JUMPDEST POP PUSH2 0x408 PUSH1 0x4 DUP1 CALLDATASIZE SUB DUP2 ADD SWAP1 PUSH2 0x403 SWAP2 SWAP1 PUSH2 0x3F5F JUMP JUMPDEST PUSH2 0xF8F JUMP JUMPDEST STOP JUMPDEST CALLVALUE DUP1 ISZERO PUSH2 0x416 JUMPI PUSH1 0x0 DUP1 REVERT JUMPDEST POP PUSH2 0x41F PUSH2 0x130E JUMP JUMPDEST PUSH1 0x40 MLOAD PUSH2 0x42C SWAP2 SWAP1 PUSH2 0x440F JUMP JUMPDEST PUSH1 0x40 MLOAD DUP1 SWAP2 SUB SWAP1 RETURN JUMPDEST CALLVALUE DUP1 ISZERO PUSH2 0x441 JUMPI PUSH1 0x0 DUP1 REVERT JUMPDEST POP PUSH2 0x44A PUSH2 0x1334 JUMP JUMPDEST PUSH1 0x40 MLOAD PUSH2 0x457 SWAP2 SWAP1 PUSH2 0x46DC JUMP JUMPDEST PUSH1 0x40 MLOAD DUP1 SWAP2 SUB SWAP1 RETURN JUMPDEST CALLVALUE DUP1 ISZERO PUSH2 0x46C JUMPI PUSH1 0x0 DUP1 REVERT JUMPDEST POP PUSH2 0x475 PUSH2 0x133A JUMP JUMPDEST PUSH1 0x40 MLOAD PUSH2 0x482 SWAP2 SWAP1 PUSH2 0x46DC JUMP JUMPDEST PUSH1 0x40 MLOAD DUP1 SWAP2 SUB SWAP1 RETURN JUMPDEST CALLVALUE DUP1 ISZERO PUSH2 0x497 JUMPI PUSH1 0x0 DUP1 REVERT JUMPDEST POP PUSH2 0x4B2 PUSH1 0x4 DUP1 CALLDATASIZE SUB DUP2 ADD SWAP1 PUSH2 0x4AD SWAP2 SWAP1 PUSH2 0x3F5F JUMP JUMPDEST PUSH2 0x1340 JUMP JUMPDEST PUSH1 0x40 MLOAD PUSH2 0x4CA SWAP13 SWAP12 SWAP11 SWAP10 SWAP9 SWAP8 SWAP7 SWAP6 SWAP5 SWAP4 SWAP3 SWAP2 SWAP1 PUSH2 0x486C JUMP JUMPDEST PUSH1 0x40 MLOAD DUP1 SWAP2 SUB SWAP1 RETURN JUMPDEST CALLVALUE DUP1 ISZERO PUSH2 0x4DF JUMPI PUSH1 0x0 DUP1 REVERT JUMPDEST POP PUSH2 0x4E8 PUSH2 0x1407 JUMP JUMPDEST PUSH1 0x40 MLOAD PUSH2 0x4F5 SWAP2 SWAP1 PUSH2 0x46DC JUMP JUMPDEST PUSH1 0x40 MLOAD DUP1 SWAP2 SUB SWAP1 RETURN JUMPDEST CALLVALUE DUP1 ISZERO PUSH2 0x50A JUMPI PUSH1 0x0 DUP1 REVERT JUMPDEST POP PUSH2 0x525 PUSH1 0x4 DUP1 CALLDATASIZE SUB DUP2 ADD SWAP1 PUSH2 0x520 SWAP2 SWAP1 PUSH2 0x3EDC JUMP JUMPDEST PUSH2 0x140D JUMP JUMPDEST PUSH1 0x40 MLOAD PUSH2 0x532 SWAP2 SWAP1 PUSH2 0x46DC JUMP JUMPDEST PUSH1 0x40 MLOAD DUP1 SWAP2 SUB SWAP1 RETURN JUMPDEST CALLVALUE DUP1 ISZERO PUSH2 0x547 JUMPI PUSH1 0x0 DUP1 REVERT JUMPDEST POP PUSH2 0x550 PUSH2 0x15BA JUMP JUMPDEST PUSH1 0x40 MLOAD PUSH2 0x55D SWAP2 SWAP1 PUSH2 0x440F JUMP JUMPDEST PUSH1 0x40 MLOAD DUP1 SWAP2 SUB SWAP1 RETURN JUMPDEST CALLVALUE DUP1 ISZERO PUSH2 0x572 JUMPI PUSH1 0x0 DUP1 REVERT JUMPDEST POP PUSH2 0x58D PUSH1 0x4 DUP1 CALLDATASIZE SUB DUP2 ADD SWAP1 PUSH2 0x588 SWAP2 SWAP1 PUSH2 0x3F5F JUMP JUMPDEST PUSH2 0x15E0 JUMP JUMPDEST STOP JUMPDEST CALLVALUE DUP1 ISZERO PUSH2 0x59B JUMPI PUSH1 0x0 DUP1 REVERT JUMPDEST POP PUSH2 0x5B6 PUSH1 0x4 DUP1 CALLDATASIZE SUB DUP2 ADD SWAP1 PUSH2 0x5B1 SWAP2 SWAP1 PUSH2 0x3E42 JUMP JUMPDEST PUSH2 0x1793 JUMP JUMPDEST PUSH1 0x40 MLOAD PUSH2 0x5C3 SWAP2 SWAP1 PUSH2 0x4453 JUMP JUMPDEST PUSH1 0x40 MLOAD DUP1 SWAP2 SUB SWAP1 RETURN JUMPDEST CALLVALUE DUP1 ISZERO PUSH2 0x5D8 JUMPI PUSH1 0x0 DUP1 REVERT JUMPDEST POP PUSH2 0x5F3 PUSH1 0x4 DUP1 CALLDATASIZE SUB DUP2 ADD SWAP1 PUSH2 0x5EE SWAP2 SWAP1 PUSH2 0x400C JUMP JUMPDEST PUSH2 0x17C2 JUMP JUMPDEST STOP JUMPDEST CALLVALUE DUP1 ISZERO PUSH2 0x601 JUMPI PUSH1 0x0 DUP1 REVERT JUMPDEST POP PUSH2 0x61C PUSH1 0x4 DUP1 CALLDATASIZE SUB DUP2 ADD SWAP1 PUSH2 0x617 SWAP2 SWAP1 PUSH2 0x3F5F JUMP JUMPDEST PUSH2 0x18CC JUMP JUMPDEST STOP JUMPDEST CALLVALUE DUP1 ISZERO PUSH2 0x62A JUMPI PUSH1 0x0 DUP1 REVERT JUMPDEST POP PUSH2 0x633 PUSH2 0x1BB0 JUMP JUMPDEST PUSH1 0x40 MLOAD PUSH2 0x640 SWAP2 SWAP1 PUSH2 0x446E JUMP JUMPDEST PUSH1 0x40 MLOAD DUP1 SWAP2 SUB SWAP1 RETURN JUMPDEST PUSH2 0x663 PUSH1 0x4 DUP1 CALLDATASIZE SUB DUP2 ADD SWAP1 PUSH2 0x65E SWAP2 SWAP1 PUSH2 0x3F8C JUMP JUMPDEST PUSH2 0x1C60 JUMP JUMPDEST PUSH1 0x40 MLOAD PUSH2 0x670 SWAP2 SWAP1 PUSH2 0x46DC JUMP JUMPDEST PUSH1 0x40 MLOAD DUP1 SWAP2 SUB SWAP1 RETURN JUMPDEST CALLVALUE DUP1 ISZERO PUSH2 0x685 JUMPI PUSH1 0x0 DUP1 REVERT JUMPDEST POP PUSH2 0x6A0 PUSH1 0x4 DUP1 CALLDATASIZE SUB DUP2 ADD SWAP1 PUSH2 0x69B SWAP2 SWAP1 PUSH2 0x3F5F JUMP JUMPDEST PUSH2 0x21E3 JUMP JUMPDEST STOP JUMPDEST CALLVALUE DUP1 ISZERO PUSH2 0x6AE JUMPI PUSH1 0x0 DUP1 REVERT JUMPDEST POP PUSH2 0x6C9 PUSH1 0x4 DUP1 CALLDATASIZE SUB DUP2 ADD SWAP1 PUSH2 0x6C4 SWAP2 SWAP1 PUSH2 0x4068 JUMP JUMPDEST PUSH2 0x2BDC JUMP JUMPDEST PUSH1 0x40 MLOAD PUSH2 0x6D6 SWAP2 SWAP1 PUSH2 0x4453 JUMP JUMPDEST PUSH1 0x40 MLOAD DUP1 SWAP2 SUB SWAP1 RETURN JUMPDEST CALLVALUE DUP1 ISZERO PUSH2 0x6EB JUMPI PUSH1 0x0 DUP1 REVERT JUMPDEST POP PUSH2 0x706 PUSH1 0x4 DUP1 CALLDATASIZE SUB DUP2 ADD SWAP1 PUSH2 0x701 SWAP2 SWAP1 PUSH2 0x3F8C JUMP JUMPDEST PUSH2 0x2C69 JUMP JUMPDEST STOP JUMPDEST CALLVALUE DUP1 ISZERO PUSH2 0x714 JUMPI PUSH1 0x0 DUP1 REVERT JUMPDEST POP PUSH2 0x72F PUSH1 0x4 DUP1 CALLDATASIZE SUB DUP2 ADD SWAP1 PUSH2 0x72A SWAP2 SWAP1 PUSH2 0x3FCC JUMP JUMPDEST PUSH2 0x327C JUMP JUMPDEST STOP JUMPDEST CALLVALUE DUP1 ISZERO PUSH2 0x73D JUMPI PUSH1 0x0 DUP1 REVERT JUMPDEST POP PUSH2 0x746 PUSH2 0x3389 JUMP JUMPDEST PUSH1 0x40 MLOAD PUSH2 0x753 SWAP2 SWAP1 PUSH2 0x46DC JUMP JUMPDEST PUSH1 0x40 MLOAD DUP1 SWAP2 SUB SWAP1 RETURN JUMPDEST CALLVALUE DUP1 ISZERO PUSH2 0x768 JUMPI PUSH1 0x0 DUP1 REVERT JUMPDEST POP PUSH2 0x783 PUSH1 0x4 DUP1 CALLDATASIZE SUB DUP2 ADD SWAP1 PUSH2 0x77E SWAP2 SWAP1 PUSH2 0x4068 JUMP JUMPDEST PUSH2 0x338F JUMP JUMPDEST STOP JUMPDEST PUSH2 0x79F PUSH1 0x4 DUP1 CALLDATASIZE SUB DUP2 ADD SWAP1 PUSH2 0x79A SWAP2 SWAP1 PUSH2 0x3F5F JUMP JUMPDEST PUSH2 0x3489 JUMP JUMPDEST PUSH1 0x40 MLOAD PUSH2 0x7AC SWAP2 SWAP1 PUSH2 0x46DC JUMP JUMPDEST PUSH1 0x40 MLOAD DUP1 SWAP2 SUB SWAP1 RETURN JUMPDEST CALLVALUE DUP1 ISZERO PUSH2 0x7C1 JUMPI PUSH1 0x0 DUP1 REVERT JUMPDEST POP PUSH2 0x7CA PUSH2 0x3963 JUMP JUMPDEST PUSH1 0x40 MLOAD PUSH2 0x7D7 SWAP2 SWAP1 PUSH2 0x4453 JUMP JUMPDEST PUSH1 0x40 MLOAD DUP1 SWAP2 SUB SWAP1 RETURN JUMPDEST CALLVALUE DUP1 ISZERO PUSH2 0x7EC JUMPI PUSH1 0x0 DUP1 REVERT JUMPDEST POP PUSH2 0x7F5 PUSH2 0x3976 JUMP JUMPDEST PUSH1 0x40 MLOAD PUSH2 0x802 SWAP2 SWAP1 PUSH2 0x440F JUMP JUMPDEST PUSH1 0x40 MLOAD DUP1 SWAP2 SUB SWAP1 RETURN JUMPDEST CALLVALUE DUP1 ISZERO PUSH2 0x817 JUMPI PUSH1 0x0 DUP1 REVERT JUMPDEST POP PUSH2 0x832 PUSH1 0x4 DUP1 CALLDATASIZE SUB DUP2 ADD SWAP1 PUSH2 0x82D SWAP2 SWAP1 PUSH2 0x3F5F JUMP JUMPDEST PUSH2 0x399C JUMP JUMPDEST PUSH1 0x40 MLOAD PUSH2 0x844 SWAP7 SWAP6 SWAP5 SWAP4 SWAP3 SWAP2 SWAP1 PUSH2 0x476C JUMP JUMPDEST PUSH1 0x40 MLOAD DUP1 SWAP2 SUB SWAP1 RETURN JUMPDEST PUSH1 0xF PUSH1 0x20 MSTORE DUP1 PUSH1 0x0 MSTORE PUSH1 0x40 PUSH1 0x0 KECCAK256 PUSH1 0x0 SWAP2 POP SWAP1 POP DUP1 PUSH1 0x0 ADD DUP1 SLOAD PUSH2 0x870 SWAP1 PUSH2 0x4B6F JUMP JUMPDEST DUP1 PUSH1 0x1F ADD PUSH1 0x20 DUP1 SWAP2 DIV MUL PUSH1 0x20 ADD PUSH1 0x40 MLOAD SWAP1 DUP2 ADD PUSH1 0x40 MSTORE DUP1 SWAP3 SWAP2 SWAP1 DUP2 DUP2 MSTORE PUSH1 0x20 ADD DUP3 DUP1 SLOAD PUSH2 0x89C SWAP1 PUSH2 0x4B6F JUMP JUMPDEST DUP1 ISZERO PUSH2 0x8E9 JUMPI DUP1 PUSH1 0x1F LT PUSH2 0x8BE JUMPI PUSH2 0x100 DUP1 DUP4 SLOAD DIV MUL DUP4 MSTORE SWAP2 PUSH1 0x20 ADD SWAP2 PUSH2 0x8E9 JUMP JUMPDEST DUP3 ADD SWAP2 SWAP1 PUSH1 0x0 MSTORE PUSH1 0x20 PUSH1 0x0 KECCAK256 SWAP1 JUMPDEST DUP2 SLOAD DUP2 MSTORE SWAP1 PUSH1 0x1 ADD SWAP1 PUSH1 0x20 ADD DUP1 DUP4 GT PUSH2 0x8CC JUMPI DUP3 SWAP1 SUB PUSH1 0x1F AND DUP3 ADD SWAP2 JUMPDEST POP POP POP POP POP SWAP1 DUP1 PUSH1 0x1 ADD DUP1 SLOAD PUSH2 0x8FE SWAP1 PUSH2 0x4B6F JUMP JUMPDEST DUP1 PUSH1 0x1F ADD PUSH1 0x20 DUP1 SWAP2 DIV MUL PUSH1 0x20 ADD PUSH1 0x40 MLOAD SWAP1 DUP2 ADD PUSH1 0x40 MSTORE DUP1 SWAP3 SWAP2 SWAP1 DUP2 DUP2 MSTORE PUSH1 0x20 ADD DUP3 DUP1 SLOAD PUSH2 0x92A SWAP1 PUSH2 0x4B6F JUMP JUMPDEST DUP1 ISZERO PUSH2 0x977 JUMPI DUP1 PUSH1 0x1F LT PUSH2 0x94C JUMPI PUSH2 0x100 DUP1 DUP4 SLOAD DIV MUL DUP4 MSTORE SWAP2 PUSH1 0x20 ADD SWAP2 PUSH2 0x977 JUMP JUMPDEST DUP3 ADD SWAP2 SWAP1 PUSH1 0x0 MSTORE PUSH1 0x20 PUSH1 0x0 KECCAK256 SWAP1 JUMPDEST DUP2 SLOAD DUP2 MSTORE SWAP1 PUSH1 0x1 ADD SWAP1 PUSH1 0x20 ADD DUP1 DUP4 GT PUSH2 0x95A JUMPI DUP3 SWAP1 SUB PUSH1 0x1F AND DUP3 ADD SWAP2 JUMPDEST POP POP POP POP POP SWAP1 DUP1 PUSH1 0x2 ADD SLOAD SWAP1 DUP1 PUSH1 0x3 ADD PUSH1 0x0 SWAP1 SLOAD SWAP1 PUSH2 0x100 EXP SWAP1 DIV PUSH1 0xFF AND SWAP1 POP DUP5 JUMP JUMPDEST DUP2 CALLER PUSH20 0xFFFFFFFFFFFFFFFFFFFFFFFFFFFFFFFFFFFFFFFF AND PUSH1 0xD PUSH1 0x0 DUP4 DUP2 MSTORE PUSH1 0x20 ADD SWAP1 DUP2 MSTORE PUSH1 0x20 ADD PUSH1 0x0 KECCAK256 PUSH1 0x7 ADD PUSH1 0x3 SWAP1 SLOAD SWAP1 PUSH2 0x100 EXP SWAP1 DIV PUSH20 0xFFFFFFFFFFFFFFFFFFFFFFFFFFFFFFFFFFFFFFFF AND PUSH20 0xFFFFFFFFFFFFFFFFFFFFFFFFFFFFFFFFFFFFFFFF AND EQ DUP1 PUSH2 0xA6C JUMPI POP CALLER PUSH20 0xFFFFFFFFFFFFFFFFFFFFFFFFFFFFFFFFFFFFFFFF AND PUSH1 0xD PUSH1 0x0 DUP4 DUP2 MSTORE PUSH1 0x20 ADD SWAP1 DUP2 MSTORE PUSH1 0x20 ADD PUSH1 0x0 KECCAK256 PUSH1 0x8 ADD PUSH1 0x0 SWAP1 SLOAD SWAP1 PUSH2 0x100 EXP SWAP1 DIV PUSH20 0xFFFFFFFFFFFFFFFFFFFFFFFFFFFFFFFFFFFFFFFF AND PUSH20 0xFFFFFFFFFFFFFFFFFFFFFFFFFFFFFFFFFFFFFFFF AND EQ JUMPDEST PUSH2 0xAAB JUMPI PUSH1 0x40 MLOAD PUSH32 0x8C379A000000000000000000000000000000000000000000000000000000000 DUP2 MSTORE PUSH1 0x4 ADD PUSH2 0xAA2 SWAP1 PUSH2 0x45BC JUMP JUMPDEST PUSH1 0x40 MLOAD DUP1 SWAP2 SUB SWAP1 REVERT JUMPDEST PUSH1 0x1 ISZERO ISZERO PUSH1 0xF PUSH1 0x0 DUP6 DUP2 MSTORE PUSH1 0x20 ADD SWAP1 DUP2 MSTORE PUSH1 0x20 ADD PUSH1 0x0 KECCAK256 PUSH1 0x3 ADD PUSH1 0x0 SWAP1 SLOAD SWAP1 PUSH2 0x100 EXP SWAP1 DIV PUSH1 0xFF AND ISZERO ISZERO EQ PUSH2 0xB15 JUMPI PUSH1 0x40 MLOAD PUSH32 0x8C379A000000000000000000000000000000000000000000000000000000000 DUP2 MSTORE PUSH1 0x4 ADD PUSH2 0xB0C SWAP1 PUSH2 0x461C JUMP JUMPDEST PUSH1 0x40 MLOAD DUP1 SWAP2 SUB SWAP1 REVERT JUMPDEST PUSH1 0xD PUSH1 0x0 DUP5 DUP2 MSTORE PUSH1 0x20 ADD SWAP1 DUP2 MSTORE PUSH1 0x20 ADD PUSH1 0x0 KECCAK256 PUSH1 0x7 ADD PUSH1 0x3 SWAP1 SLOAD SWAP1 PUSH2 0x100 EXP SWAP1 DIV PUSH20 0xFFFFFFFFFFFFFFFFFFFFFFFFFFFFFFFFFFFFFFFF AND PUSH20 0xFFFFFFFFFFFFFFFFFFFFFFFFFFFFFFFFFFFFFFFF AND CALLER PUSH20 0xFFFFFFFFFFFFFFFFFFFFFFFFFFFFFFFFFFFFFFFF AND EQ ISZERO PUSH2 0xBAF JUMPI DUP2 PUSH1 0xF PUSH1 0x0 DUP6 DUP2 MSTORE PUSH1 0x20 ADD SWAP1 DUP2 MSTORE PUSH1 0x20 ADD PUSH1 0x0 KECCAK256 PUSH1 0x0 ADD SWAP1 DUP1 MLOAD SWAP1 PUSH1 0x20 ADD SWAP1 PUSH2 0xBA9 SWAP3 SWAP2 SWAP1 PUSH2 0x3B62 JUMP JUMPDEST POP PUSH2 0xC46 JUMP JUMPDEST PUSH1 0xD PUSH1 0x0 DUP5 DUP2 MSTORE PUSH1 0x20 ADD SWAP1 DUP2 MSTORE PUSH1 0x20 ADD PUSH1 0x0 KECCAK256 PUSH1 0x8 ADD PUSH1 0x0 SWAP1 SLOAD SWAP1 PUSH2 0x100 EXP SWAP1 DIV PUSH20 0xFFFFFFFFFFFFFFFFFFFFFFFFFFFFFFFFFFFFFFFF AND PUSH20 0xFFFFFFFFFFFFFFFFFFFFFFFFFFFFFFFFFFFFFFFF AND CALLER PUSH20 0xFFFFFFFFFFFFFFFFFFFFFFFFFFFFFFFFFFFFFFFF AND EQ ISZERO PUSH2 0xC45 JUMPI DUP2 PUSH1 0xF PUSH1 0x0 DUP6 DUP2 MSTORE PUSH1 0x20 ADD SWAP1 DUP2 MSTORE PUSH1 0x20 ADD PUSH1 0x0 KECCAK256 PUSH1 0x1 ADD SWAP1 DUP1 MLOAD SWAP1 PUSH1 0x20 ADD SWAP1 PUSH2 0xC43 SWAP3 SWAP2 SWAP1 PUSH2 0x3B62 JUMP JUMPDEST POP JUMPDEST JUMPDEST PUSH32 0x29A00CD7B143153A043355A38ED7FA14305CD81468035C2E2E389897F38980D8 DUP4 PUSH1 0x40 MLOAD PUSH2 0xC75 SWAP2 SWAP1 PUSH2 0x46DC JUMP JUMPDEST PUSH1 0x40 MLOAD DUP1 SWAP2 SUB SWAP1 LOG1 POP POP POP JUMP JUMPDEST PUSH1 0x9 SLOAD DUP2 JUMP JUMPDEST PUSH1 0x10 PUSH1 0x20 MSTORE DUP1 PUSH1 0x0 MSTORE PUSH1 0x40 PUSH1 0x0 KECCAK256 PUSH1 0x0 SWAP2 POP SWAP1 POP DUP1 PUSH1 0x0 ADD SLOAD SWAP1 DUP1 PUSH1 0x1 ADD SLOAD SWAP1 DUP1 PUSH1 0x2 ADD SLOAD SWAP1 POP DUP4 JUMP JUMPDEST PUSH1 0x5 PUSH1 0x0 SWAP1 SLOAD SWAP1 PUSH2 0x100 EXP SWAP1 DIV PUSH20 0xFFFFFFFFFFFFFFFFFFFFFFFFFFFFFFFFFFFFFFFF AND DUP2 JUMP JUMPDEST PUSH1 0x0 SLOAD DUP2 JUMP JUMPDEST PUSH1 0xA SLOAD DUP2 JUMP JUMPDEST PUSH1 0x3 PUSH1 0x0 SWAP1 SLOAD SWAP1 PUSH2 0x100 EXP SWAP1 DIV PUSH20 0xFFFFFFFFFFFFFFFFFFFFFFFFFFFFFFFFFFFFFFFF AND PUSH20 0xFFFFFFFFFFFFFFFFFFFFFFFFFFFFFFFFFFFFFFFF AND CALLER PUSH20 0xFFFFFFFFFFFFFFFFFFFFFFFFFFFFFFFFFFFFFFFF AND EQ PUSH2 0xD74 JUMPI PUSH1 0x40 MLOAD PUSH32 0x8C379A000000000000000000000000000000000000000000000000000000000 DUP2 MSTORE PUSH1 0x4 ADD PUSH2 0xD6B SWAP1 PUSH2 0x469C JUMP JUMPDEST PUSH1 0x40 MLOAD DUP1 SWAP2 SUB SWAP1 REVERT JUMPDEST PUSH1 0x0 DUP3 EQ ISZERO PUSH2 0xDC3 JUMPI DUP1 PUSH1 0x4 PUSH1 0x0 PUSH2 0x100 EXP DUP2 SLOAD DUP2 PUSH20 0xFFFFFFFFFFFFFFFFFFFFFFFFFFFFFFFFFFFFFFFF MUL NOT AND SWAP1 DUP4 PUSH20 0xFFFFFFFFFFFFFFFFFFFFFFFFFFFFFFFFFFFFFFFF AND MUL OR SWAP1 SSTORE POP PUSH2 0xEAF JUMP JUMPDEST PUSH1 0x1 DUP3 EQ ISZERO PUSH2 0xE12 JUMPI DUP1 PUSH1 0x3 PUSH1 0x0 PUSH2 0x100 EXP DUP2 SLOAD DUP2 PUSH20 0xFFFFFFFFFFFFFFFFFFFFFFFFFFFFFFFFFFFFFFFF MUL NOT AND SWAP1 DUP4 PUSH20 0xFFFFFFFFFFFFFFFFFFFFFFFFFFFFFFFFFFFFFFFF AND MUL OR SWAP1 SSTORE POP PUSH2 0xEAE JUMP JUMPDEST PUSH1 0x2 DUP3 EQ ISZERO PUSH2 0xE61 JUMPI DUP1 PUSH1 0x5 PUSH1 0x0 PUSH2 0x100 EXP DUP2 SLOAD DUP2 PUSH20 0xFFFFFFFFFFFFFFFFFFFFFFFFFFFFFFFFFFFFFFFF MUL NOT AND SWAP1 DUP4 PUSH20 0xFFFFFFFFFFFFFFFFFFFFFFFFFFFFFFFFFFFFFFFF AND MUL OR SWAP1 SSTORE POP PUSH2 0xEAD JUMP JUMPDEST PUSH1 0x3 DUP3 EQ ISZERO PUSH2 0xEAC JUMPI DUP1 PUSH1 0x6 PUSH1 0x0 PUSH2 0x100 EXP DUP2 SLOAD DUP2 PUSH20 0xFFFFFFFFFFFFFFFFFFFFFFFFFFFFFFFFFFFFFFFF MUL NOT AND SWAP1 DUP4 PUSH20 0xFFFFFFFFFFFFFFFFFFFFFFFFFFFFFFFFFFFFFFFF AND MUL OR SWAP1 SSTORE POP JUMPDEST JUMPDEST JUMPDEST JUMPDEST POP POP JUMP JUMPDEST PUSH1 0x3 PUSH1 0x0 SWAP1 SLOAD SWAP1 PUSH2 0x100 EXP SWAP1 DIV PUSH20 0xFFFFFFFFFFFFFFFFFFFFFFFFFFFFFFFFFFFFFFFF AND PUSH20 0xFFFFFFFFFFFFFFFFFFFFFFFFFFFFFFFFFFFFFFFF AND CALLER PUSH20 0xFFFFFFFFFFFFFFFFFFFFFFFFFFFFFFFFFFFFFFFF AND EQ PUSH2 0xF43 JUMPI PUSH1 0x40 MLOAD PUSH32 0x8C379A000000000000000000000000000000000000000000000000000000000 DUP2 MSTORE PUSH1 0x4 ADD PUSH2 0xF3A SWAP1 PUSH2 0x465C JUMP JUMPDEST PUSH1 0x40 MLOAD DUP1 SWAP2 SUB SWAP1 REVERT JUMPDEST DUP1 PUSH1 0xB PUSH1 0x0 PUSH2 0x100 EXP DUP2 SLOAD DUP2 PUSH1 0xFF MUL NOT AND SWAP1 DUP4 ISZERO ISZERO MUL OR SWAP1 SSTORE POP POP JUMP JUMPDEST PUSH1 0xE PUSH1 0x20 MSTORE DUP2 PUSH1 0x0 MSTORE PUSH1 0x40 PUSH1 0x0 KECCAK256 PUSH1 0x20 MSTORE DUP1 PUSH1 0x0 MSTORE PUSH1 0x40 PUSH1 0x0 KECCAK256 PUSH1 0x0 SWAP2 POP SWAP2 POP SWAP1 SLOAD SWAP1 PUSH2 0x100 EXP SWAP1 DIV PUSH1 0xFF AND DUP2 JUMP JUMPDEST PUSH1 0xD PUSH1 0x0 DUP3 DUP2 MSTORE PUSH1 0x20 ADD SWAP1 DUP2 MSTORE PUSH1 0x20 ADD PUSH1 0x0 KECCAK256 PUSH1 0x8 ADD PUSH1 0x0 SWAP1 SLOAD SWAP1 PUSH2 0x100 EXP SWAP1 DIV PUSH20 0xFFFFFFFFFFFFFFFFFFFFFFFFFFFFFFFFFFFFFFFF AND PUSH20 0xFFFFFFFFFFFFFFFFFFFFFFFFFFFFFFFFFFFFFFFF AND CALLER PUSH20 0xFFFFFFFFFFFFFFFFFFFFFFFFFFFFFFFFFFFFFFFF AND EQ PUSH2 0x1033 JUMPI PUSH1 0x40 MLOAD PUSH32 0x8C379A000000000000000000000000000000000000000000000000000000000 DUP2 MSTORE PUSH1 0x4 ADD PUSH2 0x102A SWAP1 PUSH2 0x455C JUMP JUMPDEST PUSH1 0x40 MLOAD DUP1 SWAP2 SUB SWAP1 REVERT JUMPDEST PUSH1 0x1 ISZERO ISZERO PUSH1 0xD PUSH1 0x0 DUP4 DUP2 MSTORE PUSH1 0x20 ADD SWAP1 DUP2 MSTORE PUSH1 0x20 ADD PUSH1 0x0 KECCAK256 PUSH1 0x7 ADD PUSH1 0x2 SWAP1 SLOAD SWAP1 PUSH2 0x100 EXP SWAP1 DIV PUSH1 0xFF AND ISZERO ISZERO EQ PUSH2 0x109D JUMPI PUSH1 0x40 MLOAD PUSH32 0x8C379A000000000000000000000000000000000000000000000000000000000 DUP2 MSTORE PUSH1 0x4 ADD PUSH2 0x1094 SWAP1 PUSH2 0x457C JUMP JUMPDEST PUSH1 0x40 MLOAD DUP1 SWAP2 SUB SWAP1 REVERT JUMPDEST PUSH1 0x2 PUSH1 0xD PUSH1 0x0 DUP4 DUP2 MSTORE PUSH1 0x20 ADD SWAP1 DUP2 MSTORE PUSH1 0x20 ADD PUSH1 0x0 KECCAK256 PUSH1 0x7 ADD PUSH1 0x1 PUSH2 0x100 EXP DUP2 SLOAD DUP2 PUSH1 0xFF MUL NOT AND SWAP1 DUP4 PUSH1 0xFF AND MUL OR SWAP1 SSTORE POP PUSH1 0x2 PUSH1 0xD PUSH1 0x0 DUP4 DUP2 MSTORE PUSH1 0x20 ADD SWAP1 DUP2 MSTORE PUSH1 0x20 ADD PUSH1 0x0 KECCAK256 PUSH1 0x7 ADD PUSH1 0x0 PUSH2 0x100 EXP DUP2 SLOAD DUP2 PUSH1 0xFF MUL NOT AND SWAP1 DUP4 PUSH1 0xFF AND MUL OR SWAP1 SSTORE POP PUSH1 0x0 PUSH1 0xD PUSH1 0x0 DUP4 DUP2 MSTORE PUSH1 0x20 ADD SWAP1 DUP2 MSTORE PUSH1 0x20 ADD PUSH1 0x0 KECCAK256 PUSH1 0x7 ADD PUSH1 0x2 PUSH2 0x100 EXP DUP2 SLOAD DUP2 PUSH1 0xFF MUL NOT AND SWAP1 DUP4 ISZERO ISZERO MUL OR SWAP1 SSTORE POP PUSH1 0x1 PUSH1 0x10 PUSH1 0x0 PUSH1 0xD PUSH1 0x0 DUP6 DUP2 MSTORE PUSH1 0x20 ADD SWAP1 DUP2 MSTORE PUSH1 0x20 ADD PUSH1 0x0 KECCAK256 PUSH1 0x8 ADD PUSH1 0x0 SWAP1 SLOAD SWAP1 PUSH2 0x100 EXP SWAP1 DIV PUSH20 0xFFFFFFFFFFFFFFFFFFFFFFFFFFFFFFFFFFFFFFFF AND PUSH20 0xFFFFFFFFFFFFFFFFFFFFFFFFFFFFFFFFFFFFFFFF AND PUSH20 0xFFFFFFFFFFFFFFFFFFFFFFFFFFFFFFFFFFFFFFFF AND DUP2 MSTORE PUSH1 0x20 ADD SWAP1 DUP2 MSTORE PUSH1 0x20 ADD PUSH1 0x0 KECCAK256 PUSH1 0x0 ADD PUSH1 0x0 DUP3 DUP3 SLOAD PUSH2 0x11B5 SWAP2 SWAP1 PUSH2 0x49A3 JUMP JUMPDEST SWAP3 POP POP DUP2 SWAP1 SSTORE POP PUSH1 0x0 DUP1 PUSH1 0xD PUSH1 0x0 DUP5 DUP2 MSTORE PUSH1 0x20 ADD SWAP1 DUP2 MSTORE PUSH1 0x20 ADD PUSH1 0x0 KECCAK256 PUSH1 0x7 ADD PUSH1 0x3 SWAP1 SLOAD SWAP1 PUSH2 0x100 EXP SWAP1 DIV PUSH20 0xFFFFFFFFFFFFFFFFFFFFFFFFFFFFFFFFFFFFFFFF AND PUSH20 0xFFFFFFFFFFFFFFFFFFFFFFFFFFFFFFFFFFFFFFFF AND PUSH1 0xD PUSH1 0x0 DUP6 DUP2 MSTORE PUSH1 0x20 ADD SWAP1 DUP2 MSTORE PUSH1 0x20 ADD PUSH1 0x0 KECCAK256 PUSH1 0x2 ADD SLOAD PUSH1 0x40 MLOAD PUSH2 0x122F SWAP1 PUSH2 0x43FA JUMP JUMPDEST PUSH1 0x0 PUSH1 0x40 MLOAD DUP1 DUP4 SUB DUP2 DUP6 DUP8 GAS CALL SWAP3 POP POP POP RETURNDATASIZE DUP1 PUSH1 0x0 DUP2 EQ PUSH2 0x126C JUMPI PUSH1 0x40 MLOAD SWAP2 POP PUSH1 0x1F NOT PUSH1 0x3F RETURNDATASIZE ADD AND DUP3 ADD PUSH1 0x40 MSTORE RETURNDATASIZE DUP3 MSTORE RETURNDATASIZE PUSH1 0x0 PUSH1 0x20 DUP5 ADD RETURNDATACOPY PUSH2 0x1271 JUMP JUMPDEST PUSH1 0x60 SWAP2 POP JUMPDEST POP SWAP2 POP SWAP2 POP DUP2 PUSH2 0x12B6 JUMPI PUSH1 0x40 MLOAD PUSH32 0x8C379A000000000000000000000000000000000000000000000000000000000 DUP2 MSTORE PUSH1 0x4 ADD PUSH2 0x12AD SWAP1 PUSH2 0x44FC JUMP JUMPDEST PUSH1 0x40 MLOAD DUP1 SWAP2 SUB SWAP1 REVERT JUMPDEST PUSH1 0x0 PUSH1 0xD PUSH1 0x0 DUP6 DUP2 MSTORE PUSH1 0x20 ADD SWAP1 DUP2 MSTORE PUSH1 0x20 ADD PUSH1 0x0 KECCAK256 PUSH1 0x4 ADD DUP2 SWAP1 SSTORE POP PUSH32 0xB8B459BC0688C37BAF5F735D17F1711684BC14AB7DB116F88BC18BF409B9309A DUP4 PUSH1 0x40 MLOAD PUSH2 0x1301 SWAP2 SWAP1 PUSH2 0x46DC JUMP JUMPDEST PUSH1 0x40 MLOAD DUP1 SWAP2 SUB SWAP1 LOG1 POP POP POP JUMP JUMPDEST PUSH1 0x4 PUSH1 0x0 SWAP1 SLOAD SWAP1 PUSH2 0x100 EXP SWAP1 DIV PUSH20 0xFFFFFFFFFFFFFFFFFFFFFFFFFFFFFFFFFFFFFFFF AND DUP2 JUMP JUMPDEST PUSH1 0x8 SLOAD DUP2 JUMP JUMPDEST PUSH1 0x2 SLOAD DUP2 JUMP JUMPDEST PUSH1 0xD PUSH1 0x20 MSTORE DUP1 PUSH1 0x0 MSTORE PUSH1 0x40 PUSH1 0x0 KECCAK256 PUSH1 0x0 SWAP2 POP SWAP1 POP DUP1 PUSH1 0x0 ADD SLOAD SWAP1 DUP1 PUSH1 0x1 ADD SLOAD SWAP1 DUP1 PUSH1 0x2 ADD SLOAD SWAP1 DUP1 PUSH1 0x3 ADD SLOAD SWAP1 DUP1 PUSH1 0x4 ADD SLOAD SWAP1 DUP1 PUSH1 0x5 ADD SLOAD SWAP1 DUP1 PUSH1 0x6 ADD SLOAD SWAP1 DUP1 PUSH1 0x7 ADD PUSH1 0x0 SWAP1 SLOAD SWAP1 PUSH2 0x100 EXP SWAP1 DIV PUSH1 0xFF AND SWAP1 DUP1 PUSH1 0x7 ADD PUSH1 0x1 SWAP1 SLOAD SWAP1 PUSH2 0x100 EXP SWAP1 DIV PUSH1 0xFF AND SWAP1 DUP1 PUSH1 0x7 ADD PUSH1 0x2 SWAP1 SLOAD SWAP1 PUSH2 0x100 EXP SWAP1 DIV PUSH1 0xFF AND SWAP1 DUP1 PUSH1 0x7 ADD PUSH1 0x3 SWAP1 SLOAD SWAP1 PUSH2 0x100 EXP SWAP1 DIV PUSH20 0xFFFFFFFFFFFFFFFFFFFFFFFFFFFFFFFFFFFFFFFF AND SWAP1 DUP1 PUSH1 0x8 ADD PUSH1 0x0 SWAP1 SLOAD SWAP1 PUSH2 0x100 EXP SWAP1 DIV PUSH20 0xFFFFFFFFFFFFFFFFFFFFFFFFFFFFFFFFFFFFFFFF AND SWAP1 POP DUP13 JUMP JUMPDEST PUSH1 0x1 SLOAD DUP2 JUMP JUMPDEST PUSH1 0x0 PUSH1 0x1 PUSH1 0x0 DUP2 SLOAD DUP1 SWAP3 SWAP2 SWAP1 PUSH2 0x1422 SWAP1 PUSH2 0x4BD2 JUMP JUMPDEST SWAP2 SWAP1 POP SSTORE POP PUSH2 0x142F PUSH2 0x3BE8 JUMP JUMPDEST PUSH1 0x1 SLOAD DUP2 PUSH1 0x0 ADD DUP2 DUP2 MSTORE POP POP DUP6 DUP2 PUSH1 0x20 ADD DUP2 SWAP1 MSTORE POP DUP5 DUP2 PUSH1 0x40 ADD SWAP1 ISZERO ISZERO SWAP1 DUP2 ISZERO ISZERO DUP2 MSTORE POP POP DUP4 DUP2 PUSH1 0x60 ADD DUP2 DUP2 MSTORE POP POP CALLER DUP2 PUSH1 0x80 ADD SWAP1 PUSH20 0xFFFFFFFFFFFFFFFFFFFFFFFFFFFFFFFFFFFFFFFF AND SWAP1 DUP2 PUSH20 0xFFFFFFFFFFFFFFFFFFFFFFFFFFFFFFFFFFFFFFFF AND DUP2 MSTORE POP POP DUP3 DUP2 PUSH1 0xA0 ADD DUP2 DUP2 MSTORE POP POP DUP1 PUSH1 0xC PUSH1 0x0 DUP4 PUSH1 0x0 ADD MLOAD DUP2 MSTORE PUSH1 0x20 ADD SWAP1 DUP2 MSTORE PUSH1 0x20 ADD PUSH1 0x0 KECCAK256 PUSH1 0x0 DUP3 ADD MLOAD DUP2 PUSH1 0x0 ADD SSTORE PUSH1 0x20 DUP3 ADD MLOAD DUP2 PUSH1 0x1 ADD SWAP1 DUP1 MLOAD SWAP1 PUSH1 0x20 ADD SWAP1 PUSH2 0x14DE SWAP3 SWAP2 SWAP1 PUSH2 0x3B62 JUMP JUMPDEST POP PUSH1 0x40 DUP3 ADD MLOAD DUP2 PUSH1 0x2 ADD PUSH1 0x0 PUSH2 0x100 EXP DUP2 SLOAD DUP2 PUSH1 0xFF MUL NOT AND SWAP1 DUP4 ISZERO ISZERO MUL OR SWAP1 SSTORE POP PUSH1 0x60 DUP3 ADD MLOAD DUP2 PUSH1 0x3 ADD SSTORE PUSH1 0x80 DUP3 ADD MLOAD DUP2 PUSH1 0x4 ADD PUSH1 0x0 PUSH2 0x100 EXP DUP2 SLOAD DUP2 PUSH20 0xFFFFFFFFFFFFFFFFFFFFFFFFFFFFFFFFFFFFFFFF MUL NOT AND SWAP1 DUP4 PUSH20 0xFFFFFFFFFFFFFFFFFFFFFFFFFFFFFFFFFFFFFFFF AND MUL OR SWAP1 SSTORE POP PUSH1 0xA0 DUP3 ADD MLOAD DUP2 PUSH1 0x5 ADD SSTORE SWAP1 POP POP PUSH32 0x1603F20F721362B0691BB408EDB3CF01409CD56DA9EDD4627B178750B7DD49A8 DUP2 PUSH1 0x0 ADD MLOAD DUP3 PUSH1 0x80 ADD MLOAD DUP4 PUSH1 0x20 ADD MLOAD DUP5 PUSH1 0xA0 ADD MLOAD PUSH1 0x40 MLOAD PUSH2 0x15A2 SWAP5 SWAP4 SWAP3 SWAP2 SWAP1 PUSH2 0x4720 JUMP JUMPDEST PUSH1 0x40 MLOAD DUP1 SWAP2 SUB SWAP1 LOG1 DUP1 PUSH1 0x0 ADD MLOAD SWAP2 POP POP SWAP5 SWAP4 POP POP POP POP JUMP JUMPDEST PUSH1 0x6 PUSH1 0x0 SWAP1 SLOAD SWAP1 PUSH2 0x100 EXP SWAP1 DIV PUSH20 0xFFFFFFFFFFFFFFFFFFFFFFFFFFFFFFFFFFFFFFFF AND DUP2 JUMP JUMPDEST PUSH1 0x1 ISZERO ISZERO PUSH1 0xC PUSH1 0x0 DUP4 DUP2 MSTORE PUSH1 0x20 ADD SWAP1 DUP2 MSTORE PUSH1 0x20 ADD PUSH1 0x0 KECCAK256 PUSH1 0x2 ADD PUSH1 0x0 SWAP1 SLOAD SWAP1 PUSH2 0x100 EXP SWAP1 DIV PUSH1 0xFF AND ISZERO ISZERO EQ PUSH2 0x164A JUMPI PUSH1 0x40 MLOAD PUSH32 0x8C379A000000000000000000000000000000000000000000000000000000000 DUP2 MSTORE PUSH1 0x4 ADD PUSH2 0x1641 SWAP1 PUSH2 0x45DC JUMP JUMPDEST PUSH1 0x40 MLOAD DUP1 SWAP2 SUB SWAP1 REVERT JUMPDEST PUSH1 0x0 ISZERO ISZERO PUSH1 0xE PUSH1 0x0 CALLER PUSH20 0xFFFFFFFFFFFFFFFFFFFFFFFFFFFFFFFFFFFFFFFF AND PUSH20 0xFFFFFFFFFFFFFFFFFFFFFFFFFFFFFFFFFFFFFFFF AND DUP2 MSTORE PUSH1 0x20 ADD SWAP1 DUP2 MSTORE PUSH1 0x20 ADD PUSH1 0x0 KECCAK256 PUSH1 0x0 DUP4 DUP2 MSTORE PUSH1 0x20 ADD SWAP1 DUP2 MSTORE PUSH1 0x20 ADD PUSH1 0x0 KECCAK256 PUSH1 0x0 SWAP1 SLOAD SWAP1 PUSH2 0x100 EXP SWAP1 DIV PUSH1 0xFF AND ISZERO ISZERO EQ PUSH2 0x16EE JUMPI PUSH1 0x40 MLOAD PUSH32 0x8C379A000000000000000000000000000000000000000000000000000000000 DUP2 MSTORE PUSH1 0x4 ADD PUSH2 0x16E5 SWAP1 PUSH2 0x467C JUMP JUMPDEST PUSH1 0x40 MLOAD DUP1 SWAP2 SUB SWAP1 REVERT JUMPDEST PUSH1 0x1 PUSH1 0xE PUSH1 0x0 CALLER PUSH20 0xFFFFFFFFFFFFFFFFFFFFFFFFFFFFFFFFFFFFFFFF AND PUSH20 0xFFFFFFFFFFFFFFFFFFFFFFFFFFFFFFFFFFFFFFFF AND DUP2 MSTORE PUSH1 0x20 ADD SWAP1 DUP2 MSTORE PUSH1 0x20 ADD PUSH1 0x0 KECCAK256 PUSH1 0x0 DUP4 DUP2 MSTORE PUSH1 0x20 ADD SWAP1 DUP2 MSTORE PUSH1 0x20 ADD PUSH1 0x0 KECCAK256 PUSH1 0x0 PUSH2 0x100 EXP DUP2 SLOAD DUP2 PUSH1 0xFF MUL NOT AND SWAP1 DUP4 ISZERO ISZERO MUL OR SWAP1 SSTORE POP PUSH32 0xB9FC72AB4A132463342124FB4C5EBD64BEE8A9874C05D37F846EAF5758EFF4B2 DUP2 CALLER PUSH1 0x40 MLOAD PUSH2 0x1788 SWAP3 SWAP2 SWAP1 PUSH2 0x46F7 JUMP JUMPDEST PUSH1 0x40 MLOAD DUP1 SWAP2 SUB SWAP1 LOG1 POP JUMP JUMPDEST PUSH1 0x11 PUSH1 0x20 MSTORE DUP2 PUSH1 0x0 MSTORE PUSH1 0x40 PUSH1 0x0 KECCAK256 PUSH1 0x20 MSTORE DUP1 PUSH1 0x0 MSTORE PUSH1 0x40 PUSH1 0x0 KECCAK256 PUSH1 0x0 SWAP2 POP SWAP2 POP SWAP1 SLOAD SWAP1 PUSH2 0x100 EXP SWAP1 DIV PUSH1 0xFF AND DUP2 JUMP JUMPDEST PUSH1 0xC PUSH1 0x0 DUP4 DUP2 MSTORE PUSH1 0x20 ADD SWAP1 DUP2 MSTORE PUSH1 0x20 ADD PUSH1 0x0 KECCAK256 PUSH1 0x4 ADD PUSH1 0x0 SWAP1 SLOAD SWAP1 PUSH2 0x100 EXP SWAP1 DIV PUSH20 0xFFFFFFFFFFFFFFFFFFFFFFFFFFFFFFFFFFFFFFFF AND PUSH20 0xFFFFFFFFFFFFFFFFFFFFFFFFFFFFFFFFFFFFFFFF AND CALLER PUSH20 0xFFFFFFFFFFFFFFFFFFFFFFFFFFFFFFFFFFFFFFFF AND EQ PUSH2 0x1866 JUMPI PUSH1 0x40 MLOAD PUSH32 0x8C379A000000000000000000000000000000000000000000000000000000000 DUP2 MSTORE PUSH1 0x4 ADD PUSH2 0x185D SWAP1 PUSH2 0x459C JUMP JUMPDEST PUSH1 0x40 MLOAD DUP1 SWAP2 SUB SWAP1 REVERT JUMPDEST DUP1 PUSH1 0xC PUSH1 0x0 DUP5 DUP2 MSTORE PUSH1 0x20 ADD SWAP1 DUP2 MSTORE PUSH1 0x20 ADD PUSH1 0x0 KECCAK256 PUSH1 0x1 ADD SWAP1 DUP1 MLOAD SWAP1 PUSH1 0x20 ADD SWAP1 PUSH2 0x1890 SWAP3 SWAP2 SWAP1 PUSH2 0x3B62 JUMP JUMPDEST POP PUSH32 0x5E58DFA592B09C585A4AB7EF8158D20B1E52E9897F3095DBE1DF700853905C2F DUP3 PUSH1 0x40 MLOAD PUSH2 0x18C0 SWAP2 SWAP1 PUSH2 0x46DC JUMP JUMPDEST PUSH1 0x40 MLOAD DUP1 SWAP2 SUB SWAP1 LOG1 POP POP JUMP JUMPDEST DUP1 CALLER PUSH20 0xFFFFFFFFFFFFFFFFFFFFFFFFFFFFFFFFFFFFFFFF AND PUSH1 0xD PUSH1 0x0 DUP4 DUP2 MSTORE PUSH1 0x20 ADD SWAP1 DUP2 MSTORE PUSH1 0x20 ADD PUSH1 0x0 KECCAK256 PUSH1 0x7 ADD PUSH1 0x3 SWAP1 SLOAD SWAP1 PUSH2 0x100 EXP SWAP1 DIV PUSH20 0xFFFFFFFFFFFFFFFFFFFFFFFFFFFFFFFFFFFFFFFF AND PUSH20 0xFFFFFFFFFFFFFFFFFFFFFFFFFFFFFFFFFFFFFFFF AND EQ DUP1 PUSH2 0x199E JUMPI POP CALLER PUSH20 0xFFFFFFFFFFFFFFFFFFFFFFFFFFFFFFFFFFFFFFFF AND PUSH1 0xD PUSH1 0x0 DUP4 DUP2 MSTORE PUSH1 0x20 ADD SWAP1 DUP2 MSTORE PUSH1 0x20 ADD PUSH1 0x0 KECCAK256 PUSH1 0x8 ADD PUSH1 0x0 SWAP1 SLOAD SWAP1 PUSH2 0x100 EXP SWAP1 DIV PUSH20 0xFFFFFFFFFFFFFFFFFFFFFFFFFFFFFFFFFFFFFFFF AND PUSH20 0xFFFFFFFFFFFFFFFFFFFFFFFFFFFFFFFFFFFFFFFF AND EQ JUMPDEST PUSH2 0x19DD JUMPI PUSH1 0x40 MLOAD PUSH32 0x8C379A000000000000000000000000000000000000000000000000000000000 DUP2 MSTORE PUSH1 0x4 ADD PUSH2 0x19D4 SWAP1 PUSH2 0x45BC JUMP JUMPDEST PUSH1 0x40 MLOAD DUP1 SWAP2 SUB SWAP1 REVERT JUMPDEST PUSH1 0x1 ISZERO ISZERO PUSH1 0xD PUSH1 0x0 DUP5 DUP2 MSTORE PUSH1 0x20 ADD SWAP1 DUP2 MSTORE PUSH1 0x20 ADD PUSH1 0x0 KECCAK256 PUSH1 0x7 ADD PUSH1 0x2 SWAP1 SLOAD SWAP1 PUSH2 0x100 EXP SWAP1 DIV PUSH1 0xFF AND ISZERO ISZERO EQ PUSH2 0x1A47 JUMPI PUSH1 0x40 MLOAD PUSH32 0x8C379A000000000000000000000000000000000000000000000000000000000 DUP2 MSTORE PUSH1 0x4 ADD PUSH2 0x1A3E SWAP1 PUSH2 0x457C JUMP JUMPDEST PUSH1 0x40 MLOAD DUP1 SWAP2 SUB SWAP1 REVERT JUMPDEST PUSH1 0x3 PUSH1 0xD PUSH1 0x0 DUP5 DUP2 MSTORE PUSH1 0x20 ADD SWAP1 DUP2 MSTORE PUSH1 0x20 ADD PUSH1 0x0 KECCAK256 PUSH1 0x7 ADD PUSH1 0x1 PUSH2 0x100 EXP DUP2 SLOAD DUP2 PUSH1 0xFF MUL NOT AND SWAP1 DUP4 PUSH1 0xFF AND MUL OR SWAP1 SSTORE POP PUSH1 0x3 PUSH1 0xD PUSH1 0x0 DUP5 DUP2 MSTORE PUSH1 0x20 ADD SWAP1 DUP2 MSTORE PUSH1 0x20 ADD PUSH1 0x0 KECCAK256 PUSH1 0x7 ADD PUSH1 0x0 PUSH2 0x100 EXP DUP2 SLOAD DUP2 PUSH1 0xFF MUL NOT AND SWAP1 DUP4 PUSH1 0xFF AND MUL OR SWAP1 SSTORE POP PUSH1 0x0 PUSH1 0xD PUSH1 0x0 DUP5 DUP2 MSTORE PUSH1 0x20 ADD SWAP1 DUP2 MSTORE PUSH1 0x20 ADD PUSH1 0x0 KECCAK256 PUSH1 0x7 ADD PUSH1 0x2 PUSH2 0x100 EXP DUP2 SLOAD DUP2 PUSH1 0xFF MUL NOT AND SWAP1 DUP4 ISZERO ISZERO MUL OR SWAP1 SSTORE POP PUSH2 0x1ADE PUSH2 0x3C36 JUMP JUMPDEST NUMBER DUP2 PUSH1 0x40 ADD DUP2 DUP2 MSTORE POP POP PUSH1 0x1 DUP2 PUSH1 0x60 ADD SWAP1 ISZERO ISZERO SWAP1 DUP2 ISZERO ISZERO DUP2 MSTORE POP POP DUP1 PUSH1 0xF PUSH1 0x0 DUP6 DUP2 MSTORE PUSH1 0x20 ADD SWAP1 DUP2 MSTORE PUSH1 0x20 ADD PUSH1 0x0 KECCAK256 PUSH1 0x0 DUP3 ADD MLOAD DUP2 PUSH1 0x0 ADD SWAP1 DUP1 MLOAD SWAP1 PUSH1 0x20 ADD SWAP1 PUSH2 0x1B29 SWAP3 SWAP2 SWAP1 PUSH2 0x3B62 JUMP JUMPDEST POP PUSH1 0x20 DUP3 ADD MLOAD DUP2 PUSH1 0x1 ADD SWAP1 DUP1 MLOAD SWAP1 PUSH1 0x20 ADD SWAP1 PUSH2 0x1B46 SWAP3 SWAP2 SWAP1 PUSH2 0x3B62 JUMP JUMPDEST POP PUSH1 0x40 DUP3 ADD MLOAD DUP2 PUSH1 0x2 ADD SSTORE PUSH1 0x60 DUP3 ADD MLOAD DUP2 PUSH1 0x3 ADD PUSH1 0x0 PUSH2 0x100 EXP DUP2 SLOAD DUP2 PUSH1 0xFF MUL NOT AND SWAP1 DUP4 ISZERO ISZERO MUL OR SWAP1 SSTORE POP SWAP1 POP POP PUSH32 0xBE50084412C1B5B360C595D895466A9298980A464614CE7FD487FB4C7421F426 DUP4 PUSH1 0x40 MLOAD PUSH2 0x1BA3 SWAP2 SWAP1 PUSH2 0x46DC JUMP JUMPDEST PUSH1 0x40 MLOAD DUP1 SWAP2 SUB SWAP1 LOG1 POP POP POP JUMP JUMPDEST PUSH1 0x0 DUP1 PUSH1 0x6 PUSH1 0x0 SWAP1 SLOAD SWAP1 PUSH2 0x100 EXP SWAP1 DIV PUSH20 0xFFFFFFFFFFFFFFFFFFFFFFFFFFFFFFFFFFFFFFFF AND PUSH20 0xFFFFFFFFFFFFFFFFFFFFFFFFFFFFFFFFFFFFFFFF AND PUSH4 0xFEAF968C PUSH1 0x40 MLOAD DUP2 PUSH4 0xFFFFFFFF AND PUSH1 0xE0 SHL DUP2 MSTORE PUSH1 0x4 ADD PUSH1 0xA0 PUSH1 0x40 MLOAD DUP1 DUP4 SUB DUP2 DUP7 DUP1 EXTCODESIZE ISZERO DUP1 ISZERO PUSH2 0x1C1B JUMPI PUSH1 0x0 DUP1 REVERT JUMPDEST POP GAS STATICCALL ISZERO DUP1 ISZERO PUSH2 0x1C2F JUMPI RETURNDATASIZE PUSH1 0x0 DUP1 RETURNDATACOPY RETURNDATASIZE PUSH1 0x0 REVERT JUMPDEST POP POP POP POP PUSH1 0x40 MLOAD RETURNDATASIZE PUSH1 0x1F NOT PUSH1 0x1F DUP3 ADD AND DUP3 ADD DUP1 PUSH1 0x40 MSTORE POP DUP2 ADD SWAP1 PUSH2 0x1C53 SWAP2 SWAP1 PUSH2 0x40A8 JUMP JUMPDEST POP POP POP SWAP2 POP POP DUP1 SWAP2 POP POP SWAP1 JUMP JUMPDEST PUSH1 0x0 PUSH1 0xC PUSH1 0x0 DUP5 DUP2 MSTORE PUSH1 0x20 ADD SWAP1 DUP2 MSTORE PUSH1 0x20 ADD PUSH1 0x0 KECCAK256 PUSH1 0x4 ADD PUSH1 0x0 SWAP1 SLOAD SWAP1 PUSH2 0x100 EXP SWAP1 DIV PUSH20 0xFFFFFFFFFFFFFFFFFFFFFFFFFFFFFFFFFFFFFFFF AND PUSH20 0xFFFFFFFFFFFFFFFFFFFFFFFFFFFFFFFFFFFFFFFF AND CALLER PUSH20 0xFFFFFFFFFFFFFFFFFFFFFFFFFFFFFFFFFFFFFFFF AND EQ PUSH2 0x1D06 JUMPI PUSH1 0x40 MLOAD PUSH32 0x8C379A000000000000000000000000000000000000000000000000000000000 DUP2 MSTORE PUSH1 0x4 ADD PUSH2 0x1CFD SWAP1 PUSH2 0x463C JUMP JUMPDEST PUSH1 0x40 MLOAD DUP1 SWAP2 SUB SWAP1 REVERT JUMPDEST PUSH1 0x1 ISZERO ISZERO PUSH1 0xE PUSH1 0x0 DUP5 PUSH20 0xFFFFFFFFFFFFFFFFFFFFFFFFFFFFFFFFFFFFFFFF AND PUSH20 0xFFFFFFFFFFFFFFFFFFFFFFFFFFFFFFFFFFFFFFFF AND DUP2 MSTORE PUSH1 0x20 ADD SWAP1 DUP2 MSTORE PUSH1 0x20 ADD PUSH1 0x0 KECCAK256 PUSH1 0x0 DUP6 DUP2 MSTORE PUSH1 0x20 ADD SWAP1 DUP2 MSTORE PUSH1 0x20 ADD PUSH1 0x0 KECCAK256 PUSH1 0x0 SWAP1 SLOAD SWAP1 PUSH2 0x100 EXP SWAP1 DIV PUSH1 0xFF AND ISZERO ISZERO EQ PUSH2 0x1DAA JUMPI PUSH1 0x40 MLOAD PUSH32 0x8C379A000000000000000000000000000000000000000000000000000000000 DUP2 MSTORE PUSH1 0x4 ADD PUSH2 0x1DA1 SWAP1 PUSH2 0x45FC JUMP JUMPDEST PUSH1 0x40 MLOAD DUP1 SWAP2 SUB SWAP1 REVERT JUMPDEST PUSH1 0x0 DUP1 DUP2 SLOAD DUP1 SWAP3 SWAP2 SWAP1 PUSH2 0x1DBC SWAP1 PUSH2 0x4BD2 JUMP JUMPDEST SWAP2 SWAP1 POP SSTORE POP PUSH2 0x1DC9 PUSH2 0x3C60 JUMP JUMPDEST PUSH2 0x1DD1 PUSH2 0x1BB0 JUMP JUMPDEST DUP2 PUSH1 0xC0 ADD DUP2 DUP2 MSTORE POP POP PUSH1 0x0 PUSH4 0x5F5E100 DUP3 PUSH1 0xC0 ADD MLOAD PUSH1 0xC PUSH1 0x0 DUP9 DUP2 MSTORE PUSH1 0x20 ADD SWAP1 DUP2 MSTORE PUSH1 0x20 ADD PUSH1 0x0 KECCAK256 PUSH1 0x3 ADD SLOAD PUSH2 0x1E07 SWAP2 SWAP1 PUSH2 0x49F9 JUMP JUMPDEST PUSH2 0x1E11 SWAP2 SWAP1 PUSH2 0x4A2A JUMP JUMPDEST SWAP1 POP PUSH1 0x0 PUSH2 0x2710 DUP3 PUSH1 0x2 SLOAD PUSH2 0x1E26 SWAP2 SWAP1 PUSH2 0x4A2A JUMP JUMPDEST PUSH2 0x1E30 SWAP2 SWAP1 PUSH2 0x49F9 JUMP JUMPDEST SWAP1 POP DUP2 CALLVALUE LT ISZERO PUSH2 0x1E75 JUMPI PUSH1 0x40 MLOAD PUSH32 0x8C379A000000000000000000000000000000000000000000000000000000000 DUP2 MSTORE PUSH1 0x4 ADD PUSH2 0x1E6C SWAP1 PUSH2 0x46BC JUMP JUMPDEST PUSH1 0x40 MLOAD DUP1 SWAP2 SUB SWAP1 REVERT JUMPDEST PUSH1 0x0 SLOAD DUP4 PUSH1 0x0 ADD DUP2 DUP2 MSTORE POP POP DUP6 DUP4 PUSH1 0x20 ADD DUP2 DUP2 MSTORE POP POP PUSH1 0xC PUSH1 0x0 DUP8 DUP2 MSTORE PUSH1 0x20 ADD SWAP1 DUP2 MSTORE PUSH1 0x20 ADD PUSH1 0x0 KECCAK256 PUSH1 0x3 ADD SLOAD DUP4 PUSH1 0xA0 ADD DUP2 DUP2 MSTORE POP POP DUP2 DUP4 PUSH1 0x40 ADD DUP2 DUP2 MSTORE POP POP DUP1 DUP4 PUSH1 0x80 ADD DUP2 DUP2 MSTORE POP POP PUSH1 0x1 DUP4 PUSH2 0x120 ADD SWAP1 ISZERO ISZERO SWAP1 DUP2 ISZERO ISZERO DUP2 MSTORE POP POP NUMBER DUP4 PUSH1 0x60 ADD DUP2 DUP2 MSTORE POP POP CALLER DUP4 PUSH2 0x140 ADD SWAP1 PUSH20 0xFFFFFFFFFFFFFFFFFFFFFFFFFFFFFFFFFFFFFFFF AND SWAP1 DUP2 PUSH20 0xFFFFFFFFFFFFFFFFFFFFFFFFFFFFFFFFFFFFFFFF AND DUP2 MSTORE POP POP DUP5 DUP4 PUSH2 0x160 ADD SWAP1 PUSH20 0xFFFFFFFFFFFFFFFFFFFFFFFFFFFFFFFFFFFFFFFF AND SWAP1 DUP2 PUSH20 0xFFFFFFFFFFFFFFFFFFFFFFFFFFFFFFFFFFFFFFFF AND DUP2 MSTORE POP POP DUP3 PUSH1 0xD PUSH1 0x0 DUP6 PUSH1 0x0 ADD MLOAD DUP2 MSTORE PUSH1 0x20 ADD SWAP1 DUP2 MSTORE PUSH1 0x20 ADD PUSH1 0x0 KECCAK256 PUSH1 0x0 DUP3 ADD MLOAD DUP2 PUSH1 0x0 ADD SSTORE PUSH1 0x20 DUP3 ADD MLOAD DUP2 PUSH1 0x1 ADD SSTORE PUSH1 0x40 DUP3 ADD MLOAD DUP2 PUSH1 0x2 ADD SSTORE PUSH1 0x60 DUP3 ADD MLOAD DUP2 PUSH1 0x3 ADD SSTORE PUSH1 0x80 DUP3 ADD MLOAD DUP2 PUSH1 0x4 ADD SSTORE PUSH1 0xA0 DUP3 ADD MLOAD DUP2 PUSH1 0x5 ADD SSTORE PUSH1 0xC0 DUP3 ADD MLOAD DUP2 PUSH1 0x6 ADD SSTORE PUSH1 0xE0 DUP3 ADD MLOAD DUP2 PUSH1 0x7 ADD PUSH1 0x0 PUSH2 0x100 EXP DUP2 SLOAD DUP2 PUSH1 0xFF MUL NOT AND SWAP1 DUP4 PUSH1 0xFF AND MUL OR SWAP1 SSTORE POP PUSH2 0x100 DUP3 ADD MLOAD DUP2 PUSH1 0x7 ADD PUSH1 0x1 PUSH2 0x100 EXP DUP2 SLOAD DUP2 PUSH1 0xFF MUL NOT AND SWAP1 DUP4 PUSH1 0xFF AND MUL OR SWAP1 SSTORE POP PUSH2 0x120 DUP3 ADD MLOAD DUP2 PUSH1 0x7 ADD PUSH1 0x2 PUSH2 0x100 EXP DUP2 SLOAD DUP2 PUSH1 0xFF MUL NOT AND SWAP1 DUP4 ISZERO ISZERO MUL OR SWAP1 SSTORE POP PUSH2 0x140 DUP3 ADD MLOAD DUP2 PUSH1 0x7 ADD PUSH1 0x3 PUSH2 0x100 EXP DUP2 SLOAD DUP2 PUSH20 0xFFFFFFFFFFFFFFFFFFFFFFFFFFFFFFFFFFFFFFFF MUL NOT AND SWAP1 DUP4 PUSH20 0xFFFFFFFFFFFFFFFFFFFFFFFFFFFFFFFFFFFFFFFF AND MUL OR SWAP1 SSTORE POP PUSH2 0x160 DUP3 ADD MLOAD DUP2 PUSH1 0x8 ADD PUSH1 0x0 PUSH2 0x100 EXP DUP2 SLOAD DUP2 PUSH20 0xFFFFFFFFFFFFFFFFFFFFFFFFFFFFFFFFFFFFFFFF MUL NOT AND SWAP1 DUP4 PUSH20 0xFFFFFFFFFFFFFFFFFFFFFFFFFFFFFFFFFFFFFFFF AND MUL OR SWAP1 SSTORE POP SWAP1 POP POP DUP2 CALLVALUE GT ISZERO PUSH2 0x2166 JUMPI PUSH1 0x0 DUP1 CALLER PUSH20 0xFFFFFFFFFFFFFFFFFFFFFFFFFFFFFFFFFFFFFFFF AND DUP5 CALLVALUE PUSH2 0x20D0 SWAP2 SWAP1 PUSH2 0x4A84 JUMP JUMPDEST PUSH1 0x40 MLOAD PUSH2 0x20DC SWAP1 PUSH2 0x43FA JUMP JUMPDEST PUSH1 0x0 PUSH1 0x40 MLOAD DUP1 DUP4 SUB DUP2 DUP6 DUP8 GAS CALL SWAP3 POP POP POP RETURNDATASIZE DUP1 PUSH1 0x0 DUP2 EQ PUSH2 0x2119 JUMPI PUSH1 0x40 MLOAD SWAP2 POP PUSH1 0x1F NOT PUSH1 0x3F RETURNDATASIZE ADD AND DUP3 ADD PUSH1 0x40 MSTORE RETURNDATASIZE DUP3 MSTORE RETURNDATASIZE PUSH1 0x0 PUSH1 0x20 DUP5 ADD RETURNDATACOPY PUSH2 0x211E JUMP JUMPDEST PUSH1 0x60 SWAP2 POP JUMPDEST POP SWAP2 POP SWAP2 POP DUP2 PUSH2 0x2163 JUMPI PUSH1 0x40 MLOAD PUSH32 0x8C379A000000000000000000000000000000000000000000000000000000000 DUP2 MSTORE PUSH1 0x4 ADD PUSH2 0x215A SWAP1 PUSH2 0x44FC JUMP JUMPDEST PUSH1 0x40 MLOAD DUP1 SWAP2 SUB SWAP1 REVERT JUMPDEST POP POP JUMPDEST PUSH32 0x99FBE004D22C3A2C77DFABF08B2C8AA74000120F76DB47401AB456FCA80049E9 DUP4 PUSH1 0x0 ADD MLOAD DUP5 PUSH1 0x20 ADD MLOAD DUP6 PUSH1 0x40 ADD MLOAD PUSH1 0xC PUSH1 0x0 DUP12 DUP2 MSTORE PUSH1 0x20 ADD SWAP1 DUP2 MSTORE PUSH1 0x20 ADD PUSH1 0x0 KECCAK256 PUSH1 0x5 ADD SLOAD DUP8 PUSH2 0x140 ADD MLOAD DUP9 PUSH2 0x160 ADD MLOAD PUSH1 0x40 MLOAD PUSH2 0x21CB SWAP7 SWAP6 SWAP5 SWAP4 SWAP3 SWAP2 SWAP1 PUSH2 0x480B JUMP JUMPDEST PUSH1 0x40 MLOAD DUP1 SWAP2 SUB SWAP1 LOG1 DUP3 PUSH1 0x0 ADD MLOAD SWAP4 POP POP POP POP SWAP3 SWAP2 POP POP JUMP JUMPDEST DUP1 CALLER PUSH20 0xFFFFFFFFFFFFFFFFFFFFFFFFFFFFFFFFFFFFFFFF AND PUSH1 0xD PUSH1 0x0 DUP4 DUP2 MSTORE PUSH1 0x20 ADD SWAP1 DUP2 MSTORE PUSH1 0x20 ADD PUSH1 0x0 KECCAK256 PUSH1 0x7 ADD PUSH1 0x3 SWAP1 SLOAD SWAP1 PUSH2 0x100 EXP SWAP1 DIV PUSH20 0xFFFFFFFFFFFFFFFFFFFFFFFFFFFFFFFFFFFFFFFF AND PUSH20 0xFFFFFFFFFFFFFFFFFFFFFFFFFFFFFFFFFFFFFFFF AND EQ DUP1 PUSH2 0x22B5 JUMPI POP CALLER PUSH20 0xFFFFFFFFFFFFFFFFFFFFFFFFFFFFFFFFFFFFFFFF AND PUSH1 0xD PUSH1 0x0 DUP4 DUP2 MSTORE PUSH1 0x20 ADD SWAP1 DUP2 MSTORE PUSH1 0x20 ADD PUSH1 0x0 KECCAK256 PUSH1 0x8 ADD PUSH1 0x0 SWAP1 SLOAD SWAP1 PUSH2 0x100 EXP SWAP1 DIV PUSH20 0xFFFFFFFFFFFFFFFFFFFFFFFFFFFFFFFFFFFFFFFF AND PUSH20 0xFFFFFFFFFFFFFFFFFFFFFFFFFFFFFFFFFFFFFFFF AND EQ JUMPDEST PUSH2 0x22F4 JUMPI PUSH1 0x40 MLOAD PUSH32 0x8C379A000000000000000000000000000000000000000000000000000000000 DUP2 MSTORE PUSH1 0x4 ADD PUSH2 0x22EB SWAP1 PUSH2 0x45BC JUMP JUMPDEST PUSH1 0x40 MLOAD DUP1 SWAP2 SUB SWAP1 REVERT JUMPDEST PUSH1 0x1 ISZERO ISZERO PUSH1 0xD PUSH1 0x0 DUP5 DUP2 MSTORE PUSH1 0x20 ADD SWAP1 DUP2 MSTORE PUSH1 0x20 ADD PUSH1 0x0 KECCAK256 PUSH1 0x7 ADD PUSH1 0x2 SWAP1 SLOAD SWAP1 PUSH2 0x100 EXP SWAP1 DIV PUSH1 0xFF AND ISZERO ISZERO EQ PUSH2 0x235E JUMPI PUSH1 0x40 MLOAD PUSH32 0x8C379A000000000000000000000000000000000000000000000000000000000 DUP2 MSTORE PUSH1 0x4 ADD PUSH2 0x2355 SWAP1 PUSH2 0x457C JUMP JUMPDEST PUSH1 0x40 MLOAD DUP1 SWAP2 SUB SWAP1 REVERT JUMPDEST PUSH1 0xD PUSH1 0x0 DUP4 DUP2 MSTORE PUSH1 0x20 ADD SWAP1 DUP2 MSTORE PUSH1 0x20 ADD PUSH1 0x0 KECCAK256 PUSH1 0x7 ADD PUSH1 0x3 SWAP1 SLOAD SWAP1 PUSH2 0x100 EXP SWAP1 DIV PUSH20 0xFFFFFFFFFFFFFFFFFFFFFFFFFFFFFFFFFFFFFFFF AND PUSH20 0xFFFFFFFFFFFFFFFFFFFFFFFFFFFFFFFFFFFFFFFF AND CALLER PUSH20 0xFFFFFFFFFFFFFFFFFFFFFFFFFFFFFFFFFFFFFFFF AND EQ DUP1 ISZERO PUSH2 0x2430 JUMPI POP PUSH1 0xD PUSH1 0x0 DUP4 DUP2 MSTORE PUSH1 0x20 ADD SWAP1 DUP2 MSTORE PUSH1 0x20 ADD PUSH1 0x0 KECCAK256 PUSH1 0x8 ADD PUSH1 0x0 SWAP1 SLOAD SWAP1 PUSH2 0x100 EXP SWAP1 DIV PUSH20 0xFFFFFFFFFFFFFFFFFFFFFFFFFFFFFFFFFFFFFFFF AND PUSH20 0xFFFFFFFFFFFFFFFFFFFFFFFFFFFFFFFFFFFFFFFF AND CALLER PUSH20 0xFFFFFFFFFFFFFFFFFFFFFFFFFFFFFFFFFFFFFFFF AND EQ JUMPDEST ISZERO PUSH2 0x249A JUMPI PUSH1 0x1 PUSH1 0xD PUSH1 0x0 DUP5 DUP2 MSTORE PUSH1 0x20 ADD SWAP1 DUP2 MSTORE PUSH1 0x20 ADD PUSH1 0x0 KECCAK256 PUSH1 0x7 ADD PUSH1 0x0 PUSH2 0x100 EXP DUP2 SLOAD DUP2 PUSH1 0xFF MUL NOT AND SWAP1 DUP4 PUSH1 0xFF AND MUL OR SWAP1 SSTORE POP PUSH1 0x1 PUSH1 0xD PUSH1 0x0 DUP5 DUP2 MSTORE PUSH1 0x20 ADD SWAP1 DUP2 MSTORE PUSH1 0x20 ADD PUSH1 0x0 KECCAK256 PUSH1 0x7 ADD PUSH1 0x1 PUSH2 0x100 EXP DUP2 SLOAD DUP2 PUSH1 0xFF MUL NOT AND SWAP1 DUP4 PUSH1 0xFF AND MUL OR SWAP1 SSTORE POP PUSH2 0x25D6 JUMP JUMPDEST PUSH1 0xD PUSH1 0x0 DUP4 DUP2 MSTORE PUSH1 0x20 ADD SWAP1 DUP2 MSTORE PUSH1 0x20 ADD PUSH1 0x0 KECCAK256 PUSH1 0x7 ADD PUSH1 0x3 SWAP1 SLOAD SWAP1 PUSH2 0x100 EXP SWAP1 DIV PUSH20 0xFFFFFFFFFFFFFFFFFFFFFFFFFFFFFFFFFFFFFFFF AND PUSH20 0xFFFFFFFFFFFFFFFFFFFFFFFFFFFFFFFFFFFFFFFF AND CALLER PUSH20 0xFFFFFFFFFFFFFFFFFFFFFFFFFFFFFFFFFFFFFFFF AND EQ ISZERO PUSH2 0x2539 JUMPI PUSH1 0x1 PUSH1 0xD PUSH1 0x0 DUP5 DUP2 MSTORE PUSH1 0x20 ADD SWAP1 DUP2 MSTORE PUSH1 0x20 ADD PUSH1 0x0 KECCAK256 PUSH1 0x7 ADD PUSH1 0x0 PUSH2 0x100 EXP DUP2 SLOAD DUP2 PUSH1 0xFF MUL NOT AND SWAP1 DUP4 PUSH1 0xFF AND MUL OR SWAP1 SSTORE POP PUSH2 0x25D5 JUMP JUMPDEST PUSH1 0xD PUSH1 0x0 DUP4 DUP2 MSTORE PUSH1 0x20 ADD SWAP1 DUP2 MSTORE PUSH1 0x20 ADD PUSH1 0x0 KECCAK256 PUSH1 0x8 ADD PUSH1 0x0 SWAP1 SLOAD SWAP1 PUSH2 0x100 EXP SWAP1 DIV PUSH20 0xFFFFFFFFFFFFFFFFFFFFFFFFFFFFFFFFFFFFFFFF AND PUSH20 0xFFFFFFFFFFFFFFFFFFFFFFFFFFFFFFFFFFFFFFFF AND CALLER PUSH20 0xFFFFFFFFFFFFFFFFFFFFFFFFFFFFFFFFFFFFFFFF AND EQ ISZERO PUSH2 0x25D4 JUMPI PUSH1 0x1 PUSH1 0xD PUSH1 0x0 DUP5 DUP2 MSTORE PUSH1 0x20 ADD SWAP1 DUP2 MSTORE PUSH1 0x20 ADD PUSH1 0x0 KECCAK256 PUSH1 0x7 ADD PUSH1 0x1 PUSH2 0x100 EXP DUP2 SLOAD DUP2 PUSH1 0xFF MUL NOT AND SWAP1 DUP4 PUSH1 0xFF AND MUL OR SWAP1 SSTORE POP JUMPDEST JUMPDEST JUMPDEST PUSH1 0x1 PUSH1 0xD PUSH1 0x0 DUP5 DUP2 MSTORE PUSH1 0x20 ADD SWAP1 DUP2 MSTORE PUSH1 0x20 ADD PUSH1 0x0 KECCAK256 PUSH1 0x7 ADD PUSH1 0x0 SWAP1 SLOAD SWAP1 PUSH2 0x100 EXP SWAP1 DIV PUSH1 0xFF AND PUSH1 0xFF AND EQ DUP1 ISZERO PUSH2 0x2632 JUMPI POP PUSH1 0x1 PUSH1 0xD PUSH1 0x0 DUP5 DUP2 MSTORE PUSH1 0x20 ADD SWAP1 DUP2 MSTORE PUSH1 0x20 ADD PUSH1 0x0 KECCAK256 PUSH1 0x7 ADD PUSH1 0x1 SWAP1 SLOAD SWAP1 PUSH2 0x100 EXP SWAP1 DIV PUSH1 0xFF AND PUSH1 0xFF AND EQ JUMPDEST ISZERO PUSH2 0x2BA1 JUMPI PUSH1 0x0 PUSH1 0xD PUSH1 0x0 DUP5 DUP2 MSTORE PUSH1 0x20 ADD SWAP1 DUP2 MSTORE PUSH1 0x20 ADD PUSH1 0x0 KECCAK256 PUSH1 0x7 ADD PUSH1 0x2 PUSH2 0x100 EXP DUP2 SLOAD DUP2 PUSH1 0xFF MUL NOT AND SWAP1 DUP4 ISZERO ISZERO MUL OR SWAP1 SSTORE POP PUSH1 0x0 DUP1 PUSH1 0xD PUSH1 0x0 DUP6 DUP2 MSTORE PUSH1 0x20 ADD SWAP1 DUP2 MSTORE PUSH1 0x20 ADD PUSH1 0x0 KECCAK256 PUSH1 0x8 ADD PUSH1 0x0 SWAP1 SLOAD SWAP1 PUSH2 0x100 EXP SWAP1 DIV PUSH20 0xFFFFFFFFFFFFFFFFFFFFFFFFFFFFFFFFFFFFFFFF AND PUSH20 0xFFFFFFFFFFFFFFFFFFFFFFFFFFFFFFFFFFFFFFFF AND PUSH1 0xD PUSH1 0x0 DUP7 DUP2 MSTORE PUSH1 0x20 ADD SWAP1 DUP2 MSTORE PUSH1 0x20 ADD PUSH1 0x0 KECCAK256 PUSH1 0x4 ADD SLOAD PUSH1 0xD PUSH1 0x0 DUP8 DUP2 MSTORE PUSH1 0x20 ADD SWAP1 DUP2 MSTORE PUSH1 0x20 ADD PUSH1 0x0 KECCAK256 PUSH1 0x2 ADD SLOAD PUSH2 0x26EE SWAP2 SWAP1 PUSH2 0x4A84 JUMP JUMPDEST PUSH1 0x40 MLOAD PUSH2 0x26FA SWAP1 PUSH2 0x43FA JUMP JUMPDEST PUSH1 0x0 PUSH1 0x40 MLOAD DUP1 DUP4 SUB DUP2 DUP6 DUP8 GAS CALL SWAP3 POP POP POP RETURNDATASIZE DUP1 PUSH1 0x0 DUP2 EQ PUSH2 0x2737 JUMPI PUSH1 0x40 MLOAD SWAP2 POP PUSH1 0x1F NOT PUSH1 0x3F RETURNDATASIZE ADD AND DUP3 ADD PUSH1 0x40 MSTORE RETURNDATASIZE DUP3 MSTORE RETURNDATASIZE PUSH1 0x0 PUSH1 0x20 DUP5 ADD RETURNDATACOPY PUSH2 0x273C JUMP JUMPDEST PUSH1 0x60 SWAP2 POP JUMPDEST POP SWAP2 POP SWAP2 POP DUP2 PUSH2 0x2781 JUMPI PUSH1 0x40 MLOAD PUSH32 0x8C379A000000000000000000000000000000000000000000000000000000000 DUP2 MSTORE PUSH1 0x4 ADD PUSH2 0x2778 SWAP1 PUSH2 0x44FC JUMP JUMPDEST PUSH1 0x40 MLOAD DUP1 SWAP2 SUB SWAP1 REVERT JUMPDEST PUSH2 0x27A0 PUSH1 0xD PUSH1 0x0 DUP7 DUP2 MSTORE PUSH1 0x20 ADD SWAP1 DUP2 MSTORE PUSH1 0x20 ADD PUSH1 0x0 KECCAK256 PUSH1 0x4 ADD SLOAD PUSH2 0x3A8D JUMP JUMPDEST PUSH1 0x1 PUSH1 0x10 PUSH1 0x0 PUSH1 0xD PUSH1 0x0 DUP9 DUP2 MSTORE PUSH1 0x20 ADD SWAP1 DUP2 MSTORE PUSH1 0x20 ADD PUSH1 0x0 KECCAK256 PUSH1 0x7 ADD PUSH1 0x3 SWAP1 SLOAD SWAP1 PUSH2 0x100 EXP SWAP1 DIV PUSH20 0xFFFFFFFFFFFFFFFFFFFFFFFFFFFFFFFFFFFFFFFF AND PUSH20 0xFFFFFFFFFFFFFFFFFFFFFFFFFFFFFFFFFFFFFFFF AND PUSH20 0xFFFFFFFFFFFFFFFFFFFFFFFFFFFFFFFFFFFFFFFF AND DUP2 MSTORE PUSH1 0x20 ADD SWAP1 DUP2 MSTORE PUSH1 0x20 ADD PUSH1 0x0 KECCAK256 PUSH1 0x1 ADD PUSH1 0x0 DUP3 DUP3 SLOAD PUSH2 0x2829 SWAP2 SWAP1 PUSH2 0x49A3 JUMP JUMPDEST SWAP3 POP POP DUP2 SWAP1 SSTORE POP PUSH1 0x1 PUSH1 0x10 PUSH1 0x0 PUSH1 0xD PUSH1 0x0 DUP9 DUP2 MSTORE PUSH1 0x20 ADD SWAP1 DUP2 MSTORE PUSH1 0x20 ADD PUSH1 0x0 KECCAK256 PUSH1 0x8 ADD PUSH1 0x0 SWAP1 SLOAD SWAP1 PUSH2 0x100 EXP SWAP1 DIV PUSH20 0xFFFFFFFFFFFFFFFFFFFFFFFFFFFFFFFFFFFFFFFF AND PUSH20 0xFFFFFFFFFFFFFFFFFFFFFFFFFFFFFFFFFFFFFFFF AND PUSH20 0xFFFFFFFFFFFFFFFFFFFFFFFFFFFFFFFFFFFFFFFF AND DUP2 MSTORE PUSH1 0x20 ADD SWAP1 DUP2 MSTORE PUSH1 0x20 ADD PUSH1 0x0 KECCAK256 PUSH1 0x1 ADD PUSH1 0x0 DUP3 DUP3 SLOAD PUSH2 0x28B9 SWAP2 SWAP1 PUSH2 0x49A3 JUMP JUMPDEST SWAP3 POP POP DUP2 SWAP1 SSTORE POP PUSH1 0xB PUSH1 0x0 SWAP1 SLOAD SWAP1 PUSH2 0x100 EXP SWAP1 DIV PUSH1 0xFF AND DUP1 ISZERO PUSH2 0x28F4 JUMPI POP PUSH1 0xA SLOAD PUSH1 0xD PUSH1 0x0 DUP7 DUP2 MSTORE PUSH1 0x20 ADD SWAP1 DUP2 MSTORE PUSH1 0x20 ADD PUSH1 0x0 KECCAK256 PUSH1 0x4 ADD SLOAD LT ISZERO JUMPDEST ISZERO PUSH2 0x2B9E JUMPI PUSH1 0x5 PUSH1 0x0 SWAP1 SLOAD SWAP1 PUSH2 0x100 EXP SWAP1 DIV PUSH20 0xFFFFFFFFFFFFFFFFFFFFFFFFFFFFFFFFFFFFFFFF AND PUSH20 0xFFFFFFFFFFFFFFFFFFFFFFFFFFFFFFFFFFFFFFFF AND PUSH4 0x9A49090E PUSH1 0xD PUSH1 0x0 DUP8 DUP2 MSTORE PUSH1 0x20 ADD SWAP1 DUP2 MSTORE PUSH1 0x20 ADD PUSH1 0x0 KECCAK256 PUSH1 0x7 ADD PUSH1 0x3 SWAP1 SLOAD SWAP1 PUSH2 0x100 EXP SWAP1 DIV PUSH20 0xFFFFFFFFFFFFFFFFFFFFFFFFFFFFFFFFFFFFFFFF AND PUSH1 0x7 SLOAD PUSH1 0x40 MLOAD DUP4 PUSH4 0xFFFFFFFF AND PUSH1 0xE0 SHL DUP2 MSTORE PUSH1 0x4 ADD PUSH2 0x298E SWAP3 SWAP2 SWAP1 PUSH2 0x442A JUMP JUMPDEST PUSH1 0x20 PUSH1 0x40 MLOAD DUP1 DUP4 SUB DUP2 PUSH1 0x0 DUP8 DUP1 EXTCODESIZE ISZERO DUP1 ISZERO PUSH2 0x29A8 JUMPI PUSH1 0x0 DUP1 REVERT JUMPDEST POP GAS CALL ISZERO DUP1 ISZERO PUSH2 0x29BC JUMPI RETURNDATASIZE PUSH1 0x0 DUP1 RETURNDATACOPY RETURNDATASIZE PUSH1 0x0 REVERT JUMPDEST POP POP POP POP PUSH1 0x40 MLOAD RETURNDATASIZE PUSH1 0x1F NOT PUSH1 0x1F DUP3 ADD AND DUP3 ADD DUP1 PUSH1 0x40 MSTORE POP DUP2 ADD SWAP1 PUSH2 0x29E0 SWAP2 SWAP1 PUSH2 0x3EAF JUMP JUMPDEST POP PUSH1 0x5 PUSH1 0x0 SWAP1 SLOAD SWAP1 PUSH2 0x100 EXP SWAP1 DIV PUSH20 0xFFFFFFFFFFFFFFFFFFFFFFFFFFFFFFFFFFFFFFFF AND PUSH20 0xFFFFFFFFFFFFFFFFFFFFFFFFFFFFFFFFFFFFFFFF AND PUSH4 0x9A49090E PUSH1 0xD PUSH1 0x0 DUP8 DUP2 MSTORE PUSH1 0x20 ADD SWAP1 DUP2 MSTORE PUSH1 0x20 ADD PUSH1 0x0 KECCAK256 PUSH1 0x8 ADD PUSH1 0x0 SWAP1 SLOAD SWAP1 PUSH2 0x100 EXP SWAP1 DIV PUSH20 0xFFFFFFFFFFFFFFFFFFFFFFFFFFFFFFFFFFFFFFFF AND PUSH1 0x8 SLOAD PUSH1 0x40 MLOAD DUP4 PUSH4 0xFFFFFFFF AND PUSH1 0xE0 SHL DUP2 MSTORE PUSH1 0x4 ADD PUSH2 0x2A76 SWAP3 SWAP2 SWAP1 PUSH2 0x442A JUMP JUMPDEST PUSH1 0x20 PUSH1 0x40 MLOAD DUP1 DUP4 SUB DUP2 PUSH1 0x0 DUP8 DUP1 EXTCODESIZE ISZERO DUP1 ISZERO PUSH2 0x2A90 JUMPI PUSH1 0x0 DUP1 REVERT JUMPDEST POP GAS CALL ISZERO DUP1 ISZERO PUSH2 0x2AA4 JUMPI RETURNDATASIZE PUSH1 0x0 DUP1 RETURNDATACOPY RETURNDATASIZE PUSH1 0x0 REVERT JUMPDEST POP POP POP POP PUSH1 0x40 MLOAD RETURNDATASIZE PUSH1 0x1F NOT PUSH1 0x1F DUP3 ADD AND DUP3 ADD DUP1 PUSH1 0x40 MSTORE POP DUP2 ADD SWAP1 PUSH2 0x2AC8 SWAP2 SWAP1 PUSH2 0x3EAF JUMP JUMPDEST POP PUSH1 0x5 PUSH1 0x0 SWAP1 SLOAD SWAP1 PUSH2 0x100 EXP SWAP1 DIV PUSH20 0xFFFFFFFFFFFFFFFFFFFFFFFFFFFFFFFFFFFFFFFF AND PUSH20 0xFFFFFFFFFFFFFFFFFFFFFFFFFFFFFFFFFFFFFFFF AND PUSH4 0x9A49090E PUSH1 0x3 PUSH1 0x0 SWAP1 SLOAD SWAP1 PUSH2 0x100 EXP SWAP1 DIV PUSH20 0xFFFFFFFFFFFFFFFFFFFFFFFFFFFFFFFFFFFFFFFF AND PUSH1 0x9 SLOAD PUSH1 0x40 MLOAD DUP4 PUSH4 0xFFFFFFFF AND PUSH1 0xE0 SHL DUP2 MSTORE PUSH1 0x4 ADD PUSH2 0x2B4A SWAP3 SWAP2 SWAP1 PUSH2 0x442A JUMP JUMPDEST PUSH1 0x20 PUSH1 0x40 MLOAD DUP1 DUP4 SUB DUP2 PUSH1 0x0 DUP8 DUP1 EXTCODESIZE ISZERO DUP1 ISZERO PUSH2 0x2B64 JUMPI PUSH1 0x0 DUP1 REVERT JUMPDEST POP GAS CALL ISZERO DUP1 ISZERO PUSH2 0x2B78 JUMPI RETURNDATASIZE PUSH1 0x0 DUP1 RETURNDATACOPY RETURNDATASIZE PUSH1 0x0 REVERT JUMPDEST POP POP POP POP PUSH1 0x40 MLOAD RETURNDATASIZE PUSH1 0x1F NOT PUSH1 0x1F DUP3 ADD AND DUP3 ADD DUP1 PUSH1 0x40 MSTORE POP DUP2 ADD SWAP1 PUSH2 0x2B9C SWAP2 SWAP1 PUSH2 0x3EAF JUMP JUMPDEST POP JUMPDEST POP POP JUMPDEST PUSH32 0xB8B459BC0688C37BAF5F735D17F1711684BC14AB7DB116F88BC18BF409B9309A DUP3 PUSH1 0x40 MLOAD PUSH2 0x2BD0 SWAP2 SWAP1 PUSH2 0x46DC JUMP JUMPDEST PUSH1 0x40 MLOAD DUP1 SWAP2 SUB SWAP1 LOG1 POP POP JUMP JUMPDEST PUSH1 0x0 CALLER PUSH20 0xFFFFFFFFFFFFFFFFFFFFFFFFFFFFFFFFFFFFFFFF AND PUSH1 0x4 PUSH1 0x0 SWAP1 SLOAD SWAP1 PUSH2 0x100 EXP SWAP1 DIV PUSH20 0xFFFFFFFFFFFFFFFFFFFFFFFFFFFFFFFFFFFFFFFF AND PUSH20 0xFFFFFFFFFFFFFFFFFFFFFFFFFFFFFFFFFFFFFFFF AND EQ PUSH2 0x2C38 JUMPI PUSH1 0x0 DUP1 REVERT JUMPDEST PUSH1 0x0 DUP4 EQ ISZERO PUSH2 0x2C4D JUMPI DUP2 PUSH1 0x2 DUP2 SWAP1 SSTORE POP PUSH2 0x2C5F JUMP JUMPDEST PUSH1 0x1 DUP4 EQ ISZERO PUSH2 0x2C5E JUMPI DUP2 PUSH1 0xA DUP2 SWAP1 SSTORE POP JUMPDEST JUMPDEST PUSH1 0x1 SWAP1 POP SWAP3 SWAP2 POP POP JUMP JUMPDEST PUSH1 0x1 ISZERO ISZERO PUSH1 0xF PUSH1 0x0 DUP5 DUP2 MSTORE PUSH1 0x20 ADD SWAP1 DUP2 MSTORE PUSH1 0x20 ADD PUSH1 0x0 KECCAK256 PUSH1 0x3 ADD PUSH1 0x0 SWAP1 SLOAD SWAP1 PUSH2 0x100 EXP SWAP1 DIV PUSH1 0xFF AND ISZERO ISZERO EQ PUSH2 0x2CD3 JUMPI PUSH1 0x40 MLOAD PUSH32 0x8C379A000000000000000000000000000000000000000000000000000000000 DUP2 MSTORE PUSH1 0x4 ADD PUSH2 0x2CCA SWAP1 PUSH2 0x451C JUMP JUMPDEST PUSH1 0x40 MLOAD DUP1 SWAP2 SUB SWAP1 REVERT JUMPDEST PUSH1 0x3 PUSH1 0x0 SWAP1 SLOAD SWAP1 PUSH2 0x100 EXP SWAP1 DIV PUSH20 0xFFFFFFFFFFFFFFFFFFFFFFFFFFFFFFFFFFFFFFFF AND PUSH20 0xFFFFFFFFFFFFFFFFFFFFFFFFFFFFFFFFFFFFFFFF AND CALLER PUSH20 0xFFFFFFFFFFFFFFFFFFFFFFFFFFFFFFFFFFFFFFFF AND EQ PUSH2 0x2D63 JUMPI PUSH1 0x40 MLOAD PUSH32 0x8C379A000000000000000000000000000000000000000000000000000000000 DUP2 MSTORE PUSH1 0x4 ADD PUSH2 0x2D5A SWAP1 PUSH2 0x453C JUMP JUMPDEST PUSH1 0x40 MLOAD DUP1 SWAP2 SUB SWAP1 REVERT JUMPDEST PUSH1 0xD PUSH1 0x0 DUP4 DUP2 MSTORE PUSH1 0x20 ADD SWAP1 DUP2 MSTORE PUSH1 0x20 ADD PUSH1 0x0 KECCAK256 PUSH1 0x7 ADD PUSH1 0x3 SWAP1 SLOAD SWAP1 PUSH2 0x100 EXP SWAP1 DIV PUSH20 0xFFFFFFFFFFFFFFFFFFFFFFFFFFFFFFFFFFFFFFFF AND PUSH20 0xFFFFFFFFFFFFFFFFFFFFFFFFFFFFFFFFFFFFFFFF AND DUP2 PUSH20 0xFFFFFFFFFFFFFFFFFFFFFFFFFFFFFFFFFFFFFFFF AND EQ ISZERO PUSH2 0x2EEA JUMPI PUSH1 0x0 DUP1 PUSH1 0xD PUSH1 0x0 DUP6 DUP2 MSTORE PUSH1 0x20 ADD SWAP1 DUP2 MSTORE PUSH1 0x20 ADD PUSH1 0x0 KECCAK256 PUSH1 0x7 ADD PUSH1 0x3 SWAP1 SLOAD SWAP1 PUSH2 0x100 EXP SWAP1 DIV PUSH20 0xFFFFFFFFFFFFFFFFFFFFFFFFFFFFFFFFFFFFFFFF AND PUSH20 0xFFFFFFFFFFFFFFFFFFFFFFFFFFFFFFFFFFFFFFFF AND PUSH1 0xD PUSH1 0x0 DUP7 DUP2 MSTORE PUSH1 0x20 ADD SWAP1 DUP2 MSTORE PUSH1 0x20 ADD PUSH1 0x0 KECCAK256 PUSH1 0x2 ADD SLOAD PUSH1 0x40 MLOAD PUSH2 0x2E40 SWAP1 PUSH2 0x43FA JUMP JUMPDEST PUSH1 0x0 PUSH1 0x40 MLOAD DUP1 DUP4 SUB DUP2 DUP6 DUP8 GAS CALL SWAP3 POP POP POP RETURNDATASIZE DUP1 PUSH1 0x0 DUP2 EQ PUSH2 0x2E7D JUMPI PUSH1 0x40 MLOAD SWAP2 POP PUSH1 0x1F NOT PUSH1 0x3F RETURNDATASIZE ADD AND DUP3 ADD PUSH1 0x40 MSTORE RETURNDATASIZE DUP3 MSTORE RETURNDATASIZE PUSH1 0x0 PUSH1 0x20 DUP5 ADD RETURNDATACOPY PUSH2 0x2E82 JUMP JUMPDEST PUSH1 0x60 SWAP2 POP JUMPDEST POP SWAP2 POP SWAP2 POP DUP2 PUSH2 0x2EC7 JUMPI PUSH1 0x40 MLOAD PUSH32 0x8C379A000000000000000000000000000000000000000000000000000000000 DUP2 MSTORE PUSH1 0x4 ADD PUSH2 0x2EBE SWAP1 PUSH2 0x44FC JUMP JUMPDEST PUSH1 0x40 MLOAD DUP1 SWAP2 SUB SWAP1 REVERT JUMPDEST PUSH1 0x0 PUSH1 0xD PUSH1 0x0 DUP7 DUP2 MSTORE PUSH1 0x20 ADD SWAP1 DUP2 MSTORE PUSH1 0x20 ADD PUSH1 0x0 KECCAK256 PUSH1 0x4 ADD DUP2 SWAP1 SSTORE POP POP POP PUSH2 0x3092 JUMP JUMPDEST PUSH1 0xD PUSH1 0x0 DUP4 DUP2 MSTORE PUSH1 0x20 ADD SWAP1 DUP2 MSTORE PUSH1 0x20 ADD PUSH1 0x0 KECCAK256 PUSH1 0x8 ADD PUSH1 0x0 SWAP1 SLOAD SWAP1 PUSH2 0x100 EXP SWAP1 DIV PUSH20 0xFFFFFFFFFFFFFFFFFFFFFFFFFFFFFFFFFFFFFFFF AND PUSH20 0xFFFFFFFFFFFFFFFFFFFFFFFFFFFFFFFFFFFFFFFF AND DUP2 PUSH20 0xFFFFFFFFFFFFFFFFFFFFFFFFFFFFFFFFFFFFFFFF AND EQ ISZERO PUSH2 0x3091 JUMPI PUSH1 0x0 DUP1 PUSH1 0xD PUSH1 0x0 DUP6 DUP2 MSTORE PUSH1 0x20 ADD SWAP1 DUP2 MSTORE PUSH1 0x20 ADD PUSH1 0x0 KECCAK256 PUSH1 0x8 ADD PUSH1 0x0 SWAP1 SLOAD SWAP1 PUSH2 0x100 EXP SWAP1 DIV PUSH20 0xFFFFFFFFFFFFFFFFFFFFFFFFFFFFFFFFFFFFFFFF AND PUSH20 0xFFFFFFFFFFFFFFFFFFFFFFFFFFFFFFFFFFFFFFFF AND PUSH1 0xD PUSH1 0x0 DUP7 DUP2 MSTORE PUSH1 0x20 ADD SWAP1 DUP2 MSTORE PUSH1 0x20 ADD PUSH1 0x0 KECCAK256 PUSH1 0x4 ADD SLOAD PUSH1 0xD PUSH1 0x0 DUP8 DUP2 MSTORE PUSH1 0x20 ADD SWAP1 DUP2 MSTORE PUSH1 0x20 ADD PUSH1 0x0 KECCAK256 PUSH1 0x2 ADD SLOAD PUSH2 0x2FDC SWAP2 SWAP1 PUSH2 0x4A84 JUMP JUMPDEST PUSH1 0x40 MLOAD PUSH2 0x2FE8 SWAP1 PUSH2 0x43FA JUMP JUMPDEST PUSH1 0x0 PUSH1 0x40 MLOAD DUP1 DUP4 SUB DUP2 DUP6 DUP8 GAS CALL SWAP3 POP POP POP RETURNDATASIZE DUP1 PUSH1 0x0 DUP2 EQ PUSH2 0x3025 JUMPI PUSH1 0x40 MLOAD SWAP2 POP PUSH1 0x1F NOT PUSH1 0x3F RETURNDATASIZE ADD AND DUP3 ADD PUSH1 0x40 MSTORE RETURNDATASIZE DUP3 MSTORE RETURNDATASIZE PUSH1 0x0 PUSH1 0x20 DUP5 ADD RETURNDATACOPY PUSH2 0x302A JUMP JUMPDEST PUSH1 0x60 SWAP2 POP JUMPDEST POP SWAP2 POP SWAP2 POP DUP2 PUSH2 0x306F JUMPI PUSH1 0x40 MLOAD PUSH32 0x8C379A000000000000000000000000000000000000000000000000000000000 DUP2 MSTORE PUSH1 0x4 ADD PUSH2 0x3066 SWAP1 PUSH2 0x44FC JUMP JUMPDEST PUSH1 0x40 MLOAD DUP1 SWAP2 SUB SWAP1 REVERT JUMPDEST PUSH2 0x308E PUSH1 0xD PUSH1 0x0 DUP7 DUP2 MSTORE PUSH1 0x20 ADD SWAP1 DUP2 MSTORE PUSH1 0x20 ADD PUSH1 0x0 KECCAK256 PUSH1 0x4 ADD SLOAD PUSH2 0x3A8D JUMP JUMPDEST POP POP JUMPDEST JUMPDEST PUSH1 0x4 PUSH1 0xD PUSH1 0x0 DUP5 DUP2 MSTORE PUSH1 0x20 ADD SWAP1 DUP2 MSTORE PUSH1 0x20 ADD PUSH1 0x0 KECCAK256 PUSH1 0x7 ADD PUSH1 0x1 PUSH2 0x100 EXP DUP2 SLOAD DUP2 PUSH1 0xFF MUL NOT AND SWAP1 DUP4 PUSH1 0xFF AND MUL OR SWAP1 SSTORE POP PUSH1 0x4 PUSH1 0xD PUSH1 0x0 DUP5 DUP2 MSTORE PUSH1 0x20 ADD SWAP1 DUP2 MSTORE PUSH1 0x20 ADD PUSH1 0x0 KECCAK256 PUSH1 0x7 ADD PUSH1 0x0 PUSH2 0x100 EXP DUP2 SLOAD DUP2 PUSH1 0xFF MUL NOT AND SWAP1 DUP4 PUSH1 0xFF AND MUL OR SWAP1 SSTORE POP PUSH1 0x1 PUSH1 0x10 PUSH1 0x0 PUSH1 0xD PUSH1 0x0 DUP7 DUP2 MSTORE PUSH1 0x20 ADD SWAP1 DUP2 MSTORE PUSH1 0x20 ADD PUSH1 0x0 KECCAK256 PUSH1 0x7 ADD PUSH1 0x3 SWAP1 SLOAD SWAP1 PUSH2 0x100 EXP SWAP1 DIV PUSH20 0xFFFFFFFFFFFFFFFFFFFFFFFFFFFFFFFFFFFFFFFF AND PUSH20 0xFFFFFFFFFFFFFFFFFFFFFFFFFFFFFFFFFFFFFFFF AND PUSH20 0xFFFFFFFFFFFFFFFFFFFFFFFFFFFFFFFFFFFFFFFF AND DUP2 MSTORE PUSH1 0x20 ADD SWAP1 DUP2 MSTORE PUSH1 0x20 ADD PUSH1 0x0 KECCAK256 PUSH1 0x2 ADD PUSH1 0x0 DUP3 DUP3 SLOAD PUSH2 0x317B SWAP2 SWAP1 PUSH2 0x49A3 JUMP JUMPDEST SWAP3 POP POP DUP2 SWAP1 SSTORE POP PUSH1 0x1 PUSH1 0x10 PUSH1 0x0 PUSH1 0xD PUSH1 0x0 DUP7 DUP2 MSTORE PUSH1 0x20 ADD SWAP1 DUP2 MSTORE PUSH1 0x20 ADD PUSH1 0x0 KECCAK256 PUSH1 0x8 ADD PUSH1 0x0 SWAP1 SLOAD SWAP1 PUSH2 0x100 EXP SWAP1 DIV PUSH20 0xFFFFFFFFFFFFFFFFFFFFFFFFFFFFFFFFFFFFFFFF AND PUSH20 0xFFFFFFFFFFFFFFFFFFFFFFFFFFFFFFFFFFFFFFFF AND PUSH20 0xFFFFFFFFFFFFFFFFFFFFFFFFFFFFFFFFFFFFFFFF AND DUP2 MSTORE PUSH1 0x20 ADD SWAP1 DUP2 MSTORE PUSH1 0x20 ADD PUSH1 0x0 KECCAK256 PUSH1 0x2 ADD PUSH1 0x0 DUP3 DUP3 SLOAD PUSH2 0x320B SWAP2 SWAP1 PUSH2 0x49A3 JUMP JUMPDEST SWAP3 POP POP DUP2 SWAP1 SSTORE POP PUSH1 0x0 PUSH1 0xF PUSH1 0x0 DUP5 DUP2 MSTORE PUSH1 0x20 ADD SWAP1 DUP2 MSTORE PUSH1 0x20 ADD PUSH1 0x0 KECCAK256 PUSH1 0x3 ADD PUSH1 0x0 PUSH2 0x100 EXP DUP2 SLOAD DUP2 PUSH1 0xFF MUL NOT AND SWAP1 DUP4 ISZERO ISZERO MUL OR SWAP1 SSTORE POP PUSH32 0x29A00CD7B143153A043355A38ED7FA14305CD81468035C2E2E389897F38980D8 DUP3 PUSH1 0x40 MLOAD PUSH2 0x3270 SWAP2 SWAP1 PUSH2 0x46DC JUMP JUMPDEST PUSH1 0x40 MLOAD DUP1 SWAP2 SUB SWAP1 LOG1 POP POP JUMP JUMPDEST PUSH1 0xC PUSH1 0x0 DUP4 DUP2 MSTORE PUSH1 0x20 ADD SWAP1 DUP2 MSTORE PUSH1 0x20 ADD PUSH1 0x0 KECCAK256 PUSH1 0x4 ADD PUSH1 0x0 SWAP1 SLOAD SWAP1 PUSH2 0x100 EXP SWAP1 DIV PUSH20 0xFFFFFFFFFFFFFFFFFFFFFFFFFFFFFFFFFFFFFFFF AND PUSH20 0xFFFFFFFFFFFFFFFFFFFFFFFFFFFFFFFFFFFFFFFF AND CALLER PUSH20 0xFFFFFFFFFFFFFFFFFFFFFFFFFFFFFFFFFFFFFFFF AND EQ PUSH2 0x3320 JUMPI PUSH1 0x40 MLOAD PUSH32 0x8C379A000000000000000000000000000000000000000000000000000000000 DUP2 MSTORE PUSH1 0x4 ADD PUSH2 0x3317 SWAP1 PUSH2 0x459C JUMP JUMPDEST PUSH1 0x40 MLOAD DUP1 SWAP2 SUB SWAP1 REVERT JUMPDEST DUP1 PUSH1 0xC PUSH1 0x0 DUP5 DUP2 MSTORE PUSH1 0x20 ADD SWAP1 DUP2 MSTORE PUSH1 0x20 ADD PUSH1 0x0 KECCAK256 PUSH1 0x2 ADD PUSH1 0x0 PUSH2 0x100 EXP DUP2 SLOAD DUP2 PUSH1 0xFF MUL NOT AND SWAP1 DUP4 ISZERO ISZERO MUL OR SWAP1 SSTORE POP PUSH32 0x5E58DFA592B09C585A4AB7EF8158D20B1E52E9897F3095DBE1DF700853905C2F DUP3 PUSH1 0x40 MLOAD PUSH2 0x337D SWAP2 SWAP1 PUSH2 0x46DC JUMP JUMPDEST PUSH1 0x40 MLOAD DUP1 SWAP2 SUB SWAP1 LOG1 POP POP JUMP JUMPDEST PUSH1 0x7 SLOAD DUP2 JUMP JUMPDEST PUSH1 0xC PUSH1 0x0 DUP4 DUP2 MSTORE PUSH1 0x20 ADD SWAP1 DUP2 MSTORE PUSH1 0x20 ADD PUSH1 0x0 KECCAK256 PUSH1 0x4 ADD PUSH1 0x0 SWAP1 SLOAD SWAP1 PUSH2 0x100 EXP SWAP1 DIV PUSH20 0xFFFFFFFFFFFFFFFFFFFFFFFFFFFFFFFFFFFFFFFF AND PUSH20 0xFFFFFFFFFFFFFFFFFFFFFFFFFFFFFFFFFFFFFFFF AND CALLER PUSH20 0xFFFFFFFFFFFFFFFFFFFFFFFFFFFFFFFFFFFFFFFF AND EQ PUSH2 0x3433 JUMPI PUSH1 0x40 MLOAD PUSH32 0x8C379A000000000000000000000000000000000000000000000000000000000 DUP2 MSTORE PUSH1 0x4 ADD PUSH2 0x342A SWAP1 PUSH2 0x459C JUMP JUMPDEST PUSH1 0x40 MLOAD DUP1 SWAP2 SUB SWAP1 REVERT JUMPDEST DUP1 PUSH1 0xC PUSH1 0x0 DUP5 DUP2 MSTORE PUSH1 0x20 ADD SWAP1 DUP2 MSTORE PUSH1 0x20 ADD PUSH1 0x0 KECCAK256 PUSH1 0x3 ADD DUP2 SWAP1 SSTORE POP PUSH32 0x5E58DFA592B09C585A4AB7EF8158D20B1E52E9897F3095DBE1DF700853905C2F DUP3 PUSH1 0x40 MLOAD PUSH2 0x347D SWAP2 SWAP1 PUSH2 0x46DC JUMP JUMPDEST PUSH1 0x40 MLOAD DUP1 SWAP2 SUB SWAP1 LOG1 POP POP JUMP JUMPDEST PUSH1 0x0 PUSH1 0x1 ISZERO ISZERO PUSH1 0xC PUSH1 0x0 DUP5 DUP2 MSTORE PUSH1 0x20 ADD SWAP1 DUP2 MSTORE PUSH1 0x20 ADD PUSH1 0x0 KECCAK256 PUSH1 0x2 ADD PUSH1 0x0 SWAP1 SLOAD SWAP1 PUSH2 0x100 EXP SWAP1 DIV PUSH1 0xFF AND ISZERO ISZERO EQ PUSH2 0x34F5 JUMPI PUSH1 0x40 MLOAD PUSH32 0x8C379A000000000000000000000000000000000000000000000000000000000 DUP2 MSTORE PUSH1 0x4 ADD PUSH2 0x34EC SWAP1 PUSH2 0x44DC JUMP JUMPDEST PUSH1 0x40 MLOAD DUP1 SWAP2 SUB SWAP1 REVERT JUMPDEST PUSH1 0x0 DUP1 DUP2 SLOAD DUP1 SWAP3 SWAP2 SWAP1 PUSH2 0x3507 SWAP1 PUSH2 0x4BD2 JUMP JUMPDEST SWAP2 SWAP1 POP SSTORE POP PUSH2 0x3514 PUSH2 0x3C60 JUMP JUMPDEST PUSH2 0x351C PUSH2 0x1BB0 JUMP JUMPDEST DUP2 PUSH1 0xC0 ADD DUP2 DUP2 MSTORE POP POP PUSH1 0x0 PUSH4 0x5F5E100 DUP3 PUSH1 0xC0 ADD MLOAD PUSH1 0xC PUSH1 0x0 DUP8 DUP2 MSTORE PUSH1 0x20 ADD SWAP1 DUP2 MSTORE PUSH1 0x20 ADD PUSH1 0x0 KECCAK256 PUSH1 0x3 ADD SLOAD PUSH2 0x3552 SWAP2 SWAP1 PUSH2 0x49F9 JUMP JUMPDEST PUSH2 0x355C SWAP2 SWAP1 PUSH2 0x4A2A JUMP JUMPDEST SWAP1 POP PUSH1 0x0 PUSH2 0x2710 DUP3 PUSH1 0x2 SLOAD PUSH2 0x3571 SWAP2 SWAP1 PUSH2 0x4A2A JUMP JUMPDEST PUSH2 0x357B SWAP2 SWAP1 PUSH2 0x49F9 JUMP JUMPDEST SWAP1 POP DUP2 CALLVALUE LT ISZERO PUSH2 0x35C0 JUMPI PUSH1 0x40 MLOAD PUSH32 0x8C379A000000000000000000000000000000000000000000000000000000000 DUP2 MSTORE PUSH1 0x4 ADD PUSH2 0x35B7 SWAP1 PUSH2 0x46BC JUMP JUMPDEST PUSH1 0x40 MLOAD DUP1 SWAP2 SUB SWAP1 REVERT JUMPDEST PUSH1 0x0 SLOAD DUP4 PUSH1 0x0 ADD DUP2 DUP2 MSTORE POP POP DUP5 DUP4 PUSH1 0x20 ADD DUP2 DUP2 MSTORE POP POP PUSH1 0xC PUSH1 0x0 DUP7 DUP2 MSTORE PUSH1 0x20 ADD SWAP1 DUP2 MSTORE PUSH1 0x20 ADD PUSH1 0x0 KECCAK256 PUSH1 0x3 ADD SLOAD DUP4 PUSH1 0xA0 ADD DUP2 DUP2 MSTORE POP POP DUP2 DUP4 PUSH1 0x40 ADD DUP2 DUP2 MSTORE POP POP DUP1 DUP4 PUSH1 0x80 ADD DUP2 DUP2 MSTORE POP POP PUSH1 0x1 DUP4 PUSH2 0x120 ADD SWAP1 ISZERO ISZERO SWAP1 DUP2 ISZERO ISZERO DUP2 MSTORE POP POP NUMBER DUP4 PUSH1 0x60 ADD DUP2 DUP2 MSTORE POP POP CALLER DUP4 PUSH2 0x140 ADD SWAP1 PUSH20 0xFFFFFFFFFFFFFFFFFFFFFFFFFFFFFFFFFFFFFFFF AND SWAP1 DUP2 PUSH20 0xFFFFFFFFFFFFFFFFFFFFFFFFFFFFFFFFFFFFFFFF AND DUP2 MSTORE POP POP PUSH1 0xC PUSH1 0x0 DUP7 DUP2 MSTORE PUSH1 0x20 ADD SWAP1 DUP2 MSTORE PUSH1 0x20 ADD PUSH1 0x0 KECCAK256 PUSH1 0x4 ADD PUSH1 0x0 SWAP1 SLOAD SWAP1 PUSH2 0x100 EXP SWAP1 DIV PUSH20 0xFFFFFFFFFFFFFFFFFFFFFFFFFFFFFFFFFFFFFFFF AND DUP4 PUSH2 0x160 ADD SWAP1 PUSH20 0xFFFFFFFFFFFFFFFFFFFFFFFFFFFFFFFFFFFFFFFF AND SWAP1 DUP2 PUSH20 0xFFFFFFFFFFFFFFFFFFFFFFFFFFFFFFFFFFFFFFFF AND DUP2 MSTORE POP POP DUP3 PUSH1 0xD PUSH1 0x0 DUP6 PUSH1 0x0 ADD MLOAD DUP2 MSTORE PUSH1 0x20 ADD SWAP1 DUP2 MSTORE PUSH1 0x20 ADD PUSH1 0x0 KECCAK256 PUSH1 0x0 DUP3 ADD MLOAD DUP2 PUSH1 0x0 ADD SSTORE PUSH1 0x20 DUP3 ADD MLOAD DUP2 PUSH1 0x1 ADD SSTORE PUSH1 0x40 DUP3 ADD MLOAD DUP2 PUSH1 0x2 ADD SSTORE PUSH1 0x60 DUP3 ADD MLOAD DUP2 PUSH1 0x3 ADD SSTORE PUSH1 0x80 DUP3 ADD MLOAD DUP2 PUSH1 0x4 ADD SSTORE PUSH1 0xA0 DUP3 ADD MLOAD DUP2 PUSH1 0x5 ADD SSTORE PUSH1 0xC0 DUP3 ADD MLOAD DUP2 PUSH1 0x6 ADD SSTORE PUSH1 0xE0 DUP3 ADD MLOAD DUP2 PUSH1 0x7 ADD PUSH1 0x0 PUSH2 0x100 EXP DUP2 SLOAD DUP2 PUSH1 0xFF MUL NOT AND SWAP1 DUP4 PUSH1 0xFF AND MUL OR SWAP1 SSTORE POP PUSH2 0x100 DUP3 ADD MLOAD DUP2 PUSH1 0x7 ADD PUSH1 0x1 PUSH2 0x100 EXP DUP2 SLOAD DUP2 PUSH1 0xFF MUL NOT AND SWAP1 DUP4 PUSH1 0xFF AND MUL OR SWAP1 SSTORE POP PUSH2 0x120 DUP3 ADD MLOAD DUP2 PUSH1 0x7 ADD PUSH1 0x2 PUSH2 0x100 EXP DUP2 SLOAD DUP2 PUSH1 0xFF MUL NOT AND SWAP1 DUP4 ISZERO ISZERO MUL OR SWAP1 SSTORE POP PUSH2 0x140 DUP3 ADD MLOAD DUP2 PUSH1 0x7 ADD PUSH1 0x3 PUSH2 0x100 EXP DUP2 SLOAD DUP2 PUSH20 0xFFFFFFFFFFFFFFFFFFFFFFFFFFFFFFFFFFFFFFFF MUL NOT AND SWAP1 DUP4 PUSH20 0xFFFFFFFFFFFFFFFFFFFFFFFFFFFFFFFFFFFFFFFF AND MUL OR SWAP1 SSTORE POP PUSH2 0x160 DUP3 ADD MLOAD DUP2 PUSH1 0x8 ADD PUSH1 0x0 PUSH2 0x100 EXP DUP2 SLOAD DUP2 PUSH20 0xFFFFFFFFFFFFFFFFFFFFFFFFFFFFFFFFFFFFFFFF MUL NOT AND SWAP1 DUP4 PUSH20 0xFFFFFFFFFFFFFFFFFFFFFFFFFFFFFFFFFFFFFFFF AND MUL OR SWAP1 SSTORE POP SWAP1 POP POP DUP2 CALLVALUE GT ISZERO PUSH2 0x38E7 JUMPI PUSH1 0x0 DUP1 CALLER PUSH20 0xFFFFFFFFFFFFFFFFFFFFFFFFFFFFFFFFFFFFFFFF AND DUP5 CALLVALUE PUSH2 0x3851 SWAP2 SWAP1 PUSH2 0x4A84 JUMP JUMPDEST PUSH1 0x40 MLOAD PUSH2 0x385D SWAP1 PUSH2 0x43FA JUMP JUMPDEST PUSH1 0x0 PUSH1 0x40 MLOAD DUP1 DUP4 SUB DUP2 DUP6 DUP8 GAS CALL SWAP3 POP POP POP RETURNDATASIZE DUP1 PUSH1 0x0 DUP2 EQ PUSH2 0x389A JUMPI PUSH1 0x40 MLOAD SWAP2 POP PUSH1 0x1F NOT PUSH1 0x3F RETURNDATASIZE ADD AND DUP3 ADD PUSH1 0x40 MSTORE RETURNDATASIZE DUP3 MSTORE RETURNDATASIZE PUSH1 0x0 PUSH1 0x20 DUP5 ADD RETURNDATACOPY PUSH2 0x389F JUMP JUMPDEST PUSH1 0x60 SWAP2 POP JUMPDEST POP SWAP2 POP SWAP2 POP DUP2 PUSH2 0x38E4 JUMPI PUSH1 0x40 MLOAD PUSH32 0x8C379A000000000000000000000000000000000000000000000000000000000 DUP2 MSTORE PUSH1 0x4 ADD PUSH2 0x38DB SWAP1 PUSH2 0x44FC JUMP JUMPDEST PUSH1 0x40 MLOAD DUP1 SWAP2 SUB SWAP1 REVERT JUMPDEST POP POP JUMPDEST PUSH32 0x99FBE004D22C3A2C77DFABF08B2C8AA74000120F76DB47401AB456FCA80049E9 DUP4 PUSH1 0x0 ADD MLOAD DUP5 PUSH1 0x20 ADD MLOAD DUP6 PUSH1 0x40 ADD MLOAD PUSH1 0xC PUSH1 0x0 DUP11 DUP2 MSTORE PUSH1 0x20 ADD SWAP1 DUP2 MSTORE PUSH1 0x20 ADD PUSH1 0x0 KECCAK256 PUSH1 0x5 ADD SLOAD DUP8 PUSH2 0x140 ADD MLOAD DUP9 PUSH2 0x160 ADD MLOAD PUSH1 0x40 MLOAD PUSH2 0x394C SWAP7 SWAP6 SWAP5 SWAP4 SWAP3 SWAP2 SWAP1 PUSH2 0x480B JUMP JUMPDEST PUSH1 0x40 MLOAD DUP1 SWAP2 SUB SWAP1 LOG1 DUP3 PUSH1 0x0 ADD MLOAD SWAP4 POP POP POP POP SWAP2 SWAP1 POP JUMP JUMPDEST PUSH1 0xB PUSH1 0x0 SWAP1 SLOAD SWAP1 PUSH2 0x100 EXP SWAP1 DIV PUSH1 0xFF AND DUP2 JUMP JUMPDEST PUSH1 0x3 PUSH1 0x0 SWAP1 SLOAD SWAP1 PUSH2 0x100 EXP SWAP1 DIV PUSH20 0xFFFFFFFFFFFFFFFFFFFFFFFFFFFFFFFFFFFFFFFF AND DUP2 JUMP JUMPDEST PUSH1 0xC PUSH1 0x20 MSTORE DUP1 PUSH1 0x0 MSTORE PUSH1 0x40 PUSH1 0x0 KECCAK256 PUSH1 0x0 SWAP2 POP SWAP1 POP DUP1 PUSH1 0x0 ADD SLOAD SWAP1 DUP1 PUSH1 0x1 ADD DUP1 SLOAD PUSH2 0x39C5 SWAP1 PUSH2 0x4B6F JUMP JUMPDEST DUP1 PUSH1 0x1F ADD PUSH1 0x20 DUP1 SWAP2 DIV MUL PUSH1 0x20 ADD PUSH1 0x40 MLOAD SWAP1 DUP2 ADD PUSH1 0x40 MSTORE DUP1 SWAP3 SWAP2 SWAP1 DUP2 DUP2 MSTORE PUSH1 0x20 ADD DUP3 DUP1 SLOAD PUSH2 0x39F1 SWAP1 PUSH2 0x4B6F JUMP JUMPDEST DUP1 ISZERO PUSH2 0x3A3E JUMPI DUP1 PUSH1 0x1F LT PUSH2 0x3A13 JUMPI PUSH2 0x100 DUP1 DUP4 SLOAD DIV MUL DUP4 MSTORE SWAP2 PUSH1 0x20 ADD SWAP2 PUSH2 0x3A3E JUMP JUMPDEST DUP3 ADD SWAP2 SWAP1 PUSH1 0x0 MSTORE PUSH1 0x20 PUSH1 0x0 KECCAK256 SWAP1 JUMPDEST DUP2 SLOAD DUP2 MSTORE SWAP1 PUSH1 0x1 ADD SWAP1 PUSH1 0x20 ADD DUP1 DUP4 GT PUSH2 0x3A21 JUMPI DUP3 SWAP1 SUB PUSH1 0x1F AND DUP3 ADD SWAP2 JUMPDEST POP POP POP POP POP SWAP1 DUP1 PUSH1 0x2 ADD PUSH1 0x0 SWAP1 SLOAD SWAP1 PUSH2 0x100 EXP SWAP1 DIV PUSH1 0xFF AND SWAP1 DUP1 PUSH1 0x3 ADD SLOAD SWAP1 DUP1 PUSH1 0x4 ADD PUSH1 0x0 SWAP1 SLOAD SWAP1 PUSH2 0x100 EXP SWAP1 DIV PUSH20 0xFFFFFFFFFFFFFFFFFFFFFFFFFFFFFFFFFFFFFFFF AND SWAP1 DUP1 PUSH1 0x5 ADD SLOAD SWAP1 POP DUP7 JUMP JUMPDEST PUSH1 0x0 DUP1 PUSH1 0x4 PUSH1 0x0 SWAP1 SLOAD SWAP1 PUSH2 0x100 EXP SWAP1 DIV PUSH20 0xFFFFFFFFFFFFFFFFFFFFFFFFFFFFFFFFFFFFFFFF AND PUSH20 0xFFFFFFFFFFFFFFFFFFFFFFFFFFFFFFFFFFFFFFFF AND DUP4 PUSH1 0x40 MLOAD PUSH2 0x3AD6 SWAP1 PUSH2 0x43FA JUMP JUMPDEST PUSH1 0x0 PUSH1 0x40 MLOAD DUP1 DUP4 SUB DUP2 DUP6 DUP8 GAS CALL SWAP3 POP POP POP RETURNDATASIZE DUP1 PUSH1 0x0 DUP2 EQ PUSH2 0x3B13 JUMPI PUSH1 0x40 MLOAD SWAP2 POP PUSH1 0x1F NOT PUSH1 0x3F RETURNDATASIZE ADD AND DUP3 ADD PUSH1 0x40 MSTORE RETURNDATASIZE DUP3 MSTORE RETURNDATASIZE PUSH1 0x0 PUSH1 0x20 DUP5 ADD RETURNDATACOPY PUSH2 0x3B18 JUMP JUMPDEST PUSH1 0x60 SWAP2 POP JUMPDEST POP SWAP2 POP SWAP2 POP DUP2 PUSH2 0x3B5D JUMPI PUSH1 0x40 MLOAD PUSH32 0x8C379A000000000000000000000000000000000000000000000000000000000 DUP2 MSTORE PUSH1 0x4 ADD PUSH2 0x3B54 SWAP1 PUSH2 0x44FC JUMP JUMPDEST PUSH1 0x40 MLOAD DUP1 SWAP2 SUB SWAP1 REVERT JUMPDEST POP POP POP JUMP JUMPDEST DUP3 DUP1 SLOAD PUSH2 0x3B6E SWAP1 PUSH2 0x4B6F JUMP JUMPDEST SWAP1 PUSH1 0x0 MSTORE PUSH1 0x20 PUSH1 0x0 KECCAK256 SWAP1 PUSH1 0x1F ADD PUSH1 0x20 SWAP1 DIV DUP2 ADD SWAP3 DUP3 PUSH2 0x3B90 JUMPI PUSH1 0x0 DUP6 SSTORE PUSH2 0x3BD7 JUMP JUMPDEST DUP3 PUSH1 0x1F LT PUSH2 0x3BA9 JUMPI DUP1 MLOAD PUSH1 0xFF NOT AND DUP4 DUP1 ADD OR DUP6 SSTORE PUSH2 0x3BD7 JUMP JUMPDEST DUP3 DUP1 ADD PUSH1 0x1 ADD DUP6 SSTORE DUP3 ISZERO PUSH2 0x3BD7 JUMPI SWAP2 DUP3 ADD JUMPDEST DUP3 DUP2 GT ISZERO PUSH2 0x3BD6 JUMPI DUP3 MLOAD DUP3 SSTORE SWAP2 PUSH1 0x20 ADD SWAP2 SWAP1 PUSH1 0x1 ADD SWAP1 PUSH2 0x3BBB JUMP JUMPDEST JUMPDEST POP SWAP1 POP PUSH2 0x3BE4 SWAP2 SWAP1 PUSH2 0x3CF5 JUMP JUMPDEST POP SWAP1 JUMP JUMPDEST PUSH1 0x40 MLOAD DUP1 PUSH1 0xC0 ADD PUSH1 0x40 MSTORE DUP1 PUSH1 0x0 DUP2 MSTORE PUSH1 0x20 ADD PUSH1 0x60 DUP2 MSTORE PUSH1 0x20 ADD PUSH1 0x0 ISZERO ISZERO DUP2 MSTORE PUSH1 0x20 ADD PUSH1 0x0 DUP2 MSTORE PUSH1 0x20 ADD PUSH1 0x0 PUSH20 0xFFFFFFFFFFFFFFFFFFFFFFFFFFFFFFFFFFFFFFFF AND DUP2 MSTORE PUSH1 0x20 ADD PUSH1 0x0 DUP2 MSTORE POP SWAP1 JUMP JUMPDEST PUSH1 0x40 MLOAD DUP1 PUSH1 0x80 ADD PUSH1 0x40 MSTORE DUP1 PUSH1 0x60 DUP2 MSTORE PUSH1 0x20 ADD PUSH1 0x60 DUP2 MSTORE PUSH1 0x20 ADD PUSH1 0x0 DUP2 MSTORE PUSH1 0x20 ADD PUSH1 0x0 ISZERO ISZERO DUP2 MSTORE POP SWAP1 JUMP JUMPDEST PUSH1 0x40 MLOAD DUP1 PUSH2 0x180 ADD PUSH1 0x40 MSTORE DUP1 PUSH1 0x0 DUP2 MSTORE PUSH1 0x20 ADD PUSH1 0x0 DUP2 MSTORE PUSH1 0x20 ADD PUSH1 0x0 DUP2 MSTORE PUSH1 0x20 ADD PUSH1 0x0 DUP2 MSTORE PUSH1 0x20 ADD PUSH1 0x0 DUP2 MSTORE PUSH1 0x20 ADD PUSH1 0x0 DUP2 MSTORE PUSH1 0x20 ADD PUSH1 0x0 DUP2 MSTORE PUSH1 0x20 ADD PUSH1 0x0 PUSH1 0xFF AND DUP2 MSTORE PUSH1 0x20 ADD PUSH1 0x0 PUSH1 0xFF AND DUP2 MSTORE PUSH1 0x20 ADD PUSH1 0x0 ISZERO ISZERO DUP2 MSTORE PUSH1 0x20 ADD PUSH1 0x0 PUSH20 0xFFFFFFFFFFFFFFFFFFFFFFFFFFFFFFFFFFFFFFFF AND DUP2 MSTORE PUSH1 0x20 ADD PUSH1 0x0 PUSH20 0xFFFFFFFFFFFFFFFFFFFFFFFFFFFFFFFFFFFFFFFF AND DUP2 MSTORE POP SWAP1 JUMP JUMPDEST JUMPDEST DUP1 DUP3 GT ISZERO PUSH2 0x3D0E JUMPI PUSH1 0x0 DUP2 PUSH1 0x0 SWAP1 SSTORE POP PUSH1 0x1 ADD PUSH2 0x3CF6 JUMP JUMPDEST POP SWAP1 JUMP JUMPDEST PUSH1 0x0 PUSH2 0x3D25 PUSH2 0x3D20 DUP5 PUSH2 0x494B JUMP JUMPDEST PUSH2 0x4926 JUMP JUMPDEST SWAP1 POP DUP3 DUP2 MSTORE PUSH1 0x20 DUP2 ADD DUP5 DUP5 DUP5 ADD GT ISZERO PUSH2 0x3D41 JUMPI PUSH2 0x3D40 PUSH2 0x4CDC JUMP JUMPDEST JUMPDEST PUSH2 0x3D4C DUP5 DUP3 DUP6 PUSH2 0x4B2D JUMP JUMPDEST POP SWAP4 SWAP3 POP POP POP JUMP JUMPDEST PUSH1 0x0 DUP2 CALLDATALOAD SWAP1 POP PUSH2 0x3D63 DUP2 PUSH2 0x5073 JUMP JUMPDEST SWAP3 SWAP2 POP POP JUMP JUMPDEST PUSH1 0x0 DUP2 CALLDATALOAD SWAP1 POP PUSH2 0x3D78 DUP2 PUSH2 0x508A JUMP JUMPDEST SWAP3 SWAP2 POP POP JUMP JUMPDEST PUSH1 0x0 DUP2 MLOAD SWAP1 POP PUSH2 0x3D8D DUP2 PUSH2 0x508A JUMP JUMPDEST SWAP3 SWAP2 POP POP JUMP JUMPDEST PUSH1 0x0 DUP2 MLOAD SWAP1 POP PUSH2 0x3DA2 DUP2 PUSH2 0x50A1 JUMP JUMPDEST SWAP3 SWAP2 POP POP JUMP JUMPDEST PUSH1 0x0 DUP3 PUSH1 0x1F DUP4 ADD SLT PUSH2 0x3DBD JUMPI PUSH2 0x3DBC PUSH2 0x4CD7 JUMP JUMPDEST JUMPDEST DUP2 CALLDATALOAD PUSH2 0x3DCD DUP5 DUP3 PUSH1 0x20 DUP7 ADD PUSH2 0x3D12 JUMP JUMPDEST SWAP2 POP POP SWAP3 SWAP2 POP POP JUMP JUMPDEST PUSH1 0x0 DUP2 CALLDATALOAD SWAP1 POP PUSH2 0x3DE5 DUP2 PUSH2 0x50B8 JUMP JUMPDEST SWAP3 SWAP2 POP POP JUMP JUMPDEST PUSH1 0x0 DUP2 MLOAD SWAP1 POP PUSH2 0x3DFA DUP2 PUSH2 0x50B8 JUMP JUMPDEST SWAP3 SWAP2 POP POP JUMP JUMPDEST PUSH1 0x0 DUP2 MLOAD SWAP1 POP PUSH2 0x3E0F DUP2 PUSH2 0x50CF JUMP JUMPDEST SWAP3 SWAP2 POP POP JUMP JUMPDEST PUSH1 0x0 PUSH1 0x20 DUP3 DUP5 SUB SLT ISZERO PUSH2 0x3E2B JUMPI PUSH2 0x3E2A PUSH2 0x4CE6 JUMP JUMPDEST JUMPDEST PUSH1 0x0 PUSH2 0x3E39 DUP5 DUP3 DUP6 ADD PUSH2 0x3D54 JUMP JUMPDEST SWAP2 POP POP SWAP3 SWAP2 POP POP JUMP JUMPDEST PUSH1 0x0 DUP1 PUSH1 0x40 DUP4 DUP6 SUB SLT ISZERO PUSH2 0x3E59 JUMPI PUSH2 0x3E58 PUSH2 0x4CE6 JUMP JUMPDEST JUMPDEST PUSH1 0x0 PUSH2 0x3E67 DUP6 DUP3 DUP7 ADD PUSH2 0x3D54 JUMP JUMPDEST SWAP3 POP POP PUSH1 0x20 PUSH2 0x3E78 DUP6 DUP3 DUP7 ADD PUSH2 0x3DD6 JUMP JUMPDEST SWAP2 POP POP SWAP3 POP SWAP3 SWAP1 POP JUMP JUMPDEST PUSH1 0x0 PUSH1 0x20 DUP3 DUP5 SUB SLT ISZERO PUSH2 0x3E98 JUMPI PUSH2 0x3E97 PUSH2 0x4CE6 JUMP JUMPDEST JUMPDEST PUSH1 0x0 PUSH2 0x3EA6 DUP5 DUP3 DUP6 ADD PUSH2 0x3D69 JUMP JUMPDEST SWAP2 POP POP SWAP3 SWAP2 POP POP JUMP JUMPDEST PUSH1 0x0 PUSH1 0x20 DUP3 DUP5 SUB SLT ISZERO PUSH2 0x3EC5 JUMPI PUSH2 0x3EC4 PUSH2 0x4CE6 JUMP JUMPDEST JUMPDEST PUSH1 0x0 PUSH2 0x3ED3 DUP5 DUP3 DUP6 ADD PUSH2 0x3D7E JUMP JUMPDEST SWAP2 POP POP SWAP3 SWAP2 POP POP JUMP JUMPDEST PUSH1 0x0 DUP1 PUSH1 0x0 DUP1 PUSH1 0x80 DUP6 DUP8 SUB SLT ISZERO PUSH2 0x3EF6 JUMPI PUSH2 0x3EF5 PUSH2 0x4CE6 JUMP JUMPDEST JUMPDEST PUSH1 0x0 DUP6 ADD CALLDATALOAD PUSH8 0xFFFFFFFFFFFFFFFF DUP2 GT ISZERO PUSH2 0x3F14 JUMPI PUSH2 0x3F13 PUSH2 0x4CE1 JUMP JUMPDEST JUMPDEST PUSH2 0x3F20 DUP8 DUP3 DUP9 ADD PUSH2 0x3DA8 JUMP JUMPDEST SWAP5 POP POP PUSH1 0x20 PUSH2 0x3F31 DUP8 DUP3 DUP9 ADD PUSH2 0x3D69 JUMP JUMPDEST SWAP4 POP POP PUSH1 0x40 PUSH2 0x3F42 DUP8 DUP3 DUP9 ADD PUSH2 0x3DD6 JUMP JUMPDEST SWAP3 POP POP PUSH1 0x60 PUSH2 0x3F53 DUP8 DUP3 DUP9 ADD PUSH2 0x3DD6 JUMP JUMPDEST SWAP2 POP POP SWAP3 SWAP6 SWAP2 SWAP5 POP SWAP3 POP JUMP JUMPDEST PUSH1 0x0 PUSH1 0x20 DUP3 DUP5 SUB SLT ISZERO PUSH2 0x3F75 JUMPI PUSH2 0x3F74 PUSH2 0x4CE6 JUMP JUMPDEST JUMPDEST PUSH1 0x0 PUSH2 0x3F83 DUP5 DUP3 DUP6 ADD PUSH2 0x3DD6 JUMP JUMPDEST SWAP2 POP POP SWAP3 SWAP2 POP POP JUMP JUMPDEST PUSH1 0x0 DUP1 PUSH1 0x40 DUP4 DUP6 SUB SLT ISZERO PUSH2 0x3FA3 JUMPI PUSH2 0x3FA2 PUSH2 0x4CE6 JUMP JUMPDEST JUMPDEST PUSH1 0x0 PUSH2 0x3FB1 DUP6 DUP3 DUP7 ADD PUSH2 0x3DD6 JUMP JUMPDEST SWAP3 POP POP PUSH1 0x20 PUSH2 0x3FC2 DUP6 DUP3 DUP7 ADD PUSH2 0x3D54 JUMP JUMPDEST SWAP2 POP POP SWAP3 POP SWAP3 SWAP1 POP JUMP JUMPDEST PUSH1 0x0 DUP1 PUSH1 0x40 DUP4 DUP6 SUB SLT ISZERO PUSH2 0x3FE3 JUMPI PUSH2 0x3FE2 PUSH2 0x4CE6 JUMP JUMPDEST JUMPDEST PUSH1 0x0 PUSH2 0x3FF1 DUP6 DUP3 DUP7 ADD PUSH2 0x3DD6 JUMP JUMPDEST SWAP3 POP POP PUSH1 0x20 PUSH2 0x4002 DUP6 DUP3 DUP7 ADD PUSH2 0x3D69 JUMP JUMPDEST SWAP2 POP POP SWAP3 POP SWAP3 SWAP1 POP JUMP JUMPDEST PUSH1 0x0 DUP1 PUSH1 0x40 DUP4 DUP6 SUB SLT ISZERO PUSH2 0x4023 JUMPI PUSH2 0x4022 PUSH2 0x4CE6 JUMP JUMPDEST JUMPDEST PUSH1 0x0 PUSH2 0x4031 DUP6 DUP3 DUP7 ADD PUSH2 0x3DD6 JUMP JUMPDEST SWAP3 POP POP PUSH1 0x20 DUP4 ADD CALLDATALOAD PUSH8 0xFFFFFFFFFFFFFFFF DUP2 GT ISZERO PUSH2 0x4052 JUMPI PUSH2 0x4051 PUSH2 0x4CE1 JUMP JUMPDEST JUMPDEST PUSH2 0x405E DUP6 DUP3 DUP7 ADD PUSH2 0x3DA8 JUMP JUMPDEST SWAP2 POP POP SWAP3 POP SWAP3 SWAP1 POP JUMP JUMPDEST PUSH1 0x0 DUP1 PUSH1 0x40 DUP4 DUP6 SUB SLT ISZERO PUSH2 0x407F JUMPI PUSH2 0x407E PUSH2 0x4CE6 JUMP JUMPDEST JUMPDEST PUSH1 0x0 PUSH2 0x408D DUP6 DUP3 DUP7 ADD PUSH2 0x3DD6 JUMP JUMPDEST SWAP3 POP POP PUSH1 0x20 PUSH2 0x409E DUP6 DUP3 DUP7 ADD PUSH2 0x3DD6 JUMP JUMPDEST SWAP2 POP POP SWAP3 POP SWAP3 SWAP1 POP JUMP JUMPDEST PUSH1 0x0 DUP1 PUSH1 0x0 DUP1 PUSH1 0x0 PUSH1 0xA0 DUP7 DUP9 SUB SLT ISZERO PUSH2 0x40C4 JUMPI PUSH2 0x40C3 PUSH2 0x4CE6 JUMP JUMPDEST JUMPDEST PUSH1 0x0 PUSH2 0x40D2 DUP9 DUP3 DUP10 ADD PUSH2 0x3E00 JUMP JUMPDEST SWAP6 POP POP PUSH1 0x20 PUSH2 0x40E3 DUP9 DUP3 DUP10 ADD PUSH2 0x3D93 JUMP JUMPDEST SWAP5 POP POP PUSH1 0x40 PUSH2 0x40F4 DUP9 DUP3 DUP10 ADD PUSH2 0x3DEB JUMP JUMPDEST SWAP4 POP POP PUSH1 0x60 PUSH2 0x4105 DUP9 DUP3 DUP10 ADD PUSH2 0x3DEB JUMP JUMPDEST SWAP3 POP POP PUSH1 0x80 PUSH2 0x4116 DUP9 DUP3 DUP10 ADD PUSH2 0x3E00 JUMP JUMPDEST SWAP2 POP POP SWAP3 SWAP6 POP SWAP3 SWAP6 SWAP1 SWAP4 POP JUMP JUMPDEST PUSH2 0x412C DUP2 PUSH2 0x4AB8 JUMP JUMPDEST DUP3 MSTORE POP POP JUMP JUMPDEST PUSH2 0x413B DUP2 PUSH2 0x4ACA JUMP JUMPDEST DUP3 MSTORE POP POP JUMP JUMPDEST PUSH2 0x414A DUP2 PUSH2 0x4AD6 JUMP JUMPDEST DUP3 MSTORE POP POP JUMP JUMPDEST PUSH1 0x0 PUSH2 0x415B DUP3 PUSH2 0x497C JUMP JUMPDEST PUSH2 0x4165 DUP2 DUP6 PUSH2 0x4992 JUMP JUMPDEST SWAP4 POP PUSH2 0x4175 DUP2 DUP6 PUSH1 0x20 DUP7 ADD PUSH2 0x4B3C JUMP JUMPDEST PUSH2 0x417E DUP2 PUSH2 0x4CEB JUMP JUMPDEST DUP5 ADD SWAP2 POP POP SWAP3 SWAP2 POP POP JUMP JUMPDEST PUSH1 0x0 PUSH2 0x4196 PUSH1 0x23 DUP4 PUSH2 0x4992 JUMP JUMPDEST SWAP2 POP PUSH2 0x41A1 DUP3 PUSH2 0x4CFC JUMP JUMPDEST PUSH1 0x40 DUP3 ADD SWAP1 POP SWAP2 SWAP1 POP JUMP JUMPDEST PUSH1 0x0 PUSH2 0x41B9 PUSH1 0x14 DUP4 PUSH2 0x4992 JUMP JUMPDEST SWAP2 POP PUSH2 0x41C4 DUP3 PUSH2 0x4D4B JUMP JUMPDEST PUSH1 0x20 DUP3 ADD SWAP1 POP SWAP2 SWAP1 POP JUMP JUMPDEST PUSH1 0x0 PUSH2 0x41DC PUSH1 0x2A DUP4 PUSH2 0x4992 JUMP JUMPDEST SWAP2 POP PUSH2 0x41E7 DUP3 PUSH2 0x4D74 JUMP JUMPDEST PUSH1 0x40 DUP3 ADD SWAP1 POP SWAP2 SWAP1 POP JUMP JUMPDEST PUSH1 0x0 PUSH2 0x41FF PUSH1 0x25 DUP4 PUSH2 0x4992 JUMP JUMPDEST SWAP2 POP PUSH2 0x420A DUP3 PUSH2 0x4DC3 JUMP JUMPDEST PUSH1 0x40 DUP3 ADD SWAP1 POP SWAP2 SWAP1 POP JUMP JUMPDEST PUSH1 0x0 PUSH2 0x4222 PUSH1 0x16 DUP4 PUSH2 0x4992 JUMP JUMPDEST SWAP2 POP PUSH2 0x422D DUP3 PUSH2 0x4E12 JUMP JUMPDEST PUSH1 0x20 DUP3 ADD SWAP1 POP SWAP2 SWAP1 POP JUMP JUMPDEST PUSH1 0x0 PUSH2 0x4245 PUSH1 0x12 DUP4 PUSH2 0x4992 JUMP JUMPDEST SWAP2 POP PUSH2 0x4250 DUP3 PUSH2 0x4E3B JUMP JUMPDEST PUSH1 0x20 DUP3 ADD SWAP1 POP SWAP2 SWAP1 POP JUMP JUMPDEST PUSH1 0x0 PUSH2 0x4268 PUSH1 0x18 DUP4 PUSH2 0x4992 JUMP JUMPDEST SWAP2 POP PUSH2 0x4273 DUP3 PUSH2 0x4E64 JUMP JUMPDEST PUSH1 0x20 DUP3 ADD SWAP1 POP SWAP2 SWAP1 POP JUMP JUMPDEST PUSH1 0x0 PUSH2 0x428B PUSH1 0x25 DUP4 PUSH2 0x4992 JUMP JUMPDEST SWAP2 POP PUSH2 0x4296 DUP3 PUSH2 0x4E8D JUMP JUMPDEST PUSH1 0x40 DUP3 ADD SWAP1 POP SWAP2 SWAP1 POP JUMP JUMPDEST PUSH1 0x0 PUSH2 0x42AE PUSH1 0xD DUP4 PUSH2 0x4992 JUMP JUMPDEST SWAP2 POP PUSH2 0x42B9 DUP3 PUSH2 0x4EDC JUMP JUMPDEST PUSH1 0x20 DUP3 ADD SWAP1 POP SWAP2 SWAP1 POP JUMP JUMPDEST PUSH1 0x0 PUSH2 0x42D1 PUSH1 0x0 DUP4 PUSH2 0x4987 JUMP JUMPDEST SWAP2 POP PUSH2 0x42DC DUP3 PUSH2 0x4F05 JUMP JUMPDEST PUSH1 0x0 DUP3 ADD SWAP1 POP SWAP2 SWAP1 POP JUMP JUMPDEST PUSH1 0x0 PUSH2 0x42F4 PUSH1 0x2F DUP4 PUSH2 0x4992 JUMP JUMPDEST SWAP2 POP PUSH2 0x42FF DUP3 PUSH2 0x4F08 JUMP JUMPDEST PUSH1 0x40 DUP3 ADD SWAP1 POP SWAP2 SWAP1 POP JUMP JUMPDEST PUSH1 0x0 PUSH2 0x4317 PUSH1 0x12 DUP4 PUSH2 0x4992 JUMP JUMPDEST SWAP2 POP PUSH2 0x4322 DUP3 PUSH2 0x4F57 JUMP JUMPDEST PUSH1 0x20 DUP3 ADD SWAP1 POP SWAP2 SWAP1 POP JUMP JUMPDEST PUSH1 0x0 PUSH2 0x433A PUSH1 0x20 DUP4 PUSH2 0x4992 JUMP JUMPDEST SWAP2 POP PUSH2 0x4345 DUP3 PUSH2 0x4F80 JUMP JUMPDEST PUSH1 0x20 DUP3 ADD SWAP1 POP SWAP2 SWAP1 POP JUMP JUMPDEST PUSH1 0x0 PUSH2 0x435D PUSH1 0x26 DUP4 PUSH2 0x4992 JUMP JUMPDEST SWAP2 POP PUSH2 0x4368 DUP3 PUSH2 0x4FA9 JUMP JUMPDEST PUSH1 0x40 DUP3 ADD SWAP1 POP SWAP2 SWAP1 POP JUMP JUMPDEST PUSH1 0x0 PUSH2 0x4380 PUSH1 0x17 DUP4 PUSH2 0x4992 JUMP JUMPDEST SWAP2 POP PUSH2 0x438B DUP3 PUSH2 0x4FF8 JUMP JUMPDEST PUSH1 0x20 DUP3 ADD SWAP1 POP SWAP2 SWAP1 POP JUMP JUMPDEST PUSH1 0x0 PUSH2 0x43A3 PUSH1 0x1F DUP4 PUSH2 0x4992 JUMP JUMPDEST SWAP2 POP PUSH2 0x43AE DUP3 PUSH2 0x5021 JUMP JUMPDEST PUSH1 0x20 DUP3 ADD SWAP1 POP SWAP2 SWAP1 POP JUMP JUMPDEST PUSH1 0x0 PUSH2 0x43C6 PUSH1 0x1E DUP4 PUSH2 0x4992 JUMP JUMPDEST SWAP2 POP PUSH2 0x43D1 DUP3 PUSH2 0x504A JUMP JUMPDEST PUSH1 0x20 DUP3 ADD SWAP1 POP SWAP2 SWAP1 POP JUMP JUMPDEST PUSH2 0x43E5 DUP2 PUSH2 0x4B00 JUMP JUMPDEST DUP3 MSTORE POP POP JUMP JUMPDEST PUSH2 0x43F4 DUP2 PUSH2 0x4B0A JUMP JUMPDEST DUP3 MSTORE POP POP JUMP JUMPDEST PUSH1 0x0 PUSH2 0x4405 DUP3 PUSH2 0x42C4 JUMP JUMPDEST SWAP2 POP DUP2 SWAP1 POP SWAP2 SWAP1 POP JUMP JUMPDEST PUSH1 0x0 PUSH1 0x20 DUP3 ADD SWAP1 POP PUSH2 0x4424 PUSH1 0x0 DUP4 ADD DUP5 PUSH2 0x4123 JUMP JUMPDEST SWAP3 SWAP2 POP POP JUMP JUMPDEST PUSH1 0x0 PUSH1 0x40 DUP3 ADD SWAP1 POP PUSH2 0x443F PUSH1 0x0 DUP4 ADD DUP6 PUSH2 0x4123 JUMP JUMPDEST PUSH2 0x444C PUSH1 0x20 DUP4 ADD DUP5 PUSH2 0x43DC JUMP JUMPDEST SWAP4 SWAP3 POP POP POP JUMP JUMPDEST PUSH1 0x0 PUSH1 0x20 DUP3 ADD SWAP1 POP PUSH2 0x4468 PUSH1 0x0 DUP4 ADD DUP5 PUSH2 0x4132 JUMP JUMPDEST SWAP3 SWAP2 POP POP JUMP JUMPDEST PUSH1 0x0 PUSH1 0x20 DUP3 ADD SWAP1 POP PUSH2 0x4483 PUSH1 0x0 DUP4 ADD DUP5 PUSH2 0x4141 JUMP JUMPDEST SWAP3 SWAP2 POP POP JUMP JUMPDEST PUSH1 0x0 PUSH1 0x80 DUP3 ADD SWAP1 POP DUP2 DUP2 SUB PUSH1 0x0 DUP4 ADD MSTORE PUSH2 0x44A3 DUP2 DUP8 PUSH2 0x4150 JUMP JUMPDEST SWAP1 POP DUP2 DUP2 SUB PUSH1 0x20 DUP4 ADD MSTORE PUSH2 0x44B7 DUP2 DUP7 PUSH2 0x4150 JUMP JUMPDEST SWAP1 POP PUSH2 0x44C6 PUSH1 0x40 DUP4 ADD DUP6 PUSH2 0x43DC JUMP JUMPDEST PUSH2 0x44D3 PUSH1 0x60 DUP4 ADD DUP5 PUSH2 0x4132 JUMP JUMPDEST SWAP6 SWAP5 POP POP POP POP POP JUMP JUMPDEST PUSH1 0x0 PUSH1 0x20 DUP3 ADD SWAP1 POP DUP2 DUP2 SUB PUSH1 0x0 DUP4 ADD MSTORE PUSH2 0x44F5 DUP2 PUSH2 0x4189 JUMP JUMPDEST SWAP1 POP SWAP2 SWAP1 POP JUMP JUMPDEST PUSH1 0x0 PUSH1 0x20 DUP3 ADD SWAP1 POP DUP2 DUP2 SUB PUSH1 0x0 DUP4 ADD MSTORE PUSH2 0x4515 DUP2 PUSH2 0x41AC JUMP JUMPDEST SWAP1 POP SWAP2 SWAP1 POP JUMP JUMPDEST PUSH1 0x0 PUSH1 0x20 DUP3 ADD SWAP1 POP DUP2 DUP2 SUB PUSH1 0x0 DUP4 ADD MSTORE PUSH2 0x4535 DUP2 PUSH2 0x41CF JUMP JUMPDEST SWAP1 POP SWAP2 SWAP1 POP JUMP JUMPDEST PUSH1 0x0 PUSH1 0x20 DUP3 ADD SWAP1 POP DUP2 DUP2 SUB PUSH1 0x0 DUP4 ADD MSTORE PUSH2 0x4555 DUP2 PUSH2 0x41F2 JUMP JUMPDEST SWAP1 POP SWAP2 SWAP1 POP JUMP JUMPDEST PUSH1 0x0 PUSH1 0x20 DUP3 ADD SWAP1 POP DUP2 DUP2 SUB PUSH1 0x0 DUP4 ADD MSTORE PUSH2 0x4575 DUP2 PUSH2 0x4215 JUMP JUMPDEST SWAP1 POP SWAP2 SWAP1 POP JUMP JUMPDEST PUSH1 0x0 PUSH1 0x20 DUP3 ADD SWAP1 POP DUP2 DUP2 SUB PUSH1 0x0 DUP4 ADD MSTORE PUSH2 0x4595 DUP2 PUSH2 0x4238 JUMP JUMPDEST SWAP1 POP SWAP2 SWAP1 POP JUMP JUMPDEST PUSH1 0x0 PUSH1 0x20 DUP3 ADD SWAP1 POP DUP2 DUP2 SUB PUSH1 0x0 DUP4 ADD MSTORE PUSH2 0x45B5 DUP2 PUSH2 0x425B JUMP JUMPDEST SWAP1 POP SWAP2 SWAP1 POP JUMP JUMPDEST PUSH1 0x0 PUSH1 0x20 DUP3 ADD SWAP1 POP DUP2 DUP2 SUB PUSH1 0x0 DUP4 ADD MSTORE PUSH2 0x45D5 DUP2 PUSH2 0x427E JUMP JUMPDEST SWAP1 POP SWAP2 SWAP1 POP JUMP JUMPDEST PUSH1 0x0 PUSH1 0x20 DUP3 ADD SWAP1 POP DUP2 DUP2 SUB PUSH1 0x0 DUP4 ADD MSTORE PUSH2 0x45F5 DUP2 PUSH2 0x42A1 JUMP JUMPDEST SWAP1 POP SWAP2 SWAP1 POP JUMP JUMPDEST PUSH1 0x0 PUSH1 0x20 DUP3 ADD SWAP1 POP DUP2 DUP2 SUB PUSH1 0x0 DUP4 ADD MSTORE PUSH2 0x4615 DUP2 PUSH2 0x42E7 JUMP JUMPDEST SWAP1 POP SWAP2 SWAP1 POP JUMP JUMPDEST PUSH1 0x0 PUSH1 0x20 DUP3 ADD SWAP1 POP DUP2 DUP2 SUB PUSH1 0x0 DUP4 ADD MSTORE PUSH2 0x4635 DUP2 PUSH2 0x430A JUMP JUMPDEST SWAP1 POP SWAP2 SWAP1 POP JUMP JUMPDEST PUSH1 0x0 PUSH1 0x20 DUP3 ADD SWAP1 POP DUP2 DUP2 SUB PUSH1 0x0 DUP4 ADD MSTORE PUSH2 0x4655 DUP2 PUSH2 0x432D JUMP JUMPDEST SWAP1 POP SWAP2 SWAP1 POP JUMP JUMPDEST PUSH1 0x0 PUSH1 0x20 DUP3 ADD SWAP1 POP DUP2 DUP2 SUB PUSH1 0x0 DUP4 ADD MSTORE PUSH2 0x4675 DUP2 PUSH2 0x4350 JUMP JUMPDEST SWAP1 POP SWAP2 SWAP1 POP JUMP JUMPDEST PUSH1 0x0 PUSH1 0x20 DUP3 ADD SWAP1 POP DUP2 DUP2 SUB PUSH1 0x0 DUP4 ADD MSTORE PUSH2 0x4695 DUP2 PUSH2 0x4373 JUMP JUMPDEST SWAP1 POP SWAP2 SWAP1 POP JUMP JUMPDEST PUSH1 0x0 PUSH1 0x20 DUP3 ADD SWAP1 POP DUP2 DUP2 SUB PUSH1 0x0 DUP4 ADD MSTORE PUSH2 0x46B5 DUP2 PUSH2 0x4396 JUMP JUMPDEST SWAP1 POP SWAP2 SWAP1 POP JUMP JUMPDEST PUSH1 0x0 PUSH1 0x20 DUP3 ADD SWAP1 POP DUP2 DUP2 SUB PUSH1 0x0 DUP4 ADD MSTORE PUSH2 0x46D5 DUP2 PUSH2 0x43B9 JUMP JUMPDEST SWAP1 POP SWAP2 SWAP1 POP JUMP JUMPDEST PUSH1 0x0 PUSH1 0x20 DUP3 ADD SWAP1 POP PUSH2 0x46F1 PUSH1 0x0 DUP4 ADD DUP5 PUSH2 0x43DC JUMP JUMPDEST SWAP3 SWAP2 POP POP JUMP JUMPDEST PUSH1 0x0 PUSH1 0x40 DUP3 ADD SWAP1 POP PUSH2 0x470C PUSH1 0x0 DUP4 ADD DUP6 PUSH2 0x43DC JUMP JUMPDEST PUSH2 0x4719 PUSH1 0x20 DUP4 ADD DUP5 PUSH2 0x4123 JUMP JUMPDEST SWAP4 SWAP3 POP POP POP JUMP JUMPDEST PUSH1 0x0 PUSH1 0x80 DUP3 ADD SWAP1 POP PUSH2 0x4735 PUSH1 0x0 DUP4 ADD DUP8 PUSH2 0x43DC JUMP JUMPDEST PUSH2 0x4742 PUSH1 0x20 DUP4 ADD DUP7 PUSH2 0x4123 JUMP JUMPDEST DUP2 DUP2 SUB PUSH1 0x40 DUP4 ADD MSTORE PUSH2 0x4754 DUP2 DUP6 PUSH2 0x4150 JUMP JUMPDEST SWAP1 POP PUSH2 0x4763 PUSH1 0x60 DUP4 ADD DUP5 PUSH2 0x43DC JUMP JUMPDEST SWAP6 SWAP5 POP POP POP POP POP JUMP JUMPDEST PUSH1 0x0 PUSH1 0xC0 DUP3 ADD SWAP1 POP PUSH2 0x4781 PUSH1 0x0 DUP4 ADD DUP10 PUSH2 0x43DC JUMP JUMPDEST DUP2 DUP2 SUB PUSH1 0x20 DUP4 ADD MSTORE PUSH2 0x4793 DUP2 DUP9 PUSH2 0x4150 JUMP JUMPDEST SWAP1 POP PUSH2 0x47A2 PUSH1 0x40 DUP4 ADD DUP8 PUSH2 0x4132 JUMP JUMPDEST PUSH2 0x47AF PUSH1 0x60 DUP4 ADD DUP7 PUSH2 0x43DC JUMP JUMPDEST PUSH2 0x47BC PUSH1 0x80 DUP4 ADD DUP6 PUSH2 0x4123 JUMP JUMPDEST PUSH2 0x47C9 PUSH1 0xA0 DUP4 ADD DUP5 PUSH2 0x43DC JUMP JUMPDEST SWAP8 SWAP7 POP POP POP POP POP POP POP JUMP JUMPDEST PUSH1 0x0 PUSH1 0x60 DUP3 ADD SWAP1 POP PUSH2 0x47E9 PUSH1 0x0 DUP4 ADD DUP7 PUSH2 0x43DC JUMP JUMPDEST PUSH2 0x47F6 PUSH1 0x20 DUP4 ADD DUP6 PUSH2 0x43DC JUMP JUMPDEST PUSH2 0x4803 PUSH1 0x40 DUP4 ADD DUP5 PUSH2 0x43DC JUMP JUMPDEST SWAP5 SWAP4 POP POP POP POP JUMP JUMPDEST PUSH1 0x0 PUSH1 0xC0 DUP3 ADD SWAP1 POP PUSH2 0x4820 PUSH1 0x0 DUP4 ADD DUP10 PUSH2 0x43DC JUMP JUMPDEST PUSH2 0x482D PUSH1 0x20 DUP4 ADD DUP9 PUSH2 0x43DC JUMP JUMPDEST PUSH2 0x483A PUSH1 0x40 DUP4 ADD DUP8 PUSH2 0x43DC JUMP JUMPDEST PUSH2 0x4847 PUSH1 0x60 DUP4 ADD DUP7 PUSH2 0x43DC JUMP JUMPDEST PUSH2 0x4854 PUSH1 0x80 DUP4 ADD DUP6 PUSH2 0x4123 JUMP JUMPDEST PUSH2 0x4861 PUSH1 0xA0 DUP4 ADD DUP5 PUSH2 0x4123 JUMP JUMPDEST SWAP8 SWAP7 POP POP POP POP POP POP POP JUMP JUMPDEST PUSH1 0x0 PUSH2 0x180 DUP3 ADD SWAP1 POP PUSH2 0x4882 PUSH1 0x0 DUP4 ADD DUP16 PUSH2 0x43DC JUMP JUMPDEST PUSH2 0x488F PUSH1 0x20 DUP4 ADD DUP15 PUSH2 0x43DC JUMP JUMPDEST PUSH2 0x489C PUSH1 0x40 DUP4 ADD DUP14 PUSH2 0x43DC JUMP JUMPDEST PUSH2 0x48A9 PUSH1 0x60 DUP4 ADD DUP13 PUSH2 0x43DC JUMP JUMPDEST PUSH2 0x48B6 PUSH1 0x80 DUP4 ADD DUP12 PUSH2 0x43DC JUMP JUMPDEST PUSH2 0x48C3 PUSH1 0xA0 DUP4 ADD DUP11 PUSH2 0x43DC JUMP JUMPDEST PUSH2 0x48D0 PUSH1 0xC0 DUP4 ADD DUP10 PUSH2 0x43DC JUMP JUMPDEST PUSH2 0x48DD PUSH1 0xE0 DUP4 ADD DUP9 PUSH2 0x43EB JUMP JUMPDEST PUSH2 0x48EB PUSH2 0x100 DUP4 ADD DUP8 PUSH2 0x43EB JUMP JUMPDEST PUSH2 0x48F9 PUSH2 0x120 DUP4 ADD DUP7 PUSH2 0x4132 JUMP JUMPDEST PUSH2 0x4907 PUSH2 0x140 DUP4 ADD DUP6 PUSH2 0x4123 JUMP JUMPDEST PUSH2 0x4915 PUSH2 0x160 DUP4 ADD DUP5 PUSH2 0x4123 JUMP JUMPDEST SWAP14 SWAP13 POP POP POP POP POP POP POP POP POP POP POP POP POP JUMP JUMPDEST PUSH1 0x0 PUSH2 0x4930 PUSH2 0x4941 JUMP JUMPDEST SWAP1 POP PUSH2 0x493C DUP3 DUP3 PUSH2 0x4BA1 JUMP JUMPDEST SWAP2 SWAP1 POP JUMP JUMPDEST PUSH1 0x0 PUSH1 0x40 MLOAD SWAP1 POP SWAP1 JUMP JUMPDEST PUSH1 0x0 PUSH8 0xFFFFFFFFFFFFFFFF DUP3 GT ISZERO PUSH2 0x4966 JUMPI PUSH2 0x4965 PUSH2 0x4CA8 JUMP JUMPDEST JUMPDEST PUSH2 0x496F DUP3 PUSH2 0x4CEB JUMP JUMPDEST SWAP1 POP PUSH1 0x20 DUP2 ADD SWAP1 POP SWAP2 SWAP1 POP JUMP JUMPDEST PUSH1 0x0 DUP2 MLOAD SWAP1 POP SWAP2 SWAP1 POP JUMP JUMPDEST PUSH1 0x0 DUP2 SWAP1 POP SWAP3 SWAP2 POP POP JUMP JUMPDEST PUSH1 0x0 DUP3 DUP3 MSTORE PUSH1 0x20 DUP3 ADD SWAP1 POP SWAP3 SWAP2 POP POP JUMP JUMPDEST PUSH1 0x0 PUSH2 0x49AE DUP3 PUSH2 0x4B00 JUMP JUMPDEST SWAP2 POP PUSH2 0x49B9 DUP4 PUSH2 0x4B00 JUMP JUMPDEST SWAP3 POP DUP3 PUSH32 0xFFFFFFFFFFFFFFFFFFFFFFFFFFFFFFFFFFFFFFFFFFFFFFFFFFFFFFFFFFFFFFFF SUB DUP3 GT ISZERO PUSH2 0x49EE JUMPI PUSH2 0x49ED PUSH2 0x4C1B JUMP JUMPDEST JUMPDEST DUP3 DUP3 ADD SWAP1 POP SWAP3 SWAP2 POP POP JUMP JUMPDEST PUSH1 0x0 PUSH2 0x4A04 DUP3 PUSH2 0x4B00 JUMP JUMPDEST SWAP2 POP PUSH2 0x4A0F DUP4 PUSH2 0x4B00 JUMP JUMPDEST SWAP3 POP DUP3 PUSH2 0x4A1F JUMPI PUSH2 0x4A1E PUSH2 0x4C4A JUMP JUMPDEST JUMPDEST DUP3 DUP3 DIV SWAP1 POP SWAP3 SWAP2 POP POP JUMP JUMPDEST PUSH1 0x0 PUSH2 0x4A35 DUP3 PUSH2 0x4B00 JUMP JUMPDEST SWAP2 POP PUSH2 0x4A40 DUP4 PUSH2 0x4B00 JUMP JUMPDEST SWAP3 POP DUP2 PUSH32 0xFFFFFFFFFFFFFFFFFFFFFFFFFFFFFFFFFFFFFFFFFFFFFFFFFFFFFFFFFFFFFFFF DIV DUP4 GT DUP3 ISZERO ISZERO AND ISZERO PUSH2 0x4A79 JUMPI PUSH2 0x4A78 PUSH2 0x4C1B JUMP JUMPDEST JUMPDEST DUP3 DUP3 MUL SWAP1 POP SWAP3 SWAP2 POP POP JUMP JUMPDEST PUSH1 0x0 PUSH2 0x4A8F DUP3 PUSH2 0x4B00 JUMP JUMPDEST SWAP2 POP PUSH2 0x4A9A DUP4 PUSH2 0x4B00 JUMP JUMPDEST SWAP3 POP DUP3 DUP3 LT ISZERO PUSH2 0x4AAD JUMPI PUSH2 0x4AAC PUSH2 0x4C1B JUMP JUMPDEST JUMPDEST DUP3 DUP3 SUB SWAP1 POP SWAP3 SWAP2 POP POP JUMP JUMPDEST PUSH1 0x0 PUSH2 0x4AC3 DUP3 PUSH2 0x4AE0 JUMP JUMPDEST SWAP1 POP SWAP2 SWAP1 POP JUMP JUMPDEST PUSH1 0x0 DUP2 ISZERO ISZERO SWAP1 POP SWAP2 SWAP1 POP JUMP JUMPDEST PUSH1 0x0 DUP2 SWAP1 POP SWAP2 SWAP1 POP JUMP JUMPDEST PUSH1 0x0 PUSH20 0xFFFFFFFFFFFFFFFFFFFFFFFFFFFFFFFFFFFFFFFF DUP3 AND SWAP1 POP SWAP2 SWAP1 POP JUMP JUMPDEST PUSH1 0x0 DUP2 SWAP1 POP SWAP2 SWAP1 POP JUMP JUMPDEST PUSH1 0x0 PUSH1 0xFF DUP3 AND SWAP1 POP SWAP2 SWAP1 POP JUMP JUMPDEST PUSH1 0x0 PUSH10 0xFFFFFFFFFFFFFFFFFFFF DUP3 AND SWAP1 POP SWAP2 SWAP1 POP JUMP JUMPDEST DUP3 DUP2 DUP4 CALLDATACOPY PUSH1 0x0 DUP4 DUP4 ADD MSTORE POP POP POP JUMP JUMPDEST PUSH1 0x0 JUMPDEST DUP4 DUP2 LT ISZERO PUSH2 0x4B5A JUMPI DUP1 DUP3 ADD MLOAD DUP2 DUP5 ADD MSTORE PUSH1 0x20 DUP2 ADD SWAP1 POP PUSH2 0x4B3F JUMP JUMPDEST DUP4 DUP2 GT ISZERO PUSH2 0x4B69 JUMPI PUSH1 0x0 DUP5 DUP5 ADD MSTORE JUMPDEST POP POP POP POP JUMP JUMPDEST PUSH1 0x0 PUSH1 0x2 DUP3 DIV SWAP1 POP PUSH1 0x1 DUP3 AND DUP1 PUSH2 0x4B87 JUMPI PUSH1 0x7F DUP3 AND SWAP2 POP JUMPDEST PUSH1 0x20 DUP3 LT DUP2 EQ ISZERO PUSH2 0x4B9B JUMPI PUSH2 0x4B9A PUSH2 0x4C79 JUMP JUMPDEST JUMPDEST POP SWAP2 SWAP1 POP JUMP JUMPDEST PUSH2 0x4BAA DUP3 PUSH2 0x4CEB JUMP JUMPDEST DUP2 ADD DUP2 DUP2 LT PUSH8 0xFFFFFFFFFFFFFFFF DUP3 GT OR ISZERO PUSH2 0x4BC9 JUMPI PUSH2 0x4BC8 PUSH2 0x4CA8 JUMP JUMPDEST JUMPDEST DUP1 PUSH1 0x40 MSTORE POP POP POP JUMP JUMPDEST PUSH1 0x0 PUSH2 0x4BDD DUP3 PUSH2 0x4B00 JUMP JUMPDEST SWAP2 POP PUSH32 0xFFFFFFFFFFFFFFFFFFFFFFFFFFFFFFFFFFFFFFFFFFFFFFFFFFFFFFFFFFFFFFFF DUP3 EQ ISZERO PUSH2 0x4C10 JUMPI PUSH2 0x4C0F PUSH2 0x4C1B JUMP JUMPDEST JUMPDEST PUSH1 0x1 DUP3 ADD SWAP1 POP SWAP2 SWAP1 POP JUMP JUMPDEST PUSH32 0x4E487B7100000000000000000000000000000000000000000000000000000000 PUSH1 0x0 MSTORE PUSH1 0x11 PUSH1 0x4 MSTORE PUSH1 0x24 PUSH1 0x0 REVERT JUMPDEST PUSH32 0x4E487B7100000000000000000000000000000000000000000000000000000000 PUSH1 0x0 MSTORE PUSH1 0x12 PUSH1 0x4 MSTORE PUSH1 0x24 PUSH1 0x0 REVERT JUMPDEST PUSH32 0x4E487B7100000000000000000000000000000000000000000000000000000000 PUSH1 0x0 MSTORE PUSH1 0x22 PUSH1 0x4 MSTORE PUSH1 0x24 PUSH1 0x0 REVERT JUMPDEST PUSH32 0x4E487B7100000000000000000000000000000000000000000000000000000000 PUSH1 0x0 MSTORE PUSH1 0x41 PUSH1 0x4 MSTORE PUSH1 0x24 PUSH1 0x0 REVERT JUMPDEST PUSH1 0x0 DUP1 REVERT JUMPDEST PUSH1 0x0 DUP1 REVERT JUMPDEST PUSH1 0x0 DUP1 REVERT JUMPDEST PUSH1 0x0 DUP1 REVERT JUMPDEST PUSH1 0x0 PUSH1 0x1F NOT PUSH1 0x1F DUP4 ADD AND SWAP1 POP SWAP2 SWAP1 POP JUMP JUMPDEST PUSH32 0x4974656D206E6F7420666F722073616C65206F7220646F65736E277420657869 PUSH1 0x0 DUP3 ADD MSTORE PUSH32 0x73742E0000000000000000000000000000000000000000000000000000000000 PUSH1 0x20 DUP3 ADD MSTORE POP JUMP JUMPDEST PUSH32 0x4661696C656420746F2053656E64204574686572000000000000000000000000 PUSH1 0x0 DUP3 ADD MSTORE POP JUMP JUMPDEST PUSH32 0x446973707574652069736E2774206C697665206F7220697320616C7265616479 PUSH1 0x0 DUP3 ADD MSTORE PUSH32 0x207265736F6C7665642E00000000000000000000000000000000000000000000 PUSH1 0x20 DUP3 ADD MSTORE POP JUMP JUMPDEST PUSH32 0x4F6E6C792044414F20616464726573732063616E207265736F6C766520646973 PUSH1 0x0 DUP3 ADD MSTORE PUSH32 0x7075746573000000000000000000000000000000000000000000000000000000 PUSH1 0x20 DUP3 ADD MSTORE POP JUMP JUMPDEST PUSH32 0x4F6E6C792073656C6C65722063616E2063616E63656C00000000000000000000 PUSH1 0x0 DUP3 ADD MSTORE POP JUMP JUMPDEST PUSH32 0x4F726465722069736E2774206163746976650000000000000000000000000000 PUSH1 0x0 DUP3 ADD MSTORE POP JUMP JUMPDEST PUSH32 0x4F6E6C79206974656D206F776E65722063616E20656469740000000000000000 PUSH1 0x0 DUP3 ADD MSTORE POP JUMP JUMPDEST PUSH32 0x4E6F7420617574686F72697A65642E204275796572206F722053656C6C657220 PUSH1 0x0 DUP3 ADD MSTORE PUSH32 0x6F6E6C792E000000000000000000000000000000000000000000000000000000 PUSH1 0x20 DUP3 ADD MSTORE POP JUMP JUMPDEST PUSH32 0x4E6F7420617661696C61626C6500000000000000000000000000000000000000 PUSH1 0x0 DUP3 ADD MSTORE POP JUMP JUMPDEST POP JUMP JUMPDEST PUSH32 0x43616E206F6E6C7920616363657074206F66666572732066726F6D20776F726B PUSH1 0x0 DUP3 ADD MSTORE PUSH32 0x6572732077686F206F6666657265640000000000000000000000000000000000 PUSH1 0x20 DUP3 ADD MSTORE POP JUMP JUMPDEST PUSH32 0x446973707574652069736E2774206C6976650000000000000000000000000000 PUSH1 0x0 DUP3 ADD MSTORE POP JUMP JUMPDEST PUSH32 0x4F6E6C79206974656D206F776E65722063616E20616363657074206F66666572 PUSH1 0x0 DUP3 ADD MSTORE POP JUMP JUMPDEST PUSH32 0x4F6E6C7920636F6D70616E792063616E20757064617465207265776172647320 PUSH1 0x0 DUP3 ADD MSTORE PUSH32 0x7374617475730000000000000000000000000000000000000000000000000000 PUSH1 0x20 DUP3 ADD MSTORE POP JUMP JUMPDEST PUSH32 0x5573657220616C7265616479206D616465206F66666572000000000000000000 PUSH1 0x0 DUP3 ADD MSTORE POP JUMP JUMPDEST PUSH32 0x4F6E6C7920636F6D70616E792063616E206368616E6765206164647265737300 PUSH1 0x0 DUP3 ADD MSTORE POP JUMP JUMPDEST PUSH32 0x416D6F756E742070616964206973206C657373207468616E20746F74616C0000 PUSH1 0x0 DUP3 ADD MSTORE POP JUMP JUMPDEST PUSH2 0x507C DUP2 PUSH2 0x4AB8 JUMP JUMPDEST DUP2 EQ PUSH2 0x5087 JUMPI PUSH1 0x0 DUP1 REVERT JUMPDEST POP JUMP JUMPDEST PUSH2 0x5093 DUP2 PUSH2 0x4ACA JUMP JUMPDEST DUP2 EQ PUSH2 0x509E JUMPI PUSH1 0x0 DUP1 REVERT JUMPDEST POP JUMP JUMPDEST PUSH2 0x50AA DUP2 PUSH2 0x4AD6 JUMP JUMPDEST DUP2 EQ PUSH2 0x50B5 JUMPI PUSH1 0x0 DUP1 REVERT JUMPDEST POP JUMP JUMPDEST PUSH2 0x50C1 DUP2 PUSH2 0x4B00 JUMP JUMPDEST DUP2 EQ PUSH2 0x50CC JUMPI PUSH1 0x0 DUP1 REVERT JUMPDEST POP JUMP JUMPDEST PUSH2 0x50D8 DUP2 PUSH2 0x4B17 JUMP JUMPDEST DUP2 EQ PUSH2 0x50E3 JUMPI PUSH1 0x0 DUP1 REVERT JUMPDEST POP JUMP INVALID LOG2 PUSH5 0x6970667358 0x22 SLT KECCAK256 PUSH29 0x6AF5ADBEC90D850758EBE30DDDF2BDBA90FE7D1C12E4DABAF98C47A899 0xEE MUL PUSH5 0x736F6C6343 STOP ADDMOD SMOD STOP CALLER "
				},
				"gasEstimates": {
					"creation": {
						"codeDepositCost": "4152800",
						"executionCost": "infinite",
						"totalCost": "infinite"
					},
					"external": {
						"acceptOffer(uint256,address)": "infinite",
						"admin()": "2624",
						"buy(uint256)": "infinite",
						"buyerReward()": "2540",
						"cancel(uint256)": "infinite",
						"complete(uint256)": "infinite",
						"create(string,bool,uint256,uint256)": "infinite",
						"dao()": "2626",
						"daoReward()": "2520",
						"dispute(uint256)": "infinite",
						"disputeInfo(uint256)": "infinite",
						"editMetadata(uint256,string)": "infinite",
						"editPrice(uint256,uint256)": "infinite",
						"editState(uint256,bool)": "infinite",
						"getLatestPrice()": "infinite",
						"itemCount()": "2540",
						"itemInfo(uint256)": "infinite",
						"m4sToken()": "2560",
						"marketplaceFee()": "2496",
						"minFee()": "2519",
						"offer(uint256)": "infinite",
						"offerInfo(address,uint256)": "3155",
						"orderCount()": "2497",
						"orderInfo(uint256)": "infinite",
						"priceFeed()": "2560",
						"ratingCheck(address,uint256)": "3177",
						"resolve(uint256,address)": "infinite",
						"rewardsLive()": "2559",
						"sellerReward()": "2474",
						"updateAddress(uint256,address)": "27284",
						"updateDispute(uint256,string)": "infinite",
						"updateRewardsisLive(bool)": "26895",
						"updateRules(uint256,uint256)": "infinite",
						"userProfile(address)": "infinite"
					},
					"internal": {
						"_transferEarnings(uint256)": "infinite"
					}
				},
				"methodIdentifiers": {
					"acceptOffer(uint256,address)": "918d407d",
					"admin()": "f851a440",
					"buy(uint256)": "d96a094a",
					"buyerReward()": "c0f0f73f",
					"cancel(uint256)": "40e58ee5",
					"complete(uint256)": "971d852f",
					"create(string,bool,uint256,uint256)": "6c914501",
					"dao()": "4162169f",
					"daoReward()": "1885f580",
					"dispute(uint256)": "86d6282c",
					"disputeInfo(uint256)": "101e1940",
					"editMetadata(uint256,string)": "83219a8a",
					"editPrice(uint256,uint256)": "d0e7a5cb",
					"editState(uint256,bool)": "c0eb4e7d",
					"getLatestPrice()": "8e15f473",
					"itemCount()": "6bfb0d01",
					"itemInfo(uint256)": "fd2e997e",
					"m4sToken()": "22a5aebf",
					"marketplaceFee()": "6a166964",
					"minFee()": "24ec7590",
					"offer(uint256)": "761610fc",
					"offerInfo(address,uint256)": "34650412",
					"orderCount()": "2453ffa8",
					"orderInfo(uint256)": "6ab34a4a",
					"priceFeed()": "741bef1a",
					"ratingCheck(address,uint256)": "82c35bfa",
					"resolve(uint256,address)": "af0d467b",
					"rewardsLive()": "e039bec7",
					"sellerReward()": "54282632",
					"updateAddress(uint256,address)": "2ab29df7",
					"updateDispute(uint256,string)": "16632302",
					"updateRewardsisLive(bool)": "2ffbb678",
					"updateRules(uint256,uint256)": "a0e50ca6",
					"userProfile(address)": "1c8e8962"
				}
			},
			"storageLayout": {
				"storage": [
					{
						"astId": 65,
						"contract": "Meta4Swap_flat.sol:Meta4Swap",
						"label": "orderCount",
						"offset": 0,
						"slot": "0",
						"type": "t_uint256"
					},
					{
						"astId": 67,
						"contract": "Meta4Swap_flat.sol:Meta4Swap",
						"label": "itemCount",
						"offset": 0,
						"slot": "1",
						"type": "t_uint256"
					},
					{
						"astId": 69,
						"contract": "Meta4Swap_flat.sol:Meta4Swap",
						"label": "marketplaceFee",
						"offset": 0,
						"slot": "2",
						"type": "t_uint256"
					},
					{
						"astId": 71,
						"contract": "Meta4Swap_flat.sol:Meta4Swap",
						"label": "admin",
						"offset": 0,
						"slot": "3",
						"type": "t_address"
					},
					{
						"astId": 73,
						"contract": "Meta4Swap_flat.sol:Meta4Swap",
						"label": "dao",
						"offset": 0,
						"slot": "4",
						"type": "t_address"
					},
					{
						"astId": 75,
						"contract": "Meta4Swap_flat.sol:Meta4Swap",
						"label": "m4sToken",
						"offset": 0,
						"slot": "5",
						"type": "t_address"
					},
					{
						"astId": 77,
						"contract": "Meta4Swap_flat.sol:Meta4Swap",
						"label": "priceFeed",
						"offset": 0,
						"slot": "6",
						"type": "t_address"
					},
					{
						"astId": 79,
						"contract": "Meta4Swap_flat.sol:Meta4Swap",
						"label": "buyerReward",
						"offset": 0,
						"slot": "7",
						"type": "t_uint256"
					},
					{
						"astId": 81,
						"contract": "Meta4Swap_flat.sol:Meta4Swap",
						"label": "sellerReward",
						"offset": 0,
						"slot": "8",
						"type": "t_uint256"
					},
					{
						"astId": 83,
						"contract": "Meta4Swap_flat.sol:Meta4Swap",
						"label": "daoReward",
						"offset": 0,
						"slot": "9",
						"type": "t_uint256"
					},
					{
						"astId": 85,
						"contract": "Meta4Swap_flat.sol:Meta4Swap",
						"label": "minFee",
						"offset": 0,
						"slot": "10",
						"type": "t_uint256"
					},
					{
						"astId": 87,
						"contract": "Meta4Swap_flat.sol:Meta4Swap",
						"label": "rewardsLive",
						"offset": 0,
						"slot": "11",
						"type": "t_bool"
					},
					{
						"astId": 146,
						"contract": "Meta4Swap_flat.sol:Meta4Swap",
						"label": "itemInfo",
						"offset": 0,
						"slot": "12",
						"type": "t_mapping(t_uint256,t_struct(Item)100_storage)"
					},
					{
						"astId": 151,
						"contract": "Meta4Swap_flat.sol:Meta4Swap",
						"label": "orderInfo",
						"offset": 0,
						"slot": "13",
						"type": "t_mapping(t_uint256,t_struct(Order)125_storage)"
					},
					{
						"astId": 157,
						"contract": "Meta4Swap_flat.sol:Meta4Swap",
						"label": "offerInfo",
						"offset": 0,
						"slot": "14",
						"type": "t_mapping(t_address,t_mapping(t_uint256,t_bool))"
					},
					{
						"astId": 162,
						"contract": "Meta4Swap_flat.sol:Meta4Swap",
						"label": "disputeInfo",
						"offset": 0,
						"slot": "15",
						"type": "t_mapping(t_uint256,t_struct(Dispute)134_storage)"
					},
					{
						"astId": 167,
						"contract": "Meta4Swap_flat.sol:Meta4Swap",
						"label": "userProfile",
						"offset": 0,
						"slot": "16",
						"type": "t_mapping(t_address,t_struct(Profile)141_storage)"
					},
					{
						"astId": 173,
						"contract": "Meta4Swap_flat.sol:Meta4Swap",
						"label": "ratingCheck",
						"offset": 0,
						"slot": "17",
						"type": "t_mapping(t_address,t_mapping(t_uint256,t_bool))"
					}
				],
				"types": {
					"t_address": {
						"encoding": "inplace",
						"label": "address",
						"numberOfBytes": "20"
					},
					"t_bool": {
						"encoding": "inplace",
						"label": "bool",
						"numberOfBytes": "1"
					},
					"t_mapping(t_address,t_mapping(t_uint256,t_bool))": {
						"encoding": "mapping",
						"key": "t_address",
						"label": "mapping(address => mapping(uint256 => bool))",
						"numberOfBytes": "32",
						"value": "t_mapping(t_uint256,t_bool)"
					},
					"t_mapping(t_address,t_struct(Profile)141_storage)": {
						"encoding": "mapping",
						"key": "t_address",
						"label": "mapping(address => struct Meta4Swap.Profile)",
						"numberOfBytes": "32",
						"value": "t_struct(Profile)141_storage"
					},
					"t_mapping(t_uint256,t_bool)": {
						"encoding": "mapping",
						"key": "t_uint256",
						"label": "mapping(uint256 => bool)",
						"numberOfBytes": "32",
						"value": "t_bool"
					},
					"t_mapping(t_uint256,t_struct(Dispute)134_storage)": {
						"encoding": "mapping",
						"key": "t_uint256",
						"label": "mapping(uint256 => struct Meta4Swap.Dispute)",
						"numberOfBytes": "32",
						"value": "t_struct(Dispute)134_storage"
					},
					"t_mapping(t_uint256,t_struct(Item)100_storage)": {
						"encoding": "mapping",
						"key": "t_uint256",
						"label": "mapping(uint256 => struct Meta4Swap.Item)",
						"numberOfBytes": "32",
						"value": "t_struct(Item)100_storage"
					},
					"t_mapping(t_uint256,t_struct(Order)125_storage)": {
						"encoding": "mapping",
						"key": "t_uint256",
						"label": "mapping(uint256 => struct Meta4Swap.Order)",
						"numberOfBytes": "32",
						"value": "t_struct(Order)125_storage"
					},
					"t_string_storage": {
						"encoding": "bytes",
						"label": "string",
						"numberOfBytes": "32"
					},
					"t_struct(Dispute)134_storage": {
						"encoding": "inplace",
						"label": "struct Meta4Swap.Dispute",
						"members": [
							{
								"astId": 127,
								"contract": "Meta4Swap_flat.sol:Meta4Swap",
								"label": "buyerResponse",
								"offset": 0,
								"slot": "0",
								"type": "t_string_storage"
							},
							{
								"astId": 129,
								"contract": "Meta4Swap_flat.sol:Meta4Swap",
								"label": "sellerResponse",
								"offset": 0,
								"slot": "1",
								"type": "t_string_storage"
							},
							{
								"astId": 131,
								"contract": "Meta4Swap_flat.sol:Meta4Swap",
								"label": "created",
								"offset": 0,
								"slot": "2",
								"type": "t_uint256"
							},
							{
								"astId": 133,
								"contract": "Meta4Swap_flat.sol:Meta4Swap",
								"label": "isLive",
								"offset": 0,
								"slot": "3",
								"type": "t_bool"
							}
						],
						"numberOfBytes": "128"
					},
					"t_struct(Item)100_storage": {
						"encoding": "inplace",
						"label": "struct Meta4Swap.Item",
						"members": [
							{
								"astId": 89,
								"contract": "Meta4Swap_flat.sol:Meta4Swap",
								"label": "id",
								"offset": 0,
								"slot": "0",
								"type": "t_uint256"
							},
							{
								"astId": 91,
								"contract": "Meta4Swap_flat.sol:Meta4Swap",
								"label": "metadata",
								"offset": 0,
								"slot": "1",
								"type": "t_string_storage"
							},
							{
								"astId": 93,
								"contract": "Meta4Swap_flat.sol:Meta4Swap",
								"label": "isLive",
								"offset": 0,
								"slot": "2",
								"type": "t_bool"
							},
							{
								"astId": 95,
								"contract": "Meta4Swap_flat.sol:Meta4Swap",
								"label": "price",
								"offset": 0,
								"slot": "3",
								"type": "t_uint256"
							},
							{
								"astId": 97,
								"contract": "Meta4Swap_flat.sol:Meta4Swap",
								"label": "owner",
								"offset": 0,
								"slot": "4",
								"type": "t_address"
							},
							{
								"astId": 99,
								"contract": "Meta4Swap_flat.sol:Meta4Swap",
								"label": "serviceType",
								"offset": 0,
								"slot": "5",
								"type": "t_uint256"
							}
						],
						"numberOfBytes": "192"
					},
					"t_struct(Order)125_storage": {
						"encoding": "inplace",
						"label": "struct Meta4Swap.Order",
						"members": [
							{
								"astId": 102,
								"contract": "Meta4Swap_flat.sol:Meta4Swap",
								"label": "id",
								"offset": 0,
								"slot": "0",
								"type": "t_uint256"
							},
							{
								"astId": 104,
								"contract": "Meta4Swap_flat.sol:Meta4Swap",
								"label": "itemId",
								"offset": 0,
								"slot": "1",
								"type": "t_uint256"
							},
							{
								"astId": 106,
								"contract": "Meta4Swap_flat.sol:Meta4Swap",
								"label": "orderTotal",
								"offset": 0,
								"slot": "2",
								"type": "t_uint256"
							},
							{
								"astId": 108,
								"contract": "Meta4Swap_flat.sol:Meta4Swap",
								"label": "created",
								"offset": 0,
								"slot": "3",
								"type": "t_uint256"
							},
							{
								"astId": 110,
								"contract": "Meta4Swap_flat.sol:Meta4Swap",
								"label": "fee",
								"offset": 0,
								"slot": "4",
								"type": "t_uint256"
							},
							{
								"astId": 112,
								"contract": "Meta4Swap_flat.sol:Meta4Swap",
								"label": "itemPrice",
								"offset": 0,
								"slot": "5",
								"type": "t_uint256"
							},
							{
								"astId": 114,
								"contract": "Meta4Swap_flat.sol:Meta4Swap",
								"label": "chainLinkPrice",
								"offset": 0,
								"slot": "6",
								"type": "t_uint256"
							},
							{
								"astId": 116,
								"contract": "Meta4Swap_flat.sol:Meta4Swap",
								"label": "buyerState",
								"offset": 0,
								"slot": "7",
								"type": "t_uint8"
							},
							{
								"astId": 118,
								"contract": "Meta4Swap_flat.sol:Meta4Swap",
								"label": "sellerState",
								"offset": 1,
								"slot": "7",
								"type": "t_uint8"
							},
							{
								"astId": 120,
								"contract": "Meta4Swap_flat.sol:Meta4Swap",
								"label": "isLive",
								"offset": 2,
								"slot": "7",
								"type": "t_bool"
							},
							{
								"astId": 122,
								"contract": "Meta4Swap_flat.sol:Meta4Swap",
								"label": "buyer",
								"offset": 3,
								"slot": "7",
								"type": "t_address"
							},
							{
								"astId": 124,
								"contract": "Meta4Swap_flat.sol:Meta4Swap",
								"label": "seller",
								"offset": 0,
								"slot": "8",
								"type": "t_address"
							}
						],
						"numberOfBytes": "288"
					},
					"t_struct(Profile)141_storage": {
						"encoding": "inplace",
						"label": "struct Meta4Swap.Profile",
						"members": [
							{
								"astId": 136,
								"contract": "Meta4Swap_flat.sol:Meta4Swap",
								"label": "cancelled",
								"offset": 0,
								"slot": "0",
								"type": "t_uint256"
							},
							{
								"astId": 138,
								"contract": "Meta4Swap_flat.sol:Meta4Swap",
								"label": "completed",
								"offset": 0,
								"slot": "1",
								"type": "t_uint256"
							},
							{
								"astId": 140,
								"contract": "Meta4Swap_flat.sol:Meta4Swap",
								"label": "disputes",
								"offset": 0,
								"slot": "2",
								"type": "t_uint256"
							}
						],
						"numberOfBytes": "96"
					},
					"t_uint256": {
						"encoding": "inplace",
						"label": "uint256",
						"numberOfBytes": "32"
					},
					"t_uint8": {
						"encoding": "inplace",
						"label": "uint8",
						"numberOfBytes": "1"
					}
				}
			},
			"userdoc": {
				"kind": "user",
				"methods": {},
				"version": 1
			}
		}
	}
}