{
	"Meta4SwapDAO.sol": {
		"Meta4SwapDAO": {
			"abi": [
				{
					"inputs": [
						{
							"internalType": "address",
							"name": "_m4s",
							"type": "address"
						}
					],
					"stateMutability": "nonpayable",
					"type": "constructor"
				},
				{
					"inputs": [],
					"name": "admin",
					"outputs": [
						{
							"internalType": "address",
							"name": "",
							"type": "address"
						}
					],
					"stateMutability": "view",
					"type": "function"
				},
				{
					"inputs": [],
					"name": "dao",
					"outputs": [
						{
							"internalType": "address",
							"name": "",
							"type": "address"
						}
					],
					"stateMutability": "view",
					"type": "function"
				},
				{
					"inputs": [],
					"name": "m4sToken",
					"outputs": [
						{
							"internalType": "address",
							"name": "",
							"type": "address"
						}
					],
					"stateMutability": "view",
					"type": "function"
				},
				{
					"inputs": [
						{
							"internalType": "uint256",
							"name": "_amount",
							"type": "uint256"
						}
					],
					"name": "redeem",
					"outputs": [],
					"stateMutability": "nonpayable",
					"type": "function"
				},
				{
					"inputs": [
						{
							"internalType": "uint256",
							"name": "_amount",
							"type": "uint256"
						}
					],
					"name": "transferEarnings",
					"outputs": [],
					"stateMutability": "nonpayable",
					"type": "function"
				},
				{
					"inputs": [
						{
							"internalType": "uint256",
							"name": "_value",
							"type": "uint256"
						},
						{
							"internalType": "address",
							"name": "_newAddress",
							"type": "address"
						}
					],
					"name": "updateAddress",
					"outputs": [],
					"stateMutability": "nonpayable",
					"type": "function"
				}
			],
			"devdoc": {
				"kind": "dev",
				"methods": {},
				"version": 1
			},
			"evm": {
				"assembly": "    /* \"Meta4SwapDAO.sol\":522:2049  contract Meta4SwapDAO {... */\n  mstore(0x40, 0x80)\n    /* \"Meta4SwapDAO.sol\":631:746  constructor(address _m4s) {... */\n  callvalue\n  dup1\n  iszero\n  tag_1\n  jumpi\n  0x00\n  dup1\n  revert\ntag_1:\n  pop\n  mload(0x40)\n  sub(codesize, bytecodeSize)\n  dup1\n  bytecodeSize\n  dup4\n  codecopy\n  dup2\n  dup2\n  add\n  0x40\n  mstore\n  dup2\n  add\n  swap1\n  tag_2\n  swap2\n  swap1\n  tag_3\n  jump\t// in\ntag_2:\n    /* \"Meta4SwapDAO.sol\":675:685  msg.sender */\n  caller\n    /* \"Meta4SwapDAO.sol\":667:672  admin */\n  0x01\n  0x00\n    /* \"Meta4SwapDAO.sol\":667:685  admin = msg.sender */\n  0x0100\n  exp\n  dup2\n  sload\n  dup2\n  0xffffffffffffffffffffffffffffffffffffffff\n  mul\n  not\n  and\n  swap1\n  dup4\n  0xffffffffffffffffffffffffffffffffffffffff\n  and\n  mul\n  or\n  swap1\n  sstore\n  pop\n    /* \"Meta4SwapDAO.sol\":709:713  this */\n  address\n    /* \"Meta4SwapDAO.sol\":695:698  dao */\n  0x02\n  0x00\n    /* \"Meta4SwapDAO.sol\":695:714  dao = address(this) */\n  0x0100\n  exp\n  dup2\n  sload\n  dup2\n  0xffffffffffffffffffffffffffffffffffffffff\n  mul\n  not\n  and\n  swap1\n  dup4\n  0xffffffffffffffffffffffffffffffffffffffff\n  and\n  mul\n  or\n  swap1\n  sstore\n  pop\n    /* \"Meta4SwapDAO.sol\":735:739  _m4s */\n  dup1\n    /* \"Meta4SwapDAO.sol\":724:732  m4sToken */\n  0x00\n  dup1\n    /* \"Meta4SwapDAO.sol\":724:739  m4sToken = _m4s */\n  0x0100\n  exp\n  dup2\n  sload\n  dup2\n  0xffffffffffffffffffffffffffffffffffffffff\n  mul\n  not\n  and\n  swap1\n  dup4\n  0xffffffffffffffffffffffffffffffffffffffff\n  and\n  mul\n  or\n  swap1\n  sstore\n  pop\n    /* \"Meta4SwapDAO.sol\":631:746  constructor(address _m4s) {... */\n  pop\n    /* \"Meta4SwapDAO.sol\":522:2049  contract Meta4SwapDAO {... */\n  jump(tag_6)\n    /* \"#utility.yul\":7:150   */\ntag_8:\n    /* \"#utility.yul\":64:69   */\n  0x00\n    /* \"#utility.yul\":95:101   */\n  dup2\n    /* \"#utility.yul\":89:102   */\n  mload\n    /* \"#utility.yul\":80:102   */\n  swap1\n  pop\n    /* \"#utility.yul\":111:144   */\n  tag_10\n    /* \"#utility.yul\":138:143   */\n  dup2\n    /* \"#utility.yul\":111:144   */\n  tag_11\n  jump\t// in\ntag_10:\n    /* \"#utility.yul\":7:150   */\n  swap3\n  swap2\n  pop\n  pop\n  jump\t// out\n    /* \"#utility.yul\":156:507   */\ntag_3:\n    /* \"#utility.yul\":226:232   */\n  0x00\n    /* \"#utility.yul\":275:277   */\n  0x20\n    /* \"#utility.yul\":263:272   */\n  dup3\n    /* \"#utility.yul\":254:261   */\n  dup5\n    /* \"#utility.yul\":250:273   */\n  sub\n    /* \"#utility.yul\":246:278   */\n  slt\n    /* \"#utility.yul\":243:362   */\n  iszero\n  tag_13\n  jumpi\n    /* \"#utility.yul\":281:360   */\n  tag_14\n  tag_15\n  jump\t// in\ntag_14:\n    /* \"#utility.yul\":243:362   */\ntag_13:\n    /* \"#utility.yul\":401:402   */\n  0x00\n    /* \"#utility.yul\":426:490   */\n  tag_16\n    /* \"#utility.yul\":482:489   */\n  dup5\n    /* \"#utility.yul\":473:479   */\n  dup3\n    /* \"#utility.yul\":462:471   */\n  dup6\n    /* \"#utility.yul\":458:480   */\n  add\n    /* \"#utility.yul\":426:490   */\n  tag_8\n  jump\t// in\ntag_16:\n    /* \"#utility.yul\":416:490   */\n  swap2\n  pop\n    /* \"#utility.yul\":372:500   */\n  pop\n    /* \"#utility.yul\":156:507   */\n  swap3\n  swap2\n  pop\n  pop\n  jump\t// out\n    /* \"#utility.yul\":594:690   */\ntag_19:\n    /* \"#utility.yul\":631:638   */\n  0x00\n    /* \"#utility.yul\":660:684   */\n  tag_21\n    /* \"#utility.yul\":678:683   */\n  dup3\n    /* \"#utility.yul\":660:684   */\n  tag_22\n  jump\t// in\ntag_21:\n    /* \"#utility.yul\":649:684   */\n  swap1\n  pop\n    /* \"#utility.yul\":594:690   */\n  swap2\n  swap1\n  pop\n  jump\t// out\n    /* \"#utility.yul\":696:822   */\ntag_22:\n    /* \"#utility.yul\":733:740   */\n  0x00\n    /* \"#utility.yul\":773:815   */\n  0xffffffffffffffffffffffffffffffffffffffff\n    /* \"#utility.yul\":766:771   */\n  dup3\n    /* \"#utility.yul\":762:816   */\n  and\n    /* \"#utility.yul\":751:816   */\n  swap1\n  pop\n    /* \"#utility.yul\":696:822   */\n  swap2\n  swap1\n  pop\n  jump\t// out\n    /* \"#utility.yul\":951:1068   */\ntag_15:\n    /* \"#utility.yul\":1060:1061   */\n  0x00\n    /* \"#utility.yul\":1057:1058   */\n  dup1\n    /* \"#utility.yul\":1050:1062   */\n  revert\n    /* \"#utility.yul\":1074:1196   */\ntag_11:\n    /* \"#utility.yul\":1147:1171   */\n  tag_28\n    /* \"#utility.yul\":1165:1170   */\n  dup2\n    /* \"#utility.yul\":1147:1171   */\n  tag_19\n  jump\t// in\ntag_28:\n    /* \"#utility.yul\":1140:1145   */\n  dup2\n    /* \"#utility.yul\":1137:1172   */\n  eq\n    /* \"#utility.yul\":1127:1190   */\n  tag_29\n  jumpi\n    /* \"#utility.yul\":1186:1187   */\n  0x00\n    /* \"#utility.yul\":1183:1184   */\n  dup1\n    /* \"#utility.yul\":1176:1188   */\n  revert\n    /* \"#utility.yul\":1127:1190   */\ntag_29:\n    /* \"#utility.yul\":1074:1196   */\n  pop\n  jump\t// out\n    /* \"Meta4SwapDAO.sol\":522:2049  contract Meta4SwapDAO {... */\ntag_6:\n  dataSize(sub_0)\n  dup1\n  dataOffset(sub_0)\n  0x00\n  codecopy\n  0x00\n  return\nstop\n\nsub_0: assembly {\n        /* \"Meta4SwapDAO.sol\":522:2049  contract Meta4SwapDAO {... */\n      mstore(0x40, 0x80)\n      callvalue\n      dup1\n      iszero\n      tag_1\n      jumpi\n      0x00\n      dup1\n      revert\n    tag_1:\n      pop\n      jumpi(tag_2, lt(calldatasize, 0x04))\n      shr(0xe0, calldataload(0x00))\n      dup1\n      0x22a5aebf\n      eq\n      tag_3\n      jumpi\n      dup1\n      0x2ab29df7\n      eq\n      tag_4\n      jumpi\n      dup1\n      0x4162169f\n      eq\n      tag_5\n      jumpi\n      dup1\n      0x69f07aa6\n      eq\n      tag_6\n      jumpi\n      dup1\n      0xdb006a75\n      eq\n      tag_7\n      jumpi\n      dup1\n      0xf851a440\n      eq\n      tag_8\n      jumpi\n    tag_2:\n      0x00\n      dup1\n      revert\n        /* \"Meta4SwapDAO.sol\":551:574  address public m4sToken */\n    tag_3:\n      tag_9\n      tag_10\n      jump\t// in\n    tag_9:\n      mload(0x40)\n      tag_11\n      swap2\n      swap1\n      tag_12\n      jump\t// in\n    tag_11:\n      mload(0x40)\n      dup1\n      swap2\n      sub\n      swap1\n      return\n        /* \"Meta4SwapDAO.sol\":1599:2046  function updateAddress(uint256 _value, address _newAddress) public {... */\n    tag_4:\n      tag_13\n      0x04\n      dup1\n      calldatasize\n      sub\n      dup2\n      add\n      swap1\n      tag_14\n      swap2\n      swap1\n      tag_15\n      jump\t// in\n    tag_14:\n      tag_16\n      jump\t// in\n    tag_13:\n      stop\n        /* \"Meta4SwapDAO.sol\":606:624  address public dao */\n    tag_5:\n      tag_17\n      tag_18\n      jump\t// in\n    tag_17:\n      mload(0x40)\n      tag_19\n      swap2\n      swap1\n      tag_12\n      jump\t// in\n    tag_19:\n      mload(0x40)\n      dup1\n      swap2\n      sub\n      swap1\n      return\n        /* \"Meta4SwapDAO.sol\":1291:1570  function transferEarnings(uint256 _amount) public {... */\n    tag_6:\n      tag_20\n      0x04\n      dup1\n      calldatasize\n      sub\n      dup2\n      add\n      swap1\n      tag_21\n      swap2\n      swap1\n      tag_22\n      jump\t// in\n    tag_21:\n      tag_23\n      jump\t// in\n    tag_20:\n      stop\n        /* \"Meta4SwapDAO.sol\":785:1181  function redeem(uint256 _amount) public {... */\n    tag_7:\n      tag_24\n      0x04\n      dup1\n      calldatasize\n      sub\n      dup2\n      add\n      swap1\n      tag_25\n      swap2\n      swap1\n      tag_22\n      jump\t// in\n    tag_25:\n      tag_26\n      jump\t// in\n    tag_24:\n      stop\n        /* \"Meta4SwapDAO.sol\":580:600  address public admin */\n    tag_8:\n      tag_27\n      tag_28\n      jump\t// in\n    tag_27:\n      mload(0x40)\n      tag_29\n      swap2\n      swap1\n      tag_12\n      jump\t// in\n    tag_29:\n      mload(0x40)\n      dup1\n      swap2\n      sub\n      swap1\n      return\n        /* \"Meta4SwapDAO.sol\":551:574  address public m4sToken */\n    tag_10:\n      0x00\n      dup1\n      sload\n      swap1\n      0x0100\n      exp\n      swap1\n      div\n      0xffffffffffffffffffffffffffffffffffffffff\n      and\n      dup2\n      jump\t// out\n        /* \"Meta4SwapDAO.sol\":1599:2046  function updateAddress(uint256 _value, address _newAddress) public {... */\n    tag_16:\n        /* \"Meta4SwapDAO.sol\":1698:1703  admin */\n      0x01\n      0x00\n      swap1\n      sload\n      swap1\n      0x0100\n      exp\n      swap1\n      div\n      0xffffffffffffffffffffffffffffffffffffffff\n      and\n        /* \"Meta4SwapDAO.sol\":1684:1703  msg.sender == admin */\n      0xffffffffffffffffffffffffffffffffffffffff\n      and\n        /* \"Meta4SwapDAO.sol\":1684:1694  msg.sender */\n      caller\n        /* \"Meta4SwapDAO.sol\":1684:1703  msg.sender == admin */\n      0xffffffffffffffffffffffffffffffffffffffff\n      and\n      eq\n        /* \"Meta4SwapDAO.sol\":1676:1739  require(msg.sender == admin, \"Only company can change address\") */\n      tag_31\n      jumpi\n      mload(0x40)\n      0x08c379a000000000000000000000000000000000000000000000000000000000\n      dup2\n      mstore\n      0x04\n      add\n      tag_32\n      swap1\n      tag_33\n      jump\t// in\n    tag_32:\n      mload(0x40)\n      dup1\n      swap2\n      sub\n      swap1\n      revert\n    tag_31:\n        /* \"Meta4SwapDAO.sol\":1763:1764  0 */\n      0x00\n        /* \"Meta4SwapDAO.sol\":1753:1759  _value */\n      dup3\n        /* \"Meta4SwapDAO.sol\":1753:1764  _value == 0 */\n      eq\n        /* \"Meta4SwapDAO.sol\":1749:2040  if (_value == 0) {... */\n      iszero\n      tag_34\n      jumpi\n        /* \"Meta4SwapDAO.sol\":1816:1827  _newAddress */\n      dup1\n        /* \"Meta4SwapDAO.sol\":1808:1813  admin */\n      0x01\n      0x00\n        /* \"Meta4SwapDAO.sol\":1808:1827  admin = _newAddress */\n      0x0100\n      exp\n      dup2\n      sload\n      dup2\n      0xffffffffffffffffffffffffffffffffffffffff\n      mul\n      not\n      and\n      swap1\n      dup4\n      0xffffffffffffffffffffffffffffffffffffffff\n      and\n      mul\n      or\n      swap1\n      sstore\n      pop\n        /* \"Meta4SwapDAO.sol\":1749:2040  if (_value == 0) {... */\n      jump(tag_35)\n    tag_34:\n        /* \"Meta4SwapDAO.sol\":1858:1859  1 */\n      0x01\n        /* \"Meta4SwapDAO.sol\":1848:1854  _value */\n      dup3\n        /* \"Meta4SwapDAO.sol\":1848:1859  _value == 1 */\n      eq\n        /* \"Meta4SwapDAO.sol\":1844:2040  if (_value == 1) {... */\n      iszero\n      tag_36\n      jumpi\n        /* \"Meta4SwapDAO.sol\":1911:1922  _newAddress */\n      dup1\n        /* \"Meta4SwapDAO.sol\":1905:1908  dao */\n      0x02\n      0x00\n        /* \"Meta4SwapDAO.sol\":1905:1922  dao = _newAddress */\n      0x0100\n      exp\n      dup2\n      sload\n      dup2\n      0xffffffffffffffffffffffffffffffffffffffff\n      mul\n      not\n      and\n      swap1\n      dup4\n      0xffffffffffffffffffffffffffffffffffffffff\n      and\n      mul\n      or\n      swap1\n      sstore\n      pop\n        /* \"Meta4SwapDAO.sol\":1844:2040  if (_value == 1) {... */\n      jump(tag_37)\n    tag_36:\n        /* \"Meta4SwapDAO.sol\":1952:1953  2 */\n      0x02\n        /* \"Meta4SwapDAO.sol\":1942:1948  _value */\n      dup3\n        /* \"Meta4SwapDAO.sol\":1942:1953  _value == 2 */\n      eq\n        /* \"Meta4SwapDAO.sol\":1938:2040  if (_value == 2) {... */\n      iszero\n      tag_38\n      jumpi\n        /* \"Meta4SwapDAO.sol\":2018:2029  _newAddress */\n      dup1\n        /* \"Meta4SwapDAO.sol\":2007:2015  m4sToken */\n      0x00\n      dup1\n        /* \"Meta4SwapDAO.sol\":2007:2029  m4sToken = _newAddress */\n      0x0100\n      exp\n      dup2\n      sload\n      dup2\n      0xffffffffffffffffffffffffffffffffffffffff\n      mul\n      not\n      and\n      swap1\n      dup4\n      0xffffffffffffffffffffffffffffffffffffffff\n      and\n      mul\n      or\n      swap1\n      sstore\n      pop\n        /* \"Meta4SwapDAO.sol\":1938:2040  if (_value == 2) {... */\n    tag_38:\n        /* \"Meta4SwapDAO.sol\":1844:2040  if (_value == 1) {... */\n    tag_37:\n        /* \"Meta4SwapDAO.sol\":1749:2040  if (_value == 0) {... */\n    tag_35:\n        /* \"Meta4SwapDAO.sol\":1599:2046  function updateAddress(uint256 _value, address _newAddress) public {... */\n      pop\n      pop\n      jump\t// out\n        /* \"Meta4SwapDAO.sol\":606:624  address public dao */\n    tag_18:\n      0x02\n      0x00\n      swap1\n      sload\n      swap1\n      0x0100\n      exp\n      swap1\n      div\n      0xffffffffffffffffffffffffffffffffffffffff\n      and\n      dup2\n      jump\t// out\n        /* \"Meta4SwapDAO.sol\":1291:1570  function transferEarnings(uint256 _amount) public {... */\n    tag_23:\n        /* \"Meta4SwapDAO.sol\":1371:1376  admin */\n      0x01\n      0x00\n      swap1\n      sload\n      swap1\n      0x0100\n      exp\n      swap1\n      div\n      0xffffffffffffffffffffffffffffffffffffffff\n      and\n        /* \"Meta4SwapDAO.sol\":1359:1376  msg.sender==admin */\n      0xffffffffffffffffffffffffffffffffffffffff\n      and\n        /* \"Meta4SwapDAO.sol\":1359:1369  msg.sender */\n      caller\n        /* \"Meta4SwapDAO.sol\":1359:1376  msg.sender==admin */\n      0xffffffffffffffffffffffffffffffffffffffff\n      and\n      eq\n        /* \"Meta4SwapDAO.sol\":1351:1417  require(msg.sender==admin, \"Only admin can send money to new DAO\") */\n      tag_40\n      jumpi\n      mload(0x40)\n      0x08c379a000000000000000000000000000000000000000000000000000000000\n      dup2\n      mstore\n      0x04\n      add\n      tag_41\n      swap1\n      tag_42\n      jump\t// in\n    tag_41:\n      mload(0x40)\n      dup1\n      swap2\n      sub\n      swap1\n      revert\n    tag_40:\n        /* \"Meta4SwapDAO.sol\":1428:1437  bool sent */\n      0x00\n        /* \"Meta4SwapDAO.sol\":1439:1456  bytes memory data */\n      dup1\n        /* \"Meta4SwapDAO.sol\":1460:1463  dao */\n      0x02\n      0x00\n      swap1\n      sload\n      swap1\n      0x0100\n      exp\n      swap1\n      div\n      0xffffffffffffffffffffffffffffffffffffffff\n      and\n        /* \"Meta4SwapDAO.sol\":1460:1468  dao.call */\n      0xffffffffffffffffffffffffffffffffffffffff\n      and\n        /* \"Meta4SwapDAO.sol\":1476:1497  address(this).balance */\n      selfbalance\n        /* \"Meta4SwapDAO.sol\":1460:1502  dao.call{value: address(this).balance}(\"\") */\n      mload(0x40)\n      tag_43\n      swap1\n      tag_44\n      jump\t// in\n    tag_43:\n      0x00\n      mload(0x40)\n      dup1\n      dup4\n      sub\n      dup2\n      dup6\n      dup8\n      gas\n      call\n      swap3\n      pop\n      pop\n      pop\n      returndatasize\n      dup1\n      0x00\n      dup2\n      eq\n      tag_47\n      jumpi\n      mload(0x40)\n      swap2\n      pop\n      and(add(returndatasize, 0x3f), not(0x1f))\n      dup3\n      add\n      0x40\n      mstore\n      returndatasize\n      dup3\n      mstore\n      returndatasize\n      0x00\n      0x20\n      dup5\n      add\n      returndatacopy\n      jump(tag_46)\n    tag_47:\n      0x60\n      swap2\n      pop\n    tag_46:\n      pop\n        /* \"Meta4SwapDAO.sol\":1427:1502  (bool sent, bytes memory data) = dao.call{value: address(this).balance}(\"\") */\n      swap2\n      pop\n      swap2\n      pop\n        /* \"Meta4SwapDAO.sol\":1534:1538  sent */\n      dup2\n        /* \"Meta4SwapDAO.sol\":1526:1563  require(sent, \"Failed to Send Ether\") */\n      tag_48\n      jumpi\n      mload(0x40)\n      0x08c379a000000000000000000000000000000000000000000000000000000000\n      dup2\n      mstore\n      0x04\n      add\n      tag_49\n      swap1\n      tag_50\n      jump\t// in\n    tag_49:\n      mload(0x40)\n      dup1\n      swap2\n      sub\n      swap1\n      revert\n    tag_48:\n        /* \"Meta4SwapDAO.sol\":1341:1570  {... */\n      pop\n      pop\n        /* \"Meta4SwapDAO.sol\":1291:1570  function transferEarnings(uint256 _amount) public {... */\n      pop\n      jump\t// out\n        /* \"Meta4SwapDAO.sol\":785:1181  function redeem(uint256 _amount) public {... */\n    tag_26:\n        /* \"Meta4SwapDAO.sol\":906:913  _amount */\n      dup1\n        /* \"Meta4SwapDAO.sol\":871:879  m4sToken */\n      0x00\n      dup1\n      sload\n      swap1\n      0x0100\n      exp\n      swap1\n      div\n      0xffffffffffffffffffffffffffffffffffffffff\n      and\n        /* \"Meta4SwapDAO.sol\":856:890  Meta4SwapToken(m4sToken).balanceOf */\n      0xffffffffffffffffffffffffffffffffffffffff\n      and\n      0x70a08231\n        /* \"Meta4SwapDAO.sol\":891:901  msg.sender */\n      caller\n        /* \"Meta4SwapDAO.sol\":856:902  Meta4SwapToken(m4sToken).balanceOf(msg.sender) */\n      mload(0x40)\n      dup3\n      0xffffffff\n      and\n      0xe0\n      shl\n      dup2\n      mstore\n      0x04\n      add\n      tag_52\n      swap2\n      swap1\n      tag_12\n      jump\t// in\n    tag_52:\n      0x20\n      mload(0x40)\n      dup1\n      dup4\n      sub\n      dup2\n      dup7\n      dup1\n      extcodesize\n      iszero\n      dup1\n      iszero\n      tag_53\n      jumpi\n      0x00\n      dup1\n      revert\n    tag_53:\n      pop\n      gas\n      staticcall\n      iszero\n      dup1\n      iszero\n      tag_55\n      jumpi\n      returndatasize\n      0x00\n      dup1\n      returndatacopy\n      revert(0x00, returndatasize)\n    tag_55:\n      pop\n      pop\n      pop\n      pop\n      mload(0x40)\n      returndatasize\n      not(0x1f)\n      0x1f\n      dup3\n      add\n      and\n      dup3\n      add\n      dup1\n      0x40\n      mstore\n      pop\n      dup2\n      add\n      swap1\n      tag_56\n      swap2\n      swap1\n      tag_57\n      jump\t// in\n    tag_56:\n        /* \"Meta4SwapDAO.sol\":856:913  Meta4SwapToken(m4sToken).balanceOf(msg.sender) >= _amount */\n      lt\n      iszero\n        /* \"Meta4SwapDAO.sol\":835:959  require(... */\n      tag_58\n      jumpi\n      mload(0x40)\n      0x08c379a000000000000000000000000000000000000000000000000000000000\n      dup2\n      mstore\n      0x04\n      add\n      tag_59\n      swap1\n      tag_60\n      jump\t// in\n    tag_59:\n      mload(0x40)\n      dup1\n      swap2\n      sub\n      swap1\n      revert\n    tag_58:\n        /* \"Meta4SwapDAO.sol\":977:987  msg.sender */\n      caller\n        /* \"Meta4SwapDAO.sol\":969:993  payable(msg.sender).call */\n      0xffffffffffffffffffffffffffffffffffffffff\n      and\n        /* \"Meta4SwapDAO.sol\":1097:1104  _amount */\n      dup2\n        /* \"Meta4SwapDAO.sol\":1070:1078  m4sToken */\n      0x00\n      dup1\n      sload\n      swap1\n      0x0100\n      exp\n      swap1\n      div\n      0xffffffffffffffffffffffffffffffffffffffff\n      and\n        /* \"Meta4SwapDAO.sol\":1055:1091  Meta4SwapToken(m4sToken).totalSupply */\n      0xffffffffffffffffffffffffffffffffffffffff\n      and\n      0x18160ddd\n        /* \"Meta4SwapDAO.sol\":1055:1093  Meta4SwapToken(m4sToken).totalSupply() */\n      mload(0x40)\n      dup2\n      0xffffffff\n      and\n      0xe0\n      shl\n      dup2\n      mstore\n      0x04\n      add\n      0x20\n      mload(0x40)\n      dup1\n      dup4\n      sub\n      dup2\n      dup7\n      dup1\n      extcodesize\n      iszero\n      dup1\n      iszero\n      tag_61\n      jumpi\n      0x00\n      dup1\n      revert\n    tag_61:\n      pop\n      gas\n      staticcall\n      iszero\n      dup1\n      iszero\n      tag_63\n      jumpi\n      returndatasize\n      0x00\n      dup1\n      returndatacopy\n      revert(0x00, returndatasize)\n    tag_63:\n      pop\n      pop\n      pop\n      pop\n      mload(0x40)\n      returndatasize\n      not(0x1f)\n      0x1f\n      dup3\n      add\n      and\n      dup3\n      add\n      dup1\n      0x40\n      mstore\n      pop\n      dup2\n      add\n      swap1\n      tag_64\n      swap2\n      swap1\n      tag_57\n      jump\t// in\n    tag_64:\n        /* \"Meta4SwapDAO.sol\":1015:1036  address(this).balance */\n      selfbalance\n        /* \"Meta4SwapDAO.sol\":1015:1093  address(this).balance /... */\n      tag_65\n      swap2\n      swap1\n      tag_66\n      jump\t// in\n    tag_65:\n        /* \"Meta4SwapDAO.sol\":1014:1104  (address(this).balance /... */\n      tag_67\n      swap2\n      swap1\n      tag_68\n      jump\t// in\n    tag_67:\n        /* \"Meta4SwapDAO.sol\":969:1114  payable(msg.sender).call{... */\n      pop\n      pop\n        /* \"Meta4SwapDAO.sol\":1139:1147  m4sToken */\n      0x00\n      dup1\n      sload\n      swap1\n      0x0100\n      exp\n      swap1\n      div\n      0xffffffffffffffffffffffffffffffffffffffff\n      and\n        /* \"Meta4SwapDAO.sol\":1124:1153  Meta4SwapToken(m4sToken).burn */\n      0xffffffffffffffffffffffffffffffffffffffff\n      and\n      0x9dc29fac\n        /* \"Meta4SwapDAO.sol\":1154:1164  msg.sender */\n      caller\n        /* \"Meta4SwapDAO.sol\":1166:1173  _amount */\n      dup4\n        /* \"Meta4SwapDAO.sol\":1124:1174  Meta4SwapToken(m4sToken).burn(msg.sender, _amount) */\n      mload(0x40)\n      dup4\n      0xffffffff\n      and\n      0xe0\n      shl\n      dup2\n      mstore\n      0x04\n      add\n      tag_69\n      swap3\n      swap2\n      swap1\n      tag_70\n      jump\t// in\n    tag_69:\n      0x20\n      mload(0x40)\n      dup1\n      dup4\n      sub\n      dup2\n      0x00\n      dup8\n      dup1\n      extcodesize\n      iszero\n      dup1\n      iszero\n      tag_71\n      jumpi\n      0x00\n      dup1\n      revert\n    tag_71:\n      pop\n      gas\n      call\n      iszero\n      dup1\n      iszero\n      tag_73\n      jumpi\n      returndatasize\n      0x00\n      dup1\n      returndatacopy\n      revert(0x00, returndatasize)\n    tag_73:\n      pop\n      pop\n      pop\n      pop\n      mload(0x40)\n      returndatasize\n      not(0x1f)\n      0x1f\n      dup3\n      add\n      and\n      dup3\n      add\n      dup1\n      0x40\n      mstore\n      pop\n      dup2\n      add\n      swap1\n      tag_74\n      swap2\n      swap1\n      tag_75\n      jump\t// in\n    tag_74:\n      pop\n        /* \"Meta4SwapDAO.sol\":785:1181  function redeem(uint256 _amount) public {... */\n      pop\n      jump\t// out\n        /* \"Meta4SwapDAO.sol\":580:600  address public admin */\n    tag_28:\n      0x01\n      0x00\n      swap1\n      sload\n      swap1\n      0x0100\n      exp\n      swap1\n      div\n      0xffffffffffffffffffffffffffffffffffffffff\n      and\n      dup2\n      jump\t// out\n        /* \"#utility.yul\":7:146   */\n    tag_77:\n        /* \"#utility.yul\":53:58   */\n      0x00\n        /* \"#utility.yul\":91:97   */\n      dup2\n        /* \"#utility.yul\":78:98   */\n      calldataload\n        /* \"#utility.yul\":69:98   */\n      swap1\n      pop\n        /* \"#utility.yul\":107:140   */\n      tag_79\n        /* \"#utility.yul\":134:139   */\n      dup2\n        /* \"#utility.yul\":107:140   */\n      tag_80\n      jump\t// in\n    tag_79:\n        /* \"#utility.yul\":7:146   */\n      swap3\n      swap2\n      pop\n      pop\n      jump\t// out\n        /* \"#utility.yul\":152:289   */\n    tag_81:\n        /* \"#utility.yul\":206:211   */\n      0x00\n        /* \"#utility.yul\":237:243   */\n      dup2\n        /* \"#utility.yul\":231:244   */\n      mload\n        /* \"#utility.yul\":222:244   */\n      swap1\n      pop\n        /* \"#utility.yul\":253:283   */\n      tag_83\n        /* \"#utility.yul\":277:282   */\n      dup2\n        /* \"#utility.yul\":253:283   */\n      tag_84\n      jump\t// in\n    tag_83:\n        /* \"#utility.yul\":152:289   */\n      swap3\n      swap2\n      pop\n      pop\n      jump\t// out\n        /* \"#utility.yul\":295:434   */\n    tag_85:\n        /* \"#utility.yul\":341:346   */\n      0x00\n        /* \"#utility.yul\":379:385   */\n      dup2\n        /* \"#utility.yul\":366:386   */\n      calldataload\n        /* \"#utility.yul\":357:386   */\n      swap1\n      pop\n        /* \"#utility.yul\":395:428   */\n      tag_87\n        /* \"#utility.yul\":422:427   */\n      dup2\n        /* \"#utility.yul\":395:428   */\n      tag_88\n      jump\t// in\n    tag_87:\n        /* \"#utility.yul\":295:434   */\n      swap3\n      swap2\n      pop\n      pop\n      jump\t// out\n        /* \"#utility.yul\":440:583   */\n    tag_89:\n        /* \"#utility.yul\":497:502   */\n      0x00\n        /* \"#utility.yul\":528:534   */\n      dup2\n        /* \"#utility.yul\":522:535   */\n      mload\n        /* \"#utility.yul\":513:535   */\n      swap1\n      pop\n        /* \"#utility.yul\":544:577   */\n      tag_91\n        /* \"#utility.yul\":571:576   */\n      dup2\n        /* \"#utility.yul\":544:577   */\n      tag_88\n      jump\t// in\n    tag_91:\n        /* \"#utility.yul\":440:583   */\n      swap3\n      swap2\n      pop\n      pop\n      jump\t// out\n        /* \"#utility.yul\":589:934   */\n    tag_75:\n        /* \"#utility.yul\":656:662   */\n      0x00\n        /* \"#utility.yul\":705:707   */\n      0x20\n        /* \"#utility.yul\":693:702   */\n      dup3\n        /* \"#utility.yul\":684:691   */\n      dup5\n        /* \"#utility.yul\":680:703   */\n      sub\n        /* \"#utility.yul\":676:708   */\n      slt\n        /* \"#utility.yul\":673:792   */\n      iszero\n      tag_93\n      jumpi\n        /* \"#utility.yul\":711:790   */\n      tag_94\n      tag_95\n      jump\t// in\n    tag_94:\n        /* \"#utility.yul\":673:792   */\n    tag_93:\n        /* \"#utility.yul\":831:832   */\n      0x00\n        /* \"#utility.yul\":856:917   */\n      tag_96\n        /* \"#utility.yul\":909:916   */\n      dup5\n        /* \"#utility.yul\":900:906   */\n      dup3\n        /* \"#utility.yul\":889:898   */\n      dup6\n        /* \"#utility.yul\":885:907   */\n      add\n        /* \"#utility.yul\":856:917   */\n      tag_81\n      jump\t// in\n    tag_96:\n        /* \"#utility.yul\":846:917   */\n      swap2\n      pop\n        /* \"#utility.yul\":802:927   */\n      pop\n        /* \"#utility.yul\":589:934   */\n      swap3\n      swap2\n      pop\n      pop\n      jump\t// out\n        /* \"#utility.yul\":940:1269   */\n    tag_22:\n        /* \"#utility.yul\":999:1005   */\n      0x00\n        /* \"#utility.yul\":1048:1050   */\n      0x20\n        /* \"#utility.yul\":1036:1045   */\n      dup3\n        /* \"#utility.yul\":1027:1034   */\n      dup5\n        /* \"#utility.yul\":1023:1046   */\n      sub\n        /* \"#utility.yul\":1019:1051   */\n      slt\n        /* \"#utility.yul\":1016:1135   */\n      iszero\n      tag_98\n      jumpi\n        /* \"#utility.yul\":1054:1133   */\n      tag_99\n      tag_95\n      jump\t// in\n    tag_99:\n        /* \"#utility.yul\":1016:1135   */\n    tag_98:\n        /* \"#utility.yul\":1174:1175   */\n      0x00\n        /* \"#utility.yul\":1199:1252   */\n      tag_100\n        /* \"#utility.yul\":1244:1251   */\n      dup5\n        /* \"#utility.yul\":1235:1241   */\n      dup3\n        /* \"#utility.yul\":1224:1233   */\n      dup6\n        /* \"#utility.yul\":1220:1242   */\n      add\n        /* \"#utility.yul\":1199:1252   */\n      tag_85\n      jump\t// in\n    tag_100:\n        /* \"#utility.yul\":1189:1252   */\n      swap2\n      pop\n        /* \"#utility.yul\":1145:1262   */\n      pop\n        /* \"#utility.yul\":940:1269   */\n      swap3\n      swap2\n      pop\n      pop\n      jump\t// out\n        /* \"#utility.yul\":1275:1626   */\n    tag_57:\n        /* \"#utility.yul\":1345:1351   */\n      0x00\n        /* \"#utility.yul\":1394:1396   */\n      0x20\n        /* \"#utility.yul\":1382:1391   */\n      dup3\n        /* \"#utility.yul\":1373:1380   */\n      dup5\n        /* \"#utility.yul\":1369:1392   */\n      sub\n        /* \"#utility.yul\":1365:1397   */\n      slt\n        /* \"#utility.yul\":1362:1481   */\n      iszero\n      tag_102\n      jumpi\n        /* \"#utility.yul\":1400:1479   */\n      tag_103\n      tag_95\n      jump\t// in\n    tag_103:\n        /* \"#utility.yul\":1362:1481   */\n    tag_102:\n        /* \"#utility.yul\":1520:1521   */\n      0x00\n        /* \"#utility.yul\":1545:1609   */\n      tag_104\n        /* \"#utility.yul\":1601:1608   */\n      dup5\n        /* \"#utility.yul\":1592:1598   */\n      dup3\n        /* \"#utility.yul\":1581:1590   */\n      dup6\n        /* \"#utility.yul\":1577:1599   */\n      add\n        /* \"#utility.yul\":1545:1609   */\n      tag_89\n      jump\t// in\n    tag_104:\n        /* \"#utility.yul\":1535:1609   */\n      swap2\n      pop\n        /* \"#utility.yul\":1491:1619   */\n      pop\n        /* \"#utility.yul\":1275:1626   */\n      swap3\n      swap2\n      pop\n      pop\n      jump\t// out\n        /* \"#utility.yul\":1632:2106   */\n    tag_15:\n        /* \"#utility.yul\":1700:1706   */\n      0x00\n        /* \"#utility.yul\":1708:1714   */\n      dup1\n        /* \"#utility.yul\":1757:1759   */\n      0x40\n        /* \"#utility.yul\":1745:1754   */\n      dup4\n        /* \"#utility.yul\":1736:1743   */\n      dup6\n        /* \"#utility.yul\":1732:1755   */\n      sub\n        /* \"#utility.yul\":1728:1760   */\n      slt\n        /* \"#utility.yul\":1725:1844   */\n      iszero\n      tag_106\n      jumpi\n        /* \"#utility.yul\":1763:1842   */\n      tag_107\n      tag_95\n      jump\t// in\n    tag_107:\n        /* \"#utility.yul\":1725:1844   */\n    tag_106:\n        /* \"#utility.yul\":1883:1884   */\n      0x00\n        /* \"#utility.yul\":1908:1961   */\n      tag_108\n        /* \"#utility.yul\":1953:1960   */\n      dup6\n        /* \"#utility.yul\":1944:1950   */\n      dup3\n        /* \"#utility.yul\":1933:1942   */\n      dup7\n        /* \"#utility.yul\":1929:1951   */\n      add\n        /* \"#utility.yul\":1908:1961   */\n      tag_85\n      jump\t// in\n    tag_108:\n        /* \"#utility.yul\":1898:1961   */\n      swap3\n      pop\n        /* \"#utility.yul\":1854:1971   */\n      pop\n        /* \"#utility.yul\":2010:2012   */\n      0x20\n        /* \"#utility.yul\":2036:2089   */\n      tag_109\n        /* \"#utility.yul\":2081:2088   */\n      dup6\n        /* \"#utility.yul\":2072:2078   */\n      dup3\n        /* \"#utility.yul\":2061:2070   */\n      dup7\n        /* \"#utility.yul\":2057:2079   */\n      add\n        /* \"#utility.yul\":2036:2089   */\n      tag_77\n      jump\t// in\n    tag_109:\n        /* \"#utility.yul\":2026:2089   */\n      swap2\n      pop\n        /* \"#utility.yul\":1981:2099   */\n      pop\n        /* \"#utility.yul\":1632:2106   */\n      swap3\n      pop\n      swap3\n      swap1\n      pop\n      jump\t// out\n        /* \"#utility.yul\":2112:2230   */\n    tag_110:\n        /* \"#utility.yul\":2199:2223   */\n      tag_112\n        /* \"#utility.yul\":2217:2222   */\n      dup2\n        /* \"#utility.yul\":2199:2223   */\n      tag_113\n      jump\t// in\n    tag_112:\n        /* \"#utility.yul\":2194:2197   */\n      dup3\n        /* \"#utility.yul\":2187:2224   */\n      mstore\n        /* \"#utility.yul\":2112:2230   */\n      pop\n      pop\n      jump\t// out\n        /* \"#utility.yul\":2236:2602   */\n    tag_114:\n        /* \"#utility.yul\":2378:2381   */\n      0x00\n        /* \"#utility.yul\":2399:2466   */\n      tag_116\n        /* \"#utility.yul\":2463:2465   */\n      0x14\n        /* \"#utility.yul\":2458:2461   */\n      dup4\n        /* \"#utility.yul\":2399:2466   */\n      tag_117\n      jump\t// in\n    tag_116:\n        /* \"#utility.yul\":2392:2466   */\n      swap2\n      pop\n        /* \"#utility.yul\":2475:2568   */\n      tag_118\n        /* \"#utility.yul\":2564:2567   */\n      dup3\n        /* \"#utility.yul\":2475:2568   */\n      tag_119\n      jump\t// in\n    tag_118:\n        /* \"#utility.yul\":2593:2595   */\n      0x20\n        /* \"#utility.yul\":2588:2591   */\n      dup3\n        /* \"#utility.yul\":2584:2596   */\n      add\n        /* \"#utility.yul\":2577:2596   */\n      swap1\n      pop\n        /* \"#utility.yul\":2236:2602   */\n      swap2\n      swap1\n      pop\n      jump\t// out\n        /* \"#utility.yul\":2608:2974   */\n    tag_120:\n        /* \"#utility.yul\":2750:2753   */\n      0x00\n        /* \"#utility.yul\":2771:2838   */\n      tag_122\n        /* \"#utility.yul\":2835:2837   */\n      0x14\n        /* \"#utility.yul\":2830:2833   */\n      dup4\n        /* \"#utility.yul\":2771:2838   */\n      tag_117\n      jump\t// in\n    tag_122:\n        /* \"#utility.yul\":2764:2838   */\n      swap2\n      pop\n        /* \"#utility.yul\":2847:2940   */\n      tag_123\n        /* \"#utility.yul\":2936:2939   */\n      dup3\n        /* \"#utility.yul\":2847:2940   */\n      tag_124\n      jump\t// in\n    tag_123:\n        /* \"#utility.yul\":2965:2967   */\n      0x20\n        /* \"#utility.yul\":2960:2963   */\n      dup3\n        /* \"#utility.yul\":2956:2968   */\n      add\n        /* \"#utility.yul\":2949:2968   */\n      swap1\n      pop\n        /* \"#utility.yul\":2608:2974   */\n      swap2\n      swap1\n      pop\n      jump\t// out\n        /* \"#utility.yul\":2980:3346   */\n    tag_125:\n        /* \"#utility.yul\":3122:3125   */\n      0x00\n        /* \"#utility.yul\":3143:3210   */\n      tag_127\n        /* \"#utility.yul\":3207:3209   */\n      0x24\n        /* \"#utility.yul\":3202:3205   */\n      dup4\n        /* \"#utility.yul\":3143:3210   */\n      tag_117\n      jump\t// in\n    tag_127:\n        /* \"#utility.yul\":3136:3210   */\n      swap2\n      pop\n        /* \"#utility.yul\":3219:3312   */\n      tag_128\n        /* \"#utility.yul\":3308:3311   */\n      dup3\n        /* \"#utility.yul\":3219:3312   */\n      tag_129\n      jump\t// in\n    tag_128:\n        /* \"#utility.yul\":3337:3339   */\n      0x40\n        /* \"#utility.yul\":3332:3335   */\n      dup3\n        /* \"#utility.yul\":3328:3340   */\n      add\n        /* \"#utility.yul\":3321:3340   */\n      swap1\n      pop\n        /* \"#utility.yul\":2980:3346   */\n      swap2\n      swap1\n      pop\n      jump\t// out\n        /* \"#utility.yul\":3352:3750   */\n    tag_130:\n        /* \"#utility.yul\":3511:3514   */\n      0x00\n        /* \"#utility.yul\":3532:3615   */\n      tag_132\n        /* \"#utility.yul\":3613:3614   */\n      0x00\n        /* \"#utility.yul\":3608:3611   */\n      dup4\n        /* \"#utility.yul\":3532:3615   */\n      tag_133\n      jump\t// in\n    tag_132:\n        /* \"#utility.yul\":3525:3615   */\n      swap2\n      pop\n        /* \"#utility.yul\":3624:3717   */\n      tag_134\n        /* \"#utility.yul\":3713:3716   */\n      dup3\n        /* \"#utility.yul\":3624:3717   */\n      tag_135\n      jump\t// in\n    tag_134:\n        /* \"#utility.yul\":3742:3743   */\n      0x00\n        /* \"#utility.yul\":3737:3740   */\n      dup3\n        /* \"#utility.yul\":3733:3744   */\n      add\n        /* \"#utility.yul\":3726:3744   */\n      swap1\n      pop\n        /* \"#utility.yul\":3352:3750   */\n      swap2\n      swap1\n      pop\n      jump\t// out\n        /* \"#utility.yul\":3756:4122   */\n    tag_136:\n        /* \"#utility.yul\":3898:3901   */\n      0x00\n        /* \"#utility.yul\":3919:3986   */\n      tag_138\n        /* \"#utility.yul\":3983:3985   */\n      0x1f\n        /* \"#utility.yul\":3978:3981   */\n      dup4\n        /* \"#utility.yul\":3919:3986   */\n      tag_117\n      jump\t// in\n    tag_138:\n        /* \"#utility.yul\":3912:3986   */\n      swap2\n      pop\n        /* \"#utility.yul\":3995:4088   */\n      tag_139\n        /* \"#utility.yul\":4084:4087   */\n      dup3\n        /* \"#utility.yul\":3995:4088   */\n      tag_140\n      jump\t// in\n    tag_139:\n        /* \"#utility.yul\":4113:4115   */\n      0x20\n        /* \"#utility.yul\":4108:4111   */\n      dup3\n        /* \"#utility.yul\":4104:4116   */\n      add\n        /* \"#utility.yul\":4097:4116   */\n      swap1\n      pop\n        /* \"#utility.yul\":3756:4122   */\n      swap2\n      swap1\n      pop\n      jump\t// out\n        /* \"#utility.yul\":4128:4246   */\n    tag_141:\n        /* \"#utility.yul\":4215:4239   */\n      tag_143\n        /* \"#utility.yul\":4233:4238   */\n      dup2\n        /* \"#utility.yul\":4215:4239   */\n      tag_144\n      jump\t// in\n    tag_143:\n        /* \"#utility.yul\":4210:4213   */\n      dup3\n        /* \"#utility.yul\":4203:4240   */\n      mstore\n        /* \"#utility.yul\":4128:4246   */\n      pop\n      pop\n      jump\t// out\n        /* \"#utility.yul\":4252:4631   */\n    tag_44:\n        /* \"#utility.yul\":4436:4439   */\n      0x00\n        /* \"#utility.yul\":4458:4605   */\n      tag_146\n        /* \"#utility.yul\":4601:4604   */\n      dup3\n        /* \"#utility.yul\":4458:4605   */\n      tag_130\n      jump\t// in\n    tag_146:\n        /* \"#utility.yul\":4451:4605   */\n      swap2\n      pop\n        /* \"#utility.yul\":4622:4625   */\n      dup2\n        /* \"#utility.yul\":4615:4625   */\n      swap1\n      pop\n        /* \"#utility.yul\":4252:4631   */\n      swap2\n      swap1\n      pop\n      jump\t// out\n        /* \"#utility.yul\":4637:4859   */\n    tag_12:\n        /* \"#utility.yul\":4730:4734   */\n      0x00\n        /* \"#utility.yul\":4768:4770   */\n      0x20\n        /* \"#utility.yul\":4757:4766   */\n      dup3\n        /* \"#utility.yul\":4753:4771   */\n      add\n        /* \"#utility.yul\":4745:4771   */\n      swap1\n      pop\n        /* \"#utility.yul\":4781:4852   */\n      tag_148\n        /* \"#utility.yul\":4849:4850   */\n      0x00\n        /* \"#utility.yul\":4838:4847   */\n      dup4\n        /* \"#utility.yul\":4834:4851   */\n      add\n        /* \"#utility.yul\":4825:4831   */\n      dup5\n        /* \"#utility.yul\":4781:4852   */\n      tag_110\n      jump\t// in\n    tag_148:\n        /* \"#utility.yul\":4637:4859   */\n      swap3\n      swap2\n      pop\n      pop\n      jump\t// out\n        /* \"#utility.yul\":4865:5197   */\n    tag_70:\n        /* \"#utility.yul\":4986:4990   */\n      0x00\n        /* \"#utility.yul\":5024:5026   */\n      0x40\n        /* \"#utility.yul\":5013:5022   */\n      dup3\n        /* \"#utility.yul\":5009:5027   */\n      add\n        /* \"#utility.yul\":5001:5027   */\n      swap1\n      pop\n        /* \"#utility.yul\":5037:5108   */\n      tag_150\n        /* \"#utility.yul\":5105:5106   */\n      0x00\n        /* \"#utility.yul\":5094:5103   */\n      dup4\n        /* \"#utility.yul\":5090:5107   */\n      add\n        /* \"#utility.yul\":5081:5087   */\n      dup6\n        /* \"#utility.yul\":5037:5108   */\n      tag_110\n      jump\t// in\n    tag_150:\n        /* \"#utility.yul\":5118:5190   */\n      tag_151\n        /* \"#utility.yul\":5186:5188   */\n      0x20\n        /* \"#utility.yul\":5175:5184   */\n      dup4\n        /* \"#utility.yul\":5171:5189   */\n      add\n        /* \"#utility.yul\":5162:5168   */\n      dup5\n        /* \"#utility.yul\":5118:5190   */\n      tag_141\n      jump\t// in\n    tag_151:\n        /* \"#utility.yul\":4865:5197   */\n      swap4\n      swap3\n      pop\n      pop\n      pop\n      jump\t// out\n        /* \"#utility.yul\":5203:5622   */\n    tag_50:\n        /* \"#utility.yul\":5369:5373   */\n      0x00\n        /* \"#utility.yul\":5407:5409   */\n      0x20\n        /* \"#utility.yul\":5396:5405   */\n      dup3\n        /* \"#utility.yul\":5392:5410   */\n      add\n        /* \"#utility.yul\":5384:5410   */\n      swap1\n      pop\n        /* \"#utility.yul\":5456:5465   */\n      dup2\n        /* \"#utility.yul\":5450:5454   */\n      dup2\n        /* \"#utility.yul\":5446:5466   */\n      sub\n        /* \"#utility.yul\":5442:5443   */\n      0x00\n        /* \"#utility.yul\":5431:5440   */\n      dup4\n        /* \"#utility.yul\":5427:5444   */\n      add\n        /* \"#utility.yul\":5420:5467   */\n      mstore\n        /* \"#utility.yul\":5484:5615   */\n      tag_153\n        /* \"#utility.yul\":5610:5614   */\n      dup2\n        /* \"#utility.yul\":5484:5615   */\n      tag_114\n      jump\t// in\n    tag_153:\n        /* \"#utility.yul\":5476:5615   */\n      swap1\n      pop\n        /* \"#utility.yul\":5203:5622   */\n      swap2\n      swap1\n      pop\n      jump\t// out\n        /* \"#utility.yul\":5628:6047   */\n    tag_60:\n        /* \"#utility.yul\":5794:5798   */\n      0x00\n        /* \"#utility.yul\":5832:5834   */\n      0x20\n        /* \"#utility.yul\":5821:5830   */\n      dup3\n        /* \"#utility.yul\":5817:5835   */\n      add\n        /* \"#utility.yul\":5809:5835   */\n      swap1\n      pop\n        /* \"#utility.yul\":5881:5890   */\n      dup2\n        /* \"#utility.yul\":5875:5879   */\n      dup2\n        /* \"#utility.yul\":5871:5891   */\n      sub\n        /* \"#utility.yul\":5867:5868   */\n      0x00\n        /* \"#utility.yul\":5856:5865   */\n      dup4\n        /* \"#utility.yul\":5852:5869   */\n      add\n        /* \"#utility.yul\":5845:5892   */\n      mstore\n        /* \"#utility.yul\":5909:6040   */\n      tag_155\n        /* \"#utility.yul\":6035:6039   */\n      dup2\n        /* \"#utility.yul\":5909:6040   */\n      tag_120\n      jump\t// in\n    tag_155:\n        /* \"#utility.yul\":5901:6040   */\n      swap1\n      pop\n        /* \"#utility.yul\":5628:6047   */\n      swap2\n      swap1\n      pop\n      jump\t// out\n        /* \"#utility.yul\":6053:6472   */\n    tag_42:\n        /* \"#utility.yul\":6219:6223   */\n      0x00\n        /* \"#utility.yul\":6257:6259   */\n      0x20\n        /* \"#utility.yul\":6246:6255   */\n      dup3\n        /* \"#utility.yul\":6242:6260   */\n      add\n        /* \"#utility.yul\":6234:6260   */\n      swap1\n      pop\n        /* \"#utility.yul\":6306:6315   */\n      dup2\n        /* \"#utility.yul\":6300:6304   */\n      dup2\n        /* \"#utility.yul\":6296:6316   */\n      sub\n        /* \"#utility.yul\":6292:6293   */\n      0x00\n        /* \"#utility.yul\":6281:6290   */\n      dup4\n        /* \"#utility.yul\":6277:6294   */\n      add\n        /* \"#utility.yul\":6270:6317   */\n      mstore\n        /* \"#utility.yul\":6334:6465   */\n      tag_157\n        /* \"#utility.yul\":6460:6464   */\n      dup2\n        /* \"#utility.yul\":6334:6465   */\n      tag_125\n      jump\t// in\n    tag_157:\n        /* \"#utility.yul\":6326:6465   */\n      swap1\n      pop\n        /* \"#utility.yul\":6053:6472   */\n      swap2\n      swap1\n      pop\n      jump\t// out\n        /* \"#utility.yul\":6478:6897   */\n    tag_33:\n        /* \"#utility.yul\":6644:6648   */\n      0x00\n        /* \"#utility.yul\":6682:6684   */\n      0x20\n        /* \"#utility.yul\":6671:6680   */\n      dup3\n        /* \"#utility.yul\":6667:6685   */\n      add\n        /* \"#utility.yul\":6659:6685   */\n      swap1\n      pop\n        /* \"#utility.yul\":6731:6740   */\n      dup2\n        /* \"#utility.yul\":6725:6729   */\n      dup2\n        /* \"#utility.yul\":6721:6741   */\n      sub\n        /* \"#utility.yul\":6717:6718   */\n      0x00\n        /* \"#utility.yul\":6706:6715   */\n      dup4\n        /* \"#utility.yul\":6702:6719   */\n      add\n        /* \"#utility.yul\":6695:6742   */\n      mstore\n        /* \"#utility.yul\":6759:6890   */\n      tag_159\n        /* \"#utility.yul\":6885:6889   */\n      dup2\n        /* \"#utility.yul\":6759:6890   */\n      tag_136\n      jump\t// in\n    tag_159:\n        /* \"#utility.yul\":6751:6890   */\n      swap1\n      pop\n        /* \"#utility.yul\":6478:6897   */\n      swap2\n      swap1\n      pop\n      jump\t// out\n        /* \"#utility.yul\":6984:7131   */\n    tag_133:\n        /* \"#utility.yul\":7085:7096   */\n      0x00\n        /* \"#utility.yul\":7122:7125   */\n      dup2\n        /* \"#utility.yul\":7107:7125   */\n      swap1\n      pop\n        /* \"#utility.yul\":6984:7131   */\n      swap3\n      swap2\n      pop\n      pop\n      jump\t// out\n        /* \"#utility.yul\":7137:7306   */\n    tag_117:\n        /* \"#utility.yul\":7221:7232   */\n      0x00\n        /* \"#utility.yul\":7255:7261   */\n      dup3\n        /* \"#utility.yul\":7250:7253   */\n      dup3\n        /* \"#utility.yul\":7243:7262   */\n      mstore\n        /* \"#utility.yul\":7295:7299   */\n      0x20\n        /* \"#utility.yul\":7290:7293   */\n      dup3\n        /* \"#utility.yul\":7286:7300   */\n      add\n        /* \"#utility.yul\":7271:7300   */\n      swap1\n      pop\n        /* \"#utility.yul\":7137:7306   */\n      swap3\n      swap2\n      pop\n      pop\n      jump\t// out\n        /* \"#utility.yul\":7312:7497   */\n    tag_66:\n        /* \"#utility.yul\":7352:7353   */\n      0x00\n        /* \"#utility.yul\":7369:7389   */\n      tag_165\n        /* \"#utility.yul\":7387:7388   */\n      dup3\n        /* \"#utility.yul\":7369:7389   */\n      tag_144\n      jump\t// in\n    tag_165:\n        /* \"#utility.yul\":7364:7389   */\n      swap2\n      pop\n        /* \"#utility.yul\":7403:7423   */\n      tag_166\n        /* \"#utility.yul\":7421:7422   */\n      dup4\n        /* \"#utility.yul\":7403:7423   */\n      tag_144\n      jump\t// in\n    tag_166:\n        /* \"#utility.yul\":7398:7423   */\n      swap3\n      pop\n        /* \"#utility.yul\":7442:7443   */\n      dup3\n        /* \"#utility.yul\":7432:7467   */\n      tag_167\n      jumpi\n        /* \"#utility.yul\":7447:7465   */\n      tag_168\n      tag_169\n      jump\t// in\n    tag_168:\n        /* \"#utility.yul\":7432:7467   */\n    tag_167:\n        /* \"#utility.yul\":7489:7490   */\n      dup3\n        /* \"#utility.yul\":7486:7487   */\n      dup3\n        /* \"#utility.yul\":7482:7491   */\n      div\n        /* \"#utility.yul\":7477:7491   */\n      swap1\n      pop\n        /* \"#utility.yul\":7312:7497   */\n      swap3\n      swap2\n      pop\n      pop\n      jump\t// out\n        /* \"#utility.yul\":7503:7851   */\n    tag_68:\n        /* \"#utility.yul\":7543:7550   */\n      0x00\n        /* \"#utility.yul\":7566:7586   */\n      tag_171\n        /* \"#utility.yul\":7584:7585   */\n      dup3\n        /* \"#utility.yul\":7566:7586   */\n      tag_144\n      jump\t// in\n    tag_171:\n        /* \"#utility.yul\":7561:7586   */\n      swap2\n      pop\n        /* \"#utility.yul\":7600:7620   */\n      tag_172\n        /* \"#utility.yul\":7618:7619   */\n      dup4\n        /* \"#utility.yul\":7600:7620   */\n      tag_144\n      jump\t// in\n    tag_172:\n        /* \"#utility.yul\":7595:7620   */\n      swap3\n      pop\n        /* \"#utility.yul\":7788:7789   */\n      dup2\n        /* \"#utility.yul\":7720:7786   */\n      0xffffffffffffffffffffffffffffffffffffffffffffffffffffffffffffffff\n        /* \"#utility.yul\":7716:7790   */\n      div\n        /* \"#utility.yul\":7713:7714   */\n      dup4\n        /* \"#utility.yul\":7710:7791   */\n      gt\n        /* \"#utility.yul\":7705:7706   */\n      dup3\n        /* \"#utility.yul\":7698:7707   */\n      iszero\n        /* \"#utility.yul\":7691:7708   */\n      iszero\n        /* \"#utility.yul\":7687:7792   */\n      and\n        /* \"#utility.yul\":7684:7815   */\n      iszero\n      tag_173\n      jumpi\n        /* \"#utility.yul\":7795:7813   */\n      tag_174\n      tag_175\n      jump\t// in\n    tag_174:\n        /* \"#utility.yul\":7684:7815   */\n    tag_173:\n        /* \"#utility.yul\":7843:7844   */\n      dup3\n        /* \"#utility.yul\":7840:7841   */\n      dup3\n        /* \"#utility.yul\":7836:7845   */\n      mul\n        /* \"#utility.yul\":7825:7845   */\n      swap1\n      pop\n        /* \"#utility.yul\":7503:7851   */\n      swap3\n      swap2\n      pop\n      pop\n      jump\t// out\n        /* \"#utility.yul\":7857:7953   */\n    tag_113:\n        /* \"#utility.yul\":7894:7901   */\n      0x00\n        /* \"#utility.yul\":7923:7947   */\n      tag_177\n        /* \"#utility.yul\":7941:7946   */\n      dup3\n        /* \"#utility.yul\":7923:7947   */\n      tag_178\n      jump\t// in\n    tag_177:\n        /* \"#utility.yul\":7912:7947   */\n      swap1\n      pop\n        /* \"#utility.yul\":7857:7953   */\n      swap2\n      swap1\n      pop\n      jump\t// out\n        /* \"#utility.yul\":7959:8049   */\n    tag_179:\n        /* \"#utility.yul\":7993:8000   */\n      0x00\n        /* \"#utility.yul\":8036:8041   */\n      dup2\n        /* \"#utility.yul\":8029:8042   */\n      iszero\n        /* \"#utility.yul\":8022:8043   */\n      iszero\n        /* \"#utility.yul\":8011:8043   */\n      swap1\n      pop\n        /* \"#utility.yul\":7959:8049   */\n      swap2\n      swap1\n      pop\n      jump\t// out\n        /* \"#utility.yul\":8055:8181   */\n    tag_178:\n        /* \"#utility.yul\":8092:8099   */\n      0x00\n        /* \"#utility.yul\":8132:8174   */\n      0xffffffffffffffffffffffffffffffffffffffff\n        /* \"#utility.yul\":8125:8130   */\n      dup3\n        /* \"#utility.yul\":8121:8175   */\n      and\n        /* \"#utility.yul\":8110:8175   */\n      swap1\n      pop\n        /* \"#utility.yul\":8055:8181   */\n      swap2\n      swap1\n      pop\n      jump\t// out\n        /* \"#utility.yul\":8187:8264   */\n    tag_144:\n        /* \"#utility.yul\":8224:8231   */\n      0x00\n        /* \"#utility.yul\":8253:8258   */\n      dup2\n        /* \"#utility.yul\":8242:8258   */\n      swap1\n      pop\n        /* \"#utility.yul\":8187:8264   */\n      swap2\n      swap1\n      pop\n      jump\t// out\n        /* \"#utility.yul\":8270:8450   */\n    tag_175:\n        /* \"#utility.yul\":8318:8395   */\n      0x4e487b7100000000000000000000000000000000000000000000000000000000\n        /* \"#utility.yul\":8315:8316   */\n      0x00\n        /* \"#utility.yul\":8308:8396   */\n      mstore\n        /* \"#utility.yul\":8415:8419   */\n      0x11\n        /* \"#utility.yul\":8412:8413   */\n      0x04\n        /* \"#utility.yul\":8405:8420   */\n      mstore\n        /* \"#utility.yul\":8439:8443   */\n      0x24\n        /* \"#utility.yul\":8436:8437   */\n      0x00\n        /* \"#utility.yul\":8429:8444   */\n      revert\n        /* \"#utility.yul\":8456:8636   */\n    tag_169:\n        /* \"#utility.yul\":8504:8581   */\n      0x4e487b7100000000000000000000000000000000000000000000000000000000\n        /* \"#utility.yul\":8501:8502   */\n      0x00\n        /* \"#utility.yul\":8494:8582   */\n      mstore\n        /* \"#utility.yul\":8601:8605   */\n      0x12\n        /* \"#utility.yul\":8598:8599   */\n      0x04\n        /* \"#utility.yul\":8591:8606   */\n      mstore\n        /* \"#utility.yul\":8625:8629   */\n      0x24\n        /* \"#utility.yul\":8622:8623   */\n      0x00\n        /* \"#utility.yul\":8615:8630   */\n      revert\n        /* \"#utility.yul\":8765:8882   */\n    tag_95:\n        /* \"#utility.yul\":8874:8875   */\n      0x00\n        /* \"#utility.yul\":8871:8872   */\n      dup1\n        /* \"#utility.yul\":8864:8876   */\n      revert\n        /* \"#utility.yul\":8888:9058   */\n    tag_119:\n        /* \"#utility.yul\":9028:9050   */\n      0x4661696c656420746f2053656e64204574686572000000000000000000000000\n        /* \"#utility.yul\":9024:9025   */\n      0x00\n        /* \"#utility.yul\":9016:9022   */\n      dup3\n        /* \"#utility.yul\":9012:9026   */\n      add\n        /* \"#utility.yul\":9005:9051   */\n      mstore\n        /* \"#utility.yul\":8888:9058   */\n      pop\n      jump\t// out\n        /* \"#utility.yul\":9064:9234   */\n    tag_124:\n        /* \"#utility.yul\":9204:9226   */\n      0x557365722062616c616e636520746f6f206c6f77000000000000000000000000\n        /* \"#utility.yul\":9200:9201   */\n      0x00\n        /* \"#utility.yul\":9192:9198   */\n      dup3\n        /* \"#utility.yul\":9188:9202   */\n      add\n        /* \"#utility.yul\":9181:9227   */\n      mstore\n        /* \"#utility.yul\":9064:9234   */\n      pop\n      jump\t// out\n        /* \"#utility.yul\":9240:9463   */\n    tag_129:\n        /* \"#utility.yul\":9380:9414   */\n      0x4f6e6c792061646d696e2063616e2073656e64206d6f6e657920746f206e6577\n        /* \"#utility.yul\":9376:9377   */\n      0x00\n        /* \"#utility.yul\":9368:9374   */\n      dup3\n        /* \"#utility.yul\":9364:9378   */\n      add\n        /* \"#utility.yul\":9357:9415   */\n      mstore\n        /* \"#utility.yul\":9449:9455   */\n      0x2044414f00000000000000000000000000000000000000000000000000000000\n        /* \"#utility.yul\":9444:9446   */\n      0x20\n        /* \"#utility.yul\":9436:9442   */\n      dup3\n        /* \"#utility.yul\":9432:9447   */\n      add\n        /* \"#utility.yul\":9425:9456   */\n      mstore\n        /* \"#utility.yul\":9240:9463   */\n      pop\n      jump\t// out\n        /* \"#utility.yul\":9469:9583   */\n    tag_135:\n      pop\n      jump\t// out\n        /* \"#utility.yul\":9589:9770   */\n    tag_140:\n        /* \"#utility.yul\":9729:9762   */\n      0x4f6e6c7920636f6d70616e792063616e206368616e6765206164647265737300\n        /* \"#utility.yul\":9725:9726   */\n      0x00\n        /* \"#utility.yul\":9717:9723   */\n      dup3\n        /* \"#utility.yul\":9713:9727   */\n      add\n        /* \"#utility.yul\":9706:9763   */\n      mstore\n        /* \"#utility.yul\":9589:9770   */\n      pop\n      jump\t// out\n        /* \"#utility.yul\":9776:9898   */\n    tag_80:\n        /* \"#utility.yul\":9849:9873   */\n      tag_194\n        /* \"#utility.yul\":9867:9872   */\n      dup2\n        /* \"#utility.yul\":9849:9873   */\n      tag_113\n      jump\t// in\n    tag_194:\n        /* \"#utility.yul\":9842:9847   */\n      dup2\n        /* \"#utility.yul\":9839:9874   */\n      eq\n        /* \"#utility.yul\":9829:9892   */\n      tag_195\n      jumpi\n        /* \"#utility.yul\":9888:9889   */\n      0x00\n        /* \"#utility.yul\":9885:9886   */\n      dup1\n        /* \"#utility.yul\":9878:9890   */\n      revert\n        /* \"#utility.yul\":9829:9892   */\n    tag_195:\n        /* \"#utility.yul\":9776:9898   */\n      pop\n      jump\t// out\n        /* \"#utility.yul\":9904:10020   */\n    tag_84:\n        /* \"#utility.yul\":9974:9995   */\n      tag_197\n        /* \"#utility.yul\":9989:9994   */\n      dup2\n        /* \"#utility.yul\":9974:9995   */\n      tag_179\n      jump\t// in\n    tag_197:\n        /* \"#utility.yul\":9967:9972   */\n      dup2\n        /* \"#utility.yul\":9964:9996   */\n      eq\n        /* \"#utility.yul\":9954:10014   */\n      tag_198\n      jumpi\n        /* \"#utility.yul\":10010:10011   */\n      0x00\n        /* \"#utility.yul\":10007:10008   */\n      dup1\n        /* \"#utility.yul\":10000:10012   */\n      revert\n        /* \"#utility.yul\":9954:10014   */\n    tag_198:\n        /* \"#utility.yul\":9904:10020   */\n      pop\n      jump\t// out\n        /* \"#utility.yul\":10026:10148   */\n    tag_88:\n        /* \"#utility.yul\":10099:10123   */\n      tag_200\n        /* \"#utility.yul\":10117:10122   */\n      dup2\n        /* \"#utility.yul\":10099:10123   */\n      tag_144\n      jump\t// in\n    tag_200:\n        /* \"#utility.yul\":10092:10097   */\n      dup2\n        /* \"#utility.yul\":10089:10124   */\n      eq\n        /* \"#utility.yul\":10079:10142   */\n      tag_201\n      jumpi\n        /* \"#utility.yul\":10138:10139   */\n      0x00\n        /* \"#utility.yul\":10135:10136   */\n      dup1\n        /* \"#utility.yul\":10128:10140   */\n      revert\n        /* \"#utility.yul\":10079:10142   */\n    tag_201:\n        /* \"#utility.yul\":10026:10148   */\n      pop\n      jump\t// out\n\n    auxdata: 0xa26469706673582212205643b390b3aa5976a7cdef468373d86f7273340a18d7f2ac5ffe0782cfd9ee3c64736f6c63430008070033\n}\n",
				"bytecode": {
					"linkReferences": {},
					"object": "608060405234801561001057600080fd5b50604051610dc5380380610dc58339818101604052810190610032919061010f565b33600160006101000a81548173ffffffffffffffffffffffffffffffffffffffff021916908373ffffffffffffffffffffffffffffffffffffffff16021790555030600260006101000a81548173ffffffffffffffffffffffffffffffffffffffff021916908373ffffffffffffffffffffffffffffffffffffffff160217905550806000806101000a81548173ffffffffffffffffffffffffffffffffffffffff021916908373ffffffffffffffffffffffffffffffffffffffff1602179055505061018a565b60008151905061010981610173565b92915050565b6000602082840312156101255761012461016e565b5b6000610133848285016100fa565b91505092915050565b60006101478261014e565b9050919050565b600073ffffffffffffffffffffffffffffffffffffffff82169050919050565b600080fd5b61017c8161013c565b811461018757600080fd5b50565b610c2c806101996000396000f3fe608060405234801561001057600080fd5b50600436106100625760003560e01c806322a5aebf146100675780632ab29df7146100855780634162169f146100a157806369f07aa6146100bf578063db006a75146100db578063f851a440146100f7575b600080fd5b61006f610115565b60405161007c91906108ce565b60405180910390f35b61009f600480360381019061009a91906107ac565b610139565b005b6100a96102b7565b6040516100b691906108ce565b60405180910390f35b6100d960048036038101906100d49190610752565b6102dd565b005b6100f560048036038101906100f09190610752565b610442565b005b6100ff6106ab565b60405161010c91906108ce565b60405180910390f35b60008054906101000a900473ffffffffffffffffffffffffffffffffffffffff1681565b600160009054906101000a900473ffffffffffffffffffffffffffffffffffffffff1673ffffffffffffffffffffffffffffffffffffffff163373ffffffffffffffffffffffffffffffffffffffff16146101c9576040517f08c379a00000000000000000000000000000000000000000000000000000000081526004016101c090610972565b60405180910390fd5b60008214156102185780600160006101000a81548173ffffffffffffffffffffffffffffffffffffffff021916908373ffffffffffffffffffffffffffffffffffffffff1602179055506102b3565b60018214156102675780600260006101000a81548173ffffffffffffffffffffffffffffffffffffffff021916908373ffffffffffffffffffffffffffffffffffffffff1602179055506102b2565b60028214156102b157806000806101000a81548173ffffffffffffffffffffffffffffffffffffffff021916908373ffffffffffffffffffffffffffffffffffffffff1602179055505b5b5b5050565b600260009054906101000a900473ffffffffffffffffffffffffffffffffffffffff1681565b600160009054906101000a900473ffffffffffffffffffffffffffffffffffffffff1673ffffffffffffffffffffffffffffffffffffffff163373ffffffffffffffffffffffffffffffffffffffff161461036d576040517f08c379a000000000000000000000000000000000000000000000000000000000815260040161036490610952565b60405180910390fd5b600080600260009054906101000a900473ffffffffffffffffffffffffffffffffffffffff1673ffffffffffffffffffffffffffffffffffffffff16476040516103b6906108b9565b60006040518083038185875af1925050503d80600081146103f3576040519150601f19603f3d011682016040523d82523d6000602084013e6103f8565b606091505b50915091508161043d576040517f08c379a000000000000000000000000000000000000000000000000000000000815260040161043490610912565b60405180910390fd5b505050565b8060008054906101000a900473ffffffffffffffffffffffffffffffffffffffff1673ffffffffffffffffffffffffffffffffffffffff166370a08231336040518263ffffffff1660e01b815260040161049c91906108ce565b60206040518083038186803b1580156104b457600080fd5b505afa1580156104c8573d6000803e3d6000fd5b505050506040513d601f19601f820116820180604052508101906104ec919061077f565b101561052d576040517f08c379a000000000000000000000000000000000000000000000000000000000815260040161052490610932565b60405180910390fd5b3373ffffffffffffffffffffffffffffffffffffffff168160008054906101000a900473ffffffffffffffffffffffffffffffffffffffff1673ffffffffffffffffffffffffffffffffffffffff166318160ddd6040518163ffffffff1660e01b815260040160206040518083038186803b1580156105ab57600080fd5b505afa1580156105bf573d6000803e3d6000fd5b505050506040513d601f19601f820116820180604052508101906105e3919061077f565b476105ee91906109ae565b6105f891906109df565b505060008054906101000a900473ffffffffffffffffffffffffffffffffffffffff1673ffffffffffffffffffffffffffffffffffffffff16639dc29fac33836040518363ffffffff1660e01b81526004016106559291906108e9565b602060405180830381600087803b15801561066f57600080fd5b505af1158015610683573d6000803e3d6000fd5b505050506040513d601f19601f820116820180604052508101906106a79190610725565b5050565b600160009054906101000a900473ffffffffffffffffffffffffffffffffffffffff1681565b6000813590506106e081610bb1565b92915050565b6000815190506106f581610bc8565b92915050565b60008135905061070a81610bdf565b92915050565b60008151905061071f81610bdf565b92915050565b60006020828403121561073b5761073a610adf565b5b6000610749848285016106e6565b91505092915050565b60006020828403121561076857610767610adf565b5b6000610776848285016106fb565b91505092915050565b60006020828403121561079557610794610adf565b5b60006107a384828501610710565b91505092915050565b600080604083850312156107c3576107c2610adf565b5b60006107d1858286016106fb565b92505060206107e2858286016106d1565b9150509250929050565b6107f581610a39565b82525050565b600061080860148361099d565b915061081382610ae4565b602082019050919050565b600061082b60148361099d565b915061083682610b0d565b602082019050919050565b600061084e60248361099d565b915061085982610b36565b604082019050919050565b6000610871600083610992565b915061087c82610b85565b600082019050919050565b6000610894601f8361099d565b915061089f82610b88565b602082019050919050565b6108b381610a77565b82525050565b60006108c482610864565b9150819050919050565b60006020820190506108e360008301846107ec565b92915050565b60006040820190506108fe60008301856107ec565b61090b60208301846108aa565b9392505050565b6000602082019050818103600083015261092b816107fb565b9050919050565b6000602082019050818103600083015261094b8161081e565b9050919050565b6000602082019050818103600083015261096b81610841565b9050919050565b6000602082019050818103600083015261098b81610887565b9050919050565b600081905092915050565b600082825260208201905092915050565b60006109b982610a77565b91506109c483610a77565b9250826109d4576109d3610ab0565b5b828204905092915050565b60006109ea82610a77565b91506109f583610a77565b9250817fffffffffffffffffffffffffffffffffffffffffffffffffffffffffffffffff0483118215151615610a2e57610a2d610a81565b5b828202905092915050565b6000610a4482610a57565b9050919050565b60008115159050919050565b600073ffffffffffffffffffffffffffffffffffffffff82169050919050565b6000819050919050565b7f4e487b7100000000000000000000000000000000000000000000000000000000600052601160045260246000fd5b7f4e487b7100000000000000000000000000000000000000000000000000000000600052601260045260246000fd5b600080fd5b7f4661696c656420746f2053656e64204574686572000000000000000000000000600082015250565b7f557365722062616c616e636520746f6f206c6f77000000000000000000000000600082015250565b7f4f6e6c792061646d696e2063616e2073656e64206d6f6e657920746f206e657760008201527f2044414f00000000000000000000000000000000000000000000000000000000602082015250565b50565b7f4f6e6c7920636f6d70616e792063616e206368616e6765206164647265737300600082015250565b610bba81610a39565b8114610bc557600080fd5b50565b610bd181610a4b565b8114610bdc57600080fd5b50565b610be881610a77565b8114610bf357600080fd5b5056fea26469706673582212205643b390b3aa5976a7cdef468373d86f7273340a18d7f2ac5ffe0782cfd9ee3c64736f6c63430008070033",
					"opcodes": "PUSH1 0x80 PUSH1 0x40 MSTORE CALLVALUE DUP1 ISZERO PUSH2 0x10 JUMPI PUSH1 0x0 DUP1 REVERT JUMPDEST POP PUSH1 0x40 MLOAD PUSH2 0xDC5 CODESIZE SUB DUP1 PUSH2 0xDC5 DUP4 CODECOPY DUP2 DUP2 ADD PUSH1 0x40 MSTORE DUP2 ADD SWAP1 PUSH2 0x32 SWAP2 SWAP1 PUSH2 0x10F JUMP JUMPDEST CALLER PUSH1 0x1 PUSH1 0x0 PUSH2 0x100 EXP DUP2 SLOAD DUP2 PUSH20 0xFFFFFFFFFFFFFFFFFFFFFFFFFFFFFFFFFFFFFFFF MUL NOT AND SWAP1 DUP4 PUSH20 0xFFFFFFFFFFFFFFFFFFFFFFFFFFFFFFFFFFFFFFFF AND MUL OR SWAP1 SSTORE POP ADDRESS PUSH1 0x2 PUSH1 0x0 PUSH2 0x100 EXP DUP2 SLOAD DUP2 PUSH20 0xFFFFFFFFFFFFFFFFFFFFFFFFFFFFFFFFFFFFFFFF MUL NOT AND SWAP1 DUP4 PUSH20 0xFFFFFFFFFFFFFFFFFFFFFFFFFFFFFFFFFFFFFFFF AND MUL OR SWAP1 SSTORE POP DUP1 PUSH1 0x0 DUP1 PUSH2 0x100 EXP DUP2 SLOAD DUP2 PUSH20 0xFFFFFFFFFFFFFFFFFFFFFFFFFFFFFFFFFFFFFFFF MUL NOT AND SWAP1 DUP4 PUSH20 0xFFFFFFFFFFFFFFFFFFFFFFFFFFFFFFFFFFFFFFFF AND MUL OR SWAP1 SSTORE POP POP PUSH2 0x18A JUMP JUMPDEST PUSH1 0x0 DUP2 MLOAD SWAP1 POP PUSH2 0x109 DUP2 PUSH2 0x173 JUMP JUMPDEST SWAP3 SWAP2 POP POP JUMP JUMPDEST PUSH1 0x0 PUSH1 0x20 DUP3 DUP5 SUB SLT ISZERO PUSH2 0x125 JUMPI PUSH2 0x124 PUSH2 0x16E JUMP JUMPDEST JUMPDEST PUSH1 0x0 PUSH2 0x133 DUP5 DUP3 DUP6 ADD PUSH2 0xFA JUMP JUMPDEST SWAP2 POP POP SWAP3 SWAP2 POP POP JUMP JUMPDEST PUSH1 0x0 PUSH2 0x147 DUP3 PUSH2 0x14E JUMP JUMPDEST SWAP1 POP SWAP2 SWAP1 POP JUMP JUMPDEST PUSH1 0x0 PUSH20 0xFFFFFFFFFFFFFFFFFFFFFFFFFFFFFFFFFFFFFFFF DUP3 AND SWAP1 POP SWAP2 SWAP1 POP JUMP JUMPDEST PUSH1 0x0 DUP1 REVERT JUMPDEST PUSH2 0x17C DUP2 PUSH2 0x13C JUMP JUMPDEST DUP2 EQ PUSH2 0x187 JUMPI PUSH1 0x0 DUP1 REVERT JUMPDEST POP JUMP JUMPDEST PUSH2 0xC2C DUP1 PUSH2 0x199 PUSH1 0x0 CODECOPY PUSH1 0x0 RETURN INVALID PUSH1 0x80 PUSH1 0x40 MSTORE CALLVALUE DUP1 ISZERO PUSH2 0x10 JUMPI PUSH1 0x0 DUP1 REVERT JUMPDEST POP PUSH1 0x4 CALLDATASIZE LT PUSH2 0x62 JUMPI PUSH1 0x0 CALLDATALOAD PUSH1 0xE0 SHR DUP1 PUSH4 0x22A5AEBF EQ PUSH2 0x67 JUMPI DUP1 PUSH4 0x2AB29DF7 EQ PUSH2 0x85 JUMPI DUP1 PUSH4 0x4162169F EQ PUSH2 0xA1 JUMPI DUP1 PUSH4 0x69F07AA6 EQ PUSH2 0xBF JUMPI DUP1 PUSH4 0xDB006A75 EQ PUSH2 0xDB JUMPI DUP1 PUSH4 0xF851A440 EQ PUSH2 0xF7 JUMPI JUMPDEST PUSH1 0x0 DUP1 REVERT JUMPDEST PUSH2 0x6F PUSH2 0x115 JUMP JUMPDEST PUSH1 0x40 MLOAD PUSH2 0x7C SWAP2 SWAP1 PUSH2 0x8CE JUMP JUMPDEST PUSH1 0x40 MLOAD DUP1 SWAP2 SUB SWAP1 RETURN JUMPDEST PUSH2 0x9F PUSH1 0x4 DUP1 CALLDATASIZE SUB DUP2 ADD SWAP1 PUSH2 0x9A SWAP2 SWAP1 PUSH2 0x7AC JUMP JUMPDEST PUSH2 0x139 JUMP JUMPDEST STOP JUMPDEST PUSH2 0xA9 PUSH2 0x2B7 JUMP JUMPDEST PUSH1 0x40 MLOAD PUSH2 0xB6 SWAP2 SWAP1 PUSH2 0x8CE JUMP JUMPDEST PUSH1 0x40 MLOAD DUP1 SWAP2 SUB SWAP1 RETURN JUMPDEST PUSH2 0xD9 PUSH1 0x4 DUP1 CALLDATASIZE SUB DUP2 ADD SWAP1 PUSH2 0xD4 SWAP2 SWAP1 PUSH2 0x752 JUMP JUMPDEST PUSH2 0x2DD JUMP JUMPDEST STOP JUMPDEST PUSH2 0xF5 PUSH1 0x4 DUP1 CALLDATASIZE SUB DUP2 ADD SWAP1 PUSH2 0xF0 SWAP2 SWAP1 PUSH2 0x752 JUMP JUMPDEST PUSH2 0x442 JUMP JUMPDEST STOP JUMPDEST PUSH2 0xFF PUSH2 0x6AB JUMP JUMPDEST PUSH1 0x40 MLOAD PUSH2 0x10C SWAP2 SWAP1 PUSH2 0x8CE JUMP JUMPDEST PUSH1 0x40 MLOAD DUP1 SWAP2 SUB SWAP1 RETURN JUMPDEST PUSH1 0x0 DUP1 SLOAD SWAP1 PUSH2 0x100 EXP SWAP1 DIV PUSH20 0xFFFFFFFFFFFFFFFFFFFFFFFFFFFFFFFFFFFFFFFF AND DUP2 JUMP JUMPDEST PUSH1 0x1 PUSH1 0x0 SWAP1 SLOAD SWAP1 PUSH2 0x100 EXP SWAP1 DIV PUSH20 0xFFFFFFFFFFFFFFFFFFFFFFFFFFFFFFFFFFFFFFFF AND PUSH20 0xFFFFFFFFFFFFFFFFFFFFFFFFFFFFFFFFFFFFFFFF AND CALLER PUSH20 0xFFFFFFFFFFFFFFFFFFFFFFFFFFFFFFFFFFFFFFFF AND EQ PUSH2 0x1C9 JUMPI PUSH1 0x40 MLOAD PUSH32 0x8C379A000000000000000000000000000000000000000000000000000000000 DUP2 MSTORE PUSH1 0x4 ADD PUSH2 0x1C0 SWAP1 PUSH2 0x972 JUMP JUMPDEST PUSH1 0x40 MLOAD DUP1 SWAP2 SUB SWAP1 REVERT JUMPDEST PUSH1 0x0 DUP3 EQ ISZERO PUSH2 0x218 JUMPI DUP1 PUSH1 0x1 PUSH1 0x0 PUSH2 0x100 EXP DUP2 SLOAD DUP2 PUSH20 0xFFFFFFFFFFFFFFFFFFFFFFFFFFFFFFFFFFFFFFFF MUL NOT AND SWAP1 DUP4 PUSH20 0xFFFFFFFFFFFFFFFFFFFFFFFFFFFFFFFFFFFFFFFF AND MUL OR SWAP1 SSTORE POP PUSH2 0x2B3 JUMP JUMPDEST PUSH1 0x1 DUP3 EQ ISZERO PUSH2 0x267 JUMPI DUP1 PUSH1 0x2 PUSH1 0x0 PUSH2 0x100 EXP DUP2 SLOAD DUP2 PUSH20 0xFFFFFFFFFFFFFFFFFFFFFFFFFFFFFFFFFFFFFFFF MUL NOT AND SWAP1 DUP4 PUSH20 0xFFFFFFFFFFFFFFFFFFFFFFFFFFFFFFFFFFFFFFFF AND MUL OR SWAP1 SSTORE POP PUSH2 0x2B2 JUMP JUMPDEST PUSH1 0x2 DUP3 EQ ISZERO PUSH2 0x2B1 JUMPI DUP1 PUSH1 0x0 DUP1 PUSH2 0x100 EXP DUP2 SLOAD DUP2 PUSH20 0xFFFFFFFFFFFFFFFFFFFFFFFFFFFFFFFFFFFFFFFF MUL NOT AND SWAP1 DUP4 PUSH20 0xFFFFFFFFFFFFFFFFFFFFFFFFFFFFFFFFFFFFFFFF AND MUL OR SWAP1 SSTORE POP JUMPDEST JUMPDEST JUMPDEST POP POP JUMP JUMPDEST PUSH1 0x2 PUSH1 0x0 SWAP1 SLOAD SWAP1 PUSH2 0x100 EXP SWAP1 DIV PUSH20 0xFFFFFFFFFFFFFFFFFFFFFFFFFFFFFFFFFFFFFFFF AND DUP2 JUMP JUMPDEST PUSH1 0x1 PUSH1 0x0 SWAP1 SLOAD SWAP1 PUSH2 0x100 EXP SWAP1 DIV PUSH20 0xFFFFFFFFFFFFFFFFFFFFFFFFFFFFFFFFFFFFFFFF AND PUSH20 0xFFFFFFFFFFFFFFFFFFFFFFFFFFFFFFFFFFFFFFFF AND CALLER PUSH20 0xFFFFFFFFFFFFFFFFFFFFFFFFFFFFFFFFFFFFFFFF AND EQ PUSH2 0x36D JUMPI PUSH1 0x40 MLOAD PUSH32 0x8C379A000000000000000000000000000000000000000000000000000000000 DUP2 MSTORE PUSH1 0x4 ADD PUSH2 0x364 SWAP1 PUSH2 0x952 JUMP JUMPDEST PUSH1 0x40 MLOAD DUP1 SWAP2 SUB SWAP1 REVERT JUMPDEST PUSH1 0x0 DUP1 PUSH1 0x2 PUSH1 0x0 SWAP1 SLOAD SWAP1 PUSH2 0x100 EXP SWAP1 DIV PUSH20 0xFFFFFFFFFFFFFFFFFFFFFFFFFFFFFFFFFFFFFFFF AND PUSH20 0xFFFFFFFFFFFFFFFFFFFFFFFFFFFFFFFFFFFFFFFF AND SELFBALANCE PUSH1 0x40 MLOAD PUSH2 0x3B6 SWAP1 PUSH2 0x8B9 JUMP JUMPDEST PUSH1 0x0 PUSH1 0x40 MLOAD DUP1 DUP4 SUB DUP2 DUP6 DUP8 GAS CALL SWAP3 POP POP POP RETURNDATASIZE DUP1 PUSH1 0x0 DUP2 EQ PUSH2 0x3F3 JUMPI PUSH1 0x40 MLOAD SWAP2 POP PUSH1 0x1F NOT PUSH1 0x3F RETURNDATASIZE ADD AND DUP3 ADD PUSH1 0x40 MSTORE RETURNDATASIZE DUP3 MSTORE RETURNDATASIZE PUSH1 0x0 PUSH1 0x20 DUP5 ADD RETURNDATACOPY PUSH2 0x3F8 JUMP JUMPDEST PUSH1 0x60 SWAP2 POP JUMPDEST POP SWAP2 POP SWAP2 POP DUP2 PUSH2 0x43D JUMPI PUSH1 0x40 MLOAD PUSH32 0x8C379A000000000000000000000000000000000000000000000000000000000 DUP2 MSTORE PUSH1 0x4 ADD PUSH2 0x434 SWAP1 PUSH2 0x912 JUMP JUMPDEST PUSH1 0x40 MLOAD DUP1 SWAP2 SUB SWAP1 REVERT JUMPDEST POP POP POP JUMP JUMPDEST DUP1 PUSH1 0x0 DUP1 SLOAD SWAP1 PUSH2 0x100 EXP SWAP1 DIV PUSH20 0xFFFFFFFFFFFFFFFFFFFFFFFFFFFFFFFFFFFFFFFF AND PUSH20 0xFFFFFFFFFFFFFFFFFFFFFFFFFFFFFFFFFFFFFFFF AND PUSH4 0x70A08231 CALLER PUSH1 0x40 MLOAD DUP3 PUSH4 0xFFFFFFFF AND PUSH1 0xE0 SHL DUP2 MSTORE PUSH1 0x4 ADD PUSH2 0x49C SWAP2 SWAP1 PUSH2 0x8CE JUMP JUMPDEST PUSH1 0x20 PUSH1 0x40 MLOAD DUP1 DUP4 SUB DUP2 DUP7 DUP1 EXTCODESIZE ISZERO DUP1 ISZERO PUSH2 0x4B4 JUMPI PUSH1 0x0 DUP1 REVERT JUMPDEST POP GAS STATICCALL ISZERO DUP1 ISZERO PUSH2 0x4C8 JUMPI RETURNDATASIZE PUSH1 0x0 DUP1 RETURNDATACOPY RETURNDATASIZE PUSH1 0x0 REVERT JUMPDEST POP POP POP POP PUSH1 0x40 MLOAD RETURNDATASIZE PUSH1 0x1F NOT PUSH1 0x1F DUP3 ADD AND DUP3 ADD DUP1 PUSH1 0x40 MSTORE POP DUP2 ADD SWAP1 PUSH2 0x4EC SWAP2 SWAP1 PUSH2 0x77F JUMP JUMPDEST LT ISZERO PUSH2 0x52D JUMPI PUSH1 0x40 MLOAD PUSH32 0x8C379A000000000000000000000000000000000000000000000000000000000 DUP2 MSTORE PUSH1 0x4 ADD PUSH2 0x524 SWAP1 PUSH2 0x932 JUMP JUMPDEST PUSH1 0x40 MLOAD DUP1 SWAP2 SUB SWAP1 REVERT JUMPDEST CALLER PUSH20 0xFFFFFFFFFFFFFFFFFFFFFFFFFFFFFFFFFFFFFFFF AND DUP2 PUSH1 0x0 DUP1 SLOAD SWAP1 PUSH2 0x100 EXP SWAP1 DIV PUSH20 0xFFFFFFFFFFFFFFFFFFFFFFFFFFFFFFFFFFFFFFFF AND PUSH20 0xFFFFFFFFFFFFFFFFFFFFFFFFFFFFFFFFFFFFFFFF AND PUSH4 0x18160DDD PUSH1 0x40 MLOAD DUP2 PUSH4 0xFFFFFFFF AND PUSH1 0xE0 SHL DUP2 MSTORE PUSH1 0x4 ADD PUSH1 0x20 PUSH1 0x40 MLOAD DUP1 DUP4 SUB DUP2 DUP7 DUP1 EXTCODESIZE ISZERO DUP1 ISZERO PUSH2 0x5AB JUMPI PUSH1 0x0 DUP1 REVERT JUMPDEST POP GAS STATICCALL ISZERO DUP1 ISZERO PUSH2 0x5BF JUMPI RETURNDATASIZE PUSH1 0x0 DUP1 RETURNDATACOPY RETURNDATASIZE PUSH1 0x0 REVERT JUMPDEST POP POP POP POP PUSH1 0x40 MLOAD RETURNDATASIZE PUSH1 0x1F NOT PUSH1 0x1F DUP3 ADD AND DUP3 ADD DUP1 PUSH1 0x40 MSTORE POP DUP2 ADD SWAP1 PUSH2 0x5E3 SWAP2 SWAP1 PUSH2 0x77F JUMP JUMPDEST SELFBALANCE PUSH2 0x5EE SWAP2 SWAP1 PUSH2 0x9AE JUMP JUMPDEST PUSH2 0x5F8 SWAP2 SWAP1 PUSH2 0x9DF JUMP JUMPDEST POP POP PUSH1 0x0 DUP1 SLOAD SWAP1 PUSH2 0x100 EXP SWAP1 DIV PUSH20 0xFFFFFFFFFFFFFFFFFFFFFFFFFFFFFFFFFFFFFFFF AND PUSH20 0xFFFFFFFFFFFFFFFFFFFFFFFFFFFFFFFFFFFFFFFF AND PUSH4 0x9DC29FAC CALLER DUP4 PUSH1 0x40 MLOAD DUP4 PUSH4 0xFFFFFFFF AND PUSH1 0xE0 SHL DUP2 MSTORE PUSH1 0x4 ADD PUSH2 0x655 SWAP3 SWAP2 SWAP1 PUSH2 0x8E9 JUMP JUMPDEST PUSH1 0x20 PUSH1 0x40 MLOAD DUP1 DUP4 SUB DUP2 PUSH1 0x0 DUP8 DUP1 EXTCODESIZE ISZERO DUP1 ISZERO PUSH2 0x66F JUMPI PUSH1 0x0 DUP1 REVERT JUMPDEST POP GAS CALL ISZERO DUP1 ISZERO PUSH2 0x683 JUMPI RETURNDATASIZE PUSH1 0x0 DUP1 RETURNDATACOPY RETURNDATASIZE PUSH1 0x0 REVERT JUMPDEST POP POP POP POP PUSH1 0x40 MLOAD RETURNDATASIZE PUSH1 0x1F NOT PUSH1 0x1F DUP3 ADD AND DUP3 ADD DUP1 PUSH1 0x40 MSTORE POP DUP2 ADD SWAP1 PUSH2 0x6A7 SWAP2 SWAP1 PUSH2 0x725 JUMP JUMPDEST POP POP JUMP JUMPDEST PUSH1 0x1 PUSH1 0x0 SWAP1 SLOAD SWAP1 PUSH2 0x100 EXP SWAP1 DIV PUSH20 0xFFFFFFFFFFFFFFFFFFFFFFFFFFFFFFFFFFFFFFFF AND DUP2 JUMP JUMPDEST PUSH1 0x0 DUP2 CALLDATALOAD SWAP1 POP PUSH2 0x6E0 DUP2 PUSH2 0xBB1 JUMP JUMPDEST SWAP3 SWAP2 POP POP JUMP JUMPDEST PUSH1 0x0 DUP2 MLOAD SWAP1 POP PUSH2 0x6F5 DUP2 PUSH2 0xBC8 JUMP JUMPDEST SWAP3 SWAP2 POP POP JUMP JUMPDEST PUSH1 0x0 DUP2 CALLDATALOAD SWAP1 POP PUSH2 0x70A DUP2 PUSH2 0xBDF JUMP JUMPDEST SWAP3 SWAP2 POP POP JUMP JUMPDEST PUSH1 0x0 DUP2 MLOAD SWAP1 POP PUSH2 0x71F DUP2 PUSH2 0xBDF JUMP JUMPDEST SWAP3 SWAP2 POP POP JUMP JUMPDEST PUSH1 0x0 PUSH1 0x20 DUP3 DUP5 SUB SLT ISZERO PUSH2 0x73B JUMPI PUSH2 0x73A PUSH2 0xADF JUMP JUMPDEST JUMPDEST PUSH1 0x0 PUSH2 0x749 DUP5 DUP3 DUP6 ADD PUSH2 0x6E6 JUMP JUMPDEST SWAP2 POP POP SWAP3 SWAP2 POP POP JUMP JUMPDEST PUSH1 0x0 PUSH1 0x20 DUP3 DUP5 SUB SLT ISZERO PUSH2 0x768 JUMPI PUSH2 0x767 PUSH2 0xADF JUMP JUMPDEST JUMPDEST PUSH1 0x0 PUSH2 0x776 DUP5 DUP3 DUP6 ADD PUSH2 0x6FB JUMP JUMPDEST SWAP2 POP POP SWAP3 SWAP2 POP POP JUMP JUMPDEST PUSH1 0x0 PUSH1 0x20 DUP3 DUP5 SUB SLT ISZERO PUSH2 0x795 JUMPI PUSH2 0x794 PUSH2 0xADF JUMP JUMPDEST JUMPDEST PUSH1 0x0 PUSH2 0x7A3 DUP5 DUP3 DUP6 ADD PUSH2 0x710 JUMP JUMPDEST SWAP2 POP POP SWAP3 SWAP2 POP POP JUMP JUMPDEST PUSH1 0x0 DUP1 PUSH1 0x40 DUP4 DUP6 SUB SLT ISZERO PUSH2 0x7C3 JUMPI PUSH2 0x7C2 PUSH2 0xADF JUMP JUMPDEST JUMPDEST PUSH1 0x0 PUSH2 0x7D1 DUP6 DUP3 DUP7 ADD PUSH2 0x6FB JUMP JUMPDEST SWAP3 POP POP PUSH1 0x20 PUSH2 0x7E2 DUP6 DUP3 DUP7 ADD PUSH2 0x6D1 JUMP JUMPDEST SWAP2 POP POP SWAP3 POP SWAP3 SWAP1 POP JUMP JUMPDEST PUSH2 0x7F5 DUP2 PUSH2 0xA39 JUMP JUMPDEST DUP3 MSTORE POP POP JUMP JUMPDEST PUSH1 0x0 PUSH2 0x808 PUSH1 0x14 DUP4 PUSH2 0x99D JUMP JUMPDEST SWAP2 POP PUSH2 0x813 DUP3 PUSH2 0xAE4 JUMP JUMPDEST PUSH1 0x20 DUP3 ADD SWAP1 POP SWAP2 SWAP1 POP JUMP JUMPDEST PUSH1 0x0 PUSH2 0x82B PUSH1 0x14 DUP4 PUSH2 0x99D JUMP JUMPDEST SWAP2 POP PUSH2 0x836 DUP3 PUSH2 0xB0D JUMP JUMPDEST PUSH1 0x20 DUP3 ADD SWAP1 POP SWAP2 SWAP1 POP JUMP JUMPDEST PUSH1 0x0 PUSH2 0x84E PUSH1 0x24 DUP4 PUSH2 0x99D JUMP JUMPDEST SWAP2 POP PUSH2 0x859 DUP3 PUSH2 0xB36 JUMP JUMPDEST PUSH1 0x40 DUP3 ADD SWAP1 POP SWAP2 SWAP1 POP JUMP JUMPDEST PUSH1 0x0 PUSH2 0x871 PUSH1 0x0 DUP4 PUSH2 0x992 JUMP JUMPDEST SWAP2 POP PUSH2 0x87C DUP3 PUSH2 0xB85 JUMP JUMPDEST PUSH1 0x0 DUP3 ADD SWAP1 POP SWAP2 SWAP1 POP JUMP JUMPDEST PUSH1 0x0 PUSH2 0x894 PUSH1 0x1F DUP4 PUSH2 0x99D JUMP JUMPDEST SWAP2 POP PUSH2 0x89F DUP3 PUSH2 0xB88 JUMP JUMPDEST PUSH1 0x20 DUP3 ADD SWAP1 POP SWAP2 SWAP1 POP JUMP JUMPDEST PUSH2 0x8B3 DUP2 PUSH2 0xA77 JUMP JUMPDEST DUP3 MSTORE POP POP JUMP JUMPDEST PUSH1 0x0 PUSH2 0x8C4 DUP3 PUSH2 0x864 JUMP JUMPDEST SWAP2 POP DUP2 SWAP1 POP SWAP2 SWAP1 POP JUMP JUMPDEST PUSH1 0x0 PUSH1 0x20 DUP3 ADD SWAP1 POP PUSH2 0x8E3 PUSH1 0x0 DUP4 ADD DUP5 PUSH2 0x7EC JUMP JUMPDEST SWAP3 SWAP2 POP POP JUMP JUMPDEST PUSH1 0x0 PUSH1 0x40 DUP3 ADD SWAP1 POP PUSH2 0x8FE PUSH1 0x0 DUP4 ADD DUP6 PUSH2 0x7EC JUMP JUMPDEST PUSH2 0x90B PUSH1 0x20 DUP4 ADD DUP5 PUSH2 0x8AA JUMP JUMPDEST SWAP4 SWAP3 POP POP POP JUMP JUMPDEST PUSH1 0x0 PUSH1 0x20 DUP3 ADD SWAP1 POP DUP2 DUP2 SUB PUSH1 0x0 DUP4 ADD MSTORE PUSH2 0x92B DUP2 PUSH2 0x7FB JUMP JUMPDEST SWAP1 POP SWAP2 SWAP1 POP JUMP JUMPDEST PUSH1 0x0 PUSH1 0x20 DUP3 ADD SWAP1 POP DUP2 DUP2 SUB PUSH1 0x0 DUP4 ADD MSTORE PUSH2 0x94B DUP2 PUSH2 0x81E JUMP JUMPDEST SWAP1 POP SWAP2 SWAP1 POP JUMP JUMPDEST PUSH1 0x0 PUSH1 0x20 DUP3 ADD SWAP1 POP DUP2 DUP2 SUB PUSH1 0x0 DUP4 ADD MSTORE PUSH2 0x96B DUP2 PUSH2 0x841 JUMP JUMPDEST SWAP1 POP SWAP2 SWAP1 POP JUMP JUMPDEST PUSH1 0x0 PUSH1 0x20 DUP3 ADD SWAP1 POP DUP2 DUP2 SUB PUSH1 0x0 DUP4 ADD MSTORE PUSH2 0x98B DUP2 PUSH2 0x887 JUMP JUMPDEST SWAP1 POP SWAP2 SWAP1 POP JUMP JUMPDEST PUSH1 0x0 DUP2 SWAP1 POP SWAP3 SWAP2 POP POP JUMP JUMPDEST PUSH1 0x0 DUP3 DUP3 MSTORE PUSH1 0x20 DUP3 ADD SWAP1 POP SWAP3 SWAP2 POP POP JUMP JUMPDEST PUSH1 0x0 PUSH2 0x9B9 DUP3 PUSH2 0xA77 JUMP JUMPDEST SWAP2 POP PUSH2 0x9C4 DUP4 PUSH2 0xA77 JUMP JUMPDEST SWAP3 POP DUP3 PUSH2 0x9D4 JUMPI PUSH2 0x9D3 PUSH2 0xAB0 JUMP JUMPDEST JUMPDEST DUP3 DUP3 DIV SWAP1 POP SWAP3 SWAP2 POP POP JUMP JUMPDEST PUSH1 0x0 PUSH2 0x9EA DUP3 PUSH2 0xA77 JUMP JUMPDEST SWAP2 POP PUSH2 0x9F5 DUP4 PUSH2 0xA77 JUMP JUMPDEST SWAP3 POP DUP2 PUSH32 0xFFFFFFFFFFFFFFFFFFFFFFFFFFFFFFFFFFFFFFFFFFFFFFFFFFFFFFFFFFFFFFFF DIV DUP4 GT DUP3 ISZERO ISZERO AND ISZERO PUSH2 0xA2E JUMPI PUSH2 0xA2D PUSH2 0xA81 JUMP JUMPDEST JUMPDEST DUP3 DUP3 MUL SWAP1 POP SWAP3 SWAP2 POP POP JUMP JUMPDEST PUSH1 0x0 PUSH2 0xA44 DUP3 PUSH2 0xA57 JUMP JUMPDEST SWAP1 POP SWAP2 SWAP1 POP JUMP JUMPDEST PUSH1 0x0 DUP2 ISZERO ISZERO SWAP1 POP SWAP2 SWAP1 POP JUMP JUMPDEST PUSH1 0x0 PUSH20 0xFFFFFFFFFFFFFFFFFFFFFFFFFFFFFFFFFFFFFFFF DUP3 AND SWAP1 POP SWAP2 SWAP1 POP JUMP JUMPDEST PUSH1 0x0 DUP2 SWAP1 POP SWAP2 SWAP1 POP JUMP JUMPDEST PUSH32 0x4E487B7100000000000000000000000000000000000000000000000000000000 PUSH1 0x0 MSTORE PUSH1 0x11 PUSH1 0x4 MSTORE PUSH1 0x24 PUSH1 0x0 REVERT JUMPDEST PUSH32 0x4E487B7100000000000000000000000000000000000000000000000000000000 PUSH1 0x0 MSTORE PUSH1 0x12 PUSH1 0x4 MSTORE PUSH1 0x24 PUSH1 0x0 REVERT JUMPDEST PUSH1 0x0 DUP1 REVERT JUMPDEST PUSH32 0x4661696C656420746F2053656E64204574686572000000000000000000000000 PUSH1 0x0 DUP3 ADD MSTORE POP JUMP JUMPDEST PUSH32 0x557365722062616C616E636520746F6F206C6F77000000000000000000000000 PUSH1 0x0 DUP3 ADD MSTORE POP JUMP JUMPDEST PUSH32 0x4F6E6C792061646D696E2063616E2073656E64206D6F6E657920746F206E6577 PUSH1 0x0 DUP3 ADD MSTORE PUSH32 0x2044414F00000000000000000000000000000000000000000000000000000000 PUSH1 0x20 DUP3 ADD MSTORE POP JUMP JUMPDEST POP JUMP JUMPDEST PUSH32 0x4F6E6C7920636F6D70616E792063616E206368616E6765206164647265737300 PUSH1 0x0 DUP3 ADD MSTORE POP JUMP JUMPDEST PUSH2 0xBBA DUP2 PUSH2 0xA39 JUMP JUMPDEST DUP2 EQ PUSH2 0xBC5 JUMPI PUSH1 0x0 DUP1 REVERT JUMPDEST POP JUMP JUMPDEST PUSH2 0xBD1 DUP2 PUSH2 0xA4B JUMP JUMPDEST DUP2 EQ PUSH2 0xBDC JUMPI PUSH1 0x0 DUP1 REVERT JUMPDEST POP JUMP JUMPDEST PUSH2 0xBE8 DUP2 PUSH2 0xA77 JUMP JUMPDEST DUP2 EQ PUSH2 0xBF3 JUMPI PUSH1 0x0 DUP1 REVERT JUMPDEST POP JUMP INVALID LOG2 PUSH5 0x6970667358 0x22 SLT KECCAK256 JUMP NUMBER 0xB3 SWAP1 0xB3 0xAA MSIZE PUSH23 0xA7CDEF468373D86F7273340A18D7F2AC5FFE0782CFD9EE EXTCODECOPY PUSH5 0x736F6C6343 STOP ADDMOD SMOD STOP CALLER "
				},
				"gasEstimates": {
					"creation": {
						"codeDepositCost": "623200",
						"executionCost": "infinite",
						"totalCost": "infinite"
					},
					"external": {
						"admin()": "2602",
						"dao()": "2536",
						"m4sToken()": "2489",
						"redeem(uint256)": "infinite",
						"transferEarnings(uint256)": "infinite",
						"updateAddress(uint256,address)": "27145"
					}
				},
				"methodIdentifiers": {
					"admin()": "f851a440",
					"dao()": "4162169f",
					"m4sToken()": "22a5aebf",
					"redeem(uint256)": "db006a75",
					"transferEarnings(uint256)": "69f07aa6",
					"updateAddress(uint256,address)": "2ab29df7"
				}
			},
			"storageLayout": {
				"storage": [
					{
						"astId": 45,
						"contract": "Meta4SwapDAO.sol:Meta4SwapDAO",
						"label": "m4sToken",
						"offset": 0,
						"slot": "0",
						"type": "t_address"
					},
					{
						"astId": 47,
						"contract": "Meta4SwapDAO.sol:Meta4SwapDAO",
						"label": "admin",
						"offset": 0,
						"slot": "1",
						"type": "t_address"
					},
					{
						"astId": 49,
						"contract": "Meta4SwapDAO.sol:Meta4SwapDAO",
						"label": "dao",
						"offset": 0,
						"slot": "2",
						"type": "t_address"
					}
				],
				"types": {
					"t_address": {
						"encoding": "inplace",
						"label": "address",
						"numberOfBytes": "20"
					}
				}
			},
			"userdoc": {
				"kind": "user",
				"methods": {},
				"version": 1
			}
		}
	}
}