{
	"Meta4Swap_flat.sol": {
		"Meta4Swap": {
			"abi": [
				{
					"inputs": [
						{
							"internalType": "address",
							"name": "_dao",
							"type": "address"
						},
						{
							"internalType": "address",
							"name": "_m4sToken",
							"type": "address"
						},
						{
							"internalType": "address",
							"name": "_priceFeed",
							"type": "address"
						}
					],
					"stateMutability": "nonpayable",
					"type": "constructor"
				},
				{
					"anonymous": false,
					"inputs": [
						{
							"indexed": false,
							"internalType": "uint256",
							"name": "orderId",
							"type": "uint256"
						}
					],
					"name": "DisputeCreated",
					"type": "event"
				},
				{
					"anonymous": false,
					"inputs": [
						{
							"indexed": false,
							"internalType": "uint256",
							"name": "orderId",
							"type": "uint256"
						}
					],
					"name": "DisputeUpdated",
					"type": "event"
				},
				{
					"anonymous": false,
					"inputs": [
						{
							"indexed": false,
							"internalType": "uint256",
							"name": "itemId",
							"type": "uint256"
						},
						{
							"indexed": false,
							"internalType": "address",
							"name": "creator",
							"type": "address"
						},
						{
							"indexed": false,
							"internalType": "string",
							"name": "metadata",
							"type": "string"
						},
						{
							"indexed": false,
							"internalType": "uint256",
							"name": "itemType",
							"type": "uint256"
						}
					],
					"name": "ItemCreated",
					"type": "event"
				},
				{
					"anonymous": false,
					"inputs": [
						{
							"indexed": false,
							"internalType": "uint256",
							"name": "itemId",
							"type": "uint256"
						}
					],
					"name": "ItemUpdated",
					"type": "event"
				},
				{
					"anonymous": false,
					"inputs": [
						{
							"indexed": false,
							"internalType": "uint256",
							"name": "itemId",
							"type": "uint256"
						},
						{
							"indexed": false,
							"internalType": "address",
							"name": "worker",
							"type": "address"
						}
					],
					"name": "OfferCreated",
					"type": "event"
				},
				{
					"anonymous": false,
					"inputs": [
						{
							"indexed": false,
							"internalType": "uint256",
							"name": "orderId",
							"type": "uint256"
						},
						{
							"indexed": false,
							"internalType": "uint256",
							"name": "itemId",
							"type": "uint256"
						},
						{
							"indexed": false,
							"internalType": "uint256",
							"name": "price",
							"type": "uint256"
						},
						{
							"indexed": false,
							"internalType": "uint256",
							"name": "serviceType",
							"type": "uint256"
						},
						{
							"indexed": false,
							"internalType": "address",
							"name": "buyer",
							"type": "address"
						},
						{
							"indexed": false,
							"internalType": "address",
							"name": "seller",
							"type": "address"
						},
						{
							"indexed": false,
							"internalType": "string",
							"name": "metadata",
							"type": "string"
						}
					],
					"name": "OrderCreated",
					"type": "event"
				},
				{
					"anonymous": false,
					"inputs": [
						{
							"indexed": false,
							"internalType": "uint256",
							"name": "orderId",
							"type": "uint256"
						}
					],
					"name": "OrderUpdated",
					"type": "event"
				},
				{
					"inputs": [
						{
							"internalType": "uint256",
							"name": "_itemId",
							"type": "uint256"
						},
						{
							"internalType": "address",
							"name": "_worker",
							"type": "address"
						}
					],
					"name": "acceptOffer",
					"outputs": [
						{
							"internalType": "uint256",
							"name": "",
							"type": "uint256"
						}
					],
					"stateMutability": "payable",
					"type": "function"
				},
				{
					"inputs": [],
					"name": "admin",
					"outputs": [
						{
							"internalType": "address",
							"name": "",
							"type": "address"
						}
					],
					"stateMutability": "view",
					"type": "function"
				},
				{
					"inputs": [
						{
							"internalType": "uint256",
							"name": "_itemId",
							"type": "uint256"
						}
					],
					"name": "buy",
					"outputs": [
						{
							"internalType": "uint256",
							"name": "",
							"type": "uint256"
						}
					],
					"stateMutability": "payable",
					"type": "function"
				},
				{
					"inputs": [],
					"name": "buyerReward",
					"outputs": [
						{
							"internalType": "uint256",
							"name": "",
							"type": "uint256"
						}
					],
					"stateMutability": "view",
					"type": "function"
				},
				{
					"inputs": [
						{
							"internalType": "uint256",
							"name": "_orderId",
							"type": "uint256"
						}
					],
					"name": "cancel",
					"outputs": [],
					"stateMutability": "nonpayable",
					"type": "function"
				},
				{
					"inputs": [
						{
							"internalType": "uint256",
							"name": "_orderId",
							"type": "uint256"
						}
					],
					"name": "complete",
					"outputs": [],
					"stateMutability": "nonpayable",
					"type": "function"
				},
				{
					"inputs": [
						{
							"internalType": "string",
							"name": "_metadata",
							"type": "string"
						},
						{
							"internalType": "bool",
							"name": "_state",
							"type": "bool"
						},
						{
							"internalType": "uint256",
							"name": "_price",
							"type": "uint256"
						},
						{
							"internalType": "uint256",
							"name": "_serviceType",
							"type": "uint256"
						}
					],
					"name": "create",
					"outputs": [
						{
							"internalType": "uint256",
							"name": "",
							"type": "uint256"
						}
					],
					"stateMutability": "nonpayable",
					"type": "function"
				},
				{
					"inputs": [],
					"name": "dao",
					"outputs": [
						{
							"internalType": "address",
							"name": "",
							"type": "address"
						}
					],
					"stateMutability": "view",
					"type": "function"
				},
				{
					"inputs": [],
					"name": "daoReward",
					"outputs": [
						{
							"internalType": "uint256",
							"name": "",
							"type": "uint256"
						}
					],
					"stateMutability": "view",
					"type": "function"
				},
				{
					"inputs": [
						{
							"internalType": "uint256",
							"name": "_orderId",
							"type": "uint256"
						}
					],
					"name": "dispute",
					"outputs": [],
					"stateMutability": "nonpayable",
					"type": "function"
				},
				{
					"inputs": [
						{
							"internalType": "uint256",
							"name": "",
							"type": "uint256"
						}
					],
					"name": "disputeInfo",
					"outputs": [
						{
							"internalType": "string",
							"name": "buyerResponse",
							"type": "string"
						},
						{
							"internalType": "string",
							"name": "sellerResponse",
							"type": "string"
						},
						{
							"internalType": "uint256",
							"name": "created",
							"type": "uint256"
						},
						{
							"internalType": "bool",
							"name": "isLive",
							"type": "bool"
						}
					],
					"stateMutability": "view",
					"type": "function"
				},
				{
					"inputs": [
						{
							"internalType": "uint256",
							"name": "_itemId",
							"type": "uint256"
						},
						{
							"internalType": "string",
							"name": "_metadata",
							"type": "string"
						}
					],
					"name": "editMetadata",
					"outputs": [],
					"stateMutability": "nonpayable",
					"type": "function"
				},
				{
					"inputs": [
						{
							"internalType": "uint256",
							"name": "_itemId",
							"type": "uint256"
						},
						{
							"internalType": "uint256",
							"name": "_value",
							"type": "uint256"
						}
					],
					"name": "editPrice",
					"outputs": [],
					"stateMutability": "nonpayable",
					"type": "function"
				},
				{
					"inputs": [
						{
							"internalType": "uint256",
							"name": "_itemId",
							"type": "uint256"
						},
						{
							"internalType": "bool",
							"name": "_isLive",
							"type": "bool"
						}
					],
					"name": "editState",
					"outputs": [],
					"stateMutability": "nonpayable",
					"type": "function"
				},
				{
					"inputs": [],
					"name": "getLatestPrice",
					"outputs": [
						{
							"internalType": "int256",
							"name": "",
							"type": "int256"
						}
					],
					"stateMutability": "view",
					"type": "function"
				},
				{
					"inputs": [],
					"name": "itemCount",
					"outputs": [
						{
							"internalType": "uint256",
							"name": "",
							"type": "uint256"
						}
					],
					"stateMutability": "view",
					"type": "function"
				},
				{
					"inputs": [
						{
							"internalType": "uint256",
							"name": "",
							"type": "uint256"
						}
					],
					"name": "itemInfo",
					"outputs": [
						{
							"internalType": "uint256",
							"name": "id",
							"type": "uint256"
						},
						{
							"internalType": "string",
							"name": "metadata",
							"type": "string"
						},
						{
							"internalType": "bool",
							"name": "isLive",
							"type": "bool"
						},
						{
							"internalType": "uint256",
							"name": "price",
							"type": "uint256"
						},
						{
							"internalType": "address",
							"name": "owner",
							"type": "address"
						},
						{
							"internalType": "uint256",
							"name": "serviceType",
							"type": "uint256"
						}
					],
					"stateMutability": "view",
					"type": "function"
				},
				{
					"inputs": [],
					"name": "m4sToken",
					"outputs": [
						{
							"internalType": "address",
							"name": "",
							"type": "address"
						}
					],
					"stateMutability": "view",
					"type": "function"
				},
				{
					"inputs": [],
					"name": "marketplaceFee",
					"outputs": [
						{
							"internalType": "uint256",
							"name": "",
							"type": "uint256"
						}
					],
					"stateMutability": "view",
					"type": "function"
				},
				{
					"inputs": [],
					"name": "minFee",
					"outputs": [
						{
							"internalType": "uint256",
							"name": "",
							"type": "uint256"
						}
					],
					"stateMutability": "view",
					"type": "function"
				},
				{
					"inputs": [
						{
							"internalType": "uint256",
							"name": "_itemId",
							"type": "uint256"
						}
					],
					"name": "offer",
					"outputs": [],
					"stateMutability": "nonpayable",
					"type": "function"
				},
				{
					"inputs": [
						{
							"internalType": "address",
							"name": "",
							"type": "address"
						},
						{
							"internalType": "uint256",
							"name": "",
							"type": "uint256"
						}
					],
					"name": "offerInfo",
					"outputs": [
						{
							"internalType": "bool",
							"name": "",
							"type": "bool"
						}
					],
					"stateMutability": "view",
					"type": "function"
				},
				{
					"inputs": [],
					"name": "orderCount",
					"outputs": [
						{
							"internalType": "uint256",
							"name": "",
							"type": "uint256"
						}
					],
					"stateMutability": "view",
					"type": "function"
				},
				{
					"inputs": [
						{
							"internalType": "uint256",
							"name": "",
							"type": "uint256"
						}
					],
					"name": "orderInfo",
					"outputs": [
						{
							"internalType": "uint256",
							"name": "id",
							"type": "uint256"
						},
						{
							"internalType": "uint256",
							"name": "itemId",
							"type": "uint256"
						},
						{
							"internalType": "uint256",
							"name": "orderTotal",
							"type": "uint256"
						},
						{
							"internalType": "uint256",
							"name": "created",
							"type": "uint256"
						},
						{
							"internalType": "uint256",
							"name": "fee",
							"type": "uint256"
						},
						{
							"internalType": "uint256",
							"name": "itemPrice",
							"type": "uint256"
						},
						{
							"internalType": "uint256",
							"name": "chainLinkPrice",
							"type": "uint256"
						},
						{
							"internalType": "uint8",
							"name": "buyerState",
							"type": "uint8"
						},
						{
							"internalType": "uint8",
							"name": "sellerState",
							"type": "uint8"
						},
						{
							"internalType": "bool",
							"name": "isLive",
							"type": "bool"
						},
						{
							"internalType": "address",
							"name": "buyer",
							"type": "address"
						},
						{
							"internalType": "address",
							"name": "seller",
							"type": "address"
						}
					],
					"stateMutability": "view",
					"type": "function"
				},
				{
					"inputs": [],
					"name": "priceFeed",
					"outputs": [
						{
							"internalType": "address",
							"name": "",
							"type": "address"
						}
					],
					"stateMutability": "view",
					"type": "function"
				},
				{
					"inputs": [
						{
							"internalType": "address",
							"name": "",
							"type": "address"
						},
						{
							"internalType": "uint256",
							"name": "",
							"type": "uint256"
						}
					],
					"name": "ratingCheck",
					"outputs": [
						{
							"internalType": "bool",
							"name": "",
							"type": "bool"
						}
					],
					"stateMutability": "view",
					"type": "function"
				},
				{
					"inputs": [
						{
							"internalType": "uint256",
							"name": "_orderId",
							"type": "uint256"
						},
						{
							"internalType": "address",
							"name": "_winner",
							"type": "address"
						}
					],
					"name": "resolve",
					"outputs": [],
					"stateMutability": "nonpayable",
					"type": "function"
				},
				{
					"inputs": [],
					"name": "rewardsLive",
					"outputs": [
						{
							"internalType": "bool",
							"name": "",
							"type": "bool"
						}
					],
					"stateMutability": "view",
					"type": "function"
				},
				{
					"inputs": [],
					"name": "sellerReward",
					"outputs": [
						{
							"internalType": "uint256",
							"name": "",
							"type": "uint256"
						}
					],
					"stateMutability": "view",
					"type": "function"
				},
				{
					"inputs": [
						{
							"internalType": "uint256",
							"name": "_value",
							"type": "uint256"
						},
						{
							"internalType": "address",
							"name": "_newAddress",
							"type": "address"
						}
					],
					"name": "updateAddress",
					"outputs": [],
					"stateMutability": "nonpayable",
					"type": "function"
				},
				{
					"inputs": [
						{
							"internalType": "uint256",
							"name": "_orderId",
							"type": "uint256"
						},
						{
							"internalType": "string",
							"name": "_ipfsHash",
							"type": "string"
						}
					],
					"name": "updateDispute",
					"outputs": [],
					"stateMutability": "nonpayable",
					"type": "function"
				},
				{
					"inputs": [
						{
							"internalType": "bool",
							"name": "_state",
							"type": "bool"
						}
					],
					"name": "updateRewardsisLive",
					"outputs": [],
					"stateMutability": "nonpayable",
					"type": "function"
				},
				{
					"inputs": [
						{
							"internalType": "uint256",
							"name": "_variable",
							"type": "uint256"
						},
						{
							"internalType": "uint256",
							"name": "_value",
							"type": "uint256"
						}
					],
					"name": "updateRules",
					"outputs": [
						{
							"internalType": "bool",
							"name": "",
							"type": "bool"
						}
					],
					"stateMutability": "nonpayable",
					"type": "function"
				},
				{
					"inputs": [
						{
							"internalType": "address",
							"name": "",
							"type": "address"
						}
					],
					"name": "userProfile",
					"outputs": [
						{
							"internalType": "uint256",
							"name": "cancelled",
							"type": "uint256"
						},
						{
							"internalType": "uint256",
							"name": "completed",
							"type": "uint256"
						},
						{
							"internalType": "uint256",
							"name": "disputes",
							"type": "uint256"
						}
					],
					"stateMutability": "view",
					"type": "function"
				}
			],
			"devdoc": {
				"kind": "dev",
				"methods": {},
				"version": 1
			},
			"evm": {
				"assembly": "    /* \"Meta4Swap_flat.sol\":1204:16203  contract Meta4Swap {... */\n  mstore(0x40, 0x80)\n    /* \"Meta4Swap_flat.sol\":2994:3346  constructor(address _dao, address _m4sToken, address _priceFeed) {... */\n  callvalue\n  dup1\n  iszero\n  tag_1\n  jumpi\n  0x00\n  dup1\n  revert\ntag_1:\n  pop\n  mload(0x40)\n  sub(codesize, bytecodeSize)\n  dup1\n  bytecodeSize\n  dup4\n  codecopy\n  dup2\n  dup2\n  add\n  0x40\n  mstore\n  dup2\n  add\n  swap1\n  tag_2\n  swap2\n  swap1\n  tag_3\n  jump\t// in\ntag_2:\n    /* \"Meta4Swap_flat.sol\":3086:3089  250 */\n  0xfa\n    /* \"Meta4Swap_flat.sol\":3069:3083  marketplaceFee */\n  0x02\n    /* \"Meta4Swap_flat.sol\":3069:3089  marketplaceFee = 250 */\n  dup2\n  swap1\n  sstore\n  pop\n    /* \"Meta4Swap_flat.sol\":3108:3109  0 */\n  0x00\n    /* \"Meta4Swap_flat.sol\":3099:3105  minFee */\n  0x0a\n    /* \"Meta4Swap_flat.sol\":3099:3109  minFee = 0 */\n  dup2\n  swap1\n  sstore\n  pop\n    /* \"Meta4Swap_flat.sol\":3133:3140  1 ether */\n  0x0de0b6b3a7640000\n    /* \"Meta4Swap_flat.sol\":3119:3130  buyerReward */\n  0x07\n    /* \"Meta4Swap_flat.sol\":3119:3140  buyerReward = 1 ether */\n  dup2\n  swap1\n  sstore\n  pop\n    /* \"Meta4Swap_flat.sol\":3165:3172  1 ether */\n  0x0de0b6b3a7640000\n    /* \"Meta4Swap_flat.sol\":3150:3162  sellerReward */\n  0x08\n    /* \"Meta4Swap_flat.sol\":3150:3172  sellerReward = 1 ether */\n  dup2\n  swap1\n  sstore\n  pop\n    /* \"Meta4Swap_flat.sol\":3194:3201  1 ether */\n  0x0de0b6b3a7640000\n    /* \"Meta4Swap_flat.sol\":3182:3191  daoReward */\n  0x09\n    /* \"Meta4Swap_flat.sol\":3182:3201  daoReward = 1 ether */\n  dup2\n  swap1\n  sstore\n  pop\n    /* \"Meta4Swap_flat.sol\":3219:3229  msg.sender */\n  caller\n    /* \"Meta4Swap_flat.sol\":3211:3216  admin */\n  0x03\n  0x00\n    /* \"Meta4Swap_flat.sol\":3211:3229  admin = msg.sender */\n  0x0100\n  exp\n  dup2\n  sload\n  dup2\n  0xffffffffffffffffffffffffffffffffffffffff\n  mul\n  not\n  and\n  swap1\n  dup4\n  0xffffffffffffffffffffffffffffffffffffffff\n  and\n  mul\n  or\n  swap1\n  sstore\n  pop\n    /* \"Meta4Swap_flat.sol\":3253:3257  true */\n  0x01\n    /* \"Meta4Swap_flat.sol\":3239:3250  rewardsLive */\n  0x0b\n  0x00\n    /* \"Meta4Swap_flat.sol\":3239:3257  rewardsLive = true */\n  0x0100\n  exp\n  dup2\n  sload\n  dup2\n  0xff\n  mul\n  not\n  and\n  swap1\n  dup4\n  iszero\n  iszero\n  mul\n  or\n  swap1\n  sstore\n  pop\n    /* \"Meta4Swap_flat.sol\":3273:3277  _dao */\n  dup3\n    /* \"Meta4Swap_flat.sol\":3267:3270  dao */\n  0x04\n  0x00\n    /* \"Meta4Swap_flat.sol\":3267:3277  dao = _dao */\n  0x0100\n  exp\n  dup2\n  sload\n  dup2\n  0xffffffffffffffffffffffffffffffffffffffff\n  mul\n  not\n  and\n  swap1\n  dup4\n  0xffffffffffffffffffffffffffffffffffffffff\n  and\n  mul\n  or\n  swap1\n  sstore\n  pop\n    /* \"Meta4Swap_flat.sol\":3298:3307  _m4sToken */\n  dup2\n    /* \"Meta4Swap_flat.sol\":3287:3295  m4sToken */\n  0x05\n  0x00\n    /* \"Meta4Swap_flat.sol\":3287:3307  m4sToken = _m4sToken */\n  0x0100\n  exp\n  dup2\n  sload\n  dup2\n  0xffffffffffffffffffffffffffffffffffffffff\n  mul\n  not\n  and\n  swap1\n  dup4\n  0xffffffffffffffffffffffffffffffffffffffff\n  and\n  mul\n  or\n  swap1\n  sstore\n  pop\n    /* \"Meta4Swap_flat.sol\":3329:3339  _priceFeed */\n  dup1\n    /* \"Meta4Swap_flat.sol\":3317:3326  priceFeed */\n  0x06\n  0x00\n    /* \"Meta4Swap_flat.sol\":3317:3339  priceFeed = _priceFeed */\n  0x0100\n  exp\n  dup2\n  sload\n  dup2\n  0xffffffffffffffffffffffffffffffffffffffff\n  mul\n  not\n  and\n  swap1\n  dup4\n  0xffffffffffffffffffffffffffffffffffffffff\n  and\n  mul\n  or\n  swap1\n  sstore\n  pop\n    /* \"Meta4Swap_flat.sol\":2994:3346  constructor(address _dao, address _m4sToken, address _priceFeed) {... */\n  pop\n  pop\n  pop\n    /* \"Meta4Swap_flat.sol\":1204:16203  contract Meta4Swap {... */\n  jump(tag_6)\n    /* \"#utility.yul\":7:150   */\ntag_8:\n    /* \"#utility.yul\":64:69   */\n  0x00\n    /* \"#utility.yul\":95:101   */\n  dup2\n    /* \"#utility.yul\":89:102   */\n  mload\n    /* \"#utility.yul\":80:102   */\n  swap1\n  pop\n    /* \"#utility.yul\":111:144   */\n  tag_10\n    /* \"#utility.yul\":138:143   */\n  dup2\n    /* \"#utility.yul\":111:144   */\n  tag_11\n  jump\t// in\ntag_10:\n    /* \"#utility.yul\":7:150   */\n  swap3\n  swap2\n  pop\n  pop\n  jump\t// out\n    /* \"#utility.yul\":156:819   */\ntag_3:\n    /* \"#utility.yul\":244:250   */\n  0x00\n    /* \"#utility.yul\":252:258   */\n  dup1\n    /* \"#utility.yul\":260:266   */\n  0x00\n    /* \"#utility.yul\":309:311   */\n  0x60\n    /* \"#utility.yul\":297:306   */\n  dup5\n    /* \"#utility.yul\":288:295   */\n  dup7\n    /* \"#utility.yul\":284:307   */\n  sub\n    /* \"#utility.yul\":280:312   */\n  slt\n    /* \"#utility.yul\":277:396   */\n  iszero\n  tag_13\n  jumpi\n    /* \"#utility.yul\":315:394   */\n  tag_14\n  tag_15\n  jump\t// in\ntag_14:\n    /* \"#utility.yul\":277:396   */\ntag_13:\n    /* \"#utility.yul\":435:436   */\n  0x00\n    /* \"#utility.yul\":460:524   */\n  tag_16\n    /* \"#utility.yul\":516:523   */\n  dup7\n    /* \"#utility.yul\":507:513   */\n  dup3\n    /* \"#utility.yul\":496:505   */\n  dup8\n    /* \"#utility.yul\":492:514   */\n  add\n    /* \"#utility.yul\":460:524   */\n  tag_8\n  jump\t// in\ntag_16:\n    /* \"#utility.yul\":450:524   */\n  swap4\n  pop\n    /* \"#utility.yul\":406:534   */\n  pop\n    /* \"#utility.yul\":573:575   */\n  0x20\n    /* \"#utility.yul\":599:663   */\n  tag_17\n    /* \"#utility.yul\":655:662   */\n  dup7\n    /* \"#utility.yul\":646:652   */\n  dup3\n    /* \"#utility.yul\":635:644   */\n  dup8\n    /* \"#utility.yul\":631:653   */\n  add\n    /* \"#utility.yul\":599:663   */\n  tag_8\n  jump\t// in\ntag_17:\n    /* \"#utility.yul\":589:663   */\n  swap3\n  pop\n    /* \"#utility.yul\":544:673   */\n  pop\n    /* \"#utility.yul\":712:714   */\n  0x40\n    /* \"#utility.yul\":738:802   */\n  tag_18\n    /* \"#utility.yul\":794:801   */\n  dup7\n    /* \"#utility.yul\":785:791   */\n  dup3\n    /* \"#utility.yul\":774:783   */\n  dup8\n    /* \"#utility.yul\":770:792   */\n  add\n    /* \"#utility.yul\":738:802   */\n  tag_8\n  jump\t// in\ntag_18:\n    /* \"#utility.yul\":728:802   */\n  swap2\n  pop\n    /* \"#utility.yul\":683:812   */\n  pop\n    /* \"#utility.yul\":156:819   */\n  swap3\n  pop\n  swap3\n  pop\n  swap3\n  jump\t// out\n    /* \"#utility.yul\":906:1002   */\ntag_21:\n    /* \"#utility.yul\":943:950   */\n  0x00\n    /* \"#utility.yul\":972:996   */\n  tag_23\n    /* \"#utility.yul\":990:995   */\n  dup3\n    /* \"#utility.yul\":972:996   */\n  tag_24\n  jump\t// in\ntag_23:\n    /* \"#utility.yul\":961:996   */\n  swap1\n  pop\n    /* \"#utility.yul\":906:1002   */\n  swap2\n  swap1\n  pop\n  jump\t// out\n    /* \"#utility.yul\":1008:1134   */\ntag_24:\n    /* \"#utility.yul\":1045:1052   */\n  0x00\n    /* \"#utility.yul\":1085:1127   */\n  0xffffffffffffffffffffffffffffffffffffffff\n    /* \"#utility.yul\":1078:1083   */\n  dup3\n    /* \"#utility.yul\":1074:1128   */\n  and\n    /* \"#utility.yul\":1063:1128   */\n  swap1\n  pop\n    /* \"#utility.yul\":1008:1134   */\n  swap2\n  swap1\n  pop\n  jump\t// out\n    /* \"#utility.yul\":1263:1380   */\ntag_15:\n    /* \"#utility.yul\":1372:1373   */\n  0x00\n    /* \"#utility.yul\":1369:1370   */\n  dup1\n    /* \"#utility.yul\":1362:1374   */\n  revert\n    /* \"#utility.yul\":1386:1508   */\ntag_11:\n    /* \"#utility.yul\":1459:1483   */\n  tag_30\n    /* \"#utility.yul\":1477:1482   */\n  dup2\n    /* \"#utility.yul\":1459:1483   */\n  tag_21\n  jump\t// in\ntag_30:\n    /* \"#utility.yul\":1452:1457   */\n  dup2\n    /* \"#utility.yul\":1449:1484   */\n  eq\n    /* \"#utility.yul\":1439:1502   */\n  tag_31\n  jumpi\n    /* \"#utility.yul\":1498:1499   */\n  0x00\n    /* \"#utility.yul\":1495:1496   */\n  dup1\n    /* \"#utility.yul\":1488:1500   */\n  revert\n    /* \"#utility.yul\":1439:1502   */\ntag_31:\n    /* \"#utility.yul\":1386:1508   */\n  pop\n  jump\t// out\n    /* \"Meta4Swap_flat.sol\":1204:16203  contract Meta4Swap {... */\ntag_6:\n  dataSize(sub_0)\n  dup1\n  dataOffset(sub_0)\n  0x00\n  codecopy\n  0x00\n  return\nstop\n\nsub_0: assembly {\n        /* \"Meta4Swap_flat.sol\":1204:16203  contract Meta4Swap {... */\n      mstore(0x40, 0x80)\n      jumpi(tag_1, lt(calldatasize, 0x04))\n      shr(0xe0, calldataload(0x00))\n      dup1\n      0x741bef1a\n      gt\n      tag_36\n      jumpi\n      dup1\n      0xa0e50ca6\n      gt\n      tag_37\n      jumpi\n      dup1\n      0xd0e7a5cb\n      gt\n      tag_38\n      jumpi\n      dup1\n      0xd0e7a5cb\n      eq\n      tag_31\n      jumpi\n      dup1\n      0xd96a094a\n      eq\n      tag_32\n      jumpi\n      dup1\n      0xe039bec7\n      eq\n      tag_33\n      jumpi\n      dup1\n      0xf851a440\n      eq\n      tag_34\n      jumpi\n      dup1\n      0xfd2e997e\n      eq\n      tag_35\n      jumpi\n      jump(tag_1)\n    tag_38:\n      dup1\n      0xa0e50ca6\n      eq\n      tag_27\n      jumpi\n      dup1\n      0xaf0d467b\n      eq\n      tag_28\n      jumpi\n      dup1\n      0xc0eb4e7d\n      eq\n      tag_29\n      jumpi\n      dup1\n      0xc0f0f73f\n      eq\n      tag_30\n      jumpi\n      jump(tag_1)\n    tag_37:\n      dup1\n      0x86d6282c\n      gt\n      tag_39\n      jumpi\n      dup1\n      0x86d6282c\n      eq\n      tag_23\n      jumpi\n      dup1\n      0x8e15f473\n      eq\n      tag_24\n      jumpi\n      dup1\n      0x918d407d\n      eq\n      tag_25\n      jumpi\n      dup1\n      0x971d852f\n      eq\n      tag_26\n      jumpi\n      jump(tag_1)\n    tag_39:\n      dup1\n      0x741bef1a\n      eq\n      tag_19\n      jumpi\n      dup1\n      0x761610fc\n      eq\n      tag_20\n      jumpi\n      dup1\n      0x82c35bfa\n      eq\n      tag_21\n      jumpi\n      dup1\n      0x83219a8a\n      eq\n      tag_22\n      jumpi\n      jump(tag_1)\n    tag_36:\n      dup1\n      0x2ffbb678\n      gt\n      tag_40\n      jumpi\n      dup1\n      0x54282632\n      gt\n      tag_41\n      jumpi\n      dup1\n      0x54282632\n      eq\n      tag_14\n      jumpi\n      dup1\n      0x6a166964\n      eq\n      tag_15\n      jumpi\n      dup1\n      0x6ab34a4a\n      eq\n      tag_16\n      jumpi\n      dup1\n      0x6bfb0d01\n      eq\n      tag_17\n      jumpi\n      dup1\n      0x6c914501\n      eq\n      tag_18\n      jumpi\n      jump(tag_1)\n    tag_41:\n      dup1\n      0x2ffbb678\n      eq\n      tag_10\n      jumpi\n      dup1\n      0x34650412\n      eq\n      tag_11\n      jumpi\n      dup1\n      0x40e58ee5\n      eq\n      tag_12\n      jumpi\n      dup1\n      0x4162169f\n      eq\n      tag_13\n      jumpi\n      jump(tag_1)\n    tag_40:\n      dup1\n      0x22a5aebf\n      gt\n      tag_42\n      jumpi\n      dup1\n      0x22a5aebf\n      eq\n      tag_6\n      jumpi\n      dup1\n      0x2453ffa8\n      eq\n      tag_7\n      jumpi\n      dup1\n      0x24ec7590\n      eq\n      tag_8\n      jumpi\n      dup1\n      0x2ab29df7\n      eq\n      tag_9\n      jumpi\n      jump(tag_1)\n    tag_42:\n      dup1\n      0x101e1940\n      eq\n      tag_2\n      jumpi\n      dup1\n      0x16632302\n      eq\n      tag_3\n      jumpi\n      dup1\n      0x1885f580\n      eq\n      tag_4\n      jumpi\n      dup1\n      0x1c8e8962\n      eq\n      tag_5\n      jumpi\n    tag_1:\n      0x00\n      dup1\n      revert\n        /* \"Meta4Swap_flat.sol\":2718:2764  mapping(uint256 => Dispute) public disputeInfo */\n    tag_2:\n      callvalue\n      dup1\n      iszero\n      tag_43\n      jumpi\n      0x00\n      dup1\n      revert\n    tag_43:\n      pop\n      tag_44\n      0x04\n      dup1\n      calldatasize\n      sub\n      dup2\n      add\n      swap1\n      tag_45\n      swap2\n      swap1\n      tag_46\n      jump\t// in\n    tag_45:\n      tag_47\n      jump\t// in\n    tag_44:\n      mload(0x40)\n      tag_48\n      swap5\n      swap4\n      swap3\n      swap2\n      swap1\n      tag_49\n      jump\t// in\n    tag_48:\n      mload(0x40)\n      dup1\n      swap2\n      sub\n      swap1\n      return\n        /* \"Meta4Swap_flat.sol\":11648:12142  function updateDispute(uint256 _orderId, string memory _ipfsHash)... */\n    tag_3:\n      callvalue\n      dup1\n      iszero\n      tag_50\n      jumpi\n      0x00\n      dup1\n      revert\n    tag_50:\n      pop\n      tag_51\n      0x04\n      dup1\n      calldatasize\n      sub\n      dup2\n      add\n      swap1\n      tag_52\n      swap2\n      swap1\n      tag_53\n      jump\t// in\n    tag_52:\n      tag_54\n      jump\t// in\n    tag_51:\n      stop\n        /* \"Meta4Swap_flat.sol\":1585:1609  uint256 public daoReward */\n    tag_4:\n      callvalue\n      dup1\n      iszero\n      tag_55\n      jumpi\n      0x00\n      dup1\n      revert\n    tag_55:\n      pop\n      tag_56\n      tag_57\n      jump\t// in\n    tag_56:\n      mload(0x40)\n      tag_58\n      swap2\n      swap1\n      tag_59\n      jump\t// in\n    tag_58:\n      mload(0x40)\n      dup1\n      swap2\n      sub\n      swap1\n      return\n        /* \"Meta4Swap_flat.sol\":2807:2853  mapping(address => Profile) public userProfile */\n    tag_5:\n      callvalue\n      dup1\n      iszero\n      tag_60\n      jumpi\n      0x00\n      dup1\n      revert\n    tag_60:\n      pop\n      tag_61\n      0x04\n      dup1\n      calldatasize\n      sub\n      dup2\n      add\n      swap1\n      tag_62\n      swap2\n      swap1\n      tag_63\n      jump\t// in\n    tag_62:\n      tag_64\n      jump\t// in\n    tag_61:\n      mload(0x40)\n      tag_65\n      swap4\n      swap3\n      swap2\n      swap1\n      tag_66\n      jump\t// in\n    tag_65:\n      mload(0x40)\n      dup1\n      swap2\n      sub\n      swap1\n      return\n        /* \"Meta4Swap_flat.sol\":1426:1449  address public m4sToken */\n    tag_6:\n      callvalue\n      dup1\n      iszero\n      tag_67\n      jumpi\n      0x00\n      dup1\n      revert\n    tag_67:\n      pop\n      tag_68\n      tag_69\n      jump\t// in\n    tag_68:\n      mload(0x40)\n      tag_70\n      swap2\n      swap1\n      tag_71\n      jump\t// in\n    tag_70:\n      mload(0x40)\n      dup1\n      swap2\n      sub\n      swap1\n      return\n        /* \"Meta4Swap_flat.sol\":1250:1275  uint256 public orderCount */\n    tag_7:\n      callvalue\n      dup1\n      iszero\n      tag_72\n      jumpi\n      0x00\n      dup1\n      revert\n    tag_72:\n      pop\n      tag_73\n      tag_74\n      jump\t// in\n    tag_73:\n      mload(0x40)\n      tag_75\n      swap2\n      swap1\n      tag_59\n      jump\t// in\n    tag_75:\n      mload(0x40)\n      dup1\n      swap2\n      sub\n      swap1\n      return\n        /* \"Meta4Swap_flat.sol\":1622:1643  uint256 public minFee */\n    tag_8:\n      callvalue\n      dup1\n      iszero\n      tag_76\n      jumpi\n      0x00\n      dup1\n      revert\n    tag_76:\n      pop\n      tag_77\n      tag_78\n      jump\t// in\n    tag_77:\n      mload(0x40)\n      tag_79\n      swap2\n      swap1\n      tag_59\n      jump\t// in\n    tag_79:\n      mload(0x40)\n      dup1\n      swap2\n      sub\n      swap1\n      return\n        /* \"Meta4Swap_flat.sol\":13913:14450  function updateAddress(uint256 _value, address _newAddress) public {... */\n    tag_9:\n      callvalue\n      dup1\n      iszero\n      tag_80\n      jumpi\n      0x00\n      dup1\n      revert\n    tag_80:\n      pop\n      tag_81\n      0x04\n      dup1\n      calldatasize\n      sub\n      dup2\n      add\n      swap1\n      tag_82\n      swap2\n      swap1\n      tag_83\n      jump\t// in\n    tag_82:\n      tag_84\n      jump\t// in\n    tag_81:\n      stop\n        /* \"Meta4Swap_flat.sol\":14456:14656  function updateRewardsisLive(bool _state) public {... */\n    tag_10:\n      callvalue\n      dup1\n      iszero\n      tag_85\n      jumpi\n      0x00\n      dup1\n      revert\n    tag_85:\n      pop\n      tag_86\n      0x04\n      dup1\n      calldatasize\n      sub\n      dup2\n      add\n      swap1\n      tag_87\n      swap2\n      swap1\n      tag_88\n      jump\t// in\n    tag_87:\n      tag_89\n      jump\t// in\n    tag_86:\n      stop\n        /* \"Meta4Swap_flat.sol\":2628:2689  mapping(address => mapping(uint256 => bool)) public offerInfo */\n    tag_11:\n      callvalue\n      dup1\n      iszero\n      tag_90\n      jumpi\n      0x00\n      dup1\n      revert\n    tag_90:\n      pop\n      tag_91\n      0x04\n      dup1\n      calldatasize\n      sub\n      dup2\n      add\n      swap1\n      tag_92\n      swap2\n      swap1\n      tag_93\n      jump\t// in\n    tag_92:\n      tag_94\n      jump\t// in\n    tag_91:\n      mload(0x40)\n      tag_95\n      swap2\n      swap1\n      tag_96\n      jump\t// in\n    tag_95:\n      mload(0x40)\n      dup1\n      swap2\n      sub\n      swap1\n      return\n        /* \"Meta4Swap_flat.sol\":10429:11147  function cancel(uint256 _orderId) public {... */\n    tag_12:\n      callvalue\n      dup1\n      iszero\n      tag_97\n      jumpi\n      0x00\n      dup1\n      revert\n    tag_97:\n      pop\n      tag_98\n      0x04\n      dup1\n      calldatasize\n      sub\n      dup2\n      add\n      swap1\n      tag_99\n      swap2\n      swap1\n      tag_46\n      jump\t// in\n    tag_99:\n      tag_100\n      jump\t// in\n    tag_98:\n      stop\n        /* \"Meta4Swap_flat.sol\":1402:1420  address public dao */\n    tag_13:\n      callvalue\n      dup1\n      iszero\n      tag_101\n      jumpi\n      0x00\n      dup1\n      revert\n    tag_101:\n      pop\n      tag_102\n      tag_103\n      jump\t// in\n    tag_102:\n      mload(0x40)\n      tag_104\n      swap2\n      swap1\n      tag_71\n      jump\t// in\n    tag_104:\n      mload(0x40)\n      dup1\n      swap2\n      sub\n      swap1\n      return\n        /* \"Meta4Swap_flat.sol\":1542:1569  uint256 public sellerReward */\n    tag_14:\n      callvalue\n      dup1\n      iszero\n      tag_105\n      jumpi\n      0x00\n      dup1\n      revert\n    tag_105:\n      pop\n      tag_106\n      tag_107\n      jump\t// in\n    tag_106:\n      mload(0x40)\n      tag_108\n      swap2\n      swap1\n      tag_59\n      jump\t// in\n    tag_108:\n      mload(0x40)\n      dup1\n      swap2\n      sub\n      swap1\n      return\n        /* \"Meta4Swap_flat.sol\":1311:1340  uint256 public marketplaceFee */\n    tag_15:\n      callvalue\n      dup1\n      iszero\n      tag_109\n      jumpi\n      0x00\n      dup1\n      revert\n    tag_109:\n      pop\n      tag_110\n      tag_111\n      jump\t// in\n    tag_110:\n      mload(0x40)\n      tag_112\n      swap2\n      swap1\n      tag_59\n      jump\t// in\n    tag_112:\n      mload(0x40)\n      dup1\n      swap2\n      sub\n      swap1\n      return\n        /* \"Meta4Swap_flat.sol\":2545:2587  mapping(uint256 => Order) public orderInfo */\n    tag_16:\n      callvalue\n      dup1\n      iszero\n      tag_113\n      jumpi\n      0x00\n      dup1\n      revert\n    tag_113:\n      pop\n      tag_114\n      0x04\n      dup1\n      calldatasize\n      sub\n      dup2\n      add\n      swap1\n      tag_115\n      swap2\n      swap1\n      tag_46\n      jump\t// in\n    tag_115:\n      tag_116\n      jump\t// in\n    tag_114:\n      mload(0x40)\n      tag_117\n      swap13\n      swap12\n      swap11\n      swap10\n      swap9\n      swap8\n      swap7\n      swap6\n      swap5\n      swap4\n      swap3\n      swap2\n      swap1\n      tag_118\n      jump\t// in\n    tag_117:\n      mload(0x40)\n      dup1\n      swap2\n      sub\n      swap1\n      return\n        /* \"Meta4Swap_flat.sol\":1281:1305  uint256 public itemCount */\n    tag_17:\n      callvalue\n      dup1\n      iszero\n      tag_119\n      jumpi\n      0x00\n      dup1\n      revert\n    tag_119:\n      pop\n      tag_120\n      tag_121\n      jump\t// in\n    tag_120:\n      mload(0x40)\n      tag_122\n      swap2\n      swap1\n      tag_59\n      jump\t// in\n    tag_122:\n      mload(0x40)\n      dup1\n      swap2\n      sub\n      swap1\n      return\n        /* \"Meta4Swap_flat.sol\":4221:4840  function create(... */\n    tag_18:\n      callvalue\n      dup1\n      iszero\n      tag_123\n      jumpi\n      0x00\n      dup1\n      revert\n    tag_123:\n      pop\n      tag_124\n      0x04\n      dup1\n      calldatasize\n      sub\n      dup2\n      add\n      swap1\n      tag_125\n      swap2\n      swap1\n      tag_126\n      jump\t// in\n    tag_125:\n      tag_127\n      jump\t// in\n    tag_124:\n      mload(0x40)\n      tag_128\n      swap2\n      swap1\n      tag_59\n      jump\t// in\n    tag_128:\n      mload(0x40)\n      dup1\n      swap2\n      sub\n      swap1\n      return\n        /* \"Meta4Swap_flat.sol\":1455:1479  address public priceFeed */\n    tag_19:\n      callvalue\n      dup1\n      iszero\n      tag_129\n      jumpi\n      0x00\n      dup1\n      revert\n    tag_129:\n      pop\n      tag_130\n      tag_131\n      jump\t// in\n    tag_130:\n      mload(0x40)\n      tag_132\n      swap2\n      swap1\n      tag_71\n      jump\t// in\n    tag_132:\n      mload(0x40)\n      dup1\n      swap2\n      sub\n      swap1\n      return\n        /* \"Meta4Swap_flat.sol\":6470:6958  function offer(uint256 _itemId) public {... */\n    tag_20:\n      callvalue\n      dup1\n      iszero\n      tag_133\n      jumpi\n      0x00\n      dup1\n      revert\n    tag_133:\n      pop\n      tag_134\n      0x04\n      dup1\n      calldatasize\n      sub\n      dup2\n      add\n      swap1\n      tag_135\n      swap2\n      swap1\n      tag_46\n      jump\t// in\n    tag_135:\n      tag_136\n      jump\t// in\n    tag_134:\n      stop\n        /* \"Meta4Swap_flat.sol\":2887:2950  mapping(address => mapping(uint256 => bool)) public ratingCheck */\n    tag_21:\n      callvalue\n      dup1\n      iszero\n      tag_137\n      jumpi\n      0x00\n      dup1\n      revert\n    tag_137:\n      pop\n      tag_138\n      0x04\n      dup1\n      calldatasize\n      sub\n      dup2\n      add\n      swap1\n      tag_139\n      swap2\n      swap1\n      tag_93\n      jump\t// in\n    tag_139:\n      tag_140\n      jump\t// in\n    tag_138:\n      mload(0x40)\n      tag_141\n      swap2\n      swap1\n      tag_96\n      jump\t// in\n    tag_141:\n      mload(0x40)\n      dup1\n      swap2\n      sub\n      swap1\n      return\n        /* \"Meta4Swap_flat.sol\":14947:15228  function editMetadata(uint256 _itemId, string memory _metadata) public {... */\n    tag_22:\n      callvalue\n      dup1\n      iszero\n      tag_142\n      jumpi\n      0x00\n      dup1\n      revert\n    tag_142:\n      pop\n      tag_143\n      0x04\n      dup1\n      calldatasize\n      sub\n      dup2\n      add\n      swap1\n      tag_144\n      swap2\n      swap1\n      tag_53\n      jump\t// in\n    tag_144:\n      tag_145\n      jump\t// in\n    tag_143:\n      stop\n        /* \"Meta4Swap_flat.sol\":11169:11642  function dispute(uint256 _orderId) public onlyCounterpart(_orderId) {... */\n    tag_23:\n      callvalue\n      dup1\n      iszero\n      tag_146\n      jumpi\n      0x00\n      dup1\n      revert\n    tag_146:\n      pop\n      tag_147\n      0x04\n      dup1\n      calldatasize\n      sub\n      dup2\n      add\n      swap1\n      tag_148\n      swap2\n      swap1\n      tag_46\n      jump\t// in\n    tag_148:\n      tag_149\n      jump\t// in\n    tag_147:\n      stop\n        /* \"Meta4Swap_flat.sol\":15743:16201  function getLatestPrice() public view returns (int256) {... */\n    tag_24:\n      callvalue\n      dup1\n      iszero\n      tag_150\n      jumpi\n      0x00\n      dup1\n      revert\n    tag_150:\n      pop\n      tag_151\n      tag_152\n      jump\t// in\n    tag_151:\n      mload(0x40)\n      tag_153\n      swap2\n      swap1\n      tag_154\n      jump\t// in\n    tag_153:\n      mload(0x40)\n      dup1\n      swap2\n      sub\n      swap1\n      return\n        /* \"Meta4Swap_flat.sol\":6964:8553  function acceptOffer(uint _itemId, address _worker) public payable returns (uint256) {... */\n    tag_25:\n      tag_155\n      0x04\n      dup1\n      calldatasize\n      sub\n      dup2\n      add\n      swap1\n      tag_156\n      swap2\n      swap1\n      tag_83\n      jump\t// in\n    tag_156:\n      tag_157\n      jump\t// in\n    tag_155:\n      mload(0x40)\n      tag_158\n      swap2\n      swap1\n      tag_59\n      jump\t// in\n    tag_158:\n      mload(0x40)\n      dup1\n      swap2\n      sub\n      swap1\n      return\n        /* \"Meta4Swap_flat.sol\":8559:10423  function complete(uint256 _orderId) public onlyCounterpart(_orderId) {... */\n    tag_26:\n      callvalue\n      dup1\n      iszero\n      tag_159\n      jumpi\n      0x00\n      dup1\n      revert\n    tag_159:\n      pop\n      tag_160\n      0x04\n      dup1\n      calldatasize\n      sub\n      dup2\n      add\n      swap1\n      tag_161\n      swap2\n      swap1\n      tag_46\n      jump\t// in\n    tag_161:\n      tag_162\n      jump\t// in\n    tag_160:\n      stop\n        /* \"Meta4Swap_flat.sol\":13520:13886  function updateRules(uint256 _variable, uint256 _value)... */\n    tag_27:\n      callvalue\n      dup1\n      iszero\n      tag_163\n      jumpi\n      0x00\n      dup1\n      revert\n    tag_163:\n      pop\n      tag_164\n      0x04\n      dup1\n      calldatasize\n      sub\n      dup2\n      add\n      swap1\n      tag_165\n      swap2\n      swap1\n      tag_166\n      jump\t// in\n    tag_165:\n      tag_167\n      jump\t// in\n    tag_164:\n      mload(0x40)\n      tag_168\n      swap2\n      swap1\n      tag_96\n      jump\t// in\n    tag_168:\n      mload(0x40)\n      dup1\n      swap2\n      sub\n      swap1\n      return\n        /* \"Meta4Swap_flat.sol\":12149:13495  function resolve(uint256 _orderId, address _winner) public {... */\n    tag_28:\n      callvalue\n      dup1\n      iszero\n      tag_169\n      jumpi\n      0x00\n      dup1\n      revert\n    tag_169:\n      pop\n      tag_170\n      0x04\n      dup1\n      calldatasize\n      sub\n      dup2\n      add\n      swap1\n      tag_171\n      swap2\n      swap1\n      tag_83\n      jump\t// in\n    tag_171:\n      tag_172\n      jump\t// in\n    tag_170:\n      stop\n        /* \"Meta4Swap_flat.sol\":15234:15497  function editState(uint256 _itemId, bool _isLive) public {... */\n    tag_29:\n      callvalue\n      dup1\n      iszero\n      tag_173\n      jumpi\n      0x00\n      dup1\n      revert\n    tag_173:\n      pop\n      tag_174\n      0x04\n      dup1\n      calldatasize\n      sub\n      dup2\n      add\n      swap1\n      tag_175\n      swap2\n      swap1\n      tag_176\n      jump\t// in\n    tag_175:\n      tag_177\n      jump\t// in\n    tag_174:\n      stop\n        /* \"Meta4Swap_flat.sol\":1500:1526  uint256 public buyerReward */\n    tag_30:\n      callvalue\n      dup1\n      iszero\n      tag_178\n      jumpi\n      0x00\n      dup1\n      revert\n    tag_178:\n      pop\n      tag_179\n      tag_180\n      jump\t// in\n    tag_179:\n      mload(0x40)\n      tag_181\n      swap2\n      swap1\n      tag_59\n      jump\t// in\n    tag_181:\n      mload(0x40)\n      dup1\n      swap2\n      sub\n      swap1\n      return\n        /* \"Meta4Swap_flat.sol\":14678:14941  function editPrice(uint256 _itemId, uint256 _value) public {... */\n    tag_31:\n      callvalue\n      dup1\n      iszero\n      tag_182\n      jumpi\n      0x00\n      dup1\n      revert\n    tag_182:\n      pop\n      tag_183\n      0x04\n      dup1\n      calldatasize\n      sub\n      dup2\n      add\n      swap1\n      tag_184\n      swap2\n      swap1\n      tag_166\n      jump\t// in\n    tag_184:\n      tag_185\n      jump\t// in\n    tag_183:\n      stop\n        /* \"Meta4Swap_flat.sol\":4846:6464  function buy(uint256 _itemId)... */\n    tag_32:\n      tag_186\n      0x04\n      dup1\n      calldatasize\n      sub\n      dup2\n      add\n      swap1\n      tag_187\n      swap2\n      swap1\n      tag_46\n      jump\t// in\n    tag_187:\n      tag_188\n      jump\t// in\n    tag_186:\n      mload(0x40)\n      tag_189\n      swap2\n      swap1\n      tag_59\n      jump\t// in\n    tag_189:\n      mload(0x40)\n      dup1\n      swap2\n      sub\n      swap1\n      return\n        /* \"Meta4Swap_flat.sol\":1691:1714  bool public rewardsLive */\n    tag_33:\n      callvalue\n      dup1\n      iszero\n      tag_190\n      jumpi\n      0x00\n      dup1\n      revert\n    tag_190:\n      pop\n      tag_191\n      tag_192\n      jump\t// in\n    tag_191:\n      mload(0x40)\n      tag_193\n      swap2\n      swap1\n      tag_96\n      jump\t// in\n    tag_193:\n      mload(0x40)\n      dup1\n      swap2\n      sub\n      swap1\n      return\n        /* \"Meta4Swap_flat.sol\":1376:1396  address public admin */\n    tag_34:\n      callvalue\n      dup1\n      iszero\n      tag_194\n      jumpi\n      0x00\n      dup1\n      revert\n    tag_194:\n      pop\n      tag_195\n      tag_196\n      jump\t// in\n    tag_195:\n      mload(0x40)\n      tag_197\n      swap2\n      swap1\n      tag_71\n      jump\t// in\n    tag_197:\n      mload(0x40)\n      dup1\n      swap2\n      sub\n      swap1\n      return\n        /* \"Meta4Swap_flat.sol\":2466:2506  mapping(uint256 => Item) public itemInfo */\n    tag_35:\n      callvalue\n      dup1\n      iszero\n      tag_198\n      jumpi\n      0x00\n      dup1\n      revert\n    tag_198:\n      pop\n      tag_199\n      0x04\n      dup1\n      calldatasize\n      sub\n      dup2\n      add\n      swap1\n      tag_200\n      swap2\n      swap1\n      tag_46\n      jump\t// in\n    tag_200:\n      tag_201\n      jump\t// in\n    tag_199:\n      mload(0x40)\n      tag_202\n      swap7\n      swap6\n      swap5\n      swap4\n      swap3\n      swap2\n      swap1\n      tag_203\n      jump\t// in\n    tag_202:\n      mload(0x40)\n      dup1\n      swap2\n      sub\n      swap1\n      return\n        /* \"Meta4Swap_flat.sol\":2718:2764  mapping(uint256 => Dispute) public disputeInfo */\n    tag_47:\n      mstore(0x20, 0x0f)\n      dup1\n      0x00\n      mstore\n      keccak256(0x00, 0x40)\n      0x00\n      swap2\n      pop\n      swap1\n      pop\n      dup1\n      0x00\n      add\n      dup1\n      sload\n      tag_204\n      swap1\n      tag_205\n      jump\t// in\n    tag_204:\n      dup1\n      0x1f\n      add\n      0x20\n      dup1\n      swap2\n      div\n      mul\n      0x20\n      add\n      mload(0x40)\n      swap1\n      dup2\n      add\n      0x40\n      mstore\n      dup1\n      swap3\n      swap2\n      swap1\n      dup2\n      dup2\n      mstore\n      0x20\n      add\n      dup3\n      dup1\n      sload\n      tag_206\n      swap1\n      tag_205\n      jump\t// in\n    tag_206:\n      dup1\n      iszero\n      tag_207\n      jumpi\n      dup1\n      0x1f\n      lt\n      tag_208\n      jumpi\n      0x0100\n      dup1\n      dup4\n      sload\n      div\n      mul\n      dup4\n      mstore\n      swap2\n      0x20\n      add\n      swap2\n      jump(tag_207)\n    tag_208:\n      dup3\n      add\n      swap2\n      swap1\n      0x00\n      mstore\n      keccak256(0x00, 0x20)\n      swap1\n    tag_209:\n      dup2\n      sload\n      dup2\n      mstore\n      swap1\n      0x01\n      add\n      swap1\n      0x20\n      add\n      dup1\n      dup4\n      gt\n      tag_209\n      jumpi\n      dup3\n      swap1\n      sub\n      0x1f\n      and\n      dup3\n      add\n      swap2\n    tag_207:\n      pop\n      pop\n      pop\n      pop\n      pop\n      swap1\n      dup1\n      0x01\n      add\n      dup1\n      sload\n      tag_210\n      swap1\n      tag_205\n      jump\t// in\n    tag_210:\n      dup1\n      0x1f\n      add\n      0x20\n      dup1\n      swap2\n      div\n      mul\n      0x20\n      add\n      mload(0x40)\n      swap1\n      dup2\n      add\n      0x40\n      mstore\n      dup1\n      swap3\n      swap2\n      swap1\n      dup2\n      dup2\n      mstore\n      0x20\n      add\n      dup3\n      dup1\n      sload\n      tag_211\n      swap1\n      tag_205\n      jump\t// in\n    tag_211:\n      dup1\n      iszero\n      tag_212\n      jumpi\n      dup1\n      0x1f\n      lt\n      tag_213\n      jumpi\n      0x0100\n      dup1\n      dup4\n      sload\n      div\n      mul\n      dup4\n      mstore\n      swap2\n      0x20\n      add\n      swap2\n      jump(tag_212)\n    tag_213:\n      dup3\n      add\n      swap2\n      swap1\n      0x00\n      mstore\n      keccak256(0x00, 0x20)\n      swap1\n    tag_214:\n      dup2\n      sload\n      dup2\n      mstore\n      swap1\n      0x01\n      add\n      swap1\n      0x20\n      add\n      dup1\n      dup4\n      gt\n      tag_214\n      jumpi\n      dup3\n      swap1\n      sub\n      0x1f\n      and\n      dup3\n      add\n      swap2\n    tag_212:\n      pop\n      pop\n      pop\n      pop\n      pop\n      swap1\n      dup1\n      0x02\n      add\n      sload\n      swap1\n      dup1\n      0x03\n      add\n      0x00\n      swap1\n      sload\n      swap1\n      0x0100\n      exp\n      swap1\n      div\n      0xff\n      and\n      swap1\n      pop\n      dup5\n      jump\t// out\n        /* \"Meta4Swap_flat.sol\":11648:12142  function updateDispute(uint256 _orderId, string memory _ipfsHash)... */\n    tag_54:\n        /* \"Meta4Swap_flat.sol\":11753:11761  _orderId */\n      dup2\n        /* \"Meta4Swap_flat.sol\":4064:4074  msg.sender */\n      caller\n        /* \"Meta4Swap_flat.sol\":4035:4074  orderInfo[_orderId].buyer == msg.sender */\n      0xffffffffffffffffffffffffffffffffffffffff\n      and\n        /* \"Meta4Swap_flat.sol\":4035:4044  orderInfo */\n      0x0d\n        /* \"Meta4Swap_flat.sol\":4035:4054  orderInfo[_orderId] */\n      0x00\n        /* \"Meta4Swap_flat.sol\":4045:4053  _orderId */\n      dup4\n        /* \"Meta4Swap_flat.sol\":4035:4054  orderInfo[_orderId] */\n      dup2\n      mstore\n      0x20\n      add\n      swap1\n      dup2\n      mstore\n      0x20\n      add\n      0x00\n      keccak256\n        /* \"Meta4Swap_flat.sol\":4035:4060  orderInfo[_orderId].buyer */\n      0x07\n      add\n      0x03\n      swap1\n      sload\n      swap1\n      0x0100\n      exp\n      swap1\n      div\n      0xffffffffffffffffffffffffffffffffffffffff\n      and\n        /* \"Meta4Swap_flat.sol\":4035:4074  orderInfo[_orderId].buyer == msg.sender */\n      0xffffffffffffffffffffffffffffffffffffffff\n      and\n      eq\n        /* \"Meta4Swap_flat.sol\":4035:4134  orderInfo[_orderId].buyer == msg.sender ||... */\n      dup1\n      tag_216\n      jumpi\n      pop\n        /* \"Meta4Swap_flat.sol\":4124:4134  msg.sender */\n      caller\n        /* \"Meta4Swap_flat.sol\":4094:4134  orderInfo[_orderId].seller == msg.sender */\n      0xffffffffffffffffffffffffffffffffffffffff\n      and\n        /* \"Meta4Swap_flat.sol\":4094:4103  orderInfo */\n      0x0d\n        /* \"Meta4Swap_flat.sol\":4094:4113  orderInfo[_orderId] */\n      0x00\n        /* \"Meta4Swap_flat.sol\":4104:4112  _orderId */\n      dup4\n        /* \"Meta4Swap_flat.sol\":4094:4113  orderInfo[_orderId] */\n      dup2\n      mstore\n      0x20\n      add\n      swap1\n      dup2\n      mstore\n      0x20\n      add\n      0x00\n      keccak256\n        /* \"Meta4Swap_flat.sol\":4094:4120  orderInfo[_orderId].seller */\n      0x08\n      add\n      0x00\n      swap1\n      sload\n      swap1\n      0x0100\n      exp\n      swap1\n      div\n      0xffffffffffffffffffffffffffffffffffffffff\n      and\n        /* \"Meta4Swap_flat.sol\":4094:4134  orderInfo[_orderId].seller == msg.sender */\n      0xffffffffffffffffffffffffffffffffffffffff\n      and\n      eq\n        /* \"Meta4Swap_flat.sol\":4035:4134  orderInfo[_orderId].buyer == msg.sender ||... */\n    tag_216:\n        /* \"Meta4Swap_flat.sol\":4014:4197  require(... */\n      tag_217\n      jumpi\n      mload(0x40)\n      0x08c379a000000000000000000000000000000000000000000000000000000000\n      dup2\n      mstore\n      0x04\n      add\n      tag_218\n      swap1\n      tag_219\n      jump\t// in\n    tag_218:\n      mload(0x40)\n      dup1\n      swap2\n      sub\n      swap1\n      revert\n    tag_217:\n        /* \"Meta4Swap_flat.sol\":11817:11821  true */\n      0x01\n        /* \"Meta4Swap_flat.sol\":11785:11821  disputeInfo[_orderId].isLive == true */\n      iszero\n      iszero\n        /* \"Meta4Swap_flat.sol\":11785:11796  disputeInfo */\n      0x0f\n        /* \"Meta4Swap_flat.sol\":11785:11806  disputeInfo[_orderId] */\n      0x00\n        /* \"Meta4Swap_flat.sol\":11797:11805  _orderId */\n      dup6\n        /* \"Meta4Swap_flat.sol\":11785:11806  disputeInfo[_orderId] */\n      dup2\n      mstore\n      0x20\n      add\n      swap1\n      dup2\n      mstore\n      0x20\n      add\n      0x00\n      keccak256\n        /* \"Meta4Swap_flat.sol\":11785:11813  disputeInfo[_orderId].isLive */\n      0x03\n      add\n      0x00\n      swap1\n      sload\n      swap1\n      0x0100\n      exp\n      swap1\n      div\n      0xff\n      and\n        /* \"Meta4Swap_flat.sol\":11785:11821  disputeInfo[_orderId].isLive == true */\n      iszero\n      iszero\n      eq\n        /* \"Meta4Swap_flat.sol\":11777:11844  require(disputeInfo[_orderId].isLive == true, \"Dispute isn't live\") */\n      tag_221\n      jumpi\n      mload(0x40)\n      0x08c379a000000000000000000000000000000000000000000000000000000000\n      dup2\n      mstore\n      0x04\n      add\n      tag_222\n      swap1\n      tag_223\n      jump\t// in\n    tag_222:\n      mload(0x40)\n      dup1\n      swap2\n      sub\n      swap1\n      revert\n    tag_221:\n        /* \"Meta4Swap_flat.sol\":11872:11881  orderInfo */\n      0x0d\n        /* \"Meta4Swap_flat.sol\":11872:11891  orderInfo[_orderId] */\n      0x00\n        /* \"Meta4Swap_flat.sol\":11882:11890  _orderId */\n      dup5\n        /* \"Meta4Swap_flat.sol\":11872:11891  orderInfo[_orderId] */\n      dup2\n      mstore\n      0x20\n      add\n      swap1\n      dup2\n      mstore\n      0x20\n      add\n      0x00\n      keccak256\n        /* \"Meta4Swap_flat.sol\":11872:11897  orderInfo[_orderId].buyer */\n      0x07\n      add\n      0x03\n      swap1\n      sload\n      swap1\n      0x0100\n      exp\n      swap1\n      div\n      0xffffffffffffffffffffffffffffffffffffffff\n      and\n        /* \"Meta4Swap_flat.sol\":11858:11897  msg.sender == orderInfo[_orderId].buyer */\n      0xffffffffffffffffffffffffffffffffffffffff\n      and\n        /* \"Meta4Swap_flat.sol\":11858:11868  msg.sender */\n      caller\n        /* \"Meta4Swap_flat.sol\":11858:11897  msg.sender == orderInfo[_orderId].buyer */\n      0xffffffffffffffffffffffffffffffffffffffff\n      and\n      eq\n        /* \"Meta4Swap_flat.sol\":11854:12096  if (msg.sender == orderInfo[_orderId].buyer) {... */\n      iszero\n      tag_224\n      jumpi\n        /* \"Meta4Swap_flat.sol\":11951:11960  _ipfsHash */\n      dup2\n        /* \"Meta4Swap_flat.sol\":11913:11924  disputeInfo */\n      0x0f\n        /* \"Meta4Swap_flat.sol\":11913:11934  disputeInfo[_orderId] */\n      0x00\n        /* \"Meta4Swap_flat.sol\":11925:11933  _orderId */\n      dup6\n        /* \"Meta4Swap_flat.sol\":11913:11934  disputeInfo[_orderId] */\n      dup2\n      mstore\n      0x20\n      add\n      swap1\n      dup2\n      mstore\n      0x20\n      add\n      0x00\n      keccak256\n        /* \"Meta4Swap_flat.sol\":11913:11948  disputeInfo[_orderId].buyerResponse */\n      0x00\n      add\n        /* \"Meta4Swap_flat.sol\":11913:11960  disputeInfo[_orderId].buyerResponse = _ipfsHash */\n      swap1\n      dup1\n      mload\n      swap1\n      0x20\n      add\n      swap1\n      tag_225\n      swap3\n      swap2\n      swap1\n      tag_226\n      jump\t// in\n    tag_225:\n      pop\n        /* \"Meta4Swap_flat.sol\":11854:12096  if (msg.sender == orderInfo[_orderId].buyer) {... */\n      jump(tag_227)\n    tag_224:\n        /* \"Meta4Swap_flat.sol\":11995:12004  orderInfo */\n      0x0d\n        /* \"Meta4Swap_flat.sol\":11995:12014  orderInfo[_orderId] */\n      0x00\n        /* \"Meta4Swap_flat.sol\":12005:12013  _orderId */\n      dup5\n        /* \"Meta4Swap_flat.sol\":11995:12014  orderInfo[_orderId] */\n      dup2\n      mstore\n      0x20\n      add\n      swap1\n      dup2\n      mstore\n      0x20\n      add\n      0x00\n      keccak256\n        /* \"Meta4Swap_flat.sol\":11995:12021  orderInfo[_orderId].seller */\n      0x08\n      add\n      0x00\n      swap1\n      sload\n      swap1\n      0x0100\n      exp\n      swap1\n      div\n      0xffffffffffffffffffffffffffffffffffffffff\n      and\n        /* \"Meta4Swap_flat.sol\":11981:12021  msg.sender == orderInfo[_orderId].seller */\n      0xffffffffffffffffffffffffffffffffffffffff\n      and\n        /* \"Meta4Swap_flat.sol\":11981:11991  msg.sender */\n      caller\n        /* \"Meta4Swap_flat.sol\":11981:12021  msg.sender == orderInfo[_orderId].seller */\n      0xffffffffffffffffffffffffffffffffffffffff\n      and\n      eq\n        /* \"Meta4Swap_flat.sol\":11977:12096  if (msg.sender == orderInfo[_orderId].seller) {... */\n      iszero\n      tag_228\n      jumpi\n        /* \"Meta4Swap_flat.sol\":12076:12085  _ipfsHash */\n      dup2\n        /* \"Meta4Swap_flat.sol\":12037:12048  disputeInfo */\n      0x0f\n        /* \"Meta4Swap_flat.sol\":12037:12058  disputeInfo[_orderId] */\n      0x00\n        /* \"Meta4Swap_flat.sol\":12049:12057  _orderId */\n      dup6\n        /* \"Meta4Swap_flat.sol\":12037:12058  disputeInfo[_orderId] */\n      dup2\n      mstore\n      0x20\n      add\n      swap1\n      dup2\n      mstore\n      0x20\n      add\n      0x00\n      keccak256\n        /* \"Meta4Swap_flat.sol\":12037:12073  disputeInfo[_orderId].sellerResponse */\n      0x01\n      add\n        /* \"Meta4Swap_flat.sol\":12037:12085  disputeInfo[_orderId].sellerResponse = _ipfsHash */\n      swap1\n      dup1\n      mload\n      swap1\n      0x20\n      add\n      swap1\n      tag_229\n      swap3\n      swap2\n      swap1\n      tag_226\n      jump\t// in\n    tag_229:\n      pop\n        /* \"Meta4Swap_flat.sol\":11977:12096  if (msg.sender == orderInfo[_orderId].seller) {... */\n    tag_228:\n        /* \"Meta4Swap_flat.sol\":11854:12096  if (msg.sender == orderInfo[_orderId].buyer) {... */\n    tag_227:\n        /* \"Meta4Swap_flat.sol\":12111:12135  DisputeUpdated(_orderId) */\n      0x29a00cd7b143153a043355a38ed7fa14305cd81468035c2e2e389897f38980d8\n        /* \"Meta4Swap_flat.sol\":12126:12134  _orderId */\n      dup4\n        /* \"Meta4Swap_flat.sol\":12111:12135  DisputeUpdated(_orderId) */\n      mload(0x40)\n      tag_230\n      swap2\n      swap1\n      tag_59\n      jump\t// in\n    tag_230:\n      mload(0x40)\n      dup1\n      swap2\n      sub\n      swap1\n      log1\n        /* \"Meta4Swap_flat.sol\":11648:12142  function updateDispute(uint256 _orderId, string memory _ipfsHash)... */\n      pop\n      pop\n      pop\n      jump\t// out\n        /* \"Meta4Swap_flat.sol\":1585:1609  uint256 public daoReward */\n    tag_57:\n      sload(0x09)\n      dup2\n      jump\t// out\n        /* \"Meta4Swap_flat.sol\":2807:2853  mapping(address => Profile) public userProfile */\n    tag_64:\n      mstore(0x20, 0x10)\n      dup1\n      0x00\n      mstore\n      keccak256(0x00, 0x40)\n      0x00\n      swap2\n      pop\n      swap1\n      pop\n      dup1\n      0x00\n      add\n      sload\n      swap1\n      dup1\n      0x01\n      add\n      sload\n      swap1\n      dup1\n      0x02\n      add\n      sload\n      swap1\n      pop\n      dup4\n      jump\t// out\n        /* \"Meta4Swap_flat.sol\":1426:1449  address public m4sToken */\n    tag_69:\n      0x05\n      0x00\n      swap1\n      sload\n      swap1\n      0x0100\n      exp\n      swap1\n      div\n      0xffffffffffffffffffffffffffffffffffffffff\n      and\n      dup2\n      jump\t// out\n        /* \"Meta4Swap_flat.sol\":1250:1275  uint256 public orderCount */\n    tag_74:\n      sload(0x00)\n      dup2\n      jump\t// out\n        /* \"Meta4Swap_flat.sol\":1622:1643  uint256 public minFee */\n    tag_78:\n      sload(0x0a)\n      dup2\n      jump\t// out\n        /* \"Meta4Swap_flat.sol\":13913:14450  function updateAddress(uint256 _value, address _newAddress) public {... */\n    tag_84:\n        /* \"Meta4Swap_flat.sol\":14012:14017  admin */\n      0x03\n      0x00\n      swap1\n      sload\n      swap1\n      0x0100\n      exp\n      swap1\n      div\n      0xffffffffffffffffffffffffffffffffffffffff\n      and\n        /* \"Meta4Swap_flat.sol\":13998:14017  msg.sender == admin */\n      0xffffffffffffffffffffffffffffffffffffffff\n      and\n        /* \"Meta4Swap_flat.sol\":13998:14008  msg.sender */\n      caller\n        /* \"Meta4Swap_flat.sol\":13998:14017  msg.sender == admin */\n      0xffffffffffffffffffffffffffffffffffffffff\n      and\n      eq\n        /* \"Meta4Swap_flat.sol\":13990:14053  require(msg.sender == admin, \"Only company can change address\") */\n      tag_232\n      jumpi\n      mload(0x40)\n      0x08c379a000000000000000000000000000000000000000000000000000000000\n      dup2\n      mstore\n      0x04\n      add\n      tag_233\n      swap1\n      tag_234\n      jump\t// in\n    tag_233:\n      mload(0x40)\n      dup1\n      swap2\n      sub\n      swap1\n      revert\n    tag_232:\n        /* \"Meta4Swap_flat.sol\":14077:14078  0 */\n      0x00\n        /* \"Meta4Swap_flat.sol\":14067:14073  _value */\n      dup3\n        /* \"Meta4Swap_flat.sol\":14067:14078  _value == 0 */\n      eq\n        /* \"Meta4Swap_flat.sol\":14063:14444  if (_value == 0) {... */\n      iszero\n      tag_235\n      jumpi\n        /* \"Meta4Swap_flat.sol\":14126:14137  _newAddress */\n      dup1\n        /* \"Meta4Swap_flat.sol\":14120:14123  dao */\n      0x04\n      0x00\n        /* \"Meta4Swap_flat.sol\":14120:14137  dao = _newAddress */\n      0x0100\n      exp\n      dup2\n      sload\n      dup2\n      0xffffffffffffffffffffffffffffffffffffffff\n      mul\n      not\n      and\n      swap1\n      dup4\n      0xffffffffffffffffffffffffffffffffffffffff\n      and\n      mul\n      or\n      swap1\n      sstore\n      pop\n        /* \"Meta4Swap_flat.sol\":14063:14444  if (_value == 0) {... */\n      jump(tag_236)\n    tag_235:\n        /* \"Meta4Swap_flat.sol\":14168:14169  1 */\n      0x01\n        /* \"Meta4Swap_flat.sol\":14158:14164  _value */\n      dup3\n        /* \"Meta4Swap_flat.sol\":14158:14169  _value == 1 */\n      eq\n        /* \"Meta4Swap_flat.sol\":14154:14444  if (_value == 1) {... */\n      iszero\n      tag_237\n      jumpi\n        /* \"Meta4Swap_flat.sol\":14221:14232  _newAddress */\n      dup1\n        /* \"Meta4Swap_flat.sol\":14213:14218  admin */\n      0x03\n      0x00\n        /* \"Meta4Swap_flat.sol\":14213:14232  admin = _newAddress */\n      0x0100\n      exp\n      dup2\n      sload\n      dup2\n      0xffffffffffffffffffffffffffffffffffffffff\n      mul\n      not\n      and\n      swap1\n      dup4\n      0xffffffffffffffffffffffffffffffffffffffff\n      and\n      mul\n      or\n      swap1\n      sstore\n      pop\n        /* \"Meta4Swap_flat.sol\":14154:14444  if (_value == 1) {... */\n      jump(tag_238)\n    tag_237:\n        /* \"Meta4Swap_flat.sol\":14262:14263  2 */\n      0x02\n        /* \"Meta4Swap_flat.sol\":14252:14258  _value */\n      dup3\n        /* \"Meta4Swap_flat.sol\":14252:14263  _value == 2 */\n      eq\n        /* \"Meta4Swap_flat.sol\":14248:14444  if (_value == 2) {... */\n      iszero\n      tag_239\n      jumpi\n        /* \"Meta4Swap_flat.sol\":14318:14329  _newAddress */\n      dup1\n        /* \"Meta4Swap_flat.sol\":14307:14315  m4sToken */\n      0x05\n      0x00\n        /* \"Meta4Swap_flat.sol\":14307:14329  m4sToken = _newAddress */\n      0x0100\n      exp\n      dup2\n      sload\n      dup2\n      0xffffffffffffffffffffffffffffffffffffffff\n      mul\n      not\n      and\n      swap1\n      dup4\n      0xffffffffffffffffffffffffffffffffffffffff\n      and\n      mul\n      or\n      swap1\n      sstore\n      pop\n        /* \"Meta4Swap_flat.sol\":14248:14444  if (_value == 2) {... */\n      jump(tag_240)\n    tag_239:\n        /* \"Meta4Swap_flat.sol\":14360:14361  3 */\n      0x03\n        /* \"Meta4Swap_flat.sol\":14350:14356  _value */\n      dup3\n        /* \"Meta4Swap_flat.sol\":14350:14361  _value == 3 */\n      eq\n        /* \"Meta4Swap_flat.sol\":14346:14444  if (_value == 3) {... */\n      iszero\n      tag_241\n      jumpi\n        /* \"Meta4Swap_flat.sol\":14422:14433  _newAddress */\n      dup1\n        /* \"Meta4Swap_flat.sol\":14410:14419  priceFeed */\n      0x06\n      0x00\n        /* \"Meta4Swap_flat.sol\":14410:14433  priceFeed = _newAddress */\n      0x0100\n      exp\n      dup2\n      sload\n      dup2\n      0xffffffffffffffffffffffffffffffffffffffff\n      mul\n      not\n      and\n      swap1\n      dup4\n      0xffffffffffffffffffffffffffffffffffffffff\n      and\n      mul\n      or\n      swap1\n      sstore\n      pop\n        /* \"Meta4Swap_flat.sol\":14346:14444  if (_value == 3) {... */\n    tag_241:\n        /* \"Meta4Swap_flat.sol\":14248:14444  if (_value == 2) {... */\n    tag_240:\n        /* \"Meta4Swap_flat.sol\":14154:14444  if (_value == 1) {... */\n    tag_238:\n        /* \"Meta4Swap_flat.sol\":14063:14444  if (_value == 0) {... */\n    tag_236:\n        /* \"Meta4Swap_flat.sol\":13913:14450  function updateAddress(uint256 _value, address _newAddress) public {... */\n      pop\n      pop\n      jump\t// out\n        /* \"Meta4Swap_flat.sol\":14456:14656  function updateRewardsisLive(bool _state) public {... */\n    tag_89:\n        /* \"Meta4Swap_flat.sol\":14550:14555  admin */\n      0x03\n      0x00\n      swap1\n      sload\n      swap1\n      0x0100\n      exp\n      swap1\n      div\n      0xffffffffffffffffffffffffffffffffffffffff\n      and\n        /* \"Meta4Swap_flat.sol\":14536:14555  msg.sender == admin */\n      0xffffffffffffffffffffffffffffffffffffffff\n      and\n        /* \"Meta4Swap_flat.sol\":14536:14546  msg.sender */\n      caller\n        /* \"Meta4Swap_flat.sol\":14536:14555  msg.sender == admin */\n      0xffffffffffffffffffffffffffffffffffffffff\n      and\n      eq\n        /* \"Meta4Swap_flat.sol\":14515:14619  require(... */\n      tag_243\n      jumpi\n      mload(0x40)\n      0x08c379a000000000000000000000000000000000000000000000000000000000\n      dup2\n      mstore\n      0x04\n      add\n      tag_244\n      swap1\n      tag_245\n      jump\t// in\n    tag_244:\n      mload(0x40)\n      dup1\n      swap2\n      sub\n      swap1\n      revert\n    tag_243:\n        /* \"Meta4Swap_flat.sol\":14643:14649  _state */\n      dup1\n        /* \"Meta4Swap_flat.sol\":14629:14640  rewardsLive */\n      0x0b\n      0x00\n        /* \"Meta4Swap_flat.sol\":14629:14649  rewardsLive = _state */\n      0x0100\n      exp\n      dup2\n      sload\n      dup2\n      0xff\n      mul\n      not\n      and\n      swap1\n      dup4\n      iszero\n      iszero\n      mul\n      or\n      swap1\n      sstore\n      pop\n        /* \"Meta4Swap_flat.sol\":14456:14656  function updateRewardsisLive(bool _state) public {... */\n      pop\n      jump\t// out\n        /* \"Meta4Swap_flat.sol\":2628:2689  mapping(address => mapping(uint256 => bool)) public offerInfo */\n    tag_94:\n      mstore(0x20, 0x0e)\n      dup2\n      0x00\n      mstore\n      mstore(0x20, keccak256(0x00, 0x40))\n      dup1\n      0x00\n      mstore\n      keccak256(0x00, 0x40)\n      0x00\n      swap2\n      pop\n      swap2\n      pop\n      swap1\n      sload\n      swap1\n      0x0100\n      exp\n      swap1\n      div\n      0xff\n      and\n      dup2\n      jump\t// out\n        /* \"Meta4Swap_flat.sol\":10429:11147  function cancel(uint256 _orderId) public {... */\n    tag_100:\n        /* \"Meta4Swap_flat.sol\":10515:10524  orderInfo */\n      0x0d\n        /* \"Meta4Swap_flat.sol\":10515:10534  orderInfo[_orderId] */\n      0x00\n        /* \"Meta4Swap_flat.sol\":10525:10533  _orderId */\n      dup3\n        /* \"Meta4Swap_flat.sol\":10515:10534  orderInfo[_orderId] */\n      dup2\n      mstore\n      0x20\n      add\n      swap1\n      dup2\n      mstore\n      0x20\n      add\n      0x00\n      keccak256\n        /* \"Meta4Swap_flat.sol\":10515:10541  orderInfo[_orderId].seller */\n      0x08\n      add\n      0x00\n      swap1\n      sload\n      swap1\n      0x0100\n      exp\n      swap1\n      div\n      0xffffffffffffffffffffffffffffffffffffffff\n      and\n        /* \"Meta4Swap_flat.sol\":10501:10541  msg.sender == orderInfo[_orderId].seller */\n      0xffffffffffffffffffffffffffffffffffffffff\n      and\n        /* \"Meta4Swap_flat.sol\":10501:10511  msg.sender */\n      caller\n        /* \"Meta4Swap_flat.sol\":10501:10541  msg.sender == orderInfo[_orderId].seller */\n      0xffffffffffffffffffffffffffffffffffffffff\n      and\n      eq\n        /* \"Meta4Swap_flat.sol\":10480:10589  require(... */\n      tag_247\n      jumpi\n      mload(0x40)\n      0x08c379a000000000000000000000000000000000000000000000000000000000\n      dup2\n      mstore\n      0x04\n      add\n      tag_248\n      swap1\n      tag_249\n      jump\t// in\n    tag_248:\n      mload(0x40)\n      dup1\n      swap2\n      sub\n      swap1\n      revert\n    tag_247:\n        /* \"Meta4Swap_flat.sol\":10637:10641  true */\n      0x01\n        /* \"Meta4Swap_flat.sol\":10607:10641  orderInfo[_orderId].isLive == true */\n      iszero\n      iszero\n        /* \"Meta4Swap_flat.sol\":10607:10616  orderInfo */\n      0x0d\n        /* \"Meta4Swap_flat.sol\":10607:10626  orderInfo[_orderId] */\n      0x00\n        /* \"Meta4Swap_flat.sol\":10617:10625  _orderId */\n      dup4\n        /* \"Meta4Swap_flat.sol\":10607:10626  orderInfo[_orderId] */\n      dup2\n      mstore\n      0x20\n      add\n      swap1\n      dup2\n      mstore\n      0x20\n      add\n      0x00\n      keccak256\n        /* \"Meta4Swap_flat.sol\":10607:10633  orderInfo[_orderId].isLive */\n      0x07\n      add\n      0x02\n      swap1\n      sload\n      swap1\n      0x0100\n      exp\n      swap1\n      div\n      0xff\n      and\n        /* \"Meta4Swap_flat.sol\":10607:10641  orderInfo[_orderId].isLive == true */\n      iszero\n      iszero\n      eq\n        /* \"Meta4Swap_flat.sol\":10599:10664  require(orderInfo[_orderId].isLive == true, \"Order isn't active\") */\n      tag_250\n      jumpi\n      mload(0x40)\n      0x08c379a000000000000000000000000000000000000000000000000000000000\n      dup2\n      mstore\n      0x04\n      add\n      tag_251\n      swap1\n      tag_252\n      jump\t// in\n    tag_251:\n      mload(0x40)\n      dup1\n      swap2\n      sub\n      swap1\n      revert\n    tag_250:\n        /* \"Meta4Swap_flat.sol\":10708:10709  2 */\n      0x02\n        /* \"Meta4Swap_flat.sol\":10674:10683  orderInfo */\n      0x0d\n        /* \"Meta4Swap_flat.sol\":10674:10693  orderInfo[_orderId] */\n      0x00\n        /* \"Meta4Swap_flat.sol\":10684:10692  _orderId */\n      dup4\n        /* \"Meta4Swap_flat.sol\":10674:10693  orderInfo[_orderId] */\n      dup2\n      mstore\n      0x20\n      add\n      swap1\n      dup2\n      mstore\n      0x20\n      add\n      0x00\n      keccak256\n        /* \"Meta4Swap_flat.sol\":10674:10705  orderInfo[_orderId].sellerState */\n      0x07\n      add\n      0x01\n        /* \"Meta4Swap_flat.sol\":10674:10709  orderInfo[_orderId].sellerState = 2 */\n      0x0100\n      exp\n      dup2\n      sload\n      dup2\n      0xff\n      mul\n      not\n      and\n      swap1\n      dup4\n      0xff\n      and\n      mul\n      or\n      swap1\n      sstore\n      pop\n        /* \"Meta4Swap_flat.sol\":10752:10753  2 */\n      0x02\n        /* \"Meta4Swap_flat.sol\":10719:10728  orderInfo */\n      0x0d\n        /* \"Meta4Swap_flat.sol\":10719:10738  orderInfo[_orderId] */\n      0x00\n        /* \"Meta4Swap_flat.sol\":10729:10737  _orderId */\n      dup4\n        /* \"Meta4Swap_flat.sol\":10719:10738  orderInfo[_orderId] */\n      dup2\n      mstore\n      0x20\n      add\n      swap1\n      dup2\n      mstore\n      0x20\n      add\n      0x00\n      keccak256\n        /* \"Meta4Swap_flat.sol\":10719:10749  orderInfo[_orderId].buyerState */\n      0x07\n      add\n      0x00\n        /* \"Meta4Swap_flat.sol\":10719:10753  orderInfo[_orderId].buyerState = 2 */\n      0x0100\n      exp\n      dup2\n      sload\n      dup2\n      0xff\n      mul\n      not\n      and\n      swap1\n      dup4\n      0xff\n      and\n      mul\n      or\n      swap1\n      sstore\n      pop\n        /* \"Meta4Swap_flat.sol\":10792:10797  false */\n      0x00\n        /* \"Meta4Swap_flat.sol\":10763:10772  orderInfo */\n      0x0d\n        /* \"Meta4Swap_flat.sol\":10763:10782  orderInfo[_orderId] */\n      0x00\n        /* \"Meta4Swap_flat.sol\":10773:10781  _orderId */\n      dup4\n        /* \"Meta4Swap_flat.sol\":10763:10782  orderInfo[_orderId] */\n      dup2\n      mstore\n      0x20\n      add\n      swap1\n      dup2\n      mstore\n      0x20\n      add\n      0x00\n      keccak256\n        /* \"Meta4Swap_flat.sol\":10763:10789  orderInfo[_orderId].isLive */\n      0x07\n      add\n      0x02\n        /* \"Meta4Swap_flat.sol\":10763:10797  orderInfo[_orderId].isLive = false */\n      0x0100\n      exp\n      dup2\n      sload\n      dup2\n      0xff\n      mul\n      not\n      and\n      swap1\n      dup4\n      iszero\n      iszero\n      mul\n      or\n      swap1\n      sstore\n      pop\n        /* \"Meta4Swap_flat.sol\":10861:10862  1 */\n      0x01\n        /* \"Meta4Swap_flat.sol\":10808:10819  userProfile */\n      0x10\n        /* \"Meta4Swap_flat.sol\":10808:10847  userProfile[orderInfo[_orderId].seller] */\n      0x00\n        /* \"Meta4Swap_flat.sol\":10820:10829  orderInfo */\n      0x0d\n        /* \"Meta4Swap_flat.sol\":10820:10839  orderInfo[_orderId] */\n      0x00\n        /* \"Meta4Swap_flat.sol\":10830:10838  _orderId */\n      dup6\n        /* \"Meta4Swap_flat.sol\":10820:10839  orderInfo[_orderId] */\n      dup2\n      mstore\n      0x20\n      add\n      swap1\n      dup2\n      mstore\n      0x20\n      add\n      0x00\n      keccak256\n        /* \"Meta4Swap_flat.sol\":10820:10846  orderInfo[_orderId].seller */\n      0x08\n      add\n      0x00\n      swap1\n      sload\n      swap1\n      0x0100\n      exp\n      swap1\n      div\n      0xffffffffffffffffffffffffffffffffffffffff\n      and\n        /* \"Meta4Swap_flat.sol\":10808:10847  userProfile[orderInfo[_orderId].seller] */\n      0xffffffffffffffffffffffffffffffffffffffff\n      and\n      0xffffffffffffffffffffffffffffffffffffffff\n      and\n      dup2\n      mstore\n      0x20\n      add\n      swap1\n      dup2\n      mstore\n      0x20\n      add\n      0x00\n      keccak256\n        /* \"Meta4Swap_flat.sol\":10808:10857  userProfile[orderInfo[_orderId].seller].cancelled */\n      0x00\n      add\n      0x00\n        /* \"Meta4Swap_flat.sol\":10808:10862  userProfile[orderInfo[_orderId].seller].cancelled += 1 */\n      dup3\n      dup3\n      sload\n      tag_253\n      swap2\n      swap1\n      tag_254\n      jump\t// in\n    tag_253:\n      swap3\n      pop\n      pop\n      dup2\n      swap1\n      sstore\n      pop\n        /* \"Meta4Swap_flat.sol\":10874:10883  bool sent */\n      0x00\n        /* \"Meta4Swap_flat.sol\":10885:10902  bytes memory data */\n      dup1\n        /* \"Meta4Swap_flat.sol\":10906:10915  orderInfo */\n      0x0d\n        /* \"Meta4Swap_flat.sol\":10906:10925  orderInfo[_orderId] */\n      0x00\n        /* \"Meta4Swap_flat.sol\":10916:10924  _orderId */\n      dup5\n        /* \"Meta4Swap_flat.sol\":10906:10925  orderInfo[_orderId] */\n      dup2\n      mstore\n      0x20\n      add\n      swap1\n      dup2\n      mstore\n      0x20\n      add\n      0x00\n      keccak256\n        /* \"Meta4Swap_flat.sol\":10906:10931  orderInfo[_orderId].buyer */\n      0x07\n      add\n      0x03\n      swap1\n      sload\n      swap1\n      0x0100\n      exp\n      swap1\n      div\n      0xffffffffffffffffffffffffffffffffffffffff\n      and\n        /* \"Meta4Swap_flat.sol\":10906:10936  orderInfo[_orderId].buyer.call */\n      0xffffffffffffffffffffffffffffffffffffffff\n      and\n        /* \"Meta4Swap_flat.sol\":10958:10967  orderInfo */\n      0x0d\n        /* \"Meta4Swap_flat.sol\":10958:10977  orderInfo[_orderId] */\n      0x00\n        /* \"Meta4Swap_flat.sol\":10968:10976  _orderId */\n      dup6\n        /* \"Meta4Swap_flat.sol\":10958:10977  orderInfo[_orderId] */\n      dup2\n      mstore\n      0x20\n      add\n      swap1\n      dup2\n      mstore\n      0x20\n      add\n      0x00\n      keccak256\n        /* \"Meta4Swap_flat.sol\":10958:10988  orderInfo[_orderId].orderTotal */\n      0x02\n      add\n      sload\n        /* \"Meta4Swap_flat.sol\":10906:11003  orderInfo[_orderId].buyer.call{... */\n      mload(0x40)\n      tag_255\n      swap1\n      tag_256\n      jump\t// in\n    tag_255:\n      0x00\n      mload(0x40)\n      dup1\n      dup4\n      sub\n      dup2\n      dup6\n      dup8\n      gas\n      call\n      swap3\n      pop\n      pop\n      pop\n      returndatasize\n      dup1\n      0x00\n      dup2\n      eq\n      tag_259\n      jumpi\n      mload(0x40)\n      swap2\n      pop\n      and(add(returndatasize, 0x3f), not(0x1f))\n      dup3\n      add\n      0x40\n      mstore\n      returndatasize\n      dup3\n      mstore\n      returndatasize\n      0x00\n      0x20\n      dup5\n      add\n      returndatacopy\n      jump(tag_258)\n    tag_259:\n      0x60\n      swap2\n      pop\n    tag_258:\n      pop\n        /* \"Meta4Swap_flat.sol\":10873:11003  (bool sent, bytes memory data) = orderInfo[_orderId].buyer.call{... */\n      swap2\n      pop\n      swap2\n      pop\n        /* \"Meta4Swap_flat.sol\":11035:11039  sent */\n      dup2\n        /* \"Meta4Swap_flat.sol\":11027:11064  require(sent, \"Failed to Send Ether\") */\n      tag_260\n      jumpi\n      mload(0x40)\n      0x08c379a000000000000000000000000000000000000000000000000000000000\n      dup2\n      mstore\n      0x04\n      add\n      tag_261\n      swap1\n      tag_262\n      jump\t// in\n    tag_261:\n      mload(0x40)\n      dup1\n      swap2\n      sub\n      swap1\n      revert\n    tag_260:\n        /* \"Meta4Swap_flat.sol\":11101:11102  0 */\n      0x00\n        /* \"Meta4Swap_flat.sol\":11075:11084  orderInfo */\n      0x0d\n        /* \"Meta4Swap_flat.sol\":11075:11094  orderInfo[_orderId] */\n      0x00\n        /* \"Meta4Swap_flat.sol\":11085:11093  _orderId */\n      dup6\n        /* \"Meta4Swap_flat.sol\":11075:11094  orderInfo[_orderId] */\n      dup2\n      mstore\n      0x20\n      add\n      swap1\n      dup2\n      mstore\n      0x20\n      add\n      0x00\n      keccak256\n        /* \"Meta4Swap_flat.sol\":11075:11098  orderInfo[_orderId].fee */\n      0x04\n      add\n        /* \"Meta4Swap_flat.sol\":11075:11102  orderInfo[_orderId].fee = 0 */\n      dup2\n      swap1\n      sstore\n      pop\n        /* \"Meta4Swap_flat.sol\":11118:11140  OrderUpdated(_orderId) */\n      0xb8b459bc0688c37baf5f735d17f1711684bc14ab7db116f88bc18bf409b9309a\n        /* \"Meta4Swap_flat.sol\":11131:11139  _orderId */\n      dup4\n        /* \"Meta4Swap_flat.sol\":11118:11140  OrderUpdated(_orderId) */\n      mload(0x40)\n      tag_263\n      swap2\n      swap1\n      tag_59\n      jump\t// in\n    tag_263:\n      mload(0x40)\n      dup1\n      swap2\n      sub\n      swap1\n      log1\n        /* \"Meta4Swap_flat.sol\":10470:11147  {... */\n      pop\n      pop\n        /* \"Meta4Swap_flat.sol\":10429:11147  function cancel(uint256 _orderId) public {... */\n      pop\n      jump\t// out\n        /* \"Meta4Swap_flat.sol\":1402:1420  address public dao */\n    tag_103:\n      0x04\n      0x00\n      swap1\n      sload\n      swap1\n      0x0100\n      exp\n      swap1\n      div\n      0xffffffffffffffffffffffffffffffffffffffff\n      and\n      dup2\n      jump\t// out\n        /* \"Meta4Swap_flat.sol\":1542:1569  uint256 public sellerReward */\n    tag_107:\n      sload(0x08)\n      dup2\n      jump\t// out\n        /* \"Meta4Swap_flat.sol\":1311:1340  uint256 public marketplaceFee */\n    tag_111:\n      sload(0x02)\n      dup2\n      jump\t// out\n        /* \"Meta4Swap_flat.sol\":2545:2587  mapping(uint256 => Order) public orderInfo */\n    tag_116:\n      mstore(0x20, 0x0d)\n      dup1\n      0x00\n      mstore\n      keccak256(0x00, 0x40)\n      0x00\n      swap2\n      pop\n      swap1\n      pop\n      dup1\n      0x00\n      add\n      sload\n      swap1\n      dup1\n      0x01\n      add\n      sload\n      swap1\n      dup1\n      0x02\n      add\n      sload\n      swap1\n      dup1\n      0x03\n      add\n      sload\n      swap1\n      dup1\n      0x04\n      add\n      sload\n      swap1\n      dup1\n      0x05\n      add\n      sload\n      swap1\n      dup1\n      0x06\n      add\n      sload\n      swap1\n      dup1\n      0x07\n      add\n      0x00\n      swap1\n      sload\n      swap1\n      0x0100\n      exp\n      swap1\n      div\n      0xff\n      and\n      swap1\n      dup1\n      0x07\n      add\n      0x01\n      swap1\n      sload\n      swap1\n      0x0100\n      exp\n      swap1\n      div\n      0xff\n      and\n      swap1\n      dup1\n      0x07\n      add\n      0x02\n      swap1\n      sload\n      swap1\n      0x0100\n      exp\n      swap1\n      div\n      0xff\n      and\n      swap1\n      dup1\n      0x07\n      add\n      0x03\n      swap1\n      sload\n      swap1\n      0x0100\n      exp\n      swap1\n      div\n      0xffffffffffffffffffffffffffffffffffffffff\n      and\n      swap1\n      dup1\n      0x08\n      add\n      0x00\n      swap1\n      sload\n      swap1\n      0x0100\n      exp\n      swap1\n      div\n      0xffffffffffffffffffffffffffffffffffffffff\n      and\n      swap1\n      pop\n      dup13\n      jump\t// out\n        /* \"Meta4Swap_flat.sol\":1281:1305  uint256 public itemCount */\n    tag_121:\n      sload(0x01)\n      dup2\n      jump\t// out\n        /* \"Meta4Swap_flat.sol\":4221:4840  function create(... */\n    tag_127:\n        /* \"Meta4Swap_flat.sol\":4367:4374  uint256 */\n      0x00\n        /* \"Meta4Swap_flat.sol\":4386:4395  itemCount */\n      0x01\n      0x00\n        /* \"Meta4Swap_flat.sol\":4386:4397  itemCount++ */\n      dup2\n      sload\n      dup1\n      swap3\n      swap2\n      swap1\n      tag_265\n      swap1\n      tag_266\n      jump\t// in\n    tag_265:\n      swap2\n      swap1\n      pop\n      sstore\n      pop\n        /* \"Meta4Swap_flat.sol\":4407:4424  Item memory _item */\n      tag_267\n      tag_268\n      jump\t// in\n    tag_267:\n        /* \"Meta4Swap_flat.sol\":4445:4454  itemCount */\n      sload(0x01)\n        /* \"Meta4Swap_flat.sol\":4434:4439  _item */\n      dup2\n        /* \"Meta4Swap_flat.sol\":4434:4442  _item.id */\n      0x00\n      add\n        /* \"Meta4Swap_flat.sol\":4434:4454  _item.id = itemCount */\n      dup2\n      dup2\n      mstore\n      pop\n      pop\n        /* \"Meta4Swap_flat.sol\":4481:4490  _metadata */\n      dup6\n        /* \"Meta4Swap_flat.sol\":4464:4469  _item */\n      dup2\n        /* \"Meta4Swap_flat.sol\":4464:4478  _item.metadata */\n      0x20\n      add\n        /* \"Meta4Swap_flat.sol\":4464:4490  _item.metadata = _metadata */\n      dup2\n      swap1\n      mstore\n      pop\n        /* \"Meta4Swap_flat.sol\":4515:4521  _state */\n      dup5\n        /* \"Meta4Swap_flat.sol\":4500:4505  _item */\n      dup2\n        /* \"Meta4Swap_flat.sol\":4500:4512  _item.isLive */\n      0x40\n      add\n        /* \"Meta4Swap_flat.sol\":4500:4521  _item.isLive = _state */\n      swap1\n      iszero\n      iszero\n      swap1\n      dup2\n      iszero\n      iszero\n      dup2\n      mstore\n      pop\n      pop\n        /* \"Meta4Swap_flat.sol\":4545:4551  _price */\n      dup4\n        /* \"Meta4Swap_flat.sol\":4531:4536  _item */\n      dup2\n        /* \"Meta4Swap_flat.sol\":4531:4542  _item.price */\n      0x60\n      add\n        /* \"Meta4Swap_flat.sol\":4531:4551  _item.price = _price */\n      dup2\n      dup2\n      mstore\n      pop\n      pop\n        /* \"Meta4Swap_flat.sol\":4575:4585  msg.sender */\n      caller\n        /* \"Meta4Swap_flat.sol\":4561:4566  _item */\n      dup2\n        /* \"Meta4Swap_flat.sol\":4561:4572  _item.owner */\n      0x80\n      add\n        /* \"Meta4Swap_flat.sol\":4561:4585  _item.owner = msg.sender */\n      swap1\n      0xffffffffffffffffffffffffffffffffffffffff\n      and\n      swap1\n      dup2\n      0xffffffffffffffffffffffffffffffffffffffff\n      and\n      dup2\n      mstore\n      pop\n      pop\n        /* \"Meta4Swap_flat.sol\":4615:4627  _serviceType */\n      dup3\n        /* \"Meta4Swap_flat.sol\":4595:4600  _item */\n      dup2\n        /* \"Meta4Swap_flat.sol\":4595:4612  _item.serviceType */\n      0xa0\n      add\n        /* \"Meta4Swap_flat.sol\":4595:4627  _item.serviceType = _serviceType */\n      dup2\n      dup2\n      mstore\n      pop\n      pop\n        /* \"Meta4Swap_flat.sol\":4659:4664  _item */\n      dup1\n        /* \"Meta4Swap_flat.sol\":4638:4646  itemInfo */\n      0x0c\n        /* \"Meta4Swap_flat.sol\":4638:4656  itemInfo[_item.id] */\n      0x00\n        /* \"Meta4Swap_flat.sol\":4647:4652  _item */\n      dup4\n        /* \"Meta4Swap_flat.sol\":4647:4655  _item.id */\n      0x00\n      add\n      mload\n        /* \"Meta4Swap_flat.sol\":4638:4656  itemInfo[_item.id] */\n      dup2\n      mstore\n      0x20\n      add\n      swap1\n      dup2\n      mstore\n      0x20\n      add\n      0x00\n      keccak256\n        /* \"Meta4Swap_flat.sol\":4638:4664  itemInfo[_item.id] = _item */\n      0x00\n      dup3\n      add\n      mload\n      dup2\n      0x00\n      add\n      sstore\n      0x20\n      dup3\n      add\n      mload\n      dup2\n      0x01\n      add\n      swap1\n      dup1\n      mload\n      swap1\n      0x20\n      add\n      swap1\n      tag_269\n      swap3\n      swap2\n      swap1\n      tag_226\n      jump\t// in\n    tag_269:\n      pop\n      0x40\n      dup3\n      add\n      mload\n      dup2\n      0x02\n      add\n      exp(0x0100, 0x00)\n      dup2\n      sload\n      dup2\n      0xff\n      mul\n      not\n      and\n      swap1\n      dup4\n      iszero\n      iszero\n      mul\n      or\n      swap1\n      sstore\n      pop\n      0x60\n      dup3\n      add\n      mload\n      dup2\n      0x03\n      add\n      sstore\n      0x80\n      dup3\n      add\n      mload\n      dup2\n      0x04\n      add\n      exp(0x0100, 0x00)\n      dup2\n      sload\n      dup2\n      0xffffffffffffffffffffffffffffffffffffffff\n      mul\n      not\n      and\n      swap1\n      dup4\n      0xffffffffffffffffffffffffffffffffffffffff\n      and\n      mul\n      or\n      swap1\n      sstore\n      pop\n      0xa0\n      dup3\n      add\n      mload\n      dup2\n      0x05\n      add\n      sstore\n      swap1\n      pop\n      pop\n        /* \"Meta4Swap_flat.sol\":4680:4807  ItemCreated(... */\n      0x1603f20f721362b0691bb408edb3cf01409cd56da9edd4627b178750b7dd49a8\n        /* \"Meta4Swap_flat.sol\":4705:4710  _item */\n      dup2\n        /* \"Meta4Swap_flat.sol\":4705:4713  _item.id */\n      0x00\n      add\n      mload\n        /* \"Meta4Swap_flat.sol\":4727:4732  _item */\n      dup3\n        /* \"Meta4Swap_flat.sol\":4727:4738  _item.owner */\n      0x80\n      add\n      mload\n        /* \"Meta4Swap_flat.sol\":4752:4757  _item */\n      dup4\n        /* \"Meta4Swap_flat.sol\":4752:4766  _item.metadata */\n      0x20\n      add\n      mload\n        /* \"Meta4Swap_flat.sol\":4780:4785  _item */\n      dup5\n        /* \"Meta4Swap_flat.sol\":4780:4797  _item.serviceType */\n      0xa0\n      add\n      mload\n        /* \"Meta4Swap_flat.sol\":4680:4807  ItemCreated(... */\n      mload(0x40)\n      tag_270\n      swap5\n      swap4\n      swap3\n      swap2\n      swap1\n      tag_271\n      jump\t// in\n    tag_270:\n      mload(0x40)\n      dup1\n      swap2\n      sub\n      swap1\n      log1\n        /* \"Meta4Swap_flat.sol\":4825:4830  _item */\n      dup1\n        /* \"Meta4Swap_flat.sol\":4825:4833  _item.id */\n      0x00\n      add\n      mload\n        /* \"Meta4Swap_flat.sol\":4818:4833  return _item.id */\n      swap2\n      pop\n      pop\n        /* \"Meta4Swap_flat.sol\":4221:4840  function create(... */\n      swap5\n      swap4\n      pop\n      pop\n      pop\n      pop\n      jump\t// out\n        /* \"Meta4Swap_flat.sol\":1455:1479  address public priceFeed */\n    tag_131:\n      0x06\n      0x00\n      swap1\n      sload\n      swap1\n      0x0100\n      exp\n      swap1\n      div\n      0xffffffffffffffffffffffffffffffffffffffff\n      and\n      dup2\n      jump\t// out\n        /* \"Meta4Swap_flat.sol\":6470:6958  function offer(uint256 _itemId) public {... */\n    tag_136:\n        /* \"Meta4Swap_flat.sol\":6553:6557  true */\n      0x01\n        /* \"Meta4Swap_flat.sol\":6527:6557  itemInfo[_itemId].isLive==true */\n      iszero\n      iszero\n        /* \"Meta4Swap_flat.sol\":6527:6535  itemInfo */\n      0x0c\n        /* \"Meta4Swap_flat.sol\":6527:6544  itemInfo[_itemId] */\n      0x00\n        /* \"Meta4Swap_flat.sol\":6536:6543  _itemId */\n      dup4\n        /* \"Meta4Swap_flat.sol\":6527:6544  itemInfo[_itemId] */\n      dup2\n      mstore\n      0x20\n      add\n      swap1\n      dup2\n      mstore\n      0x20\n      add\n      0x00\n      keccak256\n        /* \"Meta4Swap_flat.sol\":6527:6551  itemInfo[_itemId].isLive */\n      0x02\n      add\n      0x00\n      swap1\n      sload\n      swap1\n      0x0100\n      exp\n      swap1\n      div\n      0xff\n      and\n        /* \"Meta4Swap_flat.sol\":6527:6557  itemInfo[_itemId].isLive==true */\n      iszero\n      iszero\n      eq\n        /* \"Meta4Swap_flat.sol\":6519:6575  require(itemInfo[_itemId].isLive==true, \"Not available\") */\n      tag_273\n      jumpi\n      mload(0x40)\n      0x08c379a000000000000000000000000000000000000000000000000000000000\n      dup2\n      mstore\n      0x04\n      add\n      tag_274\n      swap1\n      tag_275\n      jump\t// in\n    tag_274:\n      mload(0x40)\n      dup1\n      swap2\n      sub\n      swap1\n      revert\n    tag_273:\n        /* \"Meta4Swap_flat.sol\":6625:6630  false */\n      0x00\n        /* \"Meta4Swap_flat.sol\":6593:6630  offerInfo[msg.sender][_itemId]==false */\n      iszero\n      iszero\n        /* \"Meta4Swap_flat.sol\":6593:6602  offerInfo */\n      0x0e\n        /* \"Meta4Swap_flat.sol\":6593:6614  offerInfo[msg.sender] */\n      0x00\n        /* \"Meta4Swap_flat.sol\":6603:6613  msg.sender */\n      caller\n        /* \"Meta4Swap_flat.sol\":6593:6614  offerInfo[msg.sender] */\n      0xffffffffffffffffffffffffffffffffffffffff\n      and\n      0xffffffffffffffffffffffffffffffffffffffff\n      and\n      dup2\n      mstore\n      0x20\n      add\n      swap1\n      dup2\n      mstore\n      0x20\n      add\n      0x00\n      keccak256\n        /* \"Meta4Swap_flat.sol\":6593:6623  offerInfo[msg.sender][_itemId] */\n      0x00\n        /* \"Meta4Swap_flat.sol\":6615:6622  _itemId */\n      dup4\n        /* \"Meta4Swap_flat.sol\":6593:6623  offerInfo[msg.sender][_itemId] */\n      dup2\n      mstore\n      0x20\n      add\n      swap1\n      dup2\n      mstore\n      0x20\n      add\n      0x00\n      keccak256\n      0x00\n      swap1\n      sload\n      swap1\n      0x0100\n      exp\n      swap1\n      div\n      0xff\n      and\n        /* \"Meta4Swap_flat.sol\":6593:6630  offerInfo[msg.sender][_itemId]==false */\n      iszero\n      iszero\n      eq\n        /* \"Meta4Swap_flat.sol\":6585:6658  require(offerInfo[msg.sender][_itemId]==false, \"User already made offer\") */\n      tag_276\n      jumpi\n      mload(0x40)\n      0x08c379a000000000000000000000000000000000000000000000000000000000\n      dup2\n      mstore\n      0x04\n      add\n      tag_277\n      swap1\n      tag_278\n      jump\t// in\n    tag_277:\n      mload(0x40)\n      dup1\n      swap2\n      sub\n      swap1\n      revert\n    tag_276:\n        /* \"Meta4Swap_flat.sol\":6707:6708  1 */\n      0x01\n        /* \"Meta4Swap_flat.sol\":6676:6684  itemInfo */\n      0x0c\n        /* \"Meta4Swap_flat.sol\":6676:6693  itemInfo[_itemId] */\n      0x00\n        /* \"Meta4Swap_flat.sol\":6685:6692  _itemId */\n      dup4\n        /* \"Meta4Swap_flat.sol\":6676:6693  itemInfo[_itemId] */\n      dup2\n      mstore\n      0x20\n      add\n      swap1\n      dup2\n      mstore\n      0x20\n      add\n      0x00\n      keccak256\n        /* \"Meta4Swap_flat.sol\":6676:6705  itemInfo[_itemId].serviceType */\n      0x05\n      add\n      sload\n        /* \"Meta4Swap_flat.sol\":6676:6708  itemInfo[_itemId].serviceType==1 */\n      eq\n        /* \"Meta4Swap_flat.sol\":6668:6742  require(itemInfo[_itemId].serviceType==1, \"Only tasks can receive offers\") */\n      tag_279\n      jumpi\n      mload(0x40)\n      0x08c379a000000000000000000000000000000000000000000000000000000000\n      dup2\n      mstore\n      0x04\n      add\n      tag_280\n      swap1\n      tag_281\n      jump\t// in\n    tag_280:\n      mload(0x40)\n      dup1\n      swap2\n      sub\n      swap1\n      revert\n    tag_279:\n        /* \"Meta4Swap_flat.sol\":6772:6780  itemInfo */\n      0x0c\n        /* \"Meta4Swap_flat.sol\":6772:6789  itemInfo[_itemId] */\n      0x00\n        /* \"Meta4Swap_flat.sol\":6781:6788  _itemId */\n      dup3\n        /* \"Meta4Swap_flat.sol\":6772:6789  itemInfo[_itemId] */\n      dup2\n      mstore\n      0x20\n      add\n      swap1\n      dup2\n      mstore\n      0x20\n      add\n      0x00\n      keccak256\n        /* \"Meta4Swap_flat.sol\":6772:6795  itemInfo[_itemId].owner */\n      0x04\n      add\n      0x00\n      swap1\n      sload\n      swap1\n      0x0100\n      exp\n      swap1\n      div\n      0xffffffffffffffffffffffffffffffffffffffff\n      and\n        /* \"Meta4Swap_flat.sol\":6760:6795  msg.sender!=itemInfo[_itemId].owner */\n      0xffffffffffffffffffffffffffffffffffffffff\n      and\n        /* \"Meta4Swap_flat.sol\":6760:6770  msg.sender */\n      caller\n        /* \"Meta4Swap_flat.sol\":6760:6795  msg.sender!=itemInfo[_itemId].owner */\n      0xffffffffffffffffffffffffffffffffffffffff\n      and\n      eq\n      iszero\n        /* \"Meta4Swap_flat.sol\":6752:6821  require(msg.sender!=itemInfo[_itemId].owner, \"Buyer cannot be owner\") */\n      tag_282\n      jumpi\n      mload(0x40)\n      0x08c379a000000000000000000000000000000000000000000000000000000000\n      dup2\n      mstore\n      0x04\n      add\n      tag_283\n      swap1\n      tag_284\n      jump\t// in\n    tag_283:\n      mload(0x40)\n      dup1\n      swap2\n      sub\n      swap1\n      revert\n    tag_282:\n        /* \"Meta4Swap_flat.sol\":6863:6867  true */\n      0x01\n        /* \"Meta4Swap_flat.sol\":6832:6841  offerInfo */\n      0x0e\n        /* \"Meta4Swap_flat.sol\":6832:6853  offerInfo[msg.sender] */\n      0x00\n        /* \"Meta4Swap_flat.sol\":6842:6852  msg.sender */\n      caller\n        /* \"Meta4Swap_flat.sol\":6832:6853  offerInfo[msg.sender] */\n      0xffffffffffffffffffffffffffffffffffffffff\n      and\n      0xffffffffffffffffffffffffffffffffffffffff\n      and\n      dup2\n      mstore\n      0x20\n      add\n      swap1\n      dup2\n      mstore\n      0x20\n      add\n      0x00\n      keccak256\n        /* \"Meta4Swap_flat.sol\":6832:6862  offerInfo[msg.sender][_itemId] */\n      0x00\n        /* \"Meta4Swap_flat.sol\":6854:6861  _itemId */\n      dup4\n        /* \"Meta4Swap_flat.sol\":6832:6862  offerInfo[msg.sender][_itemId] */\n      dup2\n      mstore\n      0x20\n      add\n      swap1\n      dup2\n      mstore\n      0x20\n      add\n      0x00\n      keccak256\n      0x00\n        /* \"Meta4Swap_flat.sol\":6832:6867  offerInfo[msg.sender][_itemId]=true */\n      0x0100\n      exp\n      dup2\n      sload\n      dup2\n      0xff\n      mul\n      not\n      and\n      swap1\n      dup4\n      iszero\n      iszero\n      mul\n      or\n      swap1\n      sstore\n      pop\n        /* \"Meta4Swap_flat.sol\":6883:6950  OfferCreated(... */\n      0xb9fc72ab4a132463342124fb4c5ebd64bee8a9874c05d37f846eaf5758eff4b2\n        /* \"Meta4Swap_flat.sol\":6909:6916  _itemId */\n      dup2\n        /* \"Meta4Swap_flat.sol\":6930:6940  msg.sender */\n      caller\n        /* \"Meta4Swap_flat.sol\":6883:6950  OfferCreated(... */\n      mload(0x40)\n      tag_285\n      swap3\n      swap2\n      swap1\n      tag_286\n      jump\t// in\n    tag_285:\n      mload(0x40)\n      dup1\n      swap2\n      sub\n      swap1\n      log1\n        /* \"Meta4Swap_flat.sol\":6470:6958  function offer(uint256 _itemId) public {... */\n      pop\n      jump\t// out\n        /* \"Meta4Swap_flat.sol\":2887:2950  mapping(address => mapping(uint256 => bool)) public ratingCheck */\n    tag_140:\n      mstore(0x20, 0x11)\n      dup2\n      0x00\n      mstore\n      mstore(0x20, keccak256(0x00, 0x40))\n      dup1\n      0x00\n      mstore\n      keccak256(0x00, 0x40)\n      0x00\n      swap2\n      pop\n      swap2\n      pop\n      swap1\n      sload\n      swap1\n      0x0100\n      exp\n      swap1\n      div\n      0xff\n      and\n      dup2\n      jump\t// out\n        /* \"Meta4Swap_flat.sol\":14947:15228  function editMetadata(uint256 _itemId, string memory _metadata) public {... */\n    tag_145:\n        /* \"Meta4Swap_flat.sol\":15063:15071  itemInfo */\n      0x0c\n        /* \"Meta4Swap_flat.sol\":15063:15080  itemInfo[_itemId] */\n      0x00\n        /* \"Meta4Swap_flat.sol\":15072:15079  _itemId */\n      dup4\n        /* \"Meta4Swap_flat.sol\":15063:15080  itemInfo[_itemId] */\n      dup2\n      mstore\n      0x20\n      add\n      swap1\n      dup2\n      mstore\n      0x20\n      add\n      0x00\n      keccak256\n        /* \"Meta4Swap_flat.sol\":15063:15086  itemInfo[_itemId].owner */\n      0x04\n      add\n      0x00\n      swap1\n      sload\n      swap1\n      0x0100\n      exp\n      swap1\n      div\n      0xffffffffffffffffffffffffffffffffffffffff\n      and\n        /* \"Meta4Swap_flat.sol\":15049:15086  msg.sender == itemInfo[_itemId].owner */\n      0xffffffffffffffffffffffffffffffffffffffff\n      and\n        /* \"Meta4Swap_flat.sol\":15049:15059  msg.sender */\n      caller\n        /* \"Meta4Swap_flat.sol\":15049:15086  msg.sender == itemInfo[_itemId].owner */\n      0xffffffffffffffffffffffffffffffffffffffff\n      and\n      eq\n        /* \"Meta4Swap_flat.sol\":15028:15136  require(... */\n      tag_288\n      jumpi\n      mload(0x40)\n      0x08c379a000000000000000000000000000000000000000000000000000000000\n      dup2\n      mstore\n      0x04\n      add\n      tag_289\n      swap1\n      tag_290\n      jump\t// in\n    tag_289:\n      mload(0x40)\n      dup1\n      swap2\n      sub\n      swap1\n      revert\n    tag_288:\n        /* \"Meta4Swap_flat.sol\":15176:15185  _metadata */\n      dup1\n        /* \"Meta4Swap_flat.sol\":15147:15155  itemInfo */\n      0x0c\n        /* \"Meta4Swap_flat.sol\":15147:15164  itemInfo[_itemId] */\n      0x00\n        /* \"Meta4Swap_flat.sol\":15156:15163  _itemId */\n      dup5\n        /* \"Meta4Swap_flat.sol\":15147:15164  itemInfo[_itemId] */\n      dup2\n      mstore\n      0x20\n      add\n      swap1\n      dup2\n      mstore\n      0x20\n      add\n      0x00\n      keccak256\n        /* \"Meta4Swap_flat.sol\":15147:15173  itemInfo[_itemId].metadata */\n      0x01\n      add\n        /* \"Meta4Swap_flat.sol\":15147:15185  itemInfo[_itemId].metadata = _metadata */\n      swap1\n      dup1\n      mload\n      swap1\n      0x20\n      add\n      swap1\n      tag_291\n      swap3\n      swap2\n      swap1\n      tag_226\n      jump\t// in\n    tag_291:\n      pop\n        /* \"Meta4Swap_flat.sol\":15201:15221  ItemUpdated(_itemId) */\n      0x5e58dfa592b09c585a4ab7ef8158d20b1e52e9897f3095dbe1df700853905c2f\n        /* \"Meta4Swap_flat.sol\":15213:15220  _itemId */\n      dup3\n        /* \"Meta4Swap_flat.sol\":15201:15221  ItemUpdated(_itemId) */\n      mload(0x40)\n      tag_292\n      swap2\n      swap1\n      tag_59\n      jump\t// in\n    tag_292:\n      mload(0x40)\n      dup1\n      swap2\n      sub\n      swap1\n      log1\n        /* \"Meta4Swap_flat.sol\":14947:15228  function editMetadata(uint256 _itemId, string memory _metadata) public {... */\n      pop\n      pop\n      jump\t// out\n        /* \"Meta4Swap_flat.sol\":11169:11642  function dispute(uint256 _orderId) public onlyCounterpart(_orderId) {... */\n    tag_149:\n        /* \"Meta4Swap_flat.sol\":11227:11235  _orderId */\n      dup1\n        /* \"Meta4Swap_flat.sol\":4064:4074  msg.sender */\n      caller\n        /* \"Meta4Swap_flat.sol\":4035:4074  orderInfo[_orderId].buyer == msg.sender */\n      0xffffffffffffffffffffffffffffffffffffffff\n      and\n        /* \"Meta4Swap_flat.sol\":4035:4044  orderInfo */\n      0x0d\n        /* \"Meta4Swap_flat.sol\":4035:4054  orderInfo[_orderId] */\n      0x00\n        /* \"Meta4Swap_flat.sol\":4045:4053  _orderId */\n      dup4\n        /* \"Meta4Swap_flat.sol\":4035:4054  orderInfo[_orderId] */\n      dup2\n      mstore\n      0x20\n      add\n      swap1\n      dup2\n      mstore\n      0x20\n      add\n      0x00\n      keccak256\n        /* \"Meta4Swap_flat.sol\":4035:4060  orderInfo[_orderId].buyer */\n      0x07\n      add\n      0x03\n      swap1\n      sload\n      swap1\n      0x0100\n      exp\n      swap1\n      div\n      0xffffffffffffffffffffffffffffffffffffffff\n      and\n        /* \"Meta4Swap_flat.sol\":4035:4074  orderInfo[_orderId].buyer == msg.sender */\n      0xffffffffffffffffffffffffffffffffffffffff\n      and\n      eq\n        /* \"Meta4Swap_flat.sol\":4035:4134  orderInfo[_orderId].buyer == msg.sender ||... */\n      dup1\n      tag_294\n      jumpi\n      pop\n        /* \"Meta4Swap_flat.sol\":4124:4134  msg.sender */\n      caller\n        /* \"Meta4Swap_flat.sol\":4094:4134  orderInfo[_orderId].seller == msg.sender */\n      0xffffffffffffffffffffffffffffffffffffffff\n      and\n        /* \"Meta4Swap_flat.sol\":4094:4103  orderInfo */\n      0x0d\n        /* \"Meta4Swap_flat.sol\":4094:4113  orderInfo[_orderId] */\n      0x00\n        /* \"Meta4Swap_flat.sol\":4104:4112  _orderId */\n      dup4\n        /* \"Meta4Swap_flat.sol\":4094:4113  orderInfo[_orderId] */\n      dup2\n      mstore\n      0x20\n      add\n      swap1\n      dup2\n      mstore\n      0x20\n      add\n      0x00\n      keccak256\n        /* \"Meta4Swap_flat.sol\":4094:4120  orderInfo[_orderId].seller */\n      0x08\n      add\n      0x00\n      swap1\n      sload\n      swap1\n      0x0100\n      exp\n      swap1\n      div\n      0xffffffffffffffffffffffffffffffffffffffff\n      and\n        /* \"Meta4Swap_flat.sol\":4094:4134  orderInfo[_orderId].seller == msg.sender */\n      0xffffffffffffffffffffffffffffffffffffffff\n      and\n      eq\n        /* \"Meta4Swap_flat.sol\":4035:4134  orderInfo[_orderId].buyer == msg.sender ||... */\n    tag_294:\n        /* \"Meta4Swap_flat.sol\":4014:4197  require(... */\n      tag_295\n      jumpi\n      mload(0x40)\n      0x08c379a000000000000000000000000000000000000000000000000000000000\n      dup2\n      mstore\n      0x04\n      add\n      tag_296\n      swap1\n      tag_219\n      jump\t// in\n    tag_296:\n      mload(0x40)\n      dup1\n      swap2\n      sub\n      swap1\n      revert\n    tag_295:\n        /* \"Meta4Swap_flat.sol\":11285:11289  true */\n      0x01\n        /* \"Meta4Swap_flat.sol\":11255:11289  orderInfo[_orderId].isLive == true */\n      iszero\n      iszero\n        /* \"Meta4Swap_flat.sol\":11255:11264  orderInfo */\n      0x0d\n        /* \"Meta4Swap_flat.sol\":11255:11274  orderInfo[_orderId] */\n      0x00\n        /* \"Meta4Swap_flat.sol\":11265:11273  _orderId */\n      dup5\n        /* \"Meta4Swap_flat.sol\":11255:11274  orderInfo[_orderId] */\n      dup2\n      mstore\n      0x20\n      add\n      swap1\n      dup2\n      mstore\n      0x20\n      add\n      0x00\n      keccak256\n        /* \"Meta4Swap_flat.sol\":11255:11281  orderInfo[_orderId].isLive */\n      0x07\n      add\n      0x02\n      swap1\n      sload\n      swap1\n      0x0100\n      exp\n      swap1\n      div\n      0xff\n      and\n        /* \"Meta4Swap_flat.sol\":11255:11289  orderInfo[_orderId].isLive == true */\n      iszero\n      iszero\n      eq\n        /* \"Meta4Swap_flat.sol\":11247:11312  require(orderInfo[_orderId].isLive == true, \"Order isn't active\") */\n      tag_298\n      jumpi\n      mload(0x40)\n      0x08c379a000000000000000000000000000000000000000000000000000000000\n      dup2\n      mstore\n      0x04\n      add\n      tag_299\n      swap1\n      tag_252\n      jump\t// in\n    tag_299:\n      mload(0x40)\n      dup1\n      swap2\n      sub\n      swap1\n      revert\n    tag_298:\n        /* \"Meta4Swap_flat.sol\":11356:11357  3 */\n      0x03\n        /* \"Meta4Swap_flat.sol\":11322:11331  orderInfo */\n      0x0d\n        /* \"Meta4Swap_flat.sol\":11322:11341  orderInfo[_orderId] */\n      0x00\n        /* \"Meta4Swap_flat.sol\":11332:11340  _orderId */\n      dup5\n        /* \"Meta4Swap_flat.sol\":11322:11341  orderInfo[_orderId] */\n      dup2\n      mstore\n      0x20\n      add\n      swap1\n      dup2\n      mstore\n      0x20\n      add\n      0x00\n      keccak256\n        /* \"Meta4Swap_flat.sol\":11322:11353  orderInfo[_orderId].sellerState */\n      0x07\n      add\n      0x01\n        /* \"Meta4Swap_flat.sol\":11322:11357  orderInfo[_orderId].sellerState = 3 */\n      0x0100\n      exp\n      dup2\n      sload\n      dup2\n      0xff\n      mul\n      not\n      and\n      swap1\n      dup4\n      0xff\n      and\n      mul\n      or\n      swap1\n      sstore\n      pop\n        /* \"Meta4Swap_flat.sol\":11400:11401  3 */\n      0x03\n        /* \"Meta4Swap_flat.sol\":11367:11376  orderInfo */\n      0x0d\n        /* \"Meta4Swap_flat.sol\":11367:11386  orderInfo[_orderId] */\n      0x00\n        /* \"Meta4Swap_flat.sol\":11377:11385  _orderId */\n      dup5\n        /* \"Meta4Swap_flat.sol\":11367:11386  orderInfo[_orderId] */\n      dup2\n      mstore\n      0x20\n      add\n      swap1\n      dup2\n      mstore\n      0x20\n      add\n      0x00\n      keccak256\n        /* \"Meta4Swap_flat.sol\":11367:11397  orderInfo[_orderId].buyerState */\n      0x07\n      add\n      0x00\n        /* \"Meta4Swap_flat.sol\":11367:11401  orderInfo[_orderId].buyerState = 3 */\n      0x0100\n      exp\n      dup2\n      sload\n      dup2\n      0xff\n      mul\n      not\n      and\n      swap1\n      dup4\n      0xff\n      and\n      mul\n      or\n      swap1\n      sstore\n      pop\n        /* \"Meta4Swap_flat.sol\":11440:11445  false */\n      0x00\n        /* \"Meta4Swap_flat.sol\":11411:11420  orderInfo */\n      0x0d\n        /* \"Meta4Swap_flat.sol\":11411:11430  orderInfo[_orderId] */\n      0x00\n        /* \"Meta4Swap_flat.sol\":11421:11429  _orderId */\n      dup5\n        /* \"Meta4Swap_flat.sol\":11411:11430  orderInfo[_orderId] */\n      dup2\n      mstore\n      0x20\n      add\n      swap1\n      dup2\n      mstore\n      0x20\n      add\n      0x00\n      keccak256\n        /* \"Meta4Swap_flat.sol\":11411:11437  orderInfo[_orderId].isLive */\n      0x07\n      add\n      0x02\n        /* \"Meta4Swap_flat.sol\":11411:11445  orderInfo[_orderId].isLive = false */\n      0x0100\n      exp\n      dup2\n      sload\n      dup2\n      0xff\n      mul\n      not\n      and\n      swap1\n      dup4\n      iszero\n      iszero\n      mul\n      or\n      swap1\n      sstore\n      pop\n        /* \"Meta4Swap_flat.sol\":11456:11479  Dispute memory _dispute */\n      tag_300\n      tag_301\n      jump\t// in\n    tag_300:\n        /* \"Meta4Swap_flat.sol\":11508:11520  block.number */\n      number\n        /* \"Meta4Swap_flat.sol\":11489:11497  _dispute */\n      dup2\n        /* \"Meta4Swap_flat.sol\":11489:11505  _dispute.created */\n      0x40\n      add\n        /* \"Meta4Swap_flat.sol\":11489:11520  _dispute.created = block.number */\n      dup2\n      dup2\n      mstore\n      pop\n      pop\n        /* \"Meta4Swap_flat.sol\":11548:11552  true */\n      0x01\n        /* \"Meta4Swap_flat.sol\":11530:11538  _dispute */\n      dup2\n        /* \"Meta4Swap_flat.sol\":11530:11545  _dispute.isLive */\n      0x60\n      add\n        /* \"Meta4Swap_flat.sol\":11530:11552  _dispute.isLive = true */\n      swap1\n      iszero\n      iszero\n      swap1\n      dup2\n      iszero\n      iszero\n      dup2\n      mstore\n      pop\n      pop\n        /* \"Meta4Swap_flat.sol\":11587:11595  _dispute */\n      dup1\n        /* \"Meta4Swap_flat.sol\":11563:11574  disputeInfo */\n      0x0f\n        /* \"Meta4Swap_flat.sol\":11563:11584  disputeInfo[_orderId] */\n      0x00\n        /* \"Meta4Swap_flat.sol\":11575:11583  _orderId */\n      dup6\n        /* \"Meta4Swap_flat.sol\":11563:11584  disputeInfo[_orderId] */\n      dup2\n      mstore\n      0x20\n      add\n      swap1\n      dup2\n      mstore\n      0x20\n      add\n      0x00\n      keccak256\n        /* \"Meta4Swap_flat.sol\":11563:11595  disputeInfo[_orderId] = _dispute */\n      0x00\n      dup3\n      add\n      mload\n      dup2\n      0x00\n      add\n      swap1\n      dup1\n      mload\n      swap1\n      0x20\n      add\n      swap1\n      tag_302\n      swap3\n      swap2\n      swap1\n      tag_226\n      jump\t// in\n    tag_302:\n      pop\n      0x20\n      dup3\n      add\n      mload\n      dup2\n      0x01\n      add\n      swap1\n      dup1\n      mload\n      swap1\n      0x20\n      add\n      swap1\n      tag_303\n      swap3\n      swap2\n      swap1\n      tag_226\n      jump\t// in\n    tag_303:\n      pop\n      0x40\n      dup3\n      add\n      mload\n      dup2\n      0x02\n      add\n      sstore\n      0x60\n      dup3\n      add\n      mload\n      dup2\n      0x03\n      add\n      exp(0x0100, 0x00)\n      dup2\n      sload\n      dup2\n      0xff\n      mul\n      not\n      and\n      swap1\n      dup4\n      iszero\n      iszero\n      mul\n      or\n      swap1\n      sstore\n      pop\n      swap1\n      pop\n      pop\n        /* \"Meta4Swap_flat.sol\":11611:11635  DisputeCreated(_orderId) */\n      0xbe50084412c1b5b360c595d895466a9298980a464614ce7fd487fb4c7421f426\n        /* \"Meta4Swap_flat.sol\":11626:11634  _orderId */\n      dup4\n        /* \"Meta4Swap_flat.sol\":11611:11635  DisputeCreated(_orderId) */\n      mload(0x40)\n      tag_304\n      swap2\n      swap1\n      tag_59\n      jump\t// in\n    tag_304:\n      mload(0x40)\n      dup1\n      swap2\n      sub\n      swap1\n      log1\n        /* \"Meta4Swap_flat.sol\":11237:11642  {... */\n      pop\n        /* \"Meta4Swap_flat.sol\":11169:11642  function dispute(uint256 _orderId) public onlyCounterpart(_orderId) {... */\n      pop\n      pop\n      jump\t// out\n        /* \"Meta4Swap_flat.sol\":15743:16201  function getLatestPrice() public view returns (int256) {... */\n    tag_152:\n        /* \"Meta4Swap_flat.sol\":15790:15796  int256 */\n      0x00\n        /* \"Meta4Swap_flat.sol\":15867:15879  int256 price */\n      dup1\n        /* \"Meta4Swap_flat.sol\":16009:16018  priceFeed */\n      0x06\n      0x00\n      swap1\n      sload\n      swap1\n      0x0100\n      exp\n      swap1\n      div\n      0xffffffffffffffffffffffffffffffffffffffff\n      and\n        /* \"Meta4Swap_flat.sol\":15987:16035  AggregatorV3Interface(priceFeed).latestRoundData */\n      0xffffffffffffffffffffffffffffffffffffffff\n      and\n      0xfeaf968c\n        /* \"Meta4Swap_flat.sol\":15987:16037  AggregatorV3Interface(priceFeed).latestRoundData() */\n      mload(0x40)\n      dup2\n      0xffffffff\n      and\n      0xe0\n      shl\n      dup2\n      mstore\n      0x04\n      add\n      0xa0\n      mload(0x40)\n      dup1\n      dup4\n      sub\n      dup2\n      dup7\n      dup1\n      extcodesize\n      iszero\n      dup1\n      iszero\n      tag_306\n      jumpi\n      0x00\n      dup1\n      revert\n    tag_306:\n      pop\n      gas\n      staticcall\n      iszero\n      dup1\n      iszero\n      tag_308\n      jumpi\n      returndatasize\n      0x00\n      dup1\n      returndatacopy\n      revert(0x00, returndatasize)\n    tag_308:\n      pop\n      pop\n      pop\n      pop\n      mload(0x40)\n      returndatasize\n      not(0x1f)\n      0x1f\n      dup3\n      add\n      and\n      dup3\n      add\n      dup1\n      0x40\n      mstore\n      pop\n      dup2\n      add\n      swap1\n      tag_309\n      swap2\n      swap1\n      tag_310\n      jump\t// in\n    tag_309:\n        /* \"Meta4Swap_flat.sol\":15808:16037  (... */\n      pop\n      pop\n      pop\n      swap2\n      pop\n      pop\n        /* \"Meta4Swap_flat.sol\":16189:16194  price */\n      dup1\n        /* \"Meta4Swap_flat.sol\":16182:16194  return price */\n      swap2\n      pop\n      pop\n        /* \"Meta4Swap_flat.sol\":15743:16201  function getLatestPrice() public view returns (int256) {... */\n      swap1\n      jump\t// out\n        /* \"Meta4Swap_flat.sol\":6964:8553  function acceptOffer(uint _itemId, address _worker) public payable returns (uint256) {... */\n    tag_157:\n        /* \"Meta4Swap_flat.sol\":7040:7047  uint256 */\n      0x00\n        /* \"Meta4Swap_flat.sol\":7081:7089  itemInfo */\n      0x0c\n        /* \"Meta4Swap_flat.sol\":7081:7098  itemInfo[_itemId] */\n      0x00\n        /* \"Meta4Swap_flat.sol\":7090:7097  _itemId */\n      dup5\n        /* \"Meta4Swap_flat.sol\":7081:7098  itemInfo[_itemId] */\n      dup2\n      mstore\n      0x20\n      add\n      swap1\n      dup2\n      mstore\n      0x20\n      add\n      0x00\n      keccak256\n        /* \"Meta4Swap_flat.sol\":7081:7104  itemInfo[_itemId].owner */\n      0x04\n      add\n      0x00\n      swap1\n      sload\n      swap1\n      0x0100\n      exp\n      swap1\n      div\n      0xffffffffffffffffffffffffffffffffffffffff\n      and\n        /* \"Meta4Swap_flat.sol\":7067:7104  msg.sender == itemInfo[_itemId].owner */\n      0xffffffffffffffffffffffffffffffffffffffff\n      and\n        /* \"Meta4Swap_flat.sol\":7067:7077  msg.sender */\n      caller\n        /* \"Meta4Swap_flat.sol\":7067:7104  msg.sender == itemInfo[_itemId].owner */\n      0xffffffffffffffffffffffffffffffffffffffff\n      and\n      eq\n        /* \"Meta4Swap_flat.sol\":7059:7141  require(msg.sender == itemInfo[_itemId].owner, \"Only item owner can accept offer\") */\n      tag_312\n      jumpi\n      mload(0x40)\n      0x08c379a000000000000000000000000000000000000000000000000000000000\n      dup2\n      mstore\n      0x04\n      add\n      tag_313\n      swap1\n      tag_314\n      jump\t// in\n    tag_313:\n      mload(0x40)\n      dup1\n      swap2\n      sub\n      swap1\n      revert\n    tag_312:\n        /* \"Meta4Swap_flat.sol\":7188:7192  true */\n      0x01\n        /* \"Meta4Swap_flat.sol\":7159:7192  offerInfo[_worker][_itemId]==true */\n      iszero\n      iszero\n        /* \"Meta4Swap_flat.sol\":7159:7168  offerInfo */\n      0x0e\n        /* \"Meta4Swap_flat.sol\":7159:7177  offerInfo[_worker] */\n      0x00\n        /* \"Meta4Swap_flat.sol\":7169:7176  _worker */\n      dup5\n        /* \"Meta4Swap_flat.sol\":7159:7177  offerInfo[_worker] */\n      0xffffffffffffffffffffffffffffffffffffffff\n      and\n      0xffffffffffffffffffffffffffffffffffffffff\n      and\n      dup2\n      mstore\n      0x20\n      add\n      swap1\n      dup2\n      mstore\n      0x20\n      add\n      0x00\n      keccak256\n        /* \"Meta4Swap_flat.sol\":7159:7186  offerInfo[_worker][_itemId] */\n      0x00\n        /* \"Meta4Swap_flat.sol\":7178:7185  _itemId */\n      dup6\n        /* \"Meta4Swap_flat.sol\":7159:7186  offerInfo[_worker][_itemId] */\n      dup2\n      mstore\n      0x20\n      add\n      swap1\n      dup2\n      mstore\n      0x20\n      add\n      0x00\n      keccak256\n      0x00\n      swap1\n      sload\n      swap1\n      0x0100\n      exp\n      swap1\n      div\n      0xff\n      and\n        /* \"Meta4Swap_flat.sol\":7159:7192  offerInfo[_worker][_itemId]==true */\n      iszero\n      iszero\n      eq\n        /* \"Meta4Swap_flat.sol\":7151:7244  require(offerInfo[_worker][_itemId]==true, \"Can only accept offers from workers who offered\") */\n      tag_315\n      jumpi\n      mload(0x40)\n      0x08c379a000000000000000000000000000000000000000000000000000000000\n      dup2\n      mstore\n      0x04\n      add\n      tag_316\n      swap1\n      tag_317\n      jump\t// in\n    tag_316:\n      mload(0x40)\n      dup1\n      swap2\n      sub\n      swap1\n      revert\n    tag_315:\n        /* \"Meta4Swap_flat.sol\":7255:7265  orderCount */\n      0x00\n      dup1\n        /* \"Meta4Swap_flat.sol\":7255:7267  orderCount++ */\n      dup2\n      sload\n      dup1\n      swap3\n      swap2\n      swap1\n      tag_318\n      swap1\n      tag_266\n      jump\t// in\n    tag_318:\n      swap2\n      swap1\n      pop\n      sstore\n      pop\n        /* \"Meta4Swap_flat.sol\":7277:7296  Order memory _order */\n      tag_319\n      tag_320\n      jump\t// in\n    tag_319:\n        /* \"Meta4Swap_flat.sol\":7339:7355  getLatestPrice() */\n      tag_321\n        /* \"Meta4Swap_flat.sol\":7339:7353  getLatestPrice */\n      tag_152\n        /* \"Meta4Swap_flat.sol\":7339:7355  getLatestPrice() */\n      jump\t// in\n    tag_321:\n        /* \"Meta4Swap_flat.sol\":7307:7313  _order */\n      dup2\n        /* \"Meta4Swap_flat.sol\":7307:7328  _order.chainLinkPrice */\n      0xc0\n      add\n        /* \"Meta4Swap_flat.sol\":7307:7356  _order.chainLinkPrice = uint256(getLatestPrice()) */\n      dup2\n      dup2\n      mstore\n      pop\n      pop\n        /* \"Meta4Swap_flat.sol\":7366:7384  uint256 orderTotal */\n      0x00\n        /* \"Meta4Swap_flat.sol\":7452:7457  10**8 */\n      0x05f5e100\n        /* \"Meta4Swap_flat.sol\":7415:7421  _order */\n      dup3\n        /* \"Meta4Swap_flat.sol\":7415:7436  _order.chainLinkPrice */\n      0xc0\n      add\n      mload\n        /* \"Meta4Swap_flat.sol\":7389:7397  itemInfo */\n      0x0c\n        /* \"Meta4Swap_flat.sol\":7389:7406  itemInfo[_itemId] */\n      0x00\n        /* \"Meta4Swap_flat.sol\":7398:7405  _itemId */\n      dup9\n        /* \"Meta4Swap_flat.sol\":7389:7406  itemInfo[_itemId] */\n      dup2\n      mstore\n      0x20\n      add\n      swap1\n      dup2\n      mstore\n      0x20\n      add\n      0x00\n      keccak256\n        /* \"Meta4Swap_flat.sol\":7389:7412  itemInfo[_itemId].price */\n      0x03\n      add\n      sload\n        /* \"Meta4Swap_flat.sol\":7389:7436  itemInfo[_itemId].price / _order.chainLinkPrice */\n      tag_322\n      swap2\n      swap1\n      tag_323\n      jump\t// in\n    tag_322:\n        /* \"Meta4Swap_flat.sol\":7388:7457  (itemInfo[_itemId].price / _order.chainLinkPrice) *... */\n      tag_324\n      swap2\n      swap1\n      tag_325\n      jump\t// in\n    tag_324:\n        /* \"Meta4Swap_flat.sol\":7366:7458  uint256 orderTotal = ((itemInfo[_itemId].price / _order.chainLinkPrice) *... */\n      swap1\n      pop\n        /* \"Meta4Swap_flat.sol\":7468:7484  uint256 orderFee */\n      0x00\n        /* \"Meta4Swap_flat.sol\":7519:7524  10000 */\n      0x2710\n        /* \"Meta4Swap_flat.sol\":7505:7515  orderTotal */\n      dup3\n        /* \"Meta4Swap_flat.sol\":7488:7502  marketplaceFee */\n      sload(0x02)\n        /* \"Meta4Swap_flat.sol\":7488:7515  marketplaceFee * orderTotal */\n      tag_326\n      swap2\n      swap1\n      tag_325\n      jump\t// in\n    tag_326:\n        /* \"Meta4Swap_flat.sol\":7487:7524  (marketplaceFee * orderTotal) / 10000 */\n      tag_327\n      swap2\n      swap1\n      tag_323\n      jump\t// in\n    tag_327:\n        /* \"Meta4Swap_flat.sol\":7468:7524  uint256 orderFee = (marketplaceFee * orderTotal) / 10000 */\n      swap1\n      pop\n        /* \"Meta4Swap_flat.sol\":7555:7565  orderTotal */\n      dup2\n        /* \"Meta4Swap_flat.sol\":7542:7551  msg.value */\n      callvalue\n        /* \"Meta4Swap_flat.sol\":7542:7565  msg.value >= orderTotal */\n      lt\n      iszero\n        /* \"Meta4Swap_flat.sol\":7534:7600  require(msg.value >= orderTotal, \"Amount paid is less than total\") */\n      tag_328\n      jumpi\n      mload(0x40)\n      0x08c379a000000000000000000000000000000000000000000000000000000000\n      dup2\n      mstore\n      0x04\n      add\n      tag_329\n      swap1\n      tag_330\n      jump\t// in\n    tag_329:\n      mload(0x40)\n      dup1\n      swap2\n      sub\n      swap1\n      revert\n    tag_328:\n        /* \"Meta4Swap_flat.sol\":7623:7633  orderCount */\n      sload(0x00)\n        /* \"Meta4Swap_flat.sol\":7611:7617  _order */\n      dup4\n        /* \"Meta4Swap_flat.sol\":7611:7620  _order.id */\n      0x00\n      add\n        /* \"Meta4Swap_flat.sol\":7611:7633  _order.id = orderCount */\n      dup2\n      dup2\n      mstore\n      pop\n      pop\n        /* \"Meta4Swap_flat.sol\":7659:7666  _itemId */\n      dup6\n        /* \"Meta4Swap_flat.sol\":7643:7649  _order */\n      dup4\n        /* \"Meta4Swap_flat.sol\":7643:7656  _order.itemId */\n      0x20\n      add\n        /* \"Meta4Swap_flat.sol\":7643:7666  _order.itemId = _itemId */\n      dup2\n      dup2\n      mstore\n      pop\n      pop\n        /* \"Meta4Swap_flat.sol\":7695:7703  itemInfo */\n      0x0c\n        /* \"Meta4Swap_flat.sol\":7695:7712  itemInfo[_itemId] */\n      0x00\n        /* \"Meta4Swap_flat.sol\":7704:7711  _itemId */\n      dup8\n        /* \"Meta4Swap_flat.sol\":7695:7712  itemInfo[_itemId] */\n      dup2\n      mstore\n      0x20\n      add\n      swap1\n      dup2\n      mstore\n      0x20\n      add\n      0x00\n      keccak256\n        /* \"Meta4Swap_flat.sol\":7695:7718  itemInfo[_itemId].price */\n      0x03\n      add\n      sload\n        /* \"Meta4Swap_flat.sol\":7676:7682  _order */\n      dup4\n        /* \"Meta4Swap_flat.sol\":7676:7692  _order.itemPrice */\n      0xa0\n      add\n        /* \"Meta4Swap_flat.sol\":7676:7718  _order.itemPrice = itemInfo[_itemId].price */\n      dup2\n      dup2\n      mstore\n      pop\n      pop\n        /* \"Meta4Swap_flat.sol\":7748:7758  orderTotal */\n      dup2\n        /* \"Meta4Swap_flat.sol\":7728:7734  _order */\n      dup4\n        /* \"Meta4Swap_flat.sol\":7728:7745  _order.orderTotal */\n      0x40\n      add\n        /* \"Meta4Swap_flat.sol\":7728:7758  _order.orderTotal = orderTotal */\n      dup2\n      dup2\n      mstore\n      pop\n      pop\n        /* \"Meta4Swap_flat.sol\":7781:7789  orderFee */\n      dup1\n        /* \"Meta4Swap_flat.sol\":7768:7774  _order */\n      dup4\n        /* \"Meta4Swap_flat.sol\":7768:7778  _order.fee */\n      0x80\n      add\n        /* \"Meta4Swap_flat.sol\":7768:7789  _order.fee = orderFee */\n      dup2\n      dup2\n      mstore\n      pop\n      pop\n        /* \"Meta4Swap_flat.sol\":7815:7819  true */\n      0x01\n        /* \"Meta4Swap_flat.sol\":7799:7805  _order */\n      dup4\n        /* \"Meta4Swap_flat.sol\":7799:7812  _order.isLive */\n      0x0120\n      add\n        /* \"Meta4Swap_flat.sol\":7799:7819  _order.isLive = true */\n      swap1\n      iszero\n      iszero\n      swap1\n      dup2\n      iszero\n      iszero\n      dup2\n      mstore\n      pop\n      pop\n        /* \"Meta4Swap_flat.sol\":7846:7858  block.number */\n      number\n        /* \"Meta4Swap_flat.sol\":7829:7835  _order */\n      dup4\n        /* \"Meta4Swap_flat.sol\":7829:7843  _order.created */\n      0x60\n      add\n        /* \"Meta4Swap_flat.sol\":7829:7858  _order.created = block.number */\n      dup2\n      dup2\n      mstore\n      pop\n      pop\n        /* \"Meta4Swap_flat.sol\":7883:7893  msg.sender */\n      caller\n        /* \"Meta4Swap_flat.sol\":7868:7874  _order */\n      dup4\n        /* \"Meta4Swap_flat.sol\":7868:7880  _order.buyer */\n      0x0140\n      add\n        /* \"Meta4Swap_flat.sol\":7868:7893  _order.buyer = msg.sender */\n      swap1\n      0xffffffffffffffffffffffffffffffffffffffff\n      and\n      swap1\n      dup2\n      0xffffffffffffffffffffffffffffffffffffffff\n      and\n      dup2\n      mstore\n      pop\n      pop\n        /* \"Meta4Swap_flat.sol\":7919:7926  _worker */\n      dup5\n        /* \"Meta4Swap_flat.sol\":7903:7909  _order */\n      dup4\n        /* \"Meta4Swap_flat.sol\":7903:7916  _order.seller */\n      0x0160\n      add\n        /* \"Meta4Swap_flat.sol\":7903:7926  _order.seller = _worker */\n      swap1\n      0xffffffffffffffffffffffffffffffffffffffff\n      and\n      swap1\n      dup2\n      0xffffffffffffffffffffffffffffffffffffffff\n      and\n      dup2\n      mstore\n      pop\n      pop\n        /* \"Meta4Swap_flat.sol\":7968:7974  _order */\n      dup3\n        /* \"Meta4Swap_flat.sol\":7945:7954  orderInfo */\n      0x0d\n        /* \"Meta4Swap_flat.sol\":7945:7965  orderInfo[_order.id] */\n      0x00\n        /* \"Meta4Swap_flat.sol\":7955:7961  _order */\n      dup6\n        /* \"Meta4Swap_flat.sol\":7955:7964  _order.id */\n      0x00\n      add\n      mload\n        /* \"Meta4Swap_flat.sol\":7945:7965  orderInfo[_order.id] */\n      dup2\n      mstore\n      0x20\n      add\n      swap1\n      dup2\n      mstore\n      0x20\n      add\n      0x00\n      keccak256\n        /* \"Meta4Swap_flat.sol\":7945:7974  orderInfo[_order.id] = _order */\n      0x00\n      dup3\n      add\n      mload\n      dup2\n      0x00\n      add\n      sstore\n      0x20\n      dup3\n      add\n      mload\n      dup2\n      0x01\n      add\n      sstore\n      0x40\n      dup3\n      add\n      mload\n      dup2\n      0x02\n      add\n      sstore\n      0x60\n      dup3\n      add\n      mload\n      dup2\n      0x03\n      add\n      sstore\n      0x80\n      dup3\n      add\n      mload\n      dup2\n      0x04\n      add\n      sstore\n      0xa0\n      dup3\n      add\n      mload\n      dup2\n      0x05\n      add\n      sstore\n      0xc0\n      dup3\n      add\n      mload\n      dup2\n      0x06\n      add\n      sstore\n      0xe0\n      dup3\n      add\n      mload\n      dup2\n      0x07\n      add\n      exp(0x0100, 0x00)\n      dup2\n      sload\n      dup2\n      0xff\n      mul\n      not\n      and\n      swap1\n      dup4\n      0xff\n      and\n      mul\n      or\n      swap1\n      sstore\n      pop\n      0x0100\n      dup3\n      add\n      mload\n      dup2\n      0x07\n      add\n      exp(0x0100, 0x01)\n      dup2\n      sload\n      dup2\n      0xff\n      mul\n      not\n      and\n      swap1\n      dup4\n      0xff\n      and\n      mul\n      or\n      swap1\n      sstore\n      pop\n      0x0120\n      dup3\n      add\n      mload\n      dup2\n      0x07\n      add\n      exp(0x0100, 0x02)\n      dup2\n      sload\n      dup2\n      0xff\n      mul\n      not\n      and\n      swap1\n      dup4\n      iszero\n      iszero\n      mul\n      or\n      swap1\n      sstore\n      pop\n      0x0140\n      dup3\n      add\n      mload\n      dup2\n      0x07\n      add\n      exp(0x0100, 0x03)\n      dup2\n      sload\n      dup2\n      0xffffffffffffffffffffffffffffffffffffffff\n      mul\n      not\n      and\n      swap1\n      dup4\n      0xffffffffffffffffffffffffffffffffffffffff\n      and\n      mul\n      or\n      swap1\n      sstore\n      pop\n      0x0160\n      dup3\n      add\n      mload\n      dup2\n      0x08\n      add\n      exp(0x0100, 0x00)\n      dup2\n      sload\n      dup2\n      0xffffffffffffffffffffffffffffffffffffffff\n      mul\n      not\n      and\n      swap1\n      dup4\n      0xffffffffffffffffffffffffffffffffffffffff\n      and\n      mul\n      or\n      swap1\n      sstore\n      pop\n      swap1\n      pop\n      pop\n        /* \"Meta4Swap_flat.sol\":8001:8011  orderTotal */\n      dup2\n        /* \"Meta4Swap_flat.sol\":7989:7998  msg.value */\n      callvalue\n        /* \"Meta4Swap_flat.sol\":7989:8011  msg.value > orderTotal */\n      gt\n        /* \"Meta4Swap_flat.sol\":7985:8265  if (msg.value > orderTotal) {... */\n      iszero\n      tag_331\n      jumpi\n        /* \"Meta4Swap_flat.sol\":8071:8080  bool sent */\n      0x00\n        /* \"Meta4Swap_flat.sol\":8082:8099  bytes memory data */\n      dup1\n        /* \"Meta4Swap_flat.sol\":8103:8113  msg.sender */\n      caller\n        /* \"Meta4Swap_flat.sol\":8103:8118  msg.sender.call */\n      0xffffffffffffffffffffffffffffffffffffffff\n      and\n        /* \"Meta4Swap_flat.sol\":8156:8166  orderTotal */\n      dup5\n        /* \"Meta4Swap_flat.sol\":8144:8153  msg.value */\n      callvalue\n        /* \"Meta4Swap_flat.sol\":8144:8166  msg.value - orderTotal */\n      tag_332\n      swap2\n      swap1\n      tag_333\n      jump\t// in\n    tag_332:\n        /* \"Meta4Swap_flat.sol\":8103:8185  msg.sender.call{... */\n      mload(0x40)\n      tag_334\n      swap1\n      tag_256\n      jump\t// in\n    tag_334:\n      0x00\n      mload(0x40)\n      dup1\n      dup4\n      sub\n      dup2\n      dup6\n      dup8\n      gas\n      call\n      swap3\n      pop\n      pop\n      pop\n      returndatasize\n      dup1\n      0x00\n      dup2\n      eq\n      tag_337\n      jumpi\n      mload(0x40)\n      swap2\n      pop\n      and(add(returndatasize, 0x3f), not(0x1f))\n      dup3\n      add\n      0x40\n      mstore\n      returndatasize\n      dup3\n      mstore\n      returndatasize\n      0x00\n      0x20\n      dup5\n      add\n      returndatacopy\n      jump(tag_336)\n    tag_337:\n      0x60\n      swap2\n      pop\n    tag_336:\n      pop\n        /* \"Meta4Swap_flat.sol\":8070:8185  (bool sent, bytes memory data) = msg.sender.call{... */\n      swap2\n      pop\n      swap2\n      pop\n        /* \"Meta4Swap_flat.sol\":8225:8229  sent */\n      dup2\n        /* \"Meta4Swap_flat.sol\":8217:8254  require(sent, \"Failed to Send Ether\") */\n      tag_338\n      jumpi\n      mload(0x40)\n      0x08c379a000000000000000000000000000000000000000000000000000000000\n      dup2\n      mstore\n      0x04\n      add\n      tag_339\n      swap1\n      tag_262\n      jump\t// in\n    tag_339:\n      mload(0x40)\n      dup1\n      swap2\n      sub\n      swap1\n      revert\n    tag_338:\n        /* \"Meta4Swap_flat.sol\":8013:8265  {... */\n      pop\n      pop\n        /* \"Meta4Swap_flat.sol\":7985:8265  if (msg.value > orderTotal) {... */\n    tag_331:\n        /* \"Meta4Swap_flat.sol\":8280:8519  OrderCreated(... */\n      0x74d0d8afe3d8246a3d231394d7f207463085ffcec78a367c5b7404ce21ebad1b\n        /* \"Meta4Swap_flat.sol\":8306:8312  _order */\n      dup4\n        /* \"Meta4Swap_flat.sol\":8306:8315  _order.id */\n      0x00\n      add\n      mload\n        /* \"Meta4Swap_flat.sol\":8329:8335  _order */\n      dup5\n        /* \"Meta4Swap_flat.sol\":8329:8342  _order.itemId */\n      0x20\n      add\n      mload\n        /* \"Meta4Swap_flat.sol\":8356:8362  _order */\n      dup6\n        /* \"Meta4Swap_flat.sol\":8356:8373  _order.orderTotal */\n      0x40\n      add\n      mload\n        /* \"Meta4Swap_flat.sol\":8387:8395  itemInfo */\n      0x0c\n        /* \"Meta4Swap_flat.sol\":8387:8404  itemInfo[_itemId] */\n      0x00\n        /* \"Meta4Swap_flat.sol\":8396:8403  _itemId */\n      dup12\n        /* \"Meta4Swap_flat.sol\":8387:8404  itemInfo[_itemId] */\n      dup2\n      mstore\n      0x20\n      add\n      swap1\n      dup2\n      mstore\n      0x20\n      add\n      0x00\n      keccak256\n        /* \"Meta4Swap_flat.sol\":8387:8416  itemInfo[_itemId].serviceType */\n      0x05\n      add\n      sload\n        /* \"Meta4Swap_flat.sol\":8430:8436  _order */\n      dup8\n        /* \"Meta4Swap_flat.sol\":8430:8442  _order.buyer */\n      0x0140\n      add\n      mload\n        /* \"Meta4Swap_flat.sol\":8456:8462  _order */\n      dup9\n        /* \"Meta4Swap_flat.sol\":8456:8469  _order.seller */\n      0x0160\n      add\n      mload\n        /* \"Meta4Swap_flat.sol\":8483:8491  itemInfo */\n      0x0c\n        /* \"Meta4Swap_flat.sol\":8483:8500  itemInfo[_itemId] */\n      0x00\n        /* \"Meta4Swap_flat.sol\":8492:8499  _itemId */\n      dup15\n        /* \"Meta4Swap_flat.sol\":8483:8500  itemInfo[_itemId] */\n      dup2\n      mstore\n      0x20\n      add\n      swap1\n      dup2\n      mstore\n      0x20\n      add\n      0x00\n      keccak256\n        /* \"Meta4Swap_flat.sol\":8483:8509  itemInfo[_itemId].metadata */\n      0x01\n      add\n        /* \"Meta4Swap_flat.sol\":8280:8519  OrderCreated(... */\n      mload(0x40)\n      tag_340\n      swap8\n      swap7\n      swap6\n      swap5\n      swap4\n      swap3\n      swap2\n      swap1\n      tag_341\n      jump\t// in\n    tag_340:\n      mload(0x40)\n      dup1\n      swap2\n      sub\n      swap1\n      log1\n        /* \"Meta4Swap_flat.sol\":8536:8542  _order */\n      dup3\n        /* \"Meta4Swap_flat.sol\":8536:8545  _order.id */\n      0x00\n      add\n      mload\n        /* \"Meta4Swap_flat.sol\":8529:8545  return _order.id */\n      swap4\n      pop\n      pop\n      pop\n      pop\n        /* \"Meta4Swap_flat.sol\":6964:8553  function acceptOffer(uint _itemId, address _worker) public payable returns (uint256) {... */\n      swap3\n      swap2\n      pop\n      pop\n      jump\t// out\n        /* \"Meta4Swap_flat.sol\":8559:10423  function complete(uint256 _orderId) public onlyCounterpart(_orderId) {... */\n    tag_162:\n        /* \"Meta4Swap_flat.sol\":8618:8626  _orderId */\n      dup1\n        /* \"Meta4Swap_flat.sol\":4064:4074  msg.sender */\n      caller\n        /* \"Meta4Swap_flat.sol\":4035:4074  orderInfo[_orderId].buyer == msg.sender */\n      0xffffffffffffffffffffffffffffffffffffffff\n      and\n        /* \"Meta4Swap_flat.sol\":4035:4044  orderInfo */\n      0x0d\n        /* \"Meta4Swap_flat.sol\":4035:4054  orderInfo[_orderId] */\n      0x00\n        /* \"Meta4Swap_flat.sol\":4045:4053  _orderId */\n      dup4\n        /* \"Meta4Swap_flat.sol\":4035:4054  orderInfo[_orderId] */\n      dup2\n      mstore\n      0x20\n      add\n      swap1\n      dup2\n      mstore\n      0x20\n      add\n      0x00\n      keccak256\n        /* \"Meta4Swap_flat.sol\":4035:4060  orderInfo[_orderId].buyer */\n      0x07\n      add\n      0x03\n      swap1\n      sload\n      swap1\n      0x0100\n      exp\n      swap1\n      div\n      0xffffffffffffffffffffffffffffffffffffffff\n      and\n        /* \"Meta4Swap_flat.sol\":4035:4074  orderInfo[_orderId].buyer == msg.sender */\n      0xffffffffffffffffffffffffffffffffffffffff\n      and\n      eq\n        /* \"Meta4Swap_flat.sol\":4035:4134  orderInfo[_orderId].buyer == msg.sender ||... */\n      dup1\n      tag_343\n      jumpi\n      pop\n        /* \"Meta4Swap_flat.sol\":4124:4134  msg.sender */\n      caller\n        /* \"Meta4Swap_flat.sol\":4094:4134  orderInfo[_orderId].seller == msg.sender */\n      0xffffffffffffffffffffffffffffffffffffffff\n      and\n        /* \"Meta4Swap_flat.sol\":4094:4103  orderInfo */\n      0x0d\n        /* \"Meta4Swap_flat.sol\":4094:4113  orderInfo[_orderId] */\n      0x00\n        /* \"Meta4Swap_flat.sol\":4104:4112  _orderId */\n      dup4\n        /* \"Meta4Swap_flat.sol\":4094:4113  orderInfo[_orderId] */\n      dup2\n      mstore\n      0x20\n      add\n      swap1\n      dup2\n      mstore\n      0x20\n      add\n      0x00\n      keccak256\n        /* \"Meta4Swap_flat.sol\":4094:4120  orderInfo[_orderId].seller */\n      0x08\n      add\n      0x00\n      swap1\n      sload\n      swap1\n      0x0100\n      exp\n      swap1\n      div\n      0xffffffffffffffffffffffffffffffffffffffff\n      and\n        /* \"Meta4Swap_flat.sol\":4094:4134  orderInfo[_orderId].seller == msg.sender */\n      0xffffffffffffffffffffffffffffffffffffffff\n      and\n      eq\n        /* \"Meta4Swap_flat.sol\":4035:4134  orderInfo[_orderId].buyer == msg.sender ||... */\n    tag_343:\n        /* \"Meta4Swap_flat.sol\":4014:4197  require(... */\n      tag_344\n      jumpi\n      mload(0x40)\n      0x08c379a000000000000000000000000000000000000000000000000000000000\n      dup2\n      mstore\n      0x04\n      add\n      tag_345\n      swap1\n      tag_219\n      jump\t// in\n    tag_345:\n      mload(0x40)\n      dup1\n      swap2\n      sub\n      swap1\n      revert\n    tag_344:\n        /* \"Meta4Swap_flat.sol\":8676:8680  true */\n      0x01\n        /* \"Meta4Swap_flat.sol\":8646:8680  orderInfo[_orderId].isLive == true */\n      iszero\n      iszero\n        /* \"Meta4Swap_flat.sol\":8646:8655  orderInfo */\n      0x0d\n        /* \"Meta4Swap_flat.sol\":8646:8665  orderInfo[_orderId] */\n      0x00\n        /* \"Meta4Swap_flat.sol\":8656:8664  _orderId */\n      dup5\n        /* \"Meta4Swap_flat.sol\":8646:8665  orderInfo[_orderId] */\n      dup2\n      mstore\n      0x20\n      add\n      swap1\n      dup2\n      mstore\n      0x20\n      add\n      0x00\n      keccak256\n        /* \"Meta4Swap_flat.sol\":8646:8672  orderInfo[_orderId].isLive */\n      0x07\n      add\n      0x02\n      swap1\n      sload\n      swap1\n      0x0100\n      exp\n      swap1\n      div\n      0xff\n      and\n        /* \"Meta4Swap_flat.sol\":8646:8680  orderInfo[_orderId].isLive == true */\n      iszero\n      iszero\n      eq\n        /* \"Meta4Swap_flat.sol\":8638:8703  require(orderInfo[_orderId].isLive == true, \"Order isn't active\") */\n      tag_347\n      jumpi\n      mload(0x40)\n      0x08c379a000000000000000000000000000000000000000000000000000000000\n      dup2\n      mstore\n      0x04\n      add\n      tag_348\n      swap1\n      tag_252\n      jump\t// in\n    tag_348:\n      mload(0x40)\n      dup1\n      swap2\n      sub\n      swap1\n      revert\n    tag_347:\n        /* \"Meta4Swap_flat.sol\":8745:8754  orderInfo */\n      0x0d\n        /* \"Meta4Swap_flat.sol\":8745:8764  orderInfo[_orderId] */\n      0x00\n        /* \"Meta4Swap_flat.sol\":8755:8763  _orderId */\n      dup4\n        /* \"Meta4Swap_flat.sol\":8745:8764  orderInfo[_orderId] */\n      dup2\n      mstore\n      0x20\n      add\n      swap1\n      dup2\n      mstore\n      0x20\n      add\n      0x00\n      keccak256\n        /* \"Meta4Swap_flat.sol\":8745:8770  orderInfo[_orderId].buyer */\n      0x07\n      add\n      0x03\n      swap1\n      sload\n      swap1\n      0x0100\n      exp\n      swap1\n      div\n      0xffffffffffffffffffffffffffffffffffffffff\n      and\n        /* \"Meta4Swap_flat.sol\":8731:8770  msg.sender == orderInfo[_orderId].buyer */\n      0xffffffffffffffffffffffffffffffffffffffff\n      and\n        /* \"Meta4Swap_flat.sol\":8731:8741  msg.sender */\n      caller\n        /* \"Meta4Swap_flat.sol\":8731:8770  msg.sender == orderInfo[_orderId].buyer */\n      0xffffffffffffffffffffffffffffffffffffffff\n      and\n      eq\n        /* \"Meta4Swap_flat.sol\":8731:8826  msg.sender == orderInfo[_orderId].buyer &&... */\n      dup1\n      iszero\n      tag_349\n      jumpi\n      pop\n        /* \"Meta4Swap_flat.sol\":8800:8809  orderInfo */\n      0x0d\n        /* \"Meta4Swap_flat.sol\":8800:8819  orderInfo[_orderId] */\n      0x00\n        /* \"Meta4Swap_flat.sol\":8810:8818  _orderId */\n      dup4\n        /* \"Meta4Swap_flat.sol\":8800:8819  orderInfo[_orderId] */\n      dup2\n      mstore\n      0x20\n      add\n      swap1\n      dup2\n      mstore\n      0x20\n      add\n      0x00\n      keccak256\n        /* \"Meta4Swap_flat.sol\":8800:8826  orderInfo[_orderId].seller */\n      0x08\n      add\n      0x00\n      swap1\n      sload\n      swap1\n      0x0100\n      exp\n      swap1\n      div\n      0xffffffffffffffffffffffffffffffffffffffff\n      and\n        /* \"Meta4Swap_flat.sol\":8786:8826  msg.sender == orderInfo[_orderId].seller */\n      0xffffffffffffffffffffffffffffffffffffffff\n      and\n        /* \"Meta4Swap_flat.sol\":8786:8796  msg.sender */\n      caller\n        /* \"Meta4Swap_flat.sol\":8786:8826  msg.sender == orderInfo[_orderId].seller */\n      0xffffffffffffffffffffffffffffffffffffffff\n      and\n      eq\n        /* \"Meta4Swap_flat.sol\":8731:8826  msg.sender == orderInfo[_orderId].buyer &&... */\n    tag_349:\n        /* \"Meta4Swap_flat.sol\":8714:9167  if (... */\n      iszero\n      tag_350\n      jumpi\n        /* \"Meta4Swap_flat.sol\":8884:8885  1 */\n      0x01\n        /* \"Meta4Swap_flat.sol\":8851:8860  orderInfo */\n      0x0d\n        /* \"Meta4Swap_flat.sol\":8851:8870  orderInfo[_orderId] */\n      0x00\n        /* \"Meta4Swap_flat.sol\":8861:8869  _orderId */\n      dup5\n        /* \"Meta4Swap_flat.sol\":8851:8870  orderInfo[_orderId] */\n      dup2\n      mstore\n      0x20\n      add\n      swap1\n      dup2\n      mstore\n      0x20\n      add\n      0x00\n      keccak256\n        /* \"Meta4Swap_flat.sol\":8851:8881  orderInfo[_orderId].buyerState */\n      0x07\n      add\n      0x00\n        /* \"Meta4Swap_flat.sol\":8851:8885  orderInfo[_orderId].buyerState = 1 */\n      0x0100\n      exp\n      dup2\n      sload\n      dup2\n      0xff\n      mul\n      not\n      and\n      swap1\n      dup4\n      0xff\n      and\n      mul\n      or\n      swap1\n      sstore\n      pop\n        /* \"Meta4Swap_flat.sol\":8933:8934  1 */\n      0x01\n        /* \"Meta4Swap_flat.sol\":8899:8908  orderInfo */\n      0x0d\n        /* \"Meta4Swap_flat.sol\":8899:8918  orderInfo[_orderId] */\n      0x00\n        /* \"Meta4Swap_flat.sol\":8909:8917  _orderId */\n      dup5\n        /* \"Meta4Swap_flat.sol\":8899:8918  orderInfo[_orderId] */\n      dup2\n      mstore\n      0x20\n      add\n      swap1\n      dup2\n      mstore\n      0x20\n      add\n      0x00\n      keccak256\n        /* \"Meta4Swap_flat.sol\":8899:8930  orderInfo[_orderId].sellerState */\n      0x07\n      add\n      0x01\n        /* \"Meta4Swap_flat.sol\":8899:8934  orderInfo[_orderId].sellerState = 1 */\n      0x0100\n      exp\n      dup2\n      sload\n      dup2\n      0xff\n      mul\n      not\n      and\n      swap1\n      dup4\n      0xff\n      and\n      mul\n      or\n      swap1\n      sstore\n      pop\n        /* \"Meta4Swap_flat.sol\":8714:9167  if (... */\n      jump(tag_351)\n    tag_350:\n        /* \"Meta4Swap_flat.sol\":8969:8978  orderInfo */\n      0x0d\n        /* \"Meta4Swap_flat.sol\":8969:8988  orderInfo[_orderId] */\n      0x00\n        /* \"Meta4Swap_flat.sol\":8979:8987  _orderId */\n      dup4\n        /* \"Meta4Swap_flat.sol\":8969:8988  orderInfo[_orderId] */\n      dup2\n      mstore\n      0x20\n      add\n      swap1\n      dup2\n      mstore\n      0x20\n      add\n      0x00\n      keccak256\n        /* \"Meta4Swap_flat.sol\":8969:8994  orderInfo[_orderId].buyer */\n      0x07\n      add\n      0x03\n      swap1\n      sload\n      swap1\n      0x0100\n      exp\n      swap1\n      div\n      0xffffffffffffffffffffffffffffffffffffffff\n      and\n        /* \"Meta4Swap_flat.sol\":8955:8994  msg.sender == orderInfo[_orderId].buyer */\n      0xffffffffffffffffffffffffffffffffffffffff\n      and\n        /* \"Meta4Swap_flat.sol\":8955:8965  msg.sender */\n      caller\n        /* \"Meta4Swap_flat.sol\":8955:8994  msg.sender == orderInfo[_orderId].buyer */\n      0xffffffffffffffffffffffffffffffffffffffff\n      and\n      eq\n        /* \"Meta4Swap_flat.sol\":8951:9167  if (msg.sender == orderInfo[_orderId].buyer) {... */\n      iszero\n      tag_352\n      jumpi\n        /* \"Meta4Swap_flat.sol\":9043:9044  1 */\n      0x01\n        /* \"Meta4Swap_flat.sol\":9010:9019  orderInfo */\n      0x0d\n        /* \"Meta4Swap_flat.sol\":9010:9029  orderInfo[_orderId] */\n      0x00\n        /* \"Meta4Swap_flat.sol\":9020:9028  _orderId */\n      dup5\n        /* \"Meta4Swap_flat.sol\":9010:9029  orderInfo[_orderId] */\n      dup2\n      mstore\n      0x20\n      add\n      swap1\n      dup2\n      mstore\n      0x20\n      add\n      0x00\n      keccak256\n        /* \"Meta4Swap_flat.sol\":9010:9040  orderInfo[_orderId].buyerState */\n      0x07\n      add\n      0x00\n        /* \"Meta4Swap_flat.sol\":9010:9044  orderInfo[_orderId].buyerState = 1 */\n      0x0100\n      exp\n      dup2\n      sload\n      dup2\n      0xff\n      mul\n      not\n      and\n      swap1\n      dup4\n      0xff\n      and\n      mul\n      or\n      swap1\n      sstore\n      pop\n        /* \"Meta4Swap_flat.sol\":8951:9167  if (msg.sender == orderInfo[_orderId].buyer) {... */\n      jump(tag_353)\n    tag_352:\n        /* \"Meta4Swap_flat.sol\":9079:9088  orderInfo */\n      0x0d\n        /* \"Meta4Swap_flat.sol\":9079:9098  orderInfo[_orderId] */\n      0x00\n        /* \"Meta4Swap_flat.sol\":9089:9097  _orderId */\n      dup4\n        /* \"Meta4Swap_flat.sol\":9079:9098  orderInfo[_orderId] */\n      dup2\n      mstore\n      0x20\n      add\n      swap1\n      dup2\n      mstore\n      0x20\n      add\n      0x00\n      keccak256\n        /* \"Meta4Swap_flat.sol\":9079:9105  orderInfo[_orderId].seller */\n      0x08\n      add\n      0x00\n      swap1\n      sload\n      swap1\n      0x0100\n      exp\n      swap1\n      div\n      0xffffffffffffffffffffffffffffffffffffffff\n      and\n        /* \"Meta4Swap_flat.sol\":9065:9105  msg.sender == orderInfo[_orderId].seller */\n      0xffffffffffffffffffffffffffffffffffffffff\n      and\n        /* \"Meta4Swap_flat.sol\":9065:9075  msg.sender */\n      caller\n        /* \"Meta4Swap_flat.sol\":9065:9105  msg.sender == orderInfo[_orderId].seller */\n      0xffffffffffffffffffffffffffffffffffffffff\n      and\n      eq\n        /* \"Meta4Swap_flat.sol\":9061:9167  if (msg.sender == orderInfo[_orderId].seller) {... */\n      iszero\n      tag_354\n      jumpi\n        /* \"Meta4Swap_flat.sol\":9155:9156  1 */\n      0x01\n        /* \"Meta4Swap_flat.sol\":9121:9130  orderInfo */\n      0x0d\n        /* \"Meta4Swap_flat.sol\":9121:9140  orderInfo[_orderId] */\n      0x00\n        /* \"Meta4Swap_flat.sol\":9131:9139  _orderId */\n      dup5\n        /* \"Meta4Swap_flat.sol\":9121:9140  orderInfo[_orderId] */\n      dup2\n      mstore\n      0x20\n      add\n      swap1\n      dup2\n      mstore\n      0x20\n      add\n      0x00\n      keccak256\n        /* \"Meta4Swap_flat.sol\":9121:9152  orderInfo[_orderId].sellerState */\n      0x07\n      add\n      0x01\n        /* \"Meta4Swap_flat.sol\":9121:9156  orderInfo[_orderId].sellerState = 1 */\n      0x0100\n      exp\n      dup2\n      sload\n      dup2\n      0xff\n      mul\n      not\n      and\n      swap1\n      dup4\n      0xff\n      and\n      mul\n      or\n      swap1\n      sstore\n      pop\n        /* \"Meta4Swap_flat.sol\":9061:9167  if (msg.sender == orderInfo[_orderId].seller) {... */\n    tag_354:\n        /* \"Meta4Swap_flat.sol\":8951:9167  if (msg.sender == orderInfo[_orderId].buyer) {... */\n    tag_353:\n        /* \"Meta4Swap_flat.sol\":8714:9167  if (... */\n    tag_351:\n        /* \"Meta4Swap_flat.sol\":9228:9229  1 */\n      0x01\n        /* \"Meta4Swap_flat.sol\":9194:9203  orderInfo */\n      0x0d\n        /* \"Meta4Swap_flat.sol\":9194:9213  orderInfo[_orderId] */\n      0x00\n        /* \"Meta4Swap_flat.sol\":9204:9212  _orderId */\n      dup5\n        /* \"Meta4Swap_flat.sol\":9194:9213  orderInfo[_orderId] */\n      dup2\n      mstore\n      0x20\n      add\n      swap1\n      dup2\n      mstore\n      0x20\n      add\n      0x00\n      keccak256\n        /* \"Meta4Swap_flat.sol\":9194:9224  orderInfo[_orderId].buyerState */\n      0x07\n      add\n      0x00\n      swap1\n      sload\n      swap1\n      0x0100\n      exp\n      swap1\n      div\n      0xff\n      and\n        /* \"Meta4Swap_flat.sol\":9194:9229  orderInfo[_orderId].buyerState == 1 */\n      0xff\n      and\n      eq\n        /* \"Meta4Swap_flat.sol\":9194:9281  orderInfo[_orderId].buyerState == 1 &&... */\n      dup1\n      iszero\n      tag_355\n      jumpi\n      pop\n        /* \"Meta4Swap_flat.sol\":9280:9281  1 */\n      0x01\n        /* \"Meta4Swap_flat.sol\":9245:9254  orderInfo */\n      0x0d\n        /* \"Meta4Swap_flat.sol\":9245:9264  orderInfo[_orderId] */\n      0x00\n        /* \"Meta4Swap_flat.sol\":9255:9263  _orderId */\n      dup5\n        /* \"Meta4Swap_flat.sol\":9245:9264  orderInfo[_orderId] */\n      dup2\n      mstore\n      0x20\n      add\n      swap1\n      dup2\n      mstore\n      0x20\n      add\n      0x00\n      keccak256\n        /* \"Meta4Swap_flat.sol\":9245:9276  orderInfo[_orderId].sellerState */\n      0x07\n      add\n      0x01\n      swap1\n      sload\n      swap1\n      0x0100\n      exp\n      swap1\n      div\n      0xff\n      and\n        /* \"Meta4Swap_flat.sol\":9245:9281  orderInfo[_orderId].sellerState == 1 */\n      0xff\n      and\n      eq\n        /* \"Meta4Swap_flat.sol\":9194:9281  orderInfo[_orderId].buyerState == 1 &&... */\n    tag_355:\n        /* \"Meta4Swap_flat.sol\":9177:10379  if (... */\n      iszero\n      tag_356\n      jumpi\n        /* \"Meta4Swap_flat.sol\":9335:9340  false */\n      0x00\n        /* \"Meta4Swap_flat.sol\":9306:9315  orderInfo */\n      0x0d\n        /* \"Meta4Swap_flat.sol\":9306:9325  orderInfo[_orderId] */\n      0x00\n        /* \"Meta4Swap_flat.sol\":9316:9324  _orderId */\n      dup5\n        /* \"Meta4Swap_flat.sol\":9306:9325  orderInfo[_orderId] */\n      dup2\n      mstore\n      0x20\n      add\n      swap1\n      dup2\n      mstore\n      0x20\n      add\n      0x00\n      keccak256\n        /* \"Meta4Swap_flat.sol\":9306:9332  orderInfo[_orderId].isLive */\n      0x07\n      add\n      0x02\n        /* \"Meta4Swap_flat.sol\":9306:9340  orderInfo[_orderId].isLive = false */\n      0x0100\n      exp\n      dup2\n      sload\n      dup2\n      0xff\n      mul\n      not\n      and\n      swap1\n      dup4\n      iszero\n      iszero\n      mul\n      or\n      swap1\n      sstore\n      pop\n        /* \"Meta4Swap_flat.sol\":9380:9389  bool sent */\n      0x00\n        /* \"Meta4Swap_flat.sol\":9391:9408  bytes memory data */\n      dup1\n        /* \"Meta4Swap_flat.sol\":9412:9421  orderInfo */\n      0x0d\n        /* \"Meta4Swap_flat.sol\":9412:9431  orderInfo[_orderId] */\n      0x00\n        /* \"Meta4Swap_flat.sol\":9422:9430  _orderId */\n      dup6\n        /* \"Meta4Swap_flat.sol\":9412:9431  orderInfo[_orderId] */\n      dup2\n      mstore\n      0x20\n      add\n      swap1\n      dup2\n      mstore\n      0x20\n      add\n      0x00\n      keccak256\n        /* \"Meta4Swap_flat.sol\":9412:9438  orderInfo[_orderId].seller */\n      0x08\n      add\n      0x00\n      swap1\n      sload\n      swap1\n      0x0100\n      exp\n      swap1\n      div\n      0xffffffffffffffffffffffffffffffffffffffff\n      and\n        /* \"Meta4Swap_flat.sol\":9412:9443  orderInfo[_orderId].seller.call */\n      0xffffffffffffffffffffffffffffffffffffffff\n      and\n        /* \"Meta4Swap_flat.sol\":9502:9511  orderInfo */\n      0x0d\n        /* \"Meta4Swap_flat.sol\":9502:9521  orderInfo[_orderId] */\n      0x00\n        /* \"Meta4Swap_flat.sol\":9512:9520  _orderId */\n      dup7\n        /* \"Meta4Swap_flat.sol\":9502:9521  orderInfo[_orderId] */\n      dup2\n      mstore\n      0x20\n      add\n      swap1\n      dup2\n      mstore\n      0x20\n      add\n      0x00\n      keccak256\n        /* \"Meta4Swap_flat.sol\":9502:9525  orderInfo[_orderId].fee */\n      0x04\n      add\n      sload\n        /* \"Meta4Swap_flat.sol\":9469:9478  orderInfo */\n      0x0d\n        /* \"Meta4Swap_flat.sol\":9469:9488  orderInfo[_orderId] */\n      0x00\n        /* \"Meta4Swap_flat.sol\":9479:9487  _orderId */\n      dup8\n        /* \"Meta4Swap_flat.sol\":9469:9488  orderInfo[_orderId] */\n      dup2\n      mstore\n      0x20\n      add\n      swap1\n      dup2\n      mstore\n      0x20\n      add\n      0x00\n      keccak256\n        /* \"Meta4Swap_flat.sol\":9469:9499  orderInfo[_orderId].orderTotal */\n      0x02\n      add\n      sload\n        /* \"Meta4Swap_flat.sol\":9469:9525  orderInfo[_orderId].orderTotal - orderInfo[_orderId].fee */\n      tag_357\n      swap2\n      swap1\n      tag_333\n      jump\t// in\n    tag_357:\n        /* \"Meta4Swap_flat.sol\":9412:9544  orderInfo[_orderId].seller.call{... */\n      mload(0x40)\n      tag_358\n      swap1\n      tag_256\n      jump\t// in\n    tag_358:\n      0x00\n      mload(0x40)\n      dup1\n      dup4\n      sub\n      dup2\n      dup6\n      dup8\n      gas\n      call\n      swap3\n      pop\n      pop\n      pop\n      returndatasize\n      dup1\n      0x00\n      dup2\n      eq\n      tag_361\n      jumpi\n      mload(0x40)\n      swap2\n      pop\n      and(add(returndatasize, 0x3f), not(0x1f))\n      dup3\n      add\n      0x40\n      mstore\n      returndatasize\n      dup3\n      mstore\n      returndatasize\n      0x00\n      0x20\n      dup5\n      add\n      returndatacopy\n      jump(tag_360)\n    tag_361:\n      0x60\n      swap2\n      pop\n    tag_360:\n      pop\n        /* \"Meta4Swap_flat.sol\":9379:9544  (bool sent, bytes memory data) = orderInfo[_orderId].seller.call{... */\n      swap2\n      pop\n      swap2\n      pop\n        /* \"Meta4Swap_flat.sol\":9584:9588  sent */\n      dup2\n        /* \"Meta4Swap_flat.sol\":9576:9613  require(sent, \"Failed to Send Ether\") */\n      tag_362\n      jumpi\n      mload(0x40)\n      0x08c379a000000000000000000000000000000000000000000000000000000000\n      dup2\n      mstore\n      0x04\n      add\n      tag_363\n      swap1\n      tag_262\n      jump\t// in\n    tag_363:\n      mload(0x40)\n      dup1\n      swap2\n      sub\n      swap1\n      revert\n    tag_362:\n        /* \"Meta4Swap_flat.sol\":9653:9695  _transferEarnings(orderInfo[_orderId].fee) */\n      tag_364\n        /* \"Meta4Swap_flat.sol\":9671:9680  orderInfo */\n      0x0d\n        /* \"Meta4Swap_flat.sol\":9671:9690  orderInfo[_orderId] */\n      0x00\n        /* \"Meta4Swap_flat.sol\":9681:9689  _orderId */\n      dup7\n        /* \"Meta4Swap_flat.sol\":9671:9690  orderInfo[_orderId] */\n      dup2\n      mstore\n      0x20\n      add\n      swap1\n      dup2\n      mstore\n      0x20\n      add\n      0x00\n      keccak256\n        /* \"Meta4Swap_flat.sol\":9671:9694  orderInfo[_orderId].fee */\n      0x04\n      add\n      sload\n        /* \"Meta4Swap_flat.sol\":9653:9670  _transferEarnings */\n      tag_365\n        /* \"Meta4Swap_flat.sol\":9653:9695  _transferEarnings(orderInfo[_orderId].fee) */\n      jump\t// in\n    tag_364:\n        /* \"Meta4Swap_flat.sol\":9788:9789  1 */\n      0x01\n        /* \"Meta4Swap_flat.sol\":9736:9747  userProfile */\n      0x10\n        /* \"Meta4Swap_flat.sol\":9736:9774  userProfile[orderInfo[_orderId].buyer] */\n      0x00\n        /* \"Meta4Swap_flat.sol\":9748:9757  orderInfo */\n      0x0d\n        /* \"Meta4Swap_flat.sol\":9748:9767  orderInfo[_orderId] */\n      0x00\n        /* \"Meta4Swap_flat.sol\":9758:9766  _orderId */\n      dup9\n        /* \"Meta4Swap_flat.sol\":9748:9767  orderInfo[_orderId] */\n      dup2\n      mstore\n      0x20\n      add\n      swap1\n      dup2\n      mstore\n      0x20\n      add\n      0x00\n      keccak256\n        /* \"Meta4Swap_flat.sol\":9748:9773  orderInfo[_orderId].buyer */\n      0x07\n      add\n      0x03\n      swap1\n      sload\n      swap1\n      0x0100\n      exp\n      swap1\n      div\n      0xffffffffffffffffffffffffffffffffffffffff\n      and\n        /* \"Meta4Swap_flat.sol\":9736:9774  userProfile[orderInfo[_orderId].buyer] */\n      0xffffffffffffffffffffffffffffffffffffffff\n      and\n      0xffffffffffffffffffffffffffffffffffffffff\n      and\n      dup2\n      mstore\n      0x20\n      add\n      swap1\n      dup2\n      mstore\n      0x20\n      add\n      0x00\n      keccak256\n        /* \"Meta4Swap_flat.sol\":9736:9784  userProfile[orderInfo[_orderId].buyer].completed */\n      0x01\n      add\n      0x00\n        /* \"Meta4Swap_flat.sol\":9736:9789  userProfile[orderInfo[_orderId].buyer].completed += 1 */\n      dup3\n      dup3\n      sload\n      tag_366\n      swap2\n      swap1\n      tag_254\n      jump\t// in\n    tag_366:\n      swap3\n      pop\n      pop\n      dup2\n      swap1\n      sstore\n      pop\n        /* \"Meta4Swap_flat.sol\":9884:9885  1 */\n      0x01\n        /* \"Meta4Swap_flat.sol\":9831:9842  userProfile */\n      0x10\n        /* \"Meta4Swap_flat.sol\":9831:9870  userProfile[orderInfo[_orderId].seller] */\n      0x00\n        /* \"Meta4Swap_flat.sol\":9843:9852  orderInfo */\n      0x0d\n        /* \"Meta4Swap_flat.sol\":9843:9862  orderInfo[_orderId] */\n      0x00\n        /* \"Meta4Swap_flat.sol\":9853:9861  _orderId */\n      dup9\n        /* \"Meta4Swap_flat.sol\":9843:9862  orderInfo[_orderId] */\n      dup2\n      mstore\n      0x20\n      add\n      swap1\n      dup2\n      mstore\n      0x20\n      add\n      0x00\n      keccak256\n        /* \"Meta4Swap_flat.sol\":9843:9869  orderInfo[_orderId].seller */\n      0x08\n      add\n      0x00\n      swap1\n      sload\n      swap1\n      0x0100\n      exp\n      swap1\n      div\n      0xffffffffffffffffffffffffffffffffffffffff\n      and\n        /* \"Meta4Swap_flat.sol\":9831:9870  userProfile[orderInfo[_orderId].seller] */\n      0xffffffffffffffffffffffffffffffffffffffff\n      and\n      0xffffffffffffffffffffffffffffffffffffffff\n      and\n      dup2\n      mstore\n      0x20\n      add\n      swap1\n      dup2\n      mstore\n      0x20\n      add\n      0x00\n      keccak256\n        /* \"Meta4Swap_flat.sol\":9831:9880  userProfile[orderInfo[_orderId].seller].completed */\n      0x01\n      add\n      0x00\n        /* \"Meta4Swap_flat.sol\":9831:9885  userProfile[orderInfo[_orderId].seller].completed += 1 */\n      dup3\n      dup3\n      sload\n      tag_367\n      swap2\n      swap1\n      tag_254\n      jump\t// in\n    tag_367:\n      swap3\n      pop\n      pop\n      dup2\n      swap1\n      sstore\n      pop\n        /* \"Meta4Swap_flat.sol\":9929:9940  rewardsLive */\n      0x0b\n      0x00\n      swap1\n      sload\n      swap1\n      0x0100\n      exp\n      swap1\n      div\n      0xff\n      and\n        /* \"Meta4Swap_flat.sol\":9929:9977  rewardsLive && orderInfo[_orderId].fee >= minFee */\n      dup1\n      iszero\n      tag_368\n      jumpi\n      pop\n        /* \"Meta4Swap_flat.sol\":9971:9977  minFee */\n      sload(0x0a)\n        /* \"Meta4Swap_flat.sol\":9944:9953  orderInfo */\n      0x0d\n        /* \"Meta4Swap_flat.sol\":9944:9963  orderInfo[_orderId] */\n      0x00\n        /* \"Meta4Swap_flat.sol\":9954:9962  _orderId */\n      dup7\n        /* \"Meta4Swap_flat.sol\":9944:9963  orderInfo[_orderId] */\n      dup2\n      mstore\n      0x20\n      add\n      swap1\n      dup2\n      mstore\n      0x20\n      add\n      0x00\n      keccak256\n        /* \"Meta4Swap_flat.sol\":9944:9967  orderInfo[_orderId].fee */\n      0x04\n      add\n      sload\n        /* \"Meta4Swap_flat.sol\":9944:9977  orderInfo[_orderId].fee >= minFee */\n      lt\n      iszero\n        /* \"Meta4Swap_flat.sol\":9929:9977  rewardsLive && orderInfo[_orderId].fee >= minFee */\n    tag_368:\n        /* \"Meta4Swap_flat.sol\":9925:10369  if (rewardsLive && orderInfo[_orderId].fee >= minFee) {... */\n      iszero\n      tag_369\n      jumpi\n        /* \"Meta4Swap_flat.sol\":10012:10020  m4sToken */\n      0x05\n      0x00\n      swap1\n      sload\n      swap1\n      0x0100\n      exp\n      swap1\n      div\n      0xffffffffffffffffffffffffffffffffffffffff\n      and\n        /* \"Meta4Swap_flat.sol\":9997:10032  Meta4SwapToken(m4sToken).mintReward */\n      0xffffffffffffffffffffffffffffffffffffffff\n      and\n      0x9a49090e\n        /* \"Meta4Swap_flat.sol\":10054:10063  orderInfo */\n      0x0d\n        /* \"Meta4Swap_flat.sol\":10054:10073  orderInfo[_orderId] */\n      0x00\n        /* \"Meta4Swap_flat.sol\":10064:10072  _orderId */\n      dup8\n        /* \"Meta4Swap_flat.sol\":10054:10073  orderInfo[_orderId] */\n      dup2\n      mstore\n      0x20\n      add\n      swap1\n      dup2\n      mstore\n      0x20\n      add\n      0x00\n      keccak256\n        /* \"Meta4Swap_flat.sol\":10054:10079  orderInfo[_orderId].buyer */\n      0x07\n      add\n      0x03\n      swap1\n      sload\n      swap1\n      0x0100\n      exp\n      swap1\n      div\n      0xffffffffffffffffffffffffffffffffffffffff\n      and\n        /* \"Meta4Swap_flat.sol\":10101:10112  buyerReward */\n      sload(0x07)\n        /* \"Meta4Swap_flat.sol\":9997:10130  Meta4SwapToken(m4sToken).mintReward(... */\n      mload(0x40)\n      dup4\n      0xffffffff\n      and\n      0xe0\n      shl\n      dup2\n      mstore\n      0x04\n      add\n      tag_370\n      swap3\n      swap2\n      swap1\n      tag_371\n      jump\t// in\n    tag_370:\n      0x20\n      mload(0x40)\n      dup1\n      dup4\n      sub\n      dup2\n      0x00\n      dup8\n      dup1\n      extcodesize\n      iszero\n      dup1\n      iszero\n      tag_372\n      jumpi\n      0x00\n      dup1\n      revert\n    tag_372:\n      pop\n      gas\n      call\n      iszero\n      dup1\n      iszero\n      tag_374\n      jumpi\n      returndatasize\n      0x00\n      dup1\n      returndatacopy\n      revert(0x00, returndatasize)\n    tag_374:\n      pop\n      pop\n      pop\n      pop\n      mload(0x40)\n      returndatasize\n      not(0x1f)\n      0x1f\n      dup3\n      add\n      and\n      dup3\n      add\n      dup1\n      0x40\n      mstore\n      pop\n      dup2\n      add\n      swap1\n      tag_375\n      swap2\n      swap1\n      tag_376\n      jump\t// in\n    tag_375:\n      pop\n        /* \"Meta4Swap_flat.sol\":10163:10171  m4sToken */\n      0x05\n      0x00\n      swap1\n      sload\n      swap1\n      0x0100\n      exp\n      swap1\n      div\n      0xffffffffffffffffffffffffffffffffffffffff\n      and\n        /* \"Meta4Swap_flat.sol\":10148:10183  Meta4SwapToken(m4sToken).mintReward */\n      0xffffffffffffffffffffffffffffffffffffffff\n      and\n      0x9a49090e\n        /* \"Meta4Swap_flat.sol\":10205:10214  orderInfo */\n      0x0d\n        /* \"Meta4Swap_flat.sol\":10205:10224  orderInfo[_orderId] */\n      0x00\n        /* \"Meta4Swap_flat.sol\":10215:10223  _orderId */\n      dup8\n        /* \"Meta4Swap_flat.sol\":10205:10224  orderInfo[_orderId] */\n      dup2\n      mstore\n      0x20\n      add\n      swap1\n      dup2\n      mstore\n      0x20\n      add\n      0x00\n      keccak256\n        /* \"Meta4Swap_flat.sol\":10205:10231  orderInfo[_orderId].seller */\n      0x08\n      add\n      0x00\n      swap1\n      sload\n      swap1\n      0x0100\n      exp\n      swap1\n      div\n      0xffffffffffffffffffffffffffffffffffffffff\n      and\n        /* \"Meta4Swap_flat.sol\":10253:10265  sellerReward */\n      sload(0x08)\n        /* \"Meta4Swap_flat.sol\":10148:10283  Meta4SwapToken(m4sToken).mintReward(... */\n      mload(0x40)\n      dup4\n      0xffffffff\n      and\n      0xe0\n      shl\n      dup2\n      mstore\n      0x04\n      add\n      tag_377\n      swap3\n      swap2\n      swap1\n      tag_371\n      jump\t// in\n    tag_377:\n      0x20\n      mload(0x40)\n      dup1\n      dup4\n      sub\n      dup2\n      0x00\n      dup8\n      dup1\n      extcodesize\n      iszero\n      dup1\n      iszero\n      tag_378\n      jumpi\n      0x00\n      dup1\n      revert\n    tag_378:\n      pop\n      gas\n      call\n      iszero\n      dup1\n      iszero\n      tag_380\n      jumpi\n      returndatasize\n      0x00\n      dup1\n      returndatacopy\n      revert(0x00, returndatasize)\n    tag_380:\n      pop\n      pop\n      pop\n      pop\n      mload(0x40)\n      returndatasize\n      not(0x1f)\n      0x1f\n      dup3\n      add\n      and\n      dup3\n      add\n      dup1\n      0x40\n      mstore\n      pop\n      dup2\n      add\n      swap1\n      tag_381\n      swap2\n      swap1\n      tag_376\n      jump\t// in\n    tag_381:\n      pop\n        /* \"Meta4Swap_flat.sol\":10316:10324  m4sToken */\n      0x05\n      0x00\n      swap1\n      sload\n      swap1\n      0x0100\n      exp\n      swap1\n      div\n      0xffffffffffffffffffffffffffffffffffffffff\n      and\n        /* \"Meta4Swap_flat.sol\":10301:10336  Meta4SwapToken(m4sToken).mintReward */\n      0xffffffffffffffffffffffffffffffffffffffff\n      and\n      0x9a49090e\n        /* \"Meta4Swap_flat.sol\":10337:10342  admin */\n      0x03\n      0x00\n      swap1\n      sload\n      swap1\n      0x0100\n      exp\n      swap1\n      div\n      0xffffffffffffffffffffffffffffffffffffffff\n      and\n        /* \"Meta4Swap_flat.sol\":10344:10353  daoReward */\n      sload(0x09)\n        /* \"Meta4Swap_flat.sol\":10301:10354  Meta4SwapToken(m4sToken).mintReward(admin, daoReward) */\n      mload(0x40)\n      dup4\n      0xffffffff\n      and\n      0xe0\n      shl\n      dup2\n      mstore\n      0x04\n      add\n      tag_382\n      swap3\n      swap2\n      swap1\n      tag_371\n      jump\t// in\n    tag_382:\n      0x20\n      mload(0x40)\n      dup1\n      dup4\n      sub\n      dup2\n      0x00\n      dup8\n      dup1\n      extcodesize\n      iszero\n      dup1\n      iszero\n      tag_383\n      jumpi\n      0x00\n      dup1\n      revert\n    tag_383:\n      pop\n      gas\n      call\n      iszero\n      dup1\n      iszero\n      tag_385\n      jumpi\n      returndatasize\n      0x00\n      dup1\n      returndatacopy\n      revert(0x00, returndatasize)\n    tag_385:\n      pop\n      pop\n      pop\n      pop\n      mload(0x40)\n      returndatasize\n      not(0x1f)\n      0x1f\n      dup3\n      add\n      and\n      dup3\n      add\n      dup1\n      0x40\n      mstore\n      pop\n      dup2\n      add\n      swap1\n      tag_386\n      swap2\n      swap1\n      tag_376\n      jump\t// in\n    tag_386:\n      pop\n        /* \"Meta4Swap_flat.sol\":9925:10369  if (rewardsLive && orderInfo[_orderId].fee >= minFee) {... */\n    tag_369:\n        /* \"Meta4Swap_flat.sol\":9292:10379  {... */\n      pop\n      pop\n        /* \"Meta4Swap_flat.sol\":9177:10379  if (... */\n    tag_356:\n        /* \"Meta4Swap_flat.sol\":10394:10416  OrderUpdated(_orderId) */\n      0xb8b459bc0688c37baf5f735d17f1711684bc14ab7db116f88bc18bf409b9309a\n        /* \"Meta4Swap_flat.sol\":10407:10415  _orderId */\n      dup3\n        /* \"Meta4Swap_flat.sol\":10394:10416  OrderUpdated(_orderId) */\n      mload(0x40)\n      tag_387\n      swap2\n      swap1\n      tag_59\n      jump\t// in\n    tag_387:\n      mload(0x40)\n      dup1\n      swap2\n      sub\n      swap1\n      log1\n        /* \"Meta4Swap_flat.sol\":8559:10423  function complete(uint256 _orderId) public onlyCounterpart(_orderId) {... */\n      pop\n      pop\n      jump\t// out\n        /* \"Meta4Swap_flat.sol\":13520:13886  function updateRules(uint256 _variable, uint256 _value)... */\n    tag_167:\n        /* \"Meta4Swap_flat.sol\":13608:13612  bool */\n      0x00\n        /* \"Meta4Swap_flat.sol\":13643:13653  msg.sender */\n      caller\n        /* \"Meta4Swap_flat.sol\":13636:13653  dao == msg.sender */\n      0xffffffffffffffffffffffffffffffffffffffff\n      and\n        /* \"Meta4Swap_flat.sol\":13636:13639  dao */\n      0x04\n      0x00\n      swap1\n      sload\n      swap1\n      0x0100\n      exp\n      swap1\n      div\n      0xffffffffffffffffffffffffffffffffffffffff\n      and\n        /* \"Meta4Swap_flat.sol\":13636:13653  dao == msg.sender */\n      0xffffffffffffffffffffffffffffffffffffffff\n      and\n      eq\n        /* \"Meta4Swap_flat.sol\":13628:13654  require(dao == msg.sender) */\n      tag_389\n      jumpi\n      0x00\n      dup1\n      revert\n    tag_389:\n        /* \"Meta4Swap_flat.sol\":13681:13682  0 */\n      0x00\n        /* \"Meta4Swap_flat.sol\":13668:13677  _variable */\n      dup4\n        /* \"Meta4Swap_flat.sol\":13668:13682  _variable == 0 */\n      eq\n        /* \"Meta4Swap_flat.sol\":13664:13857  if (_variable == 0) {... */\n      iszero\n      tag_390\n      jumpi\n        /* \"Meta4Swap_flat.sol\":13738:13744  _value */\n      dup2\n        /* \"Meta4Swap_flat.sol\":13721:13735  marketplaceFee */\n      0x02\n        /* \"Meta4Swap_flat.sol\":13721:13744  marketplaceFee = _value */\n      dup2\n      swap1\n      sstore\n      pop\n        /* \"Meta4Swap_flat.sol\":13664:13857  if (_variable == 0) {... */\n      jump(tag_391)\n    tag_390:\n        /* \"Meta4Swap_flat.sol\":13788:13789  1 */\n      0x01\n        /* \"Meta4Swap_flat.sol\":13775:13784  _variable */\n      dup4\n        /* \"Meta4Swap_flat.sol\":13775:13789  _variable == 1 */\n      eq\n        /* \"Meta4Swap_flat.sol\":13771:13857  if (_variable == 1) {... */\n      iszero\n      tag_392\n      jumpi\n        /* \"Meta4Swap_flat.sol\":13840:13846  _value */\n      dup2\n        /* \"Meta4Swap_flat.sol\":13831:13837  minFee */\n      0x0a\n        /* \"Meta4Swap_flat.sol\":13831:13846  minFee = _value */\n      dup2\n      swap1\n      sstore\n      pop\n        /* \"Meta4Swap_flat.sol\":13771:13857  if (_variable == 1) {... */\n    tag_392:\n        /* \"Meta4Swap_flat.sol\":13664:13857  if (_variable == 0) {... */\n    tag_391:\n        /* \"Meta4Swap_flat.sol\":13875:13879  true */\n      0x01\n        /* \"Meta4Swap_flat.sol\":13868:13879  return true */\n      swap1\n      pop\n        /* \"Meta4Swap_flat.sol\":13520:13886  function updateRules(uint256 _variable, uint256 _value)... */\n      swap3\n      swap2\n      pop\n      pop\n      jump\t// out\n        /* \"Meta4Swap_flat.sol\":12149:13495  function resolve(uint256 _orderId, address _winner) public {... */\n    tag_172:\n        /* \"Meta4Swap_flat.sol\":12271:12275  true */\n      0x01\n        /* \"Meta4Swap_flat.sol\":12239:12275  disputeInfo[_orderId].isLive == true */\n      iszero\n      iszero\n        /* \"Meta4Swap_flat.sol\":12239:12250  disputeInfo */\n      0x0f\n        /* \"Meta4Swap_flat.sol\":12239:12260  disputeInfo[_orderId] */\n      0x00\n        /* \"Meta4Swap_flat.sol\":12251:12259  _orderId */\n      dup5\n        /* \"Meta4Swap_flat.sol\":12239:12260  disputeInfo[_orderId] */\n      dup2\n      mstore\n      0x20\n      add\n      swap1\n      dup2\n      mstore\n      0x20\n      add\n      0x00\n      keccak256\n        /* \"Meta4Swap_flat.sol\":12239:12267  disputeInfo[_orderId].isLive */\n      0x03\n      add\n      0x00\n      swap1\n      sload\n      swap1\n      0x0100\n      exp\n      swap1\n      div\n      0xff\n      and\n        /* \"Meta4Swap_flat.sol\":12239:12275  disputeInfo[_orderId].isLive == true */\n      iszero\n      iszero\n      eq\n        /* \"Meta4Swap_flat.sol\":12218:12343  require(... */\n      tag_394\n      jumpi\n      mload(0x40)\n      0x08c379a000000000000000000000000000000000000000000000000000000000\n      dup2\n      mstore\n      0x04\n      add\n      tag_395\n      swap1\n      tag_396\n      jump\t// in\n    tag_395:\n      mload(0x40)\n      dup1\n      swap2\n      sub\n      swap1\n      revert\n    tag_394:\n        /* \"Meta4Swap_flat.sol\":12373:12378  admin */\n      0x03\n      0x00\n      swap1\n      sload\n      swap1\n      0x0100\n      exp\n      swap1\n      div\n      0xffffffffffffffffffffffffffffffffffffffff\n      and\n        /* \"Meta4Swap_flat.sol\":12361:12378  msg.sender==admin */\n      0xffffffffffffffffffffffffffffffffffffffff\n      and\n        /* \"Meta4Swap_flat.sol\":12361:12371  msg.sender */\n      caller\n        /* \"Meta4Swap_flat.sol\":12361:12378  msg.sender==admin */\n      0xffffffffffffffffffffffffffffffffffffffff\n      and\n      eq\n        /* \"Meta4Swap_flat.sol\":12353:12420  require(msg.sender==admin, \"Only DAO address can resolve disputes\") */\n      tag_397\n      jumpi\n      mload(0x40)\n      0x08c379a000000000000000000000000000000000000000000000000000000000\n      dup2\n      mstore\n      0x04\n      add\n      tag_398\n      swap1\n      tag_399\n      jump\t// in\n    tag_398:\n      mload(0x40)\n      dup1\n      swap2\n      sub\n      swap1\n      revert\n    tag_397:\n        /* \"Meta4Swap_flat.sol\":12444:12453  orderInfo */\n      0x0d\n        /* \"Meta4Swap_flat.sol\":12444:12463  orderInfo[_orderId] */\n      0x00\n        /* \"Meta4Swap_flat.sol\":12454:12462  _orderId */\n      dup4\n        /* \"Meta4Swap_flat.sol\":12444:12463  orderInfo[_orderId] */\n      dup2\n      mstore\n      0x20\n      add\n      swap1\n      dup2\n      mstore\n      0x20\n      add\n      0x00\n      keccak256\n        /* \"Meta4Swap_flat.sol\":12444:12469  orderInfo[_orderId].buyer */\n      0x07\n      add\n      0x03\n      swap1\n      sload\n      swap1\n      0x0100\n      exp\n      swap1\n      div\n      0xffffffffffffffffffffffffffffffffffffffff\n      and\n        /* \"Meta4Swap_flat.sol\":12435:12469  _winner==orderInfo[_orderId].buyer */\n      0xffffffffffffffffffffffffffffffffffffffff\n      and\n        /* \"Meta4Swap_flat.sol\":12435:12442  _winner */\n      dup2\n        /* \"Meta4Swap_flat.sol\":12435:12469  _winner==orderInfo[_orderId].buyer */\n      0xffffffffffffffffffffffffffffffffffffffff\n      and\n      eq\n        /* \"Meta4Swap_flat.sol\":12431:13188  if (_winner==orderInfo[_orderId].buyer) {... */\n      iszero\n      tag_400\n      jumpi\n        /* \"Meta4Swap_flat.sol\":12529:12538  bool sent */\n      0x00\n        /* \"Meta4Swap_flat.sol\":12540:12557  bytes memory data */\n      dup1\n        /* \"Meta4Swap_flat.sol\":12561:12570  orderInfo */\n      0x0d\n        /* \"Meta4Swap_flat.sol\":12561:12580  orderInfo[_orderId] */\n      0x00\n        /* \"Meta4Swap_flat.sol\":12571:12579  _orderId */\n      dup6\n        /* \"Meta4Swap_flat.sol\":12561:12580  orderInfo[_orderId] */\n      dup2\n      mstore\n      0x20\n      add\n      swap1\n      dup2\n      mstore\n      0x20\n      add\n      0x00\n      keccak256\n        /* \"Meta4Swap_flat.sol\":12561:12586  orderInfo[_orderId].buyer */\n      0x07\n      add\n      0x03\n      swap1\n      sload\n      swap1\n      0x0100\n      exp\n      swap1\n      div\n      0xffffffffffffffffffffffffffffffffffffffff\n      and\n        /* \"Meta4Swap_flat.sol\":12561:12591  orderInfo[_orderId].buyer.call */\n      0xffffffffffffffffffffffffffffffffffffffff\n      and\n        /* \"Meta4Swap_flat.sol\":12616:12625  orderInfo */\n      0x0d\n        /* \"Meta4Swap_flat.sol\":12616:12635  orderInfo[_orderId] */\n      0x00\n        /* \"Meta4Swap_flat.sol\":12626:12634  _orderId */\n      dup7\n        /* \"Meta4Swap_flat.sol\":12616:12635  orderInfo[_orderId] */\n      dup2\n      mstore\n      0x20\n      add\n      swap1\n      dup2\n      mstore\n      0x20\n      add\n      0x00\n      keccak256\n        /* \"Meta4Swap_flat.sol\":12616:12646  orderInfo[_orderId].orderTotal */\n      0x02\n      add\n      sload\n        /* \"Meta4Swap_flat.sol\":12561:12664  orderInfo[_orderId].buyer.call{... */\n      mload(0x40)\n      tag_401\n      swap1\n      tag_256\n      jump\t// in\n    tag_401:\n      0x00\n      mload(0x40)\n      dup1\n      dup4\n      sub\n      dup2\n      dup6\n      dup8\n      gas\n      call\n      swap3\n      pop\n      pop\n      pop\n      returndatasize\n      dup1\n      0x00\n      dup2\n      eq\n      tag_404\n      jumpi\n      mload(0x40)\n      swap2\n      pop\n      and(add(returndatasize, 0x3f), not(0x1f))\n      dup3\n      add\n      0x40\n      mstore\n      returndatasize\n      dup3\n      mstore\n      returndatasize\n      0x00\n      0x20\n      dup5\n      add\n      returndatacopy\n      jump(tag_403)\n    tag_404:\n      0x60\n      swap2\n      pop\n    tag_403:\n      pop\n        /* \"Meta4Swap_flat.sol\":12528:12664  (bool sent, bytes memory data) = orderInfo[_orderId].buyer.call{... */\n      swap2\n      pop\n      swap2\n      pop\n        /* \"Meta4Swap_flat.sol\":12704:12708  sent */\n      dup2\n        /* \"Meta4Swap_flat.sol\":12696:12733  require(sent, \"Failed to Send Ether\") */\n      tag_405\n      jumpi\n      mload(0x40)\n      0x08c379a000000000000000000000000000000000000000000000000000000000\n      dup2\n      mstore\n      0x04\n      add\n      tag_406\n      swap1\n      tag_262\n      jump\t// in\n    tag_406:\n      mload(0x40)\n      dup1\n      swap2\n      sub\n      swap1\n      revert\n    tag_405:\n        /* \"Meta4Swap_flat.sol\":12773:12774  0 */\n      0x00\n        /* \"Meta4Swap_flat.sol\":12747:12756  orderInfo */\n      0x0d\n        /* \"Meta4Swap_flat.sol\":12747:12766  orderInfo[_orderId] */\n      0x00\n        /* \"Meta4Swap_flat.sol\":12757:12765  _orderId */\n      dup7\n        /* \"Meta4Swap_flat.sol\":12747:12766  orderInfo[_orderId] */\n      dup2\n      mstore\n      0x20\n      add\n      swap1\n      dup2\n      mstore\n      0x20\n      add\n      0x00\n      keccak256\n        /* \"Meta4Swap_flat.sol\":12747:12770  orderInfo[_orderId].fee */\n      0x04\n      add\n        /* \"Meta4Swap_flat.sol\":12747:12774  orderInfo[_orderId].fee = 0 */\n      dup2\n      swap1\n      sstore\n      pop\n        /* \"Meta4Swap_flat.sol\":12471:12785  {... */\n      pop\n      pop\n        /* \"Meta4Swap_flat.sol\":12431:13188  if (_winner==orderInfo[_orderId].buyer) {... */\n      jump(tag_407)\n    tag_400:\n        /* \"Meta4Swap_flat.sol\":12804:12813  orderInfo */\n      0x0d\n        /* \"Meta4Swap_flat.sol\":12804:12823  orderInfo[_orderId] */\n      0x00\n        /* \"Meta4Swap_flat.sol\":12814:12822  _orderId */\n      dup4\n        /* \"Meta4Swap_flat.sol\":12804:12823  orderInfo[_orderId] */\n      dup2\n      mstore\n      0x20\n      add\n      swap1\n      dup2\n      mstore\n      0x20\n      add\n      0x00\n      keccak256\n        /* \"Meta4Swap_flat.sol\":12804:12830  orderInfo[_orderId].seller */\n      0x08\n      add\n      0x00\n      swap1\n      sload\n      swap1\n      0x0100\n      exp\n      swap1\n      div\n      0xffffffffffffffffffffffffffffffffffffffff\n      and\n        /* \"Meta4Swap_flat.sol\":12795:12830  _winner==orderInfo[_orderId].seller */\n      0xffffffffffffffffffffffffffffffffffffffff\n      and\n        /* \"Meta4Swap_flat.sol\":12795:12802  _winner */\n      dup2\n        /* \"Meta4Swap_flat.sol\":12795:12830  _winner==orderInfo[_orderId].seller */\n      0xffffffffffffffffffffffffffffffffffffffff\n      and\n      eq\n        /* \"Meta4Swap_flat.sol\":12791:13188  if (_winner==orderInfo[_orderId].seller) {... */\n      iszero\n      tag_408\n      jumpi\n        /* \"Meta4Swap_flat.sol\":12887:12896  bool sent */\n      0x00\n        /* \"Meta4Swap_flat.sol\":12898:12915  bytes memory data */\n      dup1\n        /* \"Meta4Swap_flat.sol\":12919:12928  orderInfo */\n      0x0d\n        /* \"Meta4Swap_flat.sol\":12919:12938  orderInfo[_orderId] */\n      0x00\n        /* \"Meta4Swap_flat.sol\":12929:12937  _orderId */\n      dup6\n        /* \"Meta4Swap_flat.sol\":12919:12938  orderInfo[_orderId] */\n      dup2\n      mstore\n      0x20\n      add\n      swap1\n      dup2\n      mstore\n      0x20\n      add\n      0x00\n      keccak256\n        /* \"Meta4Swap_flat.sol\":12919:12945  orderInfo[_orderId].seller */\n      0x08\n      add\n      0x00\n      swap1\n      sload\n      swap1\n      0x0100\n      exp\n      swap1\n      div\n      0xffffffffffffffffffffffffffffffffffffffff\n      and\n        /* \"Meta4Swap_flat.sol\":12919:12950  orderInfo[_orderId].seller.call */\n      0xffffffffffffffffffffffffffffffffffffffff\n      and\n        /* \"Meta4Swap_flat.sol\":13009:13018  orderInfo */\n      0x0d\n        /* \"Meta4Swap_flat.sol\":13009:13028  orderInfo[_orderId] */\n      0x00\n        /* \"Meta4Swap_flat.sol\":13019:13027  _orderId */\n      dup7\n        /* \"Meta4Swap_flat.sol\":13009:13028  orderInfo[_orderId] */\n      dup2\n      mstore\n      0x20\n      add\n      swap1\n      dup2\n      mstore\n      0x20\n      add\n      0x00\n      keccak256\n        /* \"Meta4Swap_flat.sol\":13009:13032  orderInfo[_orderId].fee */\n      0x04\n      add\n      sload\n        /* \"Meta4Swap_flat.sol\":12976:12985  orderInfo */\n      0x0d\n        /* \"Meta4Swap_flat.sol\":12976:12995  orderInfo[_orderId] */\n      0x00\n        /* \"Meta4Swap_flat.sol\":12986:12994  _orderId */\n      dup8\n        /* \"Meta4Swap_flat.sol\":12976:12995  orderInfo[_orderId] */\n      dup2\n      mstore\n      0x20\n      add\n      swap1\n      dup2\n      mstore\n      0x20\n      add\n      0x00\n      keccak256\n        /* \"Meta4Swap_flat.sol\":12976:13006  orderInfo[_orderId].orderTotal */\n      0x02\n      add\n      sload\n        /* \"Meta4Swap_flat.sol\":12976:13032  orderInfo[_orderId].orderTotal - orderInfo[_orderId].fee */\n      tag_409\n      swap2\n      swap1\n      tag_333\n      jump\t// in\n    tag_409:\n        /* \"Meta4Swap_flat.sol\":12919:13051  orderInfo[_orderId].seller.call{... */\n      mload(0x40)\n      tag_410\n      swap1\n      tag_256\n      jump\t// in\n    tag_410:\n      0x00\n      mload(0x40)\n      dup1\n      dup4\n      sub\n      dup2\n      dup6\n      dup8\n      gas\n      call\n      swap3\n      pop\n      pop\n      pop\n      returndatasize\n      dup1\n      0x00\n      dup2\n      eq\n      tag_413\n      jumpi\n      mload(0x40)\n      swap2\n      pop\n      and(add(returndatasize, 0x3f), not(0x1f))\n      dup3\n      add\n      0x40\n      mstore\n      returndatasize\n      dup3\n      mstore\n      returndatasize\n      0x00\n      0x20\n      dup5\n      add\n      returndatacopy\n      jump(tag_412)\n    tag_413:\n      0x60\n      swap2\n      pop\n    tag_412:\n      pop\n        /* \"Meta4Swap_flat.sol\":12886:13051  (bool sent, bytes memory data) = orderInfo[_orderId].seller.call{... */\n      swap2\n      pop\n      swap2\n      pop\n        /* \"Meta4Swap_flat.sol\":13091:13095  sent */\n      dup2\n        /* \"Meta4Swap_flat.sol\":13083:13120  require(sent, \"Failed to Send Ether\") */\n      tag_414\n      jumpi\n      mload(0x40)\n      0x08c379a000000000000000000000000000000000000000000000000000000000\n      dup2\n      mstore\n      0x04\n      add\n      tag_415\n      swap1\n      tag_262\n      jump\t// in\n    tag_415:\n      mload(0x40)\n      dup1\n      swap2\n      sub\n      swap1\n      revert\n    tag_414:\n        /* \"Meta4Swap_flat.sol\":13134:13176  _transferEarnings(orderInfo[_orderId].fee) */\n      tag_416\n        /* \"Meta4Swap_flat.sol\":13152:13161  orderInfo */\n      0x0d\n        /* \"Meta4Swap_flat.sol\":13152:13171  orderInfo[_orderId] */\n      0x00\n        /* \"Meta4Swap_flat.sol\":13162:13170  _orderId */\n      dup7\n        /* \"Meta4Swap_flat.sol\":13152:13171  orderInfo[_orderId] */\n      dup2\n      mstore\n      0x20\n      add\n      swap1\n      dup2\n      mstore\n      0x20\n      add\n      0x00\n      keccak256\n        /* \"Meta4Swap_flat.sol\":13152:13175  orderInfo[_orderId].fee */\n      0x04\n      add\n      sload\n        /* \"Meta4Swap_flat.sol\":13134:13151  _transferEarnings */\n      tag_365\n        /* \"Meta4Swap_flat.sol\":13134:13176  _transferEarnings(orderInfo[_orderId].fee) */\n      jump\t// in\n    tag_416:\n        /* \"Meta4Swap_flat.sol\":12832:13188  {... */\n      pop\n      pop\n        /* \"Meta4Swap_flat.sol\":12791:13188  if (_winner==orderInfo[_orderId].seller) {... */\n    tag_408:\n        /* \"Meta4Swap_flat.sol\":12431:13188  if (_winner==orderInfo[_orderId].buyer) {... */\n    tag_407:\n        /* \"Meta4Swap_flat.sol\":13232:13233  4 */\n      0x04\n        /* \"Meta4Swap_flat.sol\":13198:13207  orderInfo */\n      0x0d\n        /* \"Meta4Swap_flat.sol\":13198:13217  orderInfo[_orderId] */\n      0x00\n        /* \"Meta4Swap_flat.sol\":13208:13216  _orderId */\n      dup5\n        /* \"Meta4Swap_flat.sol\":13198:13217  orderInfo[_orderId] */\n      dup2\n      mstore\n      0x20\n      add\n      swap1\n      dup2\n      mstore\n      0x20\n      add\n      0x00\n      keccak256\n        /* \"Meta4Swap_flat.sol\":13198:13229  orderInfo[_orderId].sellerState */\n      0x07\n      add\n      0x01\n        /* \"Meta4Swap_flat.sol\":13198:13233  orderInfo[_orderId].sellerState = 4 */\n      0x0100\n      exp\n      dup2\n      sload\n      dup2\n      0xff\n      mul\n      not\n      and\n      swap1\n      dup4\n      0xff\n      and\n      mul\n      or\n      swap1\n      sstore\n      pop\n        /* \"Meta4Swap_flat.sol\":13276:13277  4 */\n      0x04\n        /* \"Meta4Swap_flat.sol\":13243:13252  orderInfo */\n      0x0d\n        /* \"Meta4Swap_flat.sol\":13243:13262  orderInfo[_orderId] */\n      0x00\n        /* \"Meta4Swap_flat.sol\":13253:13261  _orderId */\n      dup5\n        /* \"Meta4Swap_flat.sol\":13243:13262  orderInfo[_orderId] */\n      dup2\n      mstore\n      0x20\n      add\n      swap1\n      dup2\n      mstore\n      0x20\n      add\n      0x00\n      keccak256\n        /* \"Meta4Swap_flat.sol\":13243:13273  orderInfo[_orderId].buyerState */\n      0x07\n      add\n      0x00\n        /* \"Meta4Swap_flat.sol\":13243:13277  orderInfo[_orderId].buyerState = 4 */\n      0x0100\n      exp\n      dup2\n      sload\n      dup2\n      0xff\n      mul\n      not\n      and\n      swap1\n      dup4\n      0xff\n      and\n      mul\n      or\n      swap1\n      sstore\n      pop\n        /* \"Meta4Swap_flat.sol\":13338:13339  1 */\n      0x01\n        /* \"Meta4Swap_flat.sol\":13288:13299  userProfile */\n      0x10\n        /* \"Meta4Swap_flat.sol\":13288:13326  userProfile[orderInfo[_orderId].buyer] */\n      0x00\n        /* \"Meta4Swap_flat.sol\":13300:13309  orderInfo */\n      0x0d\n        /* \"Meta4Swap_flat.sol\":13300:13319  orderInfo[_orderId] */\n      0x00\n        /* \"Meta4Swap_flat.sol\":13310:13318  _orderId */\n      dup7\n        /* \"Meta4Swap_flat.sol\":13300:13319  orderInfo[_orderId] */\n      dup2\n      mstore\n      0x20\n      add\n      swap1\n      dup2\n      mstore\n      0x20\n      add\n      0x00\n      keccak256\n        /* \"Meta4Swap_flat.sol\":13300:13325  orderInfo[_orderId].buyer */\n      0x07\n      add\n      0x03\n      swap1\n      sload\n      swap1\n      0x0100\n      exp\n      swap1\n      div\n      0xffffffffffffffffffffffffffffffffffffffff\n      and\n        /* \"Meta4Swap_flat.sol\":13288:13326  userProfile[orderInfo[_orderId].buyer] */\n      0xffffffffffffffffffffffffffffffffffffffff\n      and\n      0xffffffffffffffffffffffffffffffffffffffff\n      and\n      dup2\n      mstore\n      0x20\n      add\n      swap1\n      dup2\n      mstore\n      0x20\n      add\n      0x00\n      keccak256\n        /* \"Meta4Swap_flat.sol\":13288:13335  userProfile[orderInfo[_orderId].buyer].disputes */\n      0x02\n      add\n      0x00\n        /* \"Meta4Swap_flat.sol\":13288:13339  userProfile[orderInfo[_orderId].buyer].disputes +=1 */\n      dup3\n      dup3\n      sload\n      tag_417\n      swap2\n      swap1\n      tag_254\n      jump\t// in\n    tag_417:\n      swap3\n      pop\n      pop\n      dup2\n      swap1\n      sstore\n      pop\n        /* \"Meta4Swap_flat.sol\":13400:13401  1 */\n      0x01\n        /* \"Meta4Swap_flat.sol\":13349:13360  userProfile */\n      0x10\n        /* \"Meta4Swap_flat.sol\":13349:13388  userProfile[orderInfo[_orderId].seller] */\n      0x00\n        /* \"Meta4Swap_flat.sol\":13361:13370  orderInfo */\n      0x0d\n        /* \"Meta4Swap_flat.sol\":13361:13380  orderInfo[_orderId] */\n      0x00\n        /* \"Meta4Swap_flat.sol\":13371:13379  _orderId */\n      dup7\n        /* \"Meta4Swap_flat.sol\":13361:13380  orderInfo[_orderId] */\n      dup2\n      mstore\n      0x20\n      add\n      swap1\n      dup2\n      mstore\n      0x20\n      add\n      0x00\n      keccak256\n        /* \"Meta4Swap_flat.sol\":13361:13387  orderInfo[_orderId].seller */\n      0x08\n      add\n      0x00\n      swap1\n      sload\n      swap1\n      0x0100\n      exp\n      swap1\n      div\n      0xffffffffffffffffffffffffffffffffffffffff\n      and\n        /* \"Meta4Swap_flat.sol\":13349:13388  userProfile[orderInfo[_orderId].seller] */\n      0xffffffffffffffffffffffffffffffffffffffff\n      and\n      0xffffffffffffffffffffffffffffffffffffffff\n      and\n      dup2\n      mstore\n      0x20\n      add\n      swap1\n      dup2\n      mstore\n      0x20\n      add\n      0x00\n      keccak256\n        /* \"Meta4Swap_flat.sol\":13349:13397  userProfile[orderInfo[_orderId].seller].disputes */\n      0x02\n      add\n      0x00\n        /* \"Meta4Swap_flat.sol\":13349:13401  userProfile[orderInfo[_orderId].seller].disputes +=1 */\n      dup3\n      dup3\n      sload\n      tag_418\n      swap2\n      swap1\n      tag_254\n      jump\t// in\n    tag_418:\n      swap3\n      pop\n      pop\n      dup2\n      swap1\n      sstore\n      pop\n        /* \"Meta4Swap_flat.sol\":13443:13448  false */\n      0x00\n        /* \"Meta4Swap_flat.sol\":13412:13423  disputeInfo */\n      0x0f\n        /* \"Meta4Swap_flat.sol\":13412:13433  disputeInfo[_orderId] */\n      0x00\n        /* \"Meta4Swap_flat.sol\":13424:13432  _orderId */\n      dup5\n        /* \"Meta4Swap_flat.sol\":13412:13433  disputeInfo[_orderId] */\n      dup2\n      mstore\n      0x20\n      add\n      swap1\n      dup2\n      mstore\n      0x20\n      add\n      0x00\n      keccak256\n        /* \"Meta4Swap_flat.sol\":13412:13440  disputeInfo[_orderId].isLive */\n      0x03\n      add\n      0x00\n        /* \"Meta4Swap_flat.sol\":13412:13448  disputeInfo[_orderId].isLive = false */\n      0x0100\n      exp\n      dup2\n      sload\n      dup2\n      0xff\n      mul\n      not\n      and\n      swap1\n      dup4\n      iszero\n      iszero\n      mul\n      or\n      swap1\n      sstore\n      pop\n        /* \"Meta4Swap_flat.sol\":13464:13488  DisputeUpdated(_orderId) */\n      0x29a00cd7b143153a043355a38ed7fa14305cd81468035c2e2e389897f38980d8\n        /* \"Meta4Swap_flat.sol\":13479:13487  _orderId */\n      dup3\n        /* \"Meta4Swap_flat.sol\":13464:13488  DisputeUpdated(_orderId) */\n      mload(0x40)\n      tag_419\n      swap2\n      swap1\n      tag_59\n      jump\t// in\n    tag_419:\n      mload(0x40)\n      dup1\n      swap2\n      sub\n      swap1\n      log1\n        /* \"Meta4Swap_flat.sol\":12149:13495  function resolve(uint256 _orderId, address _winner) public {... */\n      pop\n      pop\n      jump\t// out\n        /* \"Meta4Swap_flat.sol\":15234:15497  function editState(uint256 _itemId, bool _isLive) public {... */\n    tag_177:\n        /* \"Meta4Swap_flat.sol\":15336:15344  itemInfo */\n      0x0c\n        /* \"Meta4Swap_flat.sol\":15336:15353  itemInfo[_itemId] */\n      0x00\n        /* \"Meta4Swap_flat.sol\":15345:15352  _itemId */\n      dup4\n        /* \"Meta4Swap_flat.sol\":15336:15353  itemInfo[_itemId] */\n      dup2\n      mstore\n      0x20\n      add\n      swap1\n      dup2\n      mstore\n      0x20\n      add\n      0x00\n      keccak256\n        /* \"Meta4Swap_flat.sol\":15336:15359  itemInfo[_itemId].owner */\n      0x04\n      add\n      0x00\n      swap1\n      sload\n      swap1\n      0x0100\n      exp\n      swap1\n      div\n      0xffffffffffffffffffffffffffffffffffffffff\n      and\n        /* \"Meta4Swap_flat.sol\":15322:15359  msg.sender == itemInfo[_itemId].owner */\n      0xffffffffffffffffffffffffffffffffffffffff\n      and\n        /* \"Meta4Swap_flat.sol\":15322:15332  msg.sender */\n      caller\n        /* \"Meta4Swap_flat.sol\":15322:15359  msg.sender == itemInfo[_itemId].owner */\n      0xffffffffffffffffffffffffffffffffffffffff\n      and\n      eq\n        /* \"Meta4Swap_flat.sol\":15301:15409  require(... */\n      tag_421\n      jumpi\n      mload(0x40)\n      0x08c379a000000000000000000000000000000000000000000000000000000000\n      dup2\n      mstore\n      0x04\n      add\n      tag_422\n      swap1\n      tag_290\n      jump\t// in\n    tag_422:\n      mload(0x40)\n      dup1\n      swap2\n      sub\n      swap1\n      revert\n    tag_421:\n        /* \"Meta4Swap_flat.sol\":15447:15454  _isLive */\n      dup1\n        /* \"Meta4Swap_flat.sol\":15420:15428  itemInfo */\n      0x0c\n        /* \"Meta4Swap_flat.sol\":15420:15437  itemInfo[_itemId] */\n      0x00\n        /* \"Meta4Swap_flat.sol\":15429:15436  _itemId */\n      dup5\n        /* \"Meta4Swap_flat.sol\":15420:15437  itemInfo[_itemId] */\n      dup2\n      mstore\n      0x20\n      add\n      swap1\n      dup2\n      mstore\n      0x20\n      add\n      0x00\n      keccak256\n        /* \"Meta4Swap_flat.sol\":15420:15444  itemInfo[_itemId].isLive */\n      0x02\n      add\n      0x00\n        /* \"Meta4Swap_flat.sol\":15420:15454  itemInfo[_itemId].isLive = _isLive */\n      0x0100\n      exp\n      dup2\n      sload\n      dup2\n      0xff\n      mul\n      not\n      and\n      swap1\n      dup4\n      iszero\n      iszero\n      mul\n      or\n      swap1\n      sstore\n      pop\n        /* \"Meta4Swap_flat.sol\":15470:15490  ItemUpdated(_itemId) */\n      0x5e58dfa592b09c585a4ab7ef8158d20b1e52e9897f3095dbe1df700853905c2f\n        /* \"Meta4Swap_flat.sol\":15482:15489  _itemId */\n      dup3\n        /* \"Meta4Swap_flat.sol\":15470:15490  ItemUpdated(_itemId) */\n      mload(0x40)\n      tag_423\n      swap2\n      swap1\n      tag_59\n      jump\t// in\n    tag_423:\n      mload(0x40)\n      dup1\n      swap2\n      sub\n      swap1\n      log1\n        /* \"Meta4Swap_flat.sol\":15234:15497  function editState(uint256 _itemId, bool _isLive) public {... */\n      pop\n      pop\n      jump\t// out\n        /* \"Meta4Swap_flat.sol\":1500:1526  uint256 public buyerReward */\n    tag_180:\n      sload(0x07)\n      dup2\n      jump\t// out\n        /* \"Meta4Swap_flat.sol\":14678:14941  function editPrice(uint256 _itemId, uint256 _value) public {... */\n    tag_185:\n        /* \"Meta4Swap_flat.sol\":14782:14790  itemInfo */\n      0x0c\n        /* \"Meta4Swap_flat.sol\":14782:14799  itemInfo[_itemId] */\n      0x00\n        /* \"Meta4Swap_flat.sol\":14791:14798  _itemId */\n      dup4\n        /* \"Meta4Swap_flat.sol\":14782:14799  itemInfo[_itemId] */\n      dup2\n      mstore\n      0x20\n      add\n      swap1\n      dup2\n      mstore\n      0x20\n      add\n      0x00\n      keccak256\n        /* \"Meta4Swap_flat.sol\":14782:14805  itemInfo[_itemId].owner */\n      0x04\n      add\n      0x00\n      swap1\n      sload\n      swap1\n      0x0100\n      exp\n      swap1\n      div\n      0xffffffffffffffffffffffffffffffffffffffff\n      and\n        /* \"Meta4Swap_flat.sol\":14768:14805  msg.sender == itemInfo[_itemId].owner */\n      0xffffffffffffffffffffffffffffffffffffffff\n      and\n        /* \"Meta4Swap_flat.sol\":14768:14778  msg.sender */\n      caller\n        /* \"Meta4Swap_flat.sol\":14768:14805  msg.sender == itemInfo[_itemId].owner */\n      0xffffffffffffffffffffffffffffffffffffffff\n      and\n      eq\n        /* \"Meta4Swap_flat.sol\":14747:14855  require(... */\n      tag_425\n      jumpi\n      mload(0x40)\n      0x08c379a000000000000000000000000000000000000000000000000000000000\n      dup2\n      mstore\n      0x04\n      add\n      tag_426\n      swap1\n      tag_290\n      jump\t// in\n    tag_426:\n      mload(0x40)\n      dup1\n      swap2\n      sub\n      swap1\n      revert\n    tag_425:\n        /* \"Meta4Swap_flat.sol\":14892:14898  _value */\n      dup1\n        /* \"Meta4Swap_flat.sol\":14866:14874  itemInfo */\n      0x0c\n        /* \"Meta4Swap_flat.sol\":14866:14883  itemInfo[_itemId] */\n      0x00\n        /* \"Meta4Swap_flat.sol\":14875:14882  _itemId */\n      dup5\n        /* \"Meta4Swap_flat.sol\":14866:14883  itemInfo[_itemId] */\n      dup2\n      mstore\n      0x20\n      add\n      swap1\n      dup2\n      mstore\n      0x20\n      add\n      0x00\n      keccak256\n        /* \"Meta4Swap_flat.sol\":14866:14889  itemInfo[_itemId].price */\n      0x03\n      add\n        /* \"Meta4Swap_flat.sol\":14866:14898  itemInfo[_itemId].price = _value */\n      dup2\n      swap1\n      sstore\n      pop\n        /* \"Meta4Swap_flat.sol\":14914:14934  ItemUpdated(_itemId) */\n      0x5e58dfa592b09c585a4ab7ef8158d20b1e52e9897f3095dbe1df700853905c2f\n        /* \"Meta4Swap_flat.sol\":14926:14933  _itemId */\n      dup3\n        /* \"Meta4Swap_flat.sol\":14914:14934  ItemUpdated(_itemId) */\n      mload(0x40)\n      tag_427\n      swap2\n      swap1\n      tag_59\n      jump\t// in\n    tag_427:\n      mload(0x40)\n      dup1\n      swap2\n      sub\n      swap1\n      log1\n        /* \"Meta4Swap_flat.sol\":14678:14941  function editPrice(uint256 _itemId, uint256 _value) public {... */\n      pop\n      pop\n      jump\t// out\n        /* \"Meta4Swap_flat.sol\":4846:6464  function buy(uint256 _itemId)... */\n    tag_188:\n        /* \"Meta4Swap_flat.sol\":4924:4931  uint256 */\n      0x00\n        /* \"Meta4Swap_flat.sol\":4996:5000  true */\n      0x01\n        /* \"Meta4Swap_flat.sol\":4968:5000  itemInfo[_itemId].isLive == true */\n      iszero\n      iszero\n        /* \"Meta4Swap_flat.sol\":4968:4976  itemInfo */\n      0x0c\n        /* \"Meta4Swap_flat.sol\":4968:4985  itemInfo[_itemId] */\n      0x00\n        /* \"Meta4Swap_flat.sol\":4977:4984  _itemId */\n      dup5\n        /* \"Meta4Swap_flat.sol\":4968:4985  itemInfo[_itemId] */\n      dup2\n      mstore\n      0x20\n      add\n      swap1\n      dup2\n      mstore\n      0x20\n      add\n      0x00\n      keccak256\n        /* \"Meta4Swap_flat.sol\":4968:4992  itemInfo[_itemId].isLive */\n      0x02\n      add\n      0x00\n      swap1\n      sload\n      swap1\n      0x0100\n      exp\n      swap1\n      div\n      0xff\n      and\n        /* \"Meta4Swap_flat.sol\":4968:5000  itemInfo[_itemId].isLive == true */\n      iszero\n      iszero\n      eq\n        /* \"Meta4Swap_flat.sol\":4947:5061  require(... */\n      tag_429\n      jumpi\n      mload(0x40)\n      0x08c379a000000000000000000000000000000000000000000000000000000000\n      dup2\n      mstore\n      0x04\n      add\n      tag_430\n      swap1\n      tag_431\n      jump\t// in\n    tag_430:\n      mload(0x40)\n      dup1\n      swap2\n      sub\n      swap1\n      revert\n    tag_429:\n        /* \"Meta4Swap_flat.sol\":5091:5099  itemInfo */\n      0x0c\n        /* \"Meta4Swap_flat.sol\":5091:5108  itemInfo[_itemId] */\n      0x00\n        /* \"Meta4Swap_flat.sol\":5100:5107  _itemId */\n      dup4\n        /* \"Meta4Swap_flat.sol\":5091:5108  itemInfo[_itemId] */\n      dup2\n      mstore\n      0x20\n      add\n      swap1\n      dup2\n      mstore\n      0x20\n      add\n      0x00\n      keccak256\n        /* \"Meta4Swap_flat.sol\":5091:5114  itemInfo[_itemId].owner */\n      0x04\n      add\n      0x00\n      swap1\n      sload\n      swap1\n      0x0100\n      exp\n      swap1\n      div\n      0xffffffffffffffffffffffffffffffffffffffff\n      and\n        /* \"Meta4Swap_flat.sol\":5079:5114  msg.sender!=itemInfo[_itemId].owner */\n      0xffffffffffffffffffffffffffffffffffffffff\n      and\n        /* \"Meta4Swap_flat.sol\":5079:5089  msg.sender */\n      caller\n        /* \"Meta4Swap_flat.sol\":5079:5114  msg.sender!=itemInfo[_itemId].owner */\n      0xffffffffffffffffffffffffffffffffffffffff\n      and\n      eq\n      iszero\n        /* \"Meta4Swap_flat.sol\":5071:5140  require(msg.sender!=itemInfo[_itemId].owner, \"Buyer cannot be owner\") */\n      tag_432\n      jumpi\n      mload(0x40)\n      0x08c379a000000000000000000000000000000000000000000000000000000000\n      dup2\n      mstore\n      0x04\n      add\n      tag_433\n      swap1\n      tag_284\n      jump\t// in\n    tag_433:\n      mload(0x40)\n      dup1\n      swap2\n      sub\n      swap1\n      revert\n    tag_432:\n        /* \"Meta4Swap_flat.sol\":5151:5161  orderCount */\n      0x00\n      dup1\n        /* \"Meta4Swap_flat.sol\":5151:5163  orderCount++ */\n      dup2\n      sload\n      dup1\n      swap3\n      swap2\n      swap1\n      tag_434\n      swap1\n      tag_266\n      jump\t// in\n    tag_434:\n      swap2\n      swap1\n      pop\n      sstore\n      pop\n        /* \"Meta4Swap_flat.sol\":5173:5192  Order memory _order */\n      tag_435\n      tag_320\n      jump\t// in\n    tag_435:\n        /* \"Meta4Swap_flat.sol\":5235:5251  getLatestPrice() */\n      tag_436\n        /* \"Meta4Swap_flat.sol\":5235:5249  getLatestPrice */\n      tag_152\n        /* \"Meta4Swap_flat.sol\":5235:5251  getLatestPrice() */\n      jump\t// in\n    tag_436:\n        /* \"Meta4Swap_flat.sol\":5203:5209  _order */\n      dup2\n        /* \"Meta4Swap_flat.sol\":5203:5224  _order.chainLinkPrice */\n      0xc0\n      add\n        /* \"Meta4Swap_flat.sol\":5203:5252  _order.chainLinkPrice = uint256(getLatestPrice()) */\n      dup2\n      dup2\n      mstore\n      pop\n      pop\n        /* \"Meta4Swap_flat.sol\":5262:5280  uint256 orderTotal */\n      0x00\n        /* \"Meta4Swap_flat.sol\":5348:5353  10**8 */\n      0x05f5e100\n        /* \"Meta4Swap_flat.sol\":5311:5317  _order */\n      dup3\n        /* \"Meta4Swap_flat.sol\":5311:5332  _order.chainLinkPrice */\n      0xc0\n      add\n      mload\n        /* \"Meta4Swap_flat.sol\":5285:5293  itemInfo */\n      0x0c\n        /* \"Meta4Swap_flat.sol\":5285:5302  itemInfo[_itemId] */\n      0x00\n        /* \"Meta4Swap_flat.sol\":5294:5301  _itemId */\n      dup8\n        /* \"Meta4Swap_flat.sol\":5285:5302  itemInfo[_itemId] */\n      dup2\n      mstore\n      0x20\n      add\n      swap1\n      dup2\n      mstore\n      0x20\n      add\n      0x00\n      keccak256\n        /* \"Meta4Swap_flat.sol\":5285:5308  itemInfo[_itemId].price */\n      0x03\n      add\n      sload\n        /* \"Meta4Swap_flat.sol\":5285:5332  itemInfo[_itemId].price / _order.chainLinkPrice */\n      tag_437\n      swap2\n      swap1\n      tag_323\n      jump\t// in\n    tag_437:\n        /* \"Meta4Swap_flat.sol\":5284:5353  (itemInfo[_itemId].price / _order.chainLinkPrice) *... */\n      tag_438\n      swap2\n      swap1\n      tag_325\n      jump\t// in\n    tag_438:\n        /* \"Meta4Swap_flat.sol\":5262:5354  uint256 orderTotal = ((itemInfo[_itemId].price / _order.chainLinkPrice) *... */\n      swap1\n      pop\n        /* \"Meta4Swap_flat.sol\":5364:5380  uint256 orderFee */\n      0x00\n        /* \"Meta4Swap_flat.sol\":5415:5420  10000 */\n      0x2710\n        /* \"Meta4Swap_flat.sol\":5401:5411  orderTotal */\n      dup3\n        /* \"Meta4Swap_flat.sol\":5384:5398  marketplaceFee */\n      sload(0x02)\n        /* \"Meta4Swap_flat.sol\":5384:5411  marketplaceFee * orderTotal */\n      tag_439\n      swap2\n      swap1\n      tag_325\n      jump\t// in\n    tag_439:\n        /* \"Meta4Swap_flat.sol\":5383:5420  (marketplaceFee * orderTotal) / 10000 */\n      tag_440\n      swap2\n      swap1\n      tag_323\n      jump\t// in\n    tag_440:\n        /* \"Meta4Swap_flat.sol\":5364:5420  uint256 orderFee = (marketplaceFee * orderTotal) / 10000 */\n      swap1\n      pop\n        /* \"Meta4Swap_flat.sol\":5451:5461  orderTotal */\n      dup2\n        /* \"Meta4Swap_flat.sol\":5438:5447  msg.value */\n      callvalue\n        /* \"Meta4Swap_flat.sol\":5438:5461  msg.value >= orderTotal */\n      lt\n      iszero\n        /* \"Meta4Swap_flat.sol\":5430:5496  require(msg.value >= orderTotal, \"Amount paid is less than total\") */\n      tag_441\n      jumpi\n      mload(0x40)\n      0x08c379a000000000000000000000000000000000000000000000000000000000\n      dup2\n      mstore\n      0x04\n      add\n      tag_442\n      swap1\n      tag_330\n      jump\t// in\n    tag_442:\n      mload(0x40)\n      dup1\n      swap2\n      sub\n      swap1\n      revert\n    tag_441:\n        /* \"Meta4Swap_flat.sol\":5519:5529  orderCount */\n      sload(0x00)\n        /* \"Meta4Swap_flat.sol\":5507:5513  _order */\n      dup4\n        /* \"Meta4Swap_flat.sol\":5507:5516  _order.id */\n      0x00\n      add\n        /* \"Meta4Swap_flat.sol\":5507:5529  _order.id = orderCount */\n      dup2\n      dup2\n      mstore\n      pop\n      pop\n        /* \"Meta4Swap_flat.sol\":5555:5562  _itemId */\n      dup5\n        /* \"Meta4Swap_flat.sol\":5539:5545  _order */\n      dup4\n        /* \"Meta4Swap_flat.sol\":5539:5552  _order.itemId */\n      0x20\n      add\n        /* \"Meta4Swap_flat.sol\":5539:5562  _order.itemId = _itemId */\n      dup2\n      dup2\n      mstore\n      pop\n      pop\n        /* \"Meta4Swap_flat.sol\":5591:5599  itemInfo */\n      0x0c\n        /* \"Meta4Swap_flat.sol\":5591:5608  itemInfo[_itemId] */\n      0x00\n        /* \"Meta4Swap_flat.sol\":5600:5607  _itemId */\n      dup7\n        /* \"Meta4Swap_flat.sol\":5591:5608  itemInfo[_itemId] */\n      dup2\n      mstore\n      0x20\n      add\n      swap1\n      dup2\n      mstore\n      0x20\n      add\n      0x00\n      keccak256\n        /* \"Meta4Swap_flat.sol\":5591:5614  itemInfo[_itemId].price */\n      0x03\n      add\n      sload\n        /* \"Meta4Swap_flat.sol\":5572:5578  _order */\n      dup4\n        /* \"Meta4Swap_flat.sol\":5572:5588  _order.itemPrice */\n      0xa0\n      add\n        /* \"Meta4Swap_flat.sol\":5572:5614  _order.itemPrice = itemInfo[_itemId].price */\n      dup2\n      dup2\n      mstore\n      pop\n      pop\n        /* \"Meta4Swap_flat.sol\":5644:5654  orderTotal */\n      dup2\n        /* \"Meta4Swap_flat.sol\":5624:5630  _order */\n      dup4\n        /* \"Meta4Swap_flat.sol\":5624:5641  _order.orderTotal */\n      0x40\n      add\n        /* \"Meta4Swap_flat.sol\":5624:5654  _order.orderTotal = orderTotal */\n      dup2\n      dup2\n      mstore\n      pop\n      pop\n        /* \"Meta4Swap_flat.sol\":5677:5685  orderFee */\n      dup1\n        /* \"Meta4Swap_flat.sol\":5664:5670  _order */\n      dup4\n        /* \"Meta4Swap_flat.sol\":5664:5674  _order.fee */\n      0x80\n      add\n        /* \"Meta4Swap_flat.sol\":5664:5685  _order.fee = orderFee */\n      dup2\n      dup2\n      mstore\n      pop\n      pop\n        /* \"Meta4Swap_flat.sol\":5711:5715  true */\n      0x01\n        /* \"Meta4Swap_flat.sol\":5695:5701  _order */\n      dup4\n        /* \"Meta4Swap_flat.sol\":5695:5708  _order.isLive */\n      0x0120\n      add\n        /* \"Meta4Swap_flat.sol\":5695:5715  _order.isLive = true */\n      swap1\n      iszero\n      iszero\n      swap1\n      dup2\n      iszero\n      iszero\n      dup2\n      mstore\n      pop\n      pop\n        /* \"Meta4Swap_flat.sol\":5742:5754  block.number */\n      number\n        /* \"Meta4Swap_flat.sol\":5725:5731  _order */\n      dup4\n        /* \"Meta4Swap_flat.sol\":5725:5739  _order.created */\n      0x60\n      add\n        /* \"Meta4Swap_flat.sol\":5725:5754  _order.created = block.number */\n      dup2\n      dup2\n      mstore\n      pop\n      pop\n        /* \"Meta4Swap_flat.sol\":5779:5789  msg.sender */\n      caller\n        /* \"Meta4Swap_flat.sol\":5764:5770  _order */\n      dup4\n        /* \"Meta4Swap_flat.sol\":5764:5776  _order.buyer */\n      0x0140\n      add\n        /* \"Meta4Swap_flat.sol\":5764:5789  _order.buyer = msg.sender */\n      swap1\n      0xffffffffffffffffffffffffffffffffffffffff\n      and\n      swap1\n      dup2\n      0xffffffffffffffffffffffffffffffffffffffff\n      and\n      dup2\n      mstore\n      pop\n      pop\n        /* \"Meta4Swap_flat.sol\":5815:5823  itemInfo */\n      0x0c\n        /* \"Meta4Swap_flat.sol\":5815:5832  itemInfo[_itemId] */\n      0x00\n        /* \"Meta4Swap_flat.sol\":5824:5831  _itemId */\n      dup7\n        /* \"Meta4Swap_flat.sol\":5815:5832  itemInfo[_itemId] */\n      dup2\n      mstore\n      0x20\n      add\n      swap1\n      dup2\n      mstore\n      0x20\n      add\n      0x00\n      keccak256\n        /* \"Meta4Swap_flat.sol\":5815:5838  itemInfo[_itemId].owner */\n      0x04\n      add\n      0x00\n      swap1\n      sload\n      swap1\n      0x0100\n      exp\n      swap1\n      div\n      0xffffffffffffffffffffffffffffffffffffffff\n      and\n        /* \"Meta4Swap_flat.sol\":5799:5805  _order */\n      dup4\n        /* \"Meta4Swap_flat.sol\":5799:5812  _order.seller */\n      0x0160\n      add\n        /* \"Meta4Swap_flat.sol\":5799:5838  _order.seller = itemInfo[_itemId].owner */\n      swap1\n      0xffffffffffffffffffffffffffffffffffffffff\n      and\n      swap1\n      dup2\n      0xffffffffffffffffffffffffffffffffffffffff\n      and\n      dup2\n      mstore\n      pop\n      pop\n        /* \"Meta4Swap_flat.sol\":5880:5886  _order */\n      dup3\n        /* \"Meta4Swap_flat.sol\":5857:5866  orderInfo */\n      0x0d\n        /* \"Meta4Swap_flat.sol\":5857:5877  orderInfo[_order.id] */\n      0x00\n        /* \"Meta4Swap_flat.sol\":5867:5873  _order */\n      dup6\n        /* \"Meta4Swap_flat.sol\":5867:5876  _order.id */\n      0x00\n      add\n      mload\n        /* \"Meta4Swap_flat.sol\":5857:5877  orderInfo[_order.id] */\n      dup2\n      mstore\n      0x20\n      add\n      swap1\n      dup2\n      mstore\n      0x20\n      add\n      0x00\n      keccak256\n        /* \"Meta4Swap_flat.sol\":5857:5886  orderInfo[_order.id] = _order */\n      0x00\n      dup3\n      add\n      mload\n      dup2\n      0x00\n      add\n      sstore\n      0x20\n      dup3\n      add\n      mload\n      dup2\n      0x01\n      add\n      sstore\n      0x40\n      dup3\n      add\n      mload\n      dup2\n      0x02\n      add\n      sstore\n      0x60\n      dup3\n      add\n      mload\n      dup2\n      0x03\n      add\n      sstore\n      0x80\n      dup3\n      add\n      mload\n      dup2\n      0x04\n      add\n      sstore\n      0xa0\n      dup3\n      add\n      mload\n      dup2\n      0x05\n      add\n      sstore\n      0xc0\n      dup3\n      add\n      mload\n      dup2\n      0x06\n      add\n      sstore\n      0xe0\n      dup3\n      add\n      mload\n      dup2\n      0x07\n      add\n      exp(0x0100, 0x00)\n      dup2\n      sload\n      dup2\n      0xff\n      mul\n      not\n      and\n      swap1\n      dup4\n      0xff\n      and\n      mul\n      or\n      swap1\n      sstore\n      pop\n      0x0100\n      dup3\n      add\n      mload\n      dup2\n      0x07\n      add\n      exp(0x0100, 0x01)\n      dup2\n      sload\n      dup2\n      0xff\n      mul\n      not\n      and\n      swap1\n      dup4\n      0xff\n      and\n      mul\n      or\n      swap1\n      sstore\n      pop\n      0x0120\n      dup3\n      add\n      mload\n      dup2\n      0x07\n      add\n      exp(0x0100, 0x02)\n      dup2\n      sload\n      dup2\n      0xff\n      mul\n      not\n      and\n      swap1\n      dup4\n      iszero\n      iszero\n      mul\n      or\n      swap1\n      sstore\n      pop\n      0x0140\n      dup3\n      add\n      mload\n      dup2\n      0x07\n      add\n      exp(0x0100, 0x03)\n      dup2\n      sload\n      dup2\n      0xffffffffffffffffffffffffffffffffffffffff\n      mul\n      not\n      and\n      swap1\n      dup4\n      0xffffffffffffffffffffffffffffffffffffffff\n      and\n      mul\n      or\n      swap1\n      sstore\n      pop\n      0x0160\n      dup3\n      add\n      mload\n      dup2\n      0x08\n      add\n      exp(0x0100, 0x00)\n      dup2\n      sload\n      dup2\n      0xffffffffffffffffffffffffffffffffffffffff\n      mul\n      not\n      and\n      swap1\n      dup4\n      0xffffffffffffffffffffffffffffffffffffffff\n      and\n      mul\n      or\n      swap1\n      sstore\n      pop\n      swap1\n      pop\n      pop\n        /* \"Meta4Swap_flat.sol\":5913:5923  orderTotal */\n      dup2\n        /* \"Meta4Swap_flat.sol\":5901:5910  msg.value */\n      callvalue\n        /* \"Meta4Swap_flat.sol\":5901:5923  msg.value > orderTotal */\n      gt\n        /* \"Meta4Swap_flat.sol\":5897:6177  if (msg.value > orderTotal) {... */\n      iszero\n      tag_443\n      jumpi\n        /* \"Meta4Swap_flat.sol\":5983:5992  bool sent */\n      0x00\n        /* \"Meta4Swap_flat.sol\":5994:6011  bytes memory data */\n      dup1\n        /* \"Meta4Swap_flat.sol\":6015:6025  msg.sender */\n      caller\n        /* \"Meta4Swap_flat.sol\":6015:6030  msg.sender.call */\n      0xffffffffffffffffffffffffffffffffffffffff\n      and\n        /* \"Meta4Swap_flat.sol\":6068:6078  orderTotal */\n      dup5\n        /* \"Meta4Swap_flat.sol\":6056:6065  msg.value */\n      callvalue\n        /* \"Meta4Swap_flat.sol\":6056:6078  msg.value - orderTotal */\n      tag_444\n      swap2\n      swap1\n      tag_333\n      jump\t// in\n    tag_444:\n        /* \"Meta4Swap_flat.sol\":6015:6097  msg.sender.call{... */\n      mload(0x40)\n      tag_445\n      swap1\n      tag_256\n      jump\t// in\n    tag_445:\n      0x00\n      mload(0x40)\n      dup1\n      dup4\n      sub\n      dup2\n      dup6\n      dup8\n      gas\n      call\n      swap3\n      pop\n      pop\n      pop\n      returndatasize\n      dup1\n      0x00\n      dup2\n      eq\n      tag_448\n      jumpi\n      mload(0x40)\n      swap2\n      pop\n      and(add(returndatasize, 0x3f), not(0x1f))\n      dup3\n      add\n      0x40\n      mstore\n      returndatasize\n      dup3\n      mstore\n      returndatasize\n      0x00\n      0x20\n      dup5\n      add\n      returndatacopy\n      jump(tag_447)\n    tag_448:\n      0x60\n      swap2\n      pop\n    tag_447:\n      pop\n        /* \"Meta4Swap_flat.sol\":5982:6097  (bool sent, bytes memory data) = msg.sender.call{... */\n      swap2\n      pop\n      swap2\n      pop\n        /* \"Meta4Swap_flat.sol\":6137:6141  sent */\n      dup2\n        /* \"Meta4Swap_flat.sol\":6129:6166  require(sent, \"Failed to Send Ether\") */\n      tag_449\n      jumpi\n      mload(0x40)\n      0x08c379a000000000000000000000000000000000000000000000000000000000\n      dup2\n      mstore\n      0x04\n      add\n      tag_450\n      swap1\n      tag_262\n      jump\t// in\n    tag_450:\n      mload(0x40)\n      dup1\n      swap2\n      sub\n      swap1\n      revert\n    tag_449:\n        /* \"Meta4Swap_flat.sol\":5925:6177  {... */\n      pop\n      pop\n        /* \"Meta4Swap_flat.sol\":5897:6177  if (msg.value > orderTotal) {... */\n    tag_443:\n        /* \"Meta4Swap_flat.sol\":6192:6431  OrderCreated(... */\n      0x74d0d8afe3d8246a3d231394d7f207463085ffcec78a367c5b7404ce21ebad1b\n        /* \"Meta4Swap_flat.sol\":6218:6224  _order */\n      dup4\n        /* \"Meta4Swap_flat.sol\":6218:6227  _order.id */\n      0x00\n      add\n      mload\n        /* \"Meta4Swap_flat.sol\":6241:6247  _order */\n      dup5\n        /* \"Meta4Swap_flat.sol\":6241:6254  _order.itemId */\n      0x20\n      add\n      mload\n        /* \"Meta4Swap_flat.sol\":6268:6274  _order */\n      dup6\n        /* \"Meta4Swap_flat.sol\":6268:6285  _order.orderTotal */\n      0x40\n      add\n      mload\n        /* \"Meta4Swap_flat.sol\":6299:6307  itemInfo */\n      0x0c\n        /* \"Meta4Swap_flat.sol\":6299:6316  itemInfo[_itemId] */\n      0x00\n        /* \"Meta4Swap_flat.sol\":6308:6315  _itemId */\n      dup11\n        /* \"Meta4Swap_flat.sol\":6299:6316  itemInfo[_itemId] */\n      dup2\n      mstore\n      0x20\n      add\n      swap1\n      dup2\n      mstore\n      0x20\n      add\n      0x00\n      keccak256\n        /* \"Meta4Swap_flat.sol\":6299:6328  itemInfo[_itemId].serviceType */\n      0x05\n      add\n      sload\n        /* \"Meta4Swap_flat.sol\":6342:6348  _order */\n      dup8\n        /* \"Meta4Swap_flat.sol\":6342:6354  _order.buyer */\n      0x0140\n      add\n      mload\n        /* \"Meta4Swap_flat.sol\":6368:6374  _order */\n      dup9\n        /* \"Meta4Swap_flat.sol\":6368:6381  _order.seller */\n      0x0160\n      add\n      mload\n        /* \"Meta4Swap_flat.sol\":6395:6403  itemInfo */\n      0x0c\n        /* \"Meta4Swap_flat.sol\":6395:6412  itemInfo[_itemId] */\n      0x00\n        /* \"Meta4Swap_flat.sol\":6404:6411  _itemId */\n      dup14\n        /* \"Meta4Swap_flat.sol\":6395:6412  itemInfo[_itemId] */\n      dup2\n      mstore\n      0x20\n      add\n      swap1\n      dup2\n      mstore\n      0x20\n      add\n      0x00\n      keccak256\n        /* \"Meta4Swap_flat.sol\":6395:6421  itemInfo[_itemId].metadata */\n      0x01\n      add\n        /* \"Meta4Swap_flat.sol\":6192:6431  OrderCreated(... */\n      mload(0x40)\n      tag_451\n      swap8\n      swap7\n      swap6\n      swap5\n      swap4\n      swap3\n      swap2\n      swap1\n      tag_341\n      jump\t// in\n    tag_451:\n      mload(0x40)\n      dup1\n      swap2\n      sub\n      swap1\n      log1\n        /* \"Meta4Swap_flat.sol\":6448:6454  _order */\n      dup3\n        /* \"Meta4Swap_flat.sol\":6448:6457  _order.id */\n      0x00\n      add\n      mload\n        /* \"Meta4Swap_flat.sol\":6441:6457  return _order.id */\n      swap4\n      pop\n      pop\n      pop\n      pop\n        /* \"Meta4Swap_flat.sol\":4846:6464  function buy(uint256 _itemId)... */\n      swap2\n      swap1\n      pop\n      jump\t// out\n        /* \"Meta4Swap_flat.sol\":1691:1714  bool public rewardsLive */\n    tag_192:\n      0x0b\n      0x00\n      swap1\n      sload\n      swap1\n      0x0100\n      exp\n      swap1\n      div\n      0xff\n      and\n      dup2\n      jump\t// out\n        /* \"Meta4Swap_flat.sol\":1376:1396  address public admin */\n    tag_196:\n      0x03\n      0x00\n      swap1\n      sload\n      swap1\n      0x0100\n      exp\n      swap1\n      div\n      0xffffffffffffffffffffffffffffffffffffffff\n      and\n      dup2\n      jump\t// out\n        /* \"Meta4Swap_flat.sol\":2466:2506  mapping(uint256 => Item) public itemInfo */\n    tag_201:\n      mstore(0x20, 0x0c)\n      dup1\n      0x00\n      mstore\n      keccak256(0x00, 0x40)\n      0x00\n      swap2\n      pop\n      swap1\n      pop\n      dup1\n      0x00\n      add\n      sload\n      swap1\n      dup1\n      0x01\n      add\n      dup1\n      sload\n      tag_452\n      swap1\n      tag_205\n      jump\t// in\n    tag_452:\n      dup1\n      0x1f\n      add\n      0x20\n      dup1\n      swap2\n      div\n      mul\n      0x20\n      add\n      mload(0x40)\n      swap1\n      dup2\n      add\n      0x40\n      mstore\n      dup1\n      swap3\n      swap2\n      swap1\n      dup2\n      dup2\n      mstore\n      0x20\n      add\n      dup3\n      dup1\n      sload\n      tag_453\n      swap1\n      tag_205\n      jump\t// in\n    tag_453:\n      dup1\n      iszero\n      tag_454\n      jumpi\n      dup1\n      0x1f\n      lt\n      tag_455\n      jumpi\n      0x0100\n      dup1\n      dup4\n      sload\n      div\n      mul\n      dup4\n      mstore\n      swap2\n      0x20\n      add\n      swap2\n      jump(tag_454)\n    tag_455:\n      dup3\n      add\n      swap2\n      swap1\n      0x00\n      mstore\n      keccak256(0x00, 0x20)\n      swap1\n    tag_456:\n      dup2\n      sload\n      dup2\n      mstore\n      swap1\n      0x01\n      add\n      swap1\n      0x20\n      add\n      dup1\n      dup4\n      gt\n      tag_456\n      jumpi\n      dup3\n      swap1\n      sub\n      0x1f\n      and\n      dup3\n      add\n      swap2\n    tag_454:\n      pop\n      pop\n      pop\n      pop\n      pop\n      swap1\n      dup1\n      0x02\n      add\n      0x00\n      swap1\n      sload\n      swap1\n      0x0100\n      exp\n      swap1\n      div\n      0xff\n      and\n      swap1\n      dup1\n      0x03\n      add\n      sload\n      swap1\n      dup1\n      0x04\n      add\n      0x00\n      swap1\n      sload\n      swap1\n      0x0100\n      exp\n      swap1\n      div\n      0xffffffffffffffffffffffffffffffffffffffff\n      and\n      swap1\n      dup1\n      0x05\n      add\n      sload\n      swap1\n      pop\n      dup7\n      jump\t// out\n        /* \"Meta4Swap_flat.sol\":15518:15710  function _transferEarnings(uint256 _amount) internal {... */\n    tag_365:\n        /* \"Meta4Swap_flat.sol\":15582:15591  bool sent */\n      0x00\n        /* \"Meta4Swap_flat.sol\":15593:15610  bytes memory data */\n      dup1\n        /* \"Meta4Swap_flat.sol\":15614:15617  dao */\n      0x04\n      0x00\n      swap1\n      sload\n      swap1\n      0x0100\n      exp\n      swap1\n      div\n      0xffffffffffffffffffffffffffffffffffffffff\n      and\n        /* \"Meta4Swap_flat.sol\":15614:15622  dao.call */\n      0xffffffffffffffffffffffffffffffffffffffff\n      and\n        /* \"Meta4Swap_flat.sol\":15630:15637  _amount */\n      dup4\n        /* \"Meta4Swap_flat.sol\":15614:15642  dao.call{value: _amount}(\"\") */\n      mload(0x40)\n      tag_458\n      swap1\n      tag_256\n      jump\t// in\n    tag_458:\n      0x00\n      mload(0x40)\n      dup1\n      dup4\n      sub\n      dup2\n      dup6\n      dup8\n      gas\n      call\n      swap3\n      pop\n      pop\n      pop\n      returndatasize\n      dup1\n      0x00\n      dup2\n      eq\n      tag_461\n      jumpi\n      mload(0x40)\n      swap2\n      pop\n      and(add(returndatasize, 0x3f), not(0x1f))\n      dup3\n      add\n      0x40\n      mstore\n      returndatasize\n      dup3\n      mstore\n      returndatasize\n      0x00\n      0x20\n      dup5\n      add\n      returndatacopy\n      jump(tag_460)\n    tag_461:\n      0x60\n      swap2\n      pop\n    tag_460:\n      pop\n        /* \"Meta4Swap_flat.sol\":15581:15642  (bool sent, bytes memory data) = dao.call{value: _amount}(\"\") */\n      swap2\n      pop\n      swap2\n      pop\n        /* \"Meta4Swap_flat.sol\":15674:15678  sent */\n      dup2\n        /* \"Meta4Swap_flat.sol\":15666:15703  require(sent, \"Failed to Send Ether\") */\n      tag_462\n      jumpi\n      mload(0x40)\n      0x08c379a000000000000000000000000000000000000000000000000000000000\n      dup2\n      mstore\n      0x04\n      add\n      tag_463\n      swap1\n      tag_262\n      jump\t// in\n    tag_463:\n      mload(0x40)\n      dup1\n      swap2\n      sub\n      swap1\n      revert\n    tag_462:\n        /* \"Meta4Swap_flat.sol\":15571:15710  {... */\n      pop\n      pop\n        /* \"Meta4Swap_flat.sol\":15518:15710  function _transferEarnings(uint256 _amount) internal {... */\n      pop\n      jump\t// out\n    tag_226:\n      dup3\n      dup1\n      sload\n      tag_464\n      swap1\n      tag_205\n      jump\t// in\n    tag_464:\n      swap1\n      0x00\n      mstore\n      keccak256(0x00, 0x20)\n      swap1\n      0x1f\n      add\n      0x20\n      swap1\n      div\n      dup2\n      add\n      swap3\n      dup3\n      tag_466\n      jumpi\n      0x00\n      dup6\n      sstore\n      jump(tag_465)\n    tag_466:\n      dup3\n      0x1f\n      lt\n      tag_467\n      jumpi\n      dup1\n      mload\n      not(0xff)\n      and\n      dup4\n      dup1\n      add\n      or\n      dup6\n      sstore\n      jump(tag_465)\n    tag_467:\n      dup3\n      dup1\n      add\n      0x01\n      add\n      dup6\n      sstore\n      dup3\n      iszero\n      tag_465\n      jumpi\n      swap2\n      dup3\n      add\n    tag_468:\n      dup3\n      dup2\n      gt\n      iszero\n      tag_469\n      jumpi\n      dup3\n      mload\n      dup3\n      sstore\n      swap2\n      0x20\n      add\n      swap2\n      swap1\n      0x01\n      add\n      swap1\n      jump(tag_468)\n    tag_469:\n    tag_465:\n      pop\n      swap1\n      pop\n      tag_470\n      swap2\n      swap1\n      tag_471\n      jump\t// in\n    tag_470:\n      pop\n      swap1\n      jump\t// out\n    tag_268:\n      mload(0x40)\n      dup1\n      0xc0\n      add\n      0x40\n      mstore\n      dup1\n      0x00\n      dup2\n      mstore\n      0x20\n      add\n      0x60\n      dup2\n      mstore\n      0x20\n      add\n      iszero(iszero(0x00))\n      dup2\n      mstore\n      0x20\n      add\n      0x00\n      dup2\n      mstore\n      0x20\n      add\n      and(0xffffffffffffffffffffffffffffffffffffffff, 0x00)\n      dup2\n      mstore\n      0x20\n      add\n      0x00\n      dup2\n      mstore\n      pop\n      swap1\n      jump\t// out\n    tag_301:\n      mload(0x40)\n      dup1\n      0x80\n      add\n      0x40\n      mstore\n      dup1\n      0x60\n      dup2\n      mstore\n      0x20\n      add\n      0x60\n      dup2\n      mstore\n      0x20\n      add\n      0x00\n      dup2\n      mstore\n      0x20\n      add\n      iszero(iszero(0x00))\n      dup2\n      mstore\n      pop\n      swap1\n      jump\t// out\n    tag_320:\n      mload(0x40)\n      dup1\n      0x0180\n      add\n      0x40\n      mstore\n      dup1\n      0x00\n      dup2\n      mstore\n      0x20\n      add\n      0x00\n      dup2\n      mstore\n      0x20\n      add\n      0x00\n      dup2\n      mstore\n      0x20\n      add\n      0x00\n      dup2\n      mstore\n      0x20\n      add\n      0x00\n      dup2\n      mstore\n      0x20\n      add\n      0x00\n      dup2\n      mstore\n      0x20\n      add\n      0x00\n      dup2\n      mstore\n      0x20\n      add\n      and(0xff, 0x00)\n      dup2\n      mstore\n      0x20\n      add\n      and(0xff, 0x00)\n      dup2\n      mstore\n      0x20\n      add\n      iszero(iszero(0x00))\n      dup2\n      mstore\n      0x20\n      add\n      and(0xffffffffffffffffffffffffffffffffffffffff, 0x00)\n      dup2\n      mstore\n      0x20\n      add\n      and(0xffffffffffffffffffffffffffffffffffffffff, 0x00)\n      dup2\n      mstore\n      pop\n      swap1\n      jump\t// out\n    tag_471:\n    tag_472:\n      dup1\n      dup3\n      gt\n      iszero\n      tag_473\n      jumpi\n      0x00\n      dup2\n      0x00\n      swap1\n      sstore\n      pop\n      0x01\n      add\n      jump(tag_472)\n    tag_473:\n      pop\n      swap1\n      jump\t// out\n        /* \"#utility.yul\":7:419   */\n    tag_475:\n        /* \"#utility.yul\":85:90   */\n      0x00\n        /* \"#utility.yul\":110:176   */\n      tag_477\n        /* \"#utility.yul\":126:175   */\n      tag_478\n        /* \"#utility.yul\":168:174   */\n      dup5\n        /* \"#utility.yul\":126:175   */\n      tag_479\n      jump\t// in\n    tag_478:\n        /* \"#utility.yul\":110:176   */\n      tag_480\n      jump\t// in\n    tag_477:\n        /* \"#utility.yul\":101:176   */\n      swap1\n      pop\n        /* \"#utility.yul\":199:205   */\n      dup3\n        /* \"#utility.yul\":192:197   */\n      dup2\n        /* \"#utility.yul\":185:206   */\n      mstore\n        /* \"#utility.yul\":237:241   */\n      0x20\n        /* \"#utility.yul\":230:235   */\n      dup2\n        /* \"#utility.yul\":226:242   */\n      add\n        /* \"#utility.yul\":275:278   */\n      dup5\n        /* \"#utility.yul\":266:272   */\n      dup5\n        /* \"#utility.yul\":261:264   */\n      dup5\n        /* \"#utility.yul\":257:273   */\n      add\n        /* \"#utility.yul\":254:279   */\n      gt\n        /* \"#utility.yul\":251:363   */\n      iszero\n      tag_481\n      jumpi\n        /* \"#utility.yul\":282:361   */\n      tag_482\n      tag_483\n      jump\t// in\n    tag_482:\n        /* \"#utility.yul\":251:363   */\n    tag_481:\n        /* \"#utility.yul\":372:413   */\n      tag_484\n        /* \"#utility.yul\":406:412   */\n      dup5\n        /* \"#utility.yul\":401:404   */\n      dup3\n        /* \"#utility.yul\":396:399   */\n      dup6\n        /* \"#utility.yul\":372:413   */\n      tag_485\n      jump\t// in\n    tag_484:\n        /* \"#utility.yul\":91:419   */\n      pop\n        /* \"#utility.yul\":7:419   */\n      swap4\n      swap3\n      pop\n      pop\n      pop\n      jump\t// out\n        /* \"#utility.yul\":425:564   */\n    tag_486:\n        /* \"#utility.yul\":471:476   */\n      0x00\n        /* \"#utility.yul\":509:515   */\n      dup2\n        /* \"#utility.yul\":496:516   */\n      calldataload\n        /* \"#utility.yul\":487:516   */\n      swap1\n      pop\n        /* \"#utility.yul\":525:558   */\n      tag_488\n        /* \"#utility.yul\":552:557   */\n      dup2\n        /* \"#utility.yul\":525:558   */\n      tag_489\n      jump\t// in\n    tag_488:\n        /* \"#utility.yul\":425:564   */\n      swap3\n      swap2\n      pop\n      pop\n      jump\t// out\n        /* \"#utility.yul\":570:703   */\n    tag_490:\n        /* \"#utility.yul\":613:618   */\n      0x00\n        /* \"#utility.yul\":651:657   */\n      dup2\n        /* \"#utility.yul\":638:658   */\n      calldataload\n        /* \"#utility.yul\":629:658   */\n      swap1\n      pop\n        /* \"#utility.yul\":667:697   */\n      tag_492\n        /* \"#utility.yul\":691:696   */\n      dup2\n        /* \"#utility.yul\":667:697   */\n      tag_493\n      jump\t// in\n    tag_492:\n        /* \"#utility.yul\":570:703   */\n      swap3\n      swap2\n      pop\n      pop\n      jump\t// out\n        /* \"#utility.yul\":709:846   */\n    tag_494:\n        /* \"#utility.yul\":763:768   */\n      0x00\n        /* \"#utility.yul\":794:800   */\n      dup2\n        /* \"#utility.yul\":788:801   */\n      mload\n        /* \"#utility.yul\":779:801   */\n      swap1\n      pop\n        /* \"#utility.yul\":810:840   */\n      tag_496\n        /* \"#utility.yul\":834:839   */\n      dup2\n        /* \"#utility.yul\":810:840   */\n      tag_493\n      jump\t// in\n    tag_496:\n        /* \"#utility.yul\":709:846   */\n      swap3\n      swap2\n      pop\n      pop\n      jump\t// out\n        /* \"#utility.yul\":852:993   */\n    tag_497:\n        /* \"#utility.yul\":908:913   */\n      0x00\n        /* \"#utility.yul\":939:945   */\n      dup2\n        /* \"#utility.yul\":933:946   */\n      mload\n        /* \"#utility.yul\":924:946   */\n      swap1\n      pop\n        /* \"#utility.yul\":955:987   */\n      tag_499\n        /* \"#utility.yul\":981:986   */\n      dup2\n        /* \"#utility.yul\":955:987   */\n      tag_500\n      jump\t// in\n    tag_499:\n        /* \"#utility.yul\":852:993   */\n      swap3\n      swap2\n      pop\n      pop\n      jump\t// out\n        /* \"#utility.yul\":1013:1353   */\n    tag_501:\n        /* \"#utility.yul\":1069:1074   */\n      0x00\n        /* \"#utility.yul\":1118:1121   */\n      dup3\n        /* \"#utility.yul\":1111:1115   */\n      0x1f\n        /* \"#utility.yul\":1103:1109   */\n      dup4\n        /* \"#utility.yul\":1099:1116   */\n      add\n        /* \"#utility.yul\":1095:1122   */\n      slt\n        /* \"#utility.yul\":1085:1207   */\n      tag_503\n      jumpi\n        /* \"#utility.yul\":1126:1205   */\n      tag_504\n      tag_505\n      jump\t// in\n    tag_504:\n        /* \"#utility.yul\":1085:1207   */\n    tag_503:\n        /* \"#utility.yul\":1243:1249   */\n      dup2\n        /* \"#utility.yul\":1230:1250   */\n      calldataload\n        /* \"#utility.yul\":1268:1347   */\n      tag_506\n        /* \"#utility.yul\":1343:1346   */\n      dup5\n        /* \"#utility.yul\":1335:1341   */\n      dup3\n        /* \"#utility.yul\":1328:1332   */\n      0x20\n        /* \"#utility.yul\":1320:1326   */\n      dup7\n        /* \"#utility.yul\":1316:1333   */\n      add\n        /* \"#utility.yul\":1268:1347   */\n      tag_475\n      jump\t// in\n    tag_506:\n        /* \"#utility.yul\":1259:1347   */\n      swap2\n      pop\n        /* \"#utility.yul\":1075:1353   */\n      pop\n        /* \"#utility.yul\":1013:1353   */\n      swap3\n      swap2\n      pop\n      pop\n      jump\t// out\n        /* \"#utility.yul\":1359:1498   */\n    tag_507:\n        /* \"#utility.yul\":1405:1410   */\n      0x00\n        /* \"#utility.yul\":1443:1449   */\n      dup2\n        /* \"#utility.yul\":1430:1450   */\n      calldataload\n        /* \"#utility.yul\":1421:1450   */\n      swap1\n      pop\n        /* \"#utility.yul\":1459:1492   */\n      tag_509\n        /* \"#utility.yul\":1486:1491   */\n      dup2\n        /* \"#utility.yul\":1459:1492   */\n      tag_510\n      jump\t// in\n    tag_509:\n        /* \"#utility.yul\":1359:1498   */\n      swap3\n      swap2\n      pop\n      pop\n      jump\t// out\n        /* \"#utility.yul\":1504:1647   */\n    tag_511:\n        /* \"#utility.yul\":1561:1566   */\n      0x00\n        /* \"#utility.yul\":1592:1598   */\n      dup2\n        /* \"#utility.yul\":1586:1599   */\n      mload\n        /* \"#utility.yul\":1577:1599   */\n      swap1\n      pop\n        /* \"#utility.yul\":1608:1641   */\n      tag_513\n        /* \"#utility.yul\":1635:1640   */\n      dup2\n        /* \"#utility.yul\":1608:1641   */\n      tag_510\n      jump\t// in\n    tag_513:\n        /* \"#utility.yul\":1504:1647   */\n      swap3\n      swap2\n      pop\n      pop\n      jump\t// out\n        /* \"#utility.yul\":1653:1794   */\n    tag_514:\n        /* \"#utility.yul\":1709:1714   */\n      0x00\n        /* \"#utility.yul\":1740:1746   */\n      dup2\n        /* \"#utility.yul\":1734:1747   */\n      mload\n        /* \"#utility.yul\":1725:1747   */\n      swap1\n      pop\n        /* \"#utility.yul\":1756:1788   */\n      tag_516\n        /* \"#utility.yul\":1782:1787   */\n      dup2\n        /* \"#utility.yul\":1756:1788   */\n      tag_517\n      jump\t// in\n    tag_516:\n        /* \"#utility.yul\":1653:1794   */\n      swap3\n      swap2\n      pop\n      pop\n      jump\t// out\n        /* \"#utility.yul\":1800:2129   */\n    tag_63:\n        /* \"#utility.yul\":1859:1865   */\n      0x00\n        /* \"#utility.yul\":1908:1910   */\n      0x20\n        /* \"#utility.yul\":1896:1905   */\n      dup3\n        /* \"#utility.yul\":1887:1894   */\n      dup5\n        /* \"#utility.yul\":1883:1906   */\n      sub\n        /* \"#utility.yul\":1879:1911   */\n      slt\n        /* \"#utility.yul\":1876:1995   */\n      iszero\n      tag_519\n      jumpi\n        /* \"#utility.yul\":1914:1993   */\n      tag_520\n      tag_521\n      jump\t// in\n    tag_520:\n        /* \"#utility.yul\":1876:1995   */\n    tag_519:\n        /* \"#utility.yul\":2034:2035   */\n      0x00\n        /* \"#utility.yul\":2059:2112   */\n      tag_522\n        /* \"#utility.yul\":2104:2111   */\n      dup5\n        /* \"#utility.yul\":2095:2101   */\n      dup3\n        /* \"#utility.yul\":2084:2093   */\n      dup6\n        /* \"#utility.yul\":2080:2102   */\n      add\n        /* \"#utility.yul\":2059:2112   */\n      tag_486\n      jump\t// in\n    tag_522:\n        /* \"#utility.yul\":2049:2112   */\n      swap2\n      pop\n        /* \"#utility.yul\":2005:2122   */\n      pop\n        /* \"#utility.yul\":1800:2129   */\n      swap3\n      swap2\n      pop\n      pop\n      jump\t// out\n        /* \"#utility.yul\":2135:2609   */\n    tag_93:\n        /* \"#utility.yul\":2203:2209   */\n      0x00\n        /* \"#utility.yul\":2211:2217   */\n      dup1\n        /* \"#utility.yul\":2260:2262   */\n      0x40\n        /* \"#utility.yul\":2248:2257   */\n      dup4\n        /* \"#utility.yul\":2239:2246   */\n      dup6\n        /* \"#utility.yul\":2235:2258   */\n      sub\n        /* \"#utility.yul\":2231:2263   */\n      slt\n        /* \"#utility.yul\":2228:2347   */\n      iszero\n      tag_524\n      jumpi\n        /* \"#utility.yul\":2266:2345   */\n      tag_525\n      tag_521\n      jump\t// in\n    tag_525:\n        /* \"#utility.yul\":2228:2347   */\n    tag_524:\n        /* \"#utility.yul\":2386:2387   */\n      0x00\n        /* \"#utility.yul\":2411:2464   */\n      tag_526\n        /* \"#utility.yul\":2456:2463   */\n      dup6\n        /* \"#utility.yul\":2447:2453   */\n      dup3\n        /* \"#utility.yul\":2436:2445   */\n      dup7\n        /* \"#utility.yul\":2432:2454   */\n      add\n        /* \"#utility.yul\":2411:2464   */\n      tag_486\n      jump\t// in\n    tag_526:\n        /* \"#utility.yul\":2401:2464   */\n      swap3\n      pop\n        /* \"#utility.yul\":2357:2474   */\n      pop\n        /* \"#utility.yul\":2513:2515   */\n      0x20\n        /* \"#utility.yul\":2539:2592   */\n      tag_527\n        /* \"#utility.yul\":2584:2591   */\n      dup6\n        /* \"#utility.yul\":2575:2581   */\n      dup3\n        /* \"#utility.yul\":2564:2573   */\n      dup7\n        /* \"#utility.yul\":2560:2582   */\n      add\n        /* \"#utility.yul\":2539:2592   */\n      tag_507\n      jump\t// in\n    tag_527:\n        /* \"#utility.yul\":2529:2592   */\n      swap2\n      pop\n        /* \"#utility.yul\":2484:2602   */\n      pop\n        /* \"#utility.yul\":2135:2609   */\n      swap3\n      pop\n      swap3\n      swap1\n      pop\n      jump\t// out\n        /* \"#utility.yul\":2615:2938   */\n    tag_88:\n        /* \"#utility.yul\":2671:2677   */\n      0x00\n        /* \"#utility.yul\":2720:2722   */\n      0x20\n        /* \"#utility.yul\":2708:2717   */\n      dup3\n        /* \"#utility.yul\":2699:2706   */\n      dup5\n        /* \"#utility.yul\":2695:2718   */\n      sub\n        /* \"#utility.yul\":2691:2723   */\n      slt\n        /* \"#utility.yul\":2688:2807   */\n      iszero\n      tag_529\n      jumpi\n        /* \"#utility.yul\":2726:2805   */\n      tag_530\n      tag_521\n      jump\t// in\n    tag_530:\n        /* \"#utility.yul\":2688:2807   */\n    tag_529:\n        /* \"#utility.yul\":2846:2847   */\n      0x00\n        /* \"#utility.yul\":2871:2921   */\n      tag_531\n        /* \"#utility.yul\":2913:2920   */\n      dup5\n        /* \"#utility.yul\":2904:2910   */\n      dup3\n        /* \"#utility.yul\":2893:2902   */\n      dup6\n        /* \"#utility.yul\":2889:2911   */\n      add\n        /* \"#utility.yul\":2871:2921   */\n      tag_490\n      jump\t// in\n    tag_531:\n        /* \"#utility.yul\":2861:2921   */\n      swap2\n      pop\n        /* \"#utility.yul\":2817:2931   */\n      pop\n        /* \"#utility.yul\":2615:2938   */\n      swap3\n      swap2\n      pop\n      pop\n      jump\t// out\n        /* \"#utility.yul\":2944:3289   */\n    tag_376:\n        /* \"#utility.yul\":3011:3017   */\n      0x00\n        /* \"#utility.yul\":3060:3062   */\n      0x20\n        /* \"#utility.yul\":3048:3057   */\n      dup3\n        /* \"#utility.yul\":3039:3046   */\n      dup5\n        /* \"#utility.yul\":3035:3058   */\n      sub\n        /* \"#utility.yul\":3031:3063   */\n      slt\n        /* \"#utility.yul\":3028:3147   */\n      iszero\n      tag_533\n      jumpi\n        /* \"#utility.yul\":3066:3145   */\n      tag_534\n      tag_521\n      jump\t// in\n    tag_534:\n        /* \"#utility.yul\":3028:3147   */\n    tag_533:\n        /* \"#utility.yul\":3186:3187   */\n      0x00\n        /* \"#utility.yul\":3211:3272   */\n      tag_535\n        /* \"#utility.yul\":3264:3271   */\n      dup5\n        /* \"#utility.yul\":3255:3261   */\n      dup3\n        /* \"#utility.yul\":3244:3253   */\n      dup6\n        /* \"#utility.yul\":3240:3262   */\n      add\n        /* \"#utility.yul\":3211:3272   */\n      tag_494\n      jump\t// in\n    tag_535:\n        /* \"#utility.yul\":3201:3272   */\n      swap2\n      pop\n        /* \"#utility.yul\":3157:3282   */\n      pop\n        /* \"#utility.yul\":2944:3289   */\n      swap3\n      swap2\n      pop\n      pop\n      jump\t// out\n        /* \"#utility.yul\":3295:4234   */\n    tag_126:\n        /* \"#utility.yul\":3388:3394   */\n      0x00\n        /* \"#utility.yul\":3396:3402   */\n      dup1\n        /* \"#utility.yul\":3404:3410   */\n      0x00\n        /* \"#utility.yul\":3412:3418   */\n      dup1\n        /* \"#utility.yul\":3461:3464   */\n      0x80\n        /* \"#utility.yul\":3449:3458   */\n      dup6\n        /* \"#utility.yul\":3440:3447   */\n      dup8\n        /* \"#utility.yul\":3436:3459   */\n      sub\n        /* \"#utility.yul\":3432:3465   */\n      slt\n        /* \"#utility.yul\":3429:3549   */\n      iszero\n      tag_537\n      jumpi\n        /* \"#utility.yul\":3468:3547   */\n      tag_538\n      tag_521\n      jump\t// in\n    tag_538:\n        /* \"#utility.yul\":3429:3549   */\n    tag_537:\n        /* \"#utility.yul\":3616:3617   */\n      0x00\n        /* \"#utility.yul\":3605:3614   */\n      dup6\n        /* \"#utility.yul\":3601:3618   */\n      add\n        /* \"#utility.yul\":3588:3619   */\n      calldataload\n        /* \"#utility.yul\":3646:3664   */\n      0xffffffffffffffff\n        /* \"#utility.yul\":3638:3644   */\n      dup2\n        /* \"#utility.yul\":3635:3665   */\n      gt\n        /* \"#utility.yul\":3632:3749   */\n      iszero\n      tag_539\n      jumpi\n        /* \"#utility.yul\":3668:3747   */\n      tag_540\n      tag_541\n      jump\t// in\n    tag_540:\n        /* \"#utility.yul\":3632:3749   */\n    tag_539:\n        /* \"#utility.yul\":3773:3836   */\n      tag_542\n        /* \"#utility.yul\":3828:3835   */\n      dup8\n        /* \"#utility.yul\":3819:3825   */\n      dup3\n        /* \"#utility.yul\":3808:3817   */\n      dup9\n        /* \"#utility.yul\":3804:3826   */\n      add\n        /* \"#utility.yul\":3773:3836   */\n      tag_501\n      jump\t// in\n    tag_542:\n        /* \"#utility.yul\":3763:3836   */\n      swap5\n      pop\n        /* \"#utility.yul\":3559:3846   */\n      pop\n        /* \"#utility.yul\":3885:3887   */\n      0x20\n        /* \"#utility.yul\":3911:3961   */\n      tag_543\n        /* \"#utility.yul\":3953:3960   */\n      dup8\n        /* \"#utility.yul\":3944:3950   */\n      dup3\n        /* \"#utility.yul\":3933:3942   */\n      dup9\n        /* \"#utility.yul\":3929:3951   */\n      add\n        /* \"#utility.yul\":3911:3961   */\n      tag_490\n      jump\t// in\n    tag_543:\n        /* \"#utility.yul\":3901:3961   */\n      swap4\n      pop\n        /* \"#utility.yul\":3856:3971   */\n      pop\n        /* \"#utility.yul\":4010:4012   */\n      0x40\n        /* \"#utility.yul\":4036:4089   */\n      tag_544\n        /* \"#utility.yul\":4081:4088   */\n      dup8\n        /* \"#utility.yul\":4072:4078   */\n      dup3\n        /* \"#utility.yul\":4061:4070   */\n      dup9\n        /* \"#utility.yul\":4057:4079   */\n      add\n        /* \"#utility.yul\":4036:4089   */\n      tag_507\n      jump\t// in\n    tag_544:\n        /* \"#utility.yul\":4026:4089   */\n      swap3\n      pop\n        /* \"#utility.yul\":3981:4099   */\n      pop\n        /* \"#utility.yul\":4138:4140   */\n      0x60\n        /* \"#utility.yul\":4164:4217   */\n      tag_545\n        /* \"#utility.yul\":4209:4216   */\n      dup8\n        /* \"#utility.yul\":4200:4206   */\n      dup3\n        /* \"#utility.yul\":4189:4198   */\n      dup9\n        /* \"#utility.yul\":4185:4207   */\n      add\n        /* \"#utility.yul\":4164:4217   */\n      tag_507\n      jump\t// in\n    tag_545:\n        /* \"#utility.yul\":4154:4217   */\n      swap2\n      pop\n        /* \"#utility.yul\":4109:4227   */\n      pop\n        /* \"#utility.yul\":3295:4234   */\n      swap3\n      swap6\n      swap2\n      swap5\n      pop\n      swap3\n      pop\n      jump\t// out\n        /* \"#utility.yul\":4240:4569   */\n    tag_46:\n        /* \"#utility.yul\":4299:4305   */\n      0x00\n        /* \"#utility.yul\":4348:4350   */\n      0x20\n        /* \"#utility.yul\":4336:4345   */\n      dup3\n        /* \"#utility.yul\":4327:4334   */\n      dup5\n        /* \"#utility.yul\":4323:4346   */\n      sub\n        /* \"#utility.yul\":4319:4351   */\n      slt\n        /* \"#utility.yul\":4316:4435   */\n      iszero\n      tag_547\n      jumpi\n        /* \"#utility.yul\":4354:4433   */\n      tag_548\n      tag_521\n      jump\t// in\n    tag_548:\n        /* \"#utility.yul\":4316:4435   */\n    tag_547:\n        /* \"#utility.yul\":4474:4475   */\n      0x00\n        /* \"#utility.yul\":4499:4552   */\n      tag_549\n        /* \"#utility.yul\":4544:4551   */\n      dup5\n        /* \"#utility.yul\":4535:4541   */\n      dup3\n        /* \"#utility.yul\":4524:4533   */\n      dup6\n        /* \"#utility.yul\":4520:4542   */\n      add\n        /* \"#utility.yul\":4499:4552   */\n      tag_507\n      jump\t// in\n    tag_549:\n        /* \"#utility.yul\":4489:4552   */\n      swap2\n      pop\n        /* \"#utility.yul\":4445:4562   */\n      pop\n        /* \"#utility.yul\":4240:4569   */\n      swap3\n      swap2\n      pop\n      pop\n      jump\t// out\n        /* \"#utility.yul\":4575:5049   */\n    tag_83:\n        /* \"#utility.yul\":4643:4649   */\n      0x00\n        /* \"#utility.yul\":4651:4657   */\n      dup1\n        /* \"#utility.yul\":4700:4702   */\n      0x40\n        /* \"#utility.yul\":4688:4697   */\n      dup4\n        /* \"#utility.yul\":4679:4686   */\n      dup6\n        /* \"#utility.yul\":4675:4698   */\n      sub\n        /* \"#utility.yul\":4671:4703   */\n      slt\n        /* \"#utility.yul\":4668:4787   */\n      iszero\n      tag_551\n      jumpi\n        /* \"#utility.yul\":4706:4785   */\n      tag_552\n      tag_521\n      jump\t// in\n    tag_552:\n        /* \"#utility.yul\":4668:4787   */\n    tag_551:\n        /* \"#utility.yul\":4826:4827   */\n      0x00\n        /* \"#utility.yul\":4851:4904   */\n      tag_553\n        /* \"#utility.yul\":4896:4903   */\n      dup6\n        /* \"#utility.yul\":4887:4893   */\n      dup3\n        /* \"#utility.yul\":4876:4885   */\n      dup7\n        /* \"#utility.yul\":4872:4894   */\n      add\n        /* \"#utility.yul\":4851:4904   */\n      tag_507\n      jump\t// in\n    tag_553:\n        /* \"#utility.yul\":4841:4904   */\n      swap3\n      pop\n        /* \"#utility.yul\":4797:4914   */\n      pop\n        /* \"#utility.yul\":4953:4955   */\n      0x20\n        /* \"#utility.yul\":4979:5032   */\n      tag_554\n        /* \"#utility.yul\":5024:5031   */\n      dup6\n        /* \"#utility.yul\":5015:5021   */\n      dup3\n        /* \"#utility.yul\":5004:5013   */\n      dup7\n        /* \"#utility.yul\":5000:5022   */\n      add\n        /* \"#utility.yul\":4979:5032   */\n      tag_486\n      jump\t// in\n    tag_554:\n        /* \"#utility.yul\":4969:5032   */\n      swap2\n      pop\n        /* \"#utility.yul\":4924:5042   */\n      pop\n        /* \"#utility.yul\":4575:5049   */\n      swap3\n      pop\n      swap3\n      swap1\n      pop\n      jump\t// out\n        /* \"#utility.yul\":5055:5523   */\n    tag_176:\n        /* \"#utility.yul\":5120:5126   */\n      0x00\n        /* \"#utility.yul\":5128:5134   */\n      dup1\n        /* \"#utility.yul\":5177:5179   */\n      0x40\n        /* \"#utility.yul\":5165:5174   */\n      dup4\n        /* \"#utility.yul\":5156:5163   */\n      dup6\n        /* \"#utility.yul\":5152:5175   */\n      sub\n        /* \"#utility.yul\":5148:5180   */\n      slt\n        /* \"#utility.yul\":5145:5264   */\n      iszero\n      tag_556\n      jumpi\n        /* \"#utility.yul\":5183:5262   */\n      tag_557\n      tag_521\n      jump\t// in\n    tag_557:\n        /* \"#utility.yul\":5145:5264   */\n    tag_556:\n        /* \"#utility.yul\":5303:5304   */\n      0x00\n        /* \"#utility.yul\":5328:5381   */\n      tag_558\n        /* \"#utility.yul\":5373:5380   */\n      dup6\n        /* \"#utility.yul\":5364:5370   */\n      dup3\n        /* \"#utility.yul\":5353:5362   */\n      dup7\n        /* \"#utility.yul\":5349:5371   */\n      add\n        /* \"#utility.yul\":5328:5381   */\n      tag_507\n      jump\t// in\n    tag_558:\n        /* \"#utility.yul\":5318:5381   */\n      swap3\n      pop\n        /* \"#utility.yul\":5274:5391   */\n      pop\n        /* \"#utility.yul\":5430:5432   */\n      0x20\n        /* \"#utility.yul\":5456:5506   */\n      tag_559\n        /* \"#utility.yul\":5498:5505   */\n      dup6\n        /* \"#utility.yul\":5489:5495   */\n      dup3\n        /* \"#utility.yul\":5478:5487   */\n      dup7\n        /* \"#utility.yul\":5474:5496   */\n      add\n        /* \"#utility.yul\":5456:5506   */\n      tag_490\n      jump\t// in\n    tag_559:\n        /* \"#utility.yul\":5446:5506   */\n      swap2\n      pop\n        /* \"#utility.yul\":5401:5516   */\n      pop\n        /* \"#utility.yul\":5055:5523   */\n      swap3\n      pop\n      swap3\n      swap1\n      pop\n      jump\t// out\n        /* \"#utility.yul\":5529:6183   */\n    tag_53:\n        /* \"#utility.yul\":5607:5613   */\n      0x00\n        /* \"#utility.yul\":5615:5621   */\n      dup1\n        /* \"#utility.yul\":5664:5666   */\n      0x40\n        /* \"#utility.yul\":5652:5661   */\n      dup4\n        /* \"#utility.yul\":5643:5650   */\n      dup6\n        /* \"#utility.yul\":5639:5662   */\n      sub\n        /* \"#utility.yul\":5635:5667   */\n      slt\n        /* \"#utility.yul\":5632:5751   */\n      iszero\n      tag_561\n      jumpi\n        /* \"#utility.yul\":5670:5749   */\n      tag_562\n      tag_521\n      jump\t// in\n    tag_562:\n        /* \"#utility.yul\":5632:5751   */\n    tag_561:\n        /* \"#utility.yul\":5790:5791   */\n      0x00\n        /* \"#utility.yul\":5815:5868   */\n      tag_563\n        /* \"#utility.yul\":5860:5867   */\n      dup6\n        /* \"#utility.yul\":5851:5857   */\n      dup3\n        /* \"#utility.yul\":5840:5849   */\n      dup7\n        /* \"#utility.yul\":5836:5858   */\n      add\n        /* \"#utility.yul\":5815:5868   */\n      tag_507\n      jump\t// in\n    tag_563:\n        /* \"#utility.yul\":5805:5868   */\n      swap3\n      pop\n        /* \"#utility.yul\":5761:5878   */\n      pop\n        /* \"#utility.yul\":5945:5947   */\n      0x20\n        /* \"#utility.yul\":5934:5943   */\n      dup4\n        /* \"#utility.yul\":5930:5948   */\n      add\n        /* \"#utility.yul\":5917:5949   */\n      calldataload\n        /* \"#utility.yul\":5976:5994   */\n      0xffffffffffffffff\n        /* \"#utility.yul\":5968:5974   */\n      dup2\n        /* \"#utility.yul\":5965:5995   */\n      gt\n        /* \"#utility.yul\":5962:6079   */\n      iszero\n      tag_564\n      jumpi\n        /* \"#utility.yul\":5998:6077   */\n      tag_565\n      tag_541\n      jump\t// in\n    tag_565:\n        /* \"#utility.yul\":5962:6079   */\n    tag_564:\n        /* \"#utility.yul\":6103:6166   */\n      tag_566\n        /* \"#utility.yul\":6158:6165   */\n      dup6\n        /* \"#utility.yul\":6149:6155   */\n      dup3\n        /* \"#utility.yul\":6138:6147   */\n      dup7\n        /* \"#utility.yul\":6134:6156   */\n      add\n        /* \"#utility.yul\":6103:6166   */\n      tag_501\n      jump\t// in\n    tag_566:\n        /* \"#utility.yul\":6093:6166   */\n      swap2\n      pop\n        /* \"#utility.yul\":5888:6176   */\n      pop\n        /* \"#utility.yul\":5529:6183   */\n      swap3\n      pop\n      swap3\n      swap1\n      pop\n      jump\t// out\n        /* \"#utility.yul\":6189:6663   */\n    tag_166:\n        /* \"#utility.yul\":6257:6263   */\n      0x00\n        /* \"#utility.yul\":6265:6271   */\n      dup1\n        /* \"#utility.yul\":6314:6316   */\n      0x40\n        /* \"#utility.yul\":6302:6311   */\n      dup4\n        /* \"#utility.yul\":6293:6300   */\n      dup6\n        /* \"#utility.yul\":6289:6312   */\n      sub\n        /* \"#utility.yul\":6285:6317   */\n      slt\n        /* \"#utility.yul\":6282:6401   */\n      iszero\n      tag_568\n      jumpi\n        /* \"#utility.yul\":6320:6399   */\n      tag_569\n      tag_521\n      jump\t// in\n    tag_569:\n        /* \"#utility.yul\":6282:6401   */\n    tag_568:\n        /* \"#utility.yul\":6440:6441   */\n      0x00\n        /* \"#utility.yul\":6465:6518   */\n      tag_570\n        /* \"#utility.yul\":6510:6517   */\n      dup6\n        /* \"#utility.yul\":6501:6507   */\n      dup3\n        /* \"#utility.yul\":6490:6499   */\n      dup7\n        /* \"#utility.yul\":6486:6508   */\n      add\n        /* \"#utility.yul\":6465:6518   */\n      tag_507\n      jump\t// in\n    tag_570:\n        /* \"#utility.yul\":6455:6518   */\n      swap3\n      pop\n        /* \"#utility.yul\":6411:6528   */\n      pop\n        /* \"#utility.yul\":6567:6569   */\n      0x20\n        /* \"#utility.yul\":6593:6646   */\n      tag_571\n        /* \"#utility.yul\":6638:6645   */\n      dup6\n        /* \"#utility.yul\":6629:6635   */\n      dup3\n        /* \"#utility.yul\":6618:6627   */\n      dup7\n        /* \"#utility.yul\":6614:6636   */\n      add\n        /* \"#utility.yul\":6593:6646   */\n      tag_507\n      jump\t// in\n    tag_571:\n        /* \"#utility.yul\":6583:6646   */\n      swap2\n      pop\n        /* \"#utility.yul\":6538:6656   */\n      pop\n        /* \"#utility.yul\":6189:6663   */\n      swap3\n      pop\n      swap3\n      swap1\n      pop\n      jump\t// out\n        /* \"#utility.yul\":6669:7640   */\n    tag_310:\n        /* \"#utility.yul\":6772:6778   */\n      0x00\n        /* \"#utility.yul\":6780:6786   */\n      dup1\n        /* \"#utility.yul\":6788:6794   */\n      0x00\n        /* \"#utility.yul\":6796:6802   */\n      dup1\n        /* \"#utility.yul\":6804:6810   */\n      0x00\n        /* \"#utility.yul\":6853:6856   */\n      0xa0\n        /* \"#utility.yul\":6841:6850   */\n      dup7\n        /* \"#utility.yul\":6832:6839   */\n      dup9\n        /* \"#utility.yul\":6828:6851   */\n      sub\n        /* \"#utility.yul\":6824:6857   */\n      slt\n        /* \"#utility.yul\":6821:6941   */\n      iszero\n      tag_573\n      jumpi\n        /* \"#utility.yul\":6860:6939   */\n      tag_574\n      tag_521\n      jump\t// in\n    tag_574:\n        /* \"#utility.yul\":6821:6941   */\n    tag_573:\n        /* \"#utility.yul\":6980:6981   */\n      0x00\n        /* \"#utility.yul\":7005:7068   */\n      tag_575\n        /* \"#utility.yul\":7060:7067   */\n      dup9\n        /* \"#utility.yul\":7051:7057   */\n      dup3\n        /* \"#utility.yul\":7040:7049   */\n      dup10\n        /* \"#utility.yul\":7036:7058   */\n      add\n        /* \"#utility.yul\":7005:7068   */\n      tag_514\n      jump\t// in\n    tag_575:\n        /* \"#utility.yul\":6995:7068   */\n      swap6\n      pop\n        /* \"#utility.yul\":6951:7078   */\n      pop\n        /* \"#utility.yul\":7117:7119   */\n      0x20\n        /* \"#utility.yul\":7143:7206   */\n      tag_576\n        /* \"#utility.yul\":7198:7205   */\n      dup9\n        /* \"#utility.yul\":7189:7195   */\n      dup3\n        /* \"#utility.yul\":7178:7187   */\n      dup10\n        /* \"#utility.yul\":7174:7196   */\n      add\n        /* \"#utility.yul\":7143:7206   */\n      tag_497\n      jump\t// in\n    tag_576:\n        /* \"#utility.yul\":7133:7206   */\n      swap5\n      pop\n        /* \"#utility.yul\":7088:7216   */\n      pop\n        /* \"#utility.yul\":7255:7257   */\n      0x40\n        /* \"#utility.yul\":7281:7345   */\n      tag_577\n        /* \"#utility.yul\":7337:7344   */\n      dup9\n        /* \"#utility.yul\":7328:7334   */\n      dup3\n        /* \"#utility.yul\":7317:7326   */\n      dup10\n        /* \"#utility.yul\":7313:7335   */\n      add\n        /* \"#utility.yul\":7281:7345   */\n      tag_511\n      jump\t// in\n    tag_577:\n        /* \"#utility.yul\":7271:7345   */\n      swap4\n      pop\n        /* \"#utility.yul\":7226:7355   */\n      pop\n        /* \"#utility.yul\":7394:7396   */\n      0x60\n        /* \"#utility.yul\":7420:7484   */\n      tag_578\n        /* \"#utility.yul\":7476:7483   */\n      dup9\n        /* \"#utility.yul\":7467:7473   */\n      dup3\n        /* \"#utility.yul\":7456:7465   */\n      dup10\n        /* \"#utility.yul\":7452:7474   */\n      add\n        /* \"#utility.yul\":7420:7484   */\n      tag_511\n      jump\t// in\n    tag_578:\n        /* \"#utility.yul\":7410:7484   */\n      swap3\n      pop\n        /* \"#utility.yul\":7365:7494   */\n      pop\n        /* \"#utility.yul\":7533:7536   */\n      0x80\n        /* \"#utility.yul\":7560:7623   */\n      tag_579\n        /* \"#utility.yul\":7615:7622   */\n      dup9\n        /* \"#utility.yul\":7606:7612   */\n      dup3\n        /* \"#utility.yul\":7595:7604   */\n      dup10\n        /* \"#utility.yul\":7591:7613   */\n      add\n        /* \"#utility.yul\":7560:7623   */\n      tag_514\n      jump\t// in\n    tag_579:\n        /* \"#utility.yul\":7550:7623   */\n      swap2\n      pop\n        /* \"#utility.yul\":7504:7633   */\n      pop\n        /* \"#utility.yul\":6669:7640   */\n      swap3\n      swap6\n      pop\n      swap3\n      swap6\n      swap1\n      swap4\n      pop\n      jump\t// out\n        /* \"#utility.yul\":7646:7764   */\n    tag_580:\n        /* \"#utility.yul\":7733:7757   */\n      tag_582\n        /* \"#utility.yul\":7751:7756   */\n      dup2\n        /* \"#utility.yul\":7733:7757   */\n      tag_583\n      jump\t// in\n    tag_582:\n        /* \"#utility.yul\":7728:7731   */\n      dup3\n        /* \"#utility.yul\":7721:7758   */\n      mstore\n        /* \"#utility.yul\":7646:7764   */\n      pop\n      pop\n      jump\t// out\n        /* \"#utility.yul\":7770:7879   */\n    tag_584:\n        /* \"#utility.yul\":7851:7872   */\n      tag_586\n        /* \"#utility.yul\":7866:7871   */\n      dup2\n        /* \"#utility.yul\":7851:7872   */\n      tag_587\n      jump\t// in\n    tag_586:\n        /* \"#utility.yul\":7846:7849   */\n      dup3\n        /* \"#utility.yul\":7839:7873   */\n      mstore\n        /* \"#utility.yul\":7770:7879   */\n      pop\n      pop\n      jump\t// out\n        /* \"#utility.yul\":7885:8000   */\n    tag_588:\n        /* \"#utility.yul\":7970:7993   */\n      tag_590\n        /* \"#utility.yul\":7987:7992   */\n      dup2\n        /* \"#utility.yul\":7970:7993   */\n      tag_591\n      jump\t// in\n    tag_590:\n        /* \"#utility.yul\":7965:7968   */\n      dup3\n        /* \"#utility.yul\":7958:7994   */\n      mstore\n        /* \"#utility.yul\":7885:8000   */\n      pop\n      pop\n      jump\t// out\n        /* \"#utility.yul\":8006:8370   */\n    tag_592:\n        /* \"#utility.yul\":8094:8097   */\n      0x00\n        /* \"#utility.yul\":8122:8161   */\n      tag_594\n        /* \"#utility.yul\":8155:8160   */\n      dup3\n        /* \"#utility.yul\":8122:8161   */\n      tag_595\n      jump\t// in\n    tag_594:\n        /* \"#utility.yul\":8177:8248   */\n      tag_596\n        /* \"#utility.yul\":8241:8247   */\n      dup2\n        /* \"#utility.yul\":8236:8239   */\n      dup6\n        /* \"#utility.yul\":8177:8248   */\n      tag_597\n      jump\t// in\n    tag_596:\n        /* \"#utility.yul\":8170:8248   */\n      swap4\n      pop\n        /* \"#utility.yul\":8257:8309   */\n      tag_598\n        /* \"#utility.yul\":8302:8308   */\n      dup2\n        /* \"#utility.yul\":8297:8300   */\n      dup6\n        /* \"#utility.yul\":8290:8294   */\n      0x20\n        /* \"#utility.yul\":8283:8288   */\n      dup7\n        /* \"#utility.yul\":8279:8295   */\n      add\n        /* \"#utility.yul\":8257:8309   */\n      tag_599\n      jump\t// in\n    tag_598:\n        /* \"#utility.yul\":8334:8363   */\n      tag_600\n        /* \"#utility.yul\":8356:8362   */\n      dup2\n        /* \"#utility.yul\":8334:8363   */\n      tag_601\n      jump\t// in\n    tag_600:\n        /* \"#utility.yul\":8329:8332   */\n      dup5\n        /* \"#utility.yul\":8325:8364   */\n      add\n        /* \"#utility.yul\":8318:8364   */\n      swap2\n      pop\n        /* \"#utility.yul\":8098:8370   */\n      pop\n        /* \"#utility.yul\":8006:8370   */\n      swap3\n      swap2\n      pop\n      pop\n      jump\t// out\n        /* \"#utility.yul\":8400:9202   */\n    tag_602:\n        /* \"#utility.yul\":8485:8488   */\n      0x00\n        /* \"#utility.yul\":8522:8527   */\n      dup2\n        /* \"#utility.yul\":8516:8528   */\n      sload\n        /* \"#utility.yul\":8551:8587   */\n      tag_604\n        /* \"#utility.yul\":8577:8586   */\n      dup2\n        /* \"#utility.yul\":8551:8587   */\n      tag_205\n      jump\t// in\n    tag_604:\n        /* \"#utility.yul\":8603:8674   */\n      tag_605\n        /* \"#utility.yul\":8667:8673   */\n      dup2\n        /* \"#utility.yul\":8662:8665   */\n      dup7\n        /* \"#utility.yul\":8603:8674   */\n      tag_597\n      jump\t// in\n    tag_605:\n        /* \"#utility.yul\":8596:8674   */\n      swap5\n      pop\n        /* \"#utility.yul\":8705:8706   */\n      0x01\n        /* \"#utility.yul\":8694:8703   */\n      dup3\n        /* \"#utility.yul\":8690:8707   */\n      and\n        /* \"#utility.yul\":8721:8722   */\n      0x00\n        /* \"#utility.yul\":8716:8851   */\n      dup2\n      eq\n      tag_607\n      jumpi\n        /* \"#utility.yul\":8865:8866   */\n      0x01\n        /* \"#utility.yul\":8860:9196   */\n      dup2\n      eq\n      tag_608\n      jumpi\n        /* \"#utility.yul\":8683:9196   */\n      jump(tag_606)\n        /* \"#utility.yul\":8716:8851   */\n    tag_607:\n        /* \"#utility.yul\":8800:8804   */\n      0xff\n        /* \"#utility.yul\":8796:8805   */\n      not\n        /* \"#utility.yul\":8785:8794   */\n      dup4\n        /* \"#utility.yul\":8781:8806   */\n      and\n        /* \"#utility.yul\":8776:8779   */\n      dup7\n        /* \"#utility.yul\":8769:8807   */\n      mstore\n        /* \"#utility.yul\":8836:8840   */\n      0x20\n        /* \"#utility.yul\":8831:8834   */\n      dup7\n        /* \"#utility.yul\":8827:8841   */\n      add\n        /* \"#utility.yul\":8820:8841   */\n      swap4\n      pop\n        /* \"#utility.yul\":8716:8851   */\n      jump(tag_606)\n        /* \"#utility.yul\":8860:9196   */\n    tag_608:\n        /* \"#utility.yul\":8927:8965   */\n      tag_609\n        /* \"#utility.yul\":8959:8964   */\n      dup6\n        /* \"#utility.yul\":8927:8965   */\n      tag_610\n      jump\t// in\n    tag_609:\n        /* \"#utility.yul\":8987:8988   */\n      0x00\n        /* \"#utility.yul\":9001:9155   */\n    tag_611:\n        /* \"#utility.yul\":9015:9021   */\n      dup4\n        /* \"#utility.yul\":9012:9013   */\n      dup2\n        /* \"#utility.yul\":9009:9022   */\n      lt\n        /* \"#utility.yul\":9001:9155   */\n      iszero\n      tag_613\n      jumpi\n        /* \"#utility.yul\":9089:9096   */\n      dup2\n        /* \"#utility.yul\":9083:9097   */\n      sload\n        /* \"#utility.yul\":9079:9080   */\n      dup2\n        /* \"#utility.yul\":9074:9077   */\n      dup10\n        /* \"#utility.yul\":9070:9081   */\n      add\n        /* \"#utility.yul\":9063:9098   */\n      mstore\n        /* \"#utility.yul\":9139:9140   */\n      0x01\n        /* \"#utility.yul\":9130:9137   */\n      dup3\n        /* \"#utility.yul\":9126:9141   */\n      add\n        /* \"#utility.yul\":9115:9141   */\n      swap2\n      pop\n        /* \"#utility.yul\":9037:9041   */\n      0x20\n        /* \"#utility.yul\":9034:9035   */\n      dup2\n        /* \"#utility.yul\":9030:9042   */\n      add\n        /* \"#utility.yul\":9025:9042   */\n      swap1\n      pop\n        /* \"#utility.yul\":9001:9155   */\n      jump(tag_611)\n    tag_613:\n        /* \"#utility.yul\":9184:9185   */\n      dup1\n        /* \"#utility.yul\":9179:9182   */\n      dup9\n        /* \"#utility.yul\":9175:9186   */\n      add\n        /* \"#utility.yul\":9168:9186   */\n      swap6\n      pop\n        /* \"#utility.yul\":8867:9196   */\n      pop\n      pop\n        /* \"#utility.yul\":8683:9196   */\n    tag_606:\n      pop\n        /* \"#utility.yul\":8489:9202   */\n      pop\n      pop\n        /* \"#utility.yul\":8400:9202   */\n      swap3\n      swap2\n      pop\n      pop\n      jump\t// out\n        /* \"#utility.yul\":9208:9574   */\n    tag_614:\n        /* \"#utility.yul\":9350:9353   */\n      0x00\n        /* \"#utility.yul\":9371:9438   */\n      tag_616\n        /* \"#utility.yul\":9435:9437   */\n      0x23\n        /* \"#utility.yul\":9430:9433   */\n      dup4\n        /* \"#utility.yul\":9371:9438   */\n      tag_597\n      jump\t// in\n    tag_616:\n        /* \"#utility.yul\":9364:9438   */\n      swap2\n      pop\n        /* \"#utility.yul\":9447:9540   */\n      tag_617\n        /* \"#utility.yul\":9536:9539   */\n      dup3\n        /* \"#utility.yul\":9447:9540   */\n      tag_618\n      jump\t// in\n    tag_617:\n        /* \"#utility.yul\":9565:9567   */\n      0x40\n        /* \"#utility.yul\":9560:9563   */\n      dup3\n        /* \"#utility.yul\":9556:9568   */\n      add\n        /* \"#utility.yul\":9549:9568   */\n      swap1\n      pop\n        /* \"#utility.yul\":9208:9574   */\n      swap2\n      swap1\n      pop\n      jump\t// out\n        /* \"#utility.yul\":9580:9946   */\n    tag_619:\n        /* \"#utility.yul\":9722:9725   */\n      0x00\n        /* \"#utility.yul\":9743:9810   */\n      tag_621\n        /* \"#utility.yul\":9807:9809   */\n      0x14\n        /* \"#utility.yul\":9802:9805   */\n      dup4\n        /* \"#utility.yul\":9743:9810   */\n      tag_597\n      jump\t// in\n    tag_621:\n        /* \"#utility.yul\":9736:9810   */\n      swap2\n      pop\n        /* \"#utility.yul\":9819:9912   */\n      tag_622\n        /* \"#utility.yul\":9908:9911   */\n      dup3\n        /* \"#utility.yul\":9819:9912   */\n      tag_623\n      jump\t// in\n    tag_622:\n        /* \"#utility.yul\":9937:9939   */\n      0x20\n        /* \"#utility.yul\":9932:9935   */\n      dup3\n        /* \"#utility.yul\":9928:9940   */\n      add\n        /* \"#utility.yul\":9921:9940   */\n      swap1\n      pop\n        /* \"#utility.yul\":9580:9946   */\n      swap2\n      swap1\n      pop\n      jump\t// out\n        /* \"#utility.yul\":9952:10318   */\n    tag_624:\n        /* \"#utility.yul\":10094:10097   */\n      0x00\n        /* \"#utility.yul\":10115:10182   */\n      tag_626\n        /* \"#utility.yul\":10179:10181   */\n      0x2a\n        /* \"#utility.yul\":10174:10177   */\n      dup4\n        /* \"#utility.yul\":10115:10182   */\n      tag_597\n      jump\t// in\n    tag_626:\n        /* \"#utility.yul\":10108:10182   */\n      swap2\n      pop\n        /* \"#utility.yul\":10191:10284   */\n      tag_627\n        /* \"#utility.yul\":10280:10283   */\n      dup3\n        /* \"#utility.yul\":10191:10284   */\n      tag_628\n      jump\t// in\n    tag_627:\n        /* \"#utility.yul\":10309:10311   */\n      0x40\n        /* \"#utility.yul\":10304:10307   */\n      dup3\n        /* \"#utility.yul\":10300:10312   */\n      add\n        /* \"#utility.yul\":10293:10312   */\n      swap1\n      pop\n        /* \"#utility.yul\":9952:10318   */\n      swap2\n      swap1\n      pop\n      jump\t// out\n        /* \"#utility.yul\":10324:10690   */\n    tag_629:\n        /* \"#utility.yul\":10466:10469   */\n      0x00\n        /* \"#utility.yul\":10487:10554   */\n      tag_631\n        /* \"#utility.yul\":10551:10553   */\n      0x25\n        /* \"#utility.yul\":10546:10549   */\n      dup4\n        /* \"#utility.yul\":10487:10554   */\n      tag_597\n      jump\t// in\n    tag_631:\n        /* \"#utility.yul\":10480:10554   */\n      swap2\n      pop\n        /* \"#utility.yul\":10563:10656   */\n      tag_632\n        /* \"#utility.yul\":10652:10655   */\n      dup3\n        /* \"#utility.yul\":10563:10656   */\n      tag_633\n      jump\t// in\n    tag_632:\n        /* \"#utility.yul\":10681:10683   */\n      0x40\n        /* \"#utility.yul\":10676:10679   */\n      dup3\n        /* \"#utility.yul\":10672:10684   */\n      add\n        /* \"#utility.yul\":10665:10684   */\n      swap1\n      pop\n        /* \"#utility.yul\":10324:10690   */\n      swap2\n      swap1\n      pop\n      jump\t// out\n        /* \"#utility.yul\":10696:11062   */\n    tag_634:\n        /* \"#utility.yul\":10838:10841   */\n      0x00\n        /* \"#utility.yul\":10859:10926   */\n      tag_636\n        /* \"#utility.yul\":10923:10925   */\n      0x1d\n        /* \"#utility.yul\":10918:10921   */\n      dup4\n        /* \"#utility.yul\":10859:10926   */\n      tag_597\n      jump\t// in\n    tag_636:\n        /* \"#utility.yul\":10852:10926   */\n      swap2\n      pop\n        /* \"#utility.yul\":10935:11028   */\n      tag_637\n        /* \"#utility.yul\":11024:11027   */\n      dup3\n        /* \"#utility.yul\":10935:11028   */\n      tag_638\n      jump\t// in\n    tag_637:\n        /* \"#utility.yul\":11053:11055   */\n      0x20\n        /* \"#utility.yul\":11048:11051   */\n      dup3\n        /* \"#utility.yul\":11044:11056   */\n      add\n        /* \"#utility.yul\":11037:11056   */\n      swap1\n      pop\n        /* \"#utility.yul\":10696:11062   */\n      swap2\n      swap1\n      pop\n      jump\t// out\n        /* \"#utility.yul\":11068:11434   */\n    tag_639:\n        /* \"#utility.yul\":11210:11213   */\n      0x00\n        /* \"#utility.yul\":11231:11298   */\n      tag_641\n        /* \"#utility.yul\":11295:11297   */\n      0x15\n        /* \"#utility.yul\":11290:11293   */\n      dup4\n        /* \"#utility.yul\":11231:11298   */\n      tag_597\n      jump\t// in\n    tag_641:\n        /* \"#utility.yul\":11224:11298   */\n      swap2\n      pop\n        /* \"#utility.yul\":11307:11400   */\n      tag_642\n        /* \"#utility.yul\":11396:11399   */\n      dup3\n        /* \"#utility.yul\":11307:11400   */\n      tag_643\n      jump\t// in\n    tag_642:\n        /* \"#utility.yul\":11425:11427   */\n      0x20\n        /* \"#utility.yul\":11420:11423   */\n      dup3\n        /* \"#utility.yul\":11416:11428   */\n      add\n        /* \"#utility.yul\":11409:11428   */\n      swap1\n      pop\n        /* \"#utility.yul\":11068:11434   */\n      swap2\n      swap1\n      pop\n      jump\t// out\n        /* \"#utility.yul\":11440:11806   */\n    tag_644:\n        /* \"#utility.yul\":11582:11585   */\n      0x00\n        /* \"#utility.yul\":11603:11670   */\n      tag_646\n        /* \"#utility.yul\":11667:11669   */\n      0x16\n        /* \"#utility.yul\":11662:11665   */\n      dup4\n        /* \"#utility.yul\":11603:11670   */\n      tag_597\n      jump\t// in\n    tag_646:\n        /* \"#utility.yul\":11596:11670   */\n      swap2\n      pop\n        /* \"#utility.yul\":11679:11772   */\n      tag_647\n        /* \"#utility.yul\":11768:11771   */\n      dup3\n        /* \"#utility.yul\":11679:11772   */\n      tag_648\n      jump\t// in\n    tag_647:\n        /* \"#utility.yul\":11797:11799   */\n      0x20\n        /* \"#utility.yul\":11792:11795   */\n      dup3\n        /* \"#utility.yul\":11788:11800   */\n      add\n        /* \"#utility.yul\":11781:11800   */\n      swap1\n      pop\n        /* \"#utility.yul\":11440:11806   */\n      swap2\n      swap1\n      pop\n      jump\t// out\n        /* \"#utility.yul\":11812:12178   */\n    tag_649:\n        /* \"#utility.yul\":11954:11957   */\n      0x00\n        /* \"#utility.yul\":11975:12042   */\n      tag_651\n        /* \"#utility.yul\":12039:12041   */\n      0x12\n        /* \"#utility.yul\":12034:12037   */\n      dup4\n        /* \"#utility.yul\":11975:12042   */\n      tag_597\n      jump\t// in\n    tag_651:\n        /* \"#utility.yul\":11968:12042   */\n      swap2\n      pop\n        /* \"#utility.yul\":12051:12144   */\n      tag_652\n        /* \"#utility.yul\":12140:12143   */\n      dup3\n        /* \"#utility.yul\":12051:12144   */\n      tag_653\n      jump\t// in\n    tag_652:\n        /* \"#utility.yul\":12169:12171   */\n      0x20\n        /* \"#utility.yul\":12164:12167   */\n      dup3\n        /* \"#utility.yul\":12160:12172   */\n      add\n        /* \"#utility.yul\":12153:12172   */\n      swap1\n      pop\n        /* \"#utility.yul\":11812:12178   */\n      swap2\n      swap1\n      pop\n      jump\t// out\n        /* \"#utility.yul\":12184:12550   */\n    tag_654:\n        /* \"#utility.yul\":12326:12329   */\n      0x00\n        /* \"#utility.yul\":12347:12414   */\n      tag_656\n        /* \"#utility.yul\":12411:12413   */\n      0x18\n        /* \"#utility.yul\":12406:12409   */\n      dup4\n        /* \"#utility.yul\":12347:12414   */\n      tag_597\n      jump\t// in\n    tag_656:\n        /* \"#utility.yul\":12340:12414   */\n      swap2\n      pop\n        /* \"#utility.yul\":12423:12516   */\n      tag_657\n        /* \"#utility.yul\":12512:12515   */\n      dup3\n        /* \"#utility.yul\":12423:12516   */\n      tag_658\n      jump\t// in\n    tag_657:\n        /* \"#utility.yul\":12541:12543   */\n      0x20\n        /* \"#utility.yul\":12536:12539   */\n      dup3\n        /* \"#utility.yul\":12532:12544   */\n      add\n        /* \"#utility.yul\":12525:12544   */\n      swap1\n      pop\n        /* \"#utility.yul\":12184:12550   */\n      swap2\n      swap1\n      pop\n      jump\t// out\n        /* \"#utility.yul\":12556:12922   */\n    tag_659:\n        /* \"#utility.yul\":12698:12701   */\n      0x00\n        /* \"#utility.yul\":12719:12786   */\n      tag_661\n        /* \"#utility.yul\":12783:12785   */\n      0x25\n        /* \"#utility.yul\":12778:12781   */\n      dup4\n        /* \"#utility.yul\":12719:12786   */\n      tag_597\n      jump\t// in\n    tag_661:\n        /* \"#utility.yul\":12712:12786   */\n      swap2\n      pop\n        /* \"#utility.yul\":12795:12888   */\n      tag_662\n        /* \"#utility.yul\":12884:12887   */\n      dup3\n        /* \"#utility.yul\":12795:12888   */\n      tag_663\n      jump\t// in\n    tag_662:\n        /* \"#utility.yul\":12913:12915   */\n      0x40\n        /* \"#utility.yul\":12908:12911   */\n      dup3\n        /* \"#utility.yul\":12904:12916   */\n      add\n        /* \"#utility.yul\":12897:12916   */\n      swap1\n      pop\n        /* \"#utility.yul\":12556:12922   */\n      swap2\n      swap1\n      pop\n      jump\t// out\n        /* \"#utility.yul\":12928:13294   */\n    tag_664:\n        /* \"#utility.yul\":13070:13073   */\n      0x00\n        /* \"#utility.yul\":13091:13158   */\n      tag_666\n        /* \"#utility.yul\":13155:13157   */\n      0x0d\n        /* \"#utility.yul\":13150:13153   */\n      dup4\n        /* \"#utility.yul\":13091:13158   */\n      tag_597\n      jump\t// in\n    tag_666:\n        /* \"#utility.yul\":13084:13158   */\n      swap2\n      pop\n        /* \"#utility.yul\":13167:13260   */\n      tag_667\n        /* \"#utility.yul\":13256:13259   */\n      dup3\n        /* \"#utility.yul\":13167:13260   */\n      tag_668\n      jump\t// in\n    tag_667:\n        /* \"#utility.yul\":13285:13287   */\n      0x20\n        /* \"#utility.yul\":13280:13283   */\n      dup3\n        /* \"#utility.yul\":13276:13288   */\n      add\n        /* \"#utility.yul\":13269:13288   */\n      swap1\n      pop\n        /* \"#utility.yul\":12928:13294   */\n      swap2\n      swap1\n      pop\n      jump\t// out\n        /* \"#utility.yul\":13300:13698   */\n    tag_669:\n        /* \"#utility.yul\":13459:13462   */\n      0x00\n        /* \"#utility.yul\":13480:13563   */\n      tag_671\n        /* \"#utility.yul\":13561:13562   */\n      0x00\n        /* \"#utility.yul\":13556:13559   */\n      dup4\n        /* \"#utility.yul\":13480:13563   */\n      tag_672\n      jump\t// in\n    tag_671:\n        /* \"#utility.yul\":13473:13563   */\n      swap2\n      pop\n        /* \"#utility.yul\":13572:13665   */\n      tag_673\n        /* \"#utility.yul\":13661:13664   */\n      dup3\n        /* \"#utility.yul\":13572:13665   */\n      tag_674\n      jump\t// in\n    tag_673:\n        /* \"#utility.yul\":13690:13691   */\n      0x00\n        /* \"#utility.yul\":13685:13688   */\n      dup3\n        /* \"#utility.yul\":13681:13692   */\n      add\n        /* \"#utility.yul\":13674:13692   */\n      swap1\n      pop\n        /* \"#utility.yul\":13300:13698   */\n      swap2\n      swap1\n      pop\n      jump\t// out\n        /* \"#utility.yul\":13704:14070   */\n    tag_675:\n        /* \"#utility.yul\":13846:13849   */\n      0x00\n        /* \"#utility.yul\":13867:13934   */\n      tag_677\n        /* \"#utility.yul\":13931:13933   */\n      0x2f\n        /* \"#utility.yul\":13926:13929   */\n      dup4\n        /* \"#utility.yul\":13867:13934   */\n      tag_597\n      jump\t// in\n    tag_677:\n        /* \"#utility.yul\":13860:13934   */\n      swap2\n      pop\n        /* \"#utility.yul\":13943:14036   */\n      tag_678\n        /* \"#utility.yul\":14032:14035   */\n      dup3\n        /* \"#utility.yul\":13943:14036   */\n      tag_679\n      jump\t// in\n    tag_678:\n        /* \"#utility.yul\":14061:14063   */\n      0x40\n        /* \"#utility.yul\":14056:14059   */\n      dup3\n        /* \"#utility.yul\":14052:14064   */\n      add\n        /* \"#utility.yul\":14045:14064   */\n      swap1\n      pop\n        /* \"#utility.yul\":13704:14070   */\n      swap2\n      swap1\n      pop\n      jump\t// out\n        /* \"#utility.yul\":14076:14442   */\n    tag_680:\n        /* \"#utility.yul\":14218:14221   */\n      0x00\n        /* \"#utility.yul\":14239:14306   */\n      tag_682\n        /* \"#utility.yul\":14303:14305   */\n      0x12\n        /* \"#utility.yul\":14298:14301   */\n      dup4\n        /* \"#utility.yul\":14239:14306   */\n      tag_597\n      jump\t// in\n    tag_682:\n        /* \"#utility.yul\":14232:14306   */\n      swap2\n      pop\n        /* \"#utility.yul\":14315:14408   */\n      tag_683\n        /* \"#utility.yul\":14404:14407   */\n      dup3\n        /* \"#utility.yul\":14315:14408   */\n      tag_684\n      jump\t// in\n    tag_683:\n        /* \"#utility.yul\":14433:14435   */\n      0x20\n        /* \"#utility.yul\":14428:14431   */\n      dup3\n        /* \"#utility.yul\":14424:14436   */\n      add\n        /* \"#utility.yul\":14417:14436   */\n      swap1\n      pop\n        /* \"#utility.yul\":14076:14442   */\n      swap2\n      swap1\n      pop\n      jump\t// out\n        /* \"#utility.yul\":14448:14814   */\n    tag_685:\n        /* \"#utility.yul\":14590:14593   */\n      0x00\n        /* \"#utility.yul\":14611:14678   */\n      tag_687\n        /* \"#utility.yul\":14675:14677   */\n      0x20\n        /* \"#utility.yul\":14670:14673   */\n      dup4\n        /* \"#utility.yul\":14611:14678   */\n      tag_597\n      jump\t// in\n    tag_687:\n        /* \"#utility.yul\":14604:14678   */\n      swap2\n      pop\n        /* \"#utility.yul\":14687:14780   */\n      tag_688\n        /* \"#utility.yul\":14776:14779   */\n      dup3\n        /* \"#utility.yul\":14687:14780   */\n      tag_689\n      jump\t// in\n    tag_688:\n        /* \"#utility.yul\":14805:14807   */\n      0x20\n        /* \"#utility.yul\":14800:14803   */\n      dup3\n        /* \"#utility.yul\":14796:14808   */\n      add\n        /* \"#utility.yul\":14789:14808   */\n      swap1\n      pop\n        /* \"#utility.yul\":14448:14814   */\n      swap2\n      swap1\n      pop\n      jump\t// out\n        /* \"#utility.yul\":14820:15186   */\n    tag_690:\n        /* \"#utility.yul\":14962:14965   */\n      0x00\n        /* \"#utility.yul\":14983:15050   */\n      tag_692\n        /* \"#utility.yul\":15047:15049   */\n      0x26\n        /* \"#utility.yul\":15042:15045   */\n      dup4\n        /* \"#utility.yul\":14983:15050   */\n      tag_597\n      jump\t// in\n    tag_692:\n        /* \"#utility.yul\":14976:15050   */\n      swap2\n      pop\n        /* \"#utility.yul\":15059:15152   */\n      tag_693\n        /* \"#utility.yul\":15148:15151   */\n      dup3\n        /* \"#utility.yul\":15059:15152   */\n      tag_694\n      jump\t// in\n    tag_693:\n        /* \"#utility.yul\":15177:15179   */\n      0x40\n        /* \"#utility.yul\":15172:15175   */\n      dup3\n        /* \"#utility.yul\":15168:15180   */\n      add\n        /* \"#utility.yul\":15161:15180   */\n      swap1\n      pop\n        /* \"#utility.yul\":14820:15186   */\n      swap2\n      swap1\n      pop\n      jump\t// out\n        /* \"#utility.yul\":15192:15558   */\n    tag_695:\n        /* \"#utility.yul\":15334:15337   */\n      0x00\n        /* \"#utility.yul\":15355:15422   */\n      tag_697\n        /* \"#utility.yul\":15419:15421   */\n      0x17\n        /* \"#utility.yul\":15414:15417   */\n      dup4\n        /* \"#utility.yul\":15355:15422   */\n      tag_597\n      jump\t// in\n    tag_697:\n        /* \"#utility.yul\":15348:15422   */\n      swap2\n      pop\n        /* \"#utility.yul\":15431:15524   */\n      tag_698\n        /* \"#utility.yul\":15520:15523   */\n      dup3\n        /* \"#utility.yul\":15431:15524   */\n      tag_699\n      jump\t// in\n    tag_698:\n        /* \"#utility.yul\":15549:15551   */\n      0x20\n        /* \"#utility.yul\":15544:15547   */\n      dup3\n        /* \"#utility.yul\":15540:15552   */\n      add\n        /* \"#utility.yul\":15533:15552   */\n      swap1\n      pop\n        /* \"#utility.yul\":15192:15558   */\n      swap2\n      swap1\n      pop\n      jump\t// out\n        /* \"#utility.yul\":15564:15930   */\n    tag_700:\n        /* \"#utility.yul\":15706:15709   */\n      0x00\n        /* \"#utility.yul\":15727:15794   */\n      tag_702\n        /* \"#utility.yul\":15791:15793   */\n      0x1f\n        /* \"#utility.yul\":15786:15789   */\n      dup4\n        /* \"#utility.yul\":15727:15794   */\n      tag_597\n      jump\t// in\n    tag_702:\n        /* \"#utility.yul\":15720:15794   */\n      swap2\n      pop\n        /* \"#utility.yul\":15803:15896   */\n      tag_703\n        /* \"#utility.yul\":15892:15895   */\n      dup3\n        /* \"#utility.yul\":15803:15896   */\n      tag_704\n      jump\t// in\n    tag_703:\n        /* \"#utility.yul\":15921:15923   */\n      0x20\n        /* \"#utility.yul\":15916:15919   */\n      dup3\n        /* \"#utility.yul\":15912:15924   */\n      add\n        /* \"#utility.yul\":15905:15924   */\n      swap1\n      pop\n        /* \"#utility.yul\":15564:15930   */\n      swap2\n      swap1\n      pop\n      jump\t// out\n        /* \"#utility.yul\":15936:16302   */\n    tag_705:\n        /* \"#utility.yul\":16078:16081   */\n      0x00\n        /* \"#utility.yul\":16099:16166   */\n      tag_707\n        /* \"#utility.yul\":16163:16165   */\n      0x1e\n        /* \"#utility.yul\":16158:16161   */\n      dup4\n        /* \"#utility.yul\":16099:16166   */\n      tag_597\n      jump\t// in\n    tag_707:\n        /* \"#utility.yul\":16092:16166   */\n      swap2\n      pop\n        /* \"#utility.yul\":16175:16268   */\n      tag_708\n        /* \"#utility.yul\":16264:16267   */\n      dup3\n        /* \"#utility.yul\":16175:16268   */\n      tag_709\n      jump\t// in\n    tag_708:\n        /* \"#utility.yul\":16293:16295   */\n      0x20\n        /* \"#utility.yul\":16288:16291   */\n      dup3\n        /* \"#utility.yul\":16284:16296   */\n      add\n        /* \"#utility.yul\":16277:16296   */\n      swap1\n      pop\n        /* \"#utility.yul\":15936:16302   */\n      swap2\n      swap1\n      pop\n      jump\t// out\n        /* \"#utility.yul\":16308:16426   */\n    tag_710:\n        /* \"#utility.yul\":16395:16419   */\n      tag_712\n        /* \"#utility.yul\":16413:16418   */\n      dup2\n        /* \"#utility.yul\":16395:16419   */\n      tag_713\n      jump\t// in\n    tag_712:\n        /* \"#utility.yul\":16390:16393   */\n      dup3\n        /* \"#utility.yul\":16383:16420   */\n      mstore\n        /* \"#utility.yul\":16308:16426   */\n      pop\n      pop\n      jump\t// out\n        /* \"#utility.yul\":16432:16544   */\n    tag_714:\n        /* \"#utility.yul\":16515:16537   */\n      tag_716\n        /* \"#utility.yul\":16531:16536   */\n      dup2\n        /* \"#utility.yul\":16515:16537   */\n      tag_717\n      jump\t// in\n    tag_716:\n        /* \"#utility.yul\":16510:16513   */\n      dup3\n        /* \"#utility.yul\":16503:16538   */\n      mstore\n        /* \"#utility.yul\":16432:16544   */\n      pop\n      pop\n      jump\t// out\n        /* \"#utility.yul\":16550:16929   */\n    tag_256:\n        /* \"#utility.yul\":16734:16737   */\n      0x00\n        /* \"#utility.yul\":16756:16903   */\n      tag_719\n        /* \"#utility.yul\":16899:16902   */\n      dup3\n        /* \"#utility.yul\":16756:16903   */\n      tag_669\n      jump\t// in\n    tag_719:\n        /* \"#utility.yul\":16749:16903   */\n      swap2\n      pop\n        /* \"#utility.yul\":16920:16923   */\n      dup2\n        /* \"#utility.yul\":16913:16923   */\n      swap1\n      pop\n        /* \"#utility.yul\":16550:16929   */\n      swap2\n      swap1\n      pop\n      jump\t// out\n        /* \"#utility.yul\":16935:17157   */\n    tag_71:\n        /* \"#utility.yul\":17028:17032   */\n      0x00\n        /* \"#utility.yul\":17066:17068   */\n      0x20\n        /* \"#utility.yul\":17055:17064   */\n      dup3\n        /* \"#utility.yul\":17051:17069   */\n      add\n        /* \"#utility.yul\":17043:17069   */\n      swap1\n      pop\n        /* \"#utility.yul\":17079:17150   */\n      tag_721\n        /* \"#utility.yul\":17147:17148   */\n      0x00\n        /* \"#utility.yul\":17136:17145   */\n      dup4\n        /* \"#utility.yul\":17132:17149   */\n      add\n        /* \"#utility.yul\":17123:17129   */\n      dup5\n        /* \"#utility.yul\":17079:17150   */\n      tag_580\n      jump\t// in\n    tag_721:\n        /* \"#utility.yul\":16935:17157   */\n      swap3\n      swap2\n      pop\n      pop\n      jump\t// out\n        /* \"#utility.yul\":17163:17495   */\n    tag_371:\n        /* \"#utility.yul\":17284:17288   */\n      0x00\n        /* \"#utility.yul\":17322:17324   */\n      0x40\n        /* \"#utility.yul\":17311:17320   */\n      dup3\n        /* \"#utility.yul\":17307:17325   */\n      add\n        /* \"#utility.yul\":17299:17325   */\n      swap1\n      pop\n        /* \"#utility.yul\":17335:17406   */\n      tag_723\n        /* \"#utility.yul\":17403:17404   */\n      0x00\n        /* \"#utility.yul\":17392:17401   */\n      dup4\n        /* \"#utility.yul\":17388:17405   */\n      add\n        /* \"#utility.yul\":17379:17385   */\n      dup6\n        /* \"#utility.yul\":17335:17406   */\n      tag_580\n      jump\t// in\n    tag_723:\n        /* \"#utility.yul\":17416:17488   */\n      tag_724\n        /* \"#utility.yul\":17484:17486   */\n      0x20\n        /* \"#utility.yul\":17473:17482   */\n      dup4\n        /* \"#utility.yul\":17469:17487   */\n      add\n        /* \"#utility.yul\":17460:17466   */\n      dup5\n        /* \"#utility.yul\":17416:17488   */\n      tag_710\n      jump\t// in\n    tag_724:\n        /* \"#utility.yul\":17163:17495   */\n      swap4\n      swap3\n      pop\n      pop\n      pop\n      jump\t// out\n        /* \"#utility.yul\":17501:17711   */\n    tag_96:\n        /* \"#utility.yul\":17588:17592   */\n      0x00\n        /* \"#utility.yul\":17626:17628   */\n      0x20\n        /* \"#utility.yul\":17615:17624   */\n      dup3\n        /* \"#utility.yul\":17611:17629   */\n      add\n        /* \"#utility.yul\":17603:17629   */\n      swap1\n      pop\n        /* \"#utility.yul\":17639:17704   */\n      tag_726\n        /* \"#utility.yul\":17701:17702   */\n      0x00\n        /* \"#utility.yul\":17690:17699   */\n      dup4\n        /* \"#utility.yul\":17686:17703   */\n      add\n        /* \"#utility.yul\":17677:17683   */\n      dup5\n        /* \"#utility.yul\":17639:17704   */\n      tag_584\n      jump\t// in\n    tag_726:\n        /* \"#utility.yul\":17501:17711   */\n      swap3\n      swap2\n      pop\n      pop\n      jump\t// out\n        /* \"#utility.yul\":17717:17935   */\n    tag_154:\n        /* \"#utility.yul\":17808:17812   */\n      0x00\n        /* \"#utility.yul\":17846:17848   */\n      0x20\n        /* \"#utility.yul\":17835:17844   */\n      dup3\n        /* \"#utility.yul\":17831:17849   */\n      add\n        /* \"#utility.yul\":17823:17849   */\n      swap1\n      pop\n        /* \"#utility.yul\":17859:17928   */\n      tag_728\n        /* \"#utility.yul\":17925:17926   */\n      0x00\n        /* \"#utility.yul\":17914:17923   */\n      dup4\n        /* \"#utility.yul\":17910:17927   */\n      add\n        /* \"#utility.yul\":17901:17907   */\n      dup5\n        /* \"#utility.yul\":17859:17928   */\n      tag_588\n      jump\t// in\n    tag_728:\n        /* \"#utility.yul\":17717:17935   */\n      swap3\n      swap2\n      pop\n      pop\n      jump\t// out\n        /* \"#utility.yul\":17941:18664   */\n    tag_49:\n        /* \"#utility.yul\":18152:18156   */\n      0x00\n        /* \"#utility.yul\":18190:18193   */\n      0x80\n        /* \"#utility.yul\":18179:18188   */\n      dup3\n        /* \"#utility.yul\":18175:18194   */\n      add\n        /* \"#utility.yul\":18167:18194   */\n      swap1\n      pop\n        /* \"#utility.yul\":18240:18249   */\n      dup2\n        /* \"#utility.yul\":18234:18238   */\n      dup2\n        /* \"#utility.yul\":18230:18250   */\n      sub\n        /* \"#utility.yul\":18226:18227   */\n      0x00\n        /* \"#utility.yul\":18215:18224   */\n      dup4\n        /* \"#utility.yul\":18211:18228   */\n      add\n        /* \"#utility.yul\":18204:18251   */\n      mstore\n        /* \"#utility.yul\":18268:18346   */\n      tag_730\n        /* \"#utility.yul\":18341:18345   */\n      dup2\n        /* \"#utility.yul\":18332:18338   */\n      dup8\n        /* \"#utility.yul\":18268:18346   */\n      tag_592\n      jump\t// in\n    tag_730:\n        /* \"#utility.yul\":18260:18346   */\n      swap1\n      pop\n        /* \"#utility.yul\":18393:18402   */\n      dup2\n        /* \"#utility.yul\":18387:18391   */\n      dup2\n        /* \"#utility.yul\":18383:18403   */\n      sub\n        /* \"#utility.yul\":18378:18380   */\n      0x20\n        /* \"#utility.yul\":18367:18376   */\n      dup4\n        /* \"#utility.yul\":18363:18381   */\n      add\n        /* \"#utility.yul\":18356:18404   */\n      mstore\n        /* \"#utility.yul\":18421:18499   */\n      tag_731\n        /* \"#utility.yul\":18494:18498   */\n      dup2\n        /* \"#utility.yul\":18485:18491   */\n      dup7\n        /* \"#utility.yul\":18421:18499   */\n      tag_592\n      jump\t// in\n    tag_731:\n        /* \"#utility.yul\":18413:18499   */\n      swap1\n      pop\n        /* \"#utility.yul\":18509:18581   */\n      tag_732\n        /* \"#utility.yul\":18577:18579   */\n      0x40\n        /* \"#utility.yul\":18566:18575   */\n      dup4\n        /* \"#utility.yul\":18562:18580   */\n      add\n        /* \"#utility.yul\":18553:18559   */\n      dup6\n        /* \"#utility.yul\":18509:18581   */\n      tag_710\n      jump\t// in\n    tag_732:\n        /* \"#utility.yul\":18591:18657   */\n      tag_733\n        /* \"#utility.yul\":18653:18655   */\n      0x60\n        /* \"#utility.yul\":18642:18651   */\n      dup4\n        /* \"#utility.yul\":18638:18656   */\n      add\n        /* \"#utility.yul\":18629:18635   */\n      dup5\n        /* \"#utility.yul\":18591:18657   */\n      tag_584\n      jump\t// in\n    tag_733:\n        /* \"#utility.yul\":17941:18664   */\n      swap6\n      swap5\n      pop\n      pop\n      pop\n      pop\n      pop\n      jump\t// out\n        /* \"#utility.yul\":18670:19089   */\n    tag_431:\n        /* \"#utility.yul\":18836:18840   */\n      0x00\n        /* \"#utility.yul\":18874:18876   */\n      0x20\n        /* \"#utility.yul\":18863:18872   */\n      dup3\n        /* \"#utility.yul\":18859:18877   */\n      add\n        /* \"#utility.yul\":18851:18877   */\n      swap1\n      pop\n        /* \"#utility.yul\":18923:18932   */\n      dup2\n        /* \"#utility.yul\":18917:18921   */\n      dup2\n        /* \"#utility.yul\":18913:18933   */\n      sub\n        /* \"#utility.yul\":18909:18910   */\n      0x00\n        /* \"#utility.yul\":18898:18907   */\n      dup4\n        /* \"#utility.yul\":18894:18911   */\n      add\n        /* \"#utility.yul\":18887:18934   */\n      mstore\n        /* \"#utility.yul\":18951:19082   */\n      tag_735\n        /* \"#utility.yul\":19077:19081   */\n      dup2\n        /* \"#utility.yul\":18951:19082   */\n      tag_614\n      jump\t// in\n    tag_735:\n        /* \"#utility.yul\":18943:19082   */\n      swap1\n      pop\n        /* \"#utility.yul\":18670:19089   */\n      swap2\n      swap1\n      pop\n      jump\t// out\n        /* \"#utility.yul\":19095:19514   */\n    tag_262:\n        /* \"#utility.yul\":19261:19265   */\n      0x00\n        /* \"#utility.yul\":19299:19301   */\n      0x20\n        /* \"#utility.yul\":19288:19297   */\n      dup3\n        /* \"#utility.yul\":19284:19302   */\n      add\n        /* \"#utility.yul\":19276:19302   */\n      swap1\n      pop\n        /* \"#utility.yul\":19348:19357   */\n      dup2\n        /* \"#utility.yul\":19342:19346   */\n      dup2\n        /* \"#utility.yul\":19338:19358   */\n      sub\n        /* \"#utility.yul\":19334:19335   */\n      0x00\n        /* \"#utility.yul\":19323:19332   */\n      dup4\n        /* \"#utility.yul\":19319:19336   */\n      add\n        /* \"#utility.yul\":19312:19359   */\n      mstore\n        /* \"#utility.yul\":19376:19507   */\n      tag_737\n        /* \"#utility.yul\":19502:19506   */\n      dup2\n        /* \"#utility.yul\":19376:19507   */\n      tag_619\n      jump\t// in\n    tag_737:\n        /* \"#utility.yul\":19368:19507   */\n      swap1\n      pop\n        /* \"#utility.yul\":19095:19514   */\n      swap2\n      swap1\n      pop\n      jump\t// out\n        /* \"#utility.yul\":19520:19939   */\n    tag_396:\n        /* \"#utility.yul\":19686:19690   */\n      0x00\n        /* \"#utility.yul\":19724:19726   */\n      0x20\n        /* \"#utility.yul\":19713:19722   */\n      dup3\n        /* \"#utility.yul\":19709:19727   */\n      add\n        /* \"#utility.yul\":19701:19727   */\n      swap1\n      pop\n        /* \"#utility.yul\":19773:19782   */\n      dup2\n        /* \"#utility.yul\":19767:19771   */\n      dup2\n        /* \"#utility.yul\":19763:19783   */\n      sub\n        /* \"#utility.yul\":19759:19760   */\n      0x00\n        /* \"#utility.yul\":19748:19757   */\n      dup4\n        /* \"#utility.yul\":19744:19761   */\n      add\n        /* \"#utility.yul\":19737:19784   */\n      mstore\n        /* \"#utility.yul\":19801:19932   */\n      tag_739\n        /* \"#utility.yul\":19927:19931   */\n      dup2\n        /* \"#utility.yul\":19801:19932   */\n      tag_624\n      jump\t// in\n    tag_739:\n        /* \"#utility.yul\":19793:19932   */\n      swap1\n      pop\n        /* \"#utility.yul\":19520:19939   */\n      swap2\n      swap1\n      pop\n      jump\t// out\n        /* \"#utility.yul\":19945:20364   */\n    tag_399:\n        /* \"#utility.yul\":20111:20115   */\n      0x00\n        /* \"#utility.yul\":20149:20151   */\n      0x20\n        /* \"#utility.yul\":20138:20147   */\n      dup3\n        /* \"#utility.yul\":20134:20152   */\n      add\n        /* \"#utility.yul\":20126:20152   */\n      swap1\n      pop\n        /* \"#utility.yul\":20198:20207   */\n      dup2\n        /* \"#utility.yul\":20192:20196   */\n      dup2\n        /* \"#utility.yul\":20188:20208   */\n      sub\n        /* \"#utility.yul\":20184:20185   */\n      0x00\n        /* \"#utility.yul\":20173:20182   */\n      dup4\n        /* \"#utility.yul\":20169:20186   */\n      add\n        /* \"#utility.yul\":20162:20209   */\n      mstore\n        /* \"#utility.yul\":20226:20357   */\n      tag_741\n        /* \"#utility.yul\":20352:20356   */\n      dup2\n        /* \"#utility.yul\":20226:20357   */\n      tag_629\n      jump\t// in\n    tag_741:\n        /* \"#utility.yul\":20218:20357   */\n      swap1\n      pop\n        /* \"#utility.yul\":19945:20364   */\n      swap2\n      swap1\n      pop\n      jump\t// out\n        /* \"#utility.yul\":20370:20789   */\n    tag_281:\n        /* \"#utility.yul\":20536:20540   */\n      0x00\n        /* \"#utility.yul\":20574:20576   */\n      0x20\n        /* \"#utility.yul\":20563:20572   */\n      dup3\n        /* \"#utility.yul\":20559:20577   */\n      add\n        /* \"#utility.yul\":20551:20577   */\n      swap1\n      pop\n        /* \"#utility.yul\":20623:20632   */\n      dup2\n        /* \"#utility.yul\":20617:20621   */\n      dup2\n        /* \"#utility.yul\":20613:20633   */\n      sub\n        /* \"#utility.yul\":20609:20610   */\n      0x00\n        /* \"#utility.yul\":20598:20607   */\n      dup4\n        /* \"#utility.yul\":20594:20611   */\n      add\n        /* \"#utility.yul\":20587:20634   */\n      mstore\n        /* \"#utility.yul\":20651:20782   */\n      tag_743\n        /* \"#utility.yul\":20777:20781   */\n      dup2\n        /* \"#utility.yul\":20651:20782   */\n      tag_634\n      jump\t// in\n    tag_743:\n        /* \"#utility.yul\":20643:20782   */\n      swap1\n      pop\n        /* \"#utility.yul\":20370:20789   */\n      swap2\n      swap1\n      pop\n      jump\t// out\n        /* \"#utility.yul\":20795:21214   */\n    tag_284:\n        /* \"#utility.yul\":20961:20965   */\n      0x00\n        /* \"#utility.yul\":20999:21001   */\n      0x20\n        /* \"#utility.yul\":20988:20997   */\n      dup3\n        /* \"#utility.yul\":20984:21002   */\n      add\n        /* \"#utility.yul\":20976:21002   */\n      swap1\n      pop\n        /* \"#utility.yul\":21048:21057   */\n      dup2\n        /* \"#utility.yul\":21042:21046   */\n      dup2\n        /* \"#utility.yul\":21038:21058   */\n      sub\n        /* \"#utility.yul\":21034:21035   */\n      0x00\n        /* \"#utility.yul\":21023:21032   */\n      dup4\n        /* \"#utility.yul\":21019:21036   */\n      add\n        /* \"#utility.yul\":21012:21059   */\n      mstore\n        /* \"#utility.yul\":21076:21207   */\n      tag_745\n        /* \"#utility.yul\":21202:21206   */\n      dup2\n        /* \"#utility.yul\":21076:21207   */\n      tag_639\n      jump\t// in\n    tag_745:\n        /* \"#utility.yul\":21068:21207   */\n      swap1\n      pop\n        /* \"#utility.yul\":20795:21214   */\n      swap2\n      swap1\n      pop\n      jump\t// out\n        /* \"#utility.yul\":21220:21639   */\n    tag_249:\n        /* \"#utility.yul\":21386:21390   */\n      0x00\n        /* \"#utility.yul\":21424:21426   */\n      0x20\n        /* \"#utility.yul\":21413:21422   */\n      dup3\n        /* \"#utility.yul\":21409:21427   */\n      add\n        /* \"#utility.yul\":21401:21427   */\n      swap1\n      pop\n        /* \"#utility.yul\":21473:21482   */\n      dup2\n        /* \"#utility.yul\":21467:21471   */\n      dup2\n        /* \"#utility.yul\":21463:21483   */\n      sub\n        /* \"#utility.yul\":21459:21460   */\n      0x00\n        /* \"#utility.yul\":21448:21457   */\n      dup4\n        /* \"#utility.yul\":21444:21461   */\n      add\n        /* \"#utility.yul\":21437:21484   */\n      mstore\n        /* \"#utility.yul\":21501:21632   */\n      tag_747\n        /* \"#utility.yul\":21627:21631   */\n      dup2\n        /* \"#utility.yul\":21501:21632   */\n      tag_644\n      jump\t// in\n    tag_747:\n        /* \"#utility.yul\":21493:21632   */\n      swap1\n      pop\n        /* \"#utility.yul\":21220:21639   */\n      swap2\n      swap1\n      pop\n      jump\t// out\n        /* \"#utility.yul\":21645:22064   */\n    tag_252:\n        /* \"#utility.yul\":21811:21815   */\n      0x00\n        /* \"#utility.yul\":21849:21851   */\n      0x20\n        /* \"#utility.yul\":21838:21847   */\n      dup3\n        /* \"#utility.yul\":21834:21852   */\n      add\n        /* \"#utility.yul\":21826:21852   */\n      swap1\n      pop\n        /* \"#utility.yul\":21898:21907   */\n      dup2\n        /* \"#utility.yul\":21892:21896   */\n      dup2\n        /* \"#utility.yul\":21888:21908   */\n      sub\n        /* \"#utility.yul\":21884:21885   */\n      0x00\n        /* \"#utility.yul\":21873:21882   */\n      dup4\n        /* \"#utility.yul\":21869:21886   */\n      add\n        /* \"#utility.yul\":21862:21909   */\n      mstore\n        /* \"#utility.yul\":21926:22057   */\n      tag_749\n        /* \"#utility.yul\":22052:22056   */\n      dup2\n        /* \"#utility.yul\":21926:22057   */\n      tag_649\n      jump\t// in\n    tag_749:\n        /* \"#utility.yul\":21918:22057   */\n      swap1\n      pop\n        /* \"#utility.yul\":21645:22064   */\n      swap2\n      swap1\n      pop\n      jump\t// out\n        /* \"#utility.yul\":22070:22489   */\n    tag_290:\n        /* \"#utility.yul\":22236:22240   */\n      0x00\n        /* \"#utility.yul\":22274:22276   */\n      0x20\n        /* \"#utility.yul\":22263:22272   */\n      dup3\n        /* \"#utility.yul\":22259:22277   */\n      add\n        /* \"#utility.yul\":22251:22277   */\n      swap1\n      pop\n        /* \"#utility.yul\":22323:22332   */\n      dup2\n        /* \"#utility.yul\":22317:22321   */\n      dup2\n        /* \"#utility.yul\":22313:22333   */\n      sub\n        /* \"#utility.yul\":22309:22310   */\n      0x00\n        /* \"#utility.yul\":22298:22307   */\n      dup4\n        /* \"#utility.yul\":22294:22311   */\n      add\n        /* \"#utility.yul\":22287:22334   */\n      mstore\n        /* \"#utility.yul\":22351:22482   */\n      tag_751\n        /* \"#utility.yul\":22477:22481   */\n      dup2\n        /* \"#utility.yul\":22351:22482   */\n      tag_654\n      jump\t// in\n    tag_751:\n        /* \"#utility.yul\":22343:22482   */\n      swap1\n      pop\n        /* \"#utility.yul\":22070:22489   */\n      swap2\n      swap1\n      pop\n      jump\t// out\n        /* \"#utility.yul\":22495:22914   */\n    tag_219:\n        /* \"#utility.yul\":22661:22665   */\n      0x00\n        /* \"#utility.yul\":22699:22701   */\n      0x20\n        /* \"#utility.yul\":22688:22697   */\n      dup3\n        /* \"#utility.yul\":22684:22702   */\n      add\n        /* \"#utility.yul\":22676:22702   */\n      swap1\n      pop\n        /* \"#utility.yul\":22748:22757   */\n      dup2\n        /* \"#utility.yul\":22742:22746   */\n      dup2\n        /* \"#utility.yul\":22738:22758   */\n      sub\n        /* \"#utility.yul\":22734:22735   */\n      0x00\n        /* \"#utility.yul\":22723:22732   */\n      dup4\n        /* \"#utility.yul\":22719:22736   */\n      add\n        /* \"#utility.yul\":22712:22759   */\n      mstore\n        /* \"#utility.yul\":22776:22907   */\n      tag_753\n        /* \"#utility.yul\":22902:22906   */\n      dup2\n        /* \"#utility.yul\":22776:22907   */\n      tag_659\n      jump\t// in\n    tag_753:\n        /* \"#utility.yul\":22768:22907   */\n      swap1\n      pop\n        /* \"#utility.yul\":22495:22914   */\n      swap2\n      swap1\n      pop\n      jump\t// out\n        /* \"#utility.yul\":22920:23339   */\n    tag_275:\n        /* \"#utility.yul\":23086:23090   */\n      0x00\n        /* \"#utility.yul\":23124:23126   */\n      0x20\n        /* \"#utility.yul\":23113:23122   */\n      dup3\n        /* \"#utility.yul\":23109:23127   */\n      add\n        /* \"#utility.yul\":23101:23127   */\n      swap1\n      pop\n        /* \"#utility.yul\":23173:23182   */\n      dup2\n        /* \"#utility.yul\":23167:23171   */\n      dup2\n        /* \"#utility.yul\":23163:23183   */\n      sub\n        /* \"#utility.yul\":23159:23160   */\n      0x00\n        /* \"#utility.yul\":23148:23157   */\n      dup4\n        /* \"#utility.yul\":23144:23161   */\n      add\n        /* \"#utility.yul\":23137:23184   */\n      mstore\n        /* \"#utility.yul\":23201:23332   */\n      tag_755\n        /* \"#utility.yul\":23327:23331   */\n      dup2\n        /* \"#utility.yul\":23201:23332   */\n      tag_664\n      jump\t// in\n    tag_755:\n        /* \"#utility.yul\":23193:23332   */\n      swap1\n      pop\n        /* \"#utility.yul\":22920:23339   */\n      swap2\n      swap1\n      pop\n      jump\t// out\n        /* \"#utility.yul\":23345:23764   */\n    tag_317:\n        /* \"#utility.yul\":23511:23515   */\n      0x00\n        /* \"#utility.yul\":23549:23551   */\n      0x20\n        /* \"#utility.yul\":23538:23547   */\n      dup3\n        /* \"#utility.yul\":23534:23552   */\n      add\n        /* \"#utility.yul\":23526:23552   */\n      swap1\n      pop\n        /* \"#utility.yul\":23598:23607   */\n      dup2\n        /* \"#utility.yul\":23592:23596   */\n      dup2\n        /* \"#utility.yul\":23588:23608   */\n      sub\n        /* \"#utility.yul\":23584:23585   */\n      0x00\n        /* \"#utility.yul\":23573:23582   */\n      dup4\n        /* \"#utility.yul\":23569:23586   */\n      add\n        /* \"#utility.yul\":23562:23609   */\n      mstore\n        /* \"#utility.yul\":23626:23757   */\n      tag_757\n        /* \"#utility.yul\":23752:23756   */\n      dup2\n        /* \"#utility.yul\":23626:23757   */\n      tag_675\n      jump\t// in\n    tag_757:\n        /* \"#utility.yul\":23618:23757   */\n      swap1\n      pop\n        /* \"#utility.yul\":23345:23764   */\n      swap2\n      swap1\n      pop\n      jump\t// out\n        /* \"#utility.yul\":23770:24189   */\n    tag_223:\n        /* \"#utility.yul\":23936:23940   */\n      0x00\n        /* \"#utility.yul\":23974:23976   */\n      0x20\n        /* \"#utility.yul\":23963:23972   */\n      dup3\n        /* \"#utility.yul\":23959:23977   */\n      add\n        /* \"#utility.yul\":23951:23977   */\n      swap1\n      pop\n        /* \"#utility.yul\":24023:24032   */\n      dup2\n        /* \"#utility.yul\":24017:24021   */\n      dup2\n        /* \"#utility.yul\":24013:24033   */\n      sub\n        /* \"#utility.yul\":24009:24010   */\n      0x00\n        /* \"#utility.yul\":23998:24007   */\n      dup4\n        /* \"#utility.yul\":23994:24011   */\n      add\n        /* \"#utility.yul\":23987:24034   */\n      mstore\n        /* \"#utility.yul\":24051:24182   */\n      tag_759\n        /* \"#utility.yul\":24177:24181   */\n      dup2\n        /* \"#utility.yul\":24051:24182   */\n      tag_680\n      jump\t// in\n    tag_759:\n        /* \"#utility.yul\":24043:24182   */\n      swap1\n      pop\n        /* \"#utility.yul\":23770:24189   */\n      swap2\n      swap1\n      pop\n      jump\t// out\n        /* \"#utility.yul\":24195:24614   */\n    tag_314:\n        /* \"#utility.yul\":24361:24365   */\n      0x00\n        /* \"#utility.yul\":24399:24401   */\n      0x20\n        /* \"#utility.yul\":24388:24397   */\n      dup3\n        /* \"#utility.yul\":24384:24402   */\n      add\n        /* \"#utility.yul\":24376:24402   */\n      swap1\n      pop\n        /* \"#utility.yul\":24448:24457   */\n      dup2\n        /* \"#utility.yul\":24442:24446   */\n      dup2\n        /* \"#utility.yul\":24438:24458   */\n      sub\n        /* \"#utility.yul\":24434:24435   */\n      0x00\n        /* \"#utility.yul\":24423:24432   */\n      dup4\n        /* \"#utility.yul\":24419:24436   */\n      add\n        /* \"#utility.yul\":24412:24459   */\n      mstore\n        /* \"#utility.yul\":24476:24607   */\n      tag_761\n        /* \"#utility.yul\":24602:24606   */\n      dup2\n        /* \"#utility.yul\":24476:24607   */\n      tag_685\n      jump\t// in\n    tag_761:\n        /* \"#utility.yul\":24468:24607   */\n      swap1\n      pop\n        /* \"#utility.yul\":24195:24614   */\n      swap2\n      swap1\n      pop\n      jump\t// out\n        /* \"#utility.yul\":24620:25039   */\n    tag_245:\n        /* \"#utility.yul\":24786:24790   */\n      0x00\n        /* \"#utility.yul\":24824:24826   */\n      0x20\n        /* \"#utility.yul\":24813:24822   */\n      dup3\n        /* \"#utility.yul\":24809:24827   */\n      add\n        /* \"#utility.yul\":24801:24827   */\n      swap1\n      pop\n        /* \"#utility.yul\":24873:24882   */\n      dup2\n        /* \"#utility.yul\":24867:24871   */\n      dup2\n        /* \"#utility.yul\":24863:24883   */\n      sub\n        /* \"#utility.yul\":24859:24860   */\n      0x00\n        /* \"#utility.yul\":24848:24857   */\n      dup4\n        /* \"#utility.yul\":24844:24861   */\n      add\n        /* \"#utility.yul\":24837:24884   */\n      mstore\n        /* \"#utility.yul\":24901:25032   */\n      tag_763\n        /* \"#utility.yul\":25027:25031   */\n      dup2\n        /* \"#utility.yul\":24901:25032   */\n      tag_690\n      jump\t// in\n    tag_763:\n        /* \"#utility.yul\":24893:25032   */\n      swap1\n      pop\n        /* \"#utility.yul\":24620:25039   */\n      swap2\n      swap1\n      pop\n      jump\t// out\n        /* \"#utility.yul\":25045:25464   */\n    tag_278:\n        /* \"#utility.yul\":25211:25215   */\n      0x00\n        /* \"#utility.yul\":25249:25251   */\n      0x20\n        /* \"#utility.yul\":25238:25247   */\n      dup3\n        /* \"#utility.yul\":25234:25252   */\n      add\n        /* \"#utility.yul\":25226:25252   */\n      swap1\n      pop\n        /* \"#utility.yul\":25298:25307   */\n      dup2\n        /* \"#utility.yul\":25292:25296   */\n      dup2\n        /* \"#utility.yul\":25288:25308   */\n      sub\n        /* \"#utility.yul\":25284:25285   */\n      0x00\n        /* \"#utility.yul\":25273:25282   */\n      dup4\n        /* \"#utility.yul\":25269:25286   */\n      add\n        /* \"#utility.yul\":25262:25309   */\n      mstore\n        /* \"#utility.yul\":25326:25457   */\n      tag_765\n        /* \"#utility.yul\":25452:25456   */\n      dup2\n        /* \"#utility.yul\":25326:25457   */\n      tag_695\n      jump\t// in\n    tag_765:\n        /* \"#utility.yul\":25318:25457   */\n      swap1\n      pop\n        /* \"#utility.yul\":25045:25464   */\n      swap2\n      swap1\n      pop\n      jump\t// out\n        /* \"#utility.yul\":25470:25889   */\n    tag_234:\n        /* \"#utility.yul\":25636:25640   */\n      0x00\n        /* \"#utility.yul\":25674:25676   */\n      0x20\n        /* \"#utility.yul\":25663:25672   */\n      dup3\n        /* \"#utility.yul\":25659:25677   */\n      add\n        /* \"#utility.yul\":25651:25677   */\n      swap1\n      pop\n        /* \"#utility.yul\":25723:25732   */\n      dup2\n        /* \"#utility.yul\":25717:25721   */\n      dup2\n        /* \"#utility.yul\":25713:25733   */\n      sub\n        /* \"#utility.yul\":25709:25710   */\n      0x00\n        /* \"#utility.yul\":25698:25707   */\n      dup4\n        /* \"#utility.yul\":25694:25711   */\n      add\n        /* \"#utility.yul\":25687:25734   */\n      mstore\n        /* \"#utility.yul\":25751:25882   */\n      tag_767\n        /* \"#utility.yul\":25877:25881   */\n      dup2\n        /* \"#utility.yul\":25751:25882   */\n      tag_700\n      jump\t// in\n    tag_767:\n        /* \"#utility.yul\":25743:25882   */\n      swap1\n      pop\n        /* \"#utility.yul\":25470:25889   */\n      swap2\n      swap1\n      pop\n      jump\t// out\n        /* \"#utility.yul\":25895:26314   */\n    tag_330:\n        /* \"#utility.yul\":26061:26065   */\n      0x00\n        /* \"#utility.yul\":26099:26101   */\n      0x20\n        /* \"#utility.yul\":26088:26097   */\n      dup3\n        /* \"#utility.yul\":26084:26102   */\n      add\n        /* \"#utility.yul\":26076:26102   */\n      swap1\n      pop\n        /* \"#utility.yul\":26148:26157   */\n      dup2\n        /* \"#utility.yul\":26142:26146   */\n      dup2\n        /* \"#utility.yul\":26138:26158   */\n      sub\n        /* \"#utility.yul\":26134:26135   */\n      0x00\n        /* \"#utility.yul\":26123:26132   */\n      dup4\n        /* \"#utility.yul\":26119:26136   */\n      add\n        /* \"#utility.yul\":26112:26159   */\n      mstore\n        /* \"#utility.yul\":26176:26307   */\n      tag_769\n        /* \"#utility.yul\":26302:26306   */\n      dup2\n        /* \"#utility.yul\":26176:26307   */\n      tag_705\n      jump\t// in\n    tag_769:\n        /* \"#utility.yul\":26168:26307   */\n      swap1\n      pop\n        /* \"#utility.yul\":25895:26314   */\n      swap2\n      swap1\n      pop\n      jump\t// out\n        /* \"#utility.yul\":26320:26542   */\n    tag_59:\n        /* \"#utility.yul\":26413:26417   */\n      0x00\n        /* \"#utility.yul\":26451:26453   */\n      0x20\n        /* \"#utility.yul\":26440:26449   */\n      dup3\n        /* \"#utility.yul\":26436:26454   */\n      add\n        /* \"#utility.yul\":26428:26454   */\n      swap1\n      pop\n        /* \"#utility.yul\":26464:26535   */\n      tag_771\n        /* \"#utility.yul\":26532:26533   */\n      0x00\n        /* \"#utility.yul\":26521:26530   */\n      dup4\n        /* \"#utility.yul\":26517:26534   */\n      add\n        /* \"#utility.yul\":26508:26514   */\n      dup5\n        /* \"#utility.yul\":26464:26535   */\n      tag_710\n      jump\t// in\n    tag_771:\n        /* \"#utility.yul\":26320:26542   */\n      swap3\n      swap2\n      pop\n      pop\n      jump\t// out\n        /* \"#utility.yul\":26548:26880   */\n    tag_286:\n        /* \"#utility.yul\":26669:26673   */\n      0x00\n        /* \"#utility.yul\":26707:26709   */\n      0x40\n        /* \"#utility.yul\":26696:26705   */\n      dup3\n        /* \"#utility.yul\":26692:26710   */\n      add\n        /* \"#utility.yul\":26684:26710   */\n      swap1\n      pop\n        /* \"#utility.yul\":26720:26791   */\n      tag_773\n        /* \"#utility.yul\":26788:26789   */\n      0x00\n        /* \"#utility.yul\":26777:26786   */\n      dup4\n        /* \"#utility.yul\":26773:26790   */\n      add\n        /* \"#utility.yul\":26764:26770   */\n      dup6\n        /* \"#utility.yul\":26720:26791   */\n      tag_710\n      jump\t// in\n    tag_773:\n        /* \"#utility.yul\":26801:26873   */\n      tag_774\n        /* \"#utility.yul\":26869:26871   */\n      0x20\n        /* \"#utility.yul\":26858:26867   */\n      dup4\n        /* \"#utility.yul\":26854:26872   */\n      add\n        /* \"#utility.yul\":26845:26851   */\n      dup5\n        /* \"#utility.yul\":26801:26873   */\n      tag_580\n      jump\t// in\n    tag_774:\n        /* \"#utility.yul\":26548:26880   */\n      swap4\n      swap3\n      pop\n      pop\n      pop\n      jump\t// out\n        /* \"#utility.yul\":26886:27530   */\n    tag_271:\n        /* \"#utility.yul\":27083:27087   */\n      0x00\n        /* \"#utility.yul\":27121:27124   */\n      0x80\n        /* \"#utility.yul\":27110:27119   */\n      dup3\n        /* \"#utility.yul\":27106:27125   */\n      add\n        /* \"#utility.yul\":27098:27125   */\n      swap1\n      pop\n        /* \"#utility.yul\":27135:27206   */\n      tag_776\n        /* \"#utility.yul\":27203:27204   */\n      0x00\n        /* \"#utility.yul\":27192:27201   */\n      dup4\n        /* \"#utility.yul\":27188:27205   */\n      add\n        /* \"#utility.yul\":27179:27185   */\n      dup8\n        /* \"#utility.yul\":27135:27206   */\n      tag_710\n      jump\t// in\n    tag_776:\n        /* \"#utility.yul\":27216:27288   */\n      tag_777\n        /* \"#utility.yul\":27284:27286   */\n      0x20\n        /* \"#utility.yul\":27273:27282   */\n      dup4\n        /* \"#utility.yul\":27269:27287   */\n      add\n        /* \"#utility.yul\":27260:27266   */\n      dup7\n        /* \"#utility.yul\":27216:27288   */\n      tag_580\n      jump\t// in\n    tag_777:\n        /* \"#utility.yul\":27335:27344   */\n      dup2\n        /* \"#utility.yul\":27329:27333   */\n      dup2\n        /* \"#utility.yul\":27325:27345   */\n      sub\n        /* \"#utility.yul\":27320:27322   */\n      0x40\n        /* \"#utility.yul\":27309:27318   */\n      dup4\n        /* \"#utility.yul\":27305:27323   */\n      add\n        /* \"#utility.yul\":27298:27346   */\n      mstore\n        /* \"#utility.yul\":27363:27441   */\n      tag_778\n        /* \"#utility.yul\":27436:27440   */\n      dup2\n        /* \"#utility.yul\":27427:27433   */\n      dup6\n        /* \"#utility.yul\":27363:27441   */\n      tag_592\n      jump\t// in\n    tag_778:\n        /* \"#utility.yul\":27355:27441   */\n      swap1\n      pop\n        /* \"#utility.yul\":27451:27523   */\n      tag_779\n        /* \"#utility.yul\":27519:27521   */\n      0x60\n        /* \"#utility.yul\":27508:27517   */\n      dup4\n        /* \"#utility.yul\":27504:27522   */\n      add\n        /* \"#utility.yul\":27495:27501   */\n      dup5\n        /* \"#utility.yul\":27451:27523   */\n      tag_710\n      jump\t// in\n    tag_779:\n        /* \"#utility.yul\":26886:27530   */\n      swap6\n      swap5\n      pop\n      pop\n      pop\n      pop\n      pop\n      jump\t// out\n        /* \"#utility.yul\":27536:28390   */\n    tag_203:\n        /* \"#utility.yul\":27783:27787   */\n      0x00\n        /* \"#utility.yul\":27821:27824   */\n      0xc0\n        /* \"#utility.yul\":27810:27819   */\n      dup3\n        /* \"#utility.yul\":27806:27825   */\n      add\n        /* \"#utility.yul\":27798:27825   */\n      swap1\n      pop\n        /* \"#utility.yul\":27835:27906   */\n      tag_781\n        /* \"#utility.yul\":27903:27904   */\n      0x00\n        /* \"#utility.yul\":27892:27901   */\n      dup4\n        /* \"#utility.yul\":27888:27905   */\n      add\n        /* \"#utility.yul\":27879:27885   */\n      dup10\n        /* \"#utility.yul\":27835:27906   */\n      tag_710\n      jump\t// in\n    tag_781:\n        /* \"#utility.yul\":27953:27962   */\n      dup2\n        /* \"#utility.yul\":27947:27951   */\n      dup2\n        /* \"#utility.yul\":27943:27963   */\n      sub\n        /* \"#utility.yul\":27938:27940   */\n      0x20\n        /* \"#utility.yul\":27927:27936   */\n      dup4\n        /* \"#utility.yul\":27923:27941   */\n      add\n        /* \"#utility.yul\":27916:27964   */\n      mstore\n        /* \"#utility.yul\":27981:28059   */\n      tag_782\n        /* \"#utility.yul\":28054:28058   */\n      dup2\n        /* \"#utility.yul\":28045:28051   */\n      dup9\n        /* \"#utility.yul\":27981:28059   */\n      tag_592\n      jump\t// in\n    tag_782:\n        /* \"#utility.yul\":27973:28059   */\n      swap1\n      pop\n        /* \"#utility.yul\":28069:28135   */\n      tag_783\n        /* \"#utility.yul\":28131:28133   */\n      0x40\n        /* \"#utility.yul\":28120:28129   */\n      dup4\n        /* \"#utility.yul\":28116:28134   */\n      add\n        /* \"#utility.yul\":28107:28113   */\n      dup8\n        /* \"#utility.yul\":28069:28135   */\n      tag_584\n      jump\t// in\n    tag_783:\n        /* \"#utility.yul\":28145:28217   */\n      tag_784\n        /* \"#utility.yul\":28213:28215   */\n      0x60\n        /* \"#utility.yul\":28202:28211   */\n      dup4\n        /* \"#utility.yul\":28198:28216   */\n      add\n        /* \"#utility.yul\":28189:28195   */\n      dup7\n        /* \"#utility.yul\":28145:28217   */\n      tag_710\n      jump\t// in\n    tag_784:\n        /* \"#utility.yul\":28227:28300   */\n      tag_785\n        /* \"#utility.yul\":28295:28298   */\n      0x80\n        /* \"#utility.yul\":28284:28293   */\n      dup4\n        /* \"#utility.yul\":28280:28299   */\n      add\n        /* \"#utility.yul\":28271:28277   */\n      dup6\n        /* \"#utility.yul\":28227:28300   */\n      tag_580\n      jump\t// in\n    tag_785:\n        /* \"#utility.yul\":28310:28383   */\n      tag_786\n        /* \"#utility.yul\":28378:28381   */\n      0xa0\n        /* \"#utility.yul\":28367:28376   */\n      dup4\n        /* \"#utility.yul\":28363:28382   */\n      add\n        /* \"#utility.yul\":28354:28360   */\n      dup5\n        /* \"#utility.yul\":28310:28383   */\n      tag_710\n      jump\t// in\n    tag_786:\n        /* \"#utility.yul\":27536:28390   */\n      swap8\n      swap7\n      pop\n      pop\n      pop\n      pop\n      pop\n      pop\n      pop\n      jump\t// out\n        /* \"#utility.yul\":28396:28838   */\n    tag_66:\n        /* \"#utility.yul\":28545:28549   */\n      0x00\n        /* \"#utility.yul\":28583:28585   */\n      0x60\n        /* \"#utility.yul\":28572:28581   */\n      dup3\n        /* \"#utility.yul\":28568:28586   */\n      add\n        /* \"#utility.yul\":28560:28586   */\n      swap1\n      pop\n        /* \"#utility.yul\":28596:28667   */\n      tag_788\n        /* \"#utility.yul\":28664:28665   */\n      0x00\n        /* \"#utility.yul\":28653:28662   */\n      dup4\n        /* \"#utility.yul\":28649:28666   */\n      add\n        /* \"#utility.yul\":28640:28646   */\n      dup7\n        /* \"#utility.yul\":28596:28667   */\n      tag_710\n      jump\t// in\n    tag_788:\n        /* \"#utility.yul\":28677:28749   */\n      tag_789\n        /* \"#utility.yul\":28745:28747   */\n      0x20\n        /* \"#utility.yul\":28734:28743   */\n      dup4\n        /* \"#utility.yul\":28730:28748   */\n      add\n        /* \"#utility.yul\":28721:28727   */\n      dup6\n        /* \"#utility.yul\":28677:28749   */\n      tag_710\n      jump\t// in\n    tag_789:\n        /* \"#utility.yul\":28759:28831   */\n      tag_790\n        /* \"#utility.yul\":28827:28829   */\n      0x40\n        /* \"#utility.yul\":28816:28825   */\n      dup4\n        /* \"#utility.yul\":28812:28830   */\n      add\n        /* \"#utility.yul\":28803:28809   */\n      dup5\n        /* \"#utility.yul\":28759:28831   */\n      tag_710\n      jump\t// in\n    tag_790:\n        /* \"#utility.yul\":28396:28838   */\n      swap5\n      swap4\n      pop\n      pop\n      pop\n      pop\n      jump\t// out\n        /* \"#utility.yul\":28844:29815   */\n    tag_341:\n        /* \"#utility.yul\":29122:29126   */\n      0x00\n        /* \"#utility.yul\":29160:29163   */\n      0xe0\n        /* \"#utility.yul\":29149:29158   */\n      dup3\n        /* \"#utility.yul\":29145:29164   */\n      add\n        /* \"#utility.yul\":29137:29164   */\n      swap1\n      pop\n        /* \"#utility.yul\":29174:29245   */\n      tag_792\n        /* \"#utility.yul\":29242:29243   */\n      0x00\n        /* \"#utility.yul\":29231:29240   */\n      dup4\n        /* \"#utility.yul\":29227:29244   */\n      add\n        /* \"#utility.yul\":29218:29224   */\n      dup11\n        /* \"#utility.yul\":29174:29245   */\n      tag_710\n      jump\t// in\n    tag_792:\n        /* \"#utility.yul\":29255:29327   */\n      tag_793\n        /* \"#utility.yul\":29323:29325   */\n      0x20\n        /* \"#utility.yul\":29312:29321   */\n      dup4\n        /* \"#utility.yul\":29308:29326   */\n      add\n        /* \"#utility.yul\":29299:29305   */\n      dup10\n        /* \"#utility.yul\":29255:29327   */\n      tag_710\n      jump\t// in\n    tag_793:\n        /* \"#utility.yul\":29337:29409   */\n      tag_794\n        /* \"#utility.yul\":29405:29407   */\n      0x40\n        /* \"#utility.yul\":29394:29403   */\n      dup4\n        /* \"#utility.yul\":29390:29408   */\n      add\n        /* \"#utility.yul\":29381:29387   */\n      dup9\n        /* \"#utility.yul\":29337:29409   */\n      tag_710\n      jump\t// in\n    tag_794:\n        /* \"#utility.yul\":29419:29491   */\n      tag_795\n        /* \"#utility.yul\":29487:29489   */\n      0x60\n        /* \"#utility.yul\":29476:29485   */\n      dup4\n        /* \"#utility.yul\":29472:29490   */\n      add\n        /* \"#utility.yul\":29463:29469   */\n      dup8\n        /* \"#utility.yul\":29419:29491   */\n      tag_710\n      jump\t// in\n    tag_795:\n        /* \"#utility.yul\":29501:29574   */\n      tag_796\n        /* \"#utility.yul\":29569:29572   */\n      0x80\n        /* \"#utility.yul\":29558:29567   */\n      dup4\n        /* \"#utility.yul\":29554:29573   */\n      add\n        /* \"#utility.yul\":29545:29551   */\n      dup7\n        /* \"#utility.yul\":29501:29574   */\n      tag_580\n      jump\t// in\n    tag_796:\n        /* \"#utility.yul\":29584:29657   */\n      tag_797\n        /* \"#utility.yul\":29652:29655   */\n      0xa0\n        /* \"#utility.yul\":29641:29650   */\n      dup4\n        /* \"#utility.yul\":29637:29656   */\n      add\n        /* \"#utility.yul\":29628:29634   */\n      dup6\n        /* \"#utility.yul\":29584:29657   */\n      tag_580\n      jump\t// in\n    tag_797:\n        /* \"#utility.yul\":29705:29714   */\n      dup2\n        /* \"#utility.yul\":29699:29703   */\n      dup2\n        /* \"#utility.yul\":29695:29715   */\n      sub\n        /* \"#utility.yul\":29689:29692   */\n      0xc0\n        /* \"#utility.yul\":29678:29687   */\n      dup4\n        /* \"#utility.yul\":29674:29693   */\n      add\n        /* \"#utility.yul\":29667:29716   */\n      mstore\n        /* \"#utility.yul\":29733:29808   */\n      tag_798\n        /* \"#utility.yul\":29803:29807   */\n      dup2\n        /* \"#utility.yul\":29794:29800   */\n      dup5\n        /* \"#utility.yul\":29733:29808   */\n      tag_602\n      jump\t// in\n    tag_798:\n        /* \"#utility.yul\":29725:29808   */\n      swap1\n      pop\n        /* \"#utility.yul\":28844:29815   */\n      swap9\n      swap8\n      pop\n      pop\n      pop\n      pop\n      pop\n      pop\n      pop\n      pop\n      jump\t// out\n        /* \"#utility.yul\":29821:31238   */\n    tag_118:\n        /* \"#utility.yul\":30210:30214   */\n      0x00\n        /* \"#utility.yul\":30248:30251   */\n      0x0180\n        /* \"#utility.yul\":30237:30246   */\n      dup3\n        /* \"#utility.yul\":30233:30252   */\n      add\n        /* \"#utility.yul\":30225:30252   */\n      swap1\n      pop\n        /* \"#utility.yul\":30262:30333   */\n      tag_800\n        /* \"#utility.yul\":30330:30331   */\n      0x00\n        /* \"#utility.yul\":30319:30328   */\n      dup4\n        /* \"#utility.yul\":30315:30332   */\n      add\n        /* \"#utility.yul\":30306:30312   */\n      dup16\n        /* \"#utility.yul\":30262:30333   */\n      tag_710\n      jump\t// in\n    tag_800:\n        /* \"#utility.yul\":30343:30415   */\n      tag_801\n        /* \"#utility.yul\":30411:30413   */\n      0x20\n        /* \"#utility.yul\":30400:30409   */\n      dup4\n        /* \"#utility.yul\":30396:30414   */\n      add\n        /* \"#utility.yul\":30387:30393   */\n      dup15\n        /* \"#utility.yul\":30343:30415   */\n      tag_710\n      jump\t// in\n    tag_801:\n        /* \"#utility.yul\":30425:30497   */\n      tag_802\n        /* \"#utility.yul\":30493:30495   */\n      0x40\n        /* \"#utility.yul\":30482:30491   */\n      dup4\n        /* \"#utility.yul\":30478:30496   */\n      add\n        /* \"#utility.yul\":30469:30475   */\n      dup14\n        /* \"#utility.yul\":30425:30497   */\n      tag_710\n      jump\t// in\n    tag_802:\n        /* \"#utility.yul\":30507:30579   */\n      tag_803\n        /* \"#utility.yul\":30575:30577   */\n      0x60\n        /* \"#utility.yul\":30564:30573   */\n      dup4\n        /* \"#utility.yul\":30560:30578   */\n      add\n        /* \"#utility.yul\":30551:30557   */\n      dup13\n        /* \"#utility.yul\":30507:30579   */\n      tag_710\n      jump\t// in\n    tag_803:\n        /* \"#utility.yul\":30589:30662   */\n      tag_804\n        /* \"#utility.yul\":30657:30660   */\n      0x80\n        /* \"#utility.yul\":30646:30655   */\n      dup4\n        /* \"#utility.yul\":30642:30661   */\n      add\n        /* \"#utility.yul\":30633:30639   */\n      dup12\n        /* \"#utility.yul\":30589:30662   */\n      tag_710\n      jump\t// in\n    tag_804:\n        /* \"#utility.yul\":30672:30745   */\n      tag_805\n        /* \"#utility.yul\":30740:30743   */\n      0xa0\n        /* \"#utility.yul\":30729:30738   */\n      dup4\n        /* \"#utility.yul\":30725:30744   */\n      add\n        /* \"#utility.yul\":30716:30722   */\n      dup11\n        /* \"#utility.yul\":30672:30745   */\n      tag_710\n      jump\t// in\n    tag_805:\n        /* \"#utility.yul\":30755:30828   */\n      tag_806\n        /* \"#utility.yul\":30823:30826   */\n      0xc0\n        /* \"#utility.yul\":30812:30821   */\n      dup4\n        /* \"#utility.yul\":30808:30827   */\n      add\n        /* \"#utility.yul\":30799:30805   */\n      dup10\n        /* \"#utility.yul\":30755:30828   */\n      tag_710\n      jump\t// in\n    tag_806:\n        /* \"#utility.yul\":30838:30907   */\n      tag_807\n        /* \"#utility.yul\":30902:30905   */\n      0xe0\n        /* \"#utility.yul\":30891:30900   */\n      dup4\n        /* \"#utility.yul\":30887:30906   */\n      add\n        /* \"#utility.yul\":30878:30884   */\n      dup9\n        /* \"#utility.yul\":30838:30907   */\n      tag_714\n      jump\t// in\n    tag_807:\n        /* \"#utility.yul\":30917:30986   */\n      tag_808\n        /* \"#utility.yul\":30981:30984   */\n      0x0100\n        /* \"#utility.yul\":30970:30979   */\n      dup4\n        /* \"#utility.yul\":30966:30985   */\n      add\n        /* \"#utility.yul\":30957:30963   */\n      dup8\n        /* \"#utility.yul\":30917:30986   */\n      tag_714\n      jump\t// in\n    tag_808:\n        /* \"#utility.yul\":30996:31063   */\n      tag_809\n        /* \"#utility.yul\":31058:31061   */\n      0x0120\n        /* \"#utility.yul\":31047:31056   */\n      dup4\n        /* \"#utility.yul\":31043:31062   */\n      add\n        /* \"#utility.yul\":31034:31040   */\n      dup7\n        /* \"#utility.yul\":30996:31063   */\n      tag_584\n      jump\t// in\n    tag_809:\n        /* \"#utility.yul\":31073:31147   */\n      tag_810\n        /* \"#utility.yul\":31142:31145   */\n      0x0140\n        /* \"#utility.yul\":31131:31140   */\n      dup4\n        /* \"#utility.yul\":31127:31146   */\n      add\n        /* \"#utility.yul\":31117:31124   */\n      dup6\n        /* \"#utility.yul\":31073:31147   */\n      tag_580\n      jump\t// in\n    tag_810:\n        /* \"#utility.yul\":31157:31231   */\n      tag_811\n        /* \"#utility.yul\":31226:31229   */\n      0x0160\n        /* \"#utility.yul\":31215:31224   */\n      dup4\n        /* \"#utility.yul\":31211:31230   */\n      add\n        /* \"#utility.yul\":31201:31208   */\n      dup5\n        /* \"#utility.yul\":31157:31231   */\n      tag_580\n      jump\t// in\n    tag_811:\n        /* \"#utility.yul\":29821:31238   */\n      swap14\n      swap13\n      pop\n      pop\n      pop\n      pop\n      pop\n      pop\n      pop\n      pop\n      pop\n      pop\n      pop\n      pop\n      pop\n      jump\t// out\n        /* \"#utility.yul\":31244:31373   */\n    tag_480:\n        /* \"#utility.yul\":31278:31284   */\n      0x00\n        /* \"#utility.yul\":31305:31325   */\n      tag_813\n      tag_814\n      jump\t// in\n    tag_813:\n        /* \"#utility.yul\":31295:31325   */\n      swap1\n      pop\n        /* \"#utility.yul\":31334:31367   */\n      tag_815\n        /* \"#utility.yul\":31362:31366   */\n      dup3\n        /* \"#utility.yul\":31354:31360   */\n      dup3\n        /* \"#utility.yul\":31334:31367   */\n      tag_816\n      jump\t// in\n    tag_815:\n        /* \"#utility.yul\":31244:31373   */\n      swap2\n      swap1\n      pop\n      jump\t// out\n        /* \"#utility.yul\":31379:31454   */\n    tag_814:\n        /* \"#utility.yul\":31412:31418   */\n      0x00\n        /* \"#utility.yul\":31445:31447   */\n      0x40\n        /* \"#utility.yul\":31439:31448   */\n      mload\n        /* \"#utility.yul\":31429:31448   */\n      swap1\n      pop\n        /* \"#utility.yul\":31379:31454   */\n      swap1\n      jump\t// out\n        /* \"#utility.yul\":31460:31768   */\n    tag_479:\n        /* \"#utility.yul\":31522:31526   */\n      0x00\n        /* \"#utility.yul\":31612:31630   */\n      0xffffffffffffffff\n        /* \"#utility.yul\":31604:31610   */\n      dup3\n        /* \"#utility.yul\":31601:31631   */\n      gt\n        /* \"#utility.yul\":31598:31654   */\n      iszero\n      tag_819\n      jumpi\n        /* \"#utility.yul\":31634:31652   */\n      tag_820\n      tag_821\n      jump\t// in\n    tag_820:\n        /* \"#utility.yul\":31598:31654   */\n    tag_819:\n        /* \"#utility.yul\":31672:31701   */\n      tag_822\n        /* \"#utility.yul\":31694:31700   */\n      dup3\n        /* \"#utility.yul\":31672:31701   */\n      tag_601\n      jump\t// in\n    tag_822:\n        /* \"#utility.yul\":31664:31701   */\n      swap1\n      pop\n        /* \"#utility.yul\":31756:31760   */\n      0x20\n        /* \"#utility.yul\":31750:31754   */\n      dup2\n        /* \"#utility.yul\":31746:31761   */\n      add\n        /* \"#utility.yul\":31738:31761   */\n      swap1\n      pop\n        /* \"#utility.yul\":31460:31768   */\n      swap2\n      swap1\n      pop\n      jump\t// out\n        /* \"#utility.yul\":31774:31915   */\n    tag_610:\n        /* \"#utility.yul\":31823:31827   */\n      0x00\n        /* \"#utility.yul\":31846:31849   */\n      dup2\n        /* \"#utility.yul\":31838:31849   */\n      swap1\n      pop\n        /* \"#utility.yul\":31869:31872   */\n      dup2\n        /* \"#utility.yul\":31866:31867   */\n      0x00\n        /* \"#utility.yul\":31859:31873   */\n      mstore\n        /* \"#utility.yul\":31903:31907   */\n      0x20\n        /* \"#utility.yul\":31900:31901   */\n      0x00\n        /* \"#utility.yul\":31890:31908   */\n      keccak256\n        /* \"#utility.yul\":31882:31908   */\n      swap1\n      pop\n        /* \"#utility.yul\":31774:31915   */\n      swap2\n      swap1\n      pop\n      jump\t// out\n        /* \"#utility.yul\":31921:32020   */\n    tag_595:\n        /* \"#utility.yul\":31973:31979   */\n      0x00\n        /* \"#utility.yul\":32007:32012   */\n      dup2\n        /* \"#utility.yul\":32001:32013   */\n      mload\n        /* \"#utility.yul\":31991:32013   */\n      swap1\n      pop\n        /* \"#utility.yul\":31921:32020   */\n      swap2\n      swap1\n      pop\n      jump\t// out\n        /* \"#utility.yul\":32026:32173   */\n    tag_672:\n        /* \"#utility.yul\":32127:32138   */\n      0x00\n        /* \"#utility.yul\":32164:32167   */\n      dup2\n        /* \"#utility.yul\":32149:32167   */\n      swap1\n      pop\n        /* \"#utility.yul\":32026:32173   */\n      swap3\n      swap2\n      pop\n      pop\n      jump\t// out\n        /* \"#utility.yul\":32179:32348   */\n    tag_597:\n        /* \"#utility.yul\":32263:32274   */\n      0x00\n        /* \"#utility.yul\":32297:32303   */\n      dup3\n        /* \"#utility.yul\":32292:32295   */\n      dup3\n        /* \"#utility.yul\":32285:32304   */\n      mstore\n        /* \"#utility.yul\":32337:32341   */\n      0x20\n        /* \"#utility.yul\":32332:32335   */\n      dup3\n        /* \"#utility.yul\":32328:32342   */\n      add\n        /* \"#utility.yul\":32313:32342   */\n      swap1\n      pop\n        /* \"#utility.yul\":32179:32348   */\n      swap3\n      swap2\n      pop\n      pop\n      jump\t// out\n        /* \"#utility.yul\":32354:32659   */\n    tag_254:\n        /* \"#utility.yul\":32394:32397   */\n      0x00\n        /* \"#utility.yul\":32413:32433   */\n      tag_828\n        /* \"#utility.yul\":32431:32432   */\n      dup3\n        /* \"#utility.yul\":32413:32433   */\n      tag_713\n      jump\t// in\n    tag_828:\n        /* \"#utility.yul\":32408:32433   */\n      swap2\n      pop\n        /* \"#utility.yul\":32447:32467   */\n      tag_829\n        /* \"#utility.yul\":32465:32466   */\n      dup4\n        /* \"#utility.yul\":32447:32467   */\n      tag_713\n      jump\t// in\n    tag_829:\n        /* \"#utility.yul\":32442:32467   */\n      swap3\n      pop\n        /* \"#utility.yul\":32601:32602   */\n      dup3\n        /* \"#utility.yul\":32533:32599   */\n      0xffffffffffffffffffffffffffffffffffffffffffffffffffffffffffffffff\n        /* \"#utility.yul\":32529:32603   */\n      sub\n        /* \"#utility.yul\":32526:32527   */\n      dup3\n        /* \"#utility.yul\":32523:32604   */\n      gt\n        /* \"#utility.yul\":32520:32627   */\n      iszero\n      tag_830\n      jumpi\n        /* \"#utility.yul\":32607:32625   */\n      tag_831\n      tag_832\n      jump\t// in\n    tag_831:\n        /* \"#utility.yul\":32520:32627   */\n    tag_830:\n        /* \"#utility.yul\":32651:32652   */\n      dup3\n        /* \"#utility.yul\":32648:32649   */\n      dup3\n        /* \"#utility.yul\":32644:32653   */\n      add\n        /* \"#utility.yul\":32637:32653   */\n      swap1\n      pop\n        /* \"#utility.yul\":32354:32659   */\n      swap3\n      swap2\n      pop\n      pop\n      jump\t// out\n        /* \"#utility.yul\":32665:32850   */\n    tag_323:\n        /* \"#utility.yul\":32705:32706   */\n      0x00\n        /* \"#utility.yul\":32722:32742   */\n      tag_834\n        /* \"#utility.yul\":32740:32741   */\n      dup3\n        /* \"#utility.yul\":32722:32742   */\n      tag_713\n      jump\t// in\n    tag_834:\n        /* \"#utility.yul\":32717:32742   */\n      swap2\n      pop\n        /* \"#utility.yul\":32756:32776   */\n      tag_835\n        /* \"#utility.yul\":32774:32775   */\n      dup4\n        /* \"#utility.yul\":32756:32776   */\n      tag_713\n      jump\t// in\n    tag_835:\n        /* \"#utility.yul\":32751:32776   */\n      swap3\n      pop\n        /* \"#utility.yul\":32795:32796   */\n      dup3\n        /* \"#utility.yul\":32785:32820   */\n      tag_836\n      jumpi\n        /* \"#utility.yul\":32800:32818   */\n      tag_837\n      tag_838\n      jump\t// in\n    tag_837:\n        /* \"#utility.yul\":32785:32820   */\n    tag_836:\n        /* \"#utility.yul\":32842:32843   */\n      dup3\n        /* \"#utility.yul\":32839:32840   */\n      dup3\n        /* \"#utility.yul\":32835:32844   */\n      div\n        /* \"#utility.yul\":32830:32844   */\n      swap1\n      pop\n        /* \"#utility.yul\":32665:32850   */\n      swap3\n      swap2\n      pop\n      pop\n      jump\t// out\n        /* \"#utility.yul\":32856:33204   */\n    tag_325:\n        /* \"#utility.yul\":32896:32903   */\n      0x00\n        /* \"#utility.yul\":32919:32939   */\n      tag_840\n        /* \"#utility.yul\":32937:32938   */\n      dup3\n        /* \"#utility.yul\":32919:32939   */\n      tag_713\n      jump\t// in\n    tag_840:\n        /* \"#utility.yul\":32914:32939   */\n      swap2\n      pop\n        /* \"#utility.yul\":32953:32973   */\n      tag_841\n        /* \"#utility.yul\":32971:32972   */\n      dup4\n        /* \"#utility.yul\":32953:32973   */\n      tag_713\n      jump\t// in\n    tag_841:\n        /* \"#utility.yul\":32948:32973   */\n      swap3\n      pop\n        /* \"#utility.yul\":33141:33142   */\n      dup2\n        /* \"#utility.yul\":33073:33139   */\n      0xffffffffffffffffffffffffffffffffffffffffffffffffffffffffffffffff\n        /* \"#utility.yul\":33069:33143   */\n      div\n        /* \"#utility.yul\":33066:33067   */\n      dup4\n        /* \"#utility.yul\":33063:33144   */\n      gt\n        /* \"#utility.yul\":33058:33059   */\n      dup3\n        /* \"#utility.yul\":33051:33060   */\n      iszero\n        /* \"#utility.yul\":33044:33061   */\n      iszero\n        /* \"#utility.yul\":33040:33145   */\n      and\n        /* \"#utility.yul\":33037:33168   */\n      iszero\n      tag_842\n      jumpi\n        /* \"#utility.yul\":33148:33166   */\n      tag_843\n      tag_832\n      jump\t// in\n    tag_843:\n        /* \"#utility.yul\":33037:33168   */\n    tag_842:\n        /* \"#utility.yul\":33196:33197   */\n      dup3\n        /* \"#utility.yul\":33193:33194   */\n      dup3\n        /* \"#utility.yul\":33189:33198   */\n      mul\n        /* \"#utility.yul\":33178:33198   */\n      swap1\n      pop\n        /* \"#utility.yul\":32856:33204   */\n      swap3\n      swap2\n      pop\n      pop\n      jump\t// out\n        /* \"#utility.yul\":33210:33401   */\n    tag_333:\n        /* \"#utility.yul\":33250:33254   */\n      0x00\n        /* \"#utility.yul\":33270:33290   */\n      tag_845\n        /* \"#utility.yul\":33288:33289   */\n      dup3\n        /* \"#utility.yul\":33270:33290   */\n      tag_713\n      jump\t// in\n    tag_845:\n        /* \"#utility.yul\":33265:33290   */\n      swap2\n      pop\n        /* \"#utility.yul\":33304:33324   */\n      tag_846\n        /* \"#utility.yul\":33322:33323   */\n      dup4\n        /* \"#utility.yul\":33304:33324   */\n      tag_713\n      jump\t// in\n    tag_846:\n        /* \"#utility.yul\":33299:33324   */\n      swap3\n      pop\n        /* \"#utility.yul\":33343:33344   */\n      dup3\n        /* \"#utility.yul\":33340:33341   */\n      dup3\n        /* \"#utility.yul\":33337:33345   */\n      lt\n        /* \"#utility.yul\":33334:33368   */\n      iszero\n      tag_847\n      jumpi\n        /* \"#utility.yul\":33348:33366   */\n      tag_848\n      tag_832\n      jump\t// in\n    tag_848:\n        /* \"#utility.yul\":33334:33368   */\n    tag_847:\n        /* \"#utility.yul\":33393:33394   */\n      dup3\n        /* \"#utility.yul\":33390:33391   */\n      dup3\n        /* \"#utility.yul\":33386:33395   */\n      sub\n        /* \"#utility.yul\":33378:33395   */\n      swap1\n      pop\n        /* \"#utility.yul\":33210:33401   */\n      swap3\n      swap2\n      pop\n      pop\n      jump\t// out\n        /* \"#utility.yul\":33407:33503   */\n    tag_583:\n        /* \"#utility.yul\":33444:33451   */\n      0x00\n        /* \"#utility.yul\":33473:33497   */\n      tag_850\n        /* \"#utility.yul\":33491:33496   */\n      dup3\n        /* \"#utility.yul\":33473:33497   */\n      tag_851\n      jump\t// in\n    tag_850:\n        /* \"#utility.yul\":33462:33497   */\n      swap1\n      pop\n        /* \"#utility.yul\":33407:33503   */\n      swap2\n      swap1\n      pop\n      jump\t// out\n        /* \"#utility.yul\":33509:33599   */\n    tag_587:\n        /* \"#utility.yul\":33543:33550   */\n      0x00\n        /* \"#utility.yul\":33586:33591   */\n      dup2\n        /* \"#utility.yul\":33579:33592   */\n      iszero\n        /* \"#utility.yul\":33572:33593   */\n      iszero\n        /* \"#utility.yul\":33561:33593   */\n      swap1\n      pop\n        /* \"#utility.yul\":33509:33599   */\n      swap2\n      swap1\n      pop\n      jump\t// out\n        /* \"#utility.yul\":33605:33681   */\n    tag_591:\n        /* \"#utility.yul\":33641:33648   */\n      0x00\n        /* \"#utility.yul\":33670:33675   */\n      dup2\n        /* \"#utility.yul\":33659:33675   */\n      swap1\n      pop\n        /* \"#utility.yul\":33605:33681   */\n      swap2\n      swap1\n      pop\n      jump\t// out\n        /* \"#utility.yul\":33687:33813   */\n    tag_851:\n        /* \"#utility.yul\":33724:33731   */\n      0x00\n        /* \"#utility.yul\":33764:33806   */\n      0xffffffffffffffffffffffffffffffffffffffff\n        /* \"#utility.yul\":33757:33762   */\n      dup3\n        /* \"#utility.yul\":33753:33807   */\n      and\n        /* \"#utility.yul\":33742:33807   */\n      swap1\n      pop\n        /* \"#utility.yul\":33687:33813   */\n      swap2\n      swap1\n      pop\n      jump\t// out\n        /* \"#utility.yul\":33819:33896   */\n    tag_713:\n        /* \"#utility.yul\":33856:33863   */\n      0x00\n        /* \"#utility.yul\":33885:33890   */\n      dup2\n        /* \"#utility.yul\":33874:33890   */\n      swap1\n      pop\n        /* \"#utility.yul\":33819:33896   */\n      swap2\n      swap1\n      pop\n      jump\t// out\n        /* \"#utility.yul\":33902:33988   */\n    tag_717:\n        /* \"#utility.yul\":33937:33944   */\n      0x00\n        /* \"#utility.yul\":33977:33981   */\n      0xff\n        /* \"#utility.yul\":33970:33975   */\n      dup3\n        /* \"#utility.yul\":33966:33982   */\n      and\n        /* \"#utility.yul\":33955:33982   */\n      swap1\n      pop\n        /* \"#utility.yul\":33902:33988   */\n      swap2\n      swap1\n      pop\n      jump\t// out\n        /* \"#utility.yul\":33994:34099   */\n    tag_857:\n        /* \"#utility.yul\":34030:34037   */\n      0x00\n        /* \"#utility.yul\":34070:34092   */\n      0xffffffffffffffffffff\n        /* \"#utility.yul\":34063:34068   */\n      dup3\n        /* \"#utility.yul\":34059:34093   */\n      and\n        /* \"#utility.yul\":34048:34093   */\n      swap1\n      pop\n        /* \"#utility.yul\":33994:34099   */\n      swap2\n      swap1\n      pop\n      jump\t// out\n        /* \"#utility.yul\":34105:34259   */\n    tag_485:\n        /* \"#utility.yul\":34189:34195   */\n      dup3\n        /* \"#utility.yul\":34184:34187   */\n      dup2\n        /* \"#utility.yul\":34179:34182   */\n      dup4\n        /* \"#utility.yul\":34166:34196   */\n      calldatacopy\n        /* \"#utility.yul\":34251:34252   */\n      0x00\n        /* \"#utility.yul\":34242:34248   */\n      dup4\n        /* \"#utility.yul\":34237:34240   */\n      dup4\n        /* \"#utility.yul\":34233:34249   */\n      add\n        /* \"#utility.yul\":34226:34253   */\n      mstore\n        /* \"#utility.yul\":34105:34259   */\n      pop\n      pop\n      pop\n      jump\t// out\n        /* \"#utility.yul\":34265:34572   */\n    tag_599:\n        /* \"#utility.yul\":34333:34334   */\n      0x00\n        /* \"#utility.yul\":34343:34456   */\n    tag_861:\n        /* \"#utility.yul\":34357:34363   */\n      dup4\n        /* \"#utility.yul\":34354:34355   */\n      dup2\n        /* \"#utility.yul\":34351:34364   */\n      lt\n        /* \"#utility.yul\":34343:34456   */\n      iszero\n      tag_863\n      jumpi\n        /* \"#utility.yul\":34442:34443   */\n      dup1\n        /* \"#utility.yul\":34437:34440   */\n      dup3\n        /* \"#utility.yul\":34433:34444   */\n      add\n        /* \"#utility.yul\":34427:34445   */\n      mload\n        /* \"#utility.yul\":34423:34424   */\n      dup2\n        /* \"#utility.yul\":34418:34421   */\n      dup5\n        /* \"#utility.yul\":34414:34425   */\n      add\n        /* \"#utility.yul\":34407:34446   */\n      mstore\n        /* \"#utility.yul\":34379:34381   */\n      0x20\n        /* \"#utility.yul\":34376:34377   */\n      dup2\n        /* \"#utility.yul\":34372:34382   */\n      add\n        /* \"#utility.yul\":34367:34382   */\n      swap1\n      pop\n        /* \"#utility.yul\":34343:34456   */\n      jump(tag_861)\n    tag_863:\n        /* \"#utility.yul\":34474:34480   */\n      dup4\n        /* \"#utility.yul\":34471:34472   */\n      dup2\n        /* \"#utility.yul\":34468:34481   */\n      gt\n        /* \"#utility.yul\":34465:34566   */\n      iszero\n      tag_864\n      jumpi\n        /* \"#utility.yul\":34554:34555   */\n      0x00\n        /* \"#utility.yul\":34545:34551   */\n      dup5\n        /* \"#utility.yul\":34540:34543   */\n      dup5\n        /* \"#utility.yul\":34536:34552   */\n      add\n        /* \"#utility.yul\":34529:34556   */\n      mstore\n        /* \"#utility.yul\":34465:34566   */\n    tag_864:\n        /* \"#utility.yul\":34314:34572   */\n      pop\n        /* \"#utility.yul\":34265:34572   */\n      pop\n      pop\n      pop\n      jump\t// out\n        /* \"#utility.yul\":34578:34898   */\n    tag_205:\n        /* \"#utility.yul\":34622:34628   */\n      0x00\n        /* \"#utility.yul\":34659:34660   */\n      0x02\n        /* \"#utility.yul\":34653:34657   */\n      dup3\n        /* \"#utility.yul\":34649:34661   */\n      div\n        /* \"#utility.yul\":34639:34661   */\n      swap1\n      pop\n        /* \"#utility.yul\":34706:34707   */\n      0x01\n        /* \"#utility.yul\":34700:34704   */\n      dup3\n        /* \"#utility.yul\":34696:34708   */\n      and\n        /* \"#utility.yul\":34727:34745   */\n      dup1\n        /* \"#utility.yul\":34717:34798   */\n      tag_866\n      jumpi\n        /* \"#utility.yul\":34783:34787   */\n      0x7f\n        /* \"#utility.yul\":34775:34781   */\n      dup3\n        /* \"#utility.yul\":34771:34788   */\n      and\n        /* \"#utility.yul\":34761:34788   */\n      swap2\n      pop\n        /* \"#utility.yul\":34717:34798   */\n    tag_866:\n        /* \"#utility.yul\":34845:34847   */\n      0x20\n        /* \"#utility.yul\":34837:34843   */\n      dup3\n        /* \"#utility.yul\":34834:34848   */\n      lt\n        /* \"#utility.yul\":34814:34832   */\n      dup2\n        /* \"#utility.yul\":34811:34849   */\n      eq\n        /* \"#utility.yul\":34808:34892   */\n      iszero\n      tag_867\n      jumpi\n        /* \"#utility.yul\":34864:34882   */\n      tag_868\n      tag_869\n      jump\t// in\n    tag_868:\n        /* \"#utility.yul\":34808:34892   */\n    tag_867:\n        /* \"#utility.yul\":34629:34898   */\n      pop\n        /* \"#utility.yul\":34578:34898   */\n      swap2\n      swap1\n      pop\n      jump\t// out\n        /* \"#utility.yul\":34904:35185   */\n    tag_816:\n        /* \"#utility.yul\":34987:35014   */\n      tag_871\n        /* \"#utility.yul\":35009:35013   */\n      dup3\n        /* \"#utility.yul\":34987:35014   */\n      tag_601\n      jump\t// in\n    tag_871:\n        /* \"#utility.yul\":34979:34985   */\n      dup2\n        /* \"#utility.yul\":34975:35015   */\n      add\n        /* \"#utility.yul\":35117:35123   */\n      dup2\n        /* \"#utility.yul\":35105:35115   */\n      dup2\n        /* \"#utility.yul\":35102:35124   */\n      lt\n        /* \"#utility.yul\":35081:35099   */\n      0xffffffffffffffff\n        /* \"#utility.yul\":35069:35079   */\n      dup3\n        /* \"#utility.yul\":35066:35100   */\n      gt\n        /* \"#utility.yul\":35063:35125   */\n      or\n        /* \"#utility.yul\":35060:35148   */\n      iszero\n      tag_872\n      jumpi\n        /* \"#utility.yul\":35128:35146   */\n      tag_873\n      tag_821\n      jump\t// in\n    tag_873:\n        /* \"#utility.yul\":35060:35148   */\n    tag_872:\n        /* \"#utility.yul\":35168:35178   */\n      dup1\n        /* \"#utility.yul\":35164:35166   */\n      0x40\n        /* \"#utility.yul\":35157:35179   */\n      mstore\n        /* \"#utility.yul\":34947:35185   */\n      pop\n        /* \"#utility.yul\":34904:35185   */\n      pop\n      pop\n      jump\t// out\n        /* \"#utility.yul\":35191:35424   */\n    tag_266:\n        /* \"#utility.yul\":35230:35233   */\n      0x00\n        /* \"#utility.yul\":35253:35277   */\n      tag_875\n        /* \"#utility.yul\":35271:35276   */\n      dup3\n        /* \"#utility.yul\":35253:35277   */\n      tag_713\n      jump\t// in\n    tag_875:\n        /* \"#utility.yul\":35244:35277   */\n      swap2\n      pop\n        /* \"#utility.yul\":35299:35365   */\n      0xffffffffffffffffffffffffffffffffffffffffffffffffffffffffffffffff\n        /* \"#utility.yul\":35292:35297   */\n      dup3\n        /* \"#utility.yul\":35289:35366   */\n      eq\n        /* \"#utility.yul\":35286:35389   */\n      iszero\n      tag_876\n      jumpi\n        /* \"#utility.yul\":35369:35387   */\n      tag_877\n      tag_832\n      jump\t// in\n    tag_877:\n        /* \"#utility.yul\":35286:35389   */\n    tag_876:\n        /* \"#utility.yul\":35416:35417   */\n      0x01\n        /* \"#utility.yul\":35409:35414   */\n      dup3\n        /* \"#utility.yul\":35405:35418   */\n      add\n        /* \"#utility.yul\":35398:35418   */\n      swap1\n      pop\n        /* \"#utility.yul\":35191:35424   */\n      swap2\n      swap1\n      pop\n      jump\t// out\n        /* \"#utility.yul\":35430:35610   */\n    tag_832:\n        /* \"#utility.yul\":35478:35555   */\n      0x4e487b7100000000000000000000000000000000000000000000000000000000\n        /* \"#utility.yul\":35475:35476   */\n      0x00\n        /* \"#utility.yul\":35468:35556   */\n      mstore\n        /* \"#utility.yul\":35575:35579   */\n      0x11\n        /* \"#utility.yul\":35572:35573   */\n      0x04\n        /* \"#utility.yul\":35565:35580   */\n      mstore\n        /* \"#utility.yul\":35599:35603   */\n      0x24\n        /* \"#utility.yul\":35596:35597   */\n      0x00\n        /* \"#utility.yul\":35589:35604   */\n      revert\n        /* \"#utility.yul\":35616:35796   */\n    tag_838:\n        /* \"#utility.yul\":35664:35741   */\n      0x4e487b7100000000000000000000000000000000000000000000000000000000\n        /* \"#utility.yul\":35661:35662   */\n      0x00\n        /* \"#utility.yul\":35654:35742   */\n      mstore\n        /* \"#utility.yul\":35761:35765   */\n      0x12\n        /* \"#utility.yul\":35758:35759   */\n      0x04\n        /* \"#utility.yul\":35751:35766   */\n      mstore\n        /* \"#utility.yul\":35785:35789   */\n      0x24\n        /* \"#utility.yul\":35782:35783   */\n      0x00\n        /* \"#utility.yul\":35775:35790   */\n      revert\n        /* \"#utility.yul\":35802:35982   */\n    tag_869:\n        /* \"#utility.yul\":35850:35927   */\n      0x4e487b7100000000000000000000000000000000000000000000000000000000\n        /* \"#utility.yul\":35847:35848   */\n      0x00\n        /* \"#utility.yul\":35840:35928   */\n      mstore\n        /* \"#utility.yul\":35947:35951   */\n      0x22\n        /* \"#utility.yul\":35944:35945   */\n      0x04\n        /* \"#utility.yul\":35937:35952   */\n      mstore\n        /* \"#utility.yul\":35971:35975   */\n      0x24\n        /* \"#utility.yul\":35968:35969   */\n      0x00\n        /* \"#utility.yul\":35961:35976   */\n      revert\n        /* \"#utility.yul\":35988:36168   */\n    tag_821:\n        /* \"#utility.yul\":36036:36113   */\n      0x4e487b7100000000000000000000000000000000000000000000000000000000\n        /* \"#utility.yul\":36033:36034   */\n      0x00\n        /* \"#utility.yul\":36026:36114   */\n      mstore\n        /* \"#utility.yul\":36133:36137   */\n      0x41\n        /* \"#utility.yul\":36130:36131   */\n      0x04\n        /* \"#utility.yul\":36123:36138   */\n      mstore\n        /* \"#utility.yul\":36157:36161   */\n      0x24\n        /* \"#utility.yul\":36154:36155   */\n      0x00\n        /* \"#utility.yul\":36147:36162   */\n      revert\n        /* \"#utility.yul\":36174:36291   */\n    tag_505:\n        /* \"#utility.yul\":36283:36284   */\n      0x00\n        /* \"#utility.yul\":36280:36281   */\n      dup1\n        /* \"#utility.yul\":36273:36285   */\n      revert\n        /* \"#utility.yul\":36297:36414   */\n    tag_483:\n        /* \"#utility.yul\":36406:36407   */\n      0x00\n        /* \"#utility.yul\":36403:36404   */\n      dup1\n        /* \"#utility.yul\":36396:36408   */\n      revert\n        /* \"#utility.yul\":36420:36537   */\n    tag_541:\n        /* \"#utility.yul\":36529:36530   */\n      0x00\n        /* \"#utility.yul\":36526:36527   */\n      dup1\n        /* \"#utility.yul\":36519:36531   */\n      revert\n        /* \"#utility.yul\":36543:36660   */\n    tag_521:\n        /* \"#utility.yul\":36652:36653   */\n      0x00\n        /* \"#utility.yul\":36649:36650   */\n      dup1\n        /* \"#utility.yul\":36642:36654   */\n      revert\n        /* \"#utility.yul\":36666:36768   */\n    tag_601:\n        /* \"#utility.yul\":36707:36713   */\n      0x00\n        /* \"#utility.yul\":36758:36760   */\n      0x1f\n        /* \"#utility.yul\":36754:36761   */\n      not\n        /* \"#utility.yul\":36749:36751   */\n      0x1f\n        /* \"#utility.yul\":36742:36747   */\n      dup4\n        /* \"#utility.yul\":36738:36752   */\n      add\n        /* \"#utility.yul\":36734:36762   */\n      and\n        /* \"#utility.yul\":36724:36762   */\n      swap1\n      pop\n        /* \"#utility.yul\":36666:36768   */\n      swap2\n      swap1\n      pop\n      jump\t// out\n        /* \"#utility.yul\":36774:36996   */\n    tag_618:\n        /* \"#utility.yul\":36914:36948   */\n      0x4974656d206e6f7420666f722073616c65206f7220646f65736e277420657869\n        /* \"#utility.yul\":36910:36911   */\n      0x00\n        /* \"#utility.yul\":36902:36908   */\n      dup3\n        /* \"#utility.yul\":36898:36912   */\n      add\n        /* \"#utility.yul\":36891:36949   */\n      mstore\n        /* \"#utility.yul\":36983:36988   */\n      0x73742e0000000000000000000000000000000000000000000000000000000000\n        /* \"#utility.yul\":36978:36980   */\n      0x20\n        /* \"#utility.yul\":36970:36976   */\n      dup3\n        /* \"#utility.yul\":36966:36981   */\n      add\n        /* \"#utility.yul\":36959:36989   */\n      mstore\n        /* \"#utility.yul\":36774:36996   */\n      pop\n      jump\t// out\n        /* \"#utility.yul\":37002:37172   */\n    tag_623:\n        /* \"#utility.yul\":37142:37164   */\n      0x4661696c656420746f2053656e64204574686572000000000000000000000000\n        /* \"#utility.yul\":37138:37139   */\n      0x00\n        /* \"#utility.yul\":37130:37136   */\n      dup3\n        /* \"#utility.yul\":37126:37140   */\n      add\n        /* \"#utility.yul\":37119:37165   */\n      mstore\n        /* \"#utility.yul\":37002:37172   */\n      pop\n      jump\t// out\n        /* \"#utility.yul\":37178:37407   */\n    tag_628:\n        /* \"#utility.yul\":37318:37352   */\n      0x446973707574652069736e2774206c697665206f7220697320616c7265616479\n        /* \"#utility.yul\":37314:37315   */\n      0x00\n        /* \"#utility.yul\":37306:37312   */\n      dup3\n        /* \"#utility.yul\":37302:37316   */\n      add\n        /* \"#utility.yul\":37295:37353   */\n      mstore\n        /* \"#utility.yul\":37387:37399   */\n      0x207265736f6c7665642e00000000000000000000000000000000000000000000\n        /* \"#utility.yul\":37382:37384   */\n      0x20\n        /* \"#utility.yul\":37374:37380   */\n      dup3\n        /* \"#utility.yul\":37370:37385   */\n      add\n        /* \"#utility.yul\":37363:37400   */\n      mstore\n        /* \"#utility.yul\":37178:37407   */\n      pop\n      jump\t// out\n        /* \"#utility.yul\":37413:37637   */\n    tag_633:\n        /* \"#utility.yul\":37553:37587   */\n      0x4f6e6c792044414f20616464726573732063616e207265736f6c766520646973\n        /* \"#utility.yul\":37549:37550   */\n      0x00\n        /* \"#utility.yul\":37541:37547   */\n      dup3\n        /* \"#utility.yul\":37537:37551   */\n      add\n        /* \"#utility.yul\":37530:37588   */\n      mstore\n        /* \"#utility.yul\":37622:37629   */\n      0x7075746573000000000000000000000000000000000000000000000000000000\n        /* \"#utility.yul\":37617:37619   */\n      0x20\n        /* \"#utility.yul\":37609:37615   */\n      dup3\n        /* \"#utility.yul\":37605:37620   */\n      add\n        /* \"#utility.yul\":37598:37630   */\n      mstore\n        /* \"#utility.yul\":37413:37637   */\n      pop\n      jump\t// out\n        /* \"#utility.yul\":37643:37822   */\n    tag_638:\n        /* \"#utility.yul\":37783:37814   */\n      0x4f6e6c79207461736b732063616e2072656365697665206f6666657273000000\n        /* \"#utility.yul\":37779:37780   */\n      0x00\n        /* \"#utility.yul\":37771:37777   */\n      dup3\n        /* \"#utility.yul\":37767:37781   */\n      add\n        /* \"#utility.yul\":37760:37815   */\n      mstore\n        /* \"#utility.yul\":37643:37822   */\n      pop\n      jump\t// out\n        /* \"#utility.yul\":37828:37999   */\n    tag_643:\n        /* \"#utility.yul\":37968:37991   */\n      0x42757965722063616e6e6f74206265206f776e65720000000000000000000000\n        /* \"#utility.yul\":37964:37965   */\n      0x00\n        /* \"#utility.yul\":37956:37962   */\n      dup3\n        /* \"#utility.yul\":37952:37966   */\n      add\n        /* \"#utility.yul\":37945:37992   */\n      mstore\n        /* \"#utility.yul\":37828:37999   */\n      pop\n      jump\t// out\n        /* \"#utility.yul\":38005:38177   */\n    tag_648:\n        /* \"#utility.yul\":38145:38169   */\n      0x4f6e6c792073656c6c65722063616e2063616e63656c00000000000000000000\n        /* \"#utility.yul\":38141:38142   */\n      0x00\n        /* \"#utility.yul\":38133:38139   */\n      dup3\n        /* \"#utility.yul\":38129:38143   */\n      add\n        /* \"#utility.yul\":38122:38170   */\n      mstore\n        /* \"#utility.yul\":38005:38177   */\n      pop\n      jump\t// out\n        /* \"#utility.yul\":38183:38351   */\n    tag_653:\n        /* \"#utility.yul\":38323:38343   */\n      0x4f726465722069736e2774206163746976650000000000000000000000000000\n        /* \"#utility.yul\":38319:38320   */\n      0x00\n        /* \"#utility.yul\":38311:38317   */\n      dup3\n        /* \"#utility.yul\":38307:38321   */\n      add\n        /* \"#utility.yul\":38300:38344   */\n      mstore\n        /* \"#utility.yul\":38183:38351   */\n      pop\n      jump\t// out\n        /* \"#utility.yul\":38357:38531   */\n    tag_658:\n        /* \"#utility.yul\":38497:38523   */\n      0x4f6e6c79206974656d206f776e65722063616e20656469740000000000000000\n        /* \"#utility.yul\":38493:38494   */\n      0x00\n        /* \"#utility.yul\":38485:38491   */\n      dup3\n        /* \"#utility.yul\":38481:38495   */\n      add\n        /* \"#utility.yul\":38474:38524   */\n      mstore\n        /* \"#utility.yul\":38357:38531   */\n      pop\n      jump\t// out\n        /* \"#utility.yul\":38537:38761   */\n    tag_663:\n        /* \"#utility.yul\":38677:38711   */\n      0x4e6f7420617574686f72697a65642e204275796572206f722053656c6c657220\n        /* \"#utility.yul\":38673:38674   */\n      0x00\n        /* \"#utility.yul\":38665:38671   */\n      dup3\n        /* \"#utility.yul\":38661:38675   */\n      add\n        /* \"#utility.yul\":38654:38712   */\n      mstore\n        /* \"#utility.yul\":38746:38753   */\n      0x6f6e6c792e000000000000000000000000000000000000000000000000000000\n        /* \"#utility.yul\":38741:38743   */\n      0x20\n        /* \"#utility.yul\":38733:38739   */\n      dup3\n        /* \"#utility.yul\":38729:38744   */\n      add\n        /* \"#utility.yul\":38722:38754   */\n      mstore\n        /* \"#utility.yul\":38537:38761   */\n      pop\n      jump\t// out\n        /* \"#utility.yul\":38767:38930   */\n    tag_668:\n        /* \"#utility.yul\":38907:38922   */\n      0x4e6f7420617661696c61626c6500000000000000000000000000000000000000\n        /* \"#utility.yul\":38903:38904   */\n      0x00\n        /* \"#utility.yul\":38895:38901   */\n      dup3\n        /* \"#utility.yul\":38891:38905   */\n      add\n        /* \"#utility.yul\":38884:38923   */\n      mstore\n        /* \"#utility.yul\":38767:38930   */\n      pop\n      jump\t// out\n        /* \"#utility.yul\":38936:39050   */\n    tag_674:\n      pop\n      jump\t// out\n        /* \"#utility.yul\":39056:39290   */\n    tag_679:\n        /* \"#utility.yul\":39196:39230   */\n      0x43616e206f6e6c7920616363657074206f66666572732066726f6d20776f726b\n        /* \"#utility.yul\":39192:39193   */\n      0x00\n        /* \"#utility.yul\":39184:39190   */\n      dup3\n        /* \"#utility.yul\":39180:39194   */\n      add\n        /* \"#utility.yul\":39173:39231   */\n      mstore\n        /* \"#utility.yul\":39265:39282   */\n      0x6572732077686f206f6666657265640000000000000000000000000000000000\n        /* \"#utility.yul\":39260:39262   */\n      0x20\n        /* \"#utility.yul\":39252:39258   */\n      dup3\n        /* \"#utility.yul\":39248:39263   */\n      add\n        /* \"#utility.yul\":39241:39283   */\n      mstore\n        /* \"#utility.yul\":39056:39290   */\n      pop\n      jump\t// out\n        /* \"#utility.yul\":39296:39464   */\n    tag_684:\n        /* \"#utility.yul\":39436:39456   */\n      0x446973707574652069736e2774206c6976650000000000000000000000000000\n        /* \"#utility.yul\":39432:39433   */\n      0x00\n        /* \"#utility.yul\":39424:39430   */\n      dup3\n        /* \"#utility.yul\":39420:39434   */\n      add\n        /* \"#utility.yul\":39413:39457   */\n      mstore\n        /* \"#utility.yul\":39296:39464   */\n      pop\n      jump\t// out\n        /* \"#utility.yul\":39470:39652   */\n    tag_689:\n        /* \"#utility.yul\":39610:39644   */\n      0x4f6e6c79206974656d206f776e65722063616e20616363657074206f66666572\n        /* \"#utility.yul\":39606:39607   */\n      0x00\n        /* \"#utility.yul\":39598:39604   */\n      dup3\n        /* \"#utility.yul\":39594:39608   */\n      add\n        /* \"#utility.yul\":39587:39645   */\n      mstore\n        /* \"#utility.yul\":39470:39652   */\n      pop\n      jump\t// out\n        /* \"#utility.yul\":39658:39883   */\n    tag_694:\n        /* \"#utility.yul\":39798:39832   */\n      0x4f6e6c7920636f6d70616e792063616e20757064617465207265776172647320\n        /* \"#utility.yul\":39794:39795   */\n      0x00\n        /* \"#utility.yul\":39786:39792   */\n      dup3\n        /* \"#utility.yul\":39782:39796   */\n      add\n        /* \"#utility.yul\":39775:39833   */\n      mstore\n        /* \"#utility.yul\":39867:39875   */\n      0x7374617475730000000000000000000000000000000000000000000000000000\n        /* \"#utility.yul\":39862:39864   */\n      0x20\n        /* \"#utility.yul\":39854:39860   */\n      dup3\n        /* \"#utility.yul\":39850:39865   */\n      add\n        /* \"#utility.yul\":39843:39876   */\n      mstore\n        /* \"#utility.yul\":39658:39883   */\n      pop\n      jump\t// out\n        /* \"#utility.yul\":39889:40062   */\n    tag_699:\n        /* \"#utility.yul\":40029:40054   */\n      0x5573657220616c7265616479206d616465206f66666572000000000000000000\n        /* \"#utility.yul\":40025:40026   */\n      0x00\n        /* \"#utility.yul\":40017:40023   */\n      dup3\n        /* \"#utility.yul\":40013:40027   */\n      add\n        /* \"#utility.yul\":40006:40055   */\n      mstore\n        /* \"#utility.yul\":39889:40062   */\n      pop\n      jump\t// out\n        /* \"#utility.yul\":40068:40249   */\n    tag_704:\n        /* \"#utility.yul\":40208:40241   */\n      0x4f6e6c7920636f6d70616e792063616e206368616e6765206164647265737300\n        /* \"#utility.yul\":40204:40205   */\n      0x00\n        /* \"#utility.yul\":40196:40202   */\n      dup3\n        /* \"#utility.yul\":40192:40206   */\n      add\n        /* \"#utility.yul\":40185:40242   */\n      mstore\n        /* \"#utility.yul\":40068:40249   */\n      pop\n      jump\t// out\n        /* \"#utility.yul\":40255:40435   */\n    tag_709:\n        /* \"#utility.yul\":40395:40427   */\n      0x416d6f756e742070616964206973206c657373207468616e20746f74616c0000\n        /* \"#utility.yul\":40391:40392   */\n      0x00\n        /* \"#utility.yul\":40383:40389   */\n      dup3\n        /* \"#utility.yul\":40379:40393   */\n      add\n        /* \"#utility.yul\":40372:40428   */\n      mstore\n        /* \"#utility.yul\":40255:40435   */\n      pop\n      jump\t// out\n        /* \"#utility.yul\":40441:40563   */\n    tag_489:\n        /* \"#utility.yul\":40514:40538   */\n      tag_907\n        /* \"#utility.yul\":40532:40537   */\n      dup2\n        /* \"#utility.yul\":40514:40538   */\n      tag_583\n      jump\t// in\n    tag_907:\n        /* \"#utility.yul\":40507:40512   */\n      dup2\n        /* \"#utility.yul\":40504:40539   */\n      eq\n        /* \"#utility.yul\":40494:40557   */\n      tag_908\n      jumpi\n        /* \"#utility.yul\":40553:40554   */\n      0x00\n        /* \"#utility.yul\":40550:40551   */\n      dup1\n        /* \"#utility.yul\":40543:40555   */\n      revert\n        /* \"#utility.yul\":40494:40557   */\n    tag_908:\n        /* \"#utility.yul\":40441:40563   */\n      pop\n      jump\t// out\n        /* \"#utility.yul\":40569:40685   */\n    tag_493:\n        /* \"#utility.yul\":40639:40660   */\n      tag_910\n        /* \"#utility.yul\":40654:40659   */\n      dup2\n        /* \"#utility.yul\":40639:40660   */\n      tag_587\n      jump\t// in\n    tag_910:\n        /* \"#utility.yul\":40632:40637   */\n      dup2\n        /* \"#utility.yul\":40629:40661   */\n      eq\n        /* \"#utility.yul\":40619:40679   */\n      tag_911\n      jumpi\n        /* \"#utility.yul\":40675:40676   */\n      0x00\n        /* \"#utility.yul\":40672:40673   */\n      dup1\n        /* \"#utility.yul\":40665:40677   */\n      revert\n        /* \"#utility.yul\":40619:40679   */\n    tag_911:\n        /* \"#utility.yul\":40569:40685   */\n      pop\n      jump\t// out\n        /* \"#utility.yul\":40691:40811   */\n    tag_500:\n        /* \"#utility.yul\":40763:40786   */\n      tag_913\n        /* \"#utility.yul\":40780:40785   */\n      dup2\n        /* \"#utility.yul\":40763:40786   */\n      tag_591\n      jump\t// in\n    tag_913:\n        /* \"#utility.yul\":40756:40761   */\n      dup2\n        /* \"#utility.yul\":40753:40787   */\n      eq\n        /* \"#utility.yul\":40743:40805   */\n      tag_914\n      jumpi\n        /* \"#utility.yul\":40801:40802   */\n      0x00\n        /* \"#utility.yul\":40798:40799   */\n      dup1\n        /* \"#utility.yul\":40791:40803   */\n      revert\n        /* \"#utility.yul\":40743:40805   */\n    tag_914:\n        /* \"#utility.yul\":40691:40811   */\n      pop\n      jump\t// out\n        /* \"#utility.yul\":40817:40939   */\n    tag_510:\n        /* \"#utility.yul\":40890:40914   */\n      tag_916\n        /* \"#utility.yul\":40908:40913   */\n      dup2\n        /* \"#utility.yul\":40890:40914   */\n      tag_713\n      jump\t// in\n    tag_916:\n        /* \"#utility.yul\":40883:40888   */\n      dup2\n        /* \"#utility.yul\":40880:40915   */\n      eq\n        /* \"#utility.yul\":40870:40933   */\n      tag_917\n      jumpi\n        /* \"#utility.yul\":40929:40930   */\n      0x00\n        /* \"#utility.yul\":40926:40927   */\n      dup1\n        /* \"#utility.yul\":40919:40931   */\n      revert\n        /* \"#utility.yul\":40870:40933   */\n    tag_917:\n        /* \"#utility.yul\":40817:40939   */\n      pop\n      jump\t// out\n        /* \"#utility.yul\":40945:41065   */\n    tag_517:\n        /* \"#utility.yul\":41017:41040   */\n      tag_919\n        /* \"#utility.yul\":41034:41039   */\n      dup2\n        /* \"#utility.yul\":41017:41040   */\n      tag_857\n      jump\t// in\n    tag_919:\n        /* \"#utility.yul\":41010:41015   */\n      dup2\n        /* \"#utility.yul\":41007:41041   */\n      eq\n        /* \"#utility.yul\":40997:41059   */\n      tag_920\n      jumpi\n        /* \"#utility.yul\":41055:41056   */\n      0x00\n        /* \"#utility.yul\":41052:41053   */\n      dup1\n        /* \"#utility.yul\":41045:41057   */\n      revert\n        /* \"#utility.yul\":40997:41059   */\n    tag_920:\n        /* \"#utility.yul\":40945:41065   */\n      pop\n      jump\t// out\n\n    auxdata: 0xa264697066735822122064d1e6b1d623f21db9e0e24f7a85520c7632c1a3737331d3d1fd332a9fb1800764736f6c63430008070033\n}\n",
				"bytecode": {
					"linkReferences": {},
					"object": "60806040523480156200001157600080fd5b50604051620056e1380380620056e18339818101604052810190620000379190620001b3565b60fa6002819055506000600a81905550670de0b6b3a7640000600781905550670de0b6b3a7640000600881905550670de0b6b3a764000060098190555033600360006101000a81548173ffffffffffffffffffffffffffffffffffffffff021916908373ffffffffffffffffffffffffffffffffffffffff1602179055506001600b60006101000a81548160ff02191690831515021790555082600460006101000a81548173ffffffffffffffffffffffffffffffffffffffff021916908373ffffffffffffffffffffffffffffffffffffffff16021790555081600560006101000a81548173ffffffffffffffffffffffffffffffffffffffff021916908373ffffffffffffffffffffffffffffffffffffffff16021790555080600660006101000a81548173ffffffffffffffffffffffffffffffffffffffff021916908373ffffffffffffffffffffffffffffffffffffffff16021790555050505062000262565b600081519050620001ad8162000248565b92915050565b600080600060608486031215620001cf57620001ce62000243565b5b6000620001df868287016200019c565b9350506020620001f2868287016200019c565b925050604062000205868287016200019c565b9150509250925092565b60006200021c8262000223565b9050919050565b600073ffffffffffffffffffffffffffffffffffffffff82169050919050565b600080fd5b62000253816200020f565b81146200025f57600080fd5b50565b61546f80620002726000396000f3fe6080604052600436106101f95760003560e01c8063741bef1a1161010d578063a0e50ca6116100a0578063d0e7a5cb1161006f578063d0e7a5cb1461075c578063d96a094a14610785578063e039bec7146107b5578063f851a440146107e0578063fd2e997e1461080b576101f9565b8063a0e50ca6146106a2578063af0d467b146106df578063c0eb4e7d14610708578063c0f0f73f14610731576101f9565b806386d6282c116100dc57806386d6282c146105f55780638e15f4731461061e578063918d407d14610649578063971d852f14610679576101f9565b8063741bef1a1461053b578063761610fc1461056657806382c35bfa1461058f57806383219a8a146105cc576101f9565b80632ffbb67811610190578063542826321161015f57806354282632146104355780636a166964146104605780636ab34a4a1461048b5780636bfb0d01146104d35780636c914501146104fe576101f9565b80632ffbb6781461037b57806334650412146103a457806340e58ee5146103e15780634162169f1461040a576101f9565b806322a5aebf116101cc57806322a5aebf146102d15780632453ffa8146102fc57806324ec7590146103275780632ab29df714610352576101f9565b8063101e1940146101fe578063166323021461023e5780631885f580146102675780631c8e896214610292575b600080fd5b34801561020a57600080fd5b5061022560048036038101906102209190614130565b61084d565b6040516102359493929190614720565b60405180910390f35b34801561024a57600080fd5b50610265600480360381019061026091906141dd565b61099a565b005b34801561027357600080fd5b5061027c610c82565b60405161028991906149b3565b60405180910390f35b34801561029e57600080fd5b506102b960048036038101906102b49190613fe6565b610c88565b6040516102c893929190614aab565b60405180910390f35b3480156102dd57600080fd5b506102e6610cb2565b6040516102f391906146a6565b60405180910390f35b34801561030857600080fd5b50610311610cd8565b60405161031e91906149b3565b60405180910390f35b34801561033357600080fd5b5061033c610cde565b60405161034991906149b3565b60405180910390f35b34801561035e57600080fd5b506103796004803603810190610374919061415d565b610ce4565b005b34801561038757600080fd5b506103a2600480360381019061039d9190614053565b610eb3565b005b3480156103b057600080fd5b506103cb60048036038101906103c69190614013565b610f60565b6040516103d891906146ea565b60405180910390f35b3480156103ed57600080fd5b5061040860048036038101906104039190614130565b610f8f565b005b34801561041657600080fd5b5061041f61130e565b60405161042c91906146a6565b60405180910390f35b34801561044157600080fd5b5061044a611334565b60405161045791906149b3565b60405180910390f35b34801561046c57600080fd5b5061047561133a565b60405161048291906149b3565b60405180910390f35b34801561049757600080fd5b506104b260048036038101906104ad9190614130565b611340565b6040516104ca9c9b9a99989796959493929190614b58565b60405180910390f35b3480156104df57600080fd5b506104e8611407565b6040516104f591906149b3565b60405180910390f35b34801561050a57600080fd5b50610525600480360381019061052091906140ad565b61140d565b60405161053291906149b3565b60405180910390f35b34801561054757600080fd5b506105506115ba565b60405161055d91906146a6565b60405180910390f35b34801561057257600080fd5b5061058d60048036038101906105889190614130565b6115e0565b005b34801561059b57600080fd5b506105b660048036038101906105b19190614013565b611891565b6040516105c391906146ea565b60405180910390f35b3480156105d857600080fd5b506105f360048036038101906105ee91906141dd565b6118c0565b005b34801561060157600080fd5b5061061c60048036038101906106179190614130565b6119ca565b005b34801561062a57600080fd5b50610633611cae565b6040516106409190614705565b60405180910390f35b610663600480360381019061065e919061415d565b611d5e565b60405161067091906149b3565b60405180910390f35b34801561068557600080fd5b506106a0600480360381019061069b9190614130565b6122f8565b005b3480156106ae57600080fd5b506106c960048036038101906106c49190614239565b612cf1565b6040516106d691906146ea565b60405180910390f35b3480156106eb57600080fd5b506107066004803603810190610701919061415d565b612d7e565b005b34801561071457600080fd5b5061072f600480360381019061072a919061419d565b613391565b005b34801561073d57600080fd5b5061074661349e565b60405161075391906149b3565b60405180910390f35b34801561076857600080fd5b50610783600480360381019061077e9190614239565b6134a4565b005b61079f600480360381019061079a9190614130565b61359e565b6040516107ac91906149b3565b60405180910390f35b3480156107c157600080fd5b506107ca613b34565b6040516107d791906146ea565b60405180910390f35b3480156107ec57600080fd5b506107f5613b47565b60405161080291906146a6565b60405180910390f35b34801561081757600080fd5b50610832600480360381019061082d9190614130565b613b6d565b60405161084496959493929190614a43565b60405180910390f35b600f60205280600052604060002060009150905080600001805461087090614e70565b80601f016020809104026020016040519081016040528092919081815260200182805461089c90614e70565b80156108e95780601f106108be576101008083540402835291602001916108e9565b820191906000526020600020905b8154815290600101906020018083116108cc57829003601f168201915b5050505050908060010180546108fe90614e70565b80601f016020809104026020016040519081016040528092919081815260200182805461092a90614e70565b80156109775780601f1061094c57610100808354040283529160200191610977565b820191906000526020600020905b81548152906001019060200180831161095a57829003601f168201915b5050505050908060020154908060030160009054906101000a900460ff16905084565b813373ffffffffffffffffffffffffffffffffffffffff16600d600083815260200190815260200160002060070160039054906101000a900473ffffffffffffffffffffffffffffffffffffffff1673ffffffffffffffffffffffffffffffffffffffff161480610a6c57503373ffffffffffffffffffffffffffffffffffffffff16600d600083815260200190815260200160002060080160009054906101000a900473ffffffffffffffffffffffffffffffffffffffff1673ffffffffffffffffffffffffffffffffffffffff16145b610aab576040517f08c379a0000000000000000000000000000000000000000000000000000000008152600401610aa290614893565b60405180910390fd5b60011515600f600085815260200190815260200160002060030160009054906101000a900460ff16151514610b15576040517f08c379a0000000000000000000000000000000000000000000000000000000008152600401610b0c906148f3565b60405180910390fd5b600d600084815260200190815260200160002060070160039054906101000a900473ffffffffffffffffffffffffffffffffffffffff1673ffffffffffffffffffffffffffffffffffffffff163373ffffffffffffffffffffffffffffffffffffffff161415610baf5781600f60008581526020019081526020016000206000019080519060200190610ba9929190613d33565b50610c46565b600d600084815260200190815260200160002060080160009054906101000a900473ffffffffffffffffffffffffffffffffffffffff1673ffffffffffffffffffffffffffffffffffffffff163373ffffffffffffffffffffffffffffffffffffffff161415610c455781600f60008581526020019081526020016000206001019080519060200190610c43929190613d33565b505b5b7f29a00cd7b143153a043355a38ed7fa14305cd81468035c2e2e389897f38980d883604051610c7591906149b3565b60405180910390a1505050565b60095481565b60106020528060005260406000206000915090508060000154908060010154908060020154905083565b600560009054906101000a900473ffffffffffffffffffffffffffffffffffffffff1681565b60005481565b600a5481565b600360009054906101000a900473ffffffffffffffffffffffffffffffffffffffff1673ffffffffffffffffffffffffffffffffffffffff163373ffffffffffffffffffffffffffffffffffffffff1614610d74576040517f08c379a0000000000000000000000000000000000000000000000000000000008152600401610d6b90614973565b60405180910390fd5b6000821415610dc35780600460006101000a81548173ffffffffffffffffffffffffffffffffffffffff021916908373ffffffffffffffffffffffffffffffffffffffff160217905550610eaf565b6001821415610e125780600360006101000a81548173ffffffffffffffffffffffffffffffffffffffff021916908373ffffffffffffffffffffffffffffffffffffffff160217905550610eae565b6002821415610e615780600560006101000a81548173ffffffffffffffffffffffffffffffffffffffff021916908373ffffffffffffffffffffffffffffffffffffffff160217905550610ead565b6003821415610eac5780600660006101000a81548173ffffffffffffffffffffffffffffffffffffffff021916908373ffffffffffffffffffffffffffffffffffffffff1602179055505b5b5b5b5050565b600360009054906101000a900473ffffffffffffffffffffffffffffffffffffffff1673ffffffffffffffffffffffffffffffffffffffff163373ffffffffffffffffffffffffffffffffffffffff1614610f43576040517f08c379a0000000000000000000000000000000000000000000000000000000008152600401610f3a90614933565b60405180910390fd5b80600b60006101000a81548160ff02191690831515021790555050565b600e6020528160005260406000206020528060005260406000206000915091509054906101000a900460ff1681565b600d600082815260200190815260200160002060080160009054906101000a900473ffffffffffffffffffffffffffffffffffffffff1673ffffffffffffffffffffffffffffffffffffffff163373ffffffffffffffffffffffffffffffffffffffff1614611033576040517f08c379a000000000000000000000000000000000000000000000000000000000815260040161102a90614833565b60405180910390fd5b60011515600d600083815260200190815260200160002060070160029054906101000a900460ff1615151461109d576040517f08c379a000000000000000000000000000000000000000000000000000000000815260040161109490614853565b60405180910390fd5b6002600d600083815260200190815260200160002060070160016101000a81548160ff021916908360ff1602179055506002600d600083815260200190815260200160002060070160006101000a81548160ff021916908360ff1602179055506000600d600083815260200190815260200160002060070160026101000a81548160ff021916908315150217905550600160106000600d600085815260200190815260200160002060080160009054906101000a900473ffffffffffffffffffffffffffffffffffffffff1673ffffffffffffffffffffffffffffffffffffffff1673ffffffffffffffffffffffffffffffffffffffff16815260200190815260200160002060000160008282546111b59190614ca4565b92505081905550600080600d600084815260200190815260200160002060070160039054906101000a900473ffffffffffffffffffffffffffffffffffffffff1673ffffffffffffffffffffffffffffffffffffffff16600d60008581526020019081526020016000206002015460405161122f90614691565b60006040518083038185875af1925050503d806000811461126c576040519150601f19603f3d011682016040523d82523d6000602084013e611271565b606091505b5091509150816112b6576040517f08c379a00000000000000000000000000000000000000000000000000000000081526004016112ad90614793565b60405180910390fd5b6000600d6000858152602001908152602001600020600401819055507fb8b459bc0688c37baf5f735d17f1711684bc14ab7db116f88bc18bf409b9309a8360405161130191906149b3565b60405180910390a1505050565b600460009054906101000a900473ffffffffffffffffffffffffffffffffffffffff1681565b60085481565b60025481565b600d6020528060005260406000206000915090508060000154908060010154908060020154908060030154908060040154908060050154908060060154908060070160009054906101000a900460ff16908060070160019054906101000a900460ff16908060070160029054906101000a900460ff16908060070160039054906101000a900473ffffffffffffffffffffffffffffffffffffffff16908060080160009054906101000a900473ffffffffffffffffffffffffffffffffffffffff1690508c565b60015481565b60006001600081548092919061142290614ed3565b919050555061142f613db9565b600154816000018181525050858160200181905250848160400190151590811515815250508381606001818152505033816080019073ffffffffffffffffffffffffffffffffffffffff16908173ffffffffffffffffffffffffffffffffffffffff1681525050828160a001818152505080600c6000836000015181526020019081526020016000206000820151816000015560208201518160010190805190602001906114de929190613d33565b5060408201518160020160006101000a81548160ff0219169083151502179055506060820151816003015560808201518160040160006101000a81548173ffffffffffffffffffffffffffffffffffffffff021916908373ffffffffffffffffffffffffffffffffffffffff16021790555060a082015181600501559050507f1603f20f721362b0691bb408edb3cf01409cd56da9edd4627b178750b7dd49a88160000151826080015183602001518460a001516040516115a294939291906149f7565b60405180910390a18060000151915050949350505050565b600660009054906101000a900473ffffffffffffffffffffffffffffffffffffffff1681565b60011515600c600083815260200190815260200160002060020160009054906101000a900460ff1615151461164a576040517f08c379a0000000000000000000000000000000000000000000000000000000008152600401611641906148b3565b60405180910390fd5b60001515600e60003373ffffffffffffffffffffffffffffffffffffffff1673ffffffffffffffffffffffffffffffffffffffff168152602001908152602001600020600083815260200190815260200160002060009054906101000a900460ff161515146116ee576040517f08c379a00000000000000000000000000000000000000000000000000000000081526004016116e590614953565b60405180910390fd5b6001600c60008381526020019081526020016000206005015414611747576040517f08c379a000000000000000000000000000000000000000000000000000000000815260040161173e906147f3565b60405180910390fd5b600c600082815260200190815260200160002060040160009054906101000a900473ffffffffffffffffffffffffffffffffffffffff1673ffffffffffffffffffffffffffffffffffffffff163373ffffffffffffffffffffffffffffffffffffffff1614156117ec576040517f08c379a00000000000000000000000000000000000000000000000000000000081526004016117e390614813565b60405180910390fd5b6001600e60003373ffffffffffffffffffffffffffffffffffffffff1673ffffffffffffffffffffffffffffffffffffffff168152602001908152602001600020600083815260200190815260200160002060006101000a81548160ff0219169083151502179055507fb9fc72ab4a132463342124fb4c5ebd64bee8a9874c05d37f846eaf5758eff4b281336040516118869291906149ce565b60405180910390a150565b60116020528160005260406000206020528060005260406000206000915091509054906101000a900460ff1681565b600c600083815260200190815260200160002060040160009054906101000a900473ffffffffffffffffffffffffffffffffffffffff1673ffffffffffffffffffffffffffffffffffffffff163373ffffffffffffffffffffffffffffffffffffffff1614611964576040517f08c379a000000000000000000000000000000000000000000000000000000000815260040161195b90614873565b60405180910390fd5b80600c6000848152602001908152602001600020600101908051906020019061198e929190613d33565b507f5e58dfa592b09c585a4ab7ef8158d20b1e52e9897f3095dbe1df700853905c2f826040516119be91906149b3565b60405180910390a15050565b803373ffffffffffffffffffffffffffffffffffffffff16600d600083815260200190815260200160002060070160039054906101000a900473ffffffffffffffffffffffffffffffffffffffff1673ffffffffffffffffffffffffffffffffffffffff161480611a9c57503373ffffffffffffffffffffffffffffffffffffffff16600d600083815260200190815260200160002060080160009054906101000a900473ffffffffffffffffffffffffffffffffffffffff1673ffffffffffffffffffffffffffffffffffffffff16145b611adb576040517f08c379a0000000000000000000000000000000000000000000000000000000008152600401611ad290614893565b60405180910390fd5b60011515600d600084815260200190815260200160002060070160029054906101000a900460ff16151514611b45576040517f08c379a0000000000000000000000000000000000000000000000000000000008152600401611b3c90614853565b60405180910390fd5b6003600d600084815260200190815260200160002060070160016101000a81548160ff021916908360ff1602179055506003600d600084815260200190815260200160002060070160006101000a81548160ff021916908360ff1602179055506000600d600084815260200190815260200160002060070160026101000a81548160ff021916908315150217905550611bdc613e07565b43816040018181525050600181606001901515908115158152505080600f60008581526020019081526020016000206000820151816000019080519060200190611c27929190613d33565b506020820151816001019080519060200190611c44929190613d33565b506040820151816002015560608201518160030160006101000a81548160ff0219169083151502179055509050507fbe50084412c1b5b360c595d895466a9298980a464614ce7fd487fb4c7421f42683604051611ca191906149b3565b60405180910390a1505050565b600080600660009054906101000a900473ffffffffffffffffffffffffffffffffffffffff1673ffffffffffffffffffffffffffffffffffffffff1663feaf968c6040518163ffffffff1660e01b815260040160a06040518083038186803b158015611d1957600080fd5b505afa158015611d2d573d6000803e3d6000fd5b505050506040513d601f19601f82011682018060405250810190611d519190614279565b5050509150508091505090565b6000600c600084815260200190815260200160002060040160009054906101000a900473ffffffffffffffffffffffffffffffffffffffff1673ffffffffffffffffffffffffffffffffffffffff163373ffffffffffffffffffffffffffffffffffffffff1614611e04576040517f08c379a0000000000000000000000000000000000000000000000000000000008152600401611dfb90614913565b60405180910390fd5b60011515600e60008473ffffffffffffffffffffffffffffffffffffffff1673ffffffffffffffffffffffffffffffffffffffff168152602001908152602001600020600085815260200190815260200160002060009054906101000a900460ff16151514611ea8576040517f08c379a0000000000000000000000000000000000000000000000000000000008152600401611e9f906148d3565b60405180910390fd5b600080815480929190611eba90614ed3565b9190505550611ec7613e31565b611ecf611cae565b8160c001818152505060006305f5e1008260c00151600c600088815260200190815260200160002060030154611f059190614cfa565b611f0f9190614d2b565b9050600061271082600254611f249190614d2b565b611f2e9190614cfa565b905081341015611f73576040517f08c379a0000000000000000000000000000000000000000000000000000000008152600401611f6a90614993565b60405180910390fd5b60005483600001818152505085836020018181525050600c6000878152602001908152602001600020600301548360a00181815250508183604001818152505080836080018181525050600183610120019015159081151581525050438360600181815250503383610140019073ffffffffffffffffffffffffffffffffffffffff16908173ffffffffffffffffffffffffffffffffffffffff16815250508483610160019073ffffffffffffffffffffffffffffffffffffffff16908173ffffffffffffffffffffffffffffffffffffffff168152505082600d600085600001518152602001908152602001600020600082015181600001556020820151816001015560408201518160020155606082015181600301556080820151816004015560a0820151816005015560c0820151816006015560e08201518160070160006101000a81548160ff021916908360ff1602179055506101008201518160070160016101000a81548160ff021916908360ff1602179055506101208201518160070160026101000a81548160ff0219169083151502179055506101408201518160070160036101000a81548173ffffffffffffffffffffffffffffffffffffffff021916908373ffffffffffffffffffffffffffffffffffffffff1602179055506101608201518160080160006101000a81548173ffffffffffffffffffffffffffffffffffffffff021916908373ffffffffffffffffffffffffffffffffffffffff16021790555090505081341115612264576000803373ffffffffffffffffffffffffffffffffffffffff1684346121ce9190614d85565b6040516121da90614691565b60006040518083038185875af1925050503d8060008114612217576040519150601f19603f3d011682016040523d82523d6000602084013e61221c565b606091505b509150915081612261576040517f08c379a000000000000000000000000000000000000000000000000000000000815260040161225890614793565b60405180910390fd5b50505b7f74d0d8afe3d8246a3d231394d7f207463085ffcec78a367c5b7404ce21ebad1b836000015184602001518560400151600c60008b815260200190815260200160002060050154876101400151886101600151600c60008e81526020019081526020016000206001016040516122e09796959493929190614ae2565b60405180910390a18260000151935050505092915050565b803373ffffffffffffffffffffffffffffffffffffffff16600d600083815260200190815260200160002060070160039054906101000a900473ffffffffffffffffffffffffffffffffffffffff1673ffffffffffffffffffffffffffffffffffffffff1614806123ca57503373ffffffffffffffffffffffffffffffffffffffff16600d600083815260200190815260200160002060080160009054906101000a900473ffffffffffffffffffffffffffffffffffffffff1673ffffffffffffffffffffffffffffffffffffffff16145b612409576040517f08c379a000000000000000000000000000000000000000000000000000000000815260040161240090614893565b60405180910390fd5b60011515600d600084815260200190815260200160002060070160029054906101000a900460ff16151514612473576040517f08c379a000000000000000000000000000000000000000000000000000000000815260040161246a90614853565b60405180910390fd5b600d600083815260200190815260200160002060070160039054906101000a900473ffffffffffffffffffffffffffffffffffffffff1673ffffffffffffffffffffffffffffffffffffffff163373ffffffffffffffffffffffffffffffffffffffff161480156125455750600d600083815260200190815260200160002060080160009054906101000a900473ffffffffffffffffffffffffffffffffffffffff1673ffffffffffffffffffffffffffffffffffffffff163373ffffffffffffffffffffffffffffffffffffffff16145b156125af576001600d600084815260200190815260200160002060070160006101000a81548160ff021916908360ff1602179055506001600d600084815260200190815260200160002060070160016101000a81548160ff021916908360ff1602179055506126eb565b600d600083815260200190815260200160002060070160039054906101000a900473ffffffffffffffffffffffffffffffffffffffff1673ffffffffffffffffffffffffffffffffffffffff163373ffffffffffffffffffffffffffffffffffffffff16141561264e576001600d600084815260200190815260200160002060070160006101000a81548160ff021916908360ff1602179055506126ea565b600d600083815260200190815260200160002060080160009054906101000a900473ffffffffffffffffffffffffffffffffffffffff1673ffffffffffffffffffffffffffffffffffffffff163373ffffffffffffffffffffffffffffffffffffffff1614156126e9576001600d600084815260200190815260200160002060070160016101000a81548160ff021916908360ff1602179055505b5b5b6001600d600084815260200190815260200160002060070160009054906101000a900460ff1660ff1614801561274757506001600d600084815260200190815260200160002060070160019054906101000a900460ff1660ff16145b15612cb6576000600d600084815260200190815260200160002060070160026101000a81548160ff021916908315150217905550600080600d600085815260200190815260200160002060080160009054906101000a900473ffffffffffffffffffffffffffffffffffffffff1673ffffffffffffffffffffffffffffffffffffffff16600d600086815260200190815260200160002060040154600d6000878152602001908152602001600020600201546128039190614d85565b60405161280f90614691565b60006040518083038185875af1925050503d806000811461284c576040519150601f19603f3d011682016040523d82523d6000602084013e612851565b606091505b509150915081612896576040517f08c379a000000000000000000000000000000000000000000000000000000000815260040161288d90614793565b60405180910390fd5b6128b5600d600086815260200190815260200160002060040154613c5e565b600160106000600d600088815260200190815260200160002060070160039054906101000a900473ffffffffffffffffffffffffffffffffffffffff1673ffffffffffffffffffffffffffffffffffffffff1673ffffffffffffffffffffffffffffffffffffffff168152602001908152602001600020600101600082825461293e9190614ca4565b92505081905550600160106000600d600088815260200190815260200160002060080160009054906101000a900473ffffffffffffffffffffffffffffffffffffffff1673ffffffffffffffffffffffffffffffffffffffff1673ffffffffffffffffffffffffffffffffffffffff16815260200190815260200160002060010160008282546129ce9190614ca4565b92505081905550600b60009054906101000a900460ff168015612a095750600a54600d60008681526020019081526020016000206004015410155b15612cb357600560009054906101000a900473ffffffffffffffffffffffffffffffffffffffff1673ffffffffffffffffffffffffffffffffffffffff16639a49090e600d600087815260200190815260200160002060070160039054906101000a900473ffffffffffffffffffffffffffffffffffffffff166007546040518363ffffffff1660e01b8152600401612aa39291906146c1565b602060405180830381600087803b158015612abd57600080fd5b505af1158015612ad1573d6000803e3d6000fd5b505050506040513d601f19601f82011682018060405250810190612af59190614080565b50600560009054906101000a900473ffffffffffffffffffffffffffffffffffffffff1673ffffffffffffffffffffffffffffffffffffffff16639a49090e600d600087815260200190815260200160002060080160009054906101000a900473ffffffffffffffffffffffffffffffffffffffff166008546040518363ffffffff1660e01b8152600401612b8b9291906146c1565b602060405180830381600087803b158015612ba557600080fd5b505af1158015612bb9573d6000803e3d6000fd5b505050506040513d601f19601f82011682018060405250810190612bdd9190614080565b50600560009054906101000a900473ffffffffffffffffffffffffffffffffffffffff1673ffffffffffffffffffffffffffffffffffffffff16639a49090e600360009054906101000a900473ffffffffffffffffffffffffffffffffffffffff166009546040518363ffffffff1660e01b8152600401612c5f9291906146c1565b602060405180830381600087803b158015612c7957600080fd5b505af1158015612c8d573d6000803e3d6000fd5b505050506040513d601f19601f82011682018060405250810190612cb19190614080565b505b50505b7fb8b459bc0688c37baf5f735d17f1711684bc14ab7db116f88bc18bf409b9309a82604051612ce591906149b3565b60405180910390a15050565b60003373ffffffffffffffffffffffffffffffffffffffff16600460009054906101000a900473ffffffffffffffffffffffffffffffffffffffff1673ffffffffffffffffffffffffffffffffffffffff1614612d4d57600080fd5b6000831415612d625781600281905550612d74565b6001831415612d735781600a819055505b5b6001905092915050565b60011515600f600084815260200190815260200160002060030160009054906101000a900460ff16151514612de8576040517f08c379a0000000000000000000000000000000000000000000000000000000008152600401612ddf906147b3565b60405180910390fd5b600360009054906101000a900473ffffffffffffffffffffffffffffffffffffffff1673ffffffffffffffffffffffffffffffffffffffff163373ffffffffffffffffffffffffffffffffffffffff1614612e78576040517f08c379a0000000000000000000000000000000000000000000000000000000008152600401612e6f906147d3565b60405180910390fd5b600d600083815260200190815260200160002060070160039054906101000a900473ffffffffffffffffffffffffffffffffffffffff1673ffffffffffffffffffffffffffffffffffffffff168173ffffffffffffffffffffffffffffffffffffffff161415612fff57600080600d600085815260200190815260200160002060070160039054906101000a900473ffffffffffffffffffffffffffffffffffffffff1673ffffffffffffffffffffffffffffffffffffffff16600d600086815260200190815260200160002060020154604051612f5590614691565b60006040518083038185875af1925050503d8060008114612f92576040519150601f19603f3d011682016040523d82523d6000602084013e612f97565b606091505b509150915081612fdc576040517f08c379a0000000000000000000000000000000000000000000000000000000008152600401612fd390614793565b60405180910390fd5b6000600d60008681526020019081526020016000206004018190555050506131a7565b600d600083815260200190815260200160002060080160009054906101000a900473ffffffffffffffffffffffffffffffffffffffff1673ffffffffffffffffffffffffffffffffffffffff168173ffffffffffffffffffffffffffffffffffffffff1614156131a657600080600d600085815260200190815260200160002060080160009054906101000a900473ffffffffffffffffffffffffffffffffffffffff1673ffffffffffffffffffffffffffffffffffffffff16600d600086815260200190815260200160002060040154600d6000878152602001908152602001600020600201546130f19190614d85565b6040516130fd90614691565b60006040518083038185875af1925050503d806000811461313a576040519150601f19603f3d011682016040523d82523d6000602084013e61313f565b606091505b509150915081613184576040517f08c379a000000000000000000000000000000000000000000000000000000000815260040161317b90614793565b60405180910390fd5b6131a3600d600086815260200190815260200160002060040154613c5e565b50505b5b6004600d600084815260200190815260200160002060070160016101000a81548160ff021916908360ff1602179055506004600d600084815260200190815260200160002060070160006101000a81548160ff021916908360ff160217905550600160106000600d600086815260200190815260200160002060070160039054906101000a900473ffffffffffffffffffffffffffffffffffffffff1673ffffffffffffffffffffffffffffffffffffffff1673ffffffffffffffffffffffffffffffffffffffff16815260200190815260200160002060020160008282546132909190614ca4565b92505081905550600160106000600d600086815260200190815260200160002060080160009054906101000a900473ffffffffffffffffffffffffffffffffffffffff1673ffffffffffffffffffffffffffffffffffffffff1673ffffffffffffffffffffffffffffffffffffffff16815260200190815260200160002060020160008282546133209190614ca4565b925050819055506000600f600084815260200190815260200160002060030160006101000a81548160ff0219169083151502179055507f29a00cd7b143153a043355a38ed7fa14305cd81468035c2e2e389897f38980d88260405161338591906149b3565b60405180910390a15050565b600c600083815260200190815260200160002060040160009054906101000a900473ffffffffffffffffffffffffffffffffffffffff1673ffffffffffffffffffffffffffffffffffffffff163373ffffffffffffffffffffffffffffffffffffffff1614613435576040517f08c379a000000000000000000000000000000000000000000000000000000000815260040161342c90614873565b60405180910390fd5b80600c600084815260200190815260200160002060020160006101000a81548160ff0219169083151502179055507f5e58dfa592b09c585a4ab7ef8158d20b1e52e9897f3095dbe1df700853905c2f8260405161349291906149b3565b60405180910390a15050565b60075481565b600c600083815260200190815260200160002060040160009054906101000a900473ffffffffffffffffffffffffffffffffffffffff1673ffffffffffffffffffffffffffffffffffffffff163373ffffffffffffffffffffffffffffffffffffffff1614613548576040517f08c379a000000000000000000000000000000000000000000000000000000000815260040161353f90614873565b60405180910390fd5b80600c6000848152602001908152602001600020600301819055507f5e58dfa592b09c585a4ab7ef8158d20b1e52e9897f3095dbe1df700853905c2f8260405161359291906149b3565b60405180910390a15050565b600060011515600c600084815260200190815260200160002060020160009054906101000a900460ff1615151461360a576040517f08c379a000000000000000000000000000000000000000000000000000000000815260040161360190614773565b60405180910390fd5b600c600083815260200190815260200160002060040160009054906101000a900473ffffffffffffffffffffffffffffffffffffffff1673ffffffffffffffffffffffffffffffffffffffff163373ffffffffffffffffffffffffffffffffffffffff1614156136af576040517f08c379a00000000000000000000000000000000000000000000000000000000081526004016136a690614813565b60405180910390fd5b6000808154809291906136c190614ed3565b91905055506136ce613e31565b6136d6611cae565b8160c001818152505060006305f5e1008260c00151600c60008781526020019081526020016000206003015461370c9190614cfa565b6137169190614d2b565b905060006127108260025461372b9190614d2b565b6137359190614cfa565b90508134101561377a576040517f08c379a000000000000000000000000000000000000000000000000000000000815260040161377190614993565b60405180910390fd5b60005483600001818152505084836020018181525050600c6000868152602001908152602001600020600301548360a00181815250508183604001818152505080836080018181525050600183610120019015159081151581525050438360600181815250503383610140019073ffffffffffffffffffffffffffffffffffffffff16908173ffffffffffffffffffffffffffffffffffffffff1681525050600c600086815260200190815260200160002060040160009054906101000a900473ffffffffffffffffffffffffffffffffffffffff1683610160019073ffffffffffffffffffffffffffffffffffffffff16908173ffffffffffffffffffffffffffffffffffffffff168152505082600d600085600001518152602001908152602001600020600082015181600001556020820151816001015560408201518160020155606082015181600301556080820151816004015560a0820151816005015560c0820151816006015560e08201518160070160006101000a81548160ff021916908360ff1602179055506101008201518160070160016101000a81548160ff021916908360ff1602179055506101208201518160070160026101000a81548160ff0219169083151502179055506101408201518160070160036101000a81548173ffffffffffffffffffffffffffffffffffffffff021916908373ffffffffffffffffffffffffffffffffffffffff1602179055506101608201518160080160006101000a81548173ffffffffffffffffffffffffffffffffffffffff021916908373ffffffffffffffffffffffffffffffffffffffff16021790555090505081341115613aa1576000803373ffffffffffffffffffffffffffffffffffffffff168434613a0b9190614d85565b604051613a1790614691565b60006040518083038185875af1925050503d8060008114613a54576040519150601f19603f3d011682016040523d82523d6000602084013e613a59565b606091505b509150915081613a9e576040517f08c379a0000000000000000000000000000000000000000000000000000000008152600401613a9590614793565b60405180910390fd5b50505b7f74d0d8afe3d8246a3d231394d7f207463085ffcec78a367c5b7404ce21ebad1b836000015184602001518560400151600c60008a815260200190815260200160002060050154876101400151886101600151600c60008d8152602001908152602001600020600101604051613b1d9796959493929190614ae2565b60405180910390a182600001519350505050919050565b600b60009054906101000a900460ff1681565b600360009054906101000a900473ffffffffffffffffffffffffffffffffffffffff1681565b600c602052806000526040600020600091509050806000015490806001018054613b9690614e70565b80601f0160208091040260200160405190810160405280929190818152602001828054613bc290614e70565b8015613c0f5780601f10613be457610100808354040283529160200191613c0f565b820191906000526020600020905b815481529060010190602001808311613bf257829003601f168201915b5050505050908060020160009054906101000a900460ff16908060030154908060040160009054906101000a900473ffffffffffffffffffffffffffffffffffffffff16908060050154905086565b600080600460009054906101000a900473ffffffffffffffffffffffffffffffffffffffff1673ffffffffffffffffffffffffffffffffffffffff1683604051613ca790614691565b60006040518083038185875af1925050503d8060008114613ce4576040519150601f19603f3d011682016040523d82523d6000602084013e613ce9565b606091505b509150915081613d2e576040517f08c379a0000000000000000000000000000000000000000000000000000000008152600401613d2590614793565b60405180910390fd5b505050565b828054613d3f90614e70565b90600052602060002090601f016020900481019282613d615760008555613da8565b82601f10613d7a57805160ff1916838001178555613da8565b82800160010185558215613da8579182015b82811115613da7578251825591602001919060010190613d8c565b5b509050613db59190613ec6565b5090565b6040518060c00160405280600081526020016060815260200160001515815260200160008152602001600073ffffffffffffffffffffffffffffffffffffffff168152602001600081525090565b60405180608001604052806060815260200160608152602001600081526020016000151581525090565b60405180610180016040528060008152602001600081526020016000815260200160008152602001600081526020016000815260200160008152602001600060ff168152602001600060ff168152602001600015158152602001600073ffffffffffffffffffffffffffffffffffffffff168152602001600073ffffffffffffffffffffffffffffffffffffffff1681525090565b5b80821115613edf576000816000905550600101613ec7565b5090565b6000613ef6613ef184614c37565b614c12565b905082815260208101848484011115613f1257613f11614fdd565b5b613f1d848285614e2e565b509392505050565b600081359050613f34816153c6565b92915050565b600081359050613f49816153dd565b92915050565b600081519050613f5e816153dd565b92915050565b600081519050613f73816153f4565b92915050565b600082601f830112613f8e57613f8d614fd8565b5b8135613f9e848260208601613ee3565b91505092915050565b600081359050613fb68161540b565b92915050565b600081519050613fcb8161540b565b92915050565b600081519050613fe081615422565b92915050565b600060208284031215613ffc57613ffb614fe7565b5b600061400a84828501613f25565b91505092915050565b6000806040838503121561402a57614029614fe7565b5b600061403885828601613f25565b925050602061404985828601613fa7565b9150509250929050565b60006020828403121561406957614068614fe7565b5b600061407784828501613f3a565b91505092915050565b60006020828403121561409657614095614fe7565b5b60006140a484828501613f4f565b91505092915050565b600080600080608085870312156140c7576140c6614fe7565b5b600085013567ffffffffffffffff8111156140e5576140e4614fe2565b5b6140f187828801613f79565b945050602061410287828801613f3a565b935050604061411387828801613fa7565b925050606061412487828801613fa7565b91505092959194509250565b60006020828403121561414657614145614fe7565b5b600061415484828501613fa7565b91505092915050565b6000806040838503121561417457614173614fe7565b5b600061418285828601613fa7565b925050602061419385828601613f25565b9150509250929050565b600080604083850312156141b4576141b3614fe7565b5b60006141c285828601613fa7565b92505060206141d385828601613f3a565b9150509250929050565b600080604083850312156141f4576141f3614fe7565b5b600061420285828601613fa7565b925050602083013567ffffffffffffffff81111561422357614222614fe2565b5b61422f85828601613f79565b9150509250929050565b600080604083850312156142505761424f614fe7565b5b600061425e85828601613fa7565b925050602061426f85828601613fa7565b9150509250929050565b600080600080600060a0868803121561429557614294614fe7565b5b60006142a388828901613fd1565b95505060206142b488828901613f64565b94505060406142c588828901613fbc565b93505060606142d688828901613fbc565b92505060806142e788828901613fd1565b9150509295509295909350565b6142fd81614db9565b82525050565b61430c81614dcb565b82525050565b61431b81614dd7565b82525050565b600061432c82614c7d565b6143368185614c93565b9350614346818560208601614e3d565b61434f81614fec565b840191505092915050565b6000815461436781614e70565b6143718186614c93565b9450600182166000811461438c576001811461439e576143d1565b60ff19831686526020860193506143d1565b6143a785614c68565b60005b838110156143c9578154818901526001820191506020810190506143aa565b808801955050505b50505092915050565b60006143e7602383614c93565b91506143f282614ffd565b604082019050919050565b600061440a601483614c93565b91506144158261504c565b602082019050919050565b600061442d602a83614c93565b915061443882615075565b604082019050919050565b6000614450602583614c93565b915061445b826150c4565b604082019050919050565b6000614473601d83614c93565b915061447e82615113565b602082019050919050565b6000614496601583614c93565b91506144a18261513c565b602082019050919050565b60006144b9601683614c93565b91506144c482615165565b602082019050919050565b60006144dc601283614c93565b91506144e78261518e565b602082019050919050565b60006144ff601883614c93565b915061450a826151b7565b602082019050919050565b6000614522602583614c93565b915061452d826151e0565b604082019050919050565b6000614545600d83614c93565b91506145508261522f565b602082019050919050565b6000614568600083614c88565b915061457382615258565b600082019050919050565b600061458b602f83614c93565b91506145968261525b565b604082019050919050565b60006145ae601283614c93565b91506145b9826152aa565b602082019050919050565b60006145d1602083614c93565b91506145dc826152d3565b602082019050919050565b60006145f4602683614c93565b91506145ff826152fc565b604082019050919050565b6000614617601783614c93565b91506146228261534b565b602082019050919050565b600061463a601f83614c93565b915061464582615374565b602082019050919050565b600061465d601e83614c93565b91506146688261539d565b602082019050919050565b61467c81614e01565b82525050565b61468b81614e0b565b82525050565b600061469c8261455b565b9150819050919050565b60006020820190506146bb60008301846142f4565b92915050565b60006040820190506146d660008301856142f4565b6146e36020830184614673565b9392505050565b60006020820190506146ff6000830184614303565b92915050565b600060208201905061471a6000830184614312565b92915050565b6000608082019050818103600083015261473a8187614321565b9050818103602083015261474e8186614321565b905061475d6040830185614673565b61476a6060830184614303565b95945050505050565b6000602082019050818103600083015261478c816143da565b9050919050565b600060208201905081810360008301526147ac816143fd565b9050919050565b600060208201905081810360008301526147cc81614420565b9050919050565b600060208201905081810360008301526147ec81614443565b9050919050565b6000602082019050818103600083015261480c81614466565b9050919050565b6000602082019050818103600083015261482c81614489565b9050919050565b6000602082019050818103600083015261484c816144ac565b9050919050565b6000602082019050818103600083015261486c816144cf565b9050919050565b6000602082019050818103600083015261488c816144f2565b9050919050565b600060208201905081810360008301526148ac81614515565b9050919050565b600060208201905081810360008301526148cc81614538565b9050919050565b600060208201905081810360008301526148ec8161457e565b9050919050565b6000602082019050818103600083015261490c816145a1565b9050919050565b6000602082019050818103600083015261492c816145c4565b9050919050565b6000602082019050818103600083015261494c816145e7565b9050919050565b6000602082019050818103600083015261496c8161460a565b9050919050565b6000602082019050818103600083015261498c8161462d565b9050919050565b600060208201905081810360008301526149ac81614650565b9050919050565b60006020820190506149c86000830184614673565b92915050565b60006040820190506149e36000830185614673565b6149f060208301846142f4565b9392505050565b6000608082019050614a0c6000830187614673565b614a1960208301866142f4565b8181036040830152614a2b8185614321565b9050614a3a6060830184614673565b95945050505050565b600060c082019050614a586000830189614673565b8181036020830152614a6a8188614321565b9050614a796040830187614303565b614a866060830186614673565b614a9360808301856142f4565b614aa060a0830184614673565b979650505050505050565b6000606082019050614ac06000830186614673565b614acd6020830185614673565b614ada6040830184614673565b949350505050565b600060e082019050614af7600083018a614673565b614b046020830189614673565b614b116040830188614673565b614b1e6060830187614673565b614b2b60808301866142f4565b614b3860a08301856142f4565b81810360c0830152614b4a818461435a565b905098975050505050505050565b600061018082019050614b6e600083018f614673565b614b7b602083018e614673565b614b88604083018d614673565b614b95606083018c614673565b614ba2608083018b614673565b614baf60a083018a614673565b614bbc60c0830189614673565b614bc960e0830188614682565b614bd7610100830187614682565b614be5610120830186614303565b614bf36101408301856142f4565b614c016101608301846142f4565b9d9c50505050505050505050505050565b6000614c1c614c2d565b9050614c288282614ea2565b919050565b6000604051905090565b600067ffffffffffffffff821115614c5257614c51614fa9565b5b614c5b82614fec565b9050602081019050919050565b60008190508160005260206000209050919050565b600081519050919050565b600081905092915050565b600082825260208201905092915050565b6000614caf82614e01565b9150614cba83614e01565b9250827fffffffffffffffffffffffffffffffffffffffffffffffffffffffffffffffff03821115614cef57614cee614f1c565b5b828201905092915050565b6000614d0582614e01565b9150614d1083614e01565b925082614d2057614d1f614f4b565b5b828204905092915050565b6000614d3682614e01565b9150614d4183614e01565b9250817fffffffffffffffffffffffffffffffffffffffffffffffffffffffffffffffff0483118215151615614d7a57614d79614f1c565b5b828202905092915050565b6000614d9082614e01565b9150614d9b83614e01565b925082821015614dae57614dad614f1c565b5b828203905092915050565b6000614dc482614de1565b9050919050565b60008115159050919050565b6000819050919050565b600073ffffffffffffffffffffffffffffffffffffffff82169050919050565b6000819050919050565b600060ff82169050919050565b600069ffffffffffffffffffff82169050919050565b82818337600083830152505050565b60005b83811015614e5b578082015181840152602081019050614e40565b83811115614e6a576000848401525b50505050565b60006002820490506001821680614e8857607f821691505b60208210811415614e9c57614e9b614f7a565b5b50919050565b614eab82614fec565b810181811067ffffffffffffffff82111715614eca57614ec9614fa9565b5b80604052505050565b6000614ede82614e01565b91507fffffffffffffffffffffffffffffffffffffffffffffffffffffffffffffffff821415614f1157614f10614f1c565b5b600182019050919050565b7f4e487b7100000000000000000000000000000000000000000000000000000000600052601160045260246000fd5b7f4e487b7100000000000000000000000000000000000000000000000000000000600052601260045260246000fd5b7f4e487b7100000000000000000000000000000000000000000000000000000000600052602260045260246000fd5b7f4e487b7100000000000000000000000000000000000000000000000000000000600052604160045260246000fd5b600080fd5b600080fd5b600080fd5b600080fd5b6000601f19601f8301169050919050565b7f4974656d206e6f7420666f722073616c65206f7220646f65736e27742065786960008201527f73742e0000000000000000000000000000000000000000000000000000000000602082015250565b7f4661696c656420746f2053656e64204574686572000000000000000000000000600082015250565b7f446973707574652069736e2774206c697665206f7220697320616c726561647960008201527f207265736f6c7665642e00000000000000000000000000000000000000000000602082015250565b7f4f6e6c792044414f20616464726573732063616e207265736f6c76652064697360008201527f7075746573000000000000000000000000000000000000000000000000000000602082015250565b7f4f6e6c79207461736b732063616e2072656365697665206f6666657273000000600082015250565b7f42757965722063616e6e6f74206265206f776e65720000000000000000000000600082015250565b7f4f6e6c792073656c6c65722063616e2063616e63656c00000000000000000000600082015250565b7f4f726465722069736e2774206163746976650000000000000000000000000000600082015250565b7f4f6e6c79206974656d206f776e65722063616e20656469740000000000000000600082015250565b7f4e6f7420617574686f72697a65642e204275796572206f722053656c6c65722060008201527f6f6e6c792e000000000000000000000000000000000000000000000000000000602082015250565b7f4e6f7420617661696c61626c6500000000000000000000000000000000000000600082015250565b50565b7f43616e206f6e6c7920616363657074206f66666572732066726f6d20776f726b60008201527f6572732077686f206f6666657265640000000000000000000000000000000000602082015250565b7f446973707574652069736e2774206c6976650000000000000000000000000000600082015250565b7f4f6e6c79206974656d206f776e65722063616e20616363657074206f66666572600082015250565b7f4f6e6c7920636f6d70616e792063616e2075706461746520726577617264732060008201527f7374617475730000000000000000000000000000000000000000000000000000602082015250565b7f5573657220616c7265616479206d616465206f66666572000000000000000000600082015250565b7f4f6e6c7920636f6d70616e792063616e206368616e6765206164647265737300600082015250565b7f416d6f756e742070616964206973206c657373207468616e20746f74616c0000600082015250565b6153cf81614db9565b81146153da57600080fd5b50565b6153e681614dcb565b81146153f157600080fd5b50565b6153fd81614dd7565b811461540857600080fd5b50565b61541481614e01565b811461541f57600080fd5b50565b61542b81614e18565b811461543657600080fd5b5056fea264697066735822122064d1e6b1d623f21db9e0e24f7a85520c7632c1a3737331d3d1fd332a9fb1800764736f6c63430008070033",
					"opcodes": "PUSH1 0x80 PUSH1 0x40 MSTORE CALLVALUE DUP1 ISZERO PUSH3 0x11 JUMPI PUSH1 0x0 DUP1 REVERT JUMPDEST POP PUSH1 0x40 MLOAD PUSH3 0x56E1 CODESIZE SUB DUP1 PUSH3 0x56E1 DUP4 CODECOPY DUP2 DUP2 ADD PUSH1 0x40 MSTORE DUP2 ADD SWAP1 PUSH3 0x37 SWAP2 SWAP1 PUSH3 0x1B3 JUMP JUMPDEST PUSH1 0xFA PUSH1 0x2 DUP2 SWAP1 SSTORE POP PUSH1 0x0 PUSH1 0xA DUP2 SWAP1 SSTORE POP PUSH8 0xDE0B6B3A7640000 PUSH1 0x7 DUP2 SWAP1 SSTORE POP PUSH8 0xDE0B6B3A7640000 PUSH1 0x8 DUP2 SWAP1 SSTORE POP PUSH8 0xDE0B6B3A7640000 PUSH1 0x9 DUP2 SWAP1 SSTORE POP CALLER PUSH1 0x3 PUSH1 0x0 PUSH2 0x100 EXP DUP2 SLOAD DUP2 PUSH20 0xFFFFFFFFFFFFFFFFFFFFFFFFFFFFFFFFFFFFFFFF MUL NOT AND SWAP1 DUP4 PUSH20 0xFFFFFFFFFFFFFFFFFFFFFFFFFFFFFFFFFFFFFFFF AND MUL OR SWAP1 SSTORE POP PUSH1 0x1 PUSH1 0xB PUSH1 0x0 PUSH2 0x100 EXP DUP2 SLOAD DUP2 PUSH1 0xFF MUL NOT AND SWAP1 DUP4 ISZERO ISZERO MUL OR SWAP1 SSTORE POP DUP3 PUSH1 0x4 PUSH1 0x0 PUSH2 0x100 EXP DUP2 SLOAD DUP2 PUSH20 0xFFFFFFFFFFFFFFFFFFFFFFFFFFFFFFFFFFFFFFFF MUL NOT AND SWAP1 DUP4 PUSH20 0xFFFFFFFFFFFFFFFFFFFFFFFFFFFFFFFFFFFFFFFF AND MUL OR SWAP1 SSTORE POP DUP2 PUSH1 0x5 PUSH1 0x0 PUSH2 0x100 EXP DUP2 SLOAD DUP2 PUSH20 0xFFFFFFFFFFFFFFFFFFFFFFFFFFFFFFFFFFFFFFFF MUL NOT AND SWAP1 DUP4 PUSH20 0xFFFFFFFFFFFFFFFFFFFFFFFFFFFFFFFFFFFFFFFF AND MUL OR SWAP1 SSTORE POP DUP1 PUSH1 0x6 PUSH1 0x0 PUSH2 0x100 EXP DUP2 SLOAD DUP2 PUSH20 0xFFFFFFFFFFFFFFFFFFFFFFFFFFFFFFFFFFFFFFFF MUL NOT AND SWAP1 DUP4 PUSH20 0xFFFFFFFFFFFFFFFFFFFFFFFFFFFFFFFFFFFFFFFF AND MUL OR SWAP1 SSTORE POP POP POP POP PUSH3 0x262 JUMP JUMPDEST PUSH1 0x0 DUP2 MLOAD SWAP1 POP PUSH3 0x1AD DUP2 PUSH3 0x248 JUMP JUMPDEST SWAP3 SWAP2 POP POP JUMP JUMPDEST PUSH1 0x0 DUP1 PUSH1 0x0 PUSH1 0x60 DUP5 DUP7 SUB SLT ISZERO PUSH3 0x1CF JUMPI PUSH3 0x1CE PUSH3 0x243 JUMP JUMPDEST JUMPDEST PUSH1 0x0 PUSH3 0x1DF DUP7 DUP3 DUP8 ADD PUSH3 0x19C JUMP JUMPDEST SWAP4 POP POP PUSH1 0x20 PUSH3 0x1F2 DUP7 DUP3 DUP8 ADD PUSH3 0x19C JUMP JUMPDEST SWAP3 POP POP PUSH1 0x40 PUSH3 0x205 DUP7 DUP3 DUP8 ADD PUSH3 0x19C JUMP JUMPDEST SWAP2 POP POP SWAP3 POP SWAP3 POP SWAP3 JUMP JUMPDEST PUSH1 0x0 PUSH3 0x21C DUP3 PUSH3 0x223 JUMP JUMPDEST SWAP1 POP SWAP2 SWAP1 POP JUMP JUMPDEST PUSH1 0x0 PUSH20 0xFFFFFFFFFFFFFFFFFFFFFFFFFFFFFFFFFFFFFFFF DUP3 AND SWAP1 POP SWAP2 SWAP1 POP JUMP JUMPDEST PUSH1 0x0 DUP1 REVERT JUMPDEST PUSH3 0x253 DUP2 PUSH3 0x20F JUMP JUMPDEST DUP2 EQ PUSH3 0x25F JUMPI PUSH1 0x0 DUP1 REVERT JUMPDEST POP JUMP JUMPDEST PUSH2 0x546F DUP1 PUSH3 0x272 PUSH1 0x0 CODECOPY PUSH1 0x0 RETURN INVALID PUSH1 0x80 PUSH1 0x40 MSTORE PUSH1 0x4 CALLDATASIZE LT PUSH2 0x1F9 JUMPI PUSH1 0x0 CALLDATALOAD PUSH1 0xE0 SHR DUP1 PUSH4 0x741BEF1A GT PUSH2 0x10D JUMPI DUP1 PUSH4 0xA0E50CA6 GT PUSH2 0xA0 JUMPI DUP1 PUSH4 0xD0E7A5CB GT PUSH2 0x6F JUMPI DUP1 PUSH4 0xD0E7A5CB EQ PUSH2 0x75C JUMPI DUP1 PUSH4 0xD96A094A EQ PUSH2 0x785 JUMPI DUP1 PUSH4 0xE039BEC7 EQ PUSH2 0x7B5 JUMPI DUP1 PUSH4 0xF851A440 EQ PUSH2 0x7E0 JUMPI DUP1 PUSH4 0xFD2E997E EQ PUSH2 0x80B JUMPI PUSH2 0x1F9 JUMP JUMPDEST DUP1 PUSH4 0xA0E50CA6 EQ PUSH2 0x6A2 JUMPI DUP1 PUSH4 0xAF0D467B EQ PUSH2 0x6DF JUMPI DUP1 PUSH4 0xC0EB4E7D EQ PUSH2 0x708 JUMPI DUP1 PUSH4 0xC0F0F73F EQ PUSH2 0x731 JUMPI PUSH2 0x1F9 JUMP JUMPDEST DUP1 PUSH4 0x86D6282C GT PUSH2 0xDC JUMPI DUP1 PUSH4 0x86D6282C EQ PUSH2 0x5F5 JUMPI DUP1 PUSH4 0x8E15F473 EQ PUSH2 0x61E JUMPI DUP1 PUSH4 0x918D407D EQ PUSH2 0x649 JUMPI DUP1 PUSH4 0x971D852F EQ PUSH2 0x679 JUMPI PUSH2 0x1F9 JUMP JUMPDEST DUP1 PUSH4 0x741BEF1A EQ PUSH2 0x53B JUMPI DUP1 PUSH4 0x761610FC EQ PUSH2 0x566 JUMPI DUP1 PUSH4 0x82C35BFA EQ PUSH2 0x58F JUMPI DUP1 PUSH4 0x83219A8A EQ PUSH2 0x5CC JUMPI PUSH2 0x1F9 JUMP JUMPDEST DUP1 PUSH4 0x2FFBB678 GT PUSH2 0x190 JUMPI DUP1 PUSH4 0x54282632 GT PUSH2 0x15F JUMPI DUP1 PUSH4 0x54282632 EQ PUSH2 0x435 JUMPI DUP1 PUSH4 0x6A166964 EQ PUSH2 0x460 JUMPI DUP1 PUSH4 0x6AB34A4A EQ PUSH2 0x48B JUMPI DUP1 PUSH4 0x6BFB0D01 EQ PUSH2 0x4D3 JUMPI DUP1 PUSH4 0x6C914501 EQ PUSH2 0x4FE JUMPI PUSH2 0x1F9 JUMP JUMPDEST DUP1 PUSH4 0x2FFBB678 EQ PUSH2 0x37B JUMPI DUP1 PUSH4 0x34650412 EQ PUSH2 0x3A4 JUMPI DUP1 PUSH4 0x40E58EE5 EQ PUSH2 0x3E1 JUMPI DUP1 PUSH4 0x4162169F EQ PUSH2 0x40A JUMPI PUSH2 0x1F9 JUMP JUMPDEST DUP1 PUSH4 0x22A5AEBF GT PUSH2 0x1CC JUMPI DUP1 PUSH4 0x22A5AEBF EQ PUSH2 0x2D1 JUMPI DUP1 PUSH4 0x2453FFA8 EQ PUSH2 0x2FC JUMPI DUP1 PUSH4 0x24EC7590 EQ PUSH2 0x327 JUMPI DUP1 PUSH4 0x2AB29DF7 EQ PUSH2 0x352 JUMPI PUSH2 0x1F9 JUMP JUMPDEST DUP1 PUSH4 0x101E1940 EQ PUSH2 0x1FE JUMPI DUP1 PUSH4 0x16632302 EQ PUSH2 0x23E JUMPI DUP1 PUSH4 0x1885F580 EQ PUSH2 0x267 JUMPI DUP1 PUSH4 0x1C8E8962 EQ PUSH2 0x292 JUMPI JUMPDEST PUSH1 0x0 DUP1 REVERT JUMPDEST CALLVALUE DUP1 ISZERO PUSH2 0x20A JUMPI PUSH1 0x0 DUP1 REVERT JUMPDEST POP PUSH2 0x225 PUSH1 0x4 DUP1 CALLDATASIZE SUB DUP2 ADD SWAP1 PUSH2 0x220 SWAP2 SWAP1 PUSH2 0x4130 JUMP JUMPDEST PUSH2 0x84D JUMP JUMPDEST PUSH1 0x40 MLOAD PUSH2 0x235 SWAP5 SWAP4 SWAP3 SWAP2 SWAP1 PUSH2 0x4720 JUMP JUMPDEST PUSH1 0x40 MLOAD DUP1 SWAP2 SUB SWAP1 RETURN JUMPDEST CALLVALUE DUP1 ISZERO PUSH2 0x24A JUMPI PUSH1 0x0 DUP1 REVERT JUMPDEST POP PUSH2 0x265 PUSH1 0x4 DUP1 CALLDATASIZE SUB DUP2 ADD SWAP1 PUSH2 0x260 SWAP2 SWAP1 PUSH2 0x41DD JUMP JUMPDEST PUSH2 0x99A JUMP JUMPDEST STOP JUMPDEST CALLVALUE DUP1 ISZERO PUSH2 0x273 JUMPI PUSH1 0x0 DUP1 REVERT JUMPDEST POP PUSH2 0x27C PUSH2 0xC82 JUMP JUMPDEST PUSH1 0x40 MLOAD PUSH2 0x289 SWAP2 SWAP1 PUSH2 0x49B3 JUMP JUMPDEST PUSH1 0x40 MLOAD DUP1 SWAP2 SUB SWAP1 RETURN JUMPDEST CALLVALUE DUP1 ISZERO PUSH2 0x29E JUMPI PUSH1 0x0 DUP1 REVERT JUMPDEST POP PUSH2 0x2B9 PUSH1 0x4 DUP1 CALLDATASIZE SUB DUP2 ADD SWAP1 PUSH2 0x2B4 SWAP2 SWAP1 PUSH2 0x3FE6 JUMP JUMPDEST PUSH2 0xC88 JUMP JUMPDEST PUSH1 0x40 MLOAD PUSH2 0x2C8 SWAP4 SWAP3 SWAP2 SWAP1 PUSH2 0x4AAB JUMP JUMPDEST PUSH1 0x40 MLOAD DUP1 SWAP2 SUB SWAP1 RETURN JUMPDEST CALLVALUE DUP1 ISZERO PUSH2 0x2DD JUMPI PUSH1 0x0 DUP1 REVERT JUMPDEST POP PUSH2 0x2E6 PUSH2 0xCB2 JUMP JUMPDEST PUSH1 0x40 MLOAD PUSH2 0x2F3 SWAP2 SWAP1 PUSH2 0x46A6 JUMP JUMPDEST PUSH1 0x40 MLOAD DUP1 SWAP2 SUB SWAP1 RETURN JUMPDEST CALLVALUE DUP1 ISZERO PUSH2 0x308 JUMPI PUSH1 0x0 DUP1 REVERT JUMPDEST POP PUSH2 0x311 PUSH2 0xCD8 JUMP JUMPDEST PUSH1 0x40 MLOAD PUSH2 0x31E SWAP2 SWAP1 PUSH2 0x49B3 JUMP JUMPDEST PUSH1 0x40 MLOAD DUP1 SWAP2 SUB SWAP1 RETURN JUMPDEST CALLVALUE DUP1 ISZERO PUSH2 0x333 JUMPI PUSH1 0x0 DUP1 REVERT JUMPDEST POP PUSH2 0x33C PUSH2 0xCDE JUMP JUMPDEST PUSH1 0x40 MLOAD PUSH2 0x349 SWAP2 SWAP1 PUSH2 0x49B3 JUMP JUMPDEST PUSH1 0x40 MLOAD DUP1 SWAP2 SUB SWAP1 RETURN JUMPDEST CALLVALUE DUP1 ISZERO PUSH2 0x35E JUMPI PUSH1 0x0 DUP1 REVERT JUMPDEST POP PUSH2 0x379 PUSH1 0x4 DUP1 CALLDATASIZE SUB DUP2 ADD SWAP1 PUSH2 0x374 SWAP2 SWAP1 PUSH2 0x415D JUMP JUMPDEST PUSH2 0xCE4 JUMP JUMPDEST STOP JUMPDEST CALLVALUE DUP1 ISZERO PUSH2 0x387 JUMPI PUSH1 0x0 DUP1 REVERT JUMPDEST POP PUSH2 0x3A2 PUSH1 0x4 DUP1 CALLDATASIZE SUB DUP2 ADD SWAP1 PUSH2 0x39D SWAP2 SWAP1 PUSH2 0x4053 JUMP JUMPDEST PUSH2 0xEB3 JUMP JUMPDEST STOP JUMPDEST CALLVALUE DUP1 ISZERO PUSH2 0x3B0 JUMPI PUSH1 0x0 DUP1 REVERT JUMPDEST POP PUSH2 0x3CB PUSH1 0x4 DUP1 CALLDATASIZE SUB DUP2 ADD SWAP1 PUSH2 0x3C6 SWAP2 SWAP1 PUSH2 0x4013 JUMP JUMPDEST PUSH2 0xF60 JUMP JUMPDEST PUSH1 0x40 MLOAD PUSH2 0x3D8 SWAP2 SWAP1 PUSH2 0x46EA JUMP JUMPDEST PUSH1 0x40 MLOAD DUP1 SWAP2 SUB SWAP1 RETURN JUMPDEST CALLVALUE DUP1 ISZERO PUSH2 0x3ED JUMPI PUSH1 0x0 DUP1 REVERT JUMPDEST POP PUSH2 0x408 PUSH1 0x4 DUP1 CALLDATASIZE SUB DUP2 ADD SWAP1 PUSH2 0x403 SWAP2 SWAP1 PUSH2 0x4130 JUMP JUMPDEST PUSH2 0xF8F JUMP JUMPDEST STOP JUMPDEST CALLVALUE DUP1 ISZERO PUSH2 0x416 JUMPI PUSH1 0x0 DUP1 REVERT JUMPDEST POP PUSH2 0x41F PUSH2 0x130E JUMP JUMPDEST PUSH1 0x40 MLOAD PUSH2 0x42C SWAP2 SWAP1 PUSH2 0x46A6 JUMP JUMPDEST PUSH1 0x40 MLOAD DUP1 SWAP2 SUB SWAP1 RETURN JUMPDEST CALLVALUE DUP1 ISZERO PUSH2 0x441 JUMPI PUSH1 0x0 DUP1 REVERT JUMPDEST POP PUSH2 0x44A PUSH2 0x1334 JUMP JUMPDEST PUSH1 0x40 MLOAD PUSH2 0x457 SWAP2 SWAP1 PUSH2 0x49B3 JUMP JUMPDEST PUSH1 0x40 MLOAD DUP1 SWAP2 SUB SWAP1 RETURN JUMPDEST CALLVALUE DUP1 ISZERO PUSH2 0x46C JUMPI PUSH1 0x0 DUP1 REVERT JUMPDEST POP PUSH2 0x475 PUSH2 0x133A JUMP JUMPDEST PUSH1 0x40 MLOAD PUSH2 0x482 SWAP2 SWAP1 PUSH2 0x49B3 JUMP JUMPDEST PUSH1 0x40 MLOAD DUP1 SWAP2 SUB SWAP1 RETURN JUMPDEST CALLVALUE DUP1 ISZERO PUSH2 0x497 JUMPI PUSH1 0x0 DUP1 REVERT JUMPDEST POP PUSH2 0x4B2 PUSH1 0x4 DUP1 CALLDATASIZE SUB DUP2 ADD SWAP1 PUSH2 0x4AD SWAP2 SWAP1 PUSH2 0x4130 JUMP JUMPDEST PUSH2 0x1340 JUMP JUMPDEST PUSH1 0x40 MLOAD PUSH2 0x4CA SWAP13 SWAP12 SWAP11 SWAP10 SWAP9 SWAP8 SWAP7 SWAP6 SWAP5 SWAP4 SWAP3 SWAP2 SWAP1 PUSH2 0x4B58 JUMP JUMPDEST PUSH1 0x40 MLOAD DUP1 SWAP2 SUB SWAP1 RETURN JUMPDEST CALLVALUE DUP1 ISZERO PUSH2 0x4DF JUMPI PUSH1 0x0 DUP1 REVERT JUMPDEST POP PUSH2 0x4E8 PUSH2 0x1407 JUMP JUMPDEST PUSH1 0x40 MLOAD PUSH2 0x4F5 SWAP2 SWAP1 PUSH2 0x49B3 JUMP JUMPDEST PUSH1 0x40 MLOAD DUP1 SWAP2 SUB SWAP1 RETURN JUMPDEST CALLVALUE DUP1 ISZERO PUSH2 0x50A JUMPI PUSH1 0x0 DUP1 REVERT JUMPDEST POP PUSH2 0x525 PUSH1 0x4 DUP1 CALLDATASIZE SUB DUP2 ADD SWAP1 PUSH2 0x520 SWAP2 SWAP1 PUSH2 0x40AD JUMP JUMPDEST PUSH2 0x140D JUMP JUMPDEST PUSH1 0x40 MLOAD PUSH2 0x532 SWAP2 SWAP1 PUSH2 0x49B3 JUMP JUMPDEST PUSH1 0x40 MLOAD DUP1 SWAP2 SUB SWAP1 RETURN JUMPDEST CALLVALUE DUP1 ISZERO PUSH2 0x547 JUMPI PUSH1 0x0 DUP1 REVERT JUMPDEST POP PUSH2 0x550 PUSH2 0x15BA JUMP JUMPDEST PUSH1 0x40 MLOAD PUSH2 0x55D SWAP2 SWAP1 PUSH2 0x46A6 JUMP JUMPDEST PUSH1 0x40 MLOAD DUP1 SWAP2 SUB SWAP1 RETURN JUMPDEST CALLVALUE DUP1 ISZERO PUSH2 0x572 JUMPI PUSH1 0x0 DUP1 REVERT JUMPDEST POP PUSH2 0x58D PUSH1 0x4 DUP1 CALLDATASIZE SUB DUP2 ADD SWAP1 PUSH2 0x588 SWAP2 SWAP1 PUSH2 0x4130 JUMP JUMPDEST PUSH2 0x15E0 JUMP JUMPDEST STOP JUMPDEST CALLVALUE DUP1 ISZERO PUSH2 0x59B JUMPI PUSH1 0x0 DUP1 REVERT JUMPDEST POP PUSH2 0x5B6 PUSH1 0x4 DUP1 CALLDATASIZE SUB DUP2 ADD SWAP1 PUSH2 0x5B1 SWAP2 SWAP1 PUSH2 0x4013 JUMP JUMPDEST PUSH2 0x1891 JUMP JUMPDEST PUSH1 0x40 MLOAD PUSH2 0x5C3 SWAP2 SWAP1 PUSH2 0x46EA JUMP JUMPDEST PUSH1 0x40 MLOAD DUP1 SWAP2 SUB SWAP1 RETURN JUMPDEST CALLVALUE DUP1 ISZERO PUSH2 0x5D8 JUMPI PUSH1 0x0 DUP1 REVERT JUMPDEST POP PUSH2 0x5F3 PUSH1 0x4 DUP1 CALLDATASIZE SUB DUP2 ADD SWAP1 PUSH2 0x5EE SWAP2 SWAP1 PUSH2 0x41DD JUMP JUMPDEST PUSH2 0x18C0 JUMP JUMPDEST STOP JUMPDEST CALLVALUE DUP1 ISZERO PUSH2 0x601 JUMPI PUSH1 0x0 DUP1 REVERT JUMPDEST POP PUSH2 0x61C PUSH1 0x4 DUP1 CALLDATASIZE SUB DUP2 ADD SWAP1 PUSH2 0x617 SWAP2 SWAP1 PUSH2 0x4130 JUMP JUMPDEST PUSH2 0x19CA JUMP JUMPDEST STOP JUMPDEST CALLVALUE DUP1 ISZERO PUSH2 0x62A JUMPI PUSH1 0x0 DUP1 REVERT JUMPDEST POP PUSH2 0x633 PUSH2 0x1CAE JUMP JUMPDEST PUSH1 0x40 MLOAD PUSH2 0x640 SWAP2 SWAP1 PUSH2 0x4705 JUMP JUMPDEST PUSH1 0x40 MLOAD DUP1 SWAP2 SUB SWAP1 RETURN JUMPDEST PUSH2 0x663 PUSH1 0x4 DUP1 CALLDATASIZE SUB DUP2 ADD SWAP1 PUSH2 0x65E SWAP2 SWAP1 PUSH2 0x415D JUMP JUMPDEST PUSH2 0x1D5E JUMP JUMPDEST PUSH1 0x40 MLOAD PUSH2 0x670 SWAP2 SWAP1 PUSH2 0x49B3 JUMP JUMPDEST PUSH1 0x40 MLOAD DUP1 SWAP2 SUB SWAP1 RETURN JUMPDEST CALLVALUE DUP1 ISZERO PUSH2 0x685 JUMPI PUSH1 0x0 DUP1 REVERT JUMPDEST POP PUSH2 0x6A0 PUSH1 0x4 DUP1 CALLDATASIZE SUB DUP2 ADD SWAP1 PUSH2 0x69B SWAP2 SWAP1 PUSH2 0x4130 JUMP JUMPDEST PUSH2 0x22F8 JUMP JUMPDEST STOP JUMPDEST CALLVALUE DUP1 ISZERO PUSH2 0x6AE JUMPI PUSH1 0x0 DUP1 REVERT JUMPDEST POP PUSH2 0x6C9 PUSH1 0x4 DUP1 CALLDATASIZE SUB DUP2 ADD SWAP1 PUSH2 0x6C4 SWAP2 SWAP1 PUSH2 0x4239 JUMP JUMPDEST PUSH2 0x2CF1 JUMP JUMPDEST PUSH1 0x40 MLOAD PUSH2 0x6D6 SWAP2 SWAP1 PUSH2 0x46EA JUMP JUMPDEST PUSH1 0x40 MLOAD DUP1 SWAP2 SUB SWAP1 RETURN JUMPDEST CALLVALUE DUP1 ISZERO PUSH2 0x6EB JUMPI PUSH1 0x0 DUP1 REVERT JUMPDEST POP PUSH2 0x706 PUSH1 0x4 DUP1 CALLDATASIZE SUB DUP2 ADD SWAP1 PUSH2 0x701 SWAP2 SWAP1 PUSH2 0x415D JUMP JUMPDEST PUSH2 0x2D7E JUMP JUMPDEST STOP JUMPDEST CALLVALUE DUP1 ISZERO PUSH2 0x714 JUMPI PUSH1 0x0 DUP1 REVERT JUMPDEST POP PUSH2 0x72F PUSH1 0x4 DUP1 CALLDATASIZE SUB DUP2 ADD SWAP1 PUSH2 0x72A SWAP2 SWAP1 PUSH2 0x419D JUMP JUMPDEST PUSH2 0x3391 JUMP JUMPDEST STOP JUMPDEST CALLVALUE DUP1 ISZERO PUSH2 0x73D JUMPI PUSH1 0x0 DUP1 REVERT JUMPDEST POP PUSH2 0x746 PUSH2 0x349E JUMP JUMPDEST PUSH1 0x40 MLOAD PUSH2 0x753 SWAP2 SWAP1 PUSH2 0x49B3 JUMP JUMPDEST PUSH1 0x40 MLOAD DUP1 SWAP2 SUB SWAP1 RETURN JUMPDEST CALLVALUE DUP1 ISZERO PUSH2 0x768 JUMPI PUSH1 0x0 DUP1 REVERT JUMPDEST POP PUSH2 0x783 PUSH1 0x4 DUP1 CALLDATASIZE SUB DUP2 ADD SWAP1 PUSH2 0x77E SWAP2 SWAP1 PUSH2 0x4239 JUMP JUMPDEST PUSH2 0x34A4 JUMP JUMPDEST STOP JUMPDEST PUSH2 0x79F PUSH1 0x4 DUP1 CALLDATASIZE SUB DUP2 ADD SWAP1 PUSH2 0x79A SWAP2 SWAP1 PUSH2 0x4130 JUMP JUMPDEST PUSH2 0x359E JUMP JUMPDEST PUSH1 0x40 MLOAD PUSH2 0x7AC SWAP2 SWAP1 PUSH2 0x49B3 JUMP JUMPDEST PUSH1 0x40 MLOAD DUP1 SWAP2 SUB SWAP1 RETURN JUMPDEST CALLVALUE DUP1 ISZERO PUSH2 0x7C1 JUMPI PUSH1 0x0 DUP1 REVERT JUMPDEST POP PUSH2 0x7CA PUSH2 0x3B34 JUMP JUMPDEST PUSH1 0x40 MLOAD PUSH2 0x7D7 SWAP2 SWAP1 PUSH2 0x46EA JUMP JUMPDEST PUSH1 0x40 MLOAD DUP1 SWAP2 SUB SWAP1 RETURN JUMPDEST CALLVALUE DUP1 ISZERO PUSH2 0x7EC JUMPI PUSH1 0x0 DUP1 REVERT JUMPDEST POP PUSH2 0x7F5 PUSH2 0x3B47 JUMP JUMPDEST PUSH1 0x40 MLOAD PUSH2 0x802 SWAP2 SWAP1 PUSH2 0x46A6 JUMP JUMPDEST PUSH1 0x40 MLOAD DUP1 SWAP2 SUB SWAP1 RETURN JUMPDEST CALLVALUE DUP1 ISZERO PUSH2 0x817 JUMPI PUSH1 0x0 DUP1 REVERT JUMPDEST POP PUSH2 0x832 PUSH1 0x4 DUP1 CALLDATASIZE SUB DUP2 ADD SWAP1 PUSH2 0x82D SWAP2 SWAP1 PUSH2 0x4130 JUMP JUMPDEST PUSH2 0x3B6D JUMP JUMPDEST PUSH1 0x40 MLOAD PUSH2 0x844 SWAP7 SWAP6 SWAP5 SWAP4 SWAP3 SWAP2 SWAP1 PUSH2 0x4A43 JUMP JUMPDEST PUSH1 0x40 MLOAD DUP1 SWAP2 SUB SWAP1 RETURN JUMPDEST PUSH1 0xF PUSH1 0x20 MSTORE DUP1 PUSH1 0x0 MSTORE PUSH1 0x40 PUSH1 0x0 KECCAK256 PUSH1 0x0 SWAP2 POP SWAP1 POP DUP1 PUSH1 0x0 ADD DUP1 SLOAD PUSH2 0x870 SWAP1 PUSH2 0x4E70 JUMP JUMPDEST DUP1 PUSH1 0x1F ADD PUSH1 0x20 DUP1 SWAP2 DIV MUL PUSH1 0x20 ADD PUSH1 0x40 MLOAD SWAP1 DUP2 ADD PUSH1 0x40 MSTORE DUP1 SWAP3 SWAP2 SWAP1 DUP2 DUP2 MSTORE PUSH1 0x20 ADD DUP3 DUP1 SLOAD PUSH2 0x89C SWAP1 PUSH2 0x4E70 JUMP JUMPDEST DUP1 ISZERO PUSH2 0x8E9 JUMPI DUP1 PUSH1 0x1F LT PUSH2 0x8BE JUMPI PUSH2 0x100 DUP1 DUP4 SLOAD DIV MUL DUP4 MSTORE SWAP2 PUSH1 0x20 ADD SWAP2 PUSH2 0x8E9 JUMP JUMPDEST DUP3 ADD SWAP2 SWAP1 PUSH1 0x0 MSTORE PUSH1 0x20 PUSH1 0x0 KECCAK256 SWAP1 JUMPDEST DUP2 SLOAD DUP2 MSTORE SWAP1 PUSH1 0x1 ADD SWAP1 PUSH1 0x20 ADD DUP1 DUP4 GT PUSH2 0x8CC JUMPI DUP3 SWAP1 SUB PUSH1 0x1F AND DUP3 ADD SWAP2 JUMPDEST POP POP POP POP POP SWAP1 DUP1 PUSH1 0x1 ADD DUP1 SLOAD PUSH2 0x8FE SWAP1 PUSH2 0x4E70 JUMP JUMPDEST DUP1 PUSH1 0x1F ADD PUSH1 0x20 DUP1 SWAP2 DIV MUL PUSH1 0x20 ADD PUSH1 0x40 MLOAD SWAP1 DUP2 ADD PUSH1 0x40 MSTORE DUP1 SWAP3 SWAP2 SWAP1 DUP2 DUP2 MSTORE PUSH1 0x20 ADD DUP3 DUP1 SLOAD PUSH2 0x92A SWAP1 PUSH2 0x4E70 JUMP JUMPDEST DUP1 ISZERO PUSH2 0x977 JUMPI DUP1 PUSH1 0x1F LT PUSH2 0x94C JUMPI PUSH2 0x100 DUP1 DUP4 SLOAD DIV MUL DUP4 MSTORE SWAP2 PUSH1 0x20 ADD SWAP2 PUSH2 0x977 JUMP JUMPDEST DUP3 ADD SWAP2 SWAP1 PUSH1 0x0 MSTORE PUSH1 0x20 PUSH1 0x0 KECCAK256 SWAP1 JUMPDEST DUP2 SLOAD DUP2 MSTORE SWAP1 PUSH1 0x1 ADD SWAP1 PUSH1 0x20 ADD DUP1 DUP4 GT PUSH2 0x95A JUMPI DUP3 SWAP1 SUB PUSH1 0x1F AND DUP3 ADD SWAP2 JUMPDEST POP POP POP POP POP SWAP1 DUP1 PUSH1 0x2 ADD SLOAD SWAP1 DUP1 PUSH1 0x3 ADD PUSH1 0x0 SWAP1 SLOAD SWAP1 PUSH2 0x100 EXP SWAP1 DIV PUSH1 0xFF AND SWAP1 POP DUP5 JUMP JUMPDEST DUP2 CALLER PUSH20 0xFFFFFFFFFFFFFFFFFFFFFFFFFFFFFFFFFFFFFFFF AND PUSH1 0xD PUSH1 0x0 DUP4 DUP2 MSTORE PUSH1 0x20 ADD SWAP1 DUP2 MSTORE PUSH1 0x20 ADD PUSH1 0x0 KECCAK256 PUSH1 0x7 ADD PUSH1 0x3 SWAP1 SLOAD SWAP1 PUSH2 0x100 EXP SWAP1 DIV PUSH20 0xFFFFFFFFFFFFFFFFFFFFFFFFFFFFFFFFFFFFFFFF AND PUSH20 0xFFFFFFFFFFFFFFFFFFFFFFFFFFFFFFFFFFFFFFFF AND EQ DUP1 PUSH2 0xA6C JUMPI POP CALLER PUSH20 0xFFFFFFFFFFFFFFFFFFFFFFFFFFFFFFFFFFFFFFFF AND PUSH1 0xD PUSH1 0x0 DUP4 DUP2 MSTORE PUSH1 0x20 ADD SWAP1 DUP2 MSTORE PUSH1 0x20 ADD PUSH1 0x0 KECCAK256 PUSH1 0x8 ADD PUSH1 0x0 SWAP1 SLOAD SWAP1 PUSH2 0x100 EXP SWAP1 DIV PUSH20 0xFFFFFFFFFFFFFFFFFFFFFFFFFFFFFFFFFFFFFFFF AND PUSH20 0xFFFFFFFFFFFFFFFFFFFFFFFFFFFFFFFFFFFFFFFF AND EQ JUMPDEST PUSH2 0xAAB JUMPI PUSH1 0x40 MLOAD PUSH32 0x8C379A000000000000000000000000000000000000000000000000000000000 DUP2 MSTORE PUSH1 0x4 ADD PUSH2 0xAA2 SWAP1 PUSH2 0x4893 JUMP JUMPDEST PUSH1 0x40 MLOAD DUP1 SWAP2 SUB SWAP1 REVERT JUMPDEST PUSH1 0x1 ISZERO ISZERO PUSH1 0xF PUSH1 0x0 DUP6 DUP2 MSTORE PUSH1 0x20 ADD SWAP1 DUP2 MSTORE PUSH1 0x20 ADD PUSH1 0x0 KECCAK256 PUSH1 0x3 ADD PUSH1 0x0 SWAP1 SLOAD SWAP1 PUSH2 0x100 EXP SWAP1 DIV PUSH1 0xFF AND ISZERO ISZERO EQ PUSH2 0xB15 JUMPI PUSH1 0x40 MLOAD PUSH32 0x8C379A000000000000000000000000000000000000000000000000000000000 DUP2 MSTORE PUSH1 0x4 ADD PUSH2 0xB0C SWAP1 PUSH2 0x48F3 JUMP JUMPDEST PUSH1 0x40 MLOAD DUP1 SWAP2 SUB SWAP1 REVERT JUMPDEST PUSH1 0xD PUSH1 0x0 DUP5 DUP2 MSTORE PUSH1 0x20 ADD SWAP1 DUP2 MSTORE PUSH1 0x20 ADD PUSH1 0x0 KECCAK256 PUSH1 0x7 ADD PUSH1 0x3 SWAP1 SLOAD SWAP1 PUSH2 0x100 EXP SWAP1 DIV PUSH20 0xFFFFFFFFFFFFFFFFFFFFFFFFFFFFFFFFFFFFFFFF AND PUSH20 0xFFFFFFFFFFFFFFFFFFFFFFFFFFFFFFFFFFFFFFFF AND CALLER PUSH20 0xFFFFFFFFFFFFFFFFFFFFFFFFFFFFFFFFFFFFFFFF AND EQ ISZERO PUSH2 0xBAF JUMPI DUP2 PUSH1 0xF PUSH1 0x0 DUP6 DUP2 MSTORE PUSH1 0x20 ADD SWAP1 DUP2 MSTORE PUSH1 0x20 ADD PUSH1 0x0 KECCAK256 PUSH1 0x0 ADD SWAP1 DUP1 MLOAD SWAP1 PUSH1 0x20 ADD SWAP1 PUSH2 0xBA9 SWAP3 SWAP2 SWAP1 PUSH2 0x3D33 JUMP JUMPDEST POP PUSH2 0xC46 JUMP JUMPDEST PUSH1 0xD PUSH1 0x0 DUP5 DUP2 MSTORE PUSH1 0x20 ADD SWAP1 DUP2 MSTORE PUSH1 0x20 ADD PUSH1 0x0 KECCAK256 PUSH1 0x8 ADD PUSH1 0x0 SWAP1 SLOAD SWAP1 PUSH2 0x100 EXP SWAP1 DIV PUSH20 0xFFFFFFFFFFFFFFFFFFFFFFFFFFFFFFFFFFFFFFFF AND PUSH20 0xFFFFFFFFFFFFFFFFFFFFFFFFFFFFFFFFFFFFFFFF AND CALLER PUSH20 0xFFFFFFFFFFFFFFFFFFFFFFFFFFFFFFFFFFFFFFFF AND EQ ISZERO PUSH2 0xC45 JUMPI DUP2 PUSH1 0xF PUSH1 0x0 DUP6 DUP2 MSTORE PUSH1 0x20 ADD SWAP1 DUP2 MSTORE PUSH1 0x20 ADD PUSH1 0x0 KECCAK256 PUSH1 0x1 ADD SWAP1 DUP1 MLOAD SWAP1 PUSH1 0x20 ADD SWAP1 PUSH2 0xC43 SWAP3 SWAP2 SWAP1 PUSH2 0x3D33 JUMP JUMPDEST POP JUMPDEST JUMPDEST PUSH32 0x29A00CD7B143153A043355A38ED7FA14305CD81468035C2E2E389897F38980D8 DUP4 PUSH1 0x40 MLOAD PUSH2 0xC75 SWAP2 SWAP1 PUSH2 0x49B3 JUMP JUMPDEST PUSH1 0x40 MLOAD DUP1 SWAP2 SUB SWAP1 LOG1 POP POP POP JUMP JUMPDEST PUSH1 0x9 SLOAD DUP2 JUMP JUMPDEST PUSH1 0x10 PUSH1 0x20 MSTORE DUP1 PUSH1 0x0 MSTORE PUSH1 0x40 PUSH1 0x0 KECCAK256 PUSH1 0x0 SWAP2 POP SWAP1 POP DUP1 PUSH1 0x0 ADD SLOAD SWAP1 DUP1 PUSH1 0x1 ADD SLOAD SWAP1 DUP1 PUSH1 0x2 ADD SLOAD SWAP1 POP DUP4 JUMP JUMPDEST PUSH1 0x5 PUSH1 0x0 SWAP1 SLOAD SWAP1 PUSH2 0x100 EXP SWAP1 DIV PUSH20 0xFFFFFFFFFFFFFFFFFFFFFFFFFFFFFFFFFFFFFFFF AND DUP2 JUMP JUMPDEST PUSH1 0x0 SLOAD DUP2 JUMP JUMPDEST PUSH1 0xA SLOAD DUP2 JUMP JUMPDEST PUSH1 0x3 PUSH1 0x0 SWAP1 SLOAD SWAP1 PUSH2 0x100 EXP SWAP1 DIV PUSH20 0xFFFFFFFFFFFFFFFFFFFFFFFFFFFFFFFFFFFFFFFF AND PUSH20 0xFFFFFFFFFFFFFFFFFFFFFFFFFFFFFFFFFFFFFFFF AND CALLER PUSH20 0xFFFFFFFFFFFFFFFFFFFFFFFFFFFFFFFFFFFFFFFF AND EQ PUSH2 0xD74 JUMPI PUSH1 0x40 MLOAD PUSH32 0x8C379A000000000000000000000000000000000000000000000000000000000 DUP2 MSTORE PUSH1 0x4 ADD PUSH2 0xD6B SWAP1 PUSH2 0x4973 JUMP JUMPDEST PUSH1 0x40 MLOAD DUP1 SWAP2 SUB SWAP1 REVERT JUMPDEST PUSH1 0x0 DUP3 EQ ISZERO PUSH2 0xDC3 JUMPI DUP1 PUSH1 0x4 PUSH1 0x0 PUSH2 0x100 EXP DUP2 SLOAD DUP2 PUSH20 0xFFFFFFFFFFFFFFFFFFFFFFFFFFFFFFFFFFFFFFFF MUL NOT AND SWAP1 DUP4 PUSH20 0xFFFFFFFFFFFFFFFFFFFFFFFFFFFFFFFFFFFFFFFF AND MUL OR SWAP1 SSTORE POP PUSH2 0xEAF JUMP JUMPDEST PUSH1 0x1 DUP3 EQ ISZERO PUSH2 0xE12 JUMPI DUP1 PUSH1 0x3 PUSH1 0x0 PUSH2 0x100 EXP DUP2 SLOAD DUP2 PUSH20 0xFFFFFFFFFFFFFFFFFFFFFFFFFFFFFFFFFFFFFFFF MUL NOT AND SWAP1 DUP4 PUSH20 0xFFFFFFFFFFFFFFFFFFFFFFFFFFFFFFFFFFFFFFFF AND MUL OR SWAP1 SSTORE POP PUSH2 0xEAE JUMP JUMPDEST PUSH1 0x2 DUP3 EQ ISZERO PUSH2 0xE61 JUMPI DUP1 PUSH1 0x5 PUSH1 0x0 PUSH2 0x100 EXP DUP2 SLOAD DUP2 PUSH20 0xFFFFFFFFFFFFFFFFFFFFFFFFFFFFFFFFFFFFFFFF MUL NOT AND SWAP1 DUP4 PUSH20 0xFFFFFFFFFFFFFFFFFFFFFFFFFFFFFFFFFFFFFFFF AND MUL OR SWAP1 SSTORE POP PUSH2 0xEAD JUMP JUMPDEST PUSH1 0x3 DUP3 EQ ISZERO PUSH2 0xEAC JUMPI DUP1 PUSH1 0x6 PUSH1 0x0 PUSH2 0x100 EXP DUP2 SLOAD DUP2 PUSH20 0xFFFFFFFFFFFFFFFFFFFFFFFFFFFFFFFFFFFFFFFF MUL NOT AND SWAP1 DUP4 PUSH20 0xFFFFFFFFFFFFFFFFFFFFFFFFFFFFFFFFFFFFFFFF AND MUL OR SWAP1 SSTORE POP JUMPDEST JUMPDEST JUMPDEST JUMPDEST POP POP JUMP JUMPDEST PUSH1 0x3 PUSH1 0x0 SWAP1 SLOAD SWAP1 PUSH2 0x100 EXP SWAP1 DIV PUSH20 0xFFFFFFFFFFFFFFFFFFFFFFFFFFFFFFFFFFFFFFFF AND PUSH20 0xFFFFFFFFFFFFFFFFFFFFFFFFFFFFFFFFFFFFFFFF AND CALLER PUSH20 0xFFFFFFFFFFFFFFFFFFFFFFFFFFFFFFFFFFFFFFFF AND EQ PUSH2 0xF43 JUMPI PUSH1 0x40 MLOAD PUSH32 0x8C379A000000000000000000000000000000000000000000000000000000000 DUP2 MSTORE PUSH1 0x4 ADD PUSH2 0xF3A SWAP1 PUSH2 0x4933 JUMP JUMPDEST PUSH1 0x40 MLOAD DUP1 SWAP2 SUB SWAP1 REVERT JUMPDEST DUP1 PUSH1 0xB PUSH1 0x0 PUSH2 0x100 EXP DUP2 SLOAD DUP2 PUSH1 0xFF MUL NOT AND SWAP1 DUP4 ISZERO ISZERO MUL OR SWAP1 SSTORE POP POP JUMP JUMPDEST PUSH1 0xE PUSH1 0x20 MSTORE DUP2 PUSH1 0x0 MSTORE PUSH1 0x40 PUSH1 0x0 KECCAK256 PUSH1 0x20 MSTORE DUP1 PUSH1 0x0 MSTORE PUSH1 0x40 PUSH1 0x0 KECCAK256 PUSH1 0x0 SWAP2 POP SWAP2 POP SWAP1 SLOAD SWAP1 PUSH2 0x100 EXP SWAP1 DIV PUSH1 0xFF AND DUP2 JUMP JUMPDEST PUSH1 0xD PUSH1 0x0 DUP3 DUP2 MSTORE PUSH1 0x20 ADD SWAP1 DUP2 MSTORE PUSH1 0x20 ADD PUSH1 0x0 KECCAK256 PUSH1 0x8 ADD PUSH1 0x0 SWAP1 SLOAD SWAP1 PUSH2 0x100 EXP SWAP1 DIV PUSH20 0xFFFFFFFFFFFFFFFFFFFFFFFFFFFFFFFFFFFFFFFF AND PUSH20 0xFFFFFFFFFFFFFFFFFFFFFFFFFFFFFFFFFFFFFFFF AND CALLER PUSH20 0xFFFFFFFFFFFFFFFFFFFFFFFFFFFFFFFFFFFFFFFF AND EQ PUSH2 0x1033 JUMPI PUSH1 0x40 MLOAD PUSH32 0x8C379A000000000000000000000000000000000000000000000000000000000 DUP2 MSTORE PUSH1 0x4 ADD PUSH2 0x102A SWAP1 PUSH2 0x4833 JUMP JUMPDEST PUSH1 0x40 MLOAD DUP1 SWAP2 SUB SWAP1 REVERT JUMPDEST PUSH1 0x1 ISZERO ISZERO PUSH1 0xD PUSH1 0x0 DUP4 DUP2 MSTORE PUSH1 0x20 ADD SWAP1 DUP2 MSTORE PUSH1 0x20 ADD PUSH1 0x0 KECCAK256 PUSH1 0x7 ADD PUSH1 0x2 SWAP1 SLOAD SWAP1 PUSH2 0x100 EXP SWAP1 DIV PUSH1 0xFF AND ISZERO ISZERO EQ PUSH2 0x109D JUMPI PUSH1 0x40 MLOAD PUSH32 0x8C379A000000000000000000000000000000000000000000000000000000000 DUP2 MSTORE PUSH1 0x4 ADD PUSH2 0x1094 SWAP1 PUSH2 0x4853 JUMP JUMPDEST PUSH1 0x40 MLOAD DUP1 SWAP2 SUB SWAP1 REVERT JUMPDEST PUSH1 0x2 PUSH1 0xD PUSH1 0x0 DUP4 DUP2 MSTORE PUSH1 0x20 ADD SWAP1 DUP2 MSTORE PUSH1 0x20 ADD PUSH1 0x0 KECCAK256 PUSH1 0x7 ADD PUSH1 0x1 PUSH2 0x100 EXP DUP2 SLOAD DUP2 PUSH1 0xFF MUL NOT AND SWAP1 DUP4 PUSH1 0xFF AND MUL OR SWAP1 SSTORE POP PUSH1 0x2 PUSH1 0xD PUSH1 0x0 DUP4 DUP2 MSTORE PUSH1 0x20 ADD SWAP1 DUP2 MSTORE PUSH1 0x20 ADD PUSH1 0x0 KECCAK256 PUSH1 0x7 ADD PUSH1 0x0 PUSH2 0x100 EXP DUP2 SLOAD DUP2 PUSH1 0xFF MUL NOT AND SWAP1 DUP4 PUSH1 0xFF AND MUL OR SWAP1 SSTORE POP PUSH1 0x0 PUSH1 0xD PUSH1 0x0 DUP4 DUP2 MSTORE PUSH1 0x20 ADD SWAP1 DUP2 MSTORE PUSH1 0x20 ADD PUSH1 0x0 KECCAK256 PUSH1 0x7 ADD PUSH1 0x2 PUSH2 0x100 EXP DUP2 SLOAD DUP2 PUSH1 0xFF MUL NOT AND SWAP1 DUP4 ISZERO ISZERO MUL OR SWAP1 SSTORE POP PUSH1 0x1 PUSH1 0x10 PUSH1 0x0 PUSH1 0xD PUSH1 0x0 DUP6 DUP2 MSTORE PUSH1 0x20 ADD SWAP1 DUP2 MSTORE PUSH1 0x20 ADD PUSH1 0x0 KECCAK256 PUSH1 0x8 ADD PUSH1 0x0 SWAP1 SLOAD SWAP1 PUSH2 0x100 EXP SWAP1 DIV PUSH20 0xFFFFFFFFFFFFFFFFFFFFFFFFFFFFFFFFFFFFFFFF AND PUSH20 0xFFFFFFFFFFFFFFFFFFFFFFFFFFFFFFFFFFFFFFFF AND PUSH20 0xFFFFFFFFFFFFFFFFFFFFFFFFFFFFFFFFFFFFFFFF AND DUP2 MSTORE PUSH1 0x20 ADD SWAP1 DUP2 MSTORE PUSH1 0x20 ADD PUSH1 0x0 KECCAK256 PUSH1 0x0 ADD PUSH1 0x0 DUP3 DUP3 SLOAD PUSH2 0x11B5 SWAP2 SWAP1 PUSH2 0x4CA4 JUMP JUMPDEST SWAP3 POP POP DUP2 SWAP1 SSTORE POP PUSH1 0x0 DUP1 PUSH1 0xD PUSH1 0x0 DUP5 DUP2 MSTORE PUSH1 0x20 ADD SWAP1 DUP2 MSTORE PUSH1 0x20 ADD PUSH1 0x0 KECCAK256 PUSH1 0x7 ADD PUSH1 0x3 SWAP1 SLOAD SWAP1 PUSH2 0x100 EXP SWAP1 DIV PUSH20 0xFFFFFFFFFFFFFFFFFFFFFFFFFFFFFFFFFFFFFFFF AND PUSH20 0xFFFFFFFFFFFFFFFFFFFFFFFFFFFFFFFFFFFFFFFF AND PUSH1 0xD PUSH1 0x0 DUP6 DUP2 MSTORE PUSH1 0x20 ADD SWAP1 DUP2 MSTORE PUSH1 0x20 ADD PUSH1 0x0 KECCAK256 PUSH1 0x2 ADD SLOAD PUSH1 0x40 MLOAD PUSH2 0x122F SWAP1 PUSH2 0x4691 JUMP JUMPDEST PUSH1 0x0 PUSH1 0x40 MLOAD DUP1 DUP4 SUB DUP2 DUP6 DUP8 GAS CALL SWAP3 POP POP POP RETURNDATASIZE DUP1 PUSH1 0x0 DUP2 EQ PUSH2 0x126C JUMPI PUSH1 0x40 MLOAD SWAP2 POP PUSH1 0x1F NOT PUSH1 0x3F RETURNDATASIZE ADD AND DUP3 ADD PUSH1 0x40 MSTORE RETURNDATASIZE DUP3 MSTORE RETURNDATASIZE PUSH1 0x0 PUSH1 0x20 DUP5 ADD RETURNDATACOPY PUSH2 0x1271 JUMP JUMPDEST PUSH1 0x60 SWAP2 POP JUMPDEST POP SWAP2 POP SWAP2 POP DUP2 PUSH2 0x12B6 JUMPI PUSH1 0x40 MLOAD PUSH32 0x8C379A000000000000000000000000000000000000000000000000000000000 DUP2 MSTORE PUSH1 0x4 ADD PUSH2 0x12AD SWAP1 PUSH2 0x4793 JUMP JUMPDEST PUSH1 0x40 MLOAD DUP1 SWAP2 SUB SWAP1 REVERT JUMPDEST PUSH1 0x0 PUSH1 0xD PUSH1 0x0 DUP6 DUP2 MSTORE PUSH1 0x20 ADD SWAP1 DUP2 MSTORE PUSH1 0x20 ADD PUSH1 0x0 KECCAK256 PUSH1 0x4 ADD DUP2 SWAP1 SSTORE POP PUSH32 0xB8B459BC0688C37BAF5F735D17F1711684BC14AB7DB116F88BC18BF409B9309A DUP4 PUSH1 0x40 MLOAD PUSH2 0x1301 SWAP2 SWAP1 PUSH2 0x49B3 JUMP JUMPDEST PUSH1 0x40 MLOAD DUP1 SWAP2 SUB SWAP1 LOG1 POP POP POP JUMP JUMPDEST PUSH1 0x4 PUSH1 0x0 SWAP1 SLOAD SWAP1 PUSH2 0x100 EXP SWAP1 DIV PUSH20 0xFFFFFFFFFFFFFFFFFFFFFFFFFFFFFFFFFFFFFFFF AND DUP2 JUMP JUMPDEST PUSH1 0x8 SLOAD DUP2 JUMP JUMPDEST PUSH1 0x2 SLOAD DUP2 JUMP JUMPDEST PUSH1 0xD PUSH1 0x20 MSTORE DUP1 PUSH1 0x0 MSTORE PUSH1 0x40 PUSH1 0x0 KECCAK256 PUSH1 0x0 SWAP2 POP SWAP1 POP DUP1 PUSH1 0x0 ADD SLOAD SWAP1 DUP1 PUSH1 0x1 ADD SLOAD SWAP1 DUP1 PUSH1 0x2 ADD SLOAD SWAP1 DUP1 PUSH1 0x3 ADD SLOAD SWAP1 DUP1 PUSH1 0x4 ADD SLOAD SWAP1 DUP1 PUSH1 0x5 ADD SLOAD SWAP1 DUP1 PUSH1 0x6 ADD SLOAD SWAP1 DUP1 PUSH1 0x7 ADD PUSH1 0x0 SWAP1 SLOAD SWAP1 PUSH2 0x100 EXP SWAP1 DIV PUSH1 0xFF AND SWAP1 DUP1 PUSH1 0x7 ADD PUSH1 0x1 SWAP1 SLOAD SWAP1 PUSH2 0x100 EXP SWAP1 DIV PUSH1 0xFF AND SWAP1 DUP1 PUSH1 0x7 ADD PUSH1 0x2 SWAP1 SLOAD SWAP1 PUSH2 0x100 EXP SWAP1 DIV PUSH1 0xFF AND SWAP1 DUP1 PUSH1 0x7 ADD PUSH1 0x3 SWAP1 SLOAD SWAP1 PUSH2 0x100 EXP SWAP1 DIV PUSH20 0xFFFFFFFFFFFFFFFFFFFFFFFFFFFFFFFFFFFFFFFF AND SWAP1 DUP1 PUSH1 0x8 ADD PUSH1 0x0 SWAP1 SLOAD SWAP1 PUSH2 0x100 EXP SWAP1 DIV PUSH20 0xFFFFFFFFFFFFFFFFFFFFFFFFFFFFFFFFFFFFFFFF AND SWAP1 POP DUP13 JUMP JUMPDEST PUSH1 0x1 SLOAD DUP2 JUMP JUMPDEST PUSH1 0x0 PUSH1 0x1 PUSH1 0x0 DUP2 SLOAD DUP1 SWAP3 SWAP2 SWAP1 PUSH2 0x1422 SWAP1 PUSH2 0x4ED3 JUMP JUMPDEST SWAP2 SWAP1 POP SSTORE POP PUSH2 0x142F PUSH2 0x3DB9 JUMP JUMPDEST PUSH1 0x1 SLOAD DUP2 PUSH1 0x0 ADD DUP2 DUP2 MSTORE POP POP DUP6 DUP2 PUSH1 0x20 ADD DUP2 SWAP1 MSTORE POP DUP5 DUP2 PUSH1 0x40 ADD SWAP1 ISZERO ISZERO SWAP1 DUP2 ISZERO ISZERO DUP2 MSTORE POP POP DUP4 DUP2 PUSH1 0x60 ADD DUP2 DUP2 MSTORE POP POP CALLER DUP2 PUSH1 0x80 ADD SWAP1 PUSH20 0xFFFFFFFFFFFFFFFFFFFFFFFFFFFFFFFFFFFFFFFF AND SWAP1 DUP2 PUSH20 0xFFFFFFFFFFFFFFFFFFFFFFFFFFFFFFFFFFFFFFFF AND DUP2 MSTORE POP POP DUP3 DUP2 PUSH1 0xA0 ADD DUP2 DUP2 MSTORE POP POP DUP1 PUSH1 0xC PUSH1 0x0 DUP4 PUSH1 0x0 ADD MLOAD DUP2 MSTORE PUSH1 0x20 ADD SWAP1 DUP2 MSTORE PUSH1 0x20 ADD PUSH1 0x0 KECCAK256 PUSH1 0x0 DUP3 ADD MLOAD DUP2 PUSH1 0x0 ADD SSTORE PUSH1 0x20 DUP3 ADD MLOAD DUP2 PUSH1 0x1 ADD SWAP1 DUP1 MLOAD SWAP1 PUSH1 0x20 ADD SWAP1 PUSH2 0x14DE SWAP3 SWAP2 SWAP1 PUSH2 0x3D33 JUMP JUMPDEST POP PUSH1 0x40 DUP3 ADD MLOAD DUP2 PUSH1 0x2 ADD PUSH1 0x0 PUSH2 0x100 EXP DUP2 SLOAD DUP2 PUSH1 0xFF MUL NOT AND SWAP1 DUP4 ISZERO ISZERO MUL OR SWAP1 SSTORE POP PUSH1 0x60 DUP3 ADD MLOAD DUP2 PUSH1 0x3 ADD SSTORE PUSH1 0x80 DUP3 ADD MLOAD DUP2 PUSH1 0x4 ADD PUSH1 0x0 PUSH2 0x100 EXP DUP2 SLOAD DUP2 PUSH20 0xFFFFFFFFFFFFFFFFFFFFFFFFFFFFFFFFFFFFFFFF MUL NOT AND SWAP1 DUP4 PUSH20 0xFFFFFFFFFFFFFFFFFFFFFFFFFFFFFFFFFFFFFFFF AND MUL OR SWAP1 SSTORE POP PUSH1 0xA0 DUP3 ADD MLOAD DUP2 PUSH1 0x5 ADD SSTORE SWAP1 POP POP PUSH32 0x1603F20F721362B0691BB408EDB3CF01409CD56DA9EDD4627B178750B7DD49A8 DUP2 PUSH1 0x0 ADD MLOAD DUP3 PUSH1 0x80 ADD MLOAD DUP4 PUSH1 0x20 ADD MLOAD DUP5 PUSH1 0xA0 ADD MLOAD PUSH1 0x40 MLOAD PUSH2 0x15A2 SWAP5 SWAP4 SWAP3 SWAP2 SWAP1 PUSH2 0x49F7 JUMP JUMPDEST PUSH1 0x40 MLOAD DUP1 SWAP2 SUB SWAP1 LOG1 DUP1 PUSH1 0x0 ADD MLOAD SWAP2 POP POP SWAP5 SWAP4 POP POP POP POP JUMP JUMPDEST PUSH1 0x6 PUSH1 0x0 SWAP1 SLOAD SWAP1 PUSH2 0x100 EXP SWAP1 DIV PUSH20 0xFFFFFFFFFFFFFFFFFFFFFFFFFFFFFFFFFFFFFFFF AND DUP2 JUMP JUMPDEST PUSH1 0x1 ISZERO ISZERO PUSH1 0xC PUSH1 0x0 DUP4 DUP2 MSTORE PUSH1 0x20 ADD SWAP1 DUP2 MSTORE PUSH1 0x20 ADD PUSH1 0x0 KECCAK256 PUSH1 0x2 ADD PUSH1 0x0 SWAP1 SLOAD SWAP1 PUSH2 0x100 EXP SWAP1 DIV PUSH1 0xFF AND ISZERO ISZERO EQ PUSH2 0x164A JUMPI PUSH1 0x40 MLOAD PUSH32 0x8C379A000000000000000000000000000000000000000000000000000000000 DUP2 MSTORE PUSH1 0x4 ADD PUSH2 0x1641 SWAP1 PUSH2 0x48B3 JUMP JUMPDEST PUSH1 0x40 MLOAD DUP1 SWAP2 SUB SWAP1 REVERT JUMPDEST PUSH1 0x0 ISZERO ISZERO PUSH1 0xE PUSH1 0x0 CALLER PUSH20 0xFFFFFFFFFFFFFFFFFFFFFFFFFFFFFFFFFFFFFFFF AND PUSH20 0xFFFFFFFFFFFFFFFFFFFFFFFFFFFFFFFFFFFFFFFF AND DUP2 MSTORE PUSH1 0x20 ADD SWAP1 DUP2 MSTORE PUSH1 0x20 ADD PUSH1 0x0 KECCAK256 PUSH1 0x0 DUP4 DUP2 MSTORE PUSH1 0x20 ADD SWAP1 DUP2 MSTORE PUSH1 0x20 ADD PUSH1 0x0 KECCAK256 PUSH1 0x0 SWAP1 SLOAD SWAP1 PUSH2 0x100 EXP SWAP1 DIV PUSH1 0xFF AND ISZERO ISZERO EQ PUSH2 0x16EE JUMPI PUSH1 0x40 MLOAD PUSH32 0x8C379A000000000000000000000000000000000000000000000000000000000 DUP2 MSTORE PUSH1 0x4 ADD PUSH2 0x16E5 SWAP1 PUSH2 0x4953 JUMP JUMPDEST PUSH1 0x40 MLOAD DUP1 SWAP2 SUB SWAP1 REVERT JUMPDEST PUSH1 0x1 PUSH1 0xC PUSH1 0x0 DUP4 DUP2 MSTORE PUSH1 0x20 ADD SWAP1 DUP2 MSTORE PUSH1 0x20 ADD PUSH1 0x0 KECCAK256 PUSH1 0x5 ADD SLOAD EQ PUSH2 0x1747 JUMPI PUSH1 0x40 MLOAD PUSH32 0x8C379A000000000000000000000000000000000000000000000000000000000 DUP2 MSTORE PUSH1 0x4 ADD PUSH2 0x173E SWAP1 PUSH2 0x47F3 JUMP JUMPDEST PUSH1 0x40 MLOAD DUP1 SWAP2 SUB SWAP1 REVERT JUMPDEST PUSH1 0xC PUSH1 0x0 DUP3 DUP2 MSTORE PUSH1 0x20 ADD SWAP1 DUP2 MSTORE PUSH1 0x20 ADD PUSH1 0x0 KECCAK256 PUSH1 0x4 ADD PUSH1 0x0 SWAP1 SLOAD SWAP1 PUSH2 0x100 EXP SWAP1 DIV PUSH20 0xFFFFFFFFFFFFFFFFFFFFFFFFFFFFFFFFFFFFFFFF AND PUSH20 0xFFFFFFFFFFFFFFFFFFFFFFFFFFFFFFFFFFFFFFFF AND CALLER PUSH20 0xFFFFFFFFFFFFFFFFFFFFFFFFFFFFFFFFFFFFFFFF AND EQ ISZERO PUSH2 0x17EC JUMPI PUSH1 0x40 MLOAD PUSH32 0x8C379A000000000000000000000000000000000000000000000000000000000 DUP2 MSTORE PUSH1 0x4 ADD PUSH2 0x17E3 SWAP1 PUSH2 0x4813 JUMP JUMPDEST PUSH1 0x40 MLOAD DUP1 SWAP2 SUB SWAP1 REVERT JUMPDEST PUSH1 0x1 PUSH1 0xE PUSH1 0x0 CALLER PUSH20 0xFFFFFFFFFFFFFFFFFFFFFFFFFFFFFFFFFFFFFFFF AND PUSH20 0xFFFFFFFFFFFFFFFFFFFFFFFFFFFFFFFFFFFFFFFF AND DUP2 MSTORE PUSH1 0x20 ADD SWAP1 DUP2 MSTORE PUSH1 0x20 ADD PUSH1 0x0 KECCAK256 PUSH1 0x0 DUP4 DUP2 MSTORE PUSH1 0x20 ADD SWAP1 DUP2 MSTORE PUSH1 0x20 ADD PUSH1 0x0 KECCAK256 PUSH1 0x0 PUSH2 0x100 EXP DUP2 SLOAD DUP2 PUSH1 0xFF MUL NOT AND SWAP1 DUP4 ISZERO ISZERO MUL OR SWAP1 SSTORE POP PUSH32 0xB9FC72AB4A132463342124FB4C5EBD64BEE8A9874C05D37F846EAF5758EFF4B2 DUP2 CALLER PUSH1 0x40 MLOAD PUSH2 0x1886 SWAP3 SWAP2 SWAP1 PUSH2 0x49CE JUMP JUMPDEST PUSH1 0x40 MLOAD DUP1 SWAP2 SUB SWAP1 LOG1 POP JUMP JUMPDEST PUSH1 0x11 PUSH1 0x20 MSTORE DUP2 PUSH1 0x0 MSTORE PUSH1 0x40 PUSH1 0x0 KECCAK256 PUSH1 0x20 MSTORE DUP1 PUSH1 0x0 MSTORE PUSH1 0x40 PUSH1 0x0 KECCAK256 PUSH1 0x0 SWAP2 POP SWAP2 POP SWAP1 SLOAD SWAP1 PUSH2 0x100 EXP SWAP1 DIV PUSH1 0xFF AND DUP2 JUMP JUMPDEST PUSH1 0xC PUSH1 0x0 DUP4 DUP2 MSTORE PUSH1 0x20 ADD SWAP1 DUP2 MSTORE PUSH1 0x20 ADD PUSH1 0x0 KECCAK256 PUSH1 0x4 ADD PUSH1 0x0 SWAP1 SLOAD SWAP1 PUSH2 0x100 EXP SWAP1 DIV PUSH20 0xFFFFFFFFFFFFFFFFFFFFFFFFFFFFFFFFFFFFFFFF AND PUSH20 0xFFFFFFFFFFFFFFFFFFFFFFFFFFFFFFFFFFFFFFFF AND CALLER PUSH20 0xFFFFFFFFFFFFFFFFFFFFFFFFFFFFFFFFFFFFFFFF AND EQ PUSH2 0x1964 JUMPI PUSH1 0x40 MLOAD PUSH32 0x8C379A000000000000000000000000000000000000000000000000000000000 DUP2 MSTORE PUSH1 0x4 ADD PUSH2 0x195B SWAP1 PUSH2 0x4873 JUMP JUMPDEST PUSH1 0x40 MLOAD DUP1 SWAP2 SUB SWAP1 REVERT JUMPDEST DUP1 PUSH1 0xC PUSH1 0x0 DUP5 DUP2 MSTORE PUSH1 0x20 ADD SWAP1 DUP2 MSTORE PUSH1 0x20 ADD PUSH1 0x0 KECCAK256 PUSH1 0x1 ADD SWAP1 DUP1 MLOAD SWAP1 PUSH1 0x20 ADD SWAP1 PUSH2 0x198E SWAP3 SWAP2 SWAP1 PUSH2 0x3D33 JUMP JUMPDEST POP PUSH32 0x5E58DFA592B09C585A4AB7EF8158D20B1E52E9897F3095DBE1DF700853905C2F DUP3 PUSH1 0x40 MLOAD PUSH2 0x19BE SWAP2 SWAP1 PUSH2 0x49B3 JUMP JUMPDEST PUSH1 0x40 MLOAD DUP1 SWAP2 SUB SWAP1 LOG1 POP POP JUMP JUMPDEST DUP1 CALLER PUSH20 0xFFFFFFFFFFFFFFFFFFFFFFFFFFFFFFFFFFFFFFFF AND PUSH1 0xD PUSH1 0x0 DUP4 DUP2 MSTORE PUSH1 0x20 ADD SWAP1 DUP2 MSTORE PUSH1 0x20 ADD PUSH1 0x0 KECCAK256 PUSH1 0x7 ADD PUSH1 0x3 SWAP1 SLOAD SWAP1 PUSH2 0x100 EXP SWAP1 DIV PUSH20 0xFFFFFFFFFFFFFFFFFFFFFFFFFFFFFFFFFFFFFFFF AND PUSH20 0xFFFFFFFFFFFFFFFFFFFFFFFFFFFFFFFFFFFFFFFF AND EQ DUP1 PUSH2 0x1A9C JUMPI POP CALLER PUSH20 0xFFFFFFFFFFFFFFFFFFFFFFFFFFFFFFFFFFFFFFFF AND PUSH1 0xD PUSH1 0x0 DUP4 DUP2 MSTORE PUSH1 0x20 ADD SWAP1 DUP2 MSTORE PUSH1 0x20 ADD PUSH1 0x0 KECCAK256 PUSH1 0x8 ADD PUSH1 0x0 SWAP1 SLOAD SWAP1 PUSH2 0x100 EXP SWAP1 DIV PUSH20 0xFFFFFFFFFFFFFFFFFFFFFFFFFFFFFFFFFFFFFFFF AND PUSH20 0xFFFFFFFFFFFFFFFFFFFFFFFFFFFFFFFFFFFFFFFF AND EQ JUMPDEST PUSH2 0x1ADB JUMPI PUSH1 0x40 MLOAD PUSH32 0x8C379A000000000000000000000000000000000000000000000000000000000 DUP2 MSTORE PUSH1 0x4 ADD PUSH2 0x1AD2 SWAP1 PUSH2 0x4893 JUMP JUMPDEST PUSH1 0x40 MLOAD DUP1 SWAP2 SUB SWAP1 REVERT JUMPDEST PUSH1 0x1 ISZERO ISZERO PUSH1 0xD PUSH1 0x0 DUP5 DUP2 MSTORE PUSH1 0x20 ADD SWAP1 DUP2 MSTORE PUSH1 0x20 ADD PUSH1 0x0 KECCAK256 PUSH1 0x7 ADD PUSH1 0x2 SWAP1 SLOAD SWAP1 PUSH2 0x100 EXP SWAP1 DIV PUSH1 0xFF AND ISZERO ISZERO EQ PUSH2 0x1B45 JUMPI PUSH1 0x40 MLOAD PUSH32 0x8C379A000000000000000000000000000000000000000000000000000000000 DUP2 MSTORE PUSH1 0x4 ADD PUSH2 0x1B3C SWAP1 PUSH2 0x4853 JUMP JUMPDEST PUSH1 0x40 MLOAD DUP1 SWAP2 SUB SWAP1 REVERT JUMPDEST PUSH1 0x3 PUSH1 0xD PUSH1 0x0 DUP5 DUP2 MSTORE PUSH1 0x20 ADD SWAP1 DUP2 MSTORE PUSH1 0x20 ADD PUSH1 0x0 KECCAK256 PUSH1 0x7 ADD PUSH1 0x1 PUSH2 0x100 EXP DUP2 SLOAD DUP2 PUSH1 0xFF MUL NOT AND SWAP1 DUP4 PUSH1 0xFF AND MUL OR SWAP1 SSTORE POP PUSH1 0x3 PUSH1 0xD PUSH1 0x0 DUP5 DUP2 MSTORE PUSH1 0x20 ADD SWAP1 DUP2 MSTORE PUSH1 0x20 ADD PUSH1 0x0 KECCAK256 PUSH1 0x7 ADD PUSH1 0x0 PUSH2 0x100 EXP DUP2 SLOAD DUP2 PUSH1 0xFF MUL NOT AND SWAP1 DUP4 PUSH1 0xFF AND MUL OR SWAP1 SSTORE POP PUSH1 0x0 PUSH1 0xD PUSH1 0x0 DUP5 DUP2 MSTORE PUSH1 0x20 ADD SWAP1 DUP2 MSTORE PUSH1 0x20 ADD PUSH1 0x0 KECCAK256 PUSH1 0x7 ADD PUSH1 0x2 PUSH2 0x100 EXP DUP2 SLOAD DUP2 PUSH1 0xFF MUL NOT AND SWAP1 DUP4 ISZERO ISZERO MUL OR SWAP1 SSTORE POP PUSH2 0x1BDC PUSH2 0x3E07 JUMP JUMPDEST NUMBER DUP2 PUSH1 0x40 ADD DUP2 DUP2 MSTORE POP POP PUSH1 0x1 DUP2 PUSH1 0x60 ADD SWAP1 ISZERO ISZERO SWAP1 DUP2 ISZERO ISZERO DUP2 MSTORE POP POP DUP1 PUSH1 0xF PUSH1 0x0 DUP6 DUP2 MSTORE PUSH1 0x20 ADD SWAP1 DUP2 MSTORE PUSH1 0x20 ADD PUSH1 0x0 KECCAK256 PUSH1 0x0 DUP3 ADD MLOAD DUP2 PUSH1 0x0 ADD SWAP1 DUP1 MLOAD SWAP1 PUSH1 0x20 ADD SWAP1 PUSH2 0x1C27 SWAP3 SWAP2 SWAP1 PUSH2 0x3D33 JUMP JUMPDEST POP PUSH1 0x20 DUP3 ADD MLOAD DUP2 PUSH1 0x1 ADD SWAP1 DUP1 MLOAD SWAP1 PUSH1 0x20 ADD SWAP1 PUSH2 0x1C44 SWAP3 SWAP2 SWAP1 PUSH2 0x3D33 JUMP JUMPDEST POP PUSH1 0x40 DUP3 ADD MLOAD DUP2 PUSH1 0x2 ADD SSTORE PUSH1 0x60 DUP3 ADD MLOAD DUP2 PUSH1 0x3 ADD PUSH1 0x0 PUSH2 0x100 EXP DUP2 SLOAD DUP2 PUSH1 0xFF MUL NOT AND SWAP1 DUP4 ISZERO ISZERO MUL OR SWAP1 SSTORE POP SWAP1 POP POP PUSH32 0xBE50084412C1B5B360C595D895466A9298980A464614CE7FD487FB4C7421F426 DUP4 PUSH1 0x40 MLOAD PUSH2 0x1CA1 SWAP2 SWAP1 PUSH2 0x49B3 JUMP JUMPDEST PUSH1 0x40 MLOAD DUP1 SWAP2 SUB SWAP1 LOG1 POP POP POP JUMP JUMPDEST PUSH1 0x0 DUP1 PUSH1 0x6 PUSH1 0x0 SWAP1 SLOAD SWAP1 PUSH2 0x100 EXP SWAP1 DIV PUSH20 0xFFFFFFFFFFFFFFFFFFFFFFFFFFFFFFFFFFFFFFFF AND PUSH20 0xFFFFFFFFFFFFFFFFFFFFFFFFFFFFFFFFFFFFFFFF AND PUSH4 0xFEAF968C PUSH1 0x40 MLOAD DUP2 PUSH4 0xFFFFFFFF AND PUSH1 0xE0 SHL DUP2 MSTORE PUSH1 0x4 ADD PUSH1 0xA0 PUSH1 0x40 MLOAD DUP1 DUP4 SUB DUP2 DUP7 DUP1 EXTCODESIZE ISZERO DUP1 ISZERO PUSH2 0x1D19 JUMPI PUSH1 0x0 DUP1 REVERT JUMPDEST POP GAS STATICCALL ISZERO DUP1 ISZERO PUSH2 0x1D2D JUMPI RETURNDATASIZE PUSH1 0x0 DUP1 RETURNDATACOPY RETURNDATASIZE PUSH1 0x0 REVERT JUMPDEST POP POP POP POP PUSH1 0x40 MLOAD RETURNDATASIZE PUSH1 0x1F NOT PUSH1 0x1F DUP3 ADD AND DUP3 ADD DUP1 PUSH1 0x40 MSTORE POP DUP2 ADD SWAP1 PUSH2 0x1D51 SWAP2 SWAP1 PUSH2 0x4279 JUMP JUMPDEST POP POP POP SWAP2 POP POP DUP1 SWAP2 POP POP SWAP1 JUMP JUMPDEST PUSH1 0x0 PUSH1 0xC PUSH1 0x0 DUP5 DUP2 MSTORE PUSH1 0x20 ADD SWAP1 DUP2 MSTORE PUSH1 0x20 ADD PUSH1 0x0 KECCAK256 PUSH1 0x4 ADD PUSH1 0x0 SWAP1 SLOAD SWAP1 PUSH2 0x100 EXP SWAP1 DIV PUSH20 0xFFFFFFFFFFFFFFFFFFFFFFFFFFFFFFFFFFFFFFFF AND PUSH20 0xFFFFFFFFFFFFFFFFFFFFFFFFFFFFFFFFFFFFFFFF AND CALLER PUSH20 0xFFFFFFFFFFFFFFFFFFFFFFFFFFFFFFFFFFFFFFFF AND EQ PUSH2 0x1E04 JUMPI PUSH1 0x40 MLOAD PUSH32 0x8C379A000000000000000000000000000000000000000000000000000000000 DUP2 MSTORE PUSH1 0x4 ADD PUSH2 0x1DFB SWAP1 PUSH2 0x4913 JUMP JUMPDEST PUSH1 0x40 MLOAD DUP1 SWAP2 SUB SWAP1 REVERT JUMPDEST PUSH1 0x1 ISZERO ISZERO PUSH1 0xE PUSH1 0x0 DUP5 PUSH20 0xFFFFFFFFFFFFFFFFFFFFFFFFFFFFFFFFFFFFFFFF AND PUSH20 0xFFFFFFFFFFFFFFFFFFFFFFFFFFFFFFFFFFFFFFFF AND DUP2 MSTORE PUSH1 0x20 ADD SWAP1 DUP2 MSTORE PUSH1 0x20 ADD PUSH1 0x0 KECCAK256 PUSH1 0x0 DUP6 DUP2 MSTORE PUSH1 0x20 ADD SWAP1 DUP2 MSTORE PUSH1 0x20 ADD PUSH1 0x0 KECCAK256 PUSH1 0x0 SWAP1 SLOAD SWAP1 PUSH2 0x100 EXP SWAP1 DIV PUSH1 0xFF AND ISZERO ISZERO EQ PUSH2 0x1EA8 JUMPI PUSH1 0x40 MLOAD PUSH32 0x8C379A000000000000000000000000000000000000000000000000000000000 DUP2 MSTORE PUSH1 0x4 ADD PUSH2 0x1E9F SWAP1 PUSH2 0x48D3 JUMP JUMPDEST PUSH1 0x40 MLOAD DUP1 SWAP2 SUB SWAP1 REVERT JUMPDEST PUSH1 0x0 DUP1 DUP2 SLOAD DUP1 SWAP3 SWAP2 SWAP1 PUSH2 0x1EBA SWAP1 PUSH2 0x4ED3 JUMP JUMPDEST SWAP2 SWAP1 POP SSTORE POP PUSH2 0x1EC7 PUSH2 0x3E31 JUMP JUMPDEST PUSH2 0x1ECF PUSH2 0x1CAE JUMP JUMPDEST DUP2 PUSH1 0xC0 ADD DUP2 DUP2 MSTORE POP POP PUSH1 0x0 PUSH4 0x5F5E100 DUP3 PUSH1 0xC0 ADD MLOAD PUSH1 0xC PUSH1 0x0 DUP9 DUP2 MSTORE PUSH1 0x20 ADD SWAP1 DUP2 MSTORE PUSH1 0x20 ADD PUSH1 0x0 KECCAK256 PUSH1 0x3 ADD SLOAD PUSH2 0x1F05 SWAP2 SWAP1 PUSH2 0x4CFA JUMP JUMPDEST PUSH2 0x1F0F SWAP2 SWAP1 PUSH2 0x4D2B JUMP JUMPDEST SWAP1 POP PUSH1 0x0 PUSH2 0x2710 DUP3 PUSH1 0x2 SLOAD PUSH2 0x1F24 SWAP2 SWAP1 PUSH2 0x4D2B JUMP JUMPDEST PUSH2 0x1F2E SWAP2 SWAP1 PUSH2 0x4CFA JUMP JUMPDEST SWAP1 POP DUP2 CALLVALUE LT ISZERO PUSH2 0x1F73 JUMPI PUSH1 0x40 MLOAD PUSH32 0x8C379A000000000000000000000000000000000000000000000000000000000 DUP2 MSTORE PUSH1 0x4 ADD PUSH2 0x1F6A SWAP1 PUSH2 0x4993 JUMP JUMPDEST PUSH1 0x40 MLOAD DUP1 SWAP2 SUB SWAP1 REVERT JUMPDEST PUSH1 0x0 SLOAD DUP4 PUSH1 0x0 ADD DUP2 DUP2 MSTORE POP POP DUP6 DUP4 PUSH1 0x20 ADD DUP2 DUP2 MSTORE POP POP PUSH1 0xC PUSH1 0x0 DUP8 DUP2 MSTORE PUSH1 0x20 ADD SWAP1 DUP2 MSTORE PUSH1 0x20 ADD PUSH1 0x0 KECCAK256 PUSH1 0x3 ADD SLOAD DUP4 PUSH1 0xA0 ADD DUP2 DUP2 MSTORE POP POP DUP2 DUP4 PUSH1 0x40 ADD DUP2 DUP2 MSTORE POP POP DUP1 DUP4 PUSH1 0x80 ADD DUP2 DUP2 MSTORE POP POP PUSH1 0x1 DUP4 PUSH2 0x120 ADD SWAP1 ISZERO ISZERO SWAP1 DUP2 ISZERO ISZERO DUP2 MSTORE POP POP NUMBER DUP4 PUSH1 0x60 ADD DUP2 DUP2 MSTORE POP POP CALLER DUP4 PUSH2 0x140 ADD SWAP1 PUSH20 0xFFFFFFFFFFFFFFFFFFFFFFFFFFFFFFFFFFFFFFFF AND SWAP1 DUP2 PUSH20 0xFFFFFFFFFFFFFFFFFFFFFFFFFFFFFFFFFFFFFFFF AND DUP2 MSTORE POP POP DUP5 DUP4 PUSH2 0x160 ADD SWAP1 PUSH20 0xFFFFFFFFFFFFFFFFFFFFFFFFFFFFFFFFFFFFFFFF AND SWAP1 DUP2 PUSH20 0xFFFFFFFFFFFFFFFFFFFFFFFFFFFFFFFFFFFFFFFF AND DUP2 MSTORE POP POP DUP3 PUSH1 0xD PUSH1 0x0 DUP6 PUSH1 0x0 ADD MLOAD DUP2 MSTORE PUSH1 0x20 ADD SWAP1 DUP2 MSTORE PUSH1 0x20 ADD PUSH1 0x0 KECCAK256 PUSH1 0x0 DUP3 ADD MLOAD DUP2 PUSH1 0x0 ADD SSTORE PUSH1 0x20 DUP3 ADD MLOAD DUP2 PUSH1 0x1 ADD SSTORE PUSH1 0x40 DUP3 ADD MLOAD DUP2 PUSH1 0x2 ADD SSTORE PUSH1 0x60 DUP3 ADD MLOAD DUP2 PUSH1 0x3 ADD SSTORE PUSH1 0x80 DUP3 ADD MLOAD DUP2 PUSH1 0x4 ADD SSTORE PUSH1 0xA0 DUP3 ADD MLOAD DUP2 PUSH1 0x5 ADD SSTORE PUSH1 0xC0 DUP3 ADD MLOAD DUP2 PUSH1 0x6 ADD SSTORE PUSH1 0xE0 DUP3 ADD MLOAD DUP2 PUSH1 0x7 ADD PUSH1 0x0 PUSH2 0x100 EXP DUP2 SLOAD DUP2 PUSH1 0xFF MUL NOT AND SWAP1 DUP4 PUSH1 0xFF AND MUL OR SWAP1 SSTORE POP PUSH2 0x100 DUP3 ADD MLOAD DUP2 PUSH1 0x7 ADD PUSH1 0x1 PUSH2 0x100 EXP DUP2 SLOAD DUP2 PUSH1 0xFF MUL NOT AND SWAP1 DUP4 PUSH1 0xFF AND MUL OR SWAP1 SSTORE POP PUSH2 0x120 DUP3 ADD MLOAD DUP2 PUSH1 0x7 ADD PUSH1 0x2 PUSH2 0x100 EXP DUP2 SLOAD DUP2 PUSH1 0xFF MUL NOT AND SWAP1 DUP4 ISZERO ISZERO MUL OR SWAP1 SSTORE POP PUSH2 0x140 DUP3 ADD MLOAD DUP2 PUSH1 0x7 ADD PUSH1 0x3 PUSH2 0x100 EXP DUP2 SLOAD DUP2 PUSH20 0xFFFFFFFFFFFFFFFFFFFFFFFFFFFFFFFFFFFFFFFF MUL NOT AND SWAP1 DUP4 PUSH20 0xFFFFFFFFFFFFFFFFFFFFFFFFFFFFFFFFFFFFFFFF AND MUL OR SWAP1 SSTORE POP PUSH2 0x160 DUP3 ADD MLOAD DUP2 PUSH1 0x8 ADD PUSH1 0x0 PUSH2 0x100 EXP DUP2 SLOAD DUP2 PUSH20 0xFFFFFFFFFFFFFFFFFFFFFFFFFFFFFFFFFFFFFFFF MUL NOT AND SWAP1 DUP4 PUSH20 0xFFFFFFFFFFFFFFFFFFFFFFFFFFFFFFFFFFFFFFFF AND MUL OR SWAP1 SSTORE POP SWAP1 POP POP DUP2 CALLVALUE GT ISZERO PUSH2 0x2264 JUMPI PUSH1 0x0 DUP1 CALLER PUSH20 0xFFFFFFFFFFFFFFFFFFFFFFFFFFFFFFFFFFFFFFFF AND DUP5 CALLVALUE PUSH2 0x21CE SWAP2 SWAP1 PUSH2 0x4D85 JUMP JUMPDEST PUSH1 0x40 MLOAD PUSH2 0x21DA SWAP1 PUSH2 0x4691 JUMP JUMPDEST PUSH1 0x0 PUSH1 0x40 MLOAD DUP1 DUP4 SUB DUP2 DUP6 DUP8 GAS CALL SWAP3 POP POP POP RETURNDATASIZE DUP1 PUSH1 0x0 DUP2 EQ PUSH2 0x2217 JUMPI PUSH1 0x40 MLOAD SWAP2 POP PUSH1 0x1F NOT PUSH1 0x3F RETURNDATASIZE ADD AND DUP3 ADD PUSH1 0x40 MSTORE RETURNDATASIZE DUP3 MSTORE RETURNDATASIZE PUSH1 0x0 PUSH1 0x20 DUP5 ADD RETURNDATACOPY PUSH2 0x221C JUMP JUMPDEST PUSH1 0x60 SWAP2 POP JUMPDEST POP SWAP2 POP SWAP2 POP DUP2 PUSH2 0x2261 JUMPI PUSH1 0x40 MLOAD PUSH32 0x8C379A000000000000000000000000000000000000000000000000000000000 DUP2 MSTORE PUSH1 0x4 ADD PUSH2 0x2258 SWAP1 PUSH2 0x4793 JUMP JUMPDEST PUSH1 0x40 MLOAD DUP1 SWAP2 SUB SWAP1 REVERT JUMPDEST POP POP JUMPDEST PUSH32 0x74D0D8AFE3D8246A3D231394D7F207463085FFCEC78A367C5B7404CE21EBAD1B DUP4 PUSH1 0x0 ADD MLOAD DUP5 PUSH1 0x20 ADD MLOAD DUP6 PUSH1 0x40 ADD MLOAD PUSH1 0xC PUSH1 0x0 DUP12 DUP2 MSTORE PUSH1 0x20 ADD SWAP1 DUP2 MSTORE PUSH1 0x20 ADD PUSH1 0x0 KECCAK256 PUSH1 0x5 ADD SLOAD DUP8 PUSH2 0x140 ADD MLOAD DUP9 PUSH2 0x160 ADD MLOAD PUSH1 0xC PUSH1 0x0 DUP15 DUP2 MSTORE PUSH1 0x20 ADD SWAP1 DUP2 MSTORE PUSH1 0x20 ADD PUSH1 0x0 KECCAK256 PUSH1 0x1 ADD PUSH1 0x40 MLOAD PUSH2 0x22E0 SWAP8 SWAP7 SWAP6 SWAP5 SWAP4 SWAP3 SWAP2 SWAP1 PUSH2 0x4AE2 JUMP JUMPDEST PUSH1 0x40 MLOAD DUP1 SWAP2 SUB SWAP1 LOG1 DUP3 PUSH1 0x0 ADD MLOAD SWAP4 POP POP POP POP SWAP3 SWAP2 POP POP JUMP JUMPDEST DUP1 CALLER PUSH20 0xFFFFFFFFFFFFFFFFFFFFFFFFFFFFFFFFFFFFFFFF AND PUSH1 0xD PUSH1 0x0 DUP4 DUP2 MSTORE PUSH1 0x20 ADD SWAP1 DUP2 MSTORE PUSH1 0x20 ADD PUSH1 0x0 KECCAK256 PUSH1 0x7 ADD PUSH1 0x3 SWAP1 SLOAD SWAP1 PUSH2 0x100 EXP SWAP1 DIV PUSH20 0xFFFFFFFFFFFFFFFFFFFFFFFFFFFFFFFFFFFFFFFF AND PUSH20 0xFFFFFFFFFFFFFFFFFFFFFFFFFFFFFFFFFFFFFFFF AND EQ DUP1 PUSH2 0x23CA JUMPI POP CALLER PUSH20 0xFFFFFFFFFFFFFFFFFFFFFFFFFFFFFFFFFFFFFFFF AND PUSH1 0xD PUSH1 0x0 DUP4 DUP2 MSTORE PUSH1 0x20 ADD SWAP1 DUP2 MSTORE PUSH1 0x20 ADD PUSH1 0x0 KECCAK256 PUSH1 0x8 ADD PUSH1 0x0 SWAP1 SLOAD SWAP1 PUSH2 0x100 EXP SWAP1 DIV PUSH20 0xFFFFFFFFFFFFFFFFFFFFFFFFFFFFFFFFFFFFFFFF AND PUSH20 0xFFFFFFFFFFFFFFFFFFFFFFFFFFFFFFFFFFFFFFFF AND EQ JUMPDEST PUSH2 0x2409 JUMPI PUSH1 0x40 MLOAD PUSH32 0x8C379A000000000000000000000000000000000000000000000000000000000 DUP2 MSTORE PUSH1 0x4 ADD PUSH2 0x2400 SWAP1 PUSH2 0x4893 JUMP JUMPDEST PUSH1 0x40 MLOAD DUP1 SWAP2 SUB SWAP1 REVERT JUMPDEST PUSH1 0x1 ISZERO ISZERO PUSH1 0xD PUSH1 0x0 DUP5 DUP2 MSTORE PUSH1 0x20 ADD SWAP1 DUP2 MSTORE PUSH1 0x20 ADD PUSH1 0x0 KECCAK256 PUSH1 0x7 ADD PUSH1 0x2 SWAP1 SLOAD SWAP1 PUSH2 0x100 EXP SWAP1 DIV PUSH1 0xFF AND ISZERO ISZERO EQ PUSH2 0x2473 JUMPI PUSH1 0x40 MLOAD PUSH32 0x8C379A000000000000000000000000000000000000000000000000000000000 DUP2 MSTORE PUSH1 0x4 ADD PUSH2 0x246A SWAP1 PUSH2 0x4853 JUMP JUMPDEST PUSH1 0x40 MLOAD DUP1 SWAP2 SUB SWAP1 REVERT JUMPDEST PUSH1 0xD PUSH1 0x0 DUP4 DUP2 MSTORE PUSH1 0x20 ADD SWAP1 DUP2 MSTORE PUSH1 0x20 ADD PUSH1 0x0 KECCAK256 PUSH1 0x7 ADD PUSH1 0x3 SWAP1 SLOAD SWAP1 PUSH2 0x100 EXP SWAP1 DIV PUSH20 0xFFFFFFFFFFFFFFFFFFFFFFFFFFFFFFFFFFFFFFFF AND PUSH20 0xFFFFFFFFFFFFFFFFFFFFFFFFFFFFFFFFFFFFFFFF AND CALLER PUSH20 0xFFFFFFFFFFFFFFFFFFFFFFFFFFFFFFFFFFFFFFFF AND EQ DUP1 ISZERO PUSH2 0x2545 JUMPI POP PUSH1 0xD PUSH1 0x0 DUP4 DUP2 MSTORE PUSH1 0x20 ADD SWAP1 DUP2 MSTORE PUSH1 0x20 ADD PUSH1 0x0 KECCAK256 PUSH1 0x8 ADD PUSH1 0x0 SWAP1 SLOAD SWAP1 PUSH2 0x100 EXP SWAP1 DIV PUSH20 0xFFFFFFFFFFFFFFFFFFFFFFFFFFFFFFFFFFFFFFFF AND PUSH20 0xFFFFFFFFFFFFFFFFFFFFFFFFFFFFFFFFFFFFFFFF AND CALLER PUSH20 0xFFFFFFFFFFFFFFFFFFFFFFFFFFFFFFFFFFFFFFFF AND EQ JUMPDEST ISZERO PUSH2 0x25AF JUMPI PUSH1 0x1 PUSH1 0xD PUSH1 0x0 DUP5 DUP2 MSTORE PUSH1 0x20 ADD SWAP1 DUP2 MSTORE PUSH1 0x20 ADD PUSH1 0x0 KECCAK256 PUSH1 0x7 ADD PUSH1 0x0 PUSH2 0x100 EXP DUP2 SLOAD DUP2 PUSH1 0xFF MUL NOT AND SWAP1 DUP4 PUSH1 0xFF AND MUL OR SWAP1 SSTORE POP PUSH1 0x1 PUSH1 0xD PUSH1 0x0 DUP5 DUP2 MSTORE PUSH1 0x20 ADD SWAP1 DUP2 MSTORE PUSH1 0x20 ADD PUSH1 0x0 KECCAK256 PUSH1 0x7 ADD PUSH1 0x1 PUSH2 0x100 EXP DUP2 SLOAD DUP2 PUSH1 0xFF MUL NOT AND SWAP1 DUP4 PUSH1 0xFF AND MUL OR SWAP1 SSTORE POP PUSH2 0x26EB JUMP JUMPDEST PUSH1 0xD PUSH1 0x0 DUP4 DUP2 MSTORE PUSH1 0x20 ADD SWAP1 DUP2 MSTORE PUSH1 0x20 ADD PUSH1 0x0 KECCAK256 PUSH1 0x7 ADD PUSH1 0x3 SWAP1 SLOAD SWAP1 PUSH2 0x100 EXP SWAP1 DIV PUSH20 0xFFFFFFFFFFFFFFFFFFFFFFFFFFFFFFFFFFFFFFFF AND PUSH20 0xFFFFFFFFFFFFFFFFFFFFFFFFFFFFFFFFFFFFFFFF AND CALLER PUSH20 0xFFFFFFFFFFFFFFFFFFFFFFFFFFFFFFFFFFFFFFFF AND EQ ISZERO PUSH2 0x264E JUMPI PUSH1 0x1 PUSH1 0xD PUSH1 0x0 DUP5 DUP2 MSTORE PUSH1 0x20 ADD SWAP1 DUP2 MSTORE PUSH1 0x20 ADD PUSH1 0x0 KECCAK256 PUSH1 0x7 ADD PUSH1 0x0 PUSH2 0x100 EXP DUP2 SLOAD DUP2 PUSH1 0xFF MUL NOT AND SWAP1 DUP4 PUSH1 0xFF AND MUL OR SWAP1 SSTORE POP PUSH2 0x26EA JUMP JUMPDEST PUSH1 0xD PUSH1 0x0 DUP4 DUP2 MSTORE PUSH1 0x20 ADD SWAP1 DUP2 MSTORE PUSH1 0x20 ADD PUSH1 0x0 KECCAK256 PUSH1 0x8 ADD PUSH1 0x0 SWAP1 SLOAD SWAP1 PUSH2 0x100 EXP SWAP1 DIV PUSH20 0xFFFFFFFFFFFFFFFFFFFFFFFFFFFFFFFFFFFFFFFF AND PUSH20 0xFFFFFFFFFFFFFFFFFFFFFFFFFFFFFFFFFFFFFFFF AND CALLER PUSH20 0xFFFFFFFFFFFFFFFFFFFFFFFFFFFFFFFFFFFFFFFF AND EQ ISZERO PUSH2 0x26E9 JUMPI PUSH1 0x1 PUSH1 0xD PUSH1 0x0 DUP5 DUP2 MSTORE PUSH1 0x20 ADD SWAP1 DUP2 MSTORE PUSH1 0x20 ADD PUSH1 0x0 KECCAK256 PUSH1 0x7 ADD PUSH1 0x1 PUSH2 0x100 EXP DUP2 SLOAD DUP2 PUSH1 0xFF MUL NOT AND SWAP1 DUP4 PUSH1 0xFF AND MUL OR SWAP1 SSTORE POP JUMPDEST JUMPDEST JUMPDEST PUSH1 0x1 PUSH1 0xD PUSH1 0x0 DUP5 DUP2 MSTORE PUSH1 0x20 ADD SWAP1 DUP2 MSTORE PUSH1 0x20 ADD PUSH1 0x0 KECCAK256 PUSH1 0x7 ADD PUSH1 0x0 SWAP1 SLOAD SWAP1 PUSH2 0x100 EXP SWAP1 DIV PUSH1 0xFF AND PUSH1 0xFF AND EQ DUP1 ISZERO PUSH2 0x2747 JUMPI POP PUSH1 0x1 PUSH1 0xD PUSH1 0x0 DUP5 DUP2 MSTORE PUSH1 0x20 ADD SWAP1 DUP2 MSTORE PUSH1 0x20 ADD PUSH1 0x0 KECCAK256 PUSH1 0x7 ADD PUSH1 0x1 SWAP1 SLOAD SWAP1 PUSH2 0x100 EXP SWAP1 DIV PUSH1 0xFF AND PUSH1 0xFF AND EQ JUMPDEST ISZERO PUSH2 0x2CB6 JUMPI PUSH1 0x0 PUSH1 0xD PUSH1 0x0 DUP5 DUP2 MSTORE PUSH1 0x20 ADD SWAP1 DUP2 MSTORE PUSH1 0x20 ADD PUSH1 0x0 KECCAK256 PUSH1 0x7 ADD PUSH1 0x2 PUSH2 0x100 EXP DUP2 SLOAD DUP2 PUSH1 0xFF MUL NOT AND SWAP1 DUP4 ISZERO ISZERO MUL OR SWAP1 SSTORE POP PUSH1 0x0 DUP1 PUSH1 0xD PUSH1 0x0 DUP6 DUP2 MSTORE PUSH1 0x20 ADD SWAP1 DUP2 MSTORE PUSH1 0x20 ADD PUSH1 0x0 KECCAK256 PUSH1 0x8 ADD PUSH1 0x0 SWAP1 SLOAD SWAP1 PUSH2 0x100 EXP SWAP1 DIV PUSH20 0xFFFFFFFFFFFFFFFFFFFFFFFFFFFFFFFFFFFFFFFF AND PUSH20 0xFFFFFFFFFFFFFFFFFFFFFFFFFFFFFFFFFFFFFFFF AND PUSH1 0xD PUSH1 0x0 DUP7 DUP2 MSTORE PUSH1 0x20 ADD SWAP1 DUP2 MSTORE PUSH1 0x20 ADD PUSH1 0x0 KECCAK256 PUSH1 0x4 ADD SLOAD PUSH1 0xD PUSH1 0x0 DUP8 DUP2 MSTORE PUSH1 0x20 ADD SWAP1 DUP2 MSTORE PUSH1 0x20 ADD PUSH1 0x0 KECCAK256 PUSH1 0x2 ADD SLOAD PUSH2 0x2803 SWAP2 SWAP1 PUSH2 0x4D85 JUMP JUMPDEST PUSH1 0x40 MLOAD PUSH2 0x280F SWAP1 PUSH2 0x4691 JUMP JUMPDEST PUSH1 0x0 PUSH1 0x40 MLOAD DUP1 DUP4 SUB DUP2 DUP6 DUP8 GAS CALL SWAP3 POP POP POP RETURNDATASIZE DUP1 PUSH1 0x0 DUP2 EQ PUSH2 0x284C JUMPI PUSH1 0x40 MLOAD SWAP2 POP PUSH1 0x1F NOT PUSH1 0x3F RETURNDATASIZE ADD AND DUP3 ADD PUSH1 0x40 MSTORE RETURNDATASIZE DUP3 MSTORE RETURNDATASIZE PUSH1 0x0 PUSH1 0x20 DUP5 ADD RETURNDATACOPY PUSH2 0x2851 JUMP JUMPDEST PUSH1 0x60 SWAP2 POP JUMPDEST POP SWAP2 POP SWAP2 POP DUP2 PUSH2 0x2896 JUMPI PUSH1 0x40 MLOAD PUSH32 0x8C379A000000000000000000000000000000000000000000000000000000000 DUP2 MSTORE PUSH1 0x4 ADD PUSH2 0x288D SWAP1 PUSH2 0x4793 JUMP JUMPDEST PUSH1 0x40 MLOAD DUP1 SWAP2 SUB SWAP1 REVERT JUMPDEST PUSH2 0x28B5 PUSH1 0xD PUSH1 0x0 DUP7 DUP2 MSTORE PUSH1 0x20 ADD SWAP1 DUP2 MSTORE PUSH1 0x20 ADD PUSH1 0x0 KECCAK256 PUSH1 0x4 ADD SLOAD PUSH2 0x3C5E JUMP JUMPDEST PUSH1 0x1 PUSH1 0x10 PUSH1 0x0 PUSH1 0xD PUSH1 0x0 DUP9 DUP2 MSTORE PUSH1 0x20 ADD SWAP1 DUP2 MSTORE PUSH1 0x20 ADD PUSH1 0x0 KECCAK256 PUSH1 0x7 ADD PUSH1 0x3 SWAP1 SLOAD SWAP1 PUSH2 0x100 EXP SWAP1 DIV PUSH20 0xFFFFFFFFFFFFFFFFFFFFFFFFFFFFFFFFFFFFFFFF AND PUSH20 0xFFFFFFFFFFFFFFFFFFFFFFFFFFFFFFFFFFFFFFFF AND PUSH20 0xFFFFFFFFFFFFFFFFFFFFFFFFFFFFFFFFFFFFFFFF AND DUP2 MSTORE PUSH1 0x20 ADD SWAP1 DUP2 MSTORE PUSH1 0x20 ADD PUSH1 0x0 KECCAK256 PUSH1 0x1 ADD PUSH1 0x0 DUP3 DUP3 SLOAD PUSH2 0x293E SWAP2 SWAP1 PUSH2 0x4CA4 JUMP JUMPDEST SWAP3 POP POP DUP2 SWAP1 SSTORE POP PUSH1 0x1 PUSH1 0x10 PUSH1 0x0 PUSH1 0xD PUSH1 0x0 DUP9 DUP2 MSTORE PUSH1 0x20 ADD SWAP1 DUP2 MSTORE PUSH1 0x20 ADD PUSH1 0x0 KECCAK256 PUSH1 0x8 ADD PUSH1 0x0 SWAP1 SLOAD SWAP1 PUSH2 0x100 EXP SWAP1 DIV PUSH20 0xFFFFFFFFFFFFFFFFFFFFFFFFFFFFFFFFFFFFFFFF AND PUSH20 0xFFFFFFFFFFFFFFFFFFFFFFFFFFFFFFFFFFFFFFFF AND PUSH20 0xFFFFFFFFFFFFFFFFFFFFFFFFFFFFFFFFFFFFFFFF AND DUP2 MSTORE PUSH1 0x20 ADD SWAP1 DUP2 MSTORE PUSH1 0x20 ADD PUSH1 0x0 KECCAK256 PUSH1 0x1 ADD PUSH1 0x0 DUP3 DUP3 SLOAD PUSH2 0x29CE SWAP2 SWAP1 PUSH2 0x4CA4 JUMP JUMPDEST SWAP3 POP POP DUP2 SWAP1 SSTORE POP PUSH1 0xB PUSH1 0x0 SWAP1 SLOAD SWAP1 PUSH2 0x100 EXP SWAP1 DIV PUSH1 0xFF AND DUP1 ISZERO PUSH2 0x2A09 JUMPI POP PUSH1 0xA SLOAD PUSH1 0xD PUSH1 0x0 DUP7 DUP2 MSTORE PUSH1 0x20 ADD SWAP1 DUP2 MSTORE PUSH1 0x20 ADD PUSH1 0x0 KECCAK256 PUSH1 0x4 ADD SLOAD LT ISZERO JUMPDEST ISZERO PUSH2 0x2CB3 JUMPI PUSH1 0x5 PUSH1 0x0 SWAP1 SLOAD SWAP1 PUSH2 0x100 EXP SWAP1 DIV PUSH20 0xFFFFFFFFFFFFFFFFFFFFFFFFFFFFFFFFFFFFFFFF AND PUSH20 0xFFFFFFFFFFFFFFFFFFFFFFFFFFFFFFFFFFFFFFFF AND PUSH4 0x9A49090E PUSH1 0xD PUSH1 0x0 DUP8 DUP2 MSTORE PUSH1 0x20 ADD SWAP1 DUP2 MSTORE PUSH1 0x20 ADD PUSH1 0x0 KECCAK256 PUSH1 0x7 ADD PUSH1 0x3 SWAP1 SLOAD SWAP1 PUSH2 0x100 EXP SWAP1 DIV PUSH20 0xFFFFFFFFFFFFFFFFFFFFFFFFFFFFFFFFFFFFFFFF AND PUSH1 0x7 SLOAD PUSH1 0x40 MLOAD DUP4 PUSH4 0xFFFFFFFF AND PUSH1 0xE0 SHL DUP2 MSTORE PUSH1 0x4 ADD PUSH2 0x2AA3 SWAP3 SWAP2 SWAP1 PUSH2 0x46C1 JUMP JUMPDEST PUSH1 0x20 PUSH1 0x40 MLOAD DUP1 DUP4 SUB DUP2 PUSH1 0x0 DUP8 DUP1 EXTCODESIZE ISZERO DUP1 ISZERO PUSH2 0x2ABD JUMPI PUSH1 0x0 DUP1 REVERT JUMPDEST POP GAS CALL ISZERO DUP1 ISZERO PUSH2 0x2AD1 JUMPI RETURNDATASIZE PUSH1 0x0 DUP1 RETURNDATACOPY RETURNDATASIZE PUSH1 0x0 REVERT JUMPDEST POP POP POP POP PUSH1 0x40 MLOAD RETURNDATASIZE PUSH1 0x1F NOT PUSH1 0x1F DUP3 ADD AND DUP3 ADD DUP1 PUSH1 0x40 MSTORE POP DUP2 ADD SWAP1 PUSH2 0x2AF5 SWAP2 SWAP1 PUSH2 0x4080 JUMP JUMPDEST POP PUSH1 0x5 PUSH1 0x0 SWAP1 SLOAD SWAP1 PUSH2 0x100 EXP SWAP1 DIV PUSH20 0xFFFFFFFFFFFFFFFFFFFFFFFFFFFFFFFFFFFFFFFF AND PUSH20 0xFFFFFFFFFFFFFFFFFFFFFFFFFFFFFFFFFFFFFFFF AND PUSH4 0x9A49090E PUSH1 0xD PUSH1 0x0 DUP8 DUP2 MSTORE PUSH1 0x20 ADD SWAP1 DUP2 MSTORE PUSH1 0x20 ADD PUSH1 0x0 KECCAK256 PUSH1 0x8 ADD PUSH1 0x0 SWAP1 SLOAD SWAP1 PUSH2 0x100 EXP SWAP1 DIV PUSH20 0xFFFFFFFFFFFFFFFFFFFFFFFFFFFFFFFFFFFFFFFF AND PUSH1 0x8 SLOAD PUSH1 0x40 MLOAD DUP4 PUSH4 0xFFFFFFFF AND PUSH1 0xE0 SHL DUP2 MSTORE PUSH1 0x4 ADD PUSH2 0x2B8B SWAP3 SWAP2 SWAP1 PUSH2 0x46C1 JUMP JUMPDEST PUSH1 0x20 PUSH1 0x40 MLOAD DUP1 DUP4 SUB DUP2 PUSH1 0x0 DUP8 DUP1 EXTCODESIZE ISZERO DUP1 ISZERO PUSH2 0x2BA5 JUMPI PUSH1 0x0 DUP1 REVERT JUMPDEST POP GAS CALL ISZERO DUP1 ISZERO PUSH2 0x2BB9 JUMPI RETURNDATASIZE PUSH1 0x0 DUP1 RETURNDATACOPY RETURNDATASIZE PUSH1 0x0 REVERT JUMPDEST POP POP POP POP PUSH1 0x40 MLOAD RETURNDATASIZE PUSH1 0x1F NOT PUSH1 0x1F DUP3 ADD AND DUP3 ADD DUP1 PUSH1 0x40 MSTORE POP DUP2 ADD SWAP1 PUSH2 0x2BDD SWAP2 SWAP1 PUSH2 0x4080 JUMP JUMPDEST POP PUSH1 0x5 PUSH1 0x0 SWAP1 SLOAD SWAP1 PUSH2 0x100 EXP SWAP1 DIV PUSH20 0xFFFFFFFFFFFFFFFFFFFFFFFFFFFFFFFFFFFFFFFF AND PUSH20 0xFFFFFFFFFFFFFFFFFFFFFFFFFFFFFFFFFFFFFFFF AND PUSH4 0x9A49090E PUSH1 0x3 PUSH1 0x0 SWAP1 SLOAD SWAP1 PUSH2 0x100 EXP SWAP1 DIV PUSH20 0xFFFFFFFFFFFFFFFFFFFFFFFFFFFFFFFFFFFFFFFF AND PUSH1 0x9 SLOAD PUSH1 0x40 MLOAD DUP4 PUSH4 0xFFFFFFFF AND PUSH1 0xE0 SHL DUP2 MSTORE PUSH1 0x4 ADD PUSH2 0x2C5F SWAP3 SWAP2 SWAP1 PUSH2 0x46C1 JUMP JUMPDEST PUSH1 0x20 PUSH1 0x40 MLOAD DUP1 DUP4 SUB DUP2 PUSH1 0x0 DUP8 DUP1 EXTCODESIZE ISZERO DUP1 ISZERO PUSH2 0x2C79 JUMPI PUSH1 0x0 DUP1 REVERT JUMPDEST POP GAS CALL ISZERO DUP1 ISZERO PUSH2 0x2C8D JUMPI RETURNDATASIZE PUSH1 0x0 DUP1 RETURNDATACOPY RETURNDATASIZE PUSH1 0x0 REVERT JUMPDEST POP POP POP POP PUSH1 0x40 MLOAD RETURNDATASIZE PUSH1 0x1F NOT PUSH1 0x1F DUP3 ADD AND DUP3 ADD DUP1 PUSH1 0x40 MSTORE POP DUP2 ADD SWAP1 PUSH2 0x2CB1 SWAP2 SWAP1 PUSH2 0x4080 JUMP JUMPDEST POP JUMPDEST POP POP JUMPDEST PUSH32 0xB8B459BC0688C37BAF5F735D17F1711684BC14AB7DB116F88BC18BF409B9309A DUP3 PUSH1 0x40 MLOAD PUSH2 0x2CE5 SWAP2 SWAP1 PUSH2 0x49B3 JUMP JUMPDEST PUSH1 0x40 MLOAD DUP1 SWAP2 SUB SWAP1 LOG1 POP POP JUMP JUMPDEST PUSH1 0x0 CALLER PUSH20 0xFFFFFFFFFFFFFFFFFFFFFFFFFFFFFFFFFFFFFFFF AND PUSH1 0x4 PUSH1 0x0 SWAP1 SLOAD SWAP1 PUSH2 0x100 EXP SWAP1 DIV PUSH20 0xFFFFFFFFFFFFFFFFFFFFFFFFFFFFFFFFFFFFFFFF AND PUSH20 0xFFFFFFFFFFFFFFFFFFFFFFFFFFFFFFFFFFFFFFFF AND EQ PUSH2 0x2D4D JUMPI PUSH1 0x0 DUP1 REVERT JUMPDEST PUSH1 0x0 DUP4 EQ ISZERO PUSH2 0x2D62 JUMPI DUP2 PUSH1 0x2 DUP2 SWAP1 SSTORE POP PUSH2 0x2D74 JUMP JUMPDEST PUSH1 0x1 DUP4 EQ ISZERO PUSH2 0x2D73 JUMPI DUP2 PUSH1 0xA DUP2 SWAP1 SSTORE POP JUMPDEST JUMPDEST PUSH1 0x1 SWAP1 POP SWAP3 SWAP2 POP POP JUMP JUMPDEST PUSH1 0x1 ISZERO ISZERO PUSH1 0xF PUSH1 0x0 DUP5 DUP2 MSTORE PUSH1 0x20 ADD SWAP1 DUP2 MSTORE PUSH1 0x20 ADD PUSH1 0x0 KECCAK256 PUSH1 0x3 ADD PUSH1 0x0 SWAP1 SLOAD SWAP1 PUSH2 0x100 EXP SWAP1 DIV PUSH1 0xFF AND ISZERO ISZERO EQ PUSH2 0x2DE8 JUMPI PUSH1 0x40 MLOAD PUSH32 0x8C379A000000000000000000000000000000000000000000000000000000000 DUP2 MSTORE PUSH1 0x4 ADD PUSH2 0x2DDF SWAP1 PUSH2 0x47B3 JUMP JUMPDEST PUSH1 0x40 MLOAD DUP1 SWAP2 SUB SWAP1 REVERT JUMPDEST PUSH1 0x3 PUSH1 0x0 SWAP1 SLOAD SWAP1 PUSH2 0x100 EXP SWAP1 DIV PUSH20 0xFFFFFFFFFFFFFFFFFFFFFFFFFFFFFFFFFFFFFFFF AND PUSH20 0xFFFFFFFFFFFFFFFFFFFFFFFFFFFFFFFFFFFFFFFF AND CALLER PUSH20 0xFFFFFFFFFFFFFFFFFFFFFFFFFFFFFFFFFFFFFFFF AND EQ PUSH2 0x2E78 JUMPI PUSH1 0x40 MLOAD PUSH32 0x8C379A000000000000000000000000000000000000000000000000000000000 DUP2 MSTORE PUSH1 0x4 ADD PUSH2 0x2E6F SWAP1 PUSH2 0x47D3 JUMP JUMPDEST PUSH1 0x40 MLOAD DUP1 SWAP2 SUB SWAP1 REVERT JUMPDEST PUSH1 0xD PUSH1 0x0 DUP4 DUP2 MSTORE PUSH1 0x20 ADD SWAP1 DUP2 MSTORE PUSH1 0x20 ADD PUSH1 0x0 KECCAK256 PUSH1 0x7 ADD PUSH1 0x3 SWAP1 SLOAD SWAP1 PUSH2 0x100 EXP SWAP1 DIV PUSH20 0xFFFFFFFFFFFFFFFFFFFFFFFFFFFFFFFFFFFFFFFF AND PUSH20 0xFFFFFFFFFFFFFFFFFFFFFFFFFFFFFFFFFFFFFFFF AND DUP2 PUSH20 0xFFFFFFFFFFFFFFFFFFFFFFFFFFFFFFFFFFFFFFFF AND EQ ISZERO PUSH2 0x2FFF JUMPI PUSH1 0x0 DUP1 PUSH1 0xD PUSH1 0x0 DUP6 DUP2 MSTORE PUSH1 0x20 ADD SWAP1 DUP2 MSTORE PUSH1 0x20 ADD PUSH1 0x0 KECCAK256 PUSH1 0x7 ADD PUSH1 0x3 SWAP1 SLOAD SWAP1 PUSH2 0x100 EXP SWAP1 DIV PUSH20 0xFFFFFFFFFFFFFFFFFFFFFFFFFFFFFFFFFFFFFFFF AND PUSH20 0xFFFFFFFFFFFFFFFFFFFFFFFFFFFFFFFFFFFFFFFF AND PUSH1 0xD PUSH1 0x0 DUP7 DUP2 MSTORE PUSH1 0x20 ADD SWAP1 DUP2 MSTORE PUSH1 0x20 ADD PUSH1 0x0 KECCAK256 PUSH1 0x2 ADD SLOAD PUSH1 0x40 MLOAD PUSH2 0x2F55 SWAP1 PUSH2 0x4691 JUMP JUMPDEST PUSH1 0x0 PUSH1 0x40 MLOAD DUP1 DUP4 SUB DUP2 DUP6 DUP8 GAS CALL SWAP3 POP POP POP RETURNDATASIZE DUP1 PUSH1 0x0 DUP2 EQ PUSH2 0x2F92 JUMPI PUSH1 0x40 MLOAD SWAP2 POP PUSH1 0x1F NOT PUSH1 0x3F RETURNDATASIZE ADD AND DUP3 ADD PUSH1 0x40 MSTORE RETURNDATASIZE DUP3 MSTORE RETURNDATASIZE PUSH1 0x0 PUSH1 0x20 DUP5 ADD RETURNDATACOPY PUSH2 0x2F97 JUMP JUMPDEST PUSH1 0x60 SWAP2 POP JUMPDEST POP SWAP2 POP SWAP2 POP DUP2 PUSH2 0x2FDC JUMPI PUSH1 0x40 MLOAD PUSH32 0x8C379A000000000000000000000000000000000000000000000000000000000 DUP2 MSTORE PUSH1 0x4 ADD PUSH2 0x2FD3 SWAP1 PUSH2 0x4793 JUMP JUMPDEST PUSH1 0x40 MLOAD DUP1 SWAP2 SUB SWAP1 REVERT JUMPDEST PUSH1 0x0 PUSH1 0xD PUSH1 0x0 DUP7 DUP2 MSTORE PUSH1 0x20 ADD SWAP1 DUP2 MSTORE PUSH1 0x20 ADD PUSH1 0x0 KECCAK256 PUSH1 0x4 ADD DUP2 SWAP1 SSTORE POP POP POP PUSH2 0x31A7 JUMP JUMPDEST PUSH1 0xD PUSH1 0x0 DUP4 DUP2 MSTORE PUSH1 0x20 ADD SWAP1 DUP2 MSTORE PUSH1 0x20 ADD PUSH1 0x0 KECCAK256 PUSH1 0x8 ADD PUSH1 0x0 SWAP1 SLOAD SWAP1 PUSH2 0x100 EXP SWAP1 DIV PUSH20 0xFFFFFFFFFFFFFFFFFFFFFFFFFFFFFFFFFFFFFFFF AND PUSH20 0xFFFFFFFFFFFFFFFFFFFFFFFFFFFFFFFFFFFFFFFF AND DUP2 PUSH20 0xFFFFFFFFFFFFFFFFFFFFFFFFFFFFFFFFFFFFFFFF AND EQ ISZERO PUSH2 0x31A6 JUMPI PUSH1 0x0 DUP1 PUSH1 0xD PUSH1 0x0 DUP6 DUP2 MSTORE PUSH1 0x20 ADD SWAP1 DUP2 MSTORE PUSH1 0x20 ADD PUSH1 0x0 KECCAK256 PUSH1 0x8 ADD PUSH1 0x0 SWAP1 SLOAD SWAP1 PUSH2 0x100 EXP SWAP1 DIV PUSH20 0xFFFFFFFFFFFFFFFFFFFFFFFFFFFFFFFFFFFFFFFF AND PUSH20 0xFFFFFFFFFFFFFFFFFFFFFFFFFFFFFFFFFFFFFFFF AND PUSH1 0xD PUSH1 0x0 DUP7 DUP2 MSTORE PUSH1 0x20 ADD SWAP1 DUP2 MSTORE PUSH1 0x20 ADD PUSH1 0x0 KECCAK256 PUSH1 0x4 ADD SLOAD PUSH1 0xD PUSH1 0x0 DUP8 DUP2 MSTORE PUSH1 0x20 ADD SWAP1 DUP2 MSTORE PUSH1 0x20 ADD PUSH1 0x0 KECCAK256 PUSH1 0x2 ADD SLOAD PUSH2 0x30F1 SWAP2 SWAP1 PUSH2 0x4D85 JUMP JUMPDEST PUSH1 0x40 MLOAD PUSH2 0x30FD SWAP1 PUSH2 0x4691 JUMP JUMPDEST PUSH1 0x0 PUSH1 0x40 MLOAD DUP1 DUP4 SUB DUP2 DUP6 DUP8 GAS CALL SWAP3 POP POP POP RETURNDATASIZE DUP1 PUSH1 0x0 DUP2 EQ PUSH2 0x313A JUMPI PUSH1 0x40 MLOAD SWAP2 POP PUSH1 0x1F NOT PUSH1 0x3F RETURNDATASIZE ADD AND DUP3 ADD PUSH1 0x40 MSTORE RETURNDATASIZE DUP3 MSTORE RETURNDATASIZE PUSH1 0x0 PUSH1 0x20 DUP5 ADD RETURNDATACOPY PUSH2 0x313F JUMP JUMPDEST PUSH1 0x60 SWAP2 POP JUMPDEST POP SWAP2 POP SWAP2 POP DUP2 PUSH2 0x3184 JUMPI PUSH1 0x40 MLOAD PUSH32 0x8C379A000000000000000000000000000000000000000000000000000000000 DUP2 MSTORE PUSH1 0x4 ADD PUSH2 0x317B SWAP1 PUSH2 0x4793 JUMP JUMPDEST PUSH1 0x40 MLOAD DUP1 SWAP2 SUB SWAP1 REVERT JUMPDEST PUSH2 0x31A3 PUSH1 0xD PUSH1 0x0 DUP7 DUP2 MSTORE PUSH1 0x20 ADD SWAP1 DUP2 MSTORE PUSH1 0x20 ADD PUSH1 0x0 KECCAK256 PUSH1 0x4 ADD SLOAD PUSH2 0x3C5E JUMP JUMPDEST POP POP JUMPDEST JUMPDEST PUSH1 0x4 PUSH1 0xD PUSH1 0x0 DUP5 DUP2 MSTORE PUSH1 0x20 ADD SWAP1 DUP2 MSTORE PUSH1 0x20 ADD PUSH1 0x0 KECCAK256 PUSH1 0x7 ADD PUSH1 0x1 PUSH2 0x100 EXP DUP2 SLOAD DUP2 PUSH1 0xFF MUL NOT AND SWAP1 DUP4 PUSH1 0xFF AND MUL OR SWAP1 SSTORE POP PUSH1 0x4 PUSH1 0xD PUSH1 0x0 DUP5 DUP2 MSTORE PUSH1 0x20 ADD SWAP1 DUP2 MSTORE PUSH1 0x20 ADD PUSH1 0x0 KECCAK256 PUSH1 0x7 ADD PUSH1 0x0 PUSH2 0x100 EXP DUP2 SLOAD DUP2 PUSH1 0xFF MUL NOT AND SWAP1 DUP4 PUSH1 0xFF AND MUL OR SWAP1 SSTORE POP PUSH1 0x1 PUSH1 0x10 PUSH1 0x0 PUSH1 0xD PUSH1 0x0 DUP7 DUP2 MSTORE PUSH1 0x20 ADD SWAP1 DUP2 MSTORE PUSH1 0x20 ADD PUSH1 0x0 KECCAK256 PUSH1 0x7 ADD PUSH1 0x3 SWAP1 SLOAD SWAP1 PUSH2 0x100 EXP SWAP1 DIV PUSH20 0xFFFFFFFFFFFFFFFFFFFFFFFFFFFFFFFFFFFFFFFF AND PUSH20 0xFFFFFFFFFFFFFFFFFFFFFFFFFFFFFFFFFFFFFFFF AND PUSH20 0xFFFFFFFFFFFFFFFFFFFFFFFFFFFFFFFFFFFFFFFF AND DUP2 MSTORE PUSH1 0x20 ADD SWAP1 DUP2 MSTORE PUSH1 0x20 ADD PUSH1 0x0 KECCAK256 PUSH1 0x2 ADD PUSH1 0x0 DUP3 DUP3 SLOAD PUSH2 0x3290 SWAP2 SWAP1 PUSH2 0x4CA4 JUMP JUMPDEST SWAP3 POP POP DUP2 SWAP1 SSTORE POP PUSH1 0x1 PUSH1 0x10 PUSH1 0x0 PUSH1 0xD PUSH1 0x0 DUP7 DUP2 MSTORE PUSH1 0x20 ADD SWAP1 DUP2 MSTORE PUSH1 0x20 ADD PUSH1 0x0 KECCAK256 PUSH1 0x8 ADD PUSH1 0x0 SWAP1 SLOAD SWAP1 PUSH2 0x100 EXP SWAP1 DIV PUSH20 0xFFFFFFFFFFFFFFFFFFFFFFFFFFFFFFFFFFFFFFFF AND PUSH20 0xFFFFFFFFFFFFFFFFFFFFFFFFFFFFFFFFFFFFFFFF AND PUSH20 0xFFFFFFFFFFFFFFFFFFFFFFFFFFFFFFFFFFFFFFFF AND DUP2 MSTORE PUSH1 0x20 ADD SWAP1 DUP2 MSTORE PUSH1 0x20 ADD PUSH1 0x0 KECCAK256 PUSH1 0x2 ADD PUSH1 0x0 DUP3 DUP3 SLOAD PUSH2 0x3320 SWAP2 SWAP1 PUSH2 0x4CA4 JUMP JUMPDEST SWAP3 POP POP DUP2 SWAP1 SSTORE POP PUSH1 0x0 PUSH1 0xF PUSH1 0x0 DUP5 DUP2 MSTORE PUSH1 0x20 ADD SWAP1 DUP2 MSTORE PUSH1 0x20 ADD PUSH1 0x0 KECCAK256 PUSH1 0x3 ADD PUSH1 0x0 PUSH2 0x100 EXP DUP2 SLOAD DUP2 PUSH1 0xFF MUL NOT AND SWAP1 DUP4 ISZERO ISZERO MUL OR SWAP1 SSTORE POP PUSH32 0x29A00CD7B143153A043355A38ED7FA14305CD81468035C2E2E389897F38980D8 DUP3 PUSH1 0x40 MLOAD PUSH2 0x3385 SWAP2 SWAP1 PUSH2 0x49B3 JUMP JUMPDEST PUSH1 0x40 MLOAD DUP1 SWAP2 SUB SWAP1 LOG1 POP POP JUMP JUMPDEST PUSH1 0xC PUSH1 0x0 DUP4 DUP2 MSTORE PUSH1 0x20 ADD SWAP1 DUP2 MSTORE PUSH1 0x20 ADD PUSH1 0x0 KECCAK256 PUSH1 0x4 ADD PUSH1 0x0 SWAP1 SLOAD SWAP1 PUSH2 0x100 EXP SWAP1 DIV PUSH20 0xFFFFFFFFFFFFFFFFFFFFFFFFFFFFFFFFFFFFFFFF AND PUSH20 0xFFFFFFFFFFFFFFFFFFFFFFFFFFFFFFFFFFFFFFFF AND CALLER PUSH20 0xFFFFFFFFFFFFFFFFFFFFFFFFFFFFFFFFFFFFFFFF AND EQ PUSH2 0x3435 JUMPI PUSH1 0x40 MLOAD PUSH32 0x8C379A000000000000000000000000000000000000000000000000000000000 DUP2 MSTORE PUSH1 0x4 ADD PUSH2 0x342C SWAP1 PUSH2 0x4873 JUMP JUMPDEST PUSH1 0x40 MLOAD DUP1 SWAP2 SUB SWAP1 REVERT JUMPDEST DUP1 PUSH1 0xC PUSH1 0x0 DUP5 DUP2 MSTORE PUSH1 0x20 ADD SWAP1 DUP2 MSTORE PUSH1 0x20 ADD PUSH1 0x0 KECCAK256 PUSH1 0x2 ADD PUSH1 0x0 PUSH2 0x100 EXP DUP2 SLOAD DUP2 PUSH1 0xFF MUL NOT AND SWAP1 DUP4 ISZERO ISZERO MUL OR SWAP1 SSTORE POP PUSH32 0x5E58DFA592B09C585A4AB7EF8158D20B1E52E9897F3095DBE1DF700853905C2F DUP3 PUSH1 0x40 MLOAD PUSH2 0x3492 SWAP2 SWAP1 PUSH2 0x49B3 JUMP JUMPDEST PUSH1 0x40 MLOAD DUP1 SWAP2 SUB SWAP1 LOG1 POP POP JUMP JUMPDEST PUSH1 0x7 SLOAD DUP2 JUMP JUMPDEST PUSH1 0xC PUSH1 0x0 DUP4 DUP2 MSTORE PUSH1 0x20 ADD SWAP1 DUP2 MSTORE PUSH1 0x20 ADD PUSH1 0x0 KECCAK256 PUSH1 0x4 ADD PUSH1 0x0 SWAP1 SLOAD SWAP1 PUSH2 0x100 EXP SWAP1 DIV PUSH20 0xFFFFFFFFFFFFFFFFFFFFFFFFFFFFFFFFFFFFFFFF AND PUSH20 0xFFFFFFFFFFFFFFFFFFFFFFFFFFFFFFFFFFFFFFFF AND CALLER PUSH20 0xFFFFFFFFFFFFFFFFFFFFFFFFFFFFFFFFFFFFFFFF AND EQ PUSH2 0x3548 JUMPI PUSH1 0x40 MLOAD PUSH32 0x8C379A000000000000000000000000000000000000000000000000000000000 DUP2 MSTORE PUSH1 0x4 ADD PUSH2 0x353F SWAP1 PUSH2 0x4873 JUMP JUMPDEST PUSH1 0x40 MLOAD DUP1 SWAP2 SUB SWAP1 REVERT JUMPDEST DUP1 PUSH1 0xC PUSH1 0x0 DUP5 DUP2 MSTORE PUSH1 0x20 ADD SWAP1 DUP2 MSTORE PUSH1 0x20 ADD PUSH1 0x0 KECCAK256 PUSH1 0x3 ADD DUP2 SWAP1 SSTORE POP PUSH32 0x5E58DFA592B09C585A4AB7EF8158D20B1E52E9897F3095DBE1DF700853905C2F DUP3 PUSH1 0x40 MLOAD PUSH2 0x3592 SWAP2 SWAP1 PUSH2 0x49B3 JUMP JUMPDEST PUSH1 0x40 MLOAD DUP1 SWAP2 SUB SWAP1 LOG1 POP POP JUMP JUMPDEST PUSH1 0x0 PUSH1 0x1 ISZERO ISZERO PUSH1 0xC PUSH1 0x0 DUP5 DUP2 MSTORE PUSH1 0x20 ADD SWAP1 DUP2 MSTORE PUSH1 0x20 ADD PUSH1 0x0 KECCAK256 PUSH1 0x2 ADD PUSH1 0x0 SWAP1 SLOAD SWAP1 PUSH2 0x100 EXP SWAP1 DIV PUSH1 0xFF AND ISZERO ISZERO EQ PUSH2 0x360A JUMPI PUSH1 0x40 MLOAD PUSH32 0x8C379A000000000000000000000000000000000000000000000000000000000 DUP2 MSTORE PUSH1 0x4 ADD PUSH2 0x3601 SWAP1 PUSH2 0x4773 JUMP JUMPDEST PUSH1 0x40 MLOAD DUP1 SWAP2 SUB SWAP1 REVERT JUMPDEST PUSH1 0xC PUSH1 0x0 DUP4 DUP2 MSTORE PUSH1 0x20 ADD SWAP1 DUP2 MSTORE PUSH1 0x20 ADD PUSH1 0x0 KECCAK256 PUSH1 0x4 ADD PUSH1 0x0 SWAP1 SLOAD SWAP1 PUSH2 0x100 EXP SWAP1 DIV PUSH20 0xFFFFFFFFFFFFFFFFFFFFFFFFFFFFFFFFFFFFFFFF AND PUSH20 0xFFFFFFFFFFFFFFFFFFFFFFFFFFFFFFFFFFFFFFFF AND CALLER PUSH20 0xFFFFFFFFFFFFFFFFFFFFFFFFFFFFFFFFFFFFFFFF AND EQ ISZERO PUSH2 0x36AF JUMPI PUSH1 0x40 MLOAD PUSH32 0x8C379A000000000000000000000000000000000000000000000000000000000 DUP2 MSTORE PUSH1 0x4 ADD PUSH2 0x36A6 SWAP1 PUSH2 0x4813 JUMP JUMPDEST PUSH1 0x40 MLOAD DUP1 SWAP2 SUB SWAP1 REVERT JUMPDEST PUSH1 0x0 DUP1 DUP2 SLOAD DUP1 SWAP3 SWAP2 SWAP1 PUSH2 0x36C1 SWAP1 PUSH2 0x4ED3 JUMP JUMPDEST SWAP2 SWAP1 POP SSTORE POP PUSH2 0x36CE PUSH2 0x3E31 JUMP JUMPDEST PUSH2 0x36D6 PUSH2 0x1CAE JUMP JUMPDEST DUP2 PUSH1 0xC0 ADD DUP2 DUP2 MSTORE POP POP PUSH1 0x0 PUSH4 0x5F5E100 DUP3 PUSH1 0xC0 ADD MLOAD PUSH1 0xC PUSH1 0x0 DUP8 DUP2 MSTORE PUSH1 0x20 ADD SWAP1 DUP2 MSTORE PUSH1 0x20 ADD PUSH1 0x0 KECCAK256 PUSH1 0x3 ADD SLOAD PUSH2 0x370C SWAP2 SWAP1 PUSH2 0x4CFA JUMP JUMPDEST PUSH2 0x3716 SWAP2 SWAP1 PUSH2 0x4D2B JUMP JUMPDEST SWAP1 POP PUSH1 0x0 PUSH2 0x2710 DUP3 PUSH1 0x2 SLOAD PUSH2 0x372B SWAP2 SWAP1 PUSH2 0x4D2B JUMP JUMPDEST PUSH2 0x3735 SWAP2 SWAP1 PUSH2 0x4CFA JUMP JUMPDEST SWAP1 POP DUP2 CALLVALUE LT ISZERO PUSH2 0x377A JUMPI PUSH1 0x40 MLOAD PUSH32 0x8C379A000000000000000000000000000000000000000000000000000000000 DUP2 MSTORE PUSH1 0x4 ADD PUSH2 0x3771 SWAP1 PUSH2 0x4993 JUMP JUMPDEST PUSH1 0x40 MLOAD DUP1 SWAP2 SUB SWAP1 REVERT JUMPDEST PUSH1 0x0 SLOAD DUP4 PUSH1 0x0 ADD DUP2 DUP2 MSTORE POP POP DUP5 DUP4 PUSH1 0x20 ADD DUP2 DUP2 MSTORE POP POP PUSH1 0xC PUSH1 0x0 DUP7 DUP2 MSTORE PUSH1 0x20 ADD SWAP1 DUP2 MSTORE PUSH1 0x20 ADD PUSH1 0x0 KECCAK256 PUSH1 0x3 ADD SLOAD DUP4 PUSH1 0xA0 ADD DUP2 DUP2 MSTORE POP POP DUP2 DUP4 PUSH1 0x40 ADD DUP2 DUP2 MSTORE POP POP DUP1 DUP4 PUSH1 0x80 ADD DUP2 DUP2 MSTORE POP POP PUSH1 0x1 DUP4 PUSH2 0x120 ADD SWAP1 ISZERO ISZERO SWAP1 DUP2 ISZERO ISZERO DUP2 MSTORE POP POP NUMBER DUP4 PUSH1 0x60 ADD DUP2 DUP2 MSTORE POP POP CALLER DUP4 PUSH2 0x140 ADD SWAP1 PUSH20 0xFFFFFFFFFFFFFFFFFFFFFFFFFFFFFFFFFFFFFFFF AND SWAP1 DUP2 PUSH20 0xFFFFFFFFFFFFFFFFFFFFFFFFFFFFFFFFFFFFFFFF AND DUP2 MSTORE POP POP PUSH1 0xC PUSH1 0x0 DUP7 DUP2 MSTORE PUSH1 0x20 ADD SWAP1 DUP2 MSTORE PUSH1 0x20 ADD PUSH1 0x0 KECCAK256 PUSH1 0x4 ADD PUSH1 0x0 SWAP1 SLOAD SWAP1 PUSH2 0x100 EXP SWAP1 DIV PUSH20 0xFFFFFFFFFFFFFFFFFFFFFFFFFFFFFFFFFFFFFFFF AND DUP4 PUSH2 0x160 ADD SWAP1 PUSH20 0xFFFFFFFFFFFFFFFFFFFFFFFFFFFFFFFFFFFFFFFF AND SWAP1 DUP2 PUSH20 0xFFFFFFFFFFFFFFFFFFFFFFFFFFFFFFFFFFFFFFFF AND DUP2 MSTORE POP POP DUP3 PUSH1 0xD PUSH1 0x0 DUP6 PUSH1 0x0 ADD MLOAD DUP2 MSTORE PUSH1 0x20 ADD SWAP1 DUP2 MSTORE PUSH1 0x20 ADD PUSH1 0x0 KECCAK256 PUSH1 0x0 DUP3 ADD MLOAD DUP2 PUSH1 0x0 ADD SSTORE PUSH1 0x20 DUP3 ADD MLOAD DUP2 PUSH1 0x1 ADD SSTORE PUSH1 0x40 DUP3 ADD MLOAD DUP2 PUSH1 0x2 ADD SSTORE PUSH1 0x60 DUP3 ADD MLOAD DUP2 PUSH1 0x3 ADD SSTORE PUSH1 0x80 DUP3 ADD MLOAD DUP2 PUSH1 0x4 ADD SSTORE PUSH1 0xA0 DUP3 ADD MLOAD DUP2 PUSH1 0x5 ADD SSTORE PUSH1 0xC0 DUP3 ADD MLOAD DUP2 PUSH1 0x6 ADD SSTORE PUSH1 0xE0 DUP3 ADD MLOAD DUP2 PUSH1 0x7 ADD PUSH1 0x0 PUSH2 0x100 EXP DUP2 SLOAD DUP2 PUSH1 0xFF MUL NOT AND SWAP1 DUP4 PUSH1 0xFF AND MUL OR SWAP1 SSTORE POP PUSH2 0x100 DUP3 ADD MLOAD DUP2 PUSH1 0x7 ADD PUSH1 0x1 PUSH2 0x100 EXP DUP2 SLOAD DUP2 PUSH1 0xFF MUL NOT AND SWAP1 DUP4 PUSH1 0xFF AND MUL OR SWAP1 SSTORE POP PUSH2 0x120 DUP3 ADD MLOAD DUP2 PUSH1 0x7 ADD PUSH1 0x2 PUSH2 0x100 EXP DUP2 SLOAD DUP2 PUSH1 0xFF MUL NOT AND SWAP1 DUP4 ISZERO ISZERO MUL OR SWAP1 SSTORE POP PUSH2 0x140 DUP3 ADD MLOAD DUP2 PUSH1 0x7 ADD PUSH1 0x3 PUSH2 0x100 EXP DUP2 SLOAD DUP2 PUSH20 0xFFFFFFFFFFFFFFFFFFFFFFFFFFFFFFFFFFFFFFFF MUL NOT AND SWAP1 DUP4 PUSH20 0xFFFFFFFFFFFFFFFFFFFFFFFFFFFFFFFFFFFFFFFF AND MUL OR SWAP1 SSTORE POP PUSH2 0x160 DUP3 ADD MLOAD DUP2 PUSH1 0x8 ADD PUSH1 0x0 PUSH2 0x100 EXP DUP2 SLOAD DUP2 PUSH20 0xFFFFFFFFFFFFFFFFFFFFFFFFFFFFFFFFFFFFFFFF MUL NOT AND SWAP1 DUP4 PUSH20 0xFFFFFFFFFFFFFFFFFFFFFFFFFFFFFFFFFFFFFFFF AND MUL OR SWAP1 SSTORE POP SWAP1 POP POP DUP2 CALLVALUE GT ISZERO PUSH2 0x3AA1 JUMPI PUSH1 0x0 DUP1 CALLER PUSH20 0xFFFFFFFFFFFFFFFFFFFFFFFFFFFFFFFFFFFFFFFF AND DUP5 CALLVALUE PUSH2 0x3A0B SWAP2 SWAP1 PUSH2 0x4D85 JUMP JUMPDEST PUSH1 0x40 MLOAD PUSH2 0x3A17 SWAP1 PUSH2 0x4691 JUMP JUMPDEST PUSH1 0x0 PUSH1 0x40 MLOAD DUP1 DUP4 SUB DUP2 DUP6 DUP8 GAS CALL SWAP3 POP POP POP RETURNDATASIZE DUP1 PUSH1 0x0 DUP2 EQ PUSH2 0x3A54 JUMPI PUSH1 0x40 MLOAD SWAP2 POP PUSH1 0x1F NOT PUSH1 0x3F RETURNDATASIZE ADD AND DUP3 ADD PUSH1 0x40 MSTORE RETURNDATASIZE DUP3 MSTORE RETURNDATASIZE PUSH1 0x0 PUSH1 0x20 DUP5 ADD RETURNDATACOPY PUSH2 0x3A59 JUMP JUMPDEST PUSH1 0x60 SWAP2 POP JUMPDEST POP SWAP2 POP SWAP2 POP DUP2 PUSH2 0x3A9E JUMPI PUSH1 0x40 MLOAD PUSH32 0x8C379A000000000000000000000000000000000000000000000000000000000 DUP2 MSTORE PUSH1 0x4 ADD PUSH2 0x3A95 SWAP1 PUSH2 0x4793 JUMP JUMPDEST PUSH1 0x40 MLOAD DUP1 SWAP2 SUB SWAP1 REVERT JUMPDEST POP POP JUMPDEST PUSH32 0x74D0D8AFE3D8246A3D231394D7F207463085FFCEC78A367C5B7404CE21EBAD1B DUP4 PUSH1 0x0 ADD MLOAD DUP5 PUSH1 0x20 ADD MLOAD DUP6 PUSH1 0x40 ADD MLOAD PUSH1 0xC PUSH1 0x0 DUP11 DUP2 MSTORE PUSH1 0x20 ADD SWAP1 DUP2 MSTORE PUSH1 0x20 ADD PUSH1 0x0 KECCAK256 PUSH1 0x5 ADD SLOAD DUP8 PUSH2 0x140 ADD MLOAD DUP9 PUSH2 0x160 ADD MLOAD PUSH1 0xC PUSH1 0x0 DUP14 DUP2 MSTORE PUSH1 0x20 ADD SWAP1 DUP2 MSTORE PUSH1 0x20 ADD PUSH1 0x0 KECCAK256 PUSH1 0x1 ADD PUSH1 0x40 MLOAD PUSH2 0x3B1D SWAP8 SWAP7 SWAP6 SWAP5 SWAP4 SWAP3 SWAP2 SWAP1 PUSH2 0x4AE2 JUMP JUMPDEST PUSH1 0x40 MLOAD DUP1 SWAP2 SUB SWAP1 LOG1 DUP3 PUSH1 0x0 ADD MLOAD SWAP4 POP POP POP POP SWAP2 SWAP1 POP JUMP JUMPDEST PUSH1 0xB PUSH1 0x0 SWAP1 SLOAD SWAP1 PUSH2 0x100 EXP SWAP1 DIV PUSH1 0xFF AND DUP2 JUMP JUMPDEST PUSH1 0x3 PUSH1 0x0 SWAP1 SLOAD SWAP1 PUSH2 0x100 EXP SWAP1 DIV PUSH20 0xFFFFFFFFFFFFFFFFFFFFFFFFFFFFFFFFFFFFFFFF AND DUP2 JUMP JUMPDEST PUSH1 0xC PUSH1 0x20 MSTORE DUP1 PUSH1 0x0 MSTORE PUSH1 0x40 PUSH1 0x0 KECCAK256 PUSH1 0x0 SWAP2 POP SWAP1 POP DUP1 PUSH1 0x0 ADD SLOAD SWAP1 DUP1 PUSH1 0x1 ADD DUP1 SLOAD PUSH2 0x3B96 SWAP1 PUSH2 0x4E70 JUMP JUMPDEST DUP1 PUSH1 0x1F ADD PUSH1 0x20 DUP1 SWAP2 DIV MUL PUSH1 0x20 ADD PUSH1 0x40 MLOAD SWAP1 DUP2 ADD PUSH1 0x40 MSTORE DUP1 SWAP3 SWAP2 SWAP1 DUP2 DUP2 MSTORE PUSH1 0x20 ADD DUP3 DUP1 SLOAD PUSH2 0x3BC2 SWAP1 PUSH2 0x4E70 JUMP JUMPDEST DUP1 ISZERO PUSH2 0x3C0F JUMPI DUP1 PUSH1 0x1F LT PUSH2 0x3BE4 JUMPI PUSH2 0x100 DUP1 DUP4 SLOAD DIV MUL DUP4 MSTORE SWAP2 PUSH1 0x20 ADD SWAP2 PUSH2 0x3C0F JUMP JUMPDEST DUP3 ADD SWAP2 SWAP1 PUSH1 0x0 MSTORE PUSH1 0x20 PUSH1 0x0 KECCAK256 SWAP1 JUMPDEST DUP2 SLOAD DUP2 MSTORE SWAP1 PUSH1 0x1 ADD SWAP1 PUSH1 0x20 ADD DUP1 DUP4 GT PUSH2 0x3BF2 JUMPI DUP3 SWAP1 SUB PUSH1 0x1F AND DUP3 ADD SWAP2 JUMPDEST POP POP POP POP POP SWAP1 DUP1 PUSH1 0x2 ADD PUSH1 0x0 SWAP1 SLOAD SWAP1 PUSH2 0x100 EXP SWAP1 DIV PUSH1 0xFF AND SWAP1 DUP1 PUSH1 0x3 ADD SLOAD SWAP1 DUP1 PUSH1 0x4 ADD PUSH1 0x0 SWAP1 SLOAD SWAP1 PUSH2 0x100 EXP SWAP1 DIV PUSH20 0xFFFFFFFFFFFFFFFFFFFFFFFFFFFFFFFFFFFFFFFF AND SWAP1 DUP1 PUSH1 0x5 ADD SLOAD SWAP1 POP DUP7 JUMP JUMPDEST PUSH1 0x0 DUP1 PUSH1 0x4 PUSH1 0x0 SWAP1 SLOAD SWAP1 PUSH2 0x100 EXP SWAP1 DIV PUSH20 0xFFFFFFFFFFFFFFFFFFFFFFFFFFFFFFFFFFFFFFFF AND PUSH20 0xFFFFFFFFFFFFFFFFFFFFFFFFFFFFFFFFFFFFFFFF AND DUP4 PUSH1 0x40 MLOAD PUSH2 0x3CA7 SWAP1 PUSH2 0x4691 JUMP JUMPDEST PUSH1 0x0 PUSH1 0x40 MLOAD DUP1 DUP4 SUB DUP2 DUP6 DUP8 GAS CALL SWAP3 POP POP POP RETURNDATASIZE DUP1 PUSH1 0x0 DUP2 EQ PUSH2 0x3CE4 JUMPI PUSH1 0x40 MLOAD SWAP2 POP PUSH1 0x1F NOT PUSH1 0x3F RETURNDATASIZE ADD AND DUP3 ADD PUSH1 0x40 MSTORE RETURNDATASIZE DUP3 MSTORE RETURNDATASIZE PUSH1 0x0 PUSH1 0x20 DUP5 ADD RETURNDATACOPY PUSH2 0x3CE9 JUMP JUMPDEST PUSH1 0x60 SWAP2 POP JUMPDEST POP SWAP2 POP SWAP2 POP DUP2 PUSH2 0x3D2E JUMPI PUSH1 0x40 MLOAD PUSH32 0x8C379A000000000000000000000000000000000000000000000000000000000 DUP2 MSTORE PUSH1 0x4 ADD PUSH2 0x3D25 SWAP1 PUSH2 0x4793 JUMP JUMPDEST PUSH1 0x40 MLOAD DUP1 SWAP2 SUB SWAP1 REVERT JUMPDEST POP POP POP JUMP JUMPDEST DUP3 DUP1 SLOAD PUSH2 0x3D3F SWAP1 PUSH2 0x4E70 JUMP JUMPDEST SWAP1 PUSH1 0x0 MSTORE PUSH1 0x20 PUSH1 0x0 KECCAK256 SWAP1 PUSH1 0x1F ADD PUSH1 0x20 SWAP1 DIV DUP2 ADD SWAP3 DUP3 PUSH2 0x3D61 JUMPI PUSH1 0x0 DUP6 SSTORE PUSH2 0x3DA8 JUMP JUMPDEST DUP3 PUSH1 0x1F LT PUSH2 0x3D7A JUMPI DUP1 MLOAD PUSH1 0xFF NOT AND DUP4 DUP1 ADD OR DUP6 SSTORE PUSH2 0x3DA8 JUMP JUMPDEST DUP3 DUP1 ADD PUSH1 0x1 ADD DUP6 SSTORE DUP3 ISZERO PUSH2 0x3DA8 JUMPI SWAP2 DUP3 ADD JUMPDEST DUP3 DUP2 GT ISZERO PUSH2 0x3DA7 JUMPI DUP3 MLOAD DUP3 SSTORE SWAP2 PUSH1 0x20 ADD SWAP2 SWAP1 PUSH1 0x1 ADD SWAP1 PUSH2 0x3D8C JUMP JUMPDEST JUMPDEST POP SWAP1 POP PUSH2 0x3DB5 SWAP2 SWAP1 PUSH2 0x3EC6 JUMP JUMPDEST POP SWAP1 JUMP JUMPDEST PUSH1 0x40 MLOAD DUP1 PUSH1 0xC0 ADD PUSH1 0x40 MSTORE DUP1 PUSH1 0x0 DUP2 MSTORE PUSH1 0x20 ADD PUSH1 0x60 DUP2 MSTORE PUSH1 0x20 ADD PUSH1 0x0 ISZERO ISZERO DUP2 MSTORE PUSH1 0x20 ADD PUSH1 0x0 DUP2 MSTORE PUSH1 0x20 ADD PUSH1 0x0 PUSH20 0xFFFFFFFFFFFFFFFFFFFFFFFFFFFFFFFFFFFFFFFF AND DUP2 MSTORE PUSH1 0x20 ADD PUSH1 0x0 DUP2 MSTORE POP SWAP1 JUMP JUMPDEST PUSH1 0x40 MLOAD DUP1 PUSH1 0x80 ADD PUSH1 0x40 MSTORE DUP1 PUSH1 0x60 DUP2 MSTORE PUSH1 0x20 ADD PUSH1 0x60 DUP2 MSTORE PUSH1 0x20 ADD PUSH1 0x0 DUP2 MSTORE PUSH1 0x20 ADD PUSH1 0x0 ISZERO ISZERO DUP2 MSTORE POP SWAP1 JUMP JUMPDEST PUSH1 0x40 MLOAD DUP1 PUSH2 0x180 ADD PUSH1 0x40 MSTORE DUP1 PUSH1 0x0 DUP2 MSTORE PUSH1 0x20 ADD PUSH1 0x0 DUP2 MSTORE PUSH1 0x20 ADD PUSH1 0x0 DUP2 MSTORE PUSH1 0x20 ADD PUSH1 0x0 DUP2 MSTORE PUSH1 0x20 ADD PUSH1 0x0 DUP2 MSTORE PUSH1 0x20 ADD PUSH1 0x0 DUP2 MSTORE PUSH1 0x20 ADD PUSH1 0x0 DUP2 MSTORE PUSH1 0x20 ADD PUSH1 0x0 PUSH1 0xFF AND DUP2 MSTORE PUSH1 0x20 ADD PUSH1 0x0 PUSH1 0xFF AND DUP2 MSTORE PUSH1 0x20 ADD PUSH1 0x0 ISZERO ISZERO DUP2 MSTORE PUSH1 0x20 ADD PUSH1 0x0 PUSH20 0xFFFFFFFFFFFFFFFFFFFFFFFFFFFFFFFFFFFFFFFF AND DUP2 MSTORE PUSH1 0x20 ADD PUSH1 0x0 PUSH20 0xFFFFFFFFFFFFFFFFFFFFFFFFFFFFFFFFFFFFFFFF AND DUP2 MSTORE POP SWAP1 JUMP JUMPDEST JUMPDEST DUP1 DUP3 GT ISZERO PUSH2 0x3EDF JUMPI PUSH1 0x0 DUP2 PUSH1 0x0 SWAP1 SSTORE POP PUSH1 0x1 ADD PUSH2 0x3EC7 JUMP JUMPDEST POP SWAP1 JUMP JUMPDEST PUSH1 0x0 PUSH2 0x3EF6 PUSH2 0x3EF1 DUP5 PUSH2 0x4C37 JUMP JUMPDEST PUSH2 0x4C12 JUMP JUMPDEST SWAP1 POP DUP3 DUP2 MSTORE PUSH1 0x20 DUP2 ADD DUP5 DUP5 DUP5 ADD GT ISZERO PUSH2 0x3F12 JUMPI PUSH2 0x3F11 PUSH2 0x4FDD JUMP JUMPDEST JUMPDEST PUSH2 0x3F1D DUP5 DUP3 DUP6 PUSH2 0x4E2E JUMP JUMPDEST POP SWAP4 SWAP3 POP POP POP JUMP JUMPDEST PUSH1 0x0 DUP2 CALLDATALOAD SWAP1 POP PUSH2 0x3F34 DUP2 PUSH2 0x53C6 JUMP JUMPDEST SWAP3 SWAP2 POP POP JUMP JUMPDEST PUSH1 0x0 DUP2 CALLDATALOAD SWAP1 POP PUSH2 0x3F49 DUP2 PUSH2 0x53DD JUMP JUMPDEST SWAP3 SWAP2 POP POP JUMP JUMPDEST PUSH1 0x0 DUP2 MLOAD SWAP1 POP PUSH2 0x3F5E DUP2 PUSH2 0x53DD JUMP JUMPDEST SWAP3 SWAP2 POP POP JUMP JUMPDEST PUSH1 0x0 DUP2 MLOAD SWAP1 POP PUSH2 0x3F73 DUP2 PUSH2 0x53F4 JUMP JUMPDEST SWAP3 SWAP2 POP POP JUMP JUMPDEST PUSH1 0x0 DUP3 PUSH1 0x1F DUP4 ADD SLT PUSH2 0x3F8E JUMPI PUSH2 0x3F8D PUSH2 0x4FD8 JUMP JUMPDEST JUMPDEST DUP2 CALLDATALOAD PUSH2 0x3F9E DUP5 DUP3 PUSH1 0x20 DUP7 ADD PUSH2 0x3EE3 JUMP JUMPDEST SWAP2 POP POP SWAP3 SWAP2 POP POP JUMP JUMPDEST PUSH1 0x0 DUP2 CALLDATALOAD SWAP1 POP PUSH2 0x3FB6 DUP2 PUSH2 0x540B JUMP JUMPDEST SWAP3 SWAP2 POP POP JUMP JUMPDEST PUSH1 0x0 DUP2 MLOAD SWAP1 POP PUSH2 0x3FCB DUP2 PUSH2 0x540B JUMP JUMPDEST SWAP3 SWAP2 POP POP JUMP JUMPDEST PUSH1 0x0 DUP2 MLOAD SWAP1 POP PUSH2 0x3FE0 DUP2 PUSH2 0x5422 JUMP JUMPDEST SWAP3 SWAP2 POP POP JUMP JUMPDEST PUSH1 0x0 PUSH1 0x20 DUP3 DUP5 SUB SLT ISZERO PUSH2 0x3FFC JUMPI PUSH2 0x3FFB PUSH2 0x4FE7 JUMP JUMPDEST JUMPDEST PUSH1 0x0 PUSH2 0x400A DUP5 DUP3 DUP6 ADD PUSH2 0x3F25 JUMP JUMPDEST SWAP2 POP POP SWAP3 SWAP2 POP POP JUMP JUMPDEST PUSH1 0x0 DUP1 PUSH1 0x40 DUP4 DUP6 SUB SLT ISZERO PUSH2 0x402A JUMPI PUSH2 0x4029 PUSH2 0x4FE7 JUMP JUMPDEST JUMPDEST PUSH1 0x0 PUSH2 0x4038 DUP6 DUP3 DUP7 ADD PUSH2 0x3F25 JUMP JUMPDEST SWAP3 POP POP PUSH1 0x20 PUSH2 0x4049 DUP6 DUP3 DUP7 ADD PUSH2 0x3FA7 JUMP JUMPDEST SWAP2 POP POP SWAP3 POP SWAP3 SWAP1 POP JUMP JUMPDEST PUSH1 0x0 PUSH1 0x20 DUP3 DUP5 SUB SLT ISZERO PUSH2 0x4069 JUMPI PUSH2 0x4068 PUSH2 0x4FE7 JUMP JUMPDEST JUMPDEST PUSH1 0x0 PUSH2 0x4077 DUP5 DUP3 DUP6 ADD PUSH2 0x3F3A JUMP JUMPDEST SWAP2 POP POP SWAP3 SWAP2 POP POP JUMP JUMPDEST PUSH1 0x0 PUSH1 0x20 DUP3 DUP5 SUB SLT ISZERO PUSH2 0x4096 JUMPI PUSH2 0x4095 PUSH2 0x4FE7 JUMP JUMPDEST JUMPDEST PUSH1 0x0 PUSH2 0x40A4 DUP5 DUP3 DUP6 ADD PUSH2 0x3F4F JUMP JUMPDEST SWAP2 POP POP SWAP3 SWAP2 POP POP JUMP JUMPDEST PUSH1 0x0 DUP1 PUSH1 0x0 DUP1 PUSH1 0x80 DUP6 DUP8 SUB SLT ISZERO PUSH2 0x40C7 JUMPI PUSH2 0x40C6 PUSH2 0x4FE7 JUMP JUMPDEST JUMPDEST PUSH1 0x0 DUP6 ADD CALLDATALOAD PUSH8 0xFFFFFFFFFFFFFFFF DUP2 GT ISZERO PUSH2 0x40E5 JUMPI PUSH2 0x40E4 PUSH2 0x4FE2 JUMP JUMPDEST JUMPDEST PUSH2 0x40F1 DUP8 DUP3 DUP9 ADD PUSH2 0x3F79 JUMP JUMPDEST SWAP5 POP POP PUSH1 0x20 PUSH2 0x4102 DUP8 DUP3 DUP9 ADD PUSH2 0x3F3A JUMP JUMPDEST SWAP4 POP POP PUSH1 0x40 PUSH2 0x4113 DUP8 DUP3 DUP9 ADD PUSH2 0x3FA7 JUMP JUMPDEST SWAP3 POP POP PUSH1 0x60 PUSH2 0x4124 DUP8 DUP3 DUP9 ADD PUSH2 0x3FA7 JUMP JUMPDEST SWAP2 POP POP SWAP3 SWAP6 SWAP2 SWAP5 POP SWAP3 POP JUMP JUMPDEST PUSH1 0x0 PUSH1 0x20 DUP3 DUP5 SUB SLT ISZERO PUSH2 0x4146 JUMPI PUSH2 0x4145 PUSH2 0x4FE7 JUMP JUMPDEST JUMPDEST PUSH1 0x0 PUSH2 0x4154 DUP5 DUP3 DUP6 ADD PUSH2 0x3FA7 JUMP JUMPDEST SWAP2 POP POP SWAP3 SWAP2 POP POP JUMP JUMPDEST PUSH1 0x0 DUP1 PUSH1 0x40 DUP4 DUP6 SUB SLT ISZERO PUSH2 0x4174 JUMPI PUSH2 0x4173 PUSH2 0x4FE7 JUMP JUMPDEST JUMPDEST PUSH1 0x0 PUSH2 0x4182 DUP6 DUP3 DUP7 ADD PUSH2 0x3FA7 JUMP JUMPDEST SWAP3 POP POP PUSH1 0x20 PUSH2 0x4193 DUP6 DUP3 DUP7 ADD PUSH2 0x3F25 JUMP JUMPDEST SWAP2 POP POP SWAP3 POP SWAP3 SWAP1 POP JUMP JUMPDEST PUSH1 0x0 DUP1 PUSH1 0x40 DUP4 DUP6 SUB SLT ISZERO PUSH2 0x41B4 JUMPI PUSH2 0x41B3 PUSH2 0x4FE7 JUMP JUMPDEST JUMPDEST PUSH1 0x0 PUSH2 0x41C2 DUP6 DUP3 DUP7 ADD PUSH2 0x3FA7 JUMP JUMPDEST SWAP3 POP POP PUSH1 0x20 PUSH2 0x41D3 DUP6 DUP3 DUP7 ADD PUSH2 0x3F3A JUMP JUMPDEST SWAP2 POP POP SWAP3 POP SWAP3 SWAP1 POP JUMP JUMPDEST PUSH1 0x0 DUP1 PUSH1 0x40 DUP4 DUP6 SUB SLT ISZERO PUSH2 0x41F4 JUMPI PUSH2 0x41F3 PUSH2 0x4FE7 JUMP JUMPDEST JUMPDEST PUSH1 0x0 PUSH2 0x4202 DUP6 DUP3 DUP7 ADD PUSH2 0x3FA7 JUMP JUMPDEST SWAP3 POP POP PUSH1 0x20 DUP4 ADD CALLDATALOAD PUSH8 0xFFFFFFFFFFFFFFFF DUP2 GT ISZERO PUSH2 0x4223 JUMPI PUSH2 0x4222 PUSH2 0x4FE2 JUMP JUMPDEST JUMPDEST PUSH2 0x422F DUP6 DUP3 DUP7 ADD PUSH2 0x3F79 JUMP JUMPDEST SWAP2 POP POP SWAP3 POP SWAP3 SWAP1 POP JUMP JUMPDEST PUSH1 0x0 DUP1 PUSH1 0x40 DUP4 DUP6 SUB SLT ISZERO PUSH2 0x4250 JUMPI PUSH2 0x424F PUSH2 0x4FE7 JUMP JUMPDEST JUMPDEST PUSH1 0x0 PUSH2 0x425E DUP6 DUP3 DUP7 ADD PUSH2 0x3FA7 JUMP JUMPDEST SWAP3 POP POP PUSH1 0x20 PUSH2 0x426F DUP6 DUP3 DUP7 ADD PUSH2 0x3FA7 JUMP JUMPDEST SWAP2 POP POP SWAP3 POP SWAP3 SWAP1 POP JUMP JUMPDEST PUSH1 0x0 DUP1 PUSH1 0x0 DUP1 PUSH1 0x0 PUSH1 0xA0 DUP7 DUP9 SUB SLT ISZERO PUSH2 0x4295 JUMPI PUSH2 0x4294 PUSH2 0x4FE7 JUMP JUMPDEST JUMPDEST PUSH1 0x0 PUSH2 0x42A3 DUP9 DUP3 DUP10 ADD PUSH2 0x3FD1 JUMP JUMPDEST SWAP6 POP POP PUSH1 0x20 PUSH2 0x42B4 DUP9 DUP3 DUP10 ADD PUSH2 0x3F64 JUMP JUMPDEST SWAP5 POP POP PUSH1 0x40 PUSH2 0x42C5 DUP9 DUP3 DUP10 ADD PUSH2 0x3FBC JUMP JUMPDEST SWAP4 POP POP PUSH1 0x60 PUSH2 0x42D6 DUP9 DUP3 DUP10 ADD PUSH2 0x3FBC JUMP JUMPDEST SWAP3 POP POP PUSH1 0x80 PUSH2 0x42E7 DUP9 DUP3 DUP10 ADD PUSH2 0x3FD1 JUMP JUMPDEST SWAP2 POP POP SWAP3 SWAP6 POP SWAP3 SWAP6 SWAP1 SWAP4 POP JUMP JUMPDEST PUSH2 0x42FD DUP2 PUSH2 0x4DB9 JUMP JUMPDEST DUP3 MSTORE POP POP JUMP JUMPDEST PUSH2 0x430C DUP2 PUSH2 0x4DCB JUMP JUMPDEST DUP3 MSTORE POP POP JUMP JUMPDEST PUSH2 0x431B DUP2 PUSH2 0x4DD7 JUMP JUMPDEST DUP3 MSTORE POP POP JUMP JUMPDEST PUSH1 0x0 PUSH2 0x432C DUP3 PUSH2 0x4C7D JUMP JUMPDEST PUSH2 0x4336 DUP2 DUP6 PUSH2 0x4C93 JUMP JUMPDEST SWAP4 POP PUSH2 0x4346 DUP2 DUP6 PUSH1 0x20 DUP7 ADD PUSH2 0x4E3D JUMP JUMPDEST PUSH2 0x434F DUP2 PUSH2 0x4FEC JUMP JUMPDEST DUP5 ADD SWAP2 POP POP SWAP3 SWAP2 POP POP JUMP JUMPDEST PUSH1 0x0 DUP2 SLOAD PUSH2 0x4367 DUP2 PUSH2 0x4E70 JUMP JUMPDEST PUSH2 0x4371 DUP2 DUP7 PUSH2 0x4C93 JUMP JUMPDEST SWAP5 POP PUSH1 0x1 DUP3 AND PUSH1 0x0 DUP2 EQ PUSH2 0x438C JUMPI PUSH1 0x1 DUP2 EQ PUSH2 0x439E JUMPI PUSH2 0x43D1 JUMP JUMPDEST PUSH1 0xFF NOT DUP4 AND DUP7 MSTORE PUSH1 0x20 DUP7 ADD SWAP4 POP PUSH2 0x43D1 JUMP JUMPDEST PUSH2 0x43A7 DUP6 PUSH2 0x4C68 JUMP JUMPDEST PUSH1 0x0 JUMPDEST DUP4 DUP2 LT ISZERO PUSH2 0x43C9 JUMPI DUP2 SLOAD DUP2 DUP10 ADD MSTORE PUSH1 0x1 DUP3 ADD SWAP2 POP PUSH1 0x20 DUP2 ADD SWAP1 POP PUSH2 0x43AA JUMP JUMPDEST DUP1 DUP9 ADD SWAP6 POP POP POP JUMPDEST POP POP POP SWAP3 SWAP2 POP POP JUMP JUMPDEST PUSH1 0x0 PUSH2 0x43E7 PUSH1 0x23 DUP4 PUSH2 0x4C93 JUMP JUMPDEST SWAP2 POP PUSH2 0x43F2 DUP3 PUSH2 0x4FFD JUMP JUMPDEST PUSH1 0x40 DUP3 ADD SWAP1 POP SWAP2 SWAP1 POP JUMP JUMPDEST PUSH1 0x0 PUSH2 0x440A PUSH1 0x14 DUP4 PUSH2 0x4C93 JUMP JUMPDEST SWAP2 POP PUSH2 0x4415 DUP3 PUSH2 0x504C JUMP JUMPDEST PUSH1 0x20 DUP3 ADD SWAP1 POP SWAP2 SWAP1 POP JUMP JUMPDEST PUSH1 0x0 PUSH2 0x442D PUSH1 0x2A DUP4 PUSH2 0x4C93 JUMP JUMPDEST SWAP2 POP PUSH2 0x4438 DUP3 PUSH2 0x5075 JUMP JUMPDEST PUSH1 0x40 DUP3 ADD SWAP1 POP SWAP2 SWAP1 POP JUMP JUMPDEST PUSH1 0x0 PUSH2 0x4450 PUSH1 0x25 DUP4 PUSH2 0x4C93 JUMP JUMPDEST SWAP2 POP PUSH2 0x445B DUP3 PUSH2 0x50C4 JUMP JUMPDEST PUSH1 0x40 DUP3 ADD SWAP1 POP SWAP2 SWAP1 POP JUMP JUMPDEST PUSH1 0x0 PUSH2 0x4473 PUSH1 0x1D DUP4 PUSH2 0x4C93 JUMP JUMPDEST SWAP2 POP PUSH2 0x447E DUP3 PUSH2 0x5113 JUMP JUMPDEST PUSH1 0x20 DUP3 ADD SWAP1 POP SWAP2 SWAP1 POP JUMP JUMPDEST PUSH1 0x0 PUSH2 0x4496 PUSH1 0x15 DUP4 PUSH2 0x4C93 JUMP JUMPDEST SWAP2 POP PUSH2 0x44A1 DUP3 PUSH2 0x513C JUMP JUMPDEST PUSH1 0x20 DUP3 ADD SWAP1 POP SWAP2 SWAP1 POP JUMP JUMPDEST PUSH1 0x0 PUSH2 0x44B9 PUSH1 0x16 DUP4 PUSH2 0x4C93 JUMP JUMPDEST SWAP2 POP PUSH2 0x44C4 DUP3 PUSH2 0x5165 JUMP JUMPDEST PUSH1 0x20 DUP3 ADD SWAP1 POP SWAP2 SWAP1 POP JUMP JUMPDEST PUSH1 0x0 PUSH2 0x44DC PUSH1 0x12 DUP4 PUSH2 0x4C93 JUMP JUMPDEST SWAP2 POP PUSH2 0x44E7 DUP3 PUSH2 0x518E JUMP JUMPDEST PUSH1 0x20 DUP3 ADD SWAP1 POP SWAP2 SWAP1 POP JUMP JUMPDEST PUSH1 0x0 PUSH2 0x44FF PUSH1 0x18 DUP4 PUSH2 0x4C93 JUMP JUMPDEST SWAP2 POP PUSH2 0x450A DUP3 PUSH2 0x51B7 JUMP JUMPDEST PUSH1 0x20 DUP3 ADD SWAP1 POP SWAP2 SWAP1 POP JUMP JUMPDEST PUSH1 0x0 PUSH2 0x4522 PUSH1 0x25 DUP4 PUSH2 0x4C93 JUMP JUMPDEST SWAP2 POP PUSH2 0x452D DUP3 PUSH2 0x51E0 JUMP JUMPDEST PUSH1 0x40 DUP3 ADD SWAP1 POP SWAP2 SWAP1 POP JUMP JUMPDEST PUSH1 0x0 PUSH2 0x4545 PUSH1 0xD DUP4 PUSH2 0x4C93 JUMP JUMPDEST SWAP2 POP PUSH2 0x4550 DUP3 PUSH2 0x522F JUMP JUMPDEST PUSH1 0x20 DUP3 ADD SWAP1 POP SWAP2 SWAP1 POP JUMP JUMPDEST PUSH1 0x0 PUSH2 0x4568 PUSH1 0x0 DUP4 PUSH2 0x4C88 JUMP JUMPDEST SWAP2 POP PUSH2 0x4573 DUP3 PUSH2 0x5258 JUMP JUMPDEST PUSH1 0x0 DUP3 ADD SWAP1 POP SWAP2 SWAP1 POP JUMP JUMPDEST PUSH1 0x0 PUSH2 0x458B PUSH1 0x2F DUP4 PUSH2 0x4C93 JUMP JUMPDEST SWAP2 POP PUSH2 0x4596 DUP3 PUSH2 0x525B JUMP JUMPDEST PUSH1 0x40 DUP3 ADD SWAP1 POP SWAP2 SWAP1 POP JUMP JUMPDEST PUSH1 0x0 PUSH2 0x45AE PUSH1 0x12 DUP4 PUSH2 0x4C93 JUMP JUMPDEST SWAP2 POP PUSH2 0x45B9 DUP3 PUSH2 0x52AA JUMP JUMPDEST PUSH1 0x20 DUP3 ADD SWAP1 POP SWAP2 SWAP1 POP JUMP JUMPDEST PUSH1 0x0 PUSH2 0x45D1 PUSH1 0x20 DUP4 PUSH2 0x4C93 JUMP JUMPDEST SWAP2 POP PUSH2 0x45DC DUP3 PUSH2 0x52D3 JUMP JUMPDEST PUSH1 0x20 DUP3 ADD SWAP1 POP SWAP2 SWAP1 POP JUMP JUMPDEST PUSH1 0x0 PUSH2 0x45F4 PUSH1 0x26 DUP4 PUSH2 0x4C93 JUMP JUMPDEST SWAP2 POP PUSH2 0x45FF DUP3 PUSH2 0x52FC JUMP JUMPDEST PUSH1 0x40 DUP3 ADD SWAP1 POP SWAP2 SWAP1 POP JUMP JUMPDEST PUSH1 0x0 PUSH2 0x4617 PUSH1 0x17 DUP4 PUSH2 0x4C93 JUMP JUMPDEST SWAP2 POP PUSH2 0x4622 DUP3 PUSH2 0x534B JUMP JUMPDEST PUSH1 0x20 DUP3 ADD SWAP1 POP SWAP2 SWAP1 POP JUMP JUMPDEST PUSH1 0x0 PUSH2 0x463A PUSH1 0x1F DUP4 PUSH2 0x4C93 JUMP JUMPDEST SWAP2 POP PUSH2 0x4645 DUP3 PUSH2 0x5374 JUMP JUMPDEST PUSH1 0x20 DUP3 ADD SWAP1 POP SWAP2 SWAP1 POP JUMP JUMPDEST PUSH1 0x0 PUSH2 0x465D PUSH1 0x1E DUP4 PUSH2 0x4C93 JUMP JUMPDEST SWAP2 POP PUSH2 0x4668 DUP3 PUSH2 0x539D JUMP JUMPDEST PUSH1 0x20 DUP3 ADD SWAP1 POP SWAP2 SWAP1 POP JUMP JUMPDEST PUSH2 0x467C DUP2 PUSH2 0x4E01 JUMP JUMPDEST DUP3 MSTORE POP POP JUMP JUMPDEST PUSH2 0x468B DUP2 PUSH2 0x4E0B JUMP JUMPDEST DUP3 MSTORE POP POP JUMP JUMPDEST PUSH1 0x0 PUSH2 0x469C DUP3 PUSH2 0x455B JUMP JUMPDEST SWAP2 POP DUP2 SWAP1 POP SWAP2 SWAP1 POP JUMP JUMPDEST PUSH1 0x0 PUSH1 0x20 DUP3 ADD SWAP1 POP PUSH2 0x46BB PUSH1 0x0 DUP4 ADD DUP5 PUSH2 0x42F4 JUMP JUMPDEST SWAP3 SWAP2 POP POP JUMP JUMPDEST PUSH1 0x0 PUSH1 0x40 DUP3 ADD SWAP1 POP PUSH2 0x46D6 PUSH1 0x0 DUP4 ADD DUP6 PUSH2 0x42F4 JUMP JUMPDEST PUSH2 0x46E3 PUSH1 0x20 DUP4 ADD DUP5 PUSH2 0x4673 JUMP JUMPDEST SWAP4 SWAP3 POP POP POP JUMP JUMPDEST PUSH1 0x0 PUSH1 0x20 DUP3 ADD SWAP1 POP PUSH2 0x46FF PUSH1 0x0 DUP4 ADD DUP5 PUSH2 0x4303 JUMP JUMPDEST SWAP3 SWAP2 POP POP JUMP JUMPDEST PUSH1 0x0 PUSH1 0x20 DUP3 ADD SWAP1 POP PUSH2 0x471A PUSH1 0x0 DUP4 ADD DUP5 PUSH2 0x4312 JUMP JUMPDEST SWAP3 SWAP2 POP POP JUMP JUMPDEST PUSH1 0x0 PUSH1 0x80 DUP3 ADD SWAP1 POP DUP2 DUP2 SUB PUSH1 0x0 DUP4 ADD MSTORE PUSH2 0x473A DUP2 DUP8 PUSH2 0x4321 JUMP JUMPDEST SWAP1 POP DUP2 DUP2 SUB PUSH1 0x20 DUP4 ADD MSTORE PUSH2 0x474E DUP2 DUP7 PUSH2 0x4321 JUMP JUMPDEST SWAP1 POP PUSH2 0x475D PUSH1 0x40 DUP4 ADD DUP6 PUSH2 0x4673 JUMP JUMPDEST PUSH2 0x476A PUSH1 0x60 DUP4 ADD DUP5 PUSH2 0x4303 JUMP JUMPDEST SWAP6 SWAP5 POP POP POP POP POP JUMP JUMPDEST PUSH1 0x0 PUSH1 0x20 DUP3 ADD SWAP1 POP DUP2 DUP2 SUB PUSH1 0x0 DUP4 ADD MSTORE PUSH2 0x478C DUP2 PUSH2 0x43DA JUMP JUMPDEST SWAP1 POP SWAP2 SWAP1 POP JUMP JUMPDEST PUSH1 0x0 PUSH1 0x20 DUP3 ADD SWAP1 POP DUP2 DUP2 SUB PUSH1 0x0 DUP4 ADD MSTORE PUSH2 0x47AC DUP2 PUSH2 0x43FD JUMP JUMPDEST SWAP1 POP SWAP2 SWAP1 POP JUMP JUMPDEST PUSH1 0x0 PUSH1 0x20 DUP3 ADD SWAP1 POP DUP2 DUP2 SUB PUSH1 0x0 DUP4 ADD MSTORE PUSH2 0x47CC DUP2 PUSH2 0x4420 JUMP JUMPDEST SWAP1 POP SWAP2 SWAP1 POP JUMP JUMPDEST PUSH1 0x0 PUSH1 0x20 DUP3 ADD SWAP1 POP DUP2 DUP2 SUB PUSH1 0x0 DUP4 ADD MSTORE PUSH2 0x47EC DUP2 PUSH2 0x4443 JUMP JUMPDEST SWAP1 POP SWAP2 SWAP1 POP JUMP JUMPDEST PUSH1 0x0 PUSH1 0x20 DUP3 ADD SWAP1 POP DUP2 DUP2 SUB PUSH1 0x0 DUP4 ADD MSTORE PUSH2 0x480C DUP2 PUSH2 0x4466 JUMP JUMPDEST SWAP1 POP SWAP2 SWAP1 POP JUMP JUMPDEST PUSH1 0x0 PUSH1 0x20 DUP3 ADD SWAP1 POP DUP2 DUP2 SUB PUSH1 0x0 DUP4 ADD MSTORE PUSH2 0x482C DUP2 PUSH2 0x4489 JUMP JUMPDEST SWAP1 POP SWAP2 SWAP1 POP JUMP JUMPDEST PUSH1 0x0 PUSH1 0x20 DUP3 ADD SWAP1 POP DUP2 DUP2 SUB PUSH1 0x0 DUP4 ADD MSTORE PUSH2 0x484C DUP2 PUSH2 0x44AC JUMP JUMPDEST SWAP1 POP SWAP2 SWAP1 POP JUMP JUMPDEST PUSH1 0x0 PUSH1 0x20 DUP3 ADD SWAP1 POP DUP2 DUP2 SUB PUSH1 0x0 DUP4 ADD MSTORE PUSH2 0x486C DUP2 PUSH2 0x44CF JUMP JUMPDEST SWAP1 POP SWAP2 SWAP1 POP JUMP JUMPDEST PUSH1 0x0 PUSH1 0x20 DUP3 ADD SWAP1 POP DUP2 DUP2 SUB PUSH1 0x0 DUP4 ADD MSTORE PUSH2 0x488C DUP2 PUSH2 0x44F2 JUMP JUMPDEST SWAP1 POP SWAP2 SWAP1 POP JUMP JUMPDEST PUSH1 0x0 PUSH1 0x20 DUP3 ADD SWAP1 POP DUP2 DUP2 SUB PUSH1 0x0 DUP4 ADD MSTORE PUSH2 0x48AC DUP2 PUSH2 0x4515 JUMP JUMPDEST SWAP1 POP SWAP2 SWAP1 POP JUMP JUMPDEST PUSH1 0x0 PUSH1 0x20 DUP3 ADD SWAP1 POP DUP2 DUP2 SUB PUSH1 0x0 DUP4 ADD MSTORE PUSH2 0x48CC DUP2 PUSH2 0x4538 JUMP JUMPDEST SWAP1 POP SWAP2 SWAP1 POP JUMP JUMPDEST PUSH1 0x0 PUSH1 0x20 DUP3 ADD SWAP1 POP DUP2 DUP2 SUB PUSH1 0x0 DUP4 ADD MSTORE PUSH2 0x48EC DUP2 PUSH2 0x457E JUMP JUMPDEST SWAP1 POP SWAP2 SWAP1 POP JUMP JUMPDEST PUSH1 0x0 PUSH1 0x20 DUP3 ADD SWAP1 POP DUP2 DUP2 SUB PUSH1 0x0 DUP4 ADD MSTORE PUSH2 0x490C DUP2 PUSH2 0x45A1 JUMP JUMPDEST SWAP1 POP SWAP2 SWAP1 POP JUMP JUMPDEST PUSH1 0x0 PUSH1 0x20 DUP3 ADD SWAP1 POP DUP2 DUP2 SUB PUSH1 0x0 DUP4 ADD MSTORE PUSH2 0x492C DUP2 PUSH2 0x45C4 JUMP JUMPDEST SWAP1 POP SWAP2 SWAP1 POP JUMP JUMPDEST PUSH1 0x0 PUSH1 0x20 DUP3 ADD SWAP1 POP DUP2 DUP2 SUB PUSH1 0x0 DUP4 ADD MSTORE PUSH2 0x494C DUP2 PUSH2 0x45E7 JUMP JUMPDEST SWAP1 POP SWAP2 SWAP1 POP JUMP JUMPDEST PUSH1 0x0 PUSH1 0x20 DUP3 ADD SWAP1 POP DUP2 DUP2 SUB PUSH1 0x0 DUP4 ADD MSTORE PUSH2 0x496C DUP2 PUSH2 0x460A JUMP JUMPDEST SWAP1 POP SWAP2 SWAP1 POP JUMP JUMPDEST PUSH1 0x0 PUSH1 0x20 DUP3 ADD SWAP1 POP DUP2 DUP2 SUB PUSH1 0x0 DUP4 ADD MSTORE PUSH2 0x498C DUP2 PUSH2 0x462D JUMP JUMPDEST SWAP1 POP SWAP2 SWAP1 POP JUMP JUMPDEST PUSH1 0x0 PUSH1 0x20 DUP3 ADD SWAP1 POP DUP2 DUP2 SUB PUSH1 0x0 DUP4 ADD MSTORE PUSH2 0x49AC DUP2 PUSH2 0x4650 JUMP JUMPDEST SWAP1 POP SWAP2 SWAP1 POP JUMP JUMPDEST PUSH1 0x0 PUSH1 0x20 DUP3 ADD SWAP1 POP PUSH2 0x49C8 PUSH1 0x0 DUP4 ADD DUP5 PUSH2 0x4673 JUMP JUMPDEST SWAP3 SWAP2 POP POP JUMP JUMPDEST PUSH1 0x0 PUSH1 0x40 DUP3 ADD SWAP1 POP PUSH2 0x49E3 PUSH1 0x0 DUP4 ADD DUP6 PUSH2 0x4673 JUMP JUMPDEST PUSH2 0x49F0 PUSH1 0x20 DUP4 ADD DUP5 PUSH2 0x42F4 JUMP JUMPDEST SWAP4 SWAP3 POP POP POP JUMP JUMPDEST PUSH1 0x0 PUSH1 0x80 DUP3 ADD SWAP1 POP PUSH2 0x4A0C PUSH1 0x0 DUP4 ADD DUP8 PUSH2 0x4673 JUMP JUMPDEST PUSH2 0x4A19 PUSH1 0x20 DUP4 ADD DUP7 PUSH2 0x42F4 JUMP JUMPDEST DUP2 DUP2 SUB PUSH1 0x40 DUP4 ADD MSTORE PUSH2 0x4A2B DUP2 DUP6 PUSH2 0x4321 JUMP JUMPDEST SWAP1 POP PUSH2 0x4A3A PUSH1 0x60 DUP4 ADD DUP5 PUSH2 0x4673 JUMP JUMPDEST SWAP6 SWAP5 POP POP POP POP POP JUMP JUMPDEST PUSH1 0x0 PUSH1 0xC0 DUP3 ADD SWAP1 POP PUSH2 0x4A58 PUSH1 0x0 DUP4 ADD DUP10 PUSH2 0x4673 JUMP JUMPDEST DUP2 DUP2 SUB PUSH1 0x20 DUP4 ADD MSTORE PUSH2 0x4A6A DUP2 DUP9 PUSH2 0x4321 JUMP JUMPDEST SWAP1 POP PUSH2 0x4A79 PUSH1 0x40 DUP4 ADD DUP8 PUSH2 0x4303 JUMP JUMPDEST PUSH2 0x4A86 PUSH1 0x60 DUP4 ADD DUP7 PUSH2 0x4673 JUMP JUMPDEST PUSH2 0x4A93 PUSH1 0x80 DUP4 ADD DUP6 PUSH2 0x42F4 JUMP JUMPDEST PUSH2 0x4AA0 PUSH1 0xA0 DUP4 ADD DUP5 PUSH2 0x4673 JUMP JUMPDEST SWAP8 SWAP7 POP POP POP POP POP POP POP JUMP JUMPDEST PUSH1 0x0 PUSH1 0x60 DUP3 ADD SWAP1 POP PUSH2 0x4AC0 PUSH1 0x0 DUP4 ADD DUP7 PUSH2 0x4673 JUMP JUMPDEST PUSH2 0x4ACD PUSH1 0x20 DUP4 ADD DUP6 PUSH2 0x4673 JUMP JUMPDEST PUSH2 0x4ADA PUSH1 0x40 DUP4 ADD DUP5 PUSH2 0x4673 JUMP JUMPDEST SWAP5 SWAP4 POP POP POP POP JUMP JUMPDEST PUSH1 0x0 PUSH1 0xE0 DUP3 ADD SWAP1 POP PUSH2 0x4AF7 PUSH1 0x0 DUP4 ADD DUP11 PUSH2 0x4673 JUMP JUMPDEST PUSH2 0x4B04 PUSH1 0x20 DUP4 ADD DUP10 PUSH2 0x4673 JUMP JUMPDEST PUSH2 0x4B11 PUSH1 0x40 DUP4 ADD DUP9 PUSH2 0x4673 JUMP JUMPDEST PUSH2 0x4B1E PUSH1 0x60 DUP4 ADD DUP8 PUSH2 0x4673 JUMP JUMPDEST PUSH2 0x4B2B PUSH1 0x80 DUP4 ADD DUP7 PUSH2 0x42F4 JUMP JUMPDEST PUSH2 0x4B38 PUSH1 0xA0 DUP4 ADD DUP6 PUSH2 0x42F4 JUMP JUMPDEST DUP2 DUP2 SUB PUSH1 0xC0 DUP4 ADD MSTORE PUSH2 0x4B4A DUP2 DUP5 PUSH2 0x435A JUMP JUMPDEST SWAP1 POP SWAP9 SWAP8 POP POP POP POP POP POP POP POP JUMP JUMPDEST PUSH1 0x0 PUSH2 0x180 DUP3 ADD SWAP1 POP PUSH2 0x4B6E PUSH1 0x0 DUP4 ADD DUP16 PUSH2 0x4673 JUMP JUMPDEST PUSH2 0x4B7B PUSH1 0x20 DUP4 ADD DUP15 PUSH2 0x4673 JUMP JUMPDEST PUSH2 0x4B88 PUSH1 0x40 DUP4 ADD DUP14 PUSH2 0x4673 JUMP JUMPDEST PUSH2 0x4B95 PUSH1 0x60 DUP4 ADD DUP13 PUSH2 0x4673 JUMP JUMPDEST PUSH2 0x4BA2 PUSH1 0x80 DUP4 ADD DUP12 PUSH2 0x4673 JUMP JUMPDEST PUSH2 0x4BAF PUSH1 0xA0 DUP4 ADD DUP11 PUSH2 0x4673 JUMP JUMPDEST PUSH2 0x4BBC PUSH1 0xC0 DUP4 ADD DUP10 PUSH2 0x4673 JUMP JUMPDEST PUSH2 0x4BC9 PUSH1 0xE0 DUP4 ADD DUP9 PUSH2 0x4682 JUMP JUMPDEST PUSH2 0x4BD7 PUSH2 0x100 DUP4 ADD DUP8 PUSH2 0x4682 JUMP JUMPDEST PUSH2 0x4BE5 PUSH2 0x120 DUP4 ADD DUP7 PUSH2 0x4303 JUMP JUMPDEST PUSH2 0x4BF3 PUSH2 0x140 DUP4 ADD DUP6 PUSH2 0x42F4 JUMP JUMPDEST PUSH2 0x4C01 PUSH2 0x160 DUP4 ADD DUP5 PUSH2 0x42F4 JUMP JUMPDEST SWAP14 SWAP13 POP POP POP POP POP POP POP POP POP POP POP POP POP JUMP JUMPDEST PUSH1 0x0 PUSH2 0x4C1C PUSH2 0x4C2D JUMP JUMPDEST SWAP1 POP PUSH2 0x4C28 DUP3 DUP3 PUSH2 0x4EA2 JUMP JUMPDEST SWAP2 SWAP1 POP JUMP JUMPDEST PUSH1 0x0 PUSH1 0x40 MLOAD SWAP1 POP SWAP1 JUMP JUMPDEST PUSH1 0x0 PUSH8 0xFFFFFFFFFFFFFFFF DUP3 GT ISZERO PUSH2 0x4C52 JUMPI PUSH2 0x4C51 PUSH2 0x4FA9 JUMP JUMPDEST JUMPDEST PUSH2 0x4C5B DUP3 PUSH2 0x4FEC JUMP JUMPDEST SWAP1 POP PUSH1 0x20 DUP2 ADD SWAP1 POP SWAP2 SWAP1 POP JUMP JUMPDEST PUSH1 0x0 DUP2 SWAP1 POP DUP2 PUSH1 0x0 MSTORE PUSH1 0x20 PUSH1 0x0 KECCAK256 SWAP1 POP SWAP2 SWAP1 POP JUMP JUMPDEST PUSH1 0x0 DUP2 MLOAD SWAP1 POP SWAP2 SWAP1 POP JUMP JUMPDEST PUSH1 0x0 DUP2 SWAP1 POP SWAP3 SWAP2 POP POP JUMP JUMPDEST PUSH1 0x0 DUP3 DUP3 MSTORE PUSH1 0x20 DUP3 ADD SWAP1 POP SWAP3 SWAP2 POP POP JUMP JUMPDEST PUSH1 0x0 PUSH2 0x4CAF DUP3 PUSH2 0x4E01 JUMP JUMPDEST SWAP2 POP PUSH2 0x4CBA DUP4 PUSH2 0x4E01 JUMP JUMPDEST SWAP3 POP DUP3 PUSH32 0xFFFFFFFFFFFFFFFFFFFFFFFFFFFFFFFFFFFFFFFFFFFFFFFFFFFFFFFFFFFFFFFF SUB DUP3 GT ISZERO PUSH2 0x4CEF JUMPI PUSH2 0x4CEE PUSH2 0x4F1C JUMP JUMPDEST JUMPDEST DUP3 DUP3 ADD SWAP1 POP SWAP3 SWAP2 POP POP JUMP JUMPDEST PUSH1 0x0 PUSH2 0x4D05 DUP3 PUSH2 0x4E01 JUMP JUMPDEST SWAP2 POP PUSH2 0x4D10 DUP4 PUSH2 0x4E01 JUMP JUMPDEST SWAP3 POP DUP3 PUSH2 0x4D20 JUMPI PUSH2 0x4D1F PUSH2 0x4F4B JUMP JUMPDEST JUMPDEST DUP3 DUP3 DIV SWAP1 POP SWAP3 SWAP2 POP POP JUMP JUMPDEST PUSH1 0x0 PUSH2 0x4D36 DUP3 PUSH2 0x4E01 JUMP JUMPDEST SWAP2 POP PUSH2 0x4D41 DUP4 PUSH2 0x4E01 JUMP JUMPDEST SWAP3 POP DUP2 PUSH32 0xFFFFFFFFFFFFFFFFFFFFFFFFFFFFFFFFFFFFFFFFFFFFFFFFFFFFFFFFFFFFFFFF DIV DUP4 GT DUP3 ISZERO ISZERO AND ISZERO PUSH2 0x4D7A JUMPI PUSH2 0x4D79 PUSH2 0x4F1C JUMP JUMPDEST JUMPDEST DUP3 DUP3 MUL SWAP1 POP SWAP3 SWAP2 POP POP JUMP JUMPDEST PUSH1 0x0 PUSH2 0x4D90 DUP3 PUSH2 0x4E01 JUMP JUMPDEST SWAP2 POP PUSH2 0x4D9B DUP4 PUSH2 0x4E01 JUMP JUMPDEST SWAP3 POP DUP3 DUP3 LT ISZERO PUSH2 0x4DAE JUMPI PUSH2 0x4DAD PUSH2 0x4F1C JUMP JUMPDEST JUMPDEST DUP3 DUP3 SUB SWAP1 POP SWAP3 SWAP2 POP POP JUMP JUMPDEST PUSH1 0x0 PUSH2 0x4DC4 DUP3 PUSH2 0x4DE1 JUMP JUMPDEST SWAP1 POP SWAP2 SWAP1 POP JUMP JUMPDEST PUSH1 0x0 DUP2 ISZERO ISZERO SWAP1 POP SWAP2 SWAP1 POP JUMP JUMPDEST PUSH1 0x0 DUP2 SWAP1 POP SWAP2 SWAP1 POP JUMP JUMPDEST PUSH1 0x0 PUSH20 0xFFFFFFFFFFFFFFFFFFFFFFFFFFFFFFFFFFFFFFFF DUP3 AND SWAP1 POP SWAP2 SWAP1 POP JUMP JUMPDEST PUSH1 0x0 DUP2 SWAP1 POP SWAP2 SWAP1 POP JUMP JUMPDEST PUSH1 0x0 PUSH1 0xFF DUP3 AND SWAP1 POP SWAP2 SWAP1 POP JUMP JUMPDEST PUSH1 0x0 PUSH10 0xFFFFFFFFFFFFFFFFFFFF DUP3 AND SWAP1 POP SWAP2 SWAP1 POP JUMP JUMPDEST DUP3 DUP2 DUP4 CALLDATACOPY PUSH1 0x0 DUP4 DUP4 ADD MSTORE POP POP POP JUMP JUMPDEST PUSH1 0x0 JUMPDEST DUP4 DUP2 LT ISZERO PUSH2 0x4E5B JUMPI DUP1 DUP3 ADD MLOAD DUP2 DUP5 ADD MSTORE PUSH1 0x20 DUP2 ADD SWAP1 POP PUSH2 0x4E40 JUMP JUMPDEST DUP4 DUP2 GT ISZERO PUSH2 0x4E6A JUMPI PUSH1 0x0 DUP5 DUP5 ADD MSTORE JUMPDEST POP POP POP POP JUMP JUMPDEST PUSH1 0x0 PUSH1 0x2 DUP3 DIV SWAP1 POP PUSH1 0x1 DUP3 AND DUP1 PUSH2 0x4E88 JUMPI PUSH1 0x7F DUP3 AND SWAP2 POP JUMPDEST PUSH1 0x20 DUP3 LT DUP2 EQ ISZERO PUSH2 0x4E9C JUMPI PUSH2 0x4E9B PUSH2 0x4F7A JUMP JUMPDEST JUMPDEST POP SWAP2 SWAP1 POP JUMP JUMPDEST PUSH2 0x4EAB DUP3 PUSH2 0x4FEC JUMP JUMPDEST DUP2 ADD DUP2 DUP2 LT PUSH8 0xFFFFFFFFFFFFFFFF DUP3 GT OR ISZERO PUSH2 0x4ECA JUMPI PUSH2 0x4EC9 PUSH2 0x4FA9 JUMP JUMPDEST JUMPDEST DUP1 PUSH1 0x40 MSTORE POP POP POP JUMP JUMPDEST PUSH1 0x0 PUSH2 0x4EDE DUP3 PUSH2 0x4E01 JUMP JUMPDEST SWAP2 POP PUSH32 0xFFFFFFFFFFFFFFFFFFFFFFFFFFFFFFFFFFFFFFFFFFFFFFFFFFFFFFFFFFFFFFFF DUP3 EQ ISZERO PUSH2 0x4F11 JUMPI PUSH2 0x4F10 PUSH2 0x4F1C JUMP JUMPDEST JUMPDEST PUSH1 0x1 DUP3 ADD SWAP1 POP SWAP2 SWAP1 POP JUMP JUMPDEST PUSH32 0x4E487B7100000000000000000000000000000000000000000000000000000000 PUSH1 0x0 MSTORE PUSH1 0x11 PUSH1 0x4 MSTORE PUSH1 0x24 PUSH1 0x0 REVERT JUMPDEST PUSH32 0x4E487B7100000000000000000000000000000000000000000000000000000000 PUSH1 0x0 MSTORE PUSH1 0x12 PUSH1 0x4 MSTORE PUSH1 0x24 PUSH1 0x0 REVERT JUMPDEST PUSH32 0x4E487B7100000000000000000000000000000000000000000000000000000000 PUSH1 0x0 MSTORE PUSH1 0x22 PUSH1 0x4 MSTORE PUSH1 0x24 PUSH1 0x0 REVERT JUMPDEST PUSH32 0x4E487B7100000000000000000000000000000000000000000000000000000000 PUSH1 0x0 MSTORE PUSH1 0x41 PUSH1 0x4 MSTORE PUSH1 0x24 PUSH1 0x0 REVERT JUMPDEST PUSH1 0x0 DUP1 REVERT JUMPDEST PUSH1 0x0 DUP1 REVERT JUMPDEST PUSH1 0x0 DUP1 REVERT JUMPDEST PUSH1 0x0 DUP1 REVERT JUMPDEST PUSH1 0x0 PUSH1 0x1F NOT PUSH1 0x1F DUP4 ADD AND SWAP1 POP SWAP2 SWAP1 POP JUMP JUMPDEST PUSH32 0x4974656D206E6F7420666F722073616C65206F7220646F65736E277420657869 PUSH1 0x0 DUP3 ADD MSTORE PUSH32 0x73742E0000000000000000000000000000000000000000000000000000000000 PUSH1 0x20 DUP3 ADD MSTORE POP JUMP JUMPDEST PUSH32 0x4661696C656420746F2053656E64204574686572000000000000000000000000 PUSH1 0x0 DUP3 ADD MSTORE POP JUMP JUMPDEST PUSH32 0x446973707574652069736E2774206C697665206F7220697320616C7265616479 PUSH1 0x0 DUP3 ADD MSTORE PUSH32 0x207265736F6C7665642E00000000000000000000000000000000000000000000 PUSH1 0x20 DUP3 ADD MSTORE POP JUMP JUMPDEST PUSH32 0x4F6E6C792044414F20616464726573732063616E207265736F6C766520646973 PUSH1 0x0 DUP3 ADD MSTORE PUSH32 0x7075746573000000000000000000000000000000000000000000000000000000 PUSH1 0x20 DUP3 ADD MSTORE POP JUMP JUMPDEST PUSH32 0x4F6E6C79207461736B732063616E2072656365697665206F6666657273000000 PUSH1 0x0 DUP3 ADD MSTORE POP JUMP JUMPDEST PUSH32 0x42757965722063616E6E6F74206265206F776E65720000000000000000000000 PUSH1 0x0 DUP3 ADD MSTORE POP JUMP JUMPDEST PUSH32 0x4F6E6C792073656C6C65722063616E2063616E63656C00000000000000000000 PUSH1 0x0 DUP3 ADD MSTORE POP JUMP JUMPDEST PUSH32 0x4F726465722069736E2774206163746976650000000000000000000000000000 PUSH1 0x0 DUP3 ADD MSTORE POP JUMP JUMPDEST PUSH32 0x4F6E6C79206974656D206F776E65722063616E20656469740000000000000000 PUSH1 0x0 DUP3 ADD MSTORE POP JUMP JUMPDEST PUSH32 0x4E6F7420617574686F72697A65642E204275796572206F722053656C6C657220 PUSH1 0x0 DUP3 ADD MSTORE PUSH32 0x6F6E6C792E000000000000000000000000000000000000000000000000000000 PUSH1 0x20 DUP3 ADD MSTORE POP JUMP JUMPDEST PUSH32 0x4E6F7420617661696C61626C6500000000000000000000000000000000000000 PUSH1 0x0 DUP3 ADD MSTORE POP JUMP JUMPDEST POP JUMP JUMPDEST PUSH32 0x43616E206F6E6C7920616363657074206F66666572732066726F6D20776F726B PUSH1 0x0 DUP3 ADD MSTORE PUSH32 0x6572732077686F206F6666657265640000000000000000000000000000000000 PUSH1 0x20 DUP3 ADD MSTORE POP JUMP JUMPDEST PUSH32 0x446973707574652069736E2774206C6976650000000000000000000000000000 PUSH1 0x0 DUP3 ADD MSTORE POP JUMP JUMPDEST PUSH32 0x4F6E6C79206974656D206F776E65722063616E20616363657074206F66666572 PUSH1 0x0 DUP3 ADD MSTORE POP JUMP JUMPDEST PUSH32 0x4F6E6C7920636F6D70616E792063616E20757064617465207265776172647320 PUSH1 0x0 DUP3 ADD MSTORE PUSH32 0x7374617475730000000000000000000000000000000000000000000000000000 PUSH1 0x20 DUP3 ADD MSTORE POP JUMP JUMPDEST PUSH32 0x5573657220616C7265616479206D616465206F66666572000000000000000000 PUSH1 0x0 DUP3 ADD MSTORE POP JUMP JUMPDEST PUSH32 0x4F6E6C7920636F6D70616E792063616E206368616E6765206164647265737300 PUSH1 0x0 DUP3 ADD MSTORE POP JUMP JUMPDEST PUSH32 0x416D6F756E742070616964206973206C657373207468616E20746F74616C0000 PUSH1 0x0 DUP3 ADD MSTORE POP JUMP JUMPDEST PUSH2 0x53CF DUP2 PUSH2 0x4DB9 JUMP JUMPDEST DUP2 EQ PUSH2 0x53DA JUMPI PUSH1 0x0 DUP1 REVERT JUMPDEST POP JUMP JUMPDEST PUSH2 0x53E6 DUP2 PUSH2 0x4DCB JUMP JUMPDEST DUP2 EQ PUSH2 0x53F1 JUMPI PUSH1 0x0 DUP1 REVERT JUMPDEST POP JUMP JUMPDEST PUSH2 0x53FD DUP2 PUSH2 0x4DD7 JUMP JUMPDEST DUP2 EQ PUSH2 0x5408 JUMPI PUSH1 0x0 DUP1 REVERT JUMPDEST POP JUMP JUMPDEST PUSH2 0x5414 DUP2 PUSH2 0x4E01 JUMP JUMPDEST DUP2 EQ PUSH2 0x541F JUMPI PUSH1 0x0 DUP1 REVERT JUMPDEST POP JUMP JUMPDEST PUSH2 0x542B DUP2 PUSH2 0x4E18 JUMP JUMPDEST DUP2 EQ PUSH2 0x5436 JUMPI PUSH1 0x0 DUP1 REVERT JUMPDEST POP JUMP INVALID LOG2 PUSH5 0x6970667358 0x22 SLT KECCAK256 PUSH5 0xD1E6B1D623 CALLCODE SAR 0xB9 0xE0 0xE2 0x4F PUSH27 0x85520C7632C1A3737331D3D1FD332A9FB1800764736F6C63430008 SMOD STOP CALLER "
				},
				"gasEstimates": {
					"creation": {
						"codeDepositCost": "4323000",
						"executionCost": "infinite",
						"totalCost": "infinite"
					},
					"external": {
						"acceptOffer(uint256,address)": "infinite",
						"admin()": "2624",
						"buy(uint256)": "infinite",
						"buyerReward()": "2540",
						"cancel(uint256)": "infinite",
						"complete(uint256)": "infinite",
						"create(string,bool,uint256,uint256)": "infinite",
						"dao()": "2626",
						"daoReward()": "2520",
						"dispute(uint256)": "infinite",
						"disputeInfo(uint256)": "infinite",
						"editMetadata(uint256,string)": "infinite",
						"editPrice(uint256,uint256)": "infinite",
						"editState(uint256,bool)": "infinite",
						"getLatestPrice()": "infinite",
						"itemCount()": "2540",
						"itemInfo(uint256)": "infinite",
						"m4sToken()": "2560",
						"marketplaceFee()": "2496",
						"minFee()": "2519",
						"offer(uint256)": "infinite",
						"offerInfo(address,uint256)": "3155",
						"orderCount()": "2497",
						"orderInfo(uint256)": "infinite",
						"priceFeed()": "2560",
						"ratingCheck(address,uint256)": "3177",
						"resolve(uint256,address)": "infinite",
						"rewardsLive()": "2559",
						"sellerReward()": "2474",
						"updateAddress(uint256,address)": "27284",
						"updateDispute(uint256,string)": "infinite",
						"updateRewardsisLive(bool)": "26895",
						"updateRules(uint256,uint256)": "infinite",
						"userProfile(address)": "infinite"
					},
					"internal": {
						"_transferEarnings(uint256)": "infinite"
					}
				},
				"methodIdentifiers": {
					"acceptOffer(uint256,address)": "918d407d",
					"admin()": "f851a440",
					"buy(uint256)": "d96a094a",
					"buyerReward()": "c0f0f73f",
					"cancel(uint256)": "40e58ee5",
					"complete(uint256)": "971d852f",
					"create(string,bool,uint256,uint256)": "6c914501",
					"dao()": "4162169f",
					"daoReward()": "1885f580",
					"dispute(uint256)": "86d6282c",
					"disputeInfo(uint256)": "101e1940",
					"editMetadata(uint256,string)": "83219a8a",
					"editPrice(uint256,uint256)": "d0e7a5cb",
					"editState(uint256,bool)": "c0eb4e7d",
					"getLatestPrice()": "8e15f473",
					"itemCount()": "6bfb0d01",
					"itemInfo(uint256)": "fd2e997e",
					"m4sToken()": "22a5aebf",
					"marketplaceFee()": "6a166964",
					"minFee()": "24ec7590",
					"offer(uint256)": "761610fc",
					"offerInfo(address,uint256)": "34650412",
					"orderCount()": "2453ffa8",
					"orderInfo(uint256)": "6ab34a4a",
					"priceFeed()": "741bef1a",
					"ratingCheck(address,uint256)": "82c35bfa",
					"resolve(uint256,address)": "af0d467b",
					"rewardsLive()": "e039bec7",
					"sellerReward()": "54282632",
					"updateAddress(uint256,address)": "2ab29df7",
					"updateDispute(uint256,string)": "16632302",
					"updateRewardsisLive(bool)": "2ffbb678",
					"updateRules(uint256,uint256)": "a0e50ca6",
					"userProfile(address)": "1c8e8962"
				}
			},
			"storageLayout": {
				"storage": [
					{
						"astId": 65,
						"contract": "Meta4Swap_flat.sol:Meta4Swap",
						"label": "orderCount",
						"offset": 0,
						"slot": "0",
						"type": "t_uint256"
					},
					{
						"astId": 67,
						"contract": "Meta4Swap_flat.sol:Meta4Swap",
						"label": "itemCount",
						"offset": 0,
						"slot": "1",
						"type": "t_uint256"
					},
					{
						"astId": 69,
						"contract": "Meta4Swap_flat.sol:Meta4Swap",
						"label": "marketplaceFee",
						"offset": 0,
						"slot": "2",
						"type": "t_uint256"
					},
					{
						"astId": 71,
						"contract": "Meta4Swap_flat.sol:Meta4Swap",
						"label": "admin",
						"offset": 0,
						"slot": "3",
						"type": "t_address"
					},
					{
						"astId": 73,
						"contract": "Meta4Swap_flat.sol:Meta4Swap",
						"label": "dao",
						"offset": 0,
						"slot": "4",
						"type": "t_address"
					},
					{
						"astId": 75,
						"contract": "Meta4Swap_flat.sol:Meta4Swap",
						"label": "m4sToken",
						"offset": 0,
						"slot": "5",
						"type": "t_address"
					},
					{
						"astId": 77,
						"contract": "Meta4Swap_flat.sol:Meta4Swap",
						"label": "priceFeed",
						"offset": 0,
						"slot": "6",
						"type": "t_address"
					},
					{
						"astId": 79,
						"contract": "Meta4Swap_flat.sol:Meta4Swap",
						"label": "buyerReward",
						"offset": 0,
						"slot": "7",
						"type": "t_uint256"
					},
					{
						"astId": 81,
						"contract": "Meta4Swap_flat.sol:Meta4Swap",
						"label": "sellerReward",
						"offset": 0,
						"slot": "8",
						"type": "t_uint256"
					},
					{
						"astId": 83,
						"contract": "Meta4Swap_flat.sol:Meta4Swap",
						"label": "daoReward",
						"offset": 0,
						"slot": "9",
						"type": "t_uint256"
					},
					{
						"astId": 85,
						"contract": "Meta4Swap_flat.sol:Meta4Swap",
						"label": "minFee",
						"offset": 0,
						"slot": "10",
						"type": "t_uint256"
					},
					{
						"astId": 87,
						"contract": "Meta4Swap_flat.sol:Meta4Swap",
						"label": "rewardsLive",
						"offset": 0,
						"slot": "11",
						"type": "t_bool"
					},
					{
						"astId": 146,
						"contract": "Meta4Swap_flat.sol:Meta4Swap",
						"label": "itemInfo",
						"offset": 0,
						"slot": "12",
						"type": "t_mapping(t_uint256,t_struct(Item)100_storage)"
					},
					{
						"astId": 151,
						"contract": "Meta4Swap_flat.sol:Meta4Swap",
						"label": "orderInfo",
						"offset": 0,
						"slot": "13",
						"type": "t_mapping(t_uint256,t_struct(Order)125_storage)"
					},
					{
						"astId": 157,
						"contract": "Meta4Swap_flat.sol:Meta4Swap",
						"label": "offerInfo",
						"offset": 0,
						"slot": "14",
						"type": "t_mapping(t_address,t_mapping(t_uint256,t_bool))"
					},
					{
						"astId": 162,
						"contract": "Meta4Swap_flat.sol:Meta4Swap",
						"label": "disputeInfo",
						"offset": 0,
						"slot": "15",
						"type": "t_mapping(t_uint256,t_struct(Dispute)134_storage)"
					},
					{
						"astId": 167,
						"contract": "Meta4Swap_flat.sol:Meta4Swap",
						"label": "userProfile",
						"offset": 0,
						"slot": "16",
						"type": "t_mapping(t_address,t_struct(Profile)141_storage)"
					},
					{
						"astId": 173,
						"contract": "Meta4Swap_flat.sol:Meta4Swap",
						"label": "ratingCheck",
						"offset": 0,
						"slot": "17",
						"type": "t_mapping(t_address,t_mapping(t_uint256,t_bool))"
					}
				],
				"types": {
					"t_address": {
						"encoding": "inplace",
						"label": "address",
						"numberOfBytes": "20"
					},
					"t_bool": {
						"encoding": "inplace",
						"label": "bool",
						"numberOfBytes": "1"
					},
					"t_mapping(t_address,t_mapping(t_uint256,t_bool))": {
						"encoding": "mapping",
						"key": "t_address",
						"label": "mapping(address => mapping(uint256 => bool))",
						"numberOfBytes": "32",
						"value": "t_mapping(t_uint256,t_bool)"
					},
					"t_mapping(t_address,t_struct(Profile)141_storage)": {
						"encoding": "mapping",
						"key": "t_address",
						"label": "mapping(address => struct Meta4Swap.Profile)",
						"numberOfBytes": "32",
						"value": "t_struct(Profile)141_storage"
					},
					"t_mapping(t_uint256,t_bool)": {
						"encoding": "mapping",
						"key": "t_uint256",
						"label": "mapping(uint256 => bool)",
						"numberOfBytes": "32",
						"value": "t_bool"
					},
					"t_mapping(t_uint256,t_struct(Dispute)134_storage)": {
						"encoding": "mapping",
						"key": "t_uint256",
						"label": "mapping(uint256 => struct Meta4Swap.Dispute)",
						"numberOfBytes": "32",
						"value": "t_struct(Dispute)134_storage"
					},
					"t_mapping(t_uint256,t_struct(Item)100_storage)": {
						"encoding": "mapping",
						"key": "t_uint256",
						"label": "mapping(uint256 => struct Meta4Swap.Item)",
						"numberOfBytes": "32",
						"value": "t_struct(Item)100_storage"
					},
					"t_mapping(t_uint256,t_struct(Order)125_storage)": {
						"encoding": "mapping",
						"key": "t_uint256",
						"label": "mapping(uint256 => struct Meta4Swap.Order)",
						"numberOfBytes": "32",
						"value": "t_struct(Order)125_storage"
					},
					"t_string_storage": {
						"encoding": "bytes",
						"label": "string",
						"numberOfBytes": "32"
					},
					"t_struct(Dispute)134_storage": {
						"encoding": "inplace",
						"label": "struct Meta4Swap.Dispute",
						"members": [
							{
								"astId": 127,
								"contract": "Meta4Swap_flat.sol:Meta4Swap",
								"label": "buyerResponse",
								"offset": 0,
								"slot": "0",
								"type": "t_string_storage"
							},
							{
								"astId": 129,
								"contract": "Meta4Swap_flat.sol:Meta4Swap",
								"label": "sellerResponse",
								"offset": 0,
								"slot": "1",
								"type": "t_string_storage"
							},
							{
								"astId": 131,
								"contract": "Meta4Swap_flat.sol:Meta4Swap",
								"label": "created",
								"offset": 0,
								"slot": "2",
								"type": "t_uint256"
							},
							{
								"astId": 133,
								"contract": "Meta4Swap_flat.sol:Meta4Swap",
								"label": "isLive",
								"offset": 0,
								"slot": "3",
								"type": "t_bool"
							}
						],
						"numberOfBytes": "128"
					},
					"t_struct(Item)100_storage": {
						"encoding": "inplace",
						"label": "struct Meta4Swap.Item",
						"members": [
							{
								"astId": 89,
								"contract": "Meta4Swap_flat.sol:Meta4Swap",
								"label": "id",
								"offset": 0,
								"slot": "0",
								"type": "t_uint256"
							},
							{
								"astId": 91,
								"contract": "Meta4Swap_flat.sol:Meta4Swap",
								"label": "metadata",
								"offset": 0,
								"slot": "1",
								"type": "t_string_storage"
							},
							{
								"astId": 93,
								"contract": "Meta4Swap_flat.sol:Meta4Swap",
								"label": "isLive",
								"offset": 0,
								"slot": "2",
								"type": "t_bool"
							},
							{
								"astId": 95,
								"contract": "Meta4Swap_flat.sol:Meta4Swap",
								"label": "price",
								"offset": 0,
								"slot": "3",
								"type": "t_uint256"
							},
							{
								"astId": 97,
								"contract": "Meta4Swap_flat.sol:Meta4Swap",
								"label": "owner",
								"offset": 0,
								"slot": "4",
								"type": "t_address"
							},
							{
								"astId": 99,
								"contract": "Meta4Swap_flat.sol:Meta4Swap",
								"label": "serviceType",
								"offset": 0,
								"slot": "5",
								"type": "t_uint256"
							}
						],
						"numberOfBytes": "192"
					},
					"t_struct(Order)125_storage": {
						"encoding": "inplace",
						"label": "struct Meta4Swap.Order",
						"members": [
							{
								"astId": 102,
								"contract": "Meta4Swap_flat.sol:Meta4Swap",
								"label": "id",
								"offset": 0,
								"slot": "0",
								"type": "t_uint256"
							},
							{
								"astId": 104,
								"contract": "Meta4Swap_flat.sol:Meta4Swap",
								"label": "itemId",
								"offset": 0,
								"slot": "1",
								"type": "t_uint256"
							},
							{
								"astId": 106,
								"contract": "Meta4Swap_flat.sol:Meta4Swap",
								"label": "orderTotal",
								"offset": 0,
								"slot": "2",
								"type": "t_uint256"
							},
							{
								"astId": 108,
								"contract": "Meta4Swap_flat.sol:Meta4Swap",
								"label": "created",
								"offset": 0,
								"slot": "3",
								"type": "t_uint256"
							},
							{
								"astId": 110,
								"contract": "Meta4Swap_flat.sol:Meta4Swap",
								"label": "fee",
								"offset": 0,
								"slot": "4",
								"type": "t_uint256"
							},
							{
								"astId": 112,
								"contract": "Meta4Swap_flat.sol:Meta4Swap",
								"label": "itemPrice",
								"offset": 0,
								"slot": "5",
								"type": "t_uint256"
							},
							{
								"astId": 114,
								"contract": "Meta4Swap_flat.sol:Meta4Swap",
								"label": "chainLinkPrice",
								"offset": 0,
								"slot": "6",
								"type": "t_uint256"
							},
							{
								"astId": 116,
								"contract": "Meta4Swap_flat.sol:Meta4Swap",
								"label": "buyerState",
								"offset": 0,
								"slot": "7",
								"type": "t_uint8"
							},
							{
								"astId": 118,
								"contract": "Meta4Swap_flat.sol:Meta4Swap",
								"label": "sellerState",
								"offset": 1,
								"slot": "7",
								"type": "t_uint8"
							},
							{
								"astId": 120,
								"contract": "Meta4Swap_flat.sol:Meta4Swap",
								"label": "isLive",
								"offset": 2,
								"slot": "7",
								"type": "t_bool"
							},
							{
								"astId": 122,
								"contract": "Meta4Swap_flat.sol:Meta4Swap",
								"label": "buyer",
								"offset": 3,
								"slot": "7",
								"type": "t_address"
							},
							{
								"astId": 124,
								"contract": "Meta4Swap_flat.sol:Meta4Swap",
								"label": "seller",
								"offset": 0,
								"slot": "8",
								"type": "t_address"
							}
						],
						"numberOfBytes": "288"
					},
					"t_struct(Profile)141_storage": {
						"encoding": "inplace",
						"label": "struct Meta4Swap.Profile",
						"members": [
							{
								"astId": 136,
								"contract": "Meta4Swap_flat.sol:Meta4Swap",
								"label": "cancelled",
								"offset": 0,
								"slot": "0",
								"type": "t_uint256"
							},
							{
								"astId": 138,
								"contract": "Meta4Swap_flat.sol:Meta4Swap",
								"label": "completed",
								"offset": 0,
								"slot": "1",
								"type": "t_uint256"
							},
							{
								"astId": 140,
								"contract": "Meta4Swap_flat.sol:Meta4Swap",
								"label": "disputes",
								"offset": 0,
								"slot": "2",
								"type": "t_uint256"
							}
						],
						"numberOfBytes": "96"
					},
					"t_uint256": {
						"encoding": "inplace",
						"label": "uint256",
						"numberOfBytes": "32"
					},
					"t_uint8": {
						"encoding": "inplace",
						"label": "uint8",
						"numberOfBytes": "1"
					}
				}
			},
			"userdoc": {
				"kind": "user",
				"methods": {},
				"version": 1
			}
		}
	}
}