{
	"Meta4SwapToken.sol": {
		"Meta4SwapToken": {
			"abi": [
				{
					"inputs": [
						{
							"internalType": "uint256",
							"name": "initialSupply",
							"type": "uint256"
						}
					],
					"stateMutability": "nonpayable",
					"type": "constructor"
				},
				{
					"anonymous": false,
					"inputs": [
						{
							"indexed": true,
							"internalType": "address",
							"name": "owner",
							"type": "address"
						},
						{
							"indexed": true,
							"internalType": "address",
							"name": "spender",
							"type": "address"
						},
						{
							"indexed": false,
							"internalType": "uint256",
							"name": "value",
							"type": "uint256"
						}
					],
					"name": "Approval",
					"type": "event"
				},
				{
					"anonymous": false,
					"inputs": [
						{
							"indexed": true,
							"internalType": "address",
							"name": "from",
							"type": "address"
						},
						{
							"indexed": true,
							"internalType": "address",
							"name": "to",
							"type": "address"
						},
						{
							"indexed": false,
							"internalType": "uint256",
							"name": "value",
							"type": "uint256"
						}
					],
					"name": "Transfer",
					"type": "event"
				},
				{
					"inputs": [],
					"name": "admin",
					"outputs": [
						{
							"internalType": "address",
							"name": "",
							"type": "address"
						}
					],
					"stateMutability": "view",
					"type": "function"
				},
				{
					"inputs": [
						{
							"internalType": "address",
							"name": "owner",
							"type": "address"
						},
						{
							"internalType": "address",
							"name": "spender",
							"type": "address"
						}
					],
					"name": "allowance",
					"outputs": [
						{
							"internalType": "uint256",
							"name": "",
							"type": "uint256"
						}
					],
					"stateMutability": "view",
					"type": "function"
				},
				{
					"inputs": [
						{
							"internalType": "address",
							"name": "spender",
							"type": "address"
						},
						{
							"internalType": "uint256",
							"name": "amount",
							"type": "uint256"
						}
					],
					"name": "approve",
					"outputs": [
						{
							"internalType": "bool",
							"name": "",
							"type": "bool"
						}
					],
					"stateMutability": "nonpayable",
					"type": "function"
				},
				{
					"inputs": [
						{
							"internalType": "address",
							"name": "account",
							"type": "address"
						}
					],
					"name": "balanceOf",
					"outputs": [
						{
							"internalType": "uint256",
							"name": "",
							"type": "uint256"
						}
					],
					"stateMutability": "view",
					"type": "function"
				},
				{
					"inputs": [
						{
							"internalType": "address",
							"name": "_redeemer",
							"type": "address"
						},
						{
							"internalType": "uint256",
							"name": "_amount",
							"type": "uint256"
						}
					],
					"name": "burn",
					"outputs": [
						{
							"internalType": "bool",
							"name": "",
							"type": "bool"
						}
					],
					"stateMutability": "nonpayable",
					"type": "function"
				},
				{
					"inputs": [],
					"name": "decimals",
					"outputs": [
						{
							"internalType": "uint8",
							"name": "",
							"type": "uint8"
						}
					],
					"stateMutability": "view",
					"type": "function"
				},
				{
					"inputs": [
						{
							"internalType": "address",
							"name": "spender",
							"type": "address"
						},
						{
							"internalType": "uint256",
							"name": "subtractedValue",
							"type": "uint256"
						}
					],
					"name": "decreaseAllowance",
					"outputs": [
						{
							"internalType": "bool",
							"name": "",
							"type": "bool"
						}
					],
					"stateMutability": "nonpayable",
					"type": "function"
				},
				{
					"inputs": [
						{
							"internalType": "address",
							"name": "spender",
							"type": "address"
						},
						{
							"internalType": "uint256",
							"name": "addedValue",
							"type": "uint256"
						}
					],
					"name": "increaseAllowance",
					"outputs": [
						{
							"internalType": "bool",
							"name": "",
							"type": "bool"
						}
					],
					"stateMutability": "nonpayable",
					"type": "function"
				},
				{
					"inputs": [
						{
							"internalType": "address",
							"name": "",
							"type": "address"
						}
					],
					"name": "marketplaces",
					"outputs": [
						{
							"internalType": "bool",
							"name": "",
							"type": "bool"
						}
					],
					"stateMutability": "view",
					"type": "function"
				},
				{
					"inputs": [
						{
							"internalType": "address",
							"name": "_receiver",
							"type": "address"
						},
						{
							"internalType": "uint256",
							"name": "_rewardRate",
							"type": "uint256"
						}
					],
					"name": "mintReward",
					"outputs": [
						{
							"internalType": "bool",
							"name": "",
							"type": "bool"
						}
					],
					"stateMutability": "nonpayable",
					"type": "function"
				},
				{
					"inputs": [],
					"name": "name",
					"outputs": [
						{
							"internalType": "string",
							"name": "",
							"type": "string"
						}
					],
					"stateMutability": "view",
					"type": "function"
				},
				{
					"inputs": [],
					"name": "symbol",
					"outputs": [
						{
							"internalType": "string",
							"name": "",
							"type": "string"
						}
					],
					"stateMutability": "view",
					"type": "function"
				},
				{
					"inputs": [],
					"name": "totalSupply",
					"outputs": [
						{
							"internalType": "uint256",
							"name": "",
							"type": "uint256"
						}
					],
					"stateMutability": "view",
					"type": "function"
				},
				{
					"inputs": [
						{
							"internalType": "address",
							"name": "to",
							"type": "address"
						},
						{
							"internalType": "uint256",
							"name": "amount",
							"type": "uint256"
						}
					],
					"name": "transfer",
					"outputs": [
						{
							"internalType": "bool",
							"name": "",
							"type": "bool"
						}
					],
					"stateMutability": "nonpayable",
					"type": "function"
				},
				{
					"inputs": [
						{
							"internalType": "address",
							"name": "from",
							"type": "address"
						},
						{
							"internalType": "address",
							"name": "to",
							"type": "address"
						},
						{
							"internalType": "uint256",
							"name": "amount",
							"type": "uint256"
						}
					],
					"name": "transferFrom",
					"outputs": [
						{
							"internalType": "bool",
							"name": "",
							"type": "bool"
						}
					],
					"stateMutability": "nonpayable",
					"type": "function"
				},
				{
					"inputs": [
						{
							"internalType": "uint256",
							"name": "_value",
							"type": "uint256"
						},
						{
							"internalType": "address",
							"name": "_newAddress",
							"type": "address"
						}
					],
					"name": "updateAddress",
					"outputs": [],
					"stateMutability": "nonpayable",
					"type": "function"
				},
				{
					"inputs": [
						{
							"internalType": "address",
							"name": "_marketplace",
							"type": "address"
						},
						{
							"internalType": "bool",
							"name": "_approved",
							"type": "bool"
						}
					],
					"name": "updateMarketplaces",
					"outputs": [],
					"stateMutability": "nonpayable",
					"type": "function"
				}
			],
			"devdoc": {
				"kind": "dev",
				"methods": {
					"allowance(address,address)": {
						"details": "See {IERC20-allowance}."
					},
					"approve(address,uint256)": {
						"details": "See {IERC20-approve}. NOTE: If `amount` is the maximum `uint256`, the allowance is not updated on `transferFrom`. This is semantically equivalent to an infinite approval. Requirements: - `spender` cannot be the zero address."
					},
					"balanceOf(address)": {
						"details": "See {IERC20-balanceOf}."
					},
					"decimals()": {
						"details": "Returns the number of decimals used to get its user representation. For example, if `decimals` equals `2`, a balance of `505` tokens should be displayed to a user as `5.05` (`505 / 10 ** 2`). Tokens usually opt for a value of 18, imitating the relationship between Ether and Wei. This is the value {ERC20} uses, unless this function is overridden; NOTE: This information is only used for _display_ purposes: it in no way affects any of the arithmetic of the contract, including {IERC20-balanceOf} and {IERC20-transfer}."
					},
					"decreaseAllowance(address,uint256)": {
						"details": "Atomically decreases the allowance granted to `spender` by the caller. This is an alternative to {approve} that can be used as a mitigation for problems described in {IERC20-approve}. Emits an {Approval} event indicating the updated allowance. Requirements: - `spender` cannot be the zero address. - `spender` must have allowance for the caller of at least `subtractedValue`."
					},
					"increaseAllowance(address,uint256)": {
						"details": "Atomically increases the allowance granted to `spender` by the caller. This is an alternative to {approve} that can be used as a mitigation for problems described in {IERC20-approve}. Emits an {Approval} event indicating the updated allowance. Requirements: - `spender` cannot be the zero address."
					},
					"name()": {
						"details": "Returns the name of the token."
					},
					"symbol()": {
						"details": "Returns the symbol of the token, usually a shorter version of the name."
					},
					"totalSupply()": {
						"details": "See {IERC20-totalSupply}."
					},
					"transfer(address,uint256)": {
						"details": "See {IERC20-transfer}. Requirements: - `to` cannot be the zero address. - the caller must have a balance of at least `amount`."
					},
					"transferFrom(address,address,uint256)": {
						"details": "See {IERC20-transferFrom}. Emits an {Approval} event indicating the updated allowance. This is not required by the EIP. See the note at the beginning of {ERC20}. NOTE: Does not update the allowance if the current allowance is the maximum `uint256`. Requirements: - `from` and `to` cannot be the zero address. - `from` must have a balance of at least `amount`. - the caller must have allowance for ``from``'s tokens of at least `amount`."
					}
				},
				"version": 1
			},
			"evm": {
				"assembly": "    /* \"Meta4SwapToken.sol\":170:1254  contract Meta4SwapToken is ERC20 {... */\n  mstore(0x40, 0x80)\n    /* \"Meta4SwapToken.sol\":286:424  constructor(uint256 initialSupply) ERC20(\"Meta4Swap\", \"M4S\") {... */\n  callvalue\n  dup1\n  iszero\n  tag_1\n  jumpi\n  0x00\n  dup1\n  revert\ntag_1:\n  pop\n  mload(0x40)\n  sub(codesize, bytecodeSize)\n  dup1\n  bytecodeSize\n  dup4\n  codecopy\n  dup2\n  dup2\n  add\n  0x40\n  mstore\n  dup2\n  add\n  swap1\n  tag_2\n  swap2\n  swap1\n  tag_3\n  jump\t// in\ntag_2:\n    /* \"@openzeppelin/contracts/token/ERC20/ERC20.sol\":1978:2091  constructor(string memory name_, string memory symbol_) {... */\n  mload(0x40)\n  dup1\n  0x40\n  add\n  0x40\n  mstore\n  dup1\n  0x09\n  dup2\n  mstore\n  0x20\n  add\n  0x4d65746134537761700000000000000000000000000000000000000000000000\n  dup2\n  mstore\n  pop\n  mload(0x40)\n  dup1\n  0x40\n  add\n  0x40\n  mstore\n  dup1\n  0x03\n  dup2\n  mstore\n  0x20\n  add\n  0x4d34530000000000000000000000000000000000000000000000000000000000\n  dup2\n  mstore\n  pop\n    /* \"@openzeppelin/contracts/token/ERC20/ERC20.sol\":2052:2057  name_ */\n  dup2\n    /* \"@openzeppelin/contracts/token/ERC20/ERC20.sol\":2044:2049  _name */\n  0x03\n    /* \"@openzeppelin/contracts/token/ERC20/ERC20.sol\":2044:2057  _name = name_ */\n  swap1\n  dup1\n  mload\n  swap1\n  0x20\n  add\n  swap1\n  tag_7\n  swap3\n  swap2\n  swap1\n  tag_8\n  jump\t// in\ntag_7:\n  pop\n    /* \"@openzeppelin/contracts/token/ERC20/ERC20.sol\":2077:2084  symbol_ */\n  dup1\n    /* \"@openzeppelin/contracts/token/ERC20/ERC20.sol\":2067:2074  _symbol */\n  0x04\n    /* \"@openzeppelin/contracts/token/ERC20/ERC20.sol\":2067:2084  _symbol = symbol_ */\n  swap1\n  dup1\n  mload\n  swap1\n  0x20\n  add\n  swap1\n  tag_9\n  swap3\n  swap2\n  swap1\n  tag_8\n  jump\t// in\ntag_9:\n  pop\n    /* \"@openzeppelin/contracts/token/ERC20/ERC20.sol\":1978:2091  constructor(string memory name_, string memory symbol_) {... */\n  pop\n  pop\n    /* \"Meta4SwapToken.sol\":357:389  _mint(msg.sender, initialSupply) */\n  tag_11\n    /* \"Meta4SwapToken.sol\":363:373  msg.sender */\n  caller\n    /* \"Meta4SwapToken.sol\":375:388  initialSupply */\n  dup3\n    /* \"Meta4SwapToken.sol\":357:362  _mint */\n  shl(0x20, tag_12)\n    /* \"Meta4SwapToken.sol\":357:389  _mint(msg.sender, initialSupply) */\n  0x20\n  shr\n  jump\t// in\ntag_11:\n    /* \"Meta4SwapToken.sol\":407:417  msg.sender */\n  caller\n    /* \"Meta4SwapToken.sol\":399:404  admin */\n  0x06\n  0x00\n    /* \"Meta4SwapToken.sol\":399:417  admin = msg.sender */\n  0x0100\n  exp\n  dup2\n  sload\n  dup2\n  0xffffffffffffffffffffffffffffffffffffffff\n  mul\n  not\n  and\n  swap1\n  dup4\n  0xffffffffffffffffffffffffffffffffffffffff\n  and\n  mul\n  or\n  swap1\n  sstore\n  pop\n    /* \"Meta4SwapToken.sol\":286:424  constructor(uint256 initialSupply) ERC20(\"Meta4Swap\", \"M4S\") {... */\n  pop\n    /* \"Meta4SwapToken.sol\":170:1254  contract Meta4SwapToken is ERC20 {... */\n  jump(tag_13)\n    /* \"@openzeppelin/contracts/token/ERC20/ERC20.sol\":8402:8791  function _mint(address account, uint256 amount) internal virtual {... */\ntag_12:\n    /* \"@openzeppelin/contracts/token/ERC20/ERC20.sol\":8504:8505  0 */\n  0x00\n    /* \"@openzeppelin/contracts/token/ERC20/ERC20.sol\":8485:8506  account != address(0) */\n  0xffffffffffffffffffffffffffffffffffffffff\n  and\n    /* \"@openzeppelin/contracts/token/ERC20/ERC20.sol\":8485:8492  account */\n  dup3\n    /* \"@openzeppelin/contracts/token/ERC20/ERC20.sol\":8485:8506  account != address(0) */\n  0xffffffffffffffffffffffffffffffffffffffff\n  and\n  eq\n  iszero\n    /* \"@openzeppelin/contracts/token/ERC20/ERC20.sol\":8477:8542  require(account != address(0), \"ERC20: mint to the zero address\") */\n  tag_15\n  jumpi\n  mload(0x40)\n  0x08c379a000000000000000000000000000000000000000000000000000000000\n  dup2\n  mstore\n  0x04\n  add\n  tag_16\n  swap1\n  tag_17\n  jump\t// in\ntag_16:\n  mload(0x40)\n  dup1\n  swap2\n  sub\n  swap1\n  revert\ntag_15:\n    /* \"@openzeppelin/contracts/token/ERC20/ERC20.sol\":8553:8602  _beforeTokenTransfer(address(0), account, amount) */\n  tag_18\n    /* \"@openzeppelin/contracts/token/ERC20/ERC20.sol\":8582:8583  0 */\n  0x00\n    /* \"@openzeppelin/contracts/token/ERC20/ERC20.sol\":8586:8593  account */\n  dup4\n    /* \"@openzeppelin/contracts/token/ERC20/ERC20.sol\":8595:8601  amount */\n  dup4\n    /* \"@openzeppelin/contracts/token/ERC20/ERC20.sol\":8553:8573  _beforeTokenTransfer */\n  shl(0x20, tag_19)\n    /* \"@openzeppelin/contracts/token/ERC20/ERC20.sol\":8553:8602  _beforeTokenTransfer(address(0), account, amount) */\n  0x20\n  shr\n  jump\t// in\ntag_18:\n    /* \"@openzeppelin/contracts/token/ERC20/ERC20.sol\":8629:8635  amount */\n  dup1\n    /* \"@openzeppelin/contracts/token/ERC20/ERC20.sol\":8613:8625  _totalSupply */\n  0x02\n  0x00\n    /* \"@openzeppelin/contracts/token/ERC20/ERC20.sol\":8613:8635  _totalSupply += amount */\n  dup3\n  dup3\n  sload\n  tag_20\n  swap2\n  swap1\n  tag_21\n  jump\t// in\ntag_20:\n  swap3\n  pop\n  pop\n  dup2\n  swap1\n  sstore\n  pop\n    /* \"@openzeppelin/contracts/token/ERC20/ERC20.sol\":8667:8673  amount */\n  dup1\n    /* \"@openzeppelin/contracts/token/ERC20/ERC20.sol\":8645:8654  _balances */\n  0x00\n    /* \"@openzeppelin/contracts/token/ERC20/ERC20.sol\":8645:8663  _balances[account] */\n  dup1\n    /* \"@openzeppelin/contracts/token/ERC20/ERC20.sol\":8655:8662  account */\n  dup5\n    /* \"@openzeppelin/contracts/token/ERC20/ERC20.sol\":8645:8663  _balances[account] */\n  0xffffffffffffffffffffffffffffffffffffffff\n  and\n  0xffffffffffffffffffffffffffffffffffffffff\n  and\n  dup2\n  mstore\n  0x20\n  add\n  swap1\n  dup2\n  mstore\n  0x20\n  add\n  0x00\n  keccak256\n  0x00\n    /* \"@openzeppelin/contracts/token/ERC20/ERC20.sol\":8645:8673  _balances[account] += amount */\n  dup3\n  dup3\n  sload\n  tag_22\n  swap2\n  swap1\n  tag_21\n  jump\t// in\ntag_22:\n  swap3\n  pop\n  pop\n  dup2\n  swap1\n  sstore\n  pop\n    /* \"@openzeppelin/contracts/token/ERC20/ERC20.sol\":8709:8716  account */\n  dup2\n    /* \"@openzeppelin/contracts/token/ERC20/ERC20.sol\":8688:8725  Transfer(address(0), account, amount) */\n  0xffffffffffffffffffffffffffffffffffffffff\n  and\n    /* \"@openzeppelin/contracts/token/ERC20/ERC20.sol\":8705:8706  0 */\n  0x00\n    /* \"@openzeppelin/contracts/token/ERC20/ERC20.sol\":8688:8725  Transfer(address(0), account, amount) */\n  0xffffffffffffffffffffffffffffffffffffffff\n  and\n  0xddf252ad1be2c89b69c2b068fc378daa952ba7f163c4a11628f55a4df523b3ef\n    /* \"@openzeppelin/contracts/token/ERC20/ERC20.sol\":8718:8724  amount */\n  dup4\n    /* \"@openzeppelin/contracts/token/ERC20/ERC20.sol\":8688:8725  Transfer(address(0), account, amount) */\n  mload(0x40)\n  tag_23\n  swap2\n  swap1\n  tag_24\n  jump\t// in\ntag_23:\n  mload(0x40)\n  dup1\n  swap2\n  sub\n  swap1\n  log3\n    /* \"@openzeppelin/contracts/token/ERC20/ERC20.sol\":8736:8784  _afterTokenTransfer(address(0), account, amount) */\n  tag_25\n    /* \"@openzeppelin/contracts/token/ERC20/ERC20.sol\":8764:8765  0 */\n  0x00\n    /* \"@openzeppelin/contracts/token/ERC20/ERC20.sol\":8768:8775  account */\n  dup4\n    /* \"@openzeppelin/contracts/token/ERC20/ERC20.sol\":8777:8783  amount */\n  dup4\n    /* \"@openzeppelin/contracts/token/ERC20/ERC20.sol\":8736:8755  _afterTokenTransfer */\n  shl(0x20, tag_26)\n    /* \"@openzeppelin/contracts/token/ERC20/ERC20.sol\":8736:8784  _afterTokenTransfer(address(0), account, amount) */\n  0x20\n  shr\n  jump\t// in\ntag_25:\n    /* \"@openzeppelin/contracts/token/ERC20/ERC20.sol\":8402:8791  function _mint(address account, uint256 amount) internal virtual {... */\n  pop\n  pop\n  jump\t// out\n    /* \"@openzeppelin/contracts/token/ERC20/ERC20.sol\":11786:11907  function _beforeTokenTransfer(... */\ntag_19:\n  pop\n  pop\n  pop\n  jump\t// out\n    /* \"@openzeppelin/contracts/token/ERC20/ERC20.sol\":12495:12615  function _afterTokenTransfer(... */\ntag_26:\n  pop\n  pop\n  pop\n  jump\t// out\n    /* \"Meta4SwapToken.sol\":170:1254  contract Meta4SwapToken is ERC20 {... */\ntag_8:\n  dup3\n  dup1\n  sload\n  tag_29\n  swap1\n  tag_30\n  jump\t// in\ntag_29:\n  swap1\n  0x00\n  mstore\n  keccak256(0x00, 0x20)\n  swap1\n  0x1f\n  add\n  0x20\n  swap1\n  div\n  dup2\n  add\n  swap3\n  dup3\n  tag_32\n  jumpi\n  0x00\n  dup6\n  sstore\n  jump(tag_31)\ntag_32:\n  dup3\n  0x1f\n  lt\n  tag_33\n  jumpi\n  dup1\n  mload\n  not(0xff)\n  and\n  dup4\n  dup1\n  add\n  or\n  dup6\n  sstore\n  jump(tag_31)\ntag_33:\n  dup3\n  dup1\n  add\n  0x01\n  add\n  dup6\n  sstore\n  dup3\n  iszero\n  tag_31\n  jumpi\n  swap2\n  dup3\n  add\ntag_34:\n  dup3\n  dup2\n  gt\n  iszero\n  tag_35\n  jumpi\n  dup3\n  mload\n  dup3\n  sstore\n  swap2\n  0x20\n  add\n  swap2\n  swap1\n  0x01\n  add\n  swap1\n  jump(tag_34)\ntag_35:\ntag_31:\n  pop\n  swap1\n  pop\n  tag_36\n  swap2\n  swap1\n  tag_37\n  jump\t// in\ntag_36:\n  pop\n  swap1\n  jump\t// out\ntag_37:\ntag_38:\n  dup1\n  dup3\n  gt\n  iszero\n  tag_39\n  jumpi\n  0x00\n  dup2\n  0x00\n  swap1\n  sstore\n  pop\n  0x01\n  add\n  jump(tag_38)\ntag_39:\n  pop\n  swap1\n  jump\t// out\n    /* \"#utility.yul\":7:150   */\ntag_41:\n    /* \"#utility.yul\":64:69   */\n  0x00\n    /* \"#utility.yul\":95:101   */\n  dup2\n    /* \"#utility.yul\":89:102   */\n  mload\n    /* \"#utility.yul\":80:102   */\n  swap1\n  pop\n    /* \"#utility.yul\":111:144   */\n  tag_43\n    /* \"#utility.yul\":138:143   */\n  dup2\n    /* \"#utility.yul\":111:144   */\n  tag_44\n  jump\t// in\ntag_43:\n    /* \"#utility.yul\":7:150   */\n  swap3\n  swap2\n  pop\n  pop\n  jump\t// out\n    /* \"#utility.yul\":156:507   */\ntag_3:\n    /* \"#utility.yul\":226:232   */\n  0x00\n    /* \"#utility.yul\":275:277   */\n  0x20\n    /* \"#utility.yul\":263:272   */\n  dup3\n    /* \"#utility.yul\":254:261   */\n  dup5\n    /* \"#utility.yul\":250:273   */\n  sub\n    /* \"#utility.yul\":246:278   */\n  slt\n    /* \"#utility.yul\":243:362   */\n  iszero\n  tag_46\n  jumpi\n    /* \"#utility.yul\":281:360   */\n  tag_47\n  tag_48\n  jump\t// in\ntag_47:\n    /* \"#utility.yul\":243:362   */\ntag_46:\n    /* \"#utility.yul\":401:402   */\n  0x00\n    /* \"#utility.yul\":426:490   */\n  tag_49\n    /* \"#utility.yul\":482:489   */\n  dup5\n    /* \"#utility.yul\":473:479   */\n  dup3\n    /* \"#utility.yul\":462:471   */\n  dup6\n    /* \"#utility.yul\":458:480   */\n  add\n    /* \"#utility.yul\":426:490   */\n  tag_41\n  jump\t// in\ntag_49:\n    /* \"#utility.yul\":416:490   */\n  swap2\n  pop\n    /* \"#utility.yul\":372:500   */\n  pop\n    /* \"#utility.yul\":156:507   */\n  swap3\n  swap2\n  pop\n  pop\n  jump\t// out\n    /* \"#utility.yul\":513:879   */\ntag_50:\n    /* \"#utility.yul\":655:658   */\n  0x00\n    /* \"#utility.yul\":676:743   */\n  tag_52\n    /* \"#utility.yul\":740:742   */\n  0x1f\n    /* \"#utility.yul\":735:738   */\n  dup4\n    /* \"#utility.yul\":676:743   */\n  tag_53\n  jump\t// in\ntag_52:\n    /* \"#utility.yul\":669:743   */\n  swap2\n  pop\n    /* \"#utility.yul\":752:845   */\n  tag_54\n    /* \"#utility.yul\":841:844   */\n  dup3\n    /* \"#utility.yul\":752:845   */\n  tag_55\n  jump\t// in\ntag_54:\n    /* \"#utility.yul\":870:872   */\n  0x20\n    /* \"#utility.yul\":865:868   */\n  dup3\n    /* \"#utility.yul\":861:873   */\n  add\n    /* \"#utility.yul\":854:873   */\n  swap1\n  pop\n    /* \"#utility.yul\":513:879   */\n  swap2\n  swap1\n  pop\n  jump\t// out\n    /* \"#utility.yul\":885:1003   */\ntag_56:\n    /* \"#utility.yul\":972:996   */\n  tag_58\n    /* \"#utility.yul\":990:995   */\n  dup2\n    /* \"#utility.yul\":972:996   */\n  tag_59\n  jump\t// in\ntag_58:\n    /* \"#utility.yul\":967:970   */\n  dup3\n    /* \"#utility.yul\":960:997   */\n  mstore\n    /* \"#utility.yul\":885:1003   */\n  pop\n  pop\n  jump\t// out\n    /* \"#utility.yul\":1009:1428   */\ntag_17:\n    /* \"#utility.yul\":1175:1179   */\n  0x00\n    /* \"#utility.yul\":1213:1215   */\n  0x20\n    /* \"#utility.yul\":1202:1211   */\n  dup3\n    /* \"#utility.yul\":1198:1216   */\n  add\n    /* \"#utility.yul\":1190:1216   */\n  swap1\n  pop\n    /* \"#utility.yul\":1262:1271   */\n  dup2\n    /* \"#utility.yul\":1256:1260   */\n  dup2\n    /* \"#utility.yul\":1252:1272   */\n  sub\n    /* \"#utility.yul\":1248:1249   */\n  0x00\n    /* \"#utility.yul\":1237:1246   */\n  dup4\n    /* \"#utility.yul\":1233:1250   */\n  add\n    /* \"#utility.yul\":1226:1273   */\n  mstore\n    /* \"#utility.yul\":1290:1421   */\n  tag_61\n    /* \"#utility.yul\":1416:1420   */\n  dup2\n    /* \"#utility.yul\":1290:1421   */\n  tag_50\n  jump\t// in\ntag_61:\n    /* \"#utility.yul\":1282:1421   */\n  swap1\n  pop\n    /* \"#utility.yul\":1009:1428   */\n  swap2\n  swap1\n  pop\n  jump\t// out\n    /* \"#utility.yul\":1434:1656   */\ntag_24:\n    /* \"#utility.yul\":1527:1531   */\n  0x00\n    /* \"#utility.yul\":1565:1567   */\n  0x20\n    /* \"#utility.yul\":1554:1563   */\n  dup3\n    /* \"#utility.yul\":1550:1568   */\n  add\n    /* \"#utility.yul\":1542:1568   */\n  swap1\n  pop\n    /* \"#utility.yul\":1578:1649   */\n  tag_63\n    /* \"#utility.yul\":1646:1647   */\n  0x00\n    /* \"#utility.yul\":1635:1644   */\n  dup4\n    /* \"#utility.yul\":1631:1648   */\n  add\n    /* \"#utility.yul\":1622:1628   */\n  dup5\n    /* \"#utility.yul\":1578:1649   */\n  tag_56\n  jump\t// in\ntag_63:\n    /* \"#utility.yul\":1434:1656   */\n  swap3\n  swap2\n  pop\n  pop\n  jump\t// out\n    /* \"#utility.yul\":1743:1912   */\ntag_53:\n    /* \"#utility.yul\":1827:1838   */\n  0x00\n    /* \"#utility.yul\":1861:1867   */\n  dup3\n    /* \"#utility.yul\":1856:1859   */\n  dup3\n    /* \"#utility.yul\":1849:1868   */\n  mstore\n    /* \"#utility.yul\":1901:1905   */\n  0x20\n    /* \"#utility.yul\":1896:1899   */\n  dup3\n    /* \"#utility.yul\":1892:1906   */\n  add\n    /* \"#utility.yul\":1877:1906   */\n  swap1\n  pop\n    /* \"#utility.yul\":1743:1912   */\n  swap3\n  swap2\n  pop\n  pop\n  jump\t// out\n    /* \"#utility.yul\":1918:2223   */\ntag_21:\n    /* \"#utility.yul\":1958:1961   */\n  0x00\n    /* \"#utility.yul\":1977:1997   */\n  tag_68\n    /* \"#utility.yul\":1995:1996   */\n  dup3\n    /* \"#utility.yul\":1977:1997   */\n  tag_59\n  jump\t// in\ntag_68:\n    /* \"#utility.yul\":1972:1997   */\n  swap2\n  pop\n    /* \"#utility.yul\":2011:2031   */\n  tag_69\n    /* \"#utility.yul\":2029:2030   */\n  dup4\n    /* \"#utility.yul\":2011:2031   */\n  tag_59\n  jump\t// in\ntag_69:\n    /* \"#utility.yul\":2006:2031   */\n  swap3\n  pop\n    /* \"#utility.yul\":2165:2166   */\n  dup3\n    /* \"#utility.yul\":2097:2163   */\n  0xffffffffffffffffffffffffffffffffffffffffffffffffffffffffffffffff\n    /* \"#utility.yul\":2093:2167   */\n  sub\n    /* \"#utility.yul\":2090:2091   */\n  dup3\n    /* \"#utility.yul\":2087:2168   */\n  gt\n    /* \"#utility.yul\":2084:2191   */\n  iszero\n  tag_70\n  jumpi\n    /* \"#utility.yul\":2171:2189   */\n  tag_71\n  tag_72\n  jump\t// in\ntag_71:\n    /* \"#utility.yul\":2084:2191   */\ntag_70:\n    /* \"#utility.yul\":2215:2216   */\n  dup3\n    /* \"#utility.yul\":2212:2213   */\n  dup3\n    /* \"#utility.yul\":2208:2217   */\n  add\n    /* \"#utility.yul\":2201:2217   */\n  swap1\n  pop\n    /* \"#utility.yul\":1918:2223   */\n  swap3\n  swap2\n  pop\n  pop\n  jump\t// out\n    /* \"#utility.yul\":2229:2306   */\ntag_59:\n    /* \"#utility.yul\":2266:2273   */\n  0x00\n    /* \"#utility.yul\":2295:2300   */\n  dup2\n    /* \"#utility.yul\":2284:2300   */\n  swap1\n  pop\n    /* \"#utility.yul\":2229:2306   */\n  swap2\n  swap1\n  pop\n  jump\t// out\n    /* \"#utility.yul\":2312:2632   */\ntag_30:\n    /* \"#utility.yul\":2356:2362   */\n  0x00\n    /* \"#utility.yul\":2393:2394   */\n  0x02\n    /* \"#utility.yul\":2387:2391   */\n  dup3\n    /* \"#utility.yul\":2383:2395   */\n  div\n    /* \"#utility.yul\":2373:2395   */\n  swap1\n  pop\n    /* \"#utility.yul\":2440:2441   */\n  0x01\n    /* \"#utility.yul\":2434:2438   */\n  dup3\n    /* \"#utility.yul\":2430:2442   */\n  and\n    /* \"#utility.yul\":2461:2479   */\n  dup1\n    /* \"#utility.yul\":2451:2532   */\n  tag_75\n  jumpi\n    /* \"#utility.yul\":2517:2521   */\n  0x7f\n    /* \"#utility.yul\":2509:2515   */\n  dup3\n    /* \"#utility.yul\":2505:2522   */\n  and\n    /* \"#utility.yul\":2495:2522   */\n  swap2\n  pop\n    /* \"#utility.yul\":2451:2532   */\ntag_75:\n    /* \"#utility.yul\":2579:2581   */\n  0x20\n    /* \"#utility.yul\":2571:2577   */\n  dup3\n    /* \"#utility.yul\":2568:2582   */\n  lt\n    /* \"#utility.yul\":2548:2566   */\n  dup2\n    /* \"#utility.yul\":2545:2583   */\n  eq\n    /* \"#utility.yul\":2542:2626   */\n  iszero\n  tag_76\n  jumpi\n    /* \"#utility.yul\":2598:2616   */\n  tag_77\n  tag_78\n  jump\t// in\ntag_77:\n    /* \"#utility.yul\":2542:2626   */\ntag_76:\n    /* \"#utility.yul\":2363:2632   */\n  pop\n    /* \"#utility.yul\":2312:2632   */\n  swap2\n  swap1\n  pop\n  jump\t// out\n    /* \"#utility.yul\":2638:2818   */\ntag_72:\n    /* \"#utility.yul\":2686:2763   */\n  0x4e487b7100000000000000000000000000000000000000000000000000000000\n    /* \"#utility.yul\":2683:2684   */\n  0x00\n    /* \"#utility.yul\":2676:2764   */\n  mstore\n    /* \"#utility.yul\":2783:2787   */\n  0x11\n    /* \"#utility.yul\":2780:2781   */\n  0x04\n    /* \"#utility.yul\":2773:2788   */\n  mstore\n    /* \"#utility.yul\":2807:2811   */\n  0x24\n    /* \"#utility.yul\":2804:2805   */\n  0x00\n    /* \"#utility.yul\":2797:2812   */\n  revert\n    /* \"#utility.yul\":2824:3004   */\ntag_78:\n    /* \"#utility.yul\":2872:2949   */\n  0x4e487b7100000000000000000000000000000000000000000000000000000000\n    /* \"#utility.yul\":2869:2870   */\n  0x00\n    /* \"#utility.yul\":2862:2950   */\n  mstore\n    /* \"#utility.yul\":2969:2973   */\n  0x22\n    /* \"#utility.yul\":2966:2967   */\n  0x04\n    /* \"#utility.yul\":2959:2974   */\n  mstore\n    /* \"#utility.yul\":2993:2997   */\n  0x24\n    /* \"#utility.yul\":2990:2991   */\n  0x00\n    /* \"#utility.yul\":2983:2998   */\n  revert\n    /* \"#utility.yul\":3133:3250   */\ntag_48:\n    /* \"#utility.yul\":3242:3243   */\n  0x00\n    /* \"#utility.yul\":3239:3240   */\n  dup1\n    /* \"#utility.yul\":3232:3244   */\n  revert\n    /* \"#utility.yul\":3256:3437   */\ntag_55:\n    /* \"#utility.yul\":3396:3429   */\n  0x45524332303a206d696e7420746f20746865207a65726f206164647265737300\n    /* \"#utility.yul\":3392:3393   */\n  0x00\n    /* \"#utility.yul\":3384:3390   */\n  dup3\n    /* \"#utility.yul\":3380:3394   */\n  add\n    /* \"#utility.yul\":3373:3430   */\n  mstore\n    /* \"#utility.yul\":3256:3437   */\n  pop\n  jump\t// out\n    /* \"#utility.yul\":3443:3565   */\ntag_44:\n    /* \"#utility.yul\":3516:3540   */\n  tag_86\n    /* \"#utility.yul\":3534:3539   */\n  dup2\n    /* \"#utility.yul\":3516:3540   */\n  tag_59\n  jump\t// in\ntag_86:\n    /* \"#utility.yul\":3509:3514   */\n  dup2\n    /* \"#utility.yul\":3506:3541   */\n  eq\n    /* \"#utility.yul\":3496:3559   */\n  tag_87\n  jumpi\n    /* \"#utility.yul\":3555:3556   */\n  0x00\n    /* \"#utility.yul\":3552:3553   */\n  dup1\n    /* \"#utility.yul\":3545:3557   */\n  revert\n    /* \"#utility.yul\":3496:3559   */\ntag_87:\n    /* \"#utility.yul\":3443:3565   */\n  pop\n  jump\t// out\n    /* \"Meta4SwapToken.sol\":170:1254  contract Meta4SwapToken is ERC20 {... */\ntag_13:\n  dataSize(sub_0)\n  dup1\n  dataOffset(sub_0)\n  0x00\n  codecopy\n  0x00\n  return\nstop\n\nsub_0: assembly {\n        /* \"Meta4SwapToken.sol\":170:1254  contract Meta4SwapToken is ERC20 {... */\n      mstore(0x40, 0x80)\n      callvalue\n      dup1\n      iszero\n      tag_1\n      jumpi\n      0x00\n      dup1\n      revert\n    tag_1:\n      pop\n      jumpi(tag_2, lt(calldatasize, 0x04))\n      shr(0xe0, calldataload(0x00))\n      dup1\n      0x70a08231\n      gt\n      tag_20\n      jumpi\n      dup1\n      0xa457c2d7\n      gt\n      tag_21\n      jumpi\n      dup1\n      0xa457c2d7\n      eq\n      tag_15\n      jumpi\n      dup1\n      0xa9059cbb\n      eq\n      tag_16\n      jumpi\n      dup1\n      0xdd62ed3e\n      eq\n      tag_17\n      jumpi\n      dup1\n      0xefee4a8f\n      eq\n      tag_18\n      jumpi\n      dup1\n      0xf851a440\n      eq\n      tag_19\n      jumpi\n      jump(tag_2)\n    tag_21:\n      dup1\n      0x70a08231\n      eq\n      tag_11\n      jumpi\n      dup1\n      0x95d89b41\n      eq\n      tag_12\n      jumpi\n      dup1\n      0x9a49090e\n      eq\n      tag_13\n      jumpi\n      dup1\n      0x9dc29fac\n      eq\n      tag_14\n      jumpi\n      jump(tag_2)\n    tag_20:\n      dup1\n      0x2ab29df7\n      gt\n      tag_22\n      jumpi\n      dup1\n      0x2ab29df7\n      eq\n      tag_7\n      jumpi\n      dup1\n      0x313ce567\n      eq\n      tag_8\n      jumpi\n      dup1\n      0x39509351\n      eq\n      tag_9\n      jumpi\n      dup1\n      0x6a56b359\n      eq\n      tag_10\n      jumpi\n      jump(tag_2)\n    tag_22:\n      dup1\n      0x06fdde03\n      eq\n      tag_3\n      jumpi\n      dup1\n      0x095ea7b3\n      eq\n      tag_4\n      jumpi\n      dup1\n      0x18160ddd\n      eq\n      tag_5\n      jumpi\n      dup1\n      0x23b872dd\n      eq\n      tag_6\n      jumpi\n    tag_2:\n      0x00\n      dup1\n      revert\n        /* \"@openzeppelin/contracts/token/ERC20/ERC20.sol\":2156:2254  function name() public view virtual override returns (string memory) {... */\n    tag_3:\n      tag_23\n      tag_24\n      jump\t// in\n    tag_23:\n      mload(0x40)\n      tag_25\n      swap2\n      swap1\n      tag_26\n      jump\t// in\n    tag_25:\n      mload(0x40)\n      dup1\n      swap2\n      sub\n      swap1\n      return\n        /* \"@openzeppelin/contracts/token/ERC20/ERC20.sol\":4433:4630  function approve(address spender, uint256 amount) public virtual override returns (bool) {... */\n    tag_4:\n      tag_27\n      0x04\n      dup1\n      calldatasize\n      sub\n      dup2\n      add\n      swap1\n      tag_28\n      swap2\n      swap1\n      tag_29\n      jump\t// in\n    tag_28:\n      tag_30\n      jump\t// in\n    tag_27:\n      mload(0x40)\n      tag_31\n      swap2\n      swap1\n      tag_32\n      jump\t// in\n    tag_31:\n      mload(0x40)\n      dup1\n      swap2\n      sub\n      swap1\n      return\n        /* \"@openzeppelin/contracts/token/ERC20/ERC20.sol\":3244:3350  function totalSupply() public view virtual override returns (uint256) {... */\n    tag_5:\n      tag_33\n      tag_34\n      jump\t// in\n    tag_33:\n      mload(0x40)\n      tag_35\n      swap2\n      swap1\n      tag_36\n      jump\t// in\n    tag_35:\n      mload(0x40)\n      dup1\n      swap2\n      sub\n      swap1\n      return\n        /* \"@openzeppelin/contracts/token/ERC20/ERC20.sol\":5192:5478  function transferFrom(... */\n    tag_6:\n      tag_37\n      0x04\n      dup1\n      calldatasize\n      sub\n      dup2\n      add\n      swap1\n      tag_38\n      swap2\n      swap1\n      tag_39\n      jump\t// in\n    tag_38:\n      tag_40\n      jump\t// in\n    tag_37:\n      mload(0x40)\n      tag_41\n      swap2\n      swap1\n      tag_32\n      jump\t// in\n    tag_41:\n      mload(0x40)\n      dup1\n      swap2\n      sub\n      swap1\n      return\n        /* \"Meta4SwapToken.sol\":1078:1252  function updateAddress(uint256 _value, address _newAddress) public {... */\n    tag_7:\n      tag_42\n      0x04\n      dup1\n      calldatasize\n      sub\n      dup2\n      add\n      swap1\n      tag_43\n      swap2\n      swap1\n      tag_44\n      jump\t// in\n    tag_43:\n      tag_45\n      jump\t// in\n    tag_42:\n      stop\n        /* \"@openzeppelin/contracts/token/ERC20/ERC20.sol\":3093:3184  function decimals() public view virtual override returns (uint8) {... */\n    tag_8:\n      tag_46\n      tag_47\n      jump\t// in\n    tag_46:\n      mload(0x40)\n      tag_48\n      swap2\n      swap1\n      tag_49\n      jump\t// in\n    tag_48:\n      mload(0x40)\n      dup1\n      swap2\n      sub\n      swap1\n      return\n        /* \"@openzeppelin/contracts/token/ERC20/ERC20.sol\":5873:6107  function increaseAllowance(address spender, uint256 addedValue) public virtual returns (bool) {... */\n    tag_9:\n      tag_50\n      0x04\n      dup1\n      calldatasize\n      sub\n      dup2\n      add\n      swap1\n      tag_51\n      swap2\n      swap1\n      tag_29\n      jump\t// in\n    tag_51:\n      tag_52\n      jump\t// in\n    tag_50:\n      mload(0x40)\n      tag_53\n      swap2\n      swap1\n      tag_32\n      jump\t// in\n    tag_53:\n      mload(0x40)\n      dup1\n      swap2\n      sub\n      swap1\n      return\n        /* \"Meta4SwapToken.sol\":209:253  mapping(address => bool) public marketplaces */\n    tag_10:\n      tag_54\n      0x04\n      dup1\n      calldatasize\n      sub\n      dup2\n      add\n      swap1\n      tag_55\n      swap2\n      swap1\n      tag_56\n      jump\t// in\n    tag_55:\n      tag_57\n      jump\t// in\n    tag_54:\n      mload(0x40)\n      tag_58\n      swap2\n      swap1\n      tag_32\n      jump\t// in\n    tag_58:\n      mload(0x40)\n      dup1\n      swap2\n      sub\n      swap1\n      return\n        /* \"@openzeppelin/contracts/token/ERC20/ERC20.sol\":3408:3533  function balanceOf(address account) public view virtual override returns (uint256) {... */\n    tag_11:\n      tag_59\n      0x04\n      dup1\n      calldatasize\n      sub\n      dup2\n      add\n      swap1\n      tag_60\n      swap2\n      swap1\n      tag_56\n      jump\t// in\n    tag_60:\n      tag_61\n      jump\t// in\n    tag_59:\n      mload(0x40)\n      tag_62\n      swap2\n      swap1\n      tag_36\n      jump\t// in\n    tag_62:\n      mload(0x40)\n      dup1\n      swap2\n      sub\n      swap1\n      return\n        /* \"@openzeppelin/contracts/token/ERC20/ERC20.sol\":2367:2469  function symbol() public view virtual override returns (string memory) {... */\n    tag_12:\n      tag_63\n      tag_64\n      jump\t// in\n    tag_63:\n      mload(0x40)\n      tag_65\n      swap2\n      swap1\n      tag_26\n      jump\t// in\n    tag_65:\n      mload(0x40)\n      dup1\n      swap2\n      sub\n      swap1\n      return\n        /* \"Meta4SwapToken.sol\":463:694  function mintReward(address _receiver, uint256 _rewardRate)... */\n    tag_13:\n      tag_66\n      0x04\n      dup1\n      calldatasize\n      sub\n      dup2\n      add\n      swap1\n      tag_67\n      swap2\n      swap1\n      tag_29\n      jump\t// in\n    tag_67:\n      tag_68\n      jump\t// in\n    tag_66:\n      mload(0x40)\n      tag_69\n      swap2\n      swap1\n      tag_32\n      jump\t// in\n    tag_69:\n      mload(0x40)\n      dup1\n      swap2\n      sub\n      swap1\n      return\n        /* \"Meta4SwapToken.sol\":700:835  function burn(address _redeemer, uint256 _amount) public returns (bool) {... */\n    tag_14:\n      tag_70\n      0x04\n      dup1\n      calldatasize\n      sub\n      dup2\n      add\n      swap1\n      tag_71\n      swap2\n      swap1\n      tag_29\n      jump\t// in\n    tag_71:\n      tag_72\n      jump\t// in\n    tag_70:\n      mload(0x40)\n      tag_73\n      swap2\n      swap1\n      tag_32\n      jump\t// in\n    tag_73:\n      mload(0x40)\n      dup1\n      swap2\n      sub\n      swap1\n      return\n        /* \"@openzeppelin/contracts/token/ERC20/ERC20.sol\":6594:7021  function decreaseAllowance(address spender, uint256 subtractedValue) public virtual returns (bool) {... */\n    tag_15:\n      tag_74\n      0x04\n      dup1\n      calldatasize\n      sub\n      dup2\n      add\n      swap1\n      tag_75\n      swap2\n      swap1\n      tag_29\n      jump\t// in\n    tag_75:\n      tag_76\n      jump\t// in\n    tag_74:\n      mload(0x40)\n      tag_77\n      swap2\n      swap1\n      tag_32\n      jump\t// in\n    tag_77:\n      mload(0x40)\n      dup1\n      swap2\n      sub\n      swap1\n      return\n        /* \"@openzeppelin/contracts/token/ERC20/ERC20.sol\":3729:3918  function transfer(address to, uint256 amount) public virtual override returns (bool) {... */\n    tag_16:\n      tag_78\n      0x04\n      dup1\n      calldatasize\n      sub\n      dup2\n      add\n      swap1\n      tag_79\n      swap2\n      swap1\n      tag_29\n      jump\t// in\n    tag_79:\n      tag_80\n      jump\t// in\n    tag_78:\n      mload(0x40)\n      tag_81\n      swap2\n      swap1\n      tag_32\n      jump\t// in\n    tag_81:\n      mload(0x40)\n      dup1\n      swap2\n      sub\n      swap1\n      return\n        /* \"@openzeppelin/contracts/token/ERC20/ERC20.sol\":3976:4125  function allowance(address owner, address spender) public view virtual override returns (uint256) {... */\n    tag_17:\n      tag_82\n      0x04\n      dup1\n      calldatasize\n      sub\n      dup2\n      add\n      swap1\n      tag_83\n      swap2\n      swap1\n      tag_84\n      jump\t// in\n    tag_83:\n      tag_85\n      jump\t// in\n    tag_82:\n      mload(0x40)\n      tag_86\n      swap2\n      swap1\n      tag_36\n      jump\t// in\n    tag_86:\n      mload(0x40)\n      dup1\n      swap2\n      sub\n      swap1\n      return\n        /* \"Meta4SwapToken.sol\":864:1072  function updateMarketplaces(address _marketplace, bool _approved) public {... */\n    tag_18:\n      tag_87\n      0x04\n      dup1\n      calldatasize\n      sub\n      dup2\n      add\n      swap1\n      tag_88\n      swap2\n      swap1\n      tag_89\n      jump\t// in\n    tag_88:\n      tag_90\n      jump\t// in\n    tag_87:\n      stop\n        /* \"Meta4SwapToken.sol\":259:279  address public admin */\n    tag_19:\n      tag_91\n      tag_92\n      jump\t// in\n    tag_91:\n      mload(0x40)\n      tag_93\n      swap2\n      swap1\n      tag_94\n      jump\t// in\n    tag_93:\n      mload(0x40)\n      dup1\n      swap2\n      sub\n      swap1\n      return\n        /* \"@openzeppelin/contracts/token/ERC20/ERC20.sol\":2156:2254  function name() public view virtual override returns (string memory) {... */\n    tag_24:\n        /* \"@openzeppelin/contracts/token/ERC20/ERC20.sol\":2210:2223  string memory */\n      0x60\n        /* \"@openzeppelin/contracts/token/ERC20/ERC20.sol\":2242:2247  _name */\n      0x03\n        /* \"@openzeppelin/contracts/token/ERC20/ERC20.sol\":2235:2247  return _name */\n      dup1\n      sload\n      tag_96\n      swap1\n      tag_97\n      jump\t// in\n    tag_96:\n      dup1\n      0x1f\n      add\n      0x20\n      dup1\n      swap2\n      div\n      mul\n      0x20\n      add\n      mload(0x40)\n      swap1\n      dup2\n      add\n      0x40\n      mstore\n      dup1\n      swap3\n      swap2\n      swap1\n      dup2\n      dup2\n      mstore\n      0x20\n      add\n      dup3\n      dup1\n      sload\n      tag_98\n      swap1\n      tag_97\n      jump\t// in\n    tag_98:\n      dup1\n      iszero\n      tag_99\n      jumpi\n      dup1\n      0x1f\n      lt\n      tag_100\n      jumpi\n      0x0100\n      dup1\n      dup4\n      sload\n      div\n      mul\n      dup4\n      mstore\n      swap2\n      0x20\n      add\n      swap2\n      jump(tag_99)\n    tag_100:\n      dup3\n      add\n      swap2\n      swap1\n      0x00\n      mstore\n      keccak256(0x00, 0x20)\n      swap1\n    tag_101:\n      dup2\n      sload\n      dup2\n      mstore\n      swap1\n      0x01\n      add\n      swap1\n      0x20\n      add\n      dup1\n      dup4\n      gt\n      tag_101\n      jumpi\n      dup3\n      swap1\n      sub\n      0x1f\n      and\n      dup3\n      add\n      swap2\n    tag_99:\n      pop\n      pop\n      pop\n      pop\n      pop\n      swap1\n      pop\n        /* \"@openzeppelin/contracts/token/ERC20/ERC20.sol\":2156:2254  function name() public view virtual override returns (string memory) {... */\n      swap1\n      jump\t// out\n        /* \"@openzeppelin/contracts/token/ERC20/ERC20.sol\":4433:4630  function approve(address spender, uint256 amount) public virtual override returns (bool) {... */\n    tag_30:\n        /* \"@openzeppelin/contracts/token/ERC20/ERC20.sol\":4516:4520  bool */\n      0x00\n        /* \"@openzeppelin/contracts/token/ERC20/ERC20.sol\":4532:4545  address owner */\n      dup1\n        /* \"@openzeppelin/contracts/token/ERC20/ERC20.sol\":4548:4560  _msgSender() */\n      tag_103\n        /* \"@openzeppelin/contracts/token/ERC20/ERC20.sol\":4548:4558  _msgSender */\n      tag_104\n        /* \"@openzeppelin/contracts/token/ERC20/ERC20.sol\":4548:4560  _msgSender() */\n      jump\t// in\n    tag_103:\n        /* \"@openzeppelin/contracts/token/ERC20/ERC20.sol\":4532:4560  address owner = _msgSender() */\n      swap1\n      pop\n        /* \"@openzeppelin/contracts/token/ERC20/ERC20.sol\":4570:4602  _approve(owner, spender, amount) */\n      tag_105\n        /* \"@openzeppelin/contracts/token/ERC20/ERC20.sol\":4579:4584  owner */\n      dup2\n        /* \"@openzeppelin/contracts/token/ERC20/ERC20.sol\":4586:4593  spender */\n      dup6\n        /* \"@openzeppelin/contracts/token/ERC20/ERC20.sol\":4595:4601  amount */\n      dup6\n        /* \"@openzeppelin/contracts/token/ERC20/ERC20.sol\":4570:4578  _approve */\n      tag_106\n        /* \"@openzeppelin/contracts/token/ERC20/ERC20.sol\":4570:4602  _approve(owner, spender, amount) */\n      jump\t// in\n    tag_105:\n        /* \"@openzeppelin/contracts/token/ERC20/ERC20.sol\":4619:4623  true */\n      0x01\n        /* \"@openzeppelin/contracts/token/ERC20/ERC20.sol\":4612:4623  return true */\n      swap2\n      pop\n      pop\n        /* \"@openzeppelin/contracts/token/ERC20/ERC20.sol\":4433:4630  function approve(address spender, uint256 amount) public virtual override returns (bool) {... */\n      swap3\n      swap2\n      pop\n      pop\n      jump\t// out\n        /* \"@openzeppelin/contracts/token/ERC20/ERC20.sol\":3244:3350  function totalSupply() public view virtual override returns (uint256) {... */\n    tag_34:\n        /* \"@openzeppelin/contracts/token/ERC20/ERC20.sol\":3305:3312  uint256 */\n      0x00\n        /* \"@openzeppelin/contracts/token/ERC20/ERC20.sol\":3331:3343  _totalSupply */\n      sload(0x02)\n        /* \"@openzeppelin/contracts/token/ERC20/ERC20.sol\":3324:3343  return _totalSupply */\n      swap1\n      pop\n        /* \"@openzeppelin/contracts/token/ERC20/ERC20.sol\":3244:3350  function totalSupply() public view virtual override returns (uint256) {... */\n      swap1\n      jump\t// out\n        /* \"@openzeppelin/contracts/token/ERC20/ERC20.sol\":5192:5478  function transferFrom(... */\n    tag_40:\n        /* \"@openzeppelin/contracts/token/ERC20/ERC20.sol\":5319:5323  bool */\n      0x00\n        /* \"@openzeppelin/contracts/token/ERC20/ERC20.sol\":5335:5350  address spender */\n      dup1\n        /* \"@openzeppelin/contracts/token/ERC20/ERC20.sol\":5353:5365  _msgSender() */\n      tag_109\n        /* \"@openzeppelin/contracts/token/ERC20/ERC20.sol\":5353:5363  _msgSender */\n      tag_104\n        /* \"@openzeppelin/contracts/token/ERC20/ERC20.sol\":5353:5365  _msgSender() */\n      jump\t// in\n    tag_109:\n        /* \"@openzeppelin/contracts/token/ERC20/ERC20.sol\":5335:5365  address spender = _msgSender() */\n      swap1\n      pop\n        /* \"@openzeppelin/contracts/token/ERC20/ERC20.sol\":5375:5413  _spendAllowance(from, spender, amount) */\n      tag_110\n        /* \"@openzeppelin/contracts/token/ERC20/ERC20.sol\":5391:5395  from */\n      dup6\n        /* \"@openzeppelin/contracts/token/ERC20/ERC20.sol\":5397:5404  spender */\n      dup3\n        /* \"@openzeppelin/contracts/token/ERC20/ERC20.sol\":5406:5412  amount */\n      dup6\n        /* \"@openzeppelin/contracts/token/ERC20/ERC20.sol\":5375:5390  _spendAllowance */\n      tag_111\n        /* \"@openzeppelin/contracts/token/ERC20/ERC20.sol\":5375:5413  _spendAllowance(from, spender, amount) */\n      jump\t// in\n    tag_110:\n        /* \"@openzeppelin/contracts/token/ERC20/ERC20.sol\":5423:5450  _transfer(from, to, amount) */\n      tag_112\n        /* \"@openzeppelin/contracts/token/ERC20/ERC20.sol\":5433:5437  from */\n      dup6\n        /* \"@openzeppelin/contracts/token/ERC20/ERC20.sol\":5439:5441  to */\n      dup6\n        /* \"@openzeppelin/contracts/token/ERC20/ERC20.sol\":5443:5449  amount */\n      dup6\n        /* \"@openzeppelin/contracts/token/ERC20/ERC20.sol\":5423:5432  _transfer */\n      tag_113\n        /* \"@openzeppelin/contracts/token/ERC20/ERC20.sol\":5423:5450  _transfer(from, to, amount) */\n      jump\t// in\n    tag_112:\n        /* \"@openzeppelin/contracts/token/ERC20/ERC20.sol\":5467:5471  true */\n      0x01\n        /* \"@openzeppelin/contracts/token/ERC20/ERC20.sol\":5460:5471  return true */\n      swap2\n      pop\n      pop\n        /* \"@openzeppelin/contracts/token/ERC20/ERC20.sol\":5192:5478  function transferFrom(... */\n      swap4\n      swap3\n      pop\n      pop\n      pop\n      jump\t// out\n        /* \"Meta4SwapToken.sol\":1078:1252  function updateAddress(uint256 _value, address _newAddress) public {... */\n    tag_45:\n        /* \"Meta4SwapToken.sol\":1177:1182  admin */\n      0x06\n      0x00\n      swap1\n      sload\n      swap1\n      0x0100\n      exp\n      swap1\n      div\n      0xffffffffffffffffffffffffffffffffffffffff\n      and\n        /* \"Meta4SwapToken.sol\":1163:1182  msg.sender == admin */\n      0xffffffffffffffffffffffffffffffffffffffff\n      and\n        /* \"Meta4SwapToken.sol\":1163:1173  msg.sender */\n      caller\n        /* \"Meta4SwapToken.sol\":1163:1182  msg.sender == admin */\n      0xffffffffffffffffffffffffffffffffffffffff\n      and\n      eq\n        /* \"Meta4SwapToken.sol\":1155:1216  require(msg.sender == admin, \"Only admin can change address\") */\n      tag_115\n      jumpi\n      mload(0x40)\n      0x08c379a000000000000000000000000000000000000000000000000000000000\n      dup2\n      mstore\n      0x04\n      add\n      tag_116\n      swap1\n      tag_117\n      jump\t// in\n    tag_116:\n      mload(0x40)\n      dup1\n      swap2\n      sub\n      swap1\n      revert\n    tag_115:\n        /* \"Meta4SwapToken.sol\":1234:1245  _newAddress */\n      dup1\n        /* \"Meta4SwapToken.sol\":1226:1231  admin */\n      0x06\n      0x00\n        /* \"Meta4SwapToken.sol\":1226:1245  admin = _newAddress */\n      0x0100\n      exp\n      dup2\n      sload\n      dup2\n      0xffffffffffffffffffffffffffffffffffffffff\n      mul\n      not\n      and\n      swap1\n      dup4\n      0xffffffffffffffffffffffffffffffffffffffff\n      and\n      mul\n      or\n      swap1\n      sstore\n      pop\n        /* \"Meta4SwapToken.sol\":1078:1252  function updateAddress(uint256 _value, address _newAddress) public {... */\n      pop\n      pop\n      jump\t// out\n        /* \"@openzeppelin/contracts/token/ERC20/ERC20.sol\":3093:3184  function decimals() public view virtual override returns (uint8) {... */\n    tag_47:\n        /* \"@openzeppelin/contracts/token/ERC20/ERC20.sol\":3151:3156  uint8 */\n      0x00\n        /* \"@openzeppelin/contracts/token/ERC20/ERC20.sol\":3175:3177  18 */\n      0x12\n        /* \"@openzeppelin/contracts/token/ERC20/ERC20.sol\":3168:3177  return 18 */\n      swap1\n      pop\n        /* \"@openzeppelin/contracts/token/ERC20/ERC20.sol\":3093:3184  function decimals() public view virtual override returns (uint8) {... */\n      swap1\n      jump\t// out\n        /* \"@openzeppelin/contracts/token/ERC20/ERC20.sol\":5873:6107  function increaseAllowance(address spender, uint256 addedValue) public virtual returns (bool) {... */\n    tag_52:\n        /* \"@openzeppelin/contracts/token/ERC20/ERC20.sol\":5961:5965  bool */\n      0x00\n        /* \"@openzeppelin/contracts/token/ERC20/ERC20.sol\":5977:5990  address owner */\n      dup1\n        /* \"@openzeppelin/contracts/token/ERC20/ERC20.sol\":5993:6005  _msgSender() */\n      tag_120\n        /* \"@openzeppelin/contracts/token/ERC20/ERC20.sol\":5993:6003  _msgSender */\n      tag_104\n        /* \"@openzeppelin/contracts/token/ERC20/ERC20.sol\":5993:6005  _msgSender() */\n      jump\t// in\n    tag_120:\n        /* \"@openzeppelin/contracts/token/ERC20/ERC20.sol\":5977:6005  address owner = _msgSender() */\n      swap1\n      pop\n        /* \"@openzeppelin/contracts/token/ERC20/ERC20.sol\":6015:6079  _approve(owner, spender, allowance(owner, spender) + addedValue) */\n      tag_121\n        /* \"@openzeppelin/contracts/token/ERC20/ERC20.sol\":6024:6029  owner */\n      dup2\n        /* \"@openzeppelin/contracts/token/ERC20/ERC20.sol\":6031:6038  spender */\n      dup6\n        /* \"@openzeppelin/contracts/token/ERC20/ERC20.sol\":6068:6078  addedValue */\n      dup6\n        /* \"@openzeppelin/contracts/token/ERC20/ERC20.sol\":6040:6065  allowance(owner, spender) */\n      tag_122\n        /* \"@openzeppelin/contracts/token/ERC20/ERC20.sol\":6050:6055  owner */\n      dup6\n        /* \"@openzeppelin/contracts/token/ERC20/ERC20.sol\":6057:6064  spender */\n      dup10\n        /* \"@openzeppelin/contracts/token/ERC20/ERC20.sol\":6040:6049  allowance */\n      tag_85\n        /* \"@openzeppelin/contracts/token/ERC20/ERC20.sol\":6040:6065  allowance(owner, spender) */\n      jump\t// in\n    tag_122:\n        /* \"@openzeppelin/contracts/token/ERC20/ERC20.sol\":6040:6078  allowance(owner, spender) + addedValue */\n      tag_123\n      swap2\n      swap1\n      tag_124\n      jump\t// in\n    tag_123:\n        /* \"@openzeppelin/contracts/token/ERC20/ERC20.sol\":6015:6023  _approve */\n      tag_106\n        /* \"@openzeppelin/contracts/token/ERC20/ERC20.sol\":6015:6079  _approve(owner, spender, allowance(owner, spender) + addedValue) */\n      jump\t// in\n    tag_121:\n        /* \"@openzeppelin/contracts/token/ERC20/ERC20.sol\":6096:6100  true */\n      0x01\n        /* \"@openzeppelin/contracts/token/ERC20/ERC20.sol\":6089:6100  return true */\n      swap2\n      pop\n      pop\n        /* \"@openzeppelin/contracts/token/ERC20/ERC20.sol\":5873:6107  function increaseAllowance(address spender, uint256 addedValue) public virtual returns (bool) {... */\n      swap3\n      swap2\n      pop\n      pop\n      jump\t// out\n        /* \"Meta4SwapToken.sol\":209:253  mapping(address => bool) public marketplaces */\n    tag_57:\n      mstore(0x20, 0x05)\n      dup1\n      0x00\n      mstore\n      keccak256(0x00, 0x40)\n      0x00\n      swap2\n      pop\n      sload\n      swap1\n      0x0100\n      exp\n      swap1\n      div\n      0xff\n      and\n      dup2\n      jump\t// out\n        /* \"@openzeppelin/contracts/token/ERC20/ERC20.sol\":3408:3533  function balanceOf(address account) public view virtual override returns (uint256) {... */\n    tag_61:\n        /* \"@openzeppelin/contracts/token/ERC20/ERC20.sol\":3482:3489  uint256 */\n      0x00\n        /* \"@openzeppelin/contracts/token/ERC20/ERC20.sol\":3508:3517  _balances */\n      dup1\n        /* \"@openzeppelin/contracts/token/ERC20/ERC20.sol\":3508:3526  _balances[account] */\n      0x00\n        /* \"@openzeppelin/contracts/token/ERC20/ERC20.sol\":3518:3525  account */\n      dup4\n        /* \"@openzeppelin/contracts/token/ERC20/ERC20.sol\":3508:3526  _balances[account] */\n      0xffffffffffffffffffffffffffffffffffffffff\n      and\n      0xffffffffffffffffffffffffffffffffffffffff\n      and\n      dup2\n      mstore\n      0x20\n      add\n      swap1\n      dup2\n      mstore\n      0x20\n      add\n      0x00\n      keccak256\n      sload\n        /* \"@openzeppelin/contracts/token/ERC20/ERC20.sol\":3501:3526  return _balances[account] */\n      swap1\n      pop\n        /* \"@openzeppelin/contracts/token/ERC20/ERC20.sol\":3408:3533  function balanceOf(address account) public view virtual override returns (uint256) {... */\n      swap2\n      swap1\n      pop\n      jump\t// out\n        /* \"@openzeppelin/contracts/token/ERC20/ERC20.sol\":2367:2469  function symbol() public view virtual override returns (string memory) {... */\n    tag_64:\n        /* \"@openzeppelin/contracts/token/ERC20/ERC20.sol\":2423:2436  string memory */\n      0x60\n        /* \"@openzeppelin/contracts/token/ERC20/ERC20.sol\":2455:2462  _symbol */\n      0x04\n        /* \"@openzeppelin/contracts/token/ERC20/ERC20.sol\":2448:2462  return _symbol */\n      dup1\n      sload\n      tag_127\n      swap1\n      tag_97\n      jump\t// in\n    tag_127:\n      dup1\n      0x1f\n      add\n      0x20\n      dup1\n      swap2\n      div\n      mul\n      0x20\n      add\n      mload(0x40)\n      swap1\n      dup2\n      add\n      0x40\n      mstore\n      dup1\n      swap3\n      swap2\n      swap1\n      dup2\n      dup2\n      mstore\n      0x20\n      add\n      dup3\n      dup1\n      sload\n      tag_128\n      swap1\n      tag_97\n      jump\t// in\n    tag_128:\n      dup1\n      iszero\n      tag_129\n      jumpi\n      dup1\n      0x1f\n      lt\n      tag_130\n      jumpi\n      0x0100\n      dup1\n      dup4\n      sload\n      div\n      mul\n      dup4\n      mstore\n      swap2\n      0x20\n      add\n      swap2\n      jump(tag_129)\n    tag_130:\n      dup3\n      add\n      swap2\n      swap1\n      0x00\n      mstore\n      keccak256(0x00, 0x20)\n      swap1\n    tag_131:\n      dup2\n      sload\n      dup2\n      mstore\n      swap1\n      0x01\n      add\n      swap1\n      0x20\n      add\n      dup1\n      dup4\n      gt\n      tag_131\n      jumpi\n      dup3\n      swap1\n      sub\n      0x1f\n      and\n      dup3\n      add\n      swap2\n    tag_129:\n      pop\n      pop\n      pop\n      pop\n      pop\n      swap1\n      pop\n        /* \"@openzeppelin/contracts/token/ERC20/ERC20.sol\":2367:2469  function symbol() public view virtual override returns (string memory) {... */\n      swap1\n      jump\t// out\n        /* \"Meta4SwapToken.sol\":463:694  function mintReward(address _receiver, uint256 _rewardRate)... */\n    tag_68:\n        /* \"Meta4SwapToken.sol\":555:559  bool */\n      0x00\n        /* \"Meta4SwapToken.sol\":607:611  true */\n      0x01\n        /* \"Meta4SwapToken.sol\":579:611  marketplaces[msg.sender] == true */\n      iszero\n      iszero\n        /* \"Meta4SwapToken.sol\":579:591  marketplaces */\n      0x05\n        /* \"Meta4SwapToken.sol\":579:603  marketplaces[msg.sender] */\n      0x00\n        /* \"Meta4SwapToken.sol\":592:602  msg.sender */\n      caller\n        /* \"Meta4SwapToken.sol\":579:603  marketplaces[msg.sender] */\n      0xffffffffffffffffffffffffffffffffffffffff\n      and\n      0xffffffffffffffffffffffffffffffffffffffff\n      and\n      dup2\n      mstore\n      0x20\n      add\n      swap1\n      dup2\n      mstore\n      0x20\n      add\n      0x00\n      keccak256\n      0x00\n      swap1\n      sload\n      swap1\n      0x0100\n      exp\n      swap1\n      div\n      0xff\n      and\n        /* \"Meta4SwapToken.sol\":579:611  marketplaces[msg.sender] == true */\n      iszero\n      iszero\n      eq\n        /* \"Meta4SwapToken.sol\":575:667  if (marketplaces[msg.sender] == true) {... */\n      iszero\n      tag_133\n      jumpi\n        /* \"Meta4SwapToken.sol\":627:656  _mint(_receiver, _rewardRate) */\n      tag_134\n        /* \"Meta4SwapToken.sol\":633:642  _receiver */\n      dup4\n        /* \"Meta4SwapToken.sol\":644:655  _rewardRate */\n      dup4\n        /* \"Meta4SwapToken.sol\":627:632  _mint */\n      tag_135\n        /* \"Meta4SwapToken.sol\":627:656  _mint(_receiver, _rewardRate) */\n      jump\t// in\n    tag_134:\n        /* \"Meta4SwapToken.sol\":575:667  if (marketplaces[msg.sender] == true) {... */\n    tag_133:\n        /* \"Meta4SwapToken.sol\":683:687  true */\n      0x01\n        /* \"Meta4SwapToken.sol\":676:687  return true */\n      swap1\n      pop\n        /* \"Meta4SwapToken.sol\":463:694  function mintReward(address _receiver, uint256 _rewardRate)... */\n      swap3\n      swap2\n      pop\n      pop\n      jump\t// out\n        /* \"Meta4SwapToken.sol\":700:835  function burn(address _redeemer, uint256 _amount) public returns (bool) {... */\n    tag_72:\n        /* \"Meta4SwapToken.sol\":766:770  bool */\n      0x00\n        /* \"Meta4SwapToken.sol\":782:807  _burn(_redeemer, _amount) */\n      tag_137\n        /* \"Meta4SwapToken.sol\":788:797  _redeemer */\n      dup4\n        /* \"Meta4SwapToken.sol\":799:806  _amount */\n      dup4\n        /* \"Meta4SwapToken.sol\":782:787  _burn */\n      tag_138\n        /* \"Meta4SwapToken.sol\":782:807  _burn(_redeemer, _amount) */\n      jump\t// in\n    tag_137:\n        /* \"Meta4SwapToken.sol\":824:828  true */\n      0x01\n        /* \"Meta4SwapToken.sol\":817:828  return true */\n      swap1\n      pop\n        /* \"Meta4SwapToken.sol\":700:835  function burn(address _redeemer, uint256 _amount) public returns (bool) {... */\n      swap3\n      swap2\n      pop\n      pop\n      jump\t// out\n        /* \"@openzeppelin/contracts/token/ERC20/ERC20.sol\":6594:7021  function decreaseAllowance(address spender, uint256 subtractedValue) public virtual returns (bool) {... */\n    tag_76:\n        /* \"@openzeppelin/contracts/token/ERC20/ERC20.sol\":6687:6691  bool */\n      0x00\n        /* \"@openzeppelin/contracts/token/ERC20/ERC20.sol\":6703:6716  address owner */\n      dup1\n        /* \"@openzeppelin/contracts/token/ERC20/ERC20.sol\":6719:6731  _msgSender() */\n      tag_140\n        /* \"@openzeppelin/contracts/token/ERC20/ERC20.sol\":6719:6729  _msgSender */\n      tag_104\n        /* \"@openzeppelin/contracts/token/ERC20/ERC20.sol\":6719:6731  _msgSender() */\n      jump\t// in\n    tag_140:\n        /* \"@openzeppelin/contracts/token/ERC20/ERC20.sol\":6703:6731  address owner = _msgSender() */\n      swap1\n      pop\n        /* \"@openzeppelin/contracts/token/ERC20/ERC20.sol\":6741:6765  uint256 currentAllowance */\n      0x00\n        /* \"@openzeppelin/contracts/token/ERC20/ERC20.sol\":6768:6793  allowance(owner, spender) */\n      tag_141\n        /* \"@openzeppelin/contracts/token/ERC20/ERC20.sol\":6778:6783  owner */\n      dup3\n        /* \"@openzeppelin/contracts/token/ERC20/ERC20.sol\":6785:6792  spender */\n      dup7\n        /* \"@openzeppelin/contracts/token/ERC20/ERC20.sol\":6768:6777  allowance */\n      tag_85\n        /* \"@openzeppelin/contracts/token/ERC20/ERC20.sol\":6768:6793  allowance(owner, spender) */\n      jump\t// in\n    tag_141:\n        /* \"@openzeppelin/contracts/token/ERC20/ERC20.sol\":6741:6793  uint256 currentAllowance = allowance(owner, spender) */\n      swap1\n      pop\n        /* \"@openzeppelin/contracts/token/ERC20/ERC20.sol\":6831:6846  subtractedValue */\n      dup4\n        /* \"@openzeppelin/contracts/token/ERC20/ERC20.sol\":6811:6827  currentAllowance */\n      dup2\n        /* \"@openzeppelin/contracts/token/ERC20/ERC20.sol\":6811:6846  currentAllowance >= subtractedValue */\n      lt\n      iszero\n        /* \"@openzeppelin/contracts/token/ERC20/ERC20.sol\":6803:6888  require(currentAllowance >= subtractedValue, \"ERC20: decreased allowance below zero\") */\n      tag_142\n      jumpi\n      mload(0x40)\n      0x08c379a000000000000000000000000000000000000000000000000000000000\n      dup2\n      mstore\n      0x04\n      add\n      tag_143\n      swap1\n      tag_144\n      jump\t// in\n    tag_143:\n      mload(0x40)\n      dup1\n      swap2\n      sub\n      swap1\n      revert\n    tag_142:\n        /* \"@openzeppelin/contracts/token/ERC20/ERC20.sol\":6922:6982  _approve(owner, spender, currentAllowance - subtractedValue) */\n      tag_145\n        /* \"@openzeppelin/contracts/token/ERC20/ERC20.sol\":6931:6936  owner */\n      dup3\n        /* \"@openzeppelin/contracts/token/ERC20/ERC20.sol\":6938:6945  spender */\n      dup7\n        /* \"@openzeppelin/contracts/token/ERC20/ERC20.sol\":6966:6981  subtractedValue */\n      dup7\n        /* \"@openzeppelin/contracts/token/ERC20/ERC20.sol\":6947:6963  currentAllowance */\n      dup5\n        /* \"@openzeppelin/contracts/token/ERC20/ERC20.sol\":6947:6981  currentAllowance - subtractedValue */\n      sub\n        /* \"@openzeppelin/contracts/token/ERC20/ERC20.sol\":6922:6930  _approve */\n      tag_106\n        /* \"@openzeppelin/contracts/token/ERC20/ERC20.sol\":6922:6982  _approve(owner, spender, currentAllowance - subtractedValue) */\n      jump\t// in\n    tag_145:\n        /* \"@openzeppelin/contracts/token/ERC20/ERC20.sol\":7010:7014  true */\n      0x01\n        /* \"@openzeppelin/contracts/token/ERC20/ERC20.sol\":7003:7014  return true */\n      swap3\n      pop\n      pop\n      pop\n        /* \"@openzeppelin/contracts/token/ERC20/ERC20.sol\":6594:7021  function decreaseAllowance(address spender, uint256 subtractedValue) public virtual returns (bool) {... */\n      swap3\n      swap2\n      pop\n      pop\n      jump\t// out\n        /* \"@openzeppelin/contracts/token/ERC20/ERC20.sol\":3729:3918  function transfer(address to, uint256 amount) public virtual override returns (bool) {... */\n    tag_80:\n        /* \"@openzeppelin/contracts/token/ERC20/ERC20.sol\":3808:3812  bool */\n      0x00\n        /* \"@openzeppelin/contracts/token/ERC20/ERC20.sol\":3824:3837  address owner */\n      dup1\n        /* \"@openzeppelin/contracts/token/ERC20/ERC20.sol\":3840:3852  _msgSender() */\n      tag_147\n        /* \"@openzeppelin/contracts/token/ERC20/ERC20.sol\":3840:3850  _msgSender */\n      tag_104\n        /* \"@openzeppelin/contracts/token/ERC20/ERC20.sol\":3840:3852  _msgSender() */\n      jump\t// in\n    tag_147:\n        /* \"@openzeppelin/contracts/token/ERC20/ERC20.sol\":3824:3852  address owner = _msgSender() */\n      swap1\n      pop\n        /* \"@openzeppelin/contracts/token/ERC20/ERC20.sol\":3862:3890  _transfer(owner, to, amount) */\n      tag_148\n        /* \"@openzeppelin/contracts/token/ERC20/ERC20.sol\":3872:3877  owner */\n      dup2\n        /* \"@openzeppelin/contracts/token/ERC20/ERC20.sol\":3879:3881  to */\n      dup6\n        /* \"@openzeppelin/contracts/token/ERC20/ERC20.sol\":3883:3889  amount */\n      dup6\n        /* \"@openzeppelin/contracts/token/ERC20/ERC20.sol\":3862:3871  _transfer */\n      tag_113\n        /* \"@openzeppelin/contracts/token/ERC20/ERC20.sol\":3862:3890  _transfer(owner, to, amount) */\n      jump\t// in\n    tag_148:\n        /* \"@openzeppelin/contracts/token/ERC20/ERC20.sol\":3907:3911  true */\n      0x01\n        /* \"@openzeppelin/contracts/token/ERC20/ERC20.sol\":3900:3911  return true */\n      swap2\n      pop\n      pop\n        /* \"@openzeppelin/contracts/token/ERC20/ERC20.sol\":3729:3918  function transfer(address to, uint256 amount) public virtual override returns (bool) {... */\n      swap3\n      swap2\n      pop\n      pop\n      jump\t// out\n        /* \"@openzeppelin/contracts/token/ERC20/ERC20.sol\":3976:4125  function allowance(address owner, address spender) public view virtual override returns (uint256) {... */\n    tag_85:\n        /* \"@openzeppelin/contracts/token/ERC20/ERC20.sol\":4065:4072  uint256 */\n      0x00\n        /* \"@openzeppelin/contracts/token/ERC20/ERC20.sol\":4091:4102  _allowances */\n      0x01\n        /* \"@openzeppelin/contracts/token/ERC20/ERC20.sol\":4091:4109  _allowances[owner] */\n      0x00\n        /* \"@openzeppelin/contracts/token/ERC20/ERC20.sol\":4103:4108  owner */\n      dup5\n        /* \"@openzeppelin/contracts/token/ERC20/ERC20.sol\":4091:4109  _allowances[owner] */\n      0xffffffffffffffffffffffffffffffffffffffff\n      and\n      0xffffffffffffffffffffffffffffffffffffffff\n      and\n      dup2\n      mstore\n      0x20\n      add\n      swap1\n      dup2\n      mstore\n      0x20\n      add\n      0x00\n      keccak256\n        /* \"@openzeppelin/contracts/token/ERC20/ERC20.sol\":4091:4118  _allowances[owner][spender] */\n      0x00\n        /* \"@openzeppelin/contracts/token/ERC20/ERC20.sol\":4110:4117  spender */\n      dup4\n        /* \"@openzeppelin/contracts/token/ERC20/ERC20.sol\":4091:4118  _allowances[owner][spender] */\n      0xffffffffffffffffffffffffffffffffffffffff\n      and\n      0xffffffffffffffffffffffffffffffffffffffff\n      and\n      dup2\n      mstore\n      0x20\n      add\n      swap1\n      dup2\n      mstore\n      0x20\n      add\n      0x00\n      keccak256\n      sload\n        /* \"@openzeppelin/contracts/token/ERC20/ERC20.sol\":4084:4118  return _allowances[owner][spender] */\n      swap1\n      pop\n        /* \"@openzeppelin/contracts/token/ERC20/ERC20.sol\":3976:4125  function allowance(address owner, address spender) public view virtual override returns (uint256) {... */\n      swap3\n      swap2\n      pop\n      pop\n      jump\t// out\n        /* \"Meta4SwapToken.sol\":864:1072  function updateMarketplaces(address _marketplace, bool _approved) public {... */\n    tag_90:\n        /* \"Meta4SwapToken.sol\":969:974  admin */\n      0x06\n      0x00\n      swap1\n      sload\n      swap1\n      0x0100\n      exp\n      swap1\n      div\n      0xffffffffffffffffffffffffffffffffffffffff\n      and\n        /* \"Meta4SwapToken.sol\":955:974  msg.sender == admin */\n      0xffffffffffffffffffffffffffffffffffffffff\n      and\n        /* \"Meta4SwapToken.sol\":955:965  msg.sender */\n      caller\n        /* \"Meta4SwapToken.sol\":955:974  msg.sender == admin */\n      0xffffffffffffffffffffffffffffffffffffffff\n      and\n      eq\n        /* \"Meta4SwapToken.sol\":947:1017  require(msg.sender == admin, \"Only the admin can update marketplaces\") */\n      tag_151\n      jumpi\n      mload(0x40)\n      0x08c379a000000000000000000000000000000000000000000000000000000000\n      dup2\n      mstore\n      0x04\n      add\n      tag_152\n      swap1\n      tag_153\n      jump\t// in\n    tag_152:\n      mload(0x40)\n      dup1\n      swap2\n      sub\n      swap1\n      revert\n    tag_151:\n        /* \"Meta4SwapToken.sol\":1056:1065  _approved */\n      dup1\n        /* \"Meta4SwapToken.sol\":1027:1039  marketplaces */\n      0x05\n        /* \"Meta4SwapToken.sol\":1027:1053  marketplaces[_marketplace] */\n      0x00\n        /* \"Meta4SwapToken.sol\":1040:1052  _marketplace */\n      dup5\n        /* \"Meta4SwapToken.sol\":1027:1053  marketplaces[_marketplace] */\n      0xffffffffffffffffffffffffffffffffffffffff\n      and\n      0xffffffffffffffffffffffffffffffffffffffff\n      and\n      dup2\n      mstore\n      0x20\n      add\n      swap1\n      dup2\n      mstore\n      0x20\n      add\n      0x00\n      keccak256\n      0x00\n        /* \"Meta4SwapToken.sol\":1027:1065  marketplaces[_marketplace] = _approved */\n      0x0100\n      exp\n      dup2\n      sload\n      dup2\n      0xff\n      mul\n      not\n      and\n      swap1\n      dup4\n      iszero\n      iszero\n      mul\n      or\n      swap1\n      sstore\n      pop\n        /* \"Meta4SwapToken.sol\":864:1072  function updateMarketplaces(address _marketplace, bool _approved) public {... */\n      pop\n      pop\n      jump\t// out\n        /* \"Meta4SwapToken.sol\":259:279  address public admin */\n    tag_92:\n      0x06\n      0x00\n      swap1\n      sload\n      swap1\n      0x0100\n      exp\n      swap1\n      div\n      0xffffffffffffffffffffffffffffffffffffffff\n      and\n      dup2\n      jump\t// out\n        /* \"@openzeppelin/contracts/utils/Context.sol\":640:736  function _msgSender() internal view virtual returns (address) {... */\n    tag_104:\n        /* \"@openzeppelin/contracts/utils/Context.sol\":693:700  address */\n      0x00\n        /* \"@openzeppelin/contracts/utils/Context.sol\":719:729  msg.sender */\n      caller\n        /* \"@openzeppelin/contracts/utils/Context.sol\":712:729  return msg.sender */\n      swap1\n      pop\n        /* \"@openzeppelin/contracts/utils/Context.sol\":640:736  function _msgSender() internal view virtual returns (address) {... */\n      swap1\n      jump\t// out\n        /* \"@openzeppelin/contracts/token/ERC20/ERC20.sol\":10110:10480  function _approve(... */\n    tag_106:\n        /* \"@openzeppelin/contracts/token/ERC20/ERC20.sol\":10258:10259  0 */\n      0x00\n        /* \"@openzeppelin/contracts/token/ERC20/ERC20.sol\":10241:10260  owner != address(0) */\n      0xffffffffffffffffffffffffffffffffffffffff\n      and\n        /* \"@openzeppelin/contracts/token/ERC20/ERC20.sol\":10241:10246  owner */\n      dup4\n        /* \"@openzeppelin/contracts/token/ERC20/ERC20.sol\":10241:10260  owner != address(0) */\n      0xffffffffffffffffffffffffffffffffffffffff\n      and\n      eq\n      iszero\n        /* \"@openzeppelin/contracts/token/ERC20/ERC20.sol\":10233:10301  require(owner != address(0), \"ERC20: approve from the zero address\") */\n      tag_156\n      jumpi\n      mload(0x40)\n      0x08c379a000000000000000000000000000000000000000000000000000000000\n      dup2\n      mstore\n      0x04\n      add\n      tag_157\n      swap1\n      tag_158\n      jump\t// in\n    tag_157:\n      mload(0x40)\n      dup1\n      swap2\n      sub\n      swap1\n      revert\n    tag_156:\n        /* \"@openzeppelin/contracts/token/ERC20/ERC20.sol\":10338:10339  0 */\n      0x00\n        /* \"@openzeppelin/contracts/token/ERC20/ERC20.sol\":10319:10340  spender != address(0) */\n      0xffffffffffffffffffffffffffffffffffffffff\n      and\n        /* \"@openzeppelin/contracts/token/ERC20/ERC20.sol\":10319:10326  spender */\n      dup3\n        /* \"@openzeppelin/contracts/token/ERC20/ERC20.sol\":10319:10340  spender != address(0) */\n      0xffffffffffffffffffffffffffffffffffffffff\n      and\n      eq\n      iszero\n        /* \"@openzeppelin/contracts/token/ERC20/ERC20.sol\":10311:10379  require(spender != address(0), \"ERC20: approve to the zero address\") */\n      tag_159\n      jumpi\n      mload(0x40)\n      0x08c379a000000000000000000000000000000000000000000000000000000000\n      dup2\n      mstore\n      0x04\n      add\n      tag_160\n      swap1\n      tag_161\n      jump\t// in\n    tag_160:\n      mload(0x40)\n      dup1\n      swap2\n      sub\n      swap1\n      revert\n    tag_159:\n        /* \"@openzeppelin/contracts/token/ERC20/ERC20.sol\":10420:10426  amount */\n      dup1\n        /* \"@openzeppelin/contracts/token/ERC20/ERC20.sol\":10390:10401  _allowances */\n      0x01\n        /* \"@openzeppelin/contracts/token/ERC20/ERC20.sol\":10390:10408  _allowances[owner] */\n      0x00\n        /* \"@openzeppelin/contracts/token/ERC20/ERC20.sol\":10402:10407  owner */\n      dup6\n        /* \"@openzeppelin/contracts/token/ERC20/ERC20.sol\":10390:10408  _allowances[owner] */\n      0xffffffffffffffffffffffffffffffffffffffff\n      and\n      0xffffffffffffffffffffffffffffffffffffffff\n      and\n      dup2\n      mstore\n      0x20\n      add\n      swap1\n      dup2\n      mstore\n      0x20\n      add\n      0x00\n      keccak256\n        /* \"@openzeppelin/contracts/token/ERC20/ERC20.sol\":10390:10417  _allowances[owner][spender] */\n      0x00\n        /* \"@openzeppelin/contracts/token/ERC20/ERC20.sol\":10409:10416  spender */\n      dup5\n        /* \"@openzeppelin/contracts/token/ERC20/ERC20.sol\":10390:10417  _allowances[owner][spender] */\n      0xffffffffffffffffffffffffffffffffffffffff\n      and\n      0xffffffffffffffffffffffffffffffffffffffff\n      and\n      dup2\n      mstore\n      0x20\n      add\n      swap1\n      dup2\n      mstore\n      0x20\n      add\n      0x00\n      keccak256\n        /* \"@openzeppelin/contracts/token/ERC20/ERC20.sol\":10390:10426  _allowances[owner][spender] = amount */\n      dup2\n      swap1\n      sstore\n      pop\n        /* \"@openzeppelin/contracts/token/ERC20/ERC20.sol\":10457:10464  spender */\n      dup2\n        /* \"@openzeppelin/contracts/token/ERC20/ERC20.sol\":10441:10473  Approval(owner, spender, amount) */\n      0xffffffffffffffffffffffffffffffffffffffff\n      and\n        /* \"@openzeppelin/contracts/token/ERC20/ERC20.sol\":10450:10455  owner */\n      dup4\n        /* \"@openzeppelin/contracts/token/ERC20/ERC20.sol\":10441:10473  Approval(owner, spender, amount) */\n      0xffffffffffffffffffffffffffffffffffffffff\n      and\n      0x8c5be1e5ebec7d5bd14f71427d1e84f3dd0314c0f7b2291e5b200ac8c7c3b925\n        /* \"@openzeppelin/contracts/token/ERC20/ERC20.sol\":10466:10472  amount */\n      dup4\n        /* \"@openzeppelin/contracts/token/ERC20/ERC20.sol\":10441:10473  Approval(owner, spender, amount) */\n      mload(0x40)\n      tag_162\n      swap2\n      swap1\n      tag_36\n      jump\t// in\n    tag_162:\n      mload(0x40)\n      dup1\n      swap2\n      sub\n      swap1\n      log3\n        /* \"@openzeppelin/contracts/token/ERC20/ERC20.sol\":10110:10480  function _approve(... */\n      pop\n      pop\n      pop\n      jump\t// out\n        /* \"@openzeppelin/contracts/token/ERC20/ERC20.sol\":10761:11202  function _spendAllowance(... */\n    tag_111:\n        /* \"@openzeppelin/contracts/token/ERC20/ERC20.sol\":10891:10915  uint256 currentAllowance */\n      0x00\n        /* \"@openzeppelin/contracts/token/ERC20/ERC20.sol\":10918:10943  allowance(owner, spender) */\n      tag_164\n        /* \"@openzeppelin/contracts/token/ERC20/ERC20.sol\":10928:10933  owner */\n      dup5\n        /* \"@openzeppelin/contracts/token/ERC20/ERC20.sol\":10935:10942  spender */\n      dup5\n        /* \"@openzeppelin/contracts/token/ERC20/ERC20.sol\":10918:10927  allowance */\n      tag_85\n        /* \"@openzeppelin/contracts/token/ERC20/ERC20.sol\":10918:10943  allowance(owner, spender) */\n      jump\t// in\n    tag_164:\n        /* \"@openzeppelin/contracts/token/ERC20/ERC20.sol\":10891:10943  uint256 currentAllowance = allowance(owner, spender) */\n      swap1\n      pop\n        /* \"@openzeppelin/contracts/token/ERC20/ERC20.sol\":10977:10994  type(uint256).max */\n      0xffffffffffffffffffffffffffffffffffffffffffffffffffffffffffffffff\n        /* \"@openzeppelin/contracts/token/ERC20/ERC20.sol\":10957:10973  currentAllowance */\n      dup2\n        /* \"@openzeppelin/contracts/token/ERC20/ERC20.sol\":10957:10994  currentAllowance != type(uint256).max */\n      eq\n        /* \"@openzeppelin/contracts/token/ERC20/ERC20.sol\":10953:11196  if (currentAllowance != type(uint256).max) {... */\n      tag_165\n      jumpi\n        /* \"@openzeppelin/contracts/token/ERC20/ERC20.sol\":11038:11044  amount */\n      dup2\n        /* \"@openzeppelin/contracts/token/ERC20/ERC20.sol\":11018:11034  currentAllowance */\n      dup2\n        /* \"@openzeppelin/contracts/token/ERC20/ERC20.sol\":11018:11044  currentAllowance >= amount */\n      lt\n      iszero\n        /* \"@openzeppelin/contracts/token/ERC20/ERC20.sol\":11010:11078  require(currentAllowance >= amount, \"ERC20: insufficient allowance\") */\n      tag_166\n      jumpi\n      mload(0x40)\n      0x08c379a000000000000000000000000000000000000000000000000000000000\n      dup2\n      mstore\n      0x04\n      add\n      tag_167\n      swap1\n      tag_168\n      jump\t// in\n    tag_167:\n      mload(0x40)\n      dup1\n      swap2\n      sub\n      swap1\n      revert\n    tag_166:\n        /* \"@openzeppelin/contracts/token/ERC20/ERC20.sol\":11120:11171  _approve(owner, spender, currentAllowance - amount) */\n      tag_169\n        /* \"@openzeppelin/contracts/token/ERC20/ERC20.sol\":11129:11134  owner */\n      dup5\n        /* \"@openzeppelin/contracts/token/ERC20/ERC20.sol\":11136:11143  spender */\n      dup5\n        /* \"@openzeppelin/contracts/token/ERC20/ERC20.sol\":11164:11170  amount */\n      dup5\n        /* \"@openzeppelin/contracts/token/ERC20/ERC20.sol\":11145:11161  currentAllowance */\n      dup5\n        /* \"@openzeppelin/contracts/token/ERC20/ERC20.sol\":11145:11170  currentAllowance - amount */\n      sub\n        /* \"@openzeppelin/contracts/token/ERC20/ERC20.sol\":11120:11128  _approve */\n      tag_106\n        /* \"@openzeppelin/contracts/token/ERC20/ERC20.sol\":11120:11171  _approve(owner, spender, currentAllowance - amount) */\n      jump\t// in\n    tag_169:\n        /* \"@openzeppelin/contracts/token/ERC20/ERC20.sol\":10953:11196  if (currentAllowance != type(uint256).max) {... */\n    tag_165:\n        /* \"@openzeppelin/contracts/token/ERC20/ERC20.sol\":10881:11202  {... */\n      pop\n        /* \"@openzeppelin/contracts/token/ERC20/ERC20.sol\":10761:11202  function _spendAllowance(... */\n      pop\n      pop\n      pop\n      jump\t// out\n        /* \"@openzeppelin/contracts/token/ERC20/ERC20.sol\":7475:8126  function _transfer(... */\n    tag_113:\n        /* \"@openzeppelin/contracts/token/ERC20/ERC20.sol\":7617:7618  0 */\n      0x00\n        /* \"@openzeppelin/contracts/token/ERC20/ERC20.sol\":7601:7619  from != address(0) */\n      0xffffffffffffffffffffffffffffffffffffffff\n      and\n        /* \"@openzeppelin/contracts/token/ERC20/ERC20.sol\":7601:7605  from */\n      dup4\n        /* \"@openzeppelin/contracts/token/ERC20/ERC20.sol\":7601:7619  from != address(0) */\n      0xffffffffffffffffffffffffffffffffffffffff\n      and\n      eq\n      iszero\n        /* \"@openzeppelin/contracts/token/ERC20/ERC20.sol\":7593:7661  require(from != address(0), \"ERC20: transfer from the zero address\") */\n      tag_171\n      jumpi\n      mload(0x40)\n      0x08c379a000000000000000000000000000000000000000000000000000000000\n      dup2\n      mstore\n      0x04\n      add\n      tag_172\n      swap1\n      tag_173\n      jump\t// in\n    tag_172:\n      mload(0x40)\n      dup1\n      swap2\n      sub\n      swap1\n      revert\n    tag_171:\n        /* \"@openzeppelin/contracts/token/ERC20/ERC20.sol\":7693:7694  0 */\n      0x00\n        /* \"@openzeppelin/contracts/token/ERC20/ERC20.sol\":7679:7695  to != address(0) */\n      0xffffffffffffffffffffffffffffffffffffffff\n      and\n        /* \"@openzeppelin/contracts/token/ERC20/ERC20.sol\":7679:7681  to */\n      dup3\n        /* \"@openzeppelin/contracts/token/ERC20/ERC20.sol\":7679:7695  to != address(0) */\n      0xffffffffffffffffffffffffffffffffffffffff\n      and\n      eq\n      iszero\n        /* \"@openzeppelin/contracts/token/ERC20/ERC20.sol\":7671:7735  require(to != address(0), \"ERC20: transfer to the zero address\") */\n      tag_174\n      jumpi\n      mload(0x40)\n      0x08c379a000000000000000000000000000000000000000000000000000000000\n      dup2\n      mstore\n      0x04\n      add\n      tag_175\n      swap1\n      tag_176\n      jump\t// in\n    tag_175:\n      mload(0x40)\n      dup1\n      swap2\n      sub\n      swap1\n      revert\n    tag_174:\n        /* \"@openzeppelin/contracts/token/ERC20/ERC20.sol\":7746:7784  _beforeTokenTransfer(from, to, amount) */\n      tag_177\n        /* \"@openzeppelin/contracts/token/ERC20/ERC20.sol\":7767:7771  from */\n      dup4\n        /* \"@openzeppelin/contracts/token/ERC20/ERC20.sol\":7773:7775  to */\n      dup4\n        /* \"@openzeppelin/contracts/token/ERC20/ERC20.sol\":7777:7783  amount */\n      dup4\n        /* \"@openzeppelin/contracts/token/ERC20/ERC20.sol\":7746:7766  _beforeTokenTransfer */\n      tag_178\n        /* \"@openzeppelin/contracts/token/ERC20/ERC20.sol\":7746:7784  _beforeTokenTransfer(from, to, amount) */\n      jump\t// in\n    tag_177:\n        /* \"@openzeppelin/contracts/token/ERC20/ERC20.sol\":7795:7814  uint256 fromBalance */\n      0x00\n        /* \"@openzeppelin/contracts/token/ERC20/ERC20.sol\":7817:7826  _balances */\n      dup1\n        /* \"@openzeppelin/contracts/token/ERC20/ERC20.sol\":7817:7832  _balances[from] */\n      0x00\n        /* \"@openzeppelin/contracts/token/ERC20/ERC20.sol\":7827:7831  from */\n      dup6\n        /* \"@openzeppelin/contracts/token/ERC20/ERC20.sol\":7817:7832  _balances[from] */\n      0xffffffffffffffffffffffffffffffffffffffff\n      and\n      0xffffffffffffffffffffffffffffffffffffffff\n      and\n      dup2\n      mstore\n      0x20\n      add\n      swap1\n      dup2\n      mstore\n      0x20\n      add\n      0x00\n      keccak256\n      sload\n        /* \"@openzeppelin/contracts/token/ERC20/ERC20.sol\":7795:7832  uint256 fromBalance = _balances[from] */\n      swap1\n      pop\n        /* \"@openzeppelin/contracts/token/ERC20/ERC20.sol\":7865:7871  amount */\n      dup2\n        /* \"@openzeppelin/contracts/token/ERC20/ERC20.sol\":7850:7861  fromBalance */\n      dup2\n        /* \"@openzeppelin/contracts/token/ERC20/ERC20.sol\":7850:7871  fromBalance >= amount */\n      lt\n      iszero\n        /* \"@openzeppelin/contracts/token/ERC20/ERC20.sol\":7842:7914  require(fromBalance >= amount, \"ERC20: transfer amount exceeds balance\") */\n      tag_179\n      jumpi\n      mload(0x40)\n      0x08c379a000000000000000000000000000000000000000000000000000000000\n      dup2\n      mstore\n      0x04\n      add\n      tag_180\n      swap1\n      tag_181\n      jump\t// in\n    tag_180:\n      mload(0x40)\n      dup1\n      swap2\n      sub\n      swap1\n      revert\n    tag_179:\n        /* \"@openzeppelin/contracts/token/ERC20/ERC20.sol\":7980:7986  amount */\n      dup2\n        /* \"@openzeppelin/contracts/token/ERC20/ERC20.sol\":7966:7977  fromBalance */\n      dup2\n        /* \"@openzeppelin/contracts/token/ERC20/ERC20.sol\":7966:7986  fromBalance - amount */\n      sub\n        /* \"@openzeppelin/contracts/token/ERC20/ERC20.sol\":7948:7957  _balances */\n      0x00\n        /* \"@openzeppelin/contracts/token/ERC20/ERC20.sol\":7948:7963  _balances[from] */\n      dup1\n        /* \"@openzeppelin/contracts/token/ERC20/ERC20.sol\":7958:7962  from */\n      dup7\n        /* \"@openzeppelin/contracts/token/ERC20/ERC20.sol\":7948:7963  _balances[from] */\n      0xffffffffffffffffffffffffffffffffffffffff\n      and\n      0xffffffffffffffffffffffffffffffffffffffff\n      and\n      dup2\n      mstore\n      0x20\n      add\n      swap1\n      dup2\n      mstore\n      0x20\n      add\n      0x00\n      keccak256\n        /* \"@openzeppelin/contracts/token/ERC20/ERC20.sol\":7948:7986  _balances[from] = fromBalance - amount */\n      dup2\n      swap1\n      sstore\n      pop\n        /* \"@openzeppelin/contracts/token/ERC20/ERC20.sol\":8023:8029  amount */\n      dup2\n        /* \"@openzeppelin/contracts/token/ERC20/ERC20.sol\":8006:8015  _balances */\n      0x00\n        /* \"@openzeppelin/contracts/token/ERC20/ERC20.sol\":8006:8019  _balances[to] */\n      dup1\n        /* \"@openzeppelin/contracts/token/ERC20/ERC20.sol\":8016:8018  to */\n      dup6\n        /* \"@openzeppelin/contracts/token/ERC20/ERC20.sol\":8006:8019  _balances[to] */\n      0xffffffffffffffffffffffffffffffffffffffff\n      and\n      0xffffffffffffffffffffffffffffffffffffffff\n      and\n      dup2\n      mstore\n      0x20\n      add\n      swap1\n      dup2\n      mstore\n      0x20\n      add\n      0x00\n      keccak256\n      0x00\n        /* \"@openzeppelin/contracts/token/ERC20/ERC20.sol\":8006:8029  _balances[to] += amount */\n      dup3\n      dup3\n      sload\n      tag_182\n      swap2\n      swap1\n      tag_124\n      jump\t// in\n    tag_182:\n      swap3\n      pop\n      pop\n      dup2\n      swap1\n      sstore\n      pop\n        /* \"@openzeppelin/contracts/token/ERC20/ERC20.sol\":8060:8062  to */\n      dup3\n        /* \"@openzeppelin/contracts/token/ERC20/ERC20.sol\":8045:8071  Transfer(from, to, amount) */\n      0xffffffffffffffffffffffffffffffffffffffff\n      and\n        /* \"@openzeppelin/contracts/token/ERC20/ERC20.sol\":8054:8058  from */\n      dup5\n        /* \"@openzeppelin/contracts/token/ERC20/ERC20.sol\":8045:8071  Transfer(from, to, amount) */\n      0xffffffffffffffffffffffffffffffffffffffff\n      and\n      0xddf252ad1be2c89b69c2b068fc378daa952ba7f163c4a11628f55a4df523b3ef\n        /* \"@openzeppelin/contracts/token/ERC20/ERC20.sol\":8064:8070  amount */\n      dup5\n        /* \"@openzeppelin/contracts/token/ERC20/ERC20.sol\":8045:8071  Transfer(from, to, amount) */\n      mload(0x40)\n      tag_183\n      swap2\n      swap1\n      tag_36\n      jump\t// in\n    tag_183:\n      mload(0x40)\n      dup1\n      swap2\n      sub\n      swap1\n      log3\n        /* \"@openzeppelin/contracts/token/ERC20/ERC20.sol\":8082:8119  _afterTokenTransfer(from, to, amount) */\n      tag_184\n        /* \"@openzeppelin/contracts/token/ERC20/ERC20.sol\":8102:8106  from */\n      dup5\n        /* \"@openzeppelin/contracts/token/ERC20/ERC20.sol\":8108:8110  to */\n      dup5\n        /* \"@openzeppelin/contracts/token/ERC20/ERC20.sol\":8112:8118  amount */\n      dup5\n        /* \"@openzeppelin/contracts/token/ERC20/ERC20.sol\":8082:8101  _afterTokenTransfer */\n      tag_185\n        /* \"@openzeppelin/contracts/token/ERC20/ERC20.sol\":8082:8119  _afterTokenTransfer(from, to, amount) */\n      jump\t// in\n    tag_184:\n        /* \"@openzeppelin/contracts/token/ERC20/ERC20.sol\":7583:8126  {... */\n      pop\n        /* \"@openzeppelin/contracts/token/ERC20/ERC20.sol\":7475:8126  function _transfer(... */\n      pop\n      pop\n      pop\n      jump\t// out\n        /* \"@openzeppelin/contracts/token/ERC20/ERC20.sol\":8402:8791  function _mint(address account, uint256 amount) internal virtual {... */\n    tag_135:\n        /* \"@openzeppelin/contracts/token/ERC20/ERC20.sol\":8504:8505  0 */\n      0x00\n        /* \"@openzeppelin/contracts/token/ERC20/ERC20.sol\":8485:8506  account != address(0) */\n      0xffffffffffffffffffffffffffffffffffffffff\n      and\n        /* \"@openzeppelin/contracts/token/ERC20/ERC20.sol\":8485:8492  account */\n      dup3\n        /* \"@openzeppelin/contracts/token/ERC20/ERC20.sol\":8485:8506  account != address(0) */\n      0xffffffffffffffffffffffffffffffffffffffff\n      and\n      eq\n      iszero\n        /* \"@openzeppelin/contracts/token/ERC20/ERC20.sol\":8477:8542  require(account != address(0), \"ERC20: mint to the zero address\") */\n      tag_187\n      jumpi\n      mload(0x40)\n      0x08c379a000000000000000000000000000000000000000000000000000000000\n      dup2\n      mstore\n      0x04\n      add\n      tag_188\n      swap1\n      tag_189\n      jump\t// in\n    tag_188:\n      mload(0x40)\n      dup1\n      swap2\n      sub\n      swap1\n      revert\n    tag_187:\n        /* \"@openzeppelin/contracts/token/ERC20/ERC20.sol\":8553:8602  _beforeTokenTransfer(address(0), account, amount) */\n      tag_190\n        /* \"@openzeppelin/contracts/token/ERC20/ERC20.sol\":8582:8583  0 */\n      0x00\n        /* \"@openzeppelin/contracts/token/ERC20/ERC20.sol\":8586:8593  account */\n      dup4\n        /* \"@openzeppelin/contracts/token/ERC20/ERC20.sol\":8595:8601  amount */\n      dup4\n        /* \"@openzeppelin/contracts/token/ERC20/ERC20.sol\":8553:8573  _beforeTokenTransfer */\n      tag_178\n        /* \"@openzeppelin/contracts/token/ERC20/ERC20.sol\":8553:8602  _beforeTokenTransfer(address(0), account, amount) */\n      jump\t// in\n    tag_190:\n        /* \"@openzeppelin/contracts/token/ERC20/ERC20.sol\":8629:8635  amount */\n      dup1\n        /* \"@openzeppelin/contracts/token/ERC20/ERC20.sol\":8613:8625  _totalSupply */\n      0x02\n      0x00\n        /* \"@openzeppelin/contracts/token/ERC20/ERC20.sol\":8613:8635  _totalSupply += amount */\n      dup3\n      dup3\n      sload\n      tag_191\n      swap2\n      swap1\n      tag_124\n      jump\t// in\n    tag_191:\n      swap3\n      pop\n      pop\n      dup2\n      swap1\n      sstore\n      pop\n        /* \"@openzeppelin/contracts/token/ERC20/ERC20.sol\":8667:8673  amount */\n      dup1\n        /* \"@openzeppelin/contracts/token/ERC20/ERC20.sol\":8645:8654  _balances */\n      0x00\n        /* \"@openzeppelin/contracts/token/ERC20/ERC20.sol\":8645:8663  _balances[account] */\n      dup1\n        /* \"@openzeppelin/contracts/token/ERC20/ERC20.sol\":8655:8662  account */\n      dup5\n        /* \"@openzeppelin/contracts/token/ERC20/ERC20.sol\":8645:8663  _balances[account] */\n      0xffffffffffffffffffffffffffffffffffffffff\n      and\n      0xffffffffffffffffffffffffffffffffffffffff\n      and\n      dup2\n      mstore\n      0x20\n      add\n      swap1\n      dup2\n      mstore\n      0x20\n      add\n      0x00\n      keccak256\n      0x00\n        /* \"@openzeppelin/contracts/token/ERC20/ERC20.sol\":8645:8673  _balances[account] += amount */\n      dup3\n      dup3\n      sload\n      tag_192\n      swap2\n      swap1\n      tag_124\n      jump\t// in\n    tag_192:\n      swap3\n      pop\n      pop\n      dup2\n      swap1\n      sstore\n      pop\n        /* \"@openzeppelin/contracts/token/ERC20/ERC20.sol\":8709:8716  account */\n      dup2\n        /* \"@openzeppelin/contracts/token/ERC20/ERC20.sol\":8688:8725  Transfer(address(0), account, amount) */\n      0xffffffffffffffffffffffffffffffffffffffff\n      and\n        /* \"@openzeppelin/contracts/token/ERC20/ERC20.sol\":8705:8706  0 */\n      0x00\n        /* \"@openzeppelin/contracts/token/ERC20/ERC20.sol\":8688:8725  Transfer(address(0), account, amount) */\n      0xffffffffffffffffffffffffffffffffffffffff\n      and\n      0xddf252ad1be2c89b69c2b068fc378daa952ba7f163c4a11628f55a4df523b3ef\n        /* \"@openzeppelin/contracts/token/ERC20/ERC20.sol\":8718:8724  amount */\n      dup4\n        /* \"@openzeppelin/contracts/token/ERC20/ERC20.sol\":8688:8725  Transfer(address(0), account, amount) */\n      mload(0x40)\n      tag_193\n      swap2\n      swap1\n      tag_36\n      jump\t// in\n    tag_193:\n      mload(0x40)\n      dup1\n      swap2\n      sub\n      swap1\n      log3\n        /* \"@openzeppelin/contracts/token/ERC20/ERC20.sol\":8736:8784  _afterTokenTransfer(address(0), account, amount) */\n      tag_194\n        /* \"@openzeppelin/contracts/token/ERC20/ERC20.sol\":8764:8765  0 */\n      0x00\n        /* \"@openzeppelin/contracts/token/ERC20/ERC20.sol\":8768:8775  account */\n      dup4\n        /* \"@openzeppelin/contracts/token/ERC20/ERC20.sol\":8777:8783  amount */\n      dup4\n        /* \"@openzeppelin/contracts/token/ERC20/ERC20.sol\":8736:8755  _afterTokenTransfer */\n      tag_185\n        /* \"@openzeppelin/contracts/token/ERC20/ERC20.sol\":8736:8784  _afterTokenTransfer(address(0), account, amount) */\n      jump\t// in\n    tag_194:\n        /* \"@openzeppelin/contracts/token/ERC20/ERC20.sol\":8402:8791  function _mint(address account, uint256 amount) internal virtual {... */\n      pop\n      pop\n      jump\t// out\n        /* \"@openzeppelin/contracts/token/ERC20/ERC20.sol\":9111:9687  function _burn(address account, uint256 amount) internal virtual {... */\n    tag_138:\n        /* \"@openzeppelin/contracts/token/ERC20/ERC20.sol\":9213:9214  0 */\n      0x00\n        /* \"@openzeppelin/contracts/token/ERC20/ERC20.sol\":9194:9215  account != address(0) */\n      0xffffffffffffffffffffffffffffffffffffffff\n      and\n        /* \"@openzeppelin/contracts/token/ERC20/ERC20.sol\":9194:9201  account */\n      dup3\n        /* \"@openzeppelin/contracts/token/ERC20/ERC20.sol\":9194:9215  account != address(0) */\n      0xffffffffffffffffffffffffffffffffffffffff\n      and\n      eq\n      iszero\n        /* \"@openzeppelin/contracts/token/ERC20/ERC20.sol\":9186:9253  require(account != address(0), \"ERC20: burn from the zero address\") */\n      tag_196\n      jumpi\n      mload(0x40)\n      0x08c379a000000000000000000000000000000000000000000000000000000000\n      dup2\n      mstore\n      0x04\n      add\n      tag_197\n      swap1\n      tag_198\n      jump\t// in\n    tag_197:\n      mload(0x40)\n      dup1\n      swap2\n      sub\n      swap1\n      revert\n    tag_196:\n        /* \"@openzeppelin/contracts/token/ERC20/ERC20.sol\":9264:9313  _beforeTokenTransfer(account, address(0), amount) */\n      tag_199\n        /* \"@openzeppelin/contracts/token/ERC20/ERC20.sol\":9285:9292  account */\n      dup3\n        /* \"@openzeppelin/contracts/token/ERC20/ERC20.sol\":9302:9303  0 */\n      0x00\n        /* \"@openzeppelin/contracts/token/ERC20/ERC20.sol\":9306:9312  amount */\n      dup4\n        /* \"@openzeppelin/contracts/token/ERC20/ERC20.sol\":9264:9284  _beforeTokenTransfer */\n      tag_178\n        /* \"@openzeppelin/contracts/token/ERC20/ERC20.sol\":9264:9313  _beforeTokenTransfer(account, address(0), amount) */\n      jump\t// in\n    tag_199:\n        /* \"@openzeppelin/contracts/token/ERC20/ERC20.sol\":9324:9346  uint256 accountBalance */\n      0x00\n        /* \"@openzeppelin/contracts/token/ERC20/ERC20.sol\":9349:9358  _balances */\n      dup1\n        /* \"@openzeppelin/contracts/token/ERC20/ERC20.sol\":9349:9367  _balances[account] */\n      0x00\n        /* \"@openzeppelin/contracts/token/ERC20/ERC20.sol\":9359:9366  account */\n      dup5\n        /* \"@openzeppelin/contracts/token/ERC20/ERC20.sol\":9349:9367  _balances[account] */\n      0xffffffffffffffffffffffffffffffffffffffff\n      and\n      0xffffffffffffffffffffffffffffffffffffffff\n      and\n      dup2\n      mstore\n      0x20\n      add\n      swap1\n      dup2\n      mstore\n      0x20\n      add\n      0x00\n      keccak256\n      sload\n        /* \"@openzeppelin/contracts/token/ERC20/ERC20.sol\":9324:9367  uint256 accountBalance = _balances[account] */\n      swap1\n      pop\n        /* \"@openzeppelin/contracts/token/ERC20/ERC20.sol\":9403:9409  amount */\n      dup2\n        /* \"@openzeppelin/contracts/token/ERC20/ERC20.sol\":9385:9399  accountBalance */\n      dup2\n        /* \"@openzeppelin/contracts/token/ERC20/ERC20.sol\":9385:9409  accountBalance >= amount */\n      lt\n      iszero\n        /* \"@openzeppelin/contracts/token/ERC20/ERC20.sol\":9377:9448  require(accountBalance >= amount, \"ERC20: burn amount exceeds balance\") */\n      tag_200\n      jumpi\n      mload(0x40)\n      0x08c379a000000000000000000000000000000000000000000000000000000000\n      dup2\n      mstore\n      0x04\n      add\n      tag_201\n      swap1\n      tag_202\n      jump\t// in\n    tag_201:\n      mload(0x40)\n      dup1\n      swap2\n      sub\n      swap1\n      revert\n    tag_200:\n        /* \"@openzeppelin/contracts/token/ERC20/ERC20.sol\":9520:9526  amount */\n      dup2\n        /* \"@openzeppelin/contracts/token/ERC20/ERC20.sol\":9503:9517  accountBalance */\n      dup2\n        /* \"@openzeppelin/contracts/token/ERC20/ERC20.sol\":9503:9526  accountBalance - amount */\n      sub\n        /* \"@openzeppelin/contracts/token/ERC20/ERC20.sol\":9482:9491  _balances */\n      0x00\n        /* \"@openzeppelin/contracts/token/ERC20/ERC20.sol\":9482:9500  _balances[account] */\n      dup1\n        /* \"@openzeppelin/contracts/token/ERC20/ERC20.sol\":9492:9499  account */\n      dup6\n        /* \"@openzeppelin/contracts/token/ERC20/ERC20.sol\":9482:9500  _balances[account] */\n      0xffffffffffffffffffffffffffffffffffffffff\n      and\n      0xffffffffffffffffffffffffffffffffffffffff\n      and\n      dup2\n      mstore\n      0x20\n      add\n      swap1\n      dup2\n      mstore\n      0x20\n      add\n      0x00\n      keccak256\n        /* \"@openzeppelin/contracts/token/ERC20/ERC20.sol\":9482:9526  _balances[account] = accountBalance - amount */\n      dup2\n      swap1\n      sstore\n      pop\n        /* \"@openzeppelin/contracts/token/ERC20/ERC20.sol\":9562:9568  amount */\n      dup2\n        /* \"@openzeppelin/contracts/token/ERC20/ERC20.sol\":9546:9558  _totalSupply */\n      0x02\n      0x00\n        /* \"@openzeppelin/contracts/token/ERC20/ERC20.sol\":9546:9568  _totalSupply -= amount */\n      dup3\n      dup3\n      sload\n      tag_203\n      swap2\n      swap1\n      tag_204\n      jump\t// in\n    tag_203:\n      swap3\n      pop\n      pop\n      dup2\n      swap1\n      sstore\n      pop\n        /* \"@openzeppelin/contracts/token/ERC20/ERC20.sol\":9610:9611  0 */\n      0x00\n        /* \"@openzeppelin/contracts/token/ERC20/ERC20.sol\":9584:9621  Transfer(account, address(0), amount) */\n      0xffffffffffffffffffffffffffffffffffffffff\n      and\n        /* \"@openzeppelin/contracts/token/ERC20/ERC20.sol\":9593:9600  account */\n      dup4\n        /* \"@openzeppelin/contracts/token/ERC20/ERC20.sol\":9584:9621  Transfer(account, address(0), amount) */\n      0xffffffffffffffffffffffffffffffffffffffff\n      and\n      0xddf252ad1be2c89b69c2b068fc378daa952ba7f163c4a11628f55a4df523b3ef\n        /* \"@openzeppelin/contracts/token/ERC20/ERC20.sol\":9614:9620  amount */\n      dup5\n        /* \"@openzeppelin/contracts/token/ERC20/ERC20.sol\":9584:9621  Transfer(account, address(0), amount) */\n      mload(0x40)\n      tag_205\n      swap2\n      swap1\n      tag_36\n      jump\t// in\n    tag_205:\n      mload(0x40)\n      dup1\n      swap2\n      sub\n      swap1\n      log3\n        /* \"@openzeppelin/contracts/token/ERC20/ERC20.sol\":9632:9680  _afterTokenTransfer(account, address(0), amount) */\n      tag_206\n        /* \"@openzeppelin/contracts/token/ERC20/ERC20.sol\":9652:9659  account */\n      dup4\n        /* \"@openzeppelin/contracts/token/ERC20/ERC20.sol\":9669:9670  0 */\n      0x00\n        /* \"@openzeppelin/contracts/token/ERC20/ERC20.sol\":9673:9679  amount */\n      dup5\n        /* \"@openzeppelin/contracts/token/ERC20/ERC20.sol\":9632:9651  _afterTokenTransfer */\n      tag_185\n        /* \"@openzeppelin/contracts/token/ERC20/ERC20.sol\":9632:9680  _afterTokenTransfer(account, address(0), amount) */\n      jump\t// in\n    tag_206:\n        /* \"@openzeppelin/contracts/token/ERC20/ERC20.sol\":9176:9687  {... */\n      pop\n        /* \"@openzeppelin/contracts/token/ERC20/ERC20.sol\":9111:9687  function _burn(address account, uint256 amount) internal virtual {... */\n      pop\n      pop\n      jump\t// out\n        /* \"@openzeppelin/contracts/token/ERC20/ERC20.sol\":11786:11907  function _beforeTokenTransfer(... */\n    tag_178:\n      pop\n      pop\n      pop\n      jump\t// out\n        /* \"@openzeppelin/contracts/token/ERC20/ERC20.sol\":12495:12615  function _afterTokenTransfer(... */\n    tag_185:\n      pop\n      pop\n      pop\n      jump\t// out\n        /* \"#utility.yul\":7:146   */\n    tag_210:\n        /* \"#utility.yul\":53:58   */\n      0x00\n        /* \"#utility.yul\":91:97   */\n      dup2\n        /* \"#utility.yul\":78:98   */\n      calldataload\n        /* \"#utility.yul\":69:98   */\n      swap1\n      pop\n        /* \"#utility.yul\":107:140   */\n      tag_212\n        /* \"#utility.yul\":134:139   */\n      dup2\n        /* \"#utility.yul\":107:140   */\n      tag_213\n      jump\t// in\n    tag_212:\n        /* \"#utility.yul\":7:146   */\n      swap3\n      swap2\n      pop\n      pop\n      jump\t// out\n        /* \"#utility.yul\":152:285   */\n    tag_214:\n        /* \"#utility.yul\":195:200   */\n      0x00\n        /* \"#utility.yul\":233:239   */\n      dup2\n        /* \"#utility.yul\":220:240   */\n      calldataload\n        /* \"#utility.yul\":211:240   */\n      swap1\n      pop\n        /* \"#utility.yul\":249:279   */\n      tag_216\n        /* \"#utility.yul\":273:278   */\n      dup2\n        /* \"#utility.yul\":249:279   */\n      tag_217\n      jump\t// in\n    tag_216:\n        /* \"#utility.yul\":152:285   */\n      swap3\n      swap2\n      pop\n      pop\n      jump\t// out\n        /* \"#utility.yul\":291:430   */\n    tag_218:\n        /* \"#utility.yul\":337:342   */\n      0x00\n        /* \"#utility.yul\":375:381   */\n      dup2\n        /* \"#utility.yul\":362:382   */\n      calldataload\n        /* \"#utility.yul\":353:382   */\n      swap1\n      pop\n        /* \"#utility.yul\":391:424   */\n      tag_220\n        /* \"#utility.yul\":418:423   */\n      dup2\n        /* \"#utility.yul\":391:424   */\n      tag_221\n      jump\t// in\n    tag_220:\n        /* \"#utility.yul\":291:430   */\n      swap3\n      swap2\n      pop\n      pop\n      jump\t// out\n        /* \"#utility.yul\":436:765   */\n    tag_56:\n        /* \"#utility.yul\":495:501   */\n      0x00\n        /* \"#utility.yul\":544:546   */\n      0x20\n        /* \"#utility.yul\":532:541   */\n      dup3\n        /* \"#utility.yul\":523:530   */\n      dup5\n        /* \"#utility.yul\":519:542   */\n      sub\n        /* \"#utility.yul\":515:547   */\n      slt\n        /* \"#utility.yul\":512:631   */\n      iszero\n      tag_223\n      jumpi\n        /* \"#utility.yul\":550:629   */\n      tag_224\n      tag_225\n      jump\t// in\n    tag_224:\n        /* \"#utility.yul\":512:631   */\n    tag_223:\n        /* \"#utility.yul\":670:671   */\n      0x00\n        /* \"#utility.yul\":695:748   */\n      tag_226\n        /* \"#utility.yul\":740:747   */\n      dup5\n        /* \"#utility.yul\":731:737   */\n      dup3\n        /* \"#utility.yul\":720:729   */\n      dup6\n        /* \"#utility.yul\":716:738   */\n      add\n        /* \"#utility.yul\":695:748   */\n      tag_210\n      jump\t// in\n    tag_226:\n        /* \"#utility.yul\":685:748   */\n      swap2\n      pop\n        /* \"#utility.yul\":641:758   */\n      pop\n        /* \"#utility.yul\":436:765   */\n      swap3\n      swap2\n      pop\n      pop\n      jump\t// out\n        /* \"#utility.yul\":771:1245   */\n    tag_84:\n        /* \"#utility.yul\":839:845   */\n      0x00\n        /* \"#utility.yul\":847:853   */\n      dup1\n        /* \"#utility.yul\":896:898   */\n      0x40\n        /* \"#utility.yul\":884:893   */\n      dup4\n        /* \"#utility.yul\":875:882   */\n      dup6\n        /* \"#utility.yul\":871:894   */\n      sub\n        /* \"#utility.yul\":867:899   */\n      slt\n        /* \"#utility.yul\":864:983   */\n      iszero\n      tag_228\n      jumpi\n        /* \"#utility.yul\":902:981   */\n      tag_229\n      tag_225\n      jump\t// in\n    tag_229:\n        /* \"#utility.yul\":864:983   */\n    tag_228:\n        /* \"#utility.yul\":1022:1023   */\n      0x00\n        /* \"#utility.yul\":1047:1100   */\n      tag_230\n        /* \"#utility.yul\":1092:1099   */\n      dup6\n        /* \"#utility.yul\":1083:1089   */\n      dup3\n        /* \"#utility.yul\":1072:1081   */\n      dup7\n        /* \"#utility.yul\":1068:1090   */\n      add\n        /* \"#utility.yul\":1047:1100   */\n      tag_210\n      jump\t// in\n    tag_230:\n        /* \"#utility.yul\":1037:1100   */\n      swap3\n      pop\n        /* \"#utility.yul\":993:1110   */\n      pop\n        /* \"#utility.yul\":1149:1151   */\n      0x20\n        /* \"#utility.yul\":1175:1228   */\n      tag_231\n        /* \"#utility.yul\":1220:1227   */\n      dup6\n        /* \"#utility.yul\":1211:1217   */\n      dup3\n        /* \"#utility.yul\":1200:1209   */\n      dup7\n        /* \"#utility.yul\":1196:1218   */\n      add\n        /* \"#utility.yul\":1175:1228   */\n      tag_210\n      jump\t// in\n    tag_231:\n        /* \"#utility.yul\":1165:1228   */\n      swap2\n      pop\n        /* \"#utility.yul\":1120:1238   */\n      pop\n        /* \"#utility.yul\":771:1245   */\n      swap3\n      pop\n      swap3\n      swap1\n      pop\n      jump\t// out\n        /* \"#utility.yul\":1251:1870   */\n    tag_39:\n        /* \"#utility.yul\":1328:1334   */\n      0x00\n        /* \"#utility.yul\":1336:1342   */\n      dup1\n        /* \"#utility.yul\":1344:1350   */\n      0x00\n        /* \"#utility.yul\":1393:1395   */\n      0x60\n        /* \"#utility.yul\":1381:1390   */\n      dup5\n        /* \"#utility.yul\":1372:1379   */\n      dup7\n        /* \"#utility.yul\":1368:1391   */\n      sub\n        /* \"#utility.yul\":1364:1396   */\n      slt\n        /* \"#utility.yul\":1361:1480   */\n      iszero\n      tag_233\n      jumpi\n        /* \"#utility.yul\":1399:1478   */\n      tag_234\n      tag_225\n      jump\t// in\n    tag_234:\n        /* \"#utility.yul\":1361:1480   */\n    tag_233:\n        /* \"#utility.yul\":1519:1520   */\n      0x00\n        /* \"#utility.yul\":1544:1597   */\n      tag_235\n        /* \"#utility.yul\":1589:1596   */\n      dup7\n        /* \"#utility.yul\":1580:1586   */\n      dup3\n        /* \"#utility.yul\":1569:1578   */\n      dup8\n        /* \"#utility.yul\":1565:1587   */\n      add\n        /* \"#utility.yul\":1544:1597   */\n      tag_210\n      jump\t// in\n    tag_235:\n        /* \"#utility.yul\":1534:1597   */\n      swap4\n      pop\n        /* \"#utility.yul\":1490:1607   */\n      pop\n        /* \"#utility.yul\":1646:1648   */\n      0x20\n        /* \"#utility.yul\":1672:1725   */\n      tag_236\n        /* \"#utility.yul\":1717:1724   */\n      dup7\n        /* \"#utility.yul\":1708:1714   */\n      dup3\n        /* \"#utility.yul\":1697:1706   */\n      dup8\n        /* \"#utility.yul\":1693:1715   */\n      add\n        /* \"#utility.yul\":1672:1725   */\n      tag_210\n      jump\t// in\n    tag_236:\n        /* \"#utility.yul\":1662:1725   */\n      swap3\n      pop\n        /* \"#utility.yul\":1617:1735   */\n      pop\n        /* \"#utility.yul\":1774:1776   */\n      0x40\n        /* \"#utility.yul\":1800:1853   */\n      tag_237\n        /* \"#utility.yul\":1845:1852   */\n      dup7\n        /* \"#utility.yul\":1836:1842   */\n      dup3\n        /* \"#utility.yul\":1825:1834   */\n      dup8\n        /* \"#utility.yul\":1821:1843   */\n      add\n        /* \"#utility.yul\":1800:1853   */\n      tag_218\n      jump\t// in\n    tag_237:\n        /* \"#utility.yul\":1790:1853   */\n      swap2\n      pop\n        /* \"#utility.yul\":1745:1863   */\n      pop\n        /* \"#utility.yul\":1251:1870   */\n      swap3\n      pop\n      swap3\n      pop\n      swap3\n      jump\t// out\n        /* \"#utility.yul\":1876:2344   */\n    tag_89:\n        /* \"#utility.yul\":1941:1947   */\n      0x00\n        /* \"#utility.yul\":1949:1955   */\n      dup1\n        /* \"#utility.yul\":1998:2000   */\n      0x40\n        /* \"#utility.yul\":1986:1995   */\n      dup4\n        /* \"#utility.yul\":1977:1984   */\n      dup6\n        /* \"#utility.yul\":1973:1996   */\n      sub\n        /* \"#utility.yul\":1969:2001   */\n      slt\n        /* \"#utility.yul\":1966:2085   */\n      iszero\n      tag_239\n      jumpi\n        /* \"#utility.yul\":2004:2083   */\n      tag_240\n      tag_225\n      jump\t// in\n    tag_240:\n        /* \"#utility.yul\":1966:2085   */\n    tag_239:\n        /* \"#utility.yul\":2124:2125   */\n      0x00\n        /* \"#utility.yul\":2149:2202   */\n      tag_241\n        /* \"#utility.yul\":2194:2201   */\n      dup6\n        /* \"#utility.yul\":2185:2191   */\n      dup3\n        /* \"#utility.yul\":2174:2183   */\n      dup7\n        /* \"#utility.yul\":2170:2192   */\n      add\n        /* \"#utility.yul\":2149:2202   */\n      tag_210\n      jump\t// in\n    tag_241:\n        /* \"#utility.yul\":2139:2202   */\n      swap3\n      pop\n        /* \"#utility.yul\":2095:2212   */\n      pop\n        /* \"#utility.yul\":2251:2253   */\n      0x20\n        /* \"#utility.yul\":2277:2327   */\n      tag_242\n        /* \"#utility.yul\":2319:2326   */\n      dup6\n        /* \"#utility.yul\":2310:2316   */\n      dup3\n        /* \"#utility.yul\":2299:2308   */\n      dup7\n        /* \"#utility.yul\":2295:2317   */\n      add\n        /* \"#utility.yul\":2277:2327   */\n      tag_214\n      jump\t// in\n    tag_242:\n        /* \"#utility.yul\":2267:2327   */\n      swap2\n      pop\n        /* \"#utility.yul\":2222:2337   */\n      pop\n        /* \"#utility.yul\":1876:2344   */\n      swap3\n      pop\n      swap3\n      swap1\n      pop\n      jump\t// out\n        /* \"#utility.yul\":2350:2824   */\n    tag_29:\n        /* \"#utility.yul\":2418:2424   */\n      0x00\n        /* \"#utility.yul\":2426:2432   */\n      dup1\n        /* \"#utility.yul\":2475:2477   */\n      0x40\n        /* \"#utility.yul\":2463:2472   */\n      dup4\n        /* \"#utility.yul\":2454:2461   */\n      dup6\n        /* \"#utility.yul\":2450:2473   */\n      sub\n        /* \"#utility.yul\":2446:2478   */\n      slt\n        /* \"#utility.yul\":2443:2562   */\n      iszero\n      tag_244\n      jumpi\n        /* \"#utility.yul\":2481:2560   */\n      tag_245\n      tag_225\n      jump\t// in\n    tag_245:\n        /* \"#utility.yul\":2443:2562   */\n    tag_244:\n        /* \"#utility.yul\":2601:2602   */\n      0x00\n        /* \"#utility.yul\":2626:2679   */\n      tag_246\n        /* \"#utility.yul\":2671:2678   */\n      dup6\n        /* \"#utility.yul\":2662:2668   */\n      dup3\n        /* \"#utility.yul\":2651:2660   */\n      dup7\n        /* \"#utility.yul\":2647:2669   */\n      add\n        /* \"#utility.yul\":2626:2679   */\n      tag_210\n      jump\t// in\n    tag_246:\n        /* \"#utility.yul\":2616:2679   */\n      swap3\n      pop\n        /* \"#utility.yul\":2572:2689   */\n      pop\n        /* \"#utility.yul\":2728:2730   */\n      0x20\n        /* \"#utility.yul\":2754:2807   */\n      tag_247\n        /* \"#utility.yul\":2799:2806   */\n      dup6\n        /* \"#utility.yul\":2790:2796   */\n      dup3\n        /* \"#utility.yul\":2779:2788   */\n      dup7\n        /* \"#utility.yul\":2775:2797   */\n      add\n        /* \"#utility.yul\":2754:2807   */\n      tag_218\n      jump\t// in\n    tag_247:\n        /* \"#utility.yul\":2744:2807   */\n      swap2\n      pop\n        /* \"#utility.yul\":2699:2817   */\n      pop\n        /* \"#utility.yul\":2350:2824   */\n      swap3\n      pop\n      swap3\n      swap1\n      pop\n      jump\t// out\n        /* \"#utility.yul\":2830:3304   */\n    tag_44:\n        /* \"#utility.yul\":2898:2904   */\n      0x00\n        /* \"#utility.yul\":2906:2912   */\n      dup1\n        /* \"#utility.yul\":2955:2957   */\n      0x40\n        /* \"#utility.yul\":2943:2952   */\n      dup4\n        /* \"#utility.yul\":2934:2941   */\n      dup6\n        /* \"#utility.yul\":2930:2953   */\n      sub\n        /* \"#utility.yul\":2926:2958   */\n      slt\n        /* \"#utility.yul\":2923:3042   */\n      iszero\n      tag_249\n      jumpi\n        /* \"#utility.yul\":2961:3040   */\n      tag_250\n      tag_225\n      jump\t// in\n    tag_250:\n        /* \"#utility.yul\":2923:3042   */\n    tag_249:\n        /* \"#utility.yul\":3081:3082   */\n      0x00\n        /* \"#utility.yul\":3106:3159   */\n      tag_251\n        /* \"#utility.yul\":3151:3158   */\n      dup6\n        /* \"#utility.yul\":3142:3148   */\n      dup3\n        /* \"#utility.yul\":3131:3140   */\n      dup7\n        /* \"#utility.yul\":3127:3149   */\n      add\n        /* \"#utility.yul\":3106:3159   */\n      tag_218\n      jump\t// in\n    tag_251:\n        /* \"#utility.yul\":3096:3159   */\n      swap3\n      pop\n        /* \"#utility.yul\":3052:3169   */\n      pop\n        /* \"#utility.yul\":3208:3210   */\n      0x20\n        /* \"#utility.yul\":3234:3287   */\n      tag_252\n        /* \"#utility.yul\":3279:3286   */\n      dup6\n        /* \"#utility.yul\":3270:3276   */\n      dup3\n        /* \"#utility.yul\":3259:3268   */\n      dup7\n        /* \"#utility.yul\":3255:3277   */\n      add\n        /* \"#utility.yul\":3234:3287   */\n      tag_210\n      jump\t// in\n    tag_252:\n        /* \"#utility.yul\":3224:3287   */\n      swap2\n      pop\n        /* \"#utility.yul\":3179:3297   */\n      pop\n        /* \"#utility.yul\":2830:3304   */\n      swap3\n      pop\n      swap3\n      swap1\n      pop\n      jump\t// out\n        /* \"#utility.yul\":3310:3428   */\n    tag_253:\n        /* \"#utility.yul\":3397:3421   */\n      tag_255\n        /* \"#utility.yul\":3415:3420   */\n      dup2\n        /* \"#utility.yul\":3397:3421   */\n      tag_256\n      jump\t// in\n    tag_255:\n        /* \"#utility.yul\":3392:3395   */\n      dup3\n        /* \"#utility.yul\":3385:3422   */\n      mstore\n        /* \"#utility.yul\":3310:3428   */\n      pop\n      pop\n      jump\t// out\n        /* \"#utility.yul\":3434:3543   */\n    tag_257:\n        /* \"#utility.yul\":3515:3536   */\n      tag_259\n        /* \"#utility.yul\":3530:3535   */\n      dup2\n        /* \"#utility.yul\":3515:3536   */\n      tag_260\n      jump\t// in\n    tag_259:\n        /* \"#utility.yul\":3510:3513   */\n      dup3\n        /* \"#utility.yul\":3503:3537   */\n      mstore\n        /* \"#utility.yul\":3434:3543   */\n      pop\n      pop\n      jump\t// out\n        /* \"#utility.yul\":3549:3913   */\n    tag_261:\n        /* \"#utility.yul\":3637:3640   */\n      0x00\n        /* \"#utility.yul\":3665:3704   */\n      tag_263\n        /* \"#utility.yul\":3698:3703   */\n      dup3\n        /* \"#utility.yul\":3665:3704   */\n      tag_264\n      jump\t// in\n    tag_263:\n        /* \"#utility.yul\":3720:3791   */\n      tag_265\n        /* \"#utility.yul\":3784:3790   */\n      dup2\n        /* \"#utility.yul\":3779:3782   */\n      dup6\n        /* \"#utility.yul\":3720:3791   */\n      tag_266\n      jump\t// in\n    tag_265:\n        /* \"#utility.yul\":3713:3791   */\n      swap4\n      pop\n        /* \"#utility.yul\":3800:3852   */\n      tag_267\n        /* \"#utility.yul\":3845:3851   */\n      dup2\n        /* \"#utility.yul\":3840:3843   */\n      dup6\n        /* \"#utility.yul\":3833:3837   */\n      0x20\n        /* \"#utility.yul\":3826:3831   */\n      dup7\n        /* \"#utility.yul\":3822:3838   */\n      add\n        /* \"#utility.yul\":3800:3852   */\n      tag_268\n      jump\t// in\n    tag_267:\n        /* \"#utility.yul\":3877:3906   */\n      tag_269\n        /* \"#utility.yul\":3899:3905   */\n      dup2\n        /* \"#utility.yul\":3877:3906   */\n      tag_270\n      jump\t// in\n    tag_269:\n        /* \"#utility.yul\":3872:3875   */\n      dup5\n        /* \"#utility.yul\":3868:3907   */\n      add\n        /* \"#utility.yul\":3861:3907   */\n      swap2\n      pop\n        /* \"#utility.yul\":3641:3913   */\n      pop\n        /* \"#utility.yul\":3549:3913   */\n      swap3\n      swap2\n      pop\n      pop\n      jump\t// out\n        /* \"#utility.yul\":3919:4285   */\n    tag_271:\n        /* \"#utility.yul\":4061:4064   */\n      0x00\n        /* \"#utility.yul\":4082:4149   */\n      tag_273\n        /* \"#utility.yul\":4146:4148   */\n      0x23\n        /* \"#utility.yul\":4141:4144   */\n      dup4\n        /* \"#utility.yul\":4082:4149   */\n      tag_266\n      jump\t// in\n    tag_273:\n        /* \"#utility.yul\":4075:4149   */\n      swap2\n      pop\n        /* \"#utility.yul\":4158:4251   */\n      tag_274\n        /* \"#utility.yul\":4247:4250   */\n      dup3\n        /* \"#utility.yul\":4158:4251   */\n      tag_275\n      jump\t// in\n    tag_274:\n        /* \"#utility.yul\":4276:4278   */\n      0x40\n        /* \"#utility.yul\":4271:4274   */\n      dup3\n        /* \"#utility.yul\":4267:4279   */\n      add\n        /* \"#utility.yul\":4260:4279   */\n      swap1\n      pop\n        /* \"#utility.yul\":3919:4285   */\n      swap2\n      swap1\n      pop\n      jump\t// out\n        /* \"#utility.yul\":4291:4657   */\n    tag_276:\n        /* \"#utility.yul\":4433:4436   */\n      0x00\n        /* \"#utility.yul\":4454:4521   */\n      tag_278\n        /* \"#utility.yul\":4518:4520   */\n      0x22\n        /* \"#utility.yul\":4513:4516   */\n      dup4\n        /* \"#utility.yul\":4454:4521   */\n      tag_266\n      jump\t// in\n    tag_278:\n        /* \"#utility.yul\":4447:4521   */\n      swap2\n      pop\n        /* \"#utility.yul\":4530:4623   */\n      tag_279\n        /* \"#utility.yul\":4619:4622   */\n      dup3\n        /* \"#utility.yul\":4530:4623   */\n      tag_280\n      jump\t// in\n    tag_279:\n        /* \"#utility.yul\":4648:4650   */\n      0x40\n        /* \"#utility.yul\":4643:4646   */\n      dup3\n        /* \"#utility.yul\":4639:4651   */\n      add\n        /* \"#utility.yul\":4632:4651   */\n      swap1\n      pop\n        /* \"#utility.yul\":4291:4657   */\n      swap2\n      swap1\n      pop\n      jump\t// out\n        /* \"#utility.yul\":4663:5029   */\n    tag_281:\n        /* \"#utility.yul\":4805:4808   */\n      0x00\n        /* \"#utility.yul\":4826:4893   */\n      tag_283\n        /* \"#utility.yul\":4890:4892   */\n      0x22\n        /* \"#utility.yul\":4885:4888   */\n      dup4\n        /* \"#utility.yul\":4826:4893   */\n      tag_266\n      jump\t// in\n    tag_283:\n        /* \"#utility.yul\":4819:4893   */\n      swap2\n      pop\n        /* \"#utility.yul\":4902:4995   */\n      tag_284\n        /* \"#utility.yul\":4991:4994   */\n      dup3\n        /* \"#utility.yul\":4902:4995   */\n      tag_285\n      jump\t// in\n    tag_284:\n        /* \"#utility.yul\":5020:5022   */\n      0x40\n        /* \"#utility.yul\":5015:5018   */\n      dup3\n        /* \"#utility.yul\":5011:5023   */\n      add\n        /* \"#utility.yul\":5004:5023   */\n      swap1\n      pop\n        /* \"#utility.yul\":4663:5029   */\n      swap2\n      swap1\n      pop\n      jump\t// out\n        /* \"#utility.yul\":5035:5401   */\n    tag_286:\n        /* \"#utility.yul\":5177:5180   */\n      0x00\n        /* \"#utility.yul\":5198:5265   */\n      tag_288\n        /* \"#utility.yul\":5262:5264   */\n      0x1d\n        /* \"#utility.yul\":5257:5260   */\n      dup4\n        /* \"#utility.yul\":5198:5265   */\n      tag_266\n      jump\t// in\n    tag_288:\n        /* \"#utility.yul\":5191:5265   */\n      swap2\n      pop\n        /* \"#utility.yul\":5274:5367   */\n      tag_289\n        /* \"#utility.yul\":5363:5366   */\n      dup3\n        /* \"#utility.yul\":5274:5367   */\n      tag_290\n      jump\t// in\n    tag_289:\n        /* \"#utility.yul\":5392:5394   */\n      0x20\n        /* \"#utility.yul\":5387:5390   */\n      dup3\n        /* \"#utility.yul\":5383:5395   */\n      add\n        /* \"#utility.yul\":5376:5395   */\n      swap1\n      pop\n        /* \"#utility.yul\":5035:5401   */\n      swap2\n      swap1\n      pop\n      jump\t// out\n        /* \"#utility.yul\":5407:5773   */\n    tag_291:\n        /* \"#utility.yul\":5549:5552   */\n      0x00\n        /* \"#utility.yul\":5570:5637   */\n      tag_293\n        /* \"#utility.yul\":5634:5636   */\n      0x26\n        /* \"#utility.yul\":5629:5632   */\n      dup4\n        /* \"#utility.yul\":5570:5637   */\n      tag_266\n      jump\t// in\n    tag_293:\n        /* \"#utility.yul\":5563:5637   */\n      swap2\n      pop\n        /* \"#utility.yul\":5646:5739   */\n      tag_294\n        /* \"#utility.yul\":5735:5738   */\n      dup3\n        /* \"#utility.yul\":5646:5739   */\n      tag_295\n      jump\t// in\n    tag_294:\n        /* \"#utility.yul\":5764:5766   */\n      0x40\n        /* \"#utility.yul\":5759:5762   */\n      dup3\n        /* \"#utility.yul\":5755:5767   */\n      add\n        /* \"#utility.yul\":5748:5767   */\n      swap1\n      pop\n        /* \"#utility.yul\":5407:5773   */\n      swap2\n      swap1\n      pop\n      jump\t// out\n        /* \"#utility.yul\":5779:6145   */\n    tag_296:\n        /* \"#utility.yul\":5921:5924   */\n      0x00\n        /* \"#utility.yul\":5942:6009   */\n      tag_298\n        /* \"#utility.yul\":6006:6008   */\n      0x1d\n        /* \"#utility.yul\":6001:6004   */\n      dup4\n        /* \"#utility.yul\":5942:6009   */\n      tag_266\n      jump\t// in\n    tag_298:\n        /* \"#utility.yul\":5935:6009   */\n      swap2\n      pop\n        /* \"#utility.yul\":6018:6111   */\n      tag_299\n        /* \"#utility.yul\":6107:6110   */\n      dup3\n        /* \"#utility.yul\":6018:6111   */\n      tag_300\n      jump\t// in\n    tag_299:\n        /* \"#utility.yul\":6136:6138   */\n      0x20\n        /* \"#utility.yul\":6131:6134   */\n      dup3\n        /* \"#utility.yul\":6127:6139   */\n      add\n        /* \"#utility.yul\":6120:6139   */\n      swap1\n      pop\n        /* \"#utility.yul\":5779:6145   */\n      swap2\n      swap1\n      pop\n      jump\t// out\n        /* \"#utility.yul\":6151:6517   */\n    tag_301:\n        /* \"#utility.yul\":6293:6296   */\n      0x00\n        /* \"#utility.yul\":6314:6381   */\n      tag_303\n        /* \"#utility.yul\":6378:6380   */\n      0x21\n        /* \"#utility.yul\":6373:6376   */\n      dup4\n        /* \"#utility.yul\":6314:6381   */\n      tag_266\n      jump\t// in\n    tag_303:\n        /* \"#utility.yul\":6307:6381   */\n      swap2\n      pop\n        /* \"#utility.yul\":6390:6483   */\n      tag_304\n        /* \"#utility.yul\":6479:6482   */\n      dup3\n        /* \"#utility.yul\":6390:6483   */\n      tag_305\n      jump\t// in\n    tag_304:\n        /* \"#utility.yul\":6508:6510   */\n      0x40\n        /* \"#utility.yul\":6503:6506   */\n      dup3\n        /* \"#utility.yul\":6499:6511   */\n      add\n        /* \"#utility.yul\":6492:6511   */\n      swap1\n      pop\n        /* \"#utility.yul\":6151:6517   */\n      swap2\n      swap1\n      pop\n      jump\t// out\n        /* \"#utility.yul\":6523:6889   */\n    tag_306:\n        /* \"#utility.yul\":6665:6668   */\n      0x00\n        /* \"#utility.yul\":6686:6753   */\n      tag_308\n        /* \"#utility.yul\":6750:6752   */\n      0x25\n        /* \"#utility.yul\":6745:6748   */\n      dup4\n        /* \"#utility.yul\":6686:6753   */\n      tag_266\n      jump\t// in\n    tag_308:\n        /* \"#utility.yul\":6679:6753   */\n      swap2\n      pop\n        /* \"#utility.yul\":6762:6855   */\n      tag_309\n        /* \"#utility.yul\":6851:6854   */\n      dup3\n        /* \"#utility.yul\":6762:6855   */\n      tag_310\n      jump\t// in\n    tag_309:\n        /* \"#utility.yul\":6880:6882   */\n      0x40\n        /* \"#utility.yul\":6875:6878   */\n      dup3\n        /* \"#utility.yul\":6871:6883   */\n      add\n        /* \"#utility.yul\":6864:6883   */\n      swap1\n      pop\n        /* \"#utility.yul\":6523:6889   */\n      swap2\n      swap1\n      pop\n      jump\t// out\n        /* \"#utility.yul\":6895:7261   */\n    tag_311:\n        /* \"#utility.yul\":7037:7040   */\n      0x00\n        /* \"#utility.yul\":7058:7125   */\n      tag_313\n        /* \"#utility.yul\":7122:7124   */\n      0x24\n        /* \"#utility.yul\":7117:7120   */\n      dup4\n        /* \"#utility.yul\":7058:7125   */\n      tag_266\n      jump\t// in\n    tag_313:\n        /* \"#utility.yul\":7051:7125   */\n      swap2\n      pop\n        /* \"#utility.yul\":7134:7227   */\n      tag_314\n        /* \"#utility.yul\":7223:7226   */\n      dup3\n        /* \"#utility.yul\":7134:7227   */\n      tag_315\n      jump\t// in\n    tag_314:\n        /* \"#utility.yul\":7252:7254   */\n      0x40\n        /* \"#utility.yul\":7247:7250   */\n      dup3\n        /* \"#utility.yul\":7243:7255   */\n      add\n        /* \"#utility.yul\":7236:7255   */\n      swap1\n      pop\n        /* \"#utility.yul\":6895:7261   */\n      swap2\n      swap1\n      pop\n      jump\t// out\n        /* \"#utility.yul\":7267:7633   */\n    tag_316:\n        /* \"#utility.yul\":7409:7412   */\n      0x00\n        /* \"#utility.yul\":7430:7497   */\n      tag_318\n        /* \"#utility.yul\":7494:7496   */\n      0x26\n        /* \"#utility.yul\":7489:7492   */\n      dup4\n        /* \"#utility.yul\":7430:7497   */\n      tag_266\n      jump\t// in\n    tag_318:\n        /* \"#utility.yul\":7423:7497   */\n      swap2\n      pop\n        /* \"#utility.yul\":7506:7599   */\n      tag_319\n        /* \"#utility.yul\":7595:7598   */\n      dup3\n        /* \"#utility.yul\":7506:7599   */\n      tag_320\n      jump\t// in\n    tag_319:\n        /* \"#utility.yul\":7624:7626   */\n      0x40\n        /* \"#utility.yul\":7619:7622   */\n      dup3\n        /* \"#utility.yul\":7615:7627   */\n      add\n        /* \"#utility.yul\":7608:7627   */\n      swap1\n      pop\n        /* \"#utility.yul\":7267:7633   */\n      swap2\n      swap1\n      pop\n      jump\t// out\n        /* \"#utility.yul\":7639:8005   */\n    tag_321:\n        /* \"#utility.yul\":7781:7784   */\n      0x00\n        /* \"#utility.yul\":7802:7869   */\n      tag_323\n        /* \"#utility.yul\":7866:7868   */\n      0x25\n        /* \"#utility.yul\":7861:7864   */\n      dup4\n        /* \"#utility.yul\":7802:7869   */\n      tag_266\n      jump\t// in\n    tag_323:\n        /* \"#utility.yul\":7795:7869   */\n      swap2\n      pop\n        /* \"#utility.yul\":7878:7971   */\n      tag_324\n        /* \"#utility.yul\":7967:7970   */\n      dup3\n        /* \"#utility.yul\":7878:7971   */\n      tag_325\n      jump\t// in\n    tag_324:\n        /* \"#utility.yul\":7996:7998   */\n      0x40\n        /* \"#utility.yul\":7991:7994   */\n      dup3\n        /* \"#utility.yul\":7987:7999   */\n      add\n        /* \"#utility.yul\":7980:7999   */\n      swap1\n      pop\n        /* \"#utility.yul\":7639:8005   */\n      swap2\n      swap1\n      pop\n      jump\t// out\n        /* \"#utility.yul\":8011:8377   */\n    tag_326:\n        /* \"#utility.yul\":8153:8156   */\n      0x00\n        /* \"#utility.yul\":8174:8241   */\n      tag_328\n        /* \"#utility.yul\":8238:8240   */\n      0x1f\n        /* \"#utility.yul\":8233:8236   */\n      dup4\n        /* \"#utility.yul\":8174:8241   */\n      tag_266\n      jump\t// in\n    tag_328:\n        /* \"#utility.yul\":8167:8241   */\n      swap2\n      pop\n        /* \"#utility.yul\":8250:8343   */\n      tag_329\n        /* \"#utility.yul\":8339:8342   */\n      dup3\n        /* \"#utility.yul\":8250:8343   */\n      tag_330\n      jump\t// in\n    tag_329:\n        /* \"#utility.yul\":8368:8370   */\n      0x20\n        /* \"#utility.yul\":8363:8366   */\n      dup3\n        /* \"#utility.yul\":8359:8371   */\n      add\n        /* \"#utility.yul\":8352:8371   */\n      swap1\n      pop\n        /* \"#utility.yul\":8011:8377   */\n      swap2\n      swap1\n      pop\n      jump\t// out\n        /* \"#utility.yul\":8383:8501   */\n    tag_331:\n        /* \"#utility.yul\":8470:8494   */\n      tag_333\n        /* \"#utility.yul\":8488:8493   */\n      dup2\n        /* \"#utility.yul\":8470:8494   */\n      tag_334\n      jump\t// in\n    tag_333:\n        /* \"#utility.yul\":8465:8468   */\n      dup3\n        /* \"#utility.yul\":8458:8495   */\n      mstore\n        /* \"#utility.yul\":8383:8501   */\n      pop\n      pop\n      jump\t// out\n        /* \"#utility.yul\":8507:8619   */\n    tag_335:\n        /* \"#utility.yul\":8590:8612   */\n      tag_337\n        /* \"#utility.yul\":8606:8611   */\n      dup2\n        /* \"#utility.yul\":8590:8612   */\n      tag_338\n      jump\t// in\n    tag_337:\n        /* \"#utility.yul\":8585:8588   */\n      dup3\n        /* \"#utility.yul\":8578:8613   */\n      mstore\n        /* \"#utility.yul\":8507:8619   */\n      pop\n      pop\n      jump\t// out\n        /* \"#utility.yul\":8625:8847   */\n    tag_94:\n        /* \"#utility.yul\":8718:8722   */\n      0x00\n        /* \"#utility.yul\":8756:8758   */\n      0x20\n        /* \"#utility.yul\":8745:8754   */\n      dup3\n        /* \"#utility.yul\":8741:8759   */\n      add\n        /* \"#utility.yul\":8733:8759   */\n      swap1\n      pop\n        /* \"#utility.yul\":8769:8840   */\n      tag_340\n        /* \"#utility.yul\":8837:8838   */\n      0x00\n        /* \"#utility.yul\":8826:8835   */\n      dup4\n        /* \"#utility.yul\":8822:8839   */\n      add\n        /* \"#utility.yul\":8813:8819   */\n      dup5\n        /* \"#utility.yul\":8769:8840   */\n      tag_253\n      jump\t// in\n    tag_340:\n        /* \"#utility.yul\":8625:8847   */\n      swap3\n      swap2\n      pop\n      pop\n      jump\t// out\n        /* \"#utility.yul\":8853:9063   */\n    tag_32:\n        /* \"#utility.yul\":8940:8944   */\n      0x00\n        /* \"#utility.yul\":8978:8980   */\n      0x20\n        /* \"#utility.yul\":8967:8976   */\n      dup3\n        /* \"#utility.yul\":8963:8981   */\n      add\n        /* \"#utility.yul\":8955:8981   */\n      swap1\n      pop\n        /* \"#utility.yul\":8991:9056   */\n      tag_342\n        /* \"#utility.yul\":9053:9054   */\n      0x00\n        /* \"#utility.yul\":9042:9051   */\n      dup4\n        /* \"#utility.yul\":9038:9055   */\n      add\n        /* \"#utility.yul\":9029:9035   */\n      dup5\n        /* \"#utility.yul\":8991:9056   */\n      tag_257\n      jump\t// in\n    tag_342:\n        /* \"#utility.yul\":8853:9063   */\n      swap3\n      swap2\n      pop\n      pop\n      jump\t// out\n        /* \"#utility.yul\":9069:9382   */\n    tag_26:\n        /* \"#utility.yul\":9182:9186   */\n      0x00\n        /* \"#utility.yul\":9220:9222   */\n      0x20\n        /* \"#utility.yul\":9209:9218   */\n      dup3\n        /* \"#utility.yul\":9205:9223   */\n      add\n        /* \"#utility.yul\":9197:9223   */\n      swap1\n      pop\n        /* \"#utility.yul\":9269:9278   */\n      dup2\n        /* \"#utility.yul\":9263:9267   */\n      dup2\n        /* \"#utility.yul\":9259:9279   */\n      sub\n        /* \"#utility.yul\":9255:9256   */\n      0x00\n        /* \"#utility.yul\":9244:9253   */\n      dup4\n        /* \"#utility.yul\":9240:9257   */\n      add\n        /* \"#utility.yul\":9233:9280   */\n      mstore\n        /* \"#utility.yul\":9297:9375   */\n      tag_344\n        /* \"#utility.yul\":9370:9374   */\n      dup2\n        /* \"#utility.yul\":9361:9367   */\n      dup5\n        /* \"#utility.yul\":9297:9375   */\n      tag_261\n      jump\t// in\n    tag_344:\n        /* \"#utility.yul\":9289:9375   */\n      swap1\n      pop\n        /* \"#utility.yul\":9069:9382   */\n      swap3\n      swap2\n      pop\n      pop\n      jump\t// out\n        /* \"#utility.yul\":9388:9807   */\n    tag_176:\n        /* \"#utility.yul\":9554:9558   */\n      0x00\n        /* \"#utility.yul\":9592:9594   */\n      0x20\n        /* \"#utility.yul\":9581:9590   */\n      dup3\n        /* \"#utility.yul\":9577:9595   */\n      add\n        /* \"#utility.yul\":9569:9595   */\n      swap1\n      pop\n        /* \"#utility.yul\":9641:9650   */\n      dup2\n        /* \"#utility.yul\":9635:9639   */\n      dup2\n        /* \"#utility.yul\":9631:9651   */\n      sub\n        /* \"#utility.yul\":9627:9628   */\n      0x00\n        /* \"#utility.yul\":9616:9625   */\n      dup4\n        /* \"#utility.yul\":9612:9629   */\n      add\n        /* \"#utility.yul\":9605:9652   */\n      mstore\n        /* \"#utility.yul\":9669:9800   */\n      tag_346\n        /* \"#utility.yul\":9795:9799   */\n      dup2\n        /* \"#utility.yul\":9669:9800   */\n      tag_271\n      jump\t// in\n    tag_346:\n        /* \"#utility.yul\":9661:9800   */\n      swap1\n      pop\n        /* \"#utility.yul\":9388:9807   */\n      swap2\n      swap1\n      pop\n      jump\t// out\n        /* \"#utility.yul\":9813:10232   */\n    tag_202:\n        /* \"#utility.yul\":9979:9983   */\n      0x00\n        /* \"#utility.yul\":10017:10019   */\n      0x20\n        /* \"#utility.yul\":10006:10015   */\n      dup3\n        /* \"#utility.yul\":10002:10020   */\n      add\n        /* \"#utility.yul\":9994:10020   */\n      swap1\n      pop\n        /* \"#utility.yul\":10066:10075   */\n      dup2\n        /* \"#utility.yul\":10060:10064   */\n      dup2\n        /* \"#utility.yul\":10056:10076   */\n      sub\n        /* \"#utility.yul\":10052:10053   */\n      0x00\n        /* \"#utility.yul\":10041:10050   */\n      dup4\n        /* \"#utility.yul\":10037:10054   */\n      add\n        /* \"#utility.yul\":10030:10077   */\n      mstore\n        /* \"#utility.yul\":10094:10225   */\n      tag_348\n        /* \"#utility.yul\":10220:10224   */\n      dup2\n        /* \"#utility.yul\":10094:10225   */\n      tag_276\n      jump\t// in\n    tag_348:\n        /* \"#utility.yul\":10086:10225   */\n      swap1\n      pop\n        /* \"#utility.yul\":9813:10232   */\n      swap2\n      swap1\n      pop\n      jump\t// out\n        /* \"#utility.yul\":10238:10657   */\n    tag_161:\n        /* \"#utility.yul\":10404:10408   */\n      0x00\n        /* \"#utility.yul\":10442:10444   */\n      0x20\n        /* \"#utility.yul\":10431:10440   */\n      dup3\n        /* \"#utility.yul\":10427:10445   */\n      add\n        /* \"#utility.yul\":10419:10445   */\n      swap1\n      pop\n        /* \"#utility.yul\":10491:10500   */\n      dup2\n        /* \"#utility.yul\":10485:10489   */\n      dup2\n        /* \"#utility.yul\":10481:10501   */\n      sub\n        /* \"#utility.yul\":10477:10478   */\n      0x00\n        /* \"#utility.yul\":10466:10475   */\n      dup4\n        /* \"#utility.yul\":10462:10479   */\n      add\n        /* \"#utility.yul\":10455:10502   */\n      mstore\n        /* \"#utility.yul\":10519:10650   */\n      tag_350\n        /* \"#utility.yul\":10645:10649   */\n      dup2\n        /* \"#utility.yul\":10519:10650   */\n      tag_281\n      jump\t// in\n    tag_350:\n        /* \"#utility.yul\":10511:10650   */\n      swap1\n      pop\n        /* \"#utility.yul\":10238:10657   */\n      swap2\n      swap1\n      pop\n      jump\t// out\n        /* \"#utility.yul\":10663:11082   */\n    tag_168:\n        /* \"#utility.yul\":10829:10833   */\n      0x00\n        /* \"#utility.yul\":10867:10869   */\n      0x20\n        /* \"#utility.yul\":10856:10865   */\n      dup3\n        /* \"#utility.yul\":10852:10870   */\n      add\n        /* \"#utility.yul\":10844:10870   */\n      swap1\n      pop\n        /* \"#utility.yul\":10916:10925   */\n      dup2\n        /* \"#utility.yul\":10910:10914   */\n      dup2\n        /* \"#utility.yul\":10906:10926   */\n      sub\n        /* \"#utility.yul\":10902:10903   */\n      0x00\n        /* \"#utility.yul\":10891:10900   */\n      dup4\n        /* \"#utility.yul\":10887:10904   */\n      add\n        /* \"#utility.yul\":10880:10927   */\n      mstore\n        /* \"#utility.yul\":10944:11075   */\n      tag_352\n        /* \"#utility.yul\":11070:11074   */\n      dup2\n        /* \"#utility.yul\":10944:11075   */\n      tag_286\n      jump\t// in\n    tag_352:\n        /* \"#utility.yul\":10936:11075   */\n      swap1\n      pop\n        /* \"#utility.yul\":10663:11082   */\n      swap2\n      swap1\n      pop\n      jump\t// out\n        /* \"#utility.yul\":11088:11507   */\n    tag_181:\n        /* \"#utility.yul\":11254:11258   */\n      0x00\n        /* \"#utility.yul\":11292:11294   */\n      0x20\n        /* \"#utility.yul\":11281:11290   */\n      dup3\n        /* \"#utility.yul\":11277:11295   */\n      add\n        /* \"#utility.yul\":11269:11295   */\n      swap1\n      pop\n        /* \"#utility.yul\":11341:11350   */\n      dup2\n        /* \"#utility.yul\":11335:11339   */\n      dup2\n        /* \"#utility.yul\":11331:11351   */\n      sub\n        /* \"#utility.yul\":11327:11328   */\n      0x00\n        /* \"#utility.yul\":11316:11325   */\n      dup4\n        /* \"#utility.yul\":11312:11329   */\n      add\n        /* \"#utility.yul\":11305:11352   */\n      mstore\n        /* \"#utility.yul\":11369:11500   */\n      tag_354\n        /* \"#utility.yul\":11495:11499   */\n      dup2\n        /* \"#utility.yul\":11369:11500   */\n      tag_291\n      jump\t// in\n    tag_354:\n        /* \"#utility.yul\":11361:11500   */\n      swap1\n      pop\n        /* \"#utility.yul\":11088:11507   */\n      swap2\n      swap1\n      pop\n      jump\t// out\n        /* \"#utility.yul\":11513:11932   */\n    tag_117:\n        /* \"#utility.yul\":11679:11683   */\n      0x00\n        /* \"#utility.yul\":11717:11719   */\n      0x20\n        /* \"#utility.yul\":11706:11715   */\n      dup3\n        /* \"#utility.yul\":11702:11720   */\n      add\n        /* \"#utility.yul\":11694:11720   */\n      swap1\n      pop\n        /* \"#utility.yul\":11766:11775   */\n      dup2\n        /* \"#utility.yul\":11760:11764   */\n      dup2\n        /* \"#utility.yul\":11756:11776   */\n      sub\n        /* \"#utility.yul\":11752:11753   */\n      0x00\n        /* \"#utility.yul\":11741:11750   */\n      dup4\n        /* \"#utility.yul\":11737:11754   */\n      add\n        /* \"#utility.yul\":11730:11777   */\n      mstore\n        /* \"#utility.yul\":11794:11925   */\n      tag_356\n        /* \"#utility.yul\":11920:11924   */\n      dup2\n        /* \"#utility.yul\":11794:11925   */\n      tag_296\n      jump\t// in\n    tag_356:\n        /* \"#utility.yul\":11786:11925   */\n      swap1\n      pop\n        /* \"#utility.yul\":11513:11932   */\n      swap2\n      swap1\n      pop\n      jump\t// out\n        /* \"#utility.yul\":11938:12357   */\n    tag_198:\n        /* \"#utility.yul\":12104:12108   */\n      0x00\n        /* \"#utility.yul\":12142:12144   */\n      0x20\n        /* \"#utility.yul\":12131:12140   */\n      dup3\n        /* \"#utility.yul\":12127:12145   */\n      add\n        /* \"#utility.yul\":12119:12145   */\n      swap1\n      pop\n        /* \"#utility.yul\":12191:12200   */\n      dup2\n        /* \"#utility.yul\":12185:12189   */\n      dup2\n        /* \"#utility.yul\":12181:12201   */\n      sub\n        /* \"#utility.yul\":12177:12178   */\n      0x00\n        /* \"#utility.yul\":12166:12175   */\n      dup4\n        /* \"#utility.yul\":12162:12179   */\n      add\n        /* \"#utility.yul\":12155:12202   */\n      mstore\n        /* \"#utility.yul\":12219:12350   */\n      tag_358\n        /* \"#utility.yul\":12345:12349   */\n      dup2\n        /* \"#utility.yul\":12219:12350   */\n      tag_301\n      jump\t// in\n    tag_358:\n        /* \"#utility.yul\":12211:12350   */\n      swap1\n      pop\n        /* \"#utility.yul\":11938:12357   */\n      swap2\n      swap1\n      pop\n      jump\t// out\n        /* \"#utility.yul\":12363:12782   */\n    tag_173:\n        /* \"#utility.yul\":12529:12533   */\n      0x00\n        /* \"#utility.yul\":12567:12569   */\n      0x20\n        /* \"#utility.yul\":12556:12565   */\n      dup3\n        /* \"#utility.yul\":12552:12570   */\n      add\n        /* \"#utility.yul\":12544:12570   */\n      swap1\n      pop\n        /* \"#utility.yul\":12616:12625   */\n      dup2\n        /* \"#utility.yul\":12610:12614   */\n      dup2\n        /* \"#utility.yul\":12606:12626   */\n      sub\n        /* \"#utility.yul\":12602:12603   */\n      0x00\n        /* \"#utility.yul\":12591:12600   */\n      dup4\n        /* \"#utility.yul\":12587:12604   */\n      add\n        /* \"#utility.yul\":12580:12627   */\n      mstore\n        /* \"#utility.yul\":12644:12775   */\n      tag_360\n        /* \"#utility.yul\":12770:12774   */\n      dup2\n        /* \"#utility.yul\":12644:12775   */\n      tag_306\n      jump\t// in\n    tag_360:\n        /* \"#utility.yul\":12636:12775   */\n      swap1\n      pop\n        /* \"#utility.yul\":12363:12782   */\n      swap2\n      swap1\n      pop\n      jump\t// out\n        /* \"#utility.yul\":12788:13207   */\n    tag_158:\n        /* \"#utility.yul\":12954:12958   */\n      0x00\n        /* \"#utility.yul\":12992:12994   */\n      0x20\n        /* \"#utility.yul\":12981:12990   */\n      dup3\n        /* \"#utility.yul\":12977:12995   */\n      add\n        /* \"#utility.yul\":12969:12995   */\n      swap1\n      pop\n        /* \"#utility.yul\":13041:13050   */\n      dup2\n        /* \"#utility.yul\":13035:13039   */\n      dup2\n        /* \"#utility.yul\":13031:13051   */\n      sub\n        /* \"#utility.yul\":13027:13028   */\n      0x00\n        /* \"#utility.yul\":13016:13025   */\n      dup4\n        /* \"#utility.yul\":13012:13029   */\n      add\n        /* \"#utility.yul\":13005:13052   */\n      mstore\n        /* \"#utility.yul\":13069:13200   */\n      tag_362\n        /* \"#utility.yul\":13195:13199   */\n      dup2\n        /* \"#utility.yul\":13069:13200   */\n      tag_311\n      jump\t// in\n    tag_362:\n        /* \"#utility.yul\":13061:13200   */\n      swap1\n      pop\n        /* \"#utility.yul\":12788:13207   */\n      swap2\n      swap1\n      pop\n      jump\t// out\n        /* \"#utility.yul\":13213:13632   */\n    tag_153:\n        /* \"#utility.yul\":13379:13383   */\n      0x00\n        /* \"#utility.yul\":13417:13419   */\n      0x20\n        /* \"#utility.yul\":13406:13415   */\n      dup3\n        /* \"#utility.yul\":13402:13420   */\n      add\n        /* \"#utility.yul\":13394:13420   */\n      swap1\n      pop\n        /* \"#utility.yul\":13466:13475   */\n      dup2\n        /* \"#utility.yul\":13460:13464   */\n      dup2\n        /* \"#utility.yul\":13456:13476   */\n      sub\n        /* \"#utility.yul\":13452:13453   */\n      0x00\n        /* \"#utility.yul\":13441:13450   */\n      dup4\n        /* \"#utility.yul\":13437:13454   */\n      add\n        /* \"#utility.yul\":13430:13477   */\n      mstore\n        /* \"#utility.yul\":13494:13625   */\n      tag_364\n        /* \"#utility.yul\":13620:13624   */\n      dup2\n        /* \"#utility.yul\":13494:13625   */\n      tag_316\n      jump\t// in\n    tag_364:\n        /* \"#utility.yul\":13486:13625   */\n      swap1\n      pop\n        /* \"#utility.yul\":13213:13632   */\n      swap2\n      swap1\n      pop\n      jump\t// out\n        /* \"#utility.yul\":13638:14057   */\n    tag_144:\n        /* \"#utility.yul\":13804:13808   */\n      0x00\n        /* \"#utility.yul\":13842:13844   */\n      0x20\n        /* \"#utility.yul\":13831:13840   */\n      dup3\n        /* \"#utility.yul\":13827:13845   */\n      add\n        /* \"#utility.yul\":13819:13845   */\n      swap1\n      pop\n        /* \"#utility.yul\":13891:13900   */\n      dup2\n        /* \"#utility.yul\":13885:13889   */\n      dup2\n        /* \"#utility.yul\":13881:13901   */\n      sub\n        /* \"#utility.yul\":13877:13878   */\n      0x00\n        /* \"#utility.yul\":13866:13875   */\n      dup4\n        /* \"#utility.yul\":13862:13879   */\n      add\n        /* \"#utility.yul\":13855:13902   */\n      mstore\n        /* \"#utility.yul\":13919:14050   */\n      tag_366\n        /* \"#utility.yul\":14045:14049   */\n      dup2\n        /* \"#utility.yul\":13919:14050   */\n      tag_321\n      jump\t// in\n    tag_366:\n        /* \"#utility.yul\":13911:14050   */\n      swap1\n      pop\n        /* \"#utility.yul\":13638:14057   */\n      swap2\n      swap1\n      pop\n      jump\t// out\n        /* \"#utility.yul\":14063:14482   */\n    tag_189:\n        /* \"#utility.yul\":14229:14233   */\n      0x00\n        /* \"#utility.yul\":14267:14269   */\n      0x20\n        /* \"#utility.yul\":14256:14265   */\n      dup3\n        /* \"#utility.yul\":14252:14270   */\n      add\n        /* \"#utility.yul\":14244:14270   */\n      swap1\n      pop\n        /* \"#utility.yul\":14316:14325   */\n      dup2\n        /* \"#utility.yul\":14310:14314   */\n      dup2\n        /* \"#utility.yul\":14306:14326   */\n      sub\n        /* \"#utility.yul\":14302:14303   */\n      0x00\n        /* \"#utility.yul\":14291:14300   */\n      dup4\n        /* \"#utility.yul\":14287:14304   */\n      add\n        /* \"#utility.yul\":14280:14327   */\n      mstore\n        /* \"#utility.yul\":14344:14475   */\n      tag_368\n        /* \"#utility.yul\":14470:14474   */\n      dup2\n        /* \"#utility.yul\":14344:14475   */\n      tag_326\n      jump\t// in\n    tag_368:\n        /* \"#utility.yul\":14336:14475   */\n      swap1\n      pop\n        /* \"#utility.yul\":14063:14482   */\n      swap2\n      swap1\n      pop\n      jump\t// out\n        /* \"#utility.yul\":14488:14710   */\n    tag_36:\n        /* \"#utility.yul\":14581:14585   */\n      0x00\n        /* \"#utility.yul\":14619:14621   */\n      0x20\n        /* \"#utility.yul\":14608:14617   */\n      dup3\n        /* \"#utility.yul\":14604:14622   */\n      add\n        /* \"#utility.yul\":14596:14622   */\n      swap1\n      pop\n        /* \"#utility.yul\":14632:14703   */\n      tag_370\n        /* \"#utility.yul\":14700:14701   */\n      0x00\n        /* \"#utility.yul\":14689:14698   */\n      dup4\n        /* \"#utility.yul\":14685:14702   */\n      add\n        /* \"#utility.yul\":14676:14682   */\n      dup5\n        /* \"#utility.yul\":14632:14703   */\n      tag_331\n      jump\t// in\n    tag_370:\n        /* \"#utility.yul\":14488:14710   */\n      swap3\n      swap2\n      pop\n      pop\n      jump\t// out\n        /* \"#utility.yul\":14716:14930   */\n    tag_49:\n        /* \"#utility.yul\":14805:14809   */\n      0x00\n        /* \"#utility.yul\":14843:14845   */\n      0x20\n        /* \"#utility.yul\":14832:14841   */\n      dup3\n        /* \"#utility.yul\":14828:14846   */\n      add\n        /* \"#utility.yul\":14820:14846   */\n      swap1\n      pop\n        /* \"#utility.yul\":14856:14923   */\n      tag_372\n        /* \"#utility.yul\":14920:14921   */\n      0x00\n        /* \"#utility.yul\":14909:14918   */\n      dup4\n        /* \"#utility.yul\":14905:14922   */\n      add\n        /* \"#utility.yul\":14896:14902   */\n      dup5\n        /* \"#utility.yul\":14856:14923   */\n      tag_335\n      jump\t// in\n    tag_372:\n        /* \"#utility.yul\":14716:14930   */\n      swap3\n      swap2\n      pop\n      pop\n      jump\t// out\n        /* \"#utility.yul\":15017:15116   */\n    tag_264:\n        /* \"#utility.yul\":15069:15075   */\n      0x00\n        /* \"#utility.yul\":15103:15108   */\n      dup2\n        /* \"#utility.yul\":15097:15109   */\n      mload\n        /* \"#utility.yul\":15087:15109   */\n      swap1\n      pop\n        /* \"#utility.yul\":15017:15116   */\n      swap2\n      swap1\n      pop\n      jump\t// out\n        /* \"#utility.yul\":15122:15291   */\n    tag_266:\n        /* \"#utility.yul\":15206:15217   */\n      0x00\n        /* \"#utility.yul\":15240:15246   */\n      dup3\n        /* \"#utility.yul\":15235:15238   */\n      dup3\n        /* \"#utility.yul\":15228:15247   */\n      mstore\n        /* \"#utility.yul\":15280:15284   */\n      0x20\n        /* \"#utility.yul\":15275:15278   */\n      dup3\n        /* \"#utility.yul\":15271:15285   */\n      add\n        /* \"#utility.yul\":15256:15285   */\n      swap1\n      pop\n        /* \"#utility.yul\":15122:15291   */\n      swap3\n      swap2\n      pop\n      pop\n      jump\t// out\n        /* \"#utility.yul\":15297:15602   */\n    tag_124:\n        /* \"#utility.yul\":15337:15340   */\n      0x00\n        /* \"#utility.yul\":15356:15376   */\n      tag_378\n        /* \"#utility.yul\":15374:15375   */\n      dup3\n        /* \"#utility.yul\":15356:15376   */\n      tag_334\n      jump\t// in\n    tag_378:\n        /* \"#utility.yul\":15351:15376   */\n      swap2\n      pop\n        /* \"#utility.yul\":15390:15410   */\n      tag_379\n        /* \"#utility.yul\":15408:15409   */\n      dup4\n        /* \"#utility.yul\":15390:15410   */\n      tag_334\n      jump\t// in\n    tag_379:\n        /* \"#utility.yul\":15385:15410   */\n      swap3\n      pop\n        /* \"#utility.yul\":15544:15545   */\n      dup3\n        /* \"#utility.yul\":15476:15542   */\n      0xffffffffffffffffffffffffffffffffffffffffffffffffffffffffffffffff\n        /* \"#utility.yul\":15472:15546   */\n      sub\n        /* \"#utility.yul\":15469:15470   */\n      dup3\n        /* \"#utility.yul\":15466:15547   */\n      gt\n        /* \"#utility.yul\":15463:15570   */\n      iszero\n      tag_380\n      jumpi\n        /* \"#utility.yul\":15550:15568   */\n      tag_381\n      tag_382\n      jump\t// in\n    tag_381:\n        /* \"#utility.yul\":15463:15570   */\n    tag_380:\n        /* \"#utility.yul\":15594:15595   */\n      dup3\n        /* \"#utility.yul\":15591:15592   */\n      dup3\n        /* \"#utility.yul\":15587:15596   */\n      add\n        /* \"#utility.yul\":15580:15596   */\n      swap1\n      pop\n        /* \"#utility.yul\":15297:15602   */\n      swap3\n      swap2\n      pop\n      pop\n      jump\t// out\n        /* \"#utility.yul\":15608:15799   */\n    tag_204:\n        /* \"#utility.yul\":15648:15652   */\n      0x00\n        /* \"#utility.yul\":15668:15688   */\n      tag_384\n        /* \"#utility.yul\":15686:15687   */\n      dup3\n        /* \"#utility.yul\":15668:15688   */\n      tag_334\n      jump\t// in\n    tag_384:\n        /* \"#utility.yul\":15663:15688   */\n      swap2\n      pop\n        /* \"#utility.yul\":15702:15722   */\n      tag_385\n        /* \"#utility.yul\":15720:15721   */\n      dup4\n        /* \"#utility.yul\":15702:15722   */\n      tag_334\n      jump\t// in\n    tag_385:\n        /* \"#utility.yul\":15697:15722   */\n      swap3\n      pop\n        /* \"#utility.yul\":15741:15742   */\n      dup3\n        /* \"#utility.yul\":15738:15739   */\n      dup3\n        /* \"#utility.yul\":15735:15743   */\n      lt\n        /* \"#utility.yul\":15732:15766   */\n      iszero\n      tag_386\n      jumpi\n        /* \"#utility.yul\":15746:15764   */\n      tag_387\n      tag_382\n      jump\t// in\n    tag_387:\n        /* \"#utility.yul\":15732:15766   */\n    tag_386:\n        /* \"#utility.yul\":15791:15792   */\n      dup3\n        /* \"#utility.yul\":15788:15789   */\n      dup3\n        /* \"#utility.yul\":15784:15793   */\n      sub\n        /* \"#utility.yul\":15776:15793   */\n      swap1\n      pop\n        /* \"#utility.yul\":15608:15799   */\n      swap3\n      swap2\n      pop\n      pop\n      jump\t// out\n        /* \"#utility.yul\":15805:15901   */\n    tag_256:\n        /* \"#utility.yul\":15842:15849   */\n      0x00\n        /* \"#utility.yul\":15871:15895   */\n      tag_389\n        /* \"#utility.yul\":15889:15894   */\n      dup3\n        /* \"#utility.yul\":15871:15895   */\n      tag_390\n      jump\t// in\n    tag_389:\n        /* \"#utility.yul\":15860:15895   */\n      swap1\n      pop\n        /* \"#utility.yul\":15805:15901   */\n      swap2\n      swap1\n      pop\n      jump\t// out\n        /* \"#utility.yul\":15907:15997   */\n    tag_260:\n        /* \"#utility.yul\":15941:15948   */\n      0x00\n        /* \"#utility.yul\":15984:15989   */\n      dup2\n        /* \"#utility.yul\":15977:15990   */\n      iszero\n        /* \"#utility.yul\":15970:15991   */\n      iszero\n        /* \"#utility.yul\":15959:15991   */\n      swap1\n      pop\n        /* \"#utility.yul\":15907:15997   */\n      swap2\n      swap1\n      pop\n      jump\t// out\n        /* \"#utility.yul\":16003:16129   */\n    tag_390:\n        /* \"#utility.yul\":16040:16047   */\n      0x00\n        /* \"#utility.yul\":16080:16122   */\n      0xffffffffffffffffffffffffffffffffffffffff\n        /* \"#utility.yul\":16073:16078   */\n      dup3\n        /* \"#utility.yul\":16069:16123   */\n      and\n        /* \"#utility.yul\":16058:16123   */\n      swap1\n      pop\n        /* \"#utility.yul\":16003:16129   */\n      swap2\n      swap1\n      pop\n      jump\t// out\n        /* \"#utility.yul\":16135:16212   */\n    tag_334:\n        /* \"#utility.yul\":16172:16179   */\n      0x00\n        /* \"#utility.yul\":16201:16206   */\n      dup2\n        /* \"#utility.yul\":16190:16206   */\n      swap1\n      pop\n        /* \"#utility.yul\":16135:16212   */\n      swap2\n      swap1\n      pop\n      jump\t// out\n        /* \"#utility.yul\":16218:16304   */\n    tag_338:\n        /* \"#utility.yul\":16253:16260   */\n      0x00\n        /* \"#utility.yul\":16293:16297   */\n      0xff\n        /* \"#utility.yul\":16286:16291   */\n      dup3\n        /* \"#utility.yul\":16282:16298   */\n      and\n        /* \"#utility.yul\":16271:16298   */\n      swap1\n      pop\n        /* \"#utility.yul\":16218:16304   */\n      swap2\n      swap1\n      pop\n      jump\t// out\n        /* \"#utility.yul\":16310:16617   */\n    tag_268:\n        /* \"#utility.yul\":16378:16379   */\n      0x00\n        /* \"#utility.yul\":16388:16501   */\n    tag_396:\n        /* \"#utility.yul\":16402:16408   */\n      dup4\n        /* \"#utility.yul\":16399:16400   */\n      dup2\n        /* \"#utility.yul\":16396:16409   */\n      lt\n        /* \"#utility.yul\":16388:16501   */\n      iszero\n      tag_398\n      jumpi\n        /* \"#utility.yul\":16487:16488   */\n      dup1\n        /* \"#utility.yul\":16482:16485   */\n      dup3\n        /* \"#utility.yul\":16478:16489   */\n      add\n        /* \"#utility.yul\":16472:16490   */\n      mload\n        /* \"#utility.yul\":16468:16469   */\n      dup2\n        /* \"#utility.yul\":16463:16466   */\n      dup5\n        /* \"#utility.yul\":16459:16470   */\n      add\n        /* \"#utility.yul\":16452:16491   */\n      mstore\n        /* \"#utility.yul\":16424:16426   */\n      0x20\n        /* \"#utility.yul\":16421:16422   */\n      dup2\n        /* \"#utility.yul\":16417:16427   */\n      add\n        /* \"#utility.yul\":16412:16427   */\n      swap1\n      pop\n        /* \"#utility.yul\":16388:16501   */\n      jump(tag_396)\n    tag_398:\n        /* \"#utility.yul\":16519:16525   */\n      dup4\n        /* \"#utility.yul\":16516:16517   */\n      dup2\n        /* \"#utility.yul\":16513:16526   */\n      gt\n        /* \"#utility.yul\":16510:16611   */\n      iszero\n      tag_399\n      jumpi\n        /* \"#utility.yul\":16599:16600   */\n      0x00\n        /* \"#utility.yul\":16590:16596   */\n      dup5\n        /* \"#utility.yul\":16585:16588   */\n      dup5\n        /* \"#utility.yul\":16581:16597   */\n      add\n        /* \"#utility.yul\":16574:16601   */\n      mstore\n        /* \"#utility.yul\":16510:16611   */\n    tag_399:\n        /* \"#utility.yul\":16359:16617   */\n      pop\n        /* \"#utility.yul\":16310:16617   */\n      pop\n      pop\n      pop\n      jump\t// out\n        /* \"#utility.yul\":16623:16943   */\n    tag_97:\n        /* \"#utility.yul\":16667:16673   */\n      0x00\n        /* \"#utility.yul\":16704:16705   */\n      0x02\n        /* \"#utility.yul\":16698:16702   */\n      dup3\n        /* \"#utility.yul\":16694:16706   */\n      div\n        /* \"#utility.yul\":16684:16706   */\n      swap1\n      pop\n        /* \"#utility.yul\":16751:16752   */\n      0x01\n        /* \"#utility.yul\":16745:16749   */\n      dup3\n        /* \"#utility.yul\":16741:16753   */\n      and\n        /* \"#utility.yul\":16772:16790   */\n      dup1\n        /* \"#utility.yul\":16762:16843   */\n      tag_401\n      jumpi\n        /* \"#utility.yul\":16828:16832   */\n      0x7f\n        /* \"#utility.yul\":16820:16826   */\n      dup3\n        /* \"#utility.yul\":16816:16833   */\n      and\n        /* \"#utility.yul\":16806:16833   */\n      swap2\n      pop\n        /* \"#utility.yul\":16762:16843   */\n    tag_401:\n        /* \"#utility.yul\":16890:16892   */\n      0x20\n        /* \"#utility.yul\":16882:16888   */\n      dup3\n        /* \"#utility.yul\":16879:16893   */\n      lt\n        /* \"#utility.yul\":16859:16877   */\n      dup2\n        /* \"#utility.yul\":16856:16894   */\n      eq\n        /* \"#utility.yul\":16853:16937   */\n      iszero\n      tag_402\n      jumpi\n        /* \"#utility.yul\":16909:16927   */\n      tag_403\n      tag_404\n      jump\t// in\n    tag_403:\n        /* \"#utility.yul\":16853:16937   */\n    tag_402:\n        /* \"#utility.yul\":16674:16943   */\n      pop\n        /* \"#utility.yul\":16623:16943   */\n      swap2\n      swap1\n      pop\n      jump\t// out\n        /* \"#utility.yul\":16949:17129   */\n    tag_382:\n        /* \"#utility.yul\":16997:17074   */\n      0x4e487b7100000000000000000000000000000000000000000000000000000000\n        /* \"#utility.yul\":16994:16995   */\n      0x00\n        /* \"#utility.yul\":16987:17075   */\n      mstore\n        /* \"#utility.yul\":17094:17098   */\n      0x11\n        /* \"#utility.yul\":17091:17092   */\n      0x04\n        /* \"#utility.yul\":17084:17099   */\n      mstore\n        /* \"#utility.yul\":17118:17122   */\n      0x24\n        /* \"#utility.yul\":17115:17116   */\n      0x00\n        /* \"#utility.yul\":17108:17123   */\n      revert\n        /* \"#utility.yul\":17135:17315   */\n    tag_404:\n        /* \"#utility.yul\":17183:17260   */\n      0x4e487b7100000000000000000000000000000000000000000000000000000000\n        /* \"#utility.yul\":17180:17181   */\n      0x00\n        /* \"#utility.yul\":17173:17261   */\n      mstore\n        /* \"#utility.yul\":17280:17284   */\n      0x22\n        /* \"#utility.yul\":17277:17278   */\n      0x04\n        /* \"#utility.yul\":17270:17285   */\n      mstore\n        /* \"#utility.yul\":17304:17308   */\n      0x24\n        /* \"#utility.yul\":17301:17302   */\n      0x00\n        /* \"#utility.yul\":17294:17309   */\n      revert\n        /* \"#utility.yul\":17444:17561   */\n    tag_225:\n        /* \"#utility.yul\":17553:17554   */\n      0x00\n        /* \"#utility.yul\":17550:17551   */\n      dup1\n        /* \"#utility.yul\":17543:17555   */\n      revert\n        /* \"#utility.yul\":17567:17669   */\n    tag_270:\n        /* \"#utility.yul\":17608:17614   */\n      0x00\n        /* \"#utility.yul\":17659:17661   */\n      0x1f\n        /* \"#utility.yul\":17655:17662   */\n      not\n        /* \"#utility.yul\":17650:17652   */\n      0x1f\n        /* \"#utility.yul\":17643:17648   */\n      dup4\n        /* \"#utility.yul\":17639:17653   */\n      add\n        /* \"#utility.yul\":17635:17663   */\n      and\n        /* \"#utility.yul\":17625:17663   */\n      swap1\n      pop\n        /* \"#utility.yul\":17567:17669   */\n      swap2\n      swap1\n      pop\n      jump\t// out\n        /* \"#utility.yul\":17675:17897   */\n    tag_275:\n        /* \"#utility.yul\":17815:17849   */\n      0x45524332303a207472616e7366657220746f20746865207a65726f2061646472\n        /* \"#utility.yul\":17811:17812   */\n      0x00\n        /* \"#utility.yul\":17803:17809   */\n      dup3\n        /* \"#utility.yul\":17799:17813   */\n      add\n        /* \"#utility.yul\":17792:17850   */\n      mstore\n        /* \"#utility.yul\":17884:17889   */\n      0x6573730000000000000000000000000000000000000000000000000000000000\n        /* \"#utility.yul\":17879:17881   */\n      0x20\n        /* \"#utility.yul\":17871:17877   */\n      dup3\n        /* \"#utility.yul\":17867:17882   */\n      add\n        /* \"#utility.yul\":17860:17890   */\n      mstore\n        /* \"#utility.yul\":17675:17897   */\n      pop\n      jump\t// out\n        /* \"#utility.yul\":17903:18124   */\n    tag_280:\n        /* \"#utility.yul\":18043:18077   */\n      0x45524332303a206275726e20616d6f756e7420657863656564732062616c616e\n        /* \"#utility.yul\":18039:18040   */\n      0x00\n        /* \"#utility.yul\":18031:18037   */\n      dup3\n        /* \"#utility.yul\":18027:18041   */\n      add\n        /* \"#utility.yul\":18020:18078   */\n      mstore\n        /* \"#utility.yul\":18112:18116   */\n      0x6365000000000000000000000000000000000000000000000000000000000000\n        /* \"#utility.yul\":18107:18109   */\n      0x20\n        /* \"#utility.yul\":18099:18105   */\n      dup3\n        /* \"#utility.yul\":18095:18110   */\n      add\n        /* \"#utility.yul\":18088:18117   */\n      mstore\n        /* \"#utility.yul\":17903:18124   */\n      pop\n      jump\t// out\n        /* \"#utility.yul\":18130:18351   */\n    tag_285:\n        /* \"#utility.yul\":18270:18304   */\n      0x45524332303a20617070726f766520746f20746865207a65726f206164647265\n        /* \"#utility.yul\":18266:18267   */\n      0x00\n        /* \"#utility.yul\":18258:18264   */\n      dup3\n        /* \"#utility.yul\":18254:18268   */\n      add\n        /* \"#utility.yul\":18247:18305   */\n      mstore\n        /* \"#utility.yul\":18339:18343   */\n      0x7373000000000000000000000000000000000000000000000000000000000000\n        /* \"#utility.yul\":18334:18336   */\n      0x20\n        /* \"#utility.yul\":18326:18332   */\n      dup3\n        /* \"#utility.yul\":18322:18337   */\n      add\n        /* \"#utility.yul\":18315:18344   */\n      mstore\n        /* \"#utility.yul\":18130:18351   */\n      pop\n      jump\t// out\n        /* \"#utility.yul\":18357:18536   */\n    tag_290:\n        /* \"#utility.yul\":18497:18528   */\n      0x45524332303a20696e73756666696369656e7420616c6c6f77616e6365000000\n        /* \"#utility.yul\":18493:18494   */\n      0x00\n        /* \"#utility.yul\":18485:18491   */\n      dup3\n        /* \"#utility.yul\":18481:18495   */\n      add\n        /* \"#utility.yul\":18474:18529   */\n      mstore\n        /* \"#utility.yul\":18357:18536   */\n      pop\n      jump\t// out\n        /* \"#utility.yul\":18542:18767   */\n    tag_295:\n        /* \"#utility.yul\":18682:18716   */\n      0x45524332303a207472616e7366657220616d6f756e7420657863656564732062\n        /* \"#utility.yul\":18678:18679   */\n      0x00\n        /* \"#utility.yul\":18670:18676   */\n      dup3\n        /* \"#utility.yul\":18666:18680   */\n      add\n        /* \"#utility.yul\":18659:18717   */\n      mstore\n        /* \"#utility.yul\":18751:18759   */\n      0x616c616e63650000000000000000000000000000000000000000000000000000\n        /* \"#utility.yul\":18746:18748   */\n      0x20\n        /* \"#utility.yul\":18738:18744   */\n      dup3\n        /* \"#utility.yul\":18734:18749   */\n      add\n        /* \"#utility.yul\":18727:18760   */\n      mstore\n        /* \"#utility.yul\":18542:18767   */\n      pop\n      jump\t// out\n        /* \"#utility.yul\":18773:18952   */\n    tag_300:\n        /* \"#utility.yul\":18913:18944   */\n      0x4f6e6c792061646d696e2063616e206368616e67652061646472657373000000\n        /* \"#utility.yul\":18909:18910   */\n      0x00\n        /* \"#utility.yul\":18901:18907   */\n      dup3\n        /* \"#utility.yul\":18897:18911   */\n      add\n        /* \"#utility.yul\":18890:18945   */\n      mstore\n        /* \"#utility.yul\":18773:18952   */\n      pop\n      jump\t// out\n        /* \"#utility.yul\":18958:19178   */\n    tag_305:\n        /* \"#utility.yul\":19098:19132   */\n      0x45524332303a206275726e2066726f6d20746865207a65726f20616464726573\n        /* \"#utility.yul\":19094:19095   */\n      0x00\n        /* \"#utility.yul\":19086:19092   */\n      dup3\n        /* \"#utility.yul\":19082:19096   */\n      add\n        /* \"#utility.yul\":19075:19133   */\n      mstore\n        /* \"#utility.yul\":19167:19170   */\n      0x7300000000000000000000000000000000000000000000000000000000000000\n        /* \"#utility.yul\":19162:19164   */\n      0x20\n        /* \"#utility.yul\":19154:19160   */\n      dup3\n        /* \"#utility.yul\":19150:19165   */\n      add\n        /* \"#utility.yul\":19143:19171   */\n      mstore\n        /* \"#utility.yul\":18958:19178   */\n      pop\n      jump\t// out\n        /* \"#utility.yul\":19184:19408   */\n    tag_310:\n        /* \"#utility.yul\":19324:19358   */\n      0x45524332303a207472616e736665722066726f6d20746865207a65726f206164\n        /* \"#utility.yul\":19320:19321   */\n      0x00\n        /* \"#utility.yul\":19312:19318   */\n      dup3\n        /* \"#utility.yul\":19308:19322   */\n      add\n        /* \"#utility.yul\":19301:19359   */\n      mstore\n        /* \"#utility.yul\":19393:19400   */\n      0x6472657373000000000000000000000000000000000000000000000000000000\n        /* \"#utility.yul\":19388:19390   */\n      0x20\n        /* \"#utility.yul\":19380:19386   */\n      dup3\n        /* \"#utility.yul\":19376:19391   */\n      add\n        /* \"#utility.yul\":19369:19401   */\n      mstore\n        /* \"#utility.yul\":19184:19408   */\n      pop\n      jump\t// out\n        /* \"#utility.yul\":19414:19637   */\n    tag_315:\n        /* \"#utility.yul\":19554:19588   */\n      0x45524332303a20617070726f76652066726f6d20746865207a65726f20616464\n        /* \"#utility.yul\":19550:19551   */\n      0x00\n        /* \"#utility.yul\":19542:19548   */\n      dup3\n        /* \"#utility.yul\":19538:19552   */\n      add\n        /* \"#utility.yul\":19531:19589   */\n      mstore\n        /* \"#utility.yul\":19623:19629   */\n      0x7265737300000000000000000000000000000000000000000000000000000000\n        /* \"#utility.yul\":19618:19620   */\n      0x20\n        /* \"#utility.yul\":19610:19616   */\n      dup3\n        /* \"#utility.yul\":19606:19621   */\n      add\n        /* \"#utility.yul\":19599:19630   */\n      mstore\n        /* \"#utility.yul\":19414:19637   */\n      pop\n      jump\t// out\n        /* \"#utility.yul\":19643:19868   */\n    tag_320:\n        /* \"#utility.yul\":19783:19817   */\n      0x4f6e6c79207468652061646d696e2063616e20757064617465206d61726b6574\n        /* \"#utility.yul\":19779:19780   */\n      0x00\n        /* \"#utility.yul\":19771:19777   */\n      dup3\n        /* \"#utility.yul\":19767:19781   */\n      add\n        /* \"#utility.yul\":19760:19818   */\n      mstore\n        /* \"#utility.yul\":19852:19860   */\n      0x706c616365730000000000000000000000000000000000000000000000000000\n        /* \"#utility.yul\":19847:19849   */\n      0x20\n        /* \"#utility.yul\":19839:19845   */\n      dup3\n        /* \"#utility.yul\":19835:19850   */\n      add\n        /* \"#utility.yul\":19828:19861   */\n      mstore\n        /* \"#utility.yul\":19643:19868   */\n      pop\n      jump\t// out\n        /* \"#utility.yul\":19874:20098   */\n    tag_325:\n        /* \"#utility.yul\":20014:20048   */\n      0x45524332303a2064656372656173656420616c6c6f77616e63652062656c6f77\n        /* \"#utility.yul\":20010:20011   */\n      0x00\n        /* \"#utility.yul\":20002:20008   */\n      dup3\n        /* \"#utility.yul\":19998:20012   */\n      add\n        /* \"#utility.yul\":19991:20049   */\n      mstore\n        /* \"#utility.yul\":20083:20090   */\n      0x207a65726f000000000000000000000000000000000000000000000000000000\n        /* \"#utility.yul\":20078:20080   */\n      0x20\n        /* \"#utility.yul\":20070:20076   */\n      dup3\n        /* \"#utility.yul\":20066:20081   */\n      add\n        /* \"#utility.yul\":20059:20091   */\n      mstore\n        /* \"#utility.yul\":19874:20098   */\n      pop\n      jump\t// out\n        /* \"#utility.yul\":20104:20285   */\n    tag_330:\n        /* \"#utility.yul\":20244:20277   */\n      0x45524332303a206d696e7420746f20746865207a65726f206164647265737300\n        /* \"#utility.yul\":20240:20241   */\n      0x00\n        /* \"#utility.yul\":20232:20238   */\n      dup3\n        /* \"#utility.yul\":20228:20242   */\n      add\n        /* \"#utility.yul\":20221:20278   */\n      mstore\n        /* \"#utility.yul\":20104:20285   */\n      pop\n      jump\t// out\n        /* \"#utility.yul\":20291:20413   */\n    tag_213:\n        /* \"#utility.yul\":20364:20388   */\n      tag_424\n        /* \"#utility.yul\":20382:20387   */\n      dup2\n        /* \"#utility.yul\":20364:20388   */\n      tag_256\n      jump\t// in\n    tag_424:\n        /* \"#utility.yul\":20357:20362   */\n      dup2\n        /* \"#utility.yul\":20354:20389   */\n      eq\n        /* \"#utility.yul\":20344:20407   */\n      tag_425\n      jumpi\n        /* \"#utility.yul\":20403:20404   */\n      0x00\n        /* \"#utility.yul\":20400:20401   */\n      dup1\n        /* \"#utility.yul\":20393:20405   */\n      revert\n        /* \"#utility.yul\":20344:20407   */\n    tag_425:\n        /* \"#utility.yul\":20291:20413   */\n      pop\n      jump\t// out\n        /* \"#utility.yul\":20419:20535   */\n    tag_217:\n        /* \"#utility.yul\":20489:20510   */\n      tag_427\n        /* \"#utility.yul\":20504:20509   */\n      dup2\n        /* \"#utility.yul\":20489:20510   */\n      tag_260\n      jump\t// in\n    tag_427:\n        /* \"#utility.yul\":20482:20487   */\n      dup2\n        /* \"#utility.yul\":20479:20511   */\n      eq\n        /* \"#utility.yul\":20469:20529   */\n      tag_428\n      jumpi\n        /* \"#utility.yul\":20525:20526   */\n      0x00\n        /* \"#utility.yul\":20522:20523   */\n      dup1\n        /* \"#utility.yul\":20515:20527   */\n      revert\n        /* \"#utility.yul\":20469:20529   */\n    tag_428:\n        /* \"#utility.yul\":20419:20535   */\n      pop\n      jump\t// out\n        /* \"#utility.yul\":20541:20663   */\n    tag_221:\n        /* \"#utility.yul\":20614:20638   */\n      tag_430\n        /* \"#utility.yul\":20632:20637   */\n      dup2\n        /* \"#utility.yul\":20614:20638   */\n      tag_334\n      jump\t// in\n    tag_430:\n        /* \"#utility.yul\":20607:20612   */\n      dup2\n        /* \"#utility.yul\":20604:20639   */\n      eq\n        /* \"#utility.yul\":20594:20657   */\n      tag_431\n      jumpi\n        /* \"#utility.yul\":20653:20654   */\n      0x00\n        /* \"#utility.yul\":20650:20651   */\n      dup1\n        /* \"#utility.yul\":20643:20655   */\n      revert\n        /* \"#utility.yul\":20594:20657   */\n    tag_431:\n        /* \"#utility.yul\":20541:20663   */\n      pop\n      jump\t// out\n\n    auxdata: 0xa26469706673582212202e244e34b39006ef2c2c6d01c8413ef799fb1047cc8387123107c4e99827fe8864736f6c63430008070033\n}\n",
				"bytecode": {
					"linkReferences": {},
					"object": "60806040523480156200001157600080fd5b50604051620022933803806200229383398181016040528101906200003791906200037b565b6040518060400160405280600981526020017f4d657461345377617000000000000000000000000000000000000000000000008152506040518060400160405280600381526020017f4d345300000000000000000000000000000000000000000000000000000000008152508160039080519060200190620000bb929190620002b4565b508060049080519060200190620000d4929190620002b4565b505050620000e933826200013160201b60201c565b33600660006101000a81548173ffffffffffffffffffffffffffffffffffffffff021916908373ffffffffffffffffffffffffffffffffffffffff1602179055505062000578565b600073ffffffffffffffffffffffffffffffffffffffff168273ffffffffffffffffffffffffffffffffffffffff161415620001a4576040517f08c379a00000000000000000000000000000000000000000000000000000000081526004016200019b90620003e5565b60405180910390fd5b620001b860008383620002aa60201b60201c565b8060026000828254620001cc919062000435565b92505081905550806000808473ffffffffffffffffffffffffffffffffffffffff1673ffffffffffffffffffffffffffffffffffffffff168152602001908152602001600020600082825462000223919062000435565b925050819055508173ffffffffffffffffffffffffffffffffffffffff16600073ffffffffffffffffffffffffffffffffffffffff167fddf252ad1be2c89b69c2b068fc378daa952ba7f163c4a11628f55a4df523b3ef836040516200028a919062000407565b60405180910390a3620002a660008383620002af60201b60201c565b5050565b505050565b505050565b828054620002c2906200049c565b90600052602060002090601f016020900481019282620002e6576000855562000332565b82601f106200030157805160ff191683800117855562000332565b8280016001018555821562000332579182015b828111156200033157825182559160200191906001019062000314565b5b50905062000341919062000345565b5090565b5b808211156200036057600081600090555060010162000346565b5090565b60008151905062000375816200055e565b92915050565b60006020828403121562000394576200039362000530565b5b6000620003a48482850162000364565b91505092915050565b6000620003bc601f8362000424565b9150620003c98262000535565b602082019050919050565b620003df8162000492565b82525050565b600060208201905081810360008301526200040081620003ad565b9050919050565b60006020820190506200041e6000830184620003d4565b92915050565b600082825260208201905092915050565b6000620004428262000492565b91506200044f8362000492565b9250827fffffffffffffffffffffffffffffffffffffffffffffffffffffffffffffffff03821115620004875762000486620004d2565b5b828201905092915050565b6000819050919050565b60006002820490506001821680620004b557607f821691505b60208210811415620004cc57620004cb62000501565b5b50919050565b7f4e487b7100000000000000000000000000000000000000000000000000000000600052601160045260246000fd5b7f4e487b7100000000000000000000000000000000000000000000000000000000600052602260045260246000fd5b600080fd5b7f45524332303a206d696e7420746f20746865207a65726f206164647265737300600082015250565b620005698162000492565b81146200057557600080fd5b50565b611d0b80620005886000396000f3fe608060405234801561001057600080fd5b506004361061010b5760003560e01c806370a08231116100a2578063a457c2d711610071578063a457c2d7146102f4578063a9059cbb14610324578063dd62ed3e14610354578063efee4a8f14610384578063f851a440146103a05761010b565b806370a082311461024657806395d89b41146102765780639a49090e146102945780639dc29fac146102c45761010b565b80632ab29df7116100de5780632ab29df7146101ac578063313ce567146101c857806339509351146101e65780636a56b359146102165761010b565b806306fdde0314610110578063095ea7b31461012e57806318160ddd1461015e57806323b872dd1461017c575b600080fd5b6101186103be565b60405161012591906115a2565b60405180910390f35b610148600480360381019061014391906112d3565b610450565b6040516101559190611587565b60405180910390f35b610166610473565b6040516101739190611744565b60405180910390f35b61019660048036038101906101919190611240565b61047d565b6040516101a39190611587565b60405180910390f35b6101c660048036038101906101c19190611313565b6104ac565b005b6101d0610581565b6040516101dd919061175f565b60405180910390f35b61020060048036038101906101fb91906112d3565b61058a565b60405161020d9190611587565b60405180910390f35b610230600480360381019061022b91906111d3565b6105c1565b60405161023d9190611587565b60405180910390f35b610260600480360381019061025b91906111d3565b6105e1565b60405161026d9190611744565b60405180910390f35b61027e610629565b60405161028b91906115a2565b60405180910390f35b6102ae60048036038101906102a991906112d3565b6106bb565b6040516102bb9190611587565b60405180910390f35b6102de60048036038101906102d991906112d3565b61072b565b6040516102eb9190611587565b60405180910390f35b61030e600480360381019061030991906112d3565b610741565b60405161031b9190611587565b60405180910390f35b61033e600480360381019061033991906112d3565b6107b8565b60405161034b9190611587565b60405180910390f35b61036e60048036038101906103699190611200565b6107db565b60405161037b9190611744565b60405180910390f35b61039e60048036038101906103999190611293565b610862565b005b6103a861094d565b6040516103b5919061156c565b60405180910390f35b6060600380546103cd906118a8565b80601f01602080910402602001604051908101604052809291908181526020018280546103f9906118a8565b80156104465780601f1061041b57610100808354040283529160200191610446565b820191906000526020600020905b81548152906001019060200180831161042957829003601f168201915b5050505050905090565b60008061045b610973565b905061046881858561097b565b600191505092915050565b6000600254905090565b600080610488610973565b9050610495858285610b46565b6104a0858585610bd2565b60019150509392505050565b600660009054906101000a900473ffffffffffffffffffffffffffffffffffffffff1673ffffffffffffffffffffffffffffffffffffffff163373ffffffffffffffffffffffffffffffffffffffff161461053c576040517f08c379a000000000000000000000000000000000000000000000000000000000815260040161053390611664565b60405180910390fd5b80600660006101000a81548173ffffffffffffffffffffffffffffffffffffffff021916908373ffffffffffffffffffffffffffffffffffffffff1602179055505050565b60006012905090565b600080610595610973565b90506105b68185856105a785896107db565b6105b19190611796565b61097b565b600191505092915050565b60056020528060005260406000206000915054906101000a900460ff1681565b60008060008373ffffffffffffffffffffffffffffffffffffffff1673ffffffffffffffffffffffffffffffffffffffff168152602001908152602001600020549050919050565b606060048054610638906118a8565b80601f0160208091040260200160405190810160405280929190818152602001828054610664906118a8565b80156106b15780601f10610686576101008083540402835291602001916106b1565b820191906000526020600020905b81548152906001019060200180831161069457829003601f168201915b5050505050905090565b600060011515600560003373ffffffffffffffffffffffffffffffffffffffff1673ffffffffffffffffffffffffffffffffffffffff16815260200190815260200160002060009054906101000a900460ff1615151415610721576107208383610e53565b5b6001905092915050565b60006107378383610fb3565b6001905092915050565b60008061074c610973565b9050600061075a82866107db565b90508381101561079f576040517f08c379a000000000000000000000000000000000000000000000000000000000815260040161079690611704565b60405180910390fd5b6107ac828686840361097b565b60019250505092915050565b6000806107c3610973565b90506107d0818585610bd2565b600191505092915050565b6000600160008473ffffffffffffffffffffffffffffffffffffffff1673ffffffffffffffffffffffffffffffffffffffff16815260200190815260200160002060008373ffffffffffffffffffffffffffffffffffffffff1673ffffffffffffffffffffffffffffffffffffffff16815260200190815260200160002054905092915050565b600660009054906101000a900473ffffffffffffffffffffffffffffffffffffffff1673ffffffffffffffffffffffffffffffffffffffff163373ffffffffffffffffffffffffffffffffffffffff16146108f2576040517f08c379a00000000000000000000000000000000000000000000000000000000081526004016108e9906116e4565b60405180910390fd5b80600560008473ffffffffffffffffffffffffffffffffffffffff1673ffffffffffffffffffffffffffffffffffffffff16815260200190815260200160002060006101000a81548160ff0219169083151502179055505050565b600660009054906101000a900473ffffffffffffffffffffffffffffffffffffffff1681565b600033905090565b600073ffffffffffffffffffffffffffffffffffffffff168373ffffffffffffffffffffffffffffffffffffffff1614156109eb576040517f08c379a00000000000000000000000000000000000000000000000000000000081526004016109e2906116c4565b60405180910390fd5b600073ffffffffffffffffffffffffffffffffffffffff168273ffffffffffffffffffffffffffffffffffffffff161415610a5b576040517f08c379a0000000000000000000000000000000000000000000000000000000008152600401610a5290611604565b60405180910390fd5b80600160008573ffffffffffffffffffffffffffffffffffffffff1673ffffffffffffffffffffffffffffffffffffffff16815260200190815260200160002060008473ffffffffffffffffffffffffffffffffffffffff1673ffffffffffffffffffffffffffffffffffffffff168152602001908152602001600020819055508173ffffffffffffffffffffffffffffffffffffffff168373ffffffffffffffffffffffffffffffffffffffff167f8c5be1e5ebec7d5bd14f71427d1e84f3dd0314c0f7b2291e5b200ac8c7c3b92583604051610b399190611744565b60405180910390a3505050565b6000610b5284846107db565b90507fffffffffffffffffffffffffffffffffffffffffffffffffffffffffffffffff8114610bcc5781811015610bbe576040517f08c379a0000000000000000000000000000000000000000000000000000000008152600401610bb590611624565b60405180910390fd5b610bcb848484840361097b565b5b50505050565b600073ffffffffffffffffffffffffffffffffffffffff168373ffffffffffffffffffffffffffffffffffffffff161415610c42576040517f08c379a0000000000000000000000000000000000000000000000000000000008152600401610c39906116a4565b60405180910390fd5b600073ffffffffffffffffffffffffffffffffffffffff168273ffffffffffffffffffffffffffffffffffffffff161415610cb2576040517f08c379a0000000000000000000000000000000000000000000000000000000008152600401610ca9906115c4565b60405180910390fd5b610cbd83838361118a565b60008060008573ffffffffffffffffffffffffffffffffffffffff1673ffffffffffffffffffffffffffffffffffffffff16815260200190815260200160002054905081811015610d43576040517f08c379a0000000000000000000000000000000000000000000000000000000008152600401610d3a90611644565b60405180910390fd5b8181036000808673ffffffffffffffffffffffffffffffffffffffff1673ffffffffffffffffffffffffffffffffffffffff16815260200190815260200160002081905550816000808573ffffffffffffffffffffffffffffffffffffffff1673ffffffffffffffffffffffffffffffffffffffff1681526020019081526020016000206000828254610dd69190611796565b925050819055508273ffffffffffffffffffffffffffffffffffffffff168473ffffffffffffffffffffffffffffffffffffffff167fddf252ad1be2c89b69c2b068fc378daa952ba7f163c4a11628f55a4df523b3ef84604051610e3a9190611744565b60405180910390a3610e4d84848461118f565b50505050565b600073ffffffffffffffffffffffffffffffffffffffff168273ffffffffffffffffffffffffffffffffffffffff161415610ec3576040517f08c379a0000000000000000000000000000000000000000000000000000000008152600401610eba90611724565b60405180910390fd5b610ecf6000838361118a565b8060026000828254610ee19190611796565b92505081905550806000808473ffffffffffffffffffffffffffffffffffffffff1673ffffffffffffffffffffffffffffffffffffffff1681526020019081526020016000206000828254610f369190611796565b925050819055508173ffffffffffffffffffffffffffffffffffffffff16600073ffffffffffffffffffffffffffffffffffffffff167fddf252ad1be2c89b69c2b068fc378daa952ba7f163c4a11628f55a4df523b3ef83604051610f9b9190611744565b60405180910390a3610faf6000838361118f565b5050565b600073ffffffffffffffffffffffffffffffffffffffff168273ffffffffffffffffffffffffffffffffffffffff161415611023576040517f08c379a000000000000000000000000000000000000000000000000000000000815260040161101a90611684565b60405180910390fd5b61102f8260008361118a565b60008060008473ffffffffffffffffffffffffffffffffffffffff1673ffffffffffffffffffffffffffffffffffffffff168152602001908152602001600020549050818110156110b5576040517f08c379a00000000000000000000000000000000000000000000000000000000081526004016110ac906115e4565b60405180910390fd5b8181036000808573ffffffffffffffffffffffffffffffffffffffff1673ffffffffffffffffffffffffffffffffffffffff16815260200190815260200160002081905550816002600082825461110c91906117ec565b92505081905550600073ffffffffffffffffffffffffffffffffffffffff168373ffffffffffffffffffffffffffffffffffffffff167fddf252ad1be2c89b69c2b068fc378daa952ba7f163c4a11628f55a4df523b3ef846040516111719190611744565b60405180910390a36111858360008461118f565b505050565b505050565b505050565b6000813590506111a381611c90565b92915050565b6000813590506111b881611ca7565b92915050565b6000813590506111cd81611cbe565b92915050565b6000602082840312156111e9576111e8611938565b5b60006111f784828501611194565b91505092915050565b6000806040838503121561121757611216611938565b5b600061122585828601611194565b925050602061123685828601611194565b9150509250929050565b60008060006060848603121561125957611258611938565b5b600061126786828701611194565b935050602061127886828701611194565b9250506040611289868287016111be565b9150509250925092565b600080604083850312156112aa576112a9611938565b5b60006112b885828601611194565b92505060206112c9858286016111a9565b9150509250929050565b600080604083850312156112ea576112e9611938565b5b60006112f885828601611194565b9250506020611309858286016111be565b9150509250929050565b6000806040838503121561132a57611329611938565b5b6000611338858286016111be565b925050602061134985828601611194565b9150509250929050565b61135c81611820565b82525050565b61136b81611832565b82525050565b600061137c8261177a565b6113868185611785565b9350611396818560208601611875565b61139f8161193d565b840191505092915050565b60006113b7602383611785565b91506113c28261194e565b604082019050919050565b60006113da602283611785565b91506113e58261199d565b604082019050919050565b60006113fd602283611785565b9150611408826119ec565b604082019050919050565b6000611420601d83611785565b915061142b82611a3b565b602082019050919050565b6000611443602683611785565b915061144e82611a64565b604082019050919050565b6000611466601d83611785565b915061147182611ab3565b602082019050919050565b6000611489602183611785565b915061149482611adc565b604082019050919050565b60006114ac602583611785565b91506114b782611b2b565b604082019050919050565b60006114cf602483611785565b91506114da82611b7a565b604082019050919050565b60006114f2602683611785565b91506114fd82611bc9565b604082019050919050565b6000611515602583611785565b915061152082611c18565b604082019050919050565b6000611538601f83611785565b915061154382611c67565b602082019050919050565b6115578161185e565b82525050565b61156681611868565b82525050565b60006020820190506115816000830184611353565b92915050565b600060208201905061159c6000830184611362565b92915050565b600060208201905081810360008301526115bc8184611371565b905092915050565b600060208201905081810360008301526115dd816113aa565b9050919050565b600060208201905081810360008301526115fd816113cd565b9050919050565b6000602082019050818103600083015261161d816113f0565b9050919050565b6000602082019050818103600083015261163d81611413565b9050919050565b6000602082019050818103600083015261165d81611436565b9050919050565b6000602082019050818103600083015261167d81611459565b9050919050565b6000602082019050818103600083015261169d8161147c565b9050919050565b600060208201905081810360008301526116bd8161149f565b9050919050565b600060208201905081810360008301526116dd816114c2565b9050919050565b600060208201905081810360008301526116fd816114e5565b9050919050565b6000602082019050818103600083015261171d81611508565b9050919050565b6000602082019050818103600083015261173d8161152b565b9050919050565b6000602082019050611759600083018461154e565b92915050565b6000602082019050611774600083018461155d565b92915050565b600081519050919050565b600082825260208201905092915050565b60006117a18261185e565b91506117ac8361185e565b9250827fffffffffffffffffffffffffffffffffffffffffffffffffffffffffffffffff038211156117e1576117e06118da565b5b828201905092915050565b60006117f78261185e565b91506118028361185e565b925082821015611815576118146118da565b5b828203905092915050565b600061182b8261183e565b9050919050565b60008115159050919050565b600073ffffffffffffffffffffffffffffffffffffffff82169050919050565b6000819050919050565b600060ff82169050919050565b60005b83811015611893578082015181840152602081019050611878565b838111156118a2576000848401525b50505050565b600060028204905060018216806118c057607f821691505b602082108114156118d4576118d3611909565b5b50919050565b7f4e487b7100000000000000000000000000000000000000000000000000000000600052601160045260246000fd5b7f4e487b7100000000000000000000000000000000000000000000000000000000600052602260045260246000fd5b600080fd5b6000601f19601f8301169050919050565b7f45524332303a207472616e7366657220746f20746865207a65726f206164647260008201527f6573730000000000000000000000000000000000000000000000000000000000602082015250565b7f45524332303a206275726e20616d6f756e7420657863656564732062616c616e60008201527f6365000000000000000000000000000000000000000000000000000000000000602082015250565b7f45524332303a20617070726f766520746f20746865207a65726f20616464726560008201527f7373000000000000000000000000000000000000000000000000000000000000602082015250565b7f45524332303a20696e73756666696369656e7420616c6c6f77616e6365000000600082015250565b7f45524332303a207472616e7366657220616d6f756e742065786365656473206260008201527f616c616e63650000000000000000000000000000000000000000000000000000602082015250565b7f4f6e6c792061646d696e2063616e206368616e67652061646472657373000000600082015250565b7f45524332303a206275726e2066726f6d20746865207a65726f2061646472657360008201527f7300000000000000000000000000000000000000000000000000000000000000602082015250565b7f45524332303a207472616e736665722066726f6d20746865207a65726f20616460008201527f6472657373000000000000000000000000000000000000000000000000000000602082015250565b7f45524332303a20617070726f76652066726f6d20746865207a65726f2061646460008201527f7265737300000000000000000000000000000000000000000000000000000000602082015250565b7f4f6e6c79207468652061646d696e2063616e20757064617465206d61726b657460008201527f706c616365730000000000000000000000000000000000000000000000000000602082015250565b7f45524332303a2064656372656173656420616c6c6f77616e63652062656c6f7760008201527f207a65726f000000000000000000000000000000000000000000000000000000602082015250565b7f45524332303a206d696e7420746f20746865207a65726f206164647265737300600082015250565b611c9981611820565b8114611ca457600080fd5b50565b611cb081611832565b8114611cbb57600080fd5b50565b611cc78161185e565b8114611cd257600080fd5b5056fea26469706673582212202e244e34b39006ef2c2c6d01c8413ef799fb1047cc8387123107c4e99827fe8864736f6c63430008070033",
					"opcodes": "PUSH1 0x80 PUSH1 0x40 MSTORE CALLVALUE DUP1 ISZERO PUSH3 0x11 JUMPI PUSH1 0x0 DUP1 REVERT JUMPDEST POP PUSH1 0x40 MLOAD PUSH3 0x2293 CODESIZE SUB DUP1 PUSH3 0x2293 DUP4 CODECOPY DUP2 DUP2 ADD PUSH1 0x40 MSTORE DUP2 ADD SWAP1 PUSH3 0x37 SWAP2 SWAP1 PUSH3 0x37B JUMP JUMPDEST PUSH1 0x40 MLOAD DUP1 PUSH1 0x40 ADD PUSH1 0x40 MSTORE DUP1 PUSH1 0x9 DUP2 MSTORE PUSH1 0x20 ADD PUSH32 0x4D65746134537761700000000000000000000000000000000000000000000000 DUP2 MSTORE POP PUSH1 0x40 MLOAD DUP1 PUSH1 0x40 ADD PUSH1 0x40 MSTORE DUP1 PUSH1 0x3 DUP2 MSTORE PUSH1 0x20 ADD PUSH32 0x4D34530000000000000000000000000000000000000000000000000000000000 DUP2 MSTORE POP DUP2 PUSH1 0x3 SWAP1 DUP1 MLOAD SWAP1 PUSH1 0x20 ADD SWAP1 PUSH3 0xBB SWAP3 SWAP2 SWAP1 PUSH3 0x2B4 JUMP JUMPDEST POP DUP1 PUSH1 0x4 SWAP1 DUP1 MLOAD SWAP1 PUSH1 0x20 ADD SWAP1 PUSH3 0xD4 SWAP3 SWAP2 SWAP1 PUSH3 0x2B4 JUMP JUMPDEST POP POP POP PUSH3 0xE9 CALLER DUP3 PUSH3 0x131 PUSH1 0x20 SHL PUSH1 0x20 SHR JUMP JUMPDEST CALLER PUSH1 0x6 PUSH1 0x0 PUSH2 0x100 EXP DUP2 SLOAD DUP2 PUSH20 0xFFFFFFFFFFFFFFFFFFFFFFFFFFFFFFFFFFFFFFFF MUL NOT AND SWAP1 DUP4 PUSH20 0xFFFFFFFFFFFFFFFFFFFFFFFFFFFFFFFFFFFFFFFF AND MUL OR SWAP1 SSTORE POP POP PUSH3 0x578 JUMP JUMPDEST PUSH1 0x0 PUSH20 0xFFFFFFFFFFFFFFFFFFFFFFFFFFFFFFFFFFFFFFFF AND DUP3 PUSH20 0xFFFFFFFFFFFFFFFFFFFFFFFFFFFFFFFFFFFFFFFF AND EQ ISZERO PUSH3 0x1A4 JUMPI PUSH1 0x40 MLOAD PUSH32 0x8C379A000000000000000000000000000000000000000000000000000000000 DUP2 MSTORE PUSH1 0x4 ADD PUSH3 0x19B SWAP1 PUSH3 0x3E5 JUMP JUMPDEST PUSH1 0x40 MLOAD DUP1 SWAP2 SUB SWAP1 REVERT JUMPDEST PUSH3 0x1B8 PUSH1 0x0 DUP4 DUP4 PUSH3 0x2AA PUSH1 0x20 SHL PUSH1 0x20 SHR JUMP JUMPDEST DUP1 PUSH1 0x2 PUSH1 0x0 DUP3 DUP3 SLOAD PUSH3 0x1CC SWAP2 SWAP1 PUSH3 0x435 JUMP JUMPDEST SWAP3 POP POP DUP2 SWAP1 SSTORE POP DUP1 PUSH1 0x0 DUP1 DUP5 PUSH20 0xFFFFFFFFFFFFFFFFFFFFFFFFFFFFFFFFFFFFFFFF AND PUSH20 0xFFFFFFFFFFFFFFFFFFFFFFFFFFFFFFFFFFFFFFFF AND DUP2 MSTORE PUSH1 0x20 ADD SWAP1 DUP2 MSTORE PUSH1 0x20 ADD PUSH1 0x0 KECCAK256 PUSH1 0x0 DUP3 DUP3 SLOAD PUSH3 0x223 SWAP2 SWAP1 PUSH3 0x435 JUMP JUMPDEST SWAP3 POP POP DUP2 SWAP1 SSTORE POP DUP2 PUSH20 0xFFFFFFFFFFFFFFFFFFFFFFFFFFFFFFFFFFFFFFFF AND PUSH1 0x0 PUSH20 0xFFFFFFFFFFFFFFFFFFFFFFFFFFFFFFFFFFFFFFFF AND PUSH32 0xDDF252AD1BE2C89B69C2B068FC378DAA952BA7F163C4A11628F55A4DF523B3EF DUP4 PUSH1 0x40 MLOAD PUSH3 0x28A SWAP2 SWAP1 PUSH3 0x407 JUMP JUMPDEST PUSH1 0x40 MLOAD DUP1 SWAP2 SUB SWAP1 LOG3 PUSH3 0x2A6 PUSH1 0x0 DUP4 DUP4 PUSH3 0x2AF PUSH1 0x20 SHL PUSH1 0x20 SHR JUMP JUMPDEST POP POP JUMP JUMPDEST POP POP POP JUMP JUMPDEST POP POP POP JUMP JUMPDEST DUP3 DUP1 SLOAD PUSH3 0x2C2 SWAP1 PUSH3 0x49C JUMP JUMPDEST SWAP1 PUSH1 0x0 MSTORE PUSH1 0x20 PUSH1 0x0 KECCAK256 SWAP1 PUSH1 0x1F ADD PUSH1 0x20 SWAP1 DIV DUP2 ADD SWAP3 DUP3 PUSH3 0x2E6 JUMPI PUSH1 0x0 DUP6 SSTORE PUSH3 0x332 JUMP JUMPDEST DUP3 PUSH1 0x1F LT PUSH3 0x301 JUMPI DUP1 MLOAD PUSH1 0xFF NOT AND DUP4 DUP1 ADD OR DUP6 SSTORE PUSH3 0x332 JUMP JUMPDEST DUP3 DUP1 ADD PUSH1 0x1 ADD DUP6 SSTORE DUP3 ISZERO PUSH3 0x332 JUMPI SWAP2 DUP3 ADD JUMPDEST DUP3 DUP2 GT ISZERO PUSH3 0x331 JUMPI DUP3 MLOAD DUP3 SSTORE SWAP2 PUSH1 0x20 ADD SWAP2 SWAP1 PUSH1 0x1 ADD SWAP1 PUSH3 0x314 JUMP JUMPDEST JUMPDEST POP SWAP1 POP PUSH3 0x341 SWAP2 SWAP1 PUSH3 0x345 JUMP JUMPDEST POP SWAP1 JUMP JUMPDEST JUMPDEST DUP1 DUP3 GT ISZERO PUSH3 0x360 JUMPI PUSH1 0x0 DUP2 PUSH1 0x0 SWAP1 SSTORE POP PUSH1 0x1 ADD PUSH3 0x346 JUMP JUMPDEST POP SWAP1 JUMP JUMPDEST PUSH1 0x0 DUP2 MLOAD SWAP1 POP PUSH3 0x375 DUP2 PUSH3 0x55E JUMP JUMPDEST SWAP3 SWAP2 POP POP JUMP JUMPDEST PUSH1 0x0 PUSH1 0x20 DUP3 DUP5 SUB SLT ISZERO PUSH3 0x394 JUMPI PUSH3 0x393 PUSH3 0x530 JUMP JUMPDEST JUMPDEST PUSH1 0x0 PUSH3 0x3A4 DUP5 DUP3 DUP6 ADD PUSH3 0x364 JUMP JUMPDEST SWAP2 POP POP SWAP3 SWAP2 POP POP JUMP JUMPDEST PUSH1 0x0 PUSH3 0x3BC PUSH1 0x1F DUP4 PUSH3 0x424 JUMP JUMPDEST SWAP2 POP PUSH3 0x3C9 DUP3 PUSH3 0x535 JUMP JUMPDEST PUSH1 0x20 DUP3 ADD SWAP1 POP SWAP2 SWAP1 POP JUMP JUMPDEST PUSH3 0x3DF DUP2 PUSH3 0x492 JUMP JUMPDEST DUP3 MSTORE POP POP JUMP JUMPDEST PUSH1 0x0 PUSH1 0x20 DUP3 ADD SWAP1 POP DUP2 DUP2 SUB PUSH1 0x0 DUP4 ADD MSTORE PUSH3 0x400 DUP2 PUSH3 0x3AD JUMP JUMPDEST SWAP1 POP SWAP2 SWAP1 POP JUMP JUMPDEST PUSH1 0x0 PUSH1 0x20 DUP3 ADD SWAP1 POP PUSH3 0x41E PUSH1 0x0 DUP4 ADD DUP5 PUSH3 0x3D4 JUMP JUMPDEST SWAP3 SWAP2 POP POP JUMP JUMPDEST PUSH1 0x0 DUP3 DUP3 MSTORE PUSH1 0x20 DUP3 ADD SWAP1 POP SWAP3 SWAP2 POP POP JUMP JUMPDEST PUSH1 0x0 PUSH3 0x442 DUP3 PUSH3 0x492 JUMP JUMPDEST SWAP2 POP PUSH3 0x44F DUP4 PUSH3 0x492 JUMP JUMPDEST SWAP3 POP DUP3 PUSH32 0xFFFFFFFFFFFFFFFFFFFFFFFFFFFFFFFFFFFFFFFFFFFFFFFFFFFFFFFFFFFFFFFF SUB DUP3 GT ISZERO PUSH3 0x487 JUMPI PUSH3 0x486 PUSH3 0x4D2 JUMP JUMPDEST JUMPDEST DUP3 DUP3 ADD SWAP1 POP SWAP3 SWAP2 POP POP JUMP JUMPDEST PUSH1 0x0 DUP2 SWAP1 POP SWAP2 SWAP1 POP JUMP JUMPDEST PUSH1 0x0 PUSH1 0x2 DUP3 DIV SWAP1 POP PUSH1 0x1 DUP3 AND DUP1 PUSH3 0x4B5 JUMPI PUSH1 0x7F DUP3 AND SWAP2 POP JUMPDEST PUSH1 0x20 DUP3 LT DUP2 EQ ISZERO PUSH3 0x4CC JUMPI PUSH3 0x4CB PUSH3 0x501 JUMP JUMPDEST JUMPDEST POP SWAP2 SWAP1 POP JUMP JUMPDEST PUSH32 0x4E487B7100000000000000000000000000000000000000000000000000000000 PUSH1 0x0 MSTORE PUSH1 0x11 PUSH1 0x4 MSTORE PUSH1 0x24 PUSH1 0x0 REVERT JUMPDEST PUSH32 0x4E487B7100000000000000000000000000000000000000000000000000000000 PUSH1 0x0 MSTORE PUSH1 0x22 PUSH1 0x4 MSTORE PUSH1 0x24 PUSH1 0x0 REVERT JUMPDEST PUSH1 0x0 DUP1 REVERT JUMPDEST PUSH32 0x45524332303A206D696E7420746F20746865207A65726F206164647265737300 PUSH1 0x0 DUP3 ADD MSTORE POP JUMP JUMPDEST PUSH3 0x569 DUP2 PUSH3 0x492 JUMP JUMPDEST DUP2 EQ PUSH3 0x575 JUMPI PUSH1 0x0 DUP1 REVERT JUMPDEST POP JUMP JUMPDEST PUSH2 0x1D0B DUP1 PUSH3 0x588 PUSH1 0x0 CODECOPY PUSH1 0x0 RETURN INVALID PUSH1 0x80 PUSH1 0x40 MSTORE CALLVALUE DUP1 ISZERO PUSH2 0x10 JUMPI PUSH1 0x0 DUP1 REVERT JUMPDEST POP PUSH1 0x4 CALLDATASIZE LT PUSH2 0x10B JUMPI PUSH1 0x0 CALLDATALOAD PUSH1 0xE0 SHR DUP1 PUSH4 0x70A08231 GT PUSH2 0xA2 JUMPI DUP1 PUSH4 0xA457C2D7 GT PUSH2 0x71 JUMPI DUP1 PUSH4 0xA457C2D7 EQ PUSH2 0x2F4 JUMPI DUP1 PUSH4 0xA9059CBB EQ PUSH2 0x324 JUMPI DUP1 PUSH4 0xDD62ED3E EQ PUSH2 0x354 JUMPI DUP1 PUSH4 0xEFEE4A8F EQ PUSH2 0x384 JUMPI DUP1 PUSH4 0xF851A440 EQ PUSH2 0x3A0 JUMPI PUSH2 0x10B JUMP JUMPDEST DUP1 PUSH4 0x70A08231 EQ PUSH2 0x246 JUMPI DUP1 PUSH4 0x95D89B41 EQ PUSH2 0x276 JUMPI DUP1 PUSH4 0x9A49090E EQ PUSH2 0x294 JUMPI DUP1 PUSH4 0x9DC29FAC EQ PUSH2 0x2C4 JUMPI PUSH2 0x10B JUMP JUMPDEST DUP1 PUSH4 0x2AB29DF7 GT PUSH2 0xDE JUMPI DUP1 PUSH4 0x2AB29DF7 EQ PUSH2 0x1AC JUMPI DUP1 PUSH4 0x313CE567 EQ PUSH2 0x1C8 JUMPI DUP1 PUSH4 0x39509351 EQ PUSH2 0x1E6 JUMPI DUP1 PUSH4 0x6A56B359 EQ PUSH2 0x216 JUMPI PUSH2 0x10B JUMP JUMPDEST DUP1 PUSH4 0x6FDDE03 EQ PUSH2 0x110 JUMPI DUP1 PUSH4 0x95EA7B3 EQ PUSH2 0x12E JUMPI DUP1 PUSH4 0x18160DDD EQ PUSH2 0x15E JUMPI DUP1 PUSH4 0x23B872DD EQ PUSH2 0x17C JUMPI JUMPDEST PUSH1 0x0 DUP1 REVERT JUMPDEST PUSH2 0x118 PUSH2 0x3BE JUMP JUMPDEST PUSH1 0x40 MLOAD PUSH2 0x125 SWAP2 SWAP1 PUSH2 0x15A2 JUMP JUMPDEST PUSH1 0x40 MLOAD DUP1 SWAP2 SUB SWAP1 RETURN JUMPDEST PUSH2 0x148 PUSH1 0x4 DUP1 CALLDATASIZE SUB DUP2 ADD SWAP1 PUSH2 0x143 SWAP2 SWAP1 PUSH2 0x12D3 JUMP JUMPDEST PUSH2 0x450 JUMP JUMPDEST PUSH1 0x40 MLOAD PUSH2 0x155 SWAP2 SWAP1 PUSH2 0x1587 JUMP JUMPDEST PUSH1 0x40 MLOAD DUP1 SWAP2 SUB SWAP1 RETURN JUMPDEST PUSH2 0x166 PUSH2 0x473 JUMP JUMPDEST PUSH1 0x40 MLOAD PUSH2 0x173 SWAP2 SWAP1 PUSH2 0x1744 JUMP JUMPDEST PUSH1 0x40 MLOAD DUP1 SWAP2 SUB SWAP1 RETURN JUMPDEST PUSH2 0x196 PUSH1 0x4 DUP1 CALLDATASIZE SUB DUP2 ADD SWAP1 PUSH2 0x191 SWAP2 SWAP1 PUSH2 0x1240 JUMP JUMPDEST PUSH2 0x47D JUMP JUMPDEST PUSH1 0x40 MLOAD PUSH2 0x1A3 SWAP2 SWAP1 PUSH2 0x1587 JUMP JUMPDEST PUSH1 0x40 MLOAD DUP1 SWAP2 SUB SWAP1 RETURN JUMPDEST PUSH2 0x1C6 PUSH1 0x4 DUP1 CALLDATASIZE SUB DUP2 ADD SWAP1 PUSH2 0x1C1 SWAP2 SWAP1 PUSH2 0x1313 JUMP JUMPDEST PUSH2 0x4AC JUMP JUMPDEST STOP JUMPDEST PUSH2 0x1D0 PUSH2 0x581 JUMP JUMPDEST PUSH1 0x40 MLOAD PUSH2 0x1DD SWAP2 SWAP1 PUSH2 0x175F JUMP JUMPDEST PUSH1 0x40 MLOAD DUP1 SWAP2 SUB SWAP1 RETURN JUMPDEST PUSH2 0x200 PUSH1 0x4 DUP1 CALLDATASIZE SUB DUP2 ADD SWAP1 PUSH2 0x1FB SWAP2 SWAP1 PUSH2 0x12D3 JUMP JUMPDEST PUSH2 0x58A JUMP JUMPDEST PUSH1 0x40 MLOAD PUSH2 0x20D SWAP2 SWAP1 PUSH2 0x1587 JUMP JUMPDEST PUSH1 0x40 MLOAD DUP1 SWAP2 SUB SWAP1 RETURN JUMPDEST PUSH2 0x230 PUSH1 0x4 DUP1 CALLDATASIZE SUB DUP2 ADD SWAP1 PUSH2 0x22B SWAP2 SWAP1 PUSH2 0x11D3 JUMP JUMPDEST PUSH2 0x5C1 JUMP JUMPDEST PUSH1 0x40 MLOAD PUSH2 0x23D SWAP2 SWAP1 PUSH2 0x1587 JUMP JUMPDEST PUSH1 0x40 MLOAD DUP1 SWAP2 SUB SWAP1 RETURN JUMPDEST PUSH2 0x260 PUSH1 0x4 DUP1 CALLDATASIZE SUB DUP2 ADD SWAP1 PUSH2 0x25B SWAP2 SWAP1 PUSH2 0x11D3 JUMP JUMPDEST PUSH2 0x5E1 JUMP JUMPDEST PUSH1 0x40 MLOAD PUSH2 0x26D SWAP2 SWAP1 PUSH2 0x1744 JUMP JUMPDEST PUSH1 0x40 MLOAD DUP1 SWAP2 SUB SWAP1 RETURN JUMPDEST PUSH2 0x27E PUSH2 0x629 JUMP JUMPDEST PUSH1 0x40 MLOAD PUSH2 0x28B SWAP2 SWAP1 PUSH2 0x15A2 JUMP JUMPDEST PUSH1 0x40 MLOAD DUP1 SWAP2 SUB SWAP1 RETURN JUMPDEST PUSH2 0x2AE PUSH1 0x4 DUP1 CALLDATASIZE SUB DUP2 ADD SWAP1 PUSH2 0x2A9 SWAP2 SWAP1 PUSH2 0x12D3 JUMP JUMPDEST PUSH2 0x6BB JUMP JUMPDEST PUSH1 0x40 MLOAD PUSH2 0x2BB SWAP2 SWAP1 PUSH2 0x1587 JUMP JUMPDEST PUSH1 0x40 MLOAD DUP1 SWAP2 SUB SWAP1 RETURN JUMPDEST PUSH2 0x2DE PUSH1 0x4 DUP1 CALLDATASIZE SUB DUP2 ADD SWAP1 PUSH2 0x2D9 SWAP2 SWAP1 PUSH2 0x12D3 JUMP JUMPDEST PUSH2 0x72B JUMP JUMPDEST PUSH1 0x40 MLOAD PUSH2 0x2EB SWAP2 SWAP1 PUSH2 0x1587 JUMP JUMPDEST PUSH1 0x40 MLOAD DUP1 SWAP2 SUB SWAP1 RETURN JUMPDEST PUSH2 0x30E PUSH1 0x4 DUP1 CALLDATASIZE SUB DUP2 ADD SWAP1 PUSH2 0x309 SWAP2 SWAP1 PUSH2 0x12D3 JUMP JUMPDEST PUSH2 0x741 JUMP JUMPDEST PUSH1 0x40 MLOAD PUSH2 0x31B SWAP2 SWAP1 PUSH2 0x1587 JUMP JUMPDEST PUSH1 0x40 MLOAD DUP1 SWAP2 SUB SWAP1 RETURN JUMPDEST PUSH2 0x33E PUSH1 0x4 DUP1 CALLDATASIZE SUB DUP2 ADD SWAP1 PUSH2 0x339 SWAP2 SWAP1 PUSH2 0x12D3 JUMP JUMPDEST PUSH2 0x7B8 JUMP JUMPDEST PUSH1 0x40 MLOAD PUSH2 0x34B SWAP2 SWAP1 PUSH2 0x1587 JUMP JUMPDEST PUSH1 0x40 MLOAD DUP1 SWAP2 SUB SWAP1 RETURN JUMPDEST PUSH2 0x36E PUSH1 0x4 DUP1 CALLDATASIZE SUB DUP2 ADD SWAP1 PUSH2 0x369 SWAP2 SWAP1 PUSH2 0x1200 JUMP JUMPDEST PUSH2 0x7DB JUMP JUMPDEST PUSH1 0x40 MLOAD PUSH2 0x37B SWAP2 SWAP1 PUSH2 0x1744 JUMP JUMPDEST PUSH1 0x40 MLOAD DUP1 SWAP2 SUB SWAP1 RETURN JUMPDEST PUSH2 0x39E PUSH1 0x4 DUP1 CALLDATASIZE SUB DUP2 ADD SWAP1 PUSH2 0x399 SWAP2 SWAP1 PUSH2 0x1293 JUMP JUMPDEST PUSH2 0x862 JUMP JUMPDEST STOP JUMPDEST PUSH2 0x3A8 PUSH2 0x94D JUMP JUMPDEST PUSH1 0x40 MLOAD PUSH2 0x3B5 SWAP2 SWAP1 PUSH2 0x156C JUMP JUMPDEST PUSH1 0x40 MLOAD DUP1 SWAP2 SUB SWAP1 RETURN JUMPDEST PUSH1 0x60 PUSH1 0x3 DUP1 SLOAD PUSH2 0x3CD SWAP1 PUSH2 0x18A8 JUMP JUMPDEST DUP1 PUSH1 0x1F ADD PUSH1 0x20 DUP1 SWAP2 DIV MUL PUSH1 0x20 ADD PUSH1 0x40 MLOAD SWAP1 DUP2 ADD PUSH1 0x40 MSTORE DUP1 SWAP3 SWAP2 SWAP1 DUP2 DUP2 MSTORE PUSH1 0x20 ADD DUP3 DUP1 SLOAD PUSH2 0x3F9 SWAP1 PUSH2 0x18A8 JUMP JUMPDEST DUP1 ISZERO PUSH2 0x446 JUMPI DUP1 PUSH1 0x1F LT PUSH2 0x41B JUMPI PUSH2 0x100 DUP1 DUP4 SLOAD DIV MUL DUP4 MSTORE SWAP2 PUSH1 0x20 ADD SWAP2 PUSH2 0x446 JUMP JUMPDEST DUP3 ADD SWAP2 SWAP1 PUSH1 0x0 MSTORE PUSH1 0x20 PUSH1 0x0 KECCAK256 SWAP1 JUMPDEST DUP2 SLOAD DUP2 MSTORE SWAP1 PUSH1 0x1 ADD SWAP1 PUSH1 0x20 ADD DUP1 DUP4 GT PUSH2 0x429 JUMPI DUP3 SWAP1 SUB PUSH1 0x1F AND DUP3 ADD SWAP2 JUMPDEST POP POP POP POP POP SWAP1 POP SWAP1 JUMP JUMPDEST PUSH1 0x0 DUP1 PUSH2 0x45B PUSH2 0x973 JUMP JUMPDEST SWAP1 POP PUSH2 0x468 DUP2 DUP6 DUP6 PUSH2 0x97B JUMP JUMPDEST PUSH1 0x1 SWAP2 POP POP SWAP3 SWAP2 POP POP JUMP JUMPDEST PUSH1 0x0 PUSH1 0x2 SLOAD SWAP1 POP SWAP1 JUMP JUMPDEST PUSH1 0x0 DUP1 PUSH2 0x488 PUSH2 0x973 JUMP JUMPDEST SWAP1 POP PUSH2 0x495 DUP6 DUP3 DUP6 PUSH2 0xB46 JUMP JUMPDEST PUSH2 0x4A0 DUP6 DUP6 DUP6 PUSH2 0xBD2 JUMP JUMPDEST PUSH1 0x1 SWAP2 POP POP SWAP4 SWAP3 POP POP POP JUMP JUMPDEST PUSH1 0x6 PUSH1 0x0 SWAP1 SLOAD SWAP1 PUSH2 0x100 EXP SWAP1 DIV PUSH20 0xFFFFFFFFFFFFFFFFFFFFFFFFFFFFFFFFFFFFFFFF AND PUSH20 0xFFFFFFFFFFFFFFFFFFFFFFFFFFFFFFFFFFFFFFFF AND CALLER PUSH20 0xFFFFFFFFFFFFFFFFFFFFFFFFFFFFFFFFFFFFFFFF AND EQ PUSH2 0x53C JUMPI PUSH1 0x40 MLOAD PUSH32 0x8C379A000000000000000000000000000000000000000000000000000000000 DUP2 MSTORE PUSH1 0x4 ADD PUSH2 0x533 SWAP1 PUSH2 0x1664 JUMP JUMPDEST PUSH1 0x40 MLOAD DUP1 SWAP2 SUB SWAP1 REVERT JUMPDEST DUP1 PUSH1 0x6 PUSH1 0x0 PUSH2 0x100 EXP DUP2 SLOAD DUP2 PUSH20 0xFFFFFFFFFFFFFFFFFFFFFFFFFFFFFFFFFFFFFFFF MUL NOT AND SWAP1 DUP4 PUSH20 0xFFFFFFFFFFFFFFFFFFFFFFFFFFFFFFFFFFFFFFFF AND MUL OR SWAP1 SSTORE POP POP POP JUMP JUMPDEST PUSH1 0x0 PUSH1 0x12 SWAP1 POP SWAP1 JUMP JUMPDEST PUSH1 0x0 DUP1 PUSH2 0x595 PUSH2 0x973 JUMP JUMPDEST SWAP1 POP PUSH2 0x5B6 DUP2 DUP6 DUP6 PUSH2 0x5A7 DUP6 DUP10 PUSH2 0x7DB JUMP JUMPDEST PUSH2 0x5B1 SWAP2 SWAP1 PUSH2 0x1796 JUMP JUMPDEST PUSH2 0x97B JUMP JUMPDEST PUSH1 0x1 SWAP2 POP POP SWAP3 SWAP2 POP POP JUMP JUMPDEST PUSH1 0x5 PUSH1 0x20 MSTORE DUP1 PUSH1 0x0 MSTORE PUSH1 0x40 PUSH1 0x0 KECCAK256 PUSH1 0x0 SWAP2 POP SLOAD SWAP1 PUSH2 0x100 EXP SWAP1 DIV PUSH1 0xFF AND DUP2 JUMP JUMPDEST PUSH1 0x0 DUP1 PUSH1 0x0 DUP4 PUSH20 0xFFFFFFFFFFFFFFFFFFFFFFFFFFFFFFFFFFFFFFFF AND PUSH20 0xFFFFFFFFFFFFFFFFFFFFFFFFFFFFFFFFFFFFFFFF AND DUP2 MSTORE PUSH1 0x20 ADD SWAP1 DUP2 MSTORE PUSH1 0x20 ADD PUSH1 0x0 KECCAK256 SLOAD SWAP1 POP SWAP2 SWAP1 POP JUMP JUMPDEST PUSH1 0x60 PUSH1 0x4 DUP1 SLOAD PUSH2 0x638 SWAP1 PUSH2 0x18A8 JUMP JUMPDEST DUP1 PUSH1 0x1F ADD PUSH1 0x20 DUP1 SWAP2 DIV MUL PUSH1 0x20 ADD PUSH1 0x40 MLOAD SWAP1 DUP2 ADD PUSH1 0x40 MSTORE DUP1 SWAP3 SWAP2 SWAP1 DUP2 DUP2 MSTORE PUSH1 0x20 ADD DUP3 DUP1 SLOAD PUSH2 0x664 SWAP1 PUSH2 0x18A8 JUMP JUMPDEST DUP1 ISZERO PUSH2 0x6B1 JUMPI DUP1 PUSH1 0x1F LT PUSH2 0x686 JUMPI PUSH2 0x100 DUP1 DUP4 SLOAD DIV MUL DUP4 MSTORE SWAP2 PUSH1 0x20 ADD SWAP2 PUSH2 0x6B1 JUMP JUMPDEST DUP3 ADD SWAP2 SWAP1 PUSH1 0x0 MSTORE PUSH1 0x20 PUSH1 0x0 KECCAK256 SWAP1 JUMPDEST DUP2 SLOAD DUP2 MSTORE SWAP1 PUSH1 0x1 ADD SWAP1 PUSH1 0x20 ADD DUP1 DUP4 GT PUSH2 0x694 JUMPI DUP3 SWAP1 SUB PUSH1 0x1F AND DUP3 ADD SWAP2 JUMPDEST POP POP POP POP POP SWAP1 POP SWAP1 JUMP JUMPDEST PUSH1 0x0 PUSH1 0x1 ISZERO ISZERO PUSH1 0x5 PUSH1 0x0 CALLER PUSH20 0xFFFFFFFFFFFFFFFFFFFFFFFFFFFFFFFFFFFFFFFF AND PUSH20 0xFFFFFFFFFFFFFFFFFFFFFFFFFFFFFFFFFFFFFFFF AND DUP2 MSTORE PUSH1 0x20 ADD SWAP1 DUP2 MSTORE PUSH1 0x20 ADD PUSH1 0x0 KECCAK256 PUSH1 0x0 SWAP1 SLOAD SWAP1 PUSH2 0x100 EXP SWAP1 DIV PUSH1 0xFF AND ISZERO ISZERO EQ ISZERO PUSH2 0x721 JUMPI PUSH2 0x720 DUP4 DUP4 PUSH2 0xE53 JUMP JUMPDEST JUMPDEST PUSH1 0x1 SWAP1 POP SWAP3 SWAP2 POP POP JUMP JUMPDEST PUSH1 0x0 PUSH2 0x737 DUP4 DUP4 PUSH2 0xFB3 JUMP JUMPDEST PUSH1 0x1 SWAP1 POP SWAP3 SWAP2 POP POP JUMP JUMPDEST PUSH1 0x0 DUP1 PUSH2 0x74C PUSH2 0x973 JUMP JUMPDEST SWAP1 POP PUSH1 0x0 PUSH2 0x75A DUP3 DUP7 PUSH2 0x7DB JUMP JUMPDEST SWAP1 POP DUP4 DUP2 LT ISZERO PUSH2 0x79F JUMPI PUSH1 0x40 MLOAD PUSH32 0x8C379A000000000000000000000000000000000000000000000000000000000 DUP2 MSTORE PUSH1 0x4 ADD PUSH2 0x796 SWAP1 PUSH2 0x1704 JUMP JUMPDEST PUSH1 0x40 MLOAD DUP1 SWAP2 SUB SWAP1 REVERT JUMPDEST PUSH2 0x7AC DUP3 DUP7 DUP7 DUP5 SUB PUSH2 0x97B JUMP JUMPDEST PUSH1 0x1 SWAP3 POP POP POP SWAP3 SWAP2 POP POP JUMP JUMPDEST PUSH1 0x0 DUP1 PUSH2 0x7C3 PUSH2 0x973 JUMP JUMPDEST SWAP1 POP PUSH2 0x7D0 DUP2 DUP6 DUP6 PUSH2 0xBD2 JUMP JUMPDEST PUSH1 0x1 SWAP2 POP POP SWAP3 SWAP2 POP POP JUMP JUMPDEST PUSH1 0x0 PUSH1 0x1 PUSH1 0x0 DUP5 PUSH20 0xFFFFFFFFFFFFFFFFFFFFFFFFFFFFFFFFFFFFFFFF AND PUSH20 0xFFFFFFFFFFFFFFFFFFFFFFFFFFFFFFFFFFFFFFFF AND DUP2 MSTORE PUSH1 0x20 ADD SWAP1 DUP2 MSTORE PUSH1 0x20 ADD PUSH1 0x0 KECCAK256 PUSH1 0x0 DUP4 PUSH20 0xFFFFFFFFFFFFFFFFFFFFFFFFFFFFFFFFFFFFFFFF AND PUSH20 0xFFFFFFFFFFFFFFFFFFFFFFFFFFFFFFFFFFFFFFFF AND DUP2 MSTORE PUSH1 0x20 ADD SWAP1 DUP2 MSTORE PUSH1 0x20 ADD PUSH1 0x0 KECCAK256 SLOAD SWAP1 POP SWAP3 SWAP2 POP POP JUMP JUMPDEST PUSH1 0x6 PUSH1 0x0 SWAP1 SLOAD SWAP1 PUSH2 0x100 EXP SWAP1 DIV PUSH20 0xFFFFFFFFFFFFFFFFFFFFFFFFFFFFFFFFFFFFFFFF AND PUSH20 0xFFFFFFFFFFFFFFFFFFFFFFFFFFFFFFFFFFFFFFFF AND CALLER PUSH20 0xFFFFFFFFFFFFFFFFFFFFFFFFFFFFFFFFFFFFFFFF AND EQ PUSH2 0x8F2 JUMPI PUSH1 0x40 MLOAD PUSH32 0x8C379A000000000000000000000000000000000000000000000000000000000 DUP2 MSTORE PUSH1 0x4 ADD PUSH2 0x8E9 SWAP1 PUSH2 0x16E4 JUMP JUMPDEST PUSH1 0x40 MLOAD DUP1 SWAP2 SUB SWAP1 REVERT JUMPDEST DUP1 PUSH1 0x5 PUSH1 0x0 DUP5 PUSH20 0xFFFFFFFFFFFFFFFFFFFFFFFFFFFFFFFFFFFFFFFF AND PUSH20 0xFFFFFFFFFFFFFFFFFFFFFFFFFFFFFFFFFFFFFFFF AND DUP2 MSTORE PUSH1 0x20 ADD SWAP1 DUP2 MSTORE PUSH1 0x20 ADD PUSH1 0x0 KECCAK256 PUSH1 0x0 PUSH2 0x100 EXP DUP2 SLOAD DUP2 PUSH1 0xFF MUL NOT AND SWAP1 DUP4 ISZERO ISZERO MUL OR SWAP1 SSTORE POP POP POP JUMP JUMPDEST PUSH1 0x6 PUSH1 0x0 SWAP1 SLOAD SWAP1 PUSH2 0x100 EXP SWAP1 DIV PUSH20 0xFFFFFFFFFFFFFFFFFFFFFFFFFFFFFFFFFFFFFFFF AND DUP2 JUMP JUMPDEST PUSH1 0x0 CALLER SWAP1 POP SWAP1 JUMP JUMPDEST PUSH1 0x0 PUSH20 0xFFFFFFFFFFFFFFFFFFFFFFFFFFFFFFFFFFFFFFFF AND DUP4 PUSH20 0xFFFFFFFFFFFFFFFFFFFFFFFFFFFFFFFFFFFFFFFF AND EQ ISZERO PUSH2 0x9EB JUMPI PUSH1 0x40 MLOAD PUSH32 0x8C379A000000000000000000000000000000000000000000000000000000000 DUP2 MSTORE PUSH1 0x4 ADD PUSH2 0x9E2 SWAP1 PUSH2 0x16C4 JUMP JUMPDEST PUSH1 0x40 MLOAD DUP1 SWAP2 SUB SWAP1 REVERT JUMPDEST PUSH1 0x0 PUSH20 0xFFFFFFFFFFFFFFFFFFFFFFFFFFFFFFFFFFFFFFFF AND DUP3 PUSH20 0xFFFFFFFFFFFFFFFFFFFFFFFFFFFFFFFFFFFFFFFF AND EQ ISZERO PUSH2 0xA5B JUMPI PUSH1 0x40 MLOAD PUSH32 0x8C379A000000000000000000000000000000000000000000000000000000000 DUP2 MSTORE PUSH1 0x4 ADD PUSH2 0xA52 SWAP1 PUSH2 0x1604 JUMP JUMPDEST PUSH1 0x40 MLOAD DUP1 SWAP2 SUB SWAP1 REVERT JUMPDEST DUP1 PUSH1 0x1 PUSH1 0x0 DUP6 PUSH20 0xFFFFFFFFFFFFFFFFFFFFFFFFFFFFFFFFFFFFFFFF AND PUSH20 0xFFFFFFFFFFFFFFFFFFFFFFFFFFFFFFFFFFFFFFFF AND DUP2 MSTORE PUSH1 0x20 ADD SWAP1 DUP2 MSTORE PUSH1 0x20 ADD PUSH1 0x0 KECCAK256 PUSH1 0x0 DUP5 PUSH20 0xFFFFFFFFFFFFFFFFFFFFFFFFFFFFFFFFFFFFFFFF AND PUSH20 0xFFFFFFFFFFFFFFFFFFFFFFFFFFFFFFFFFFFFFFFF AND DUP2 MSTORE PUSH1 0x20 ADD SWAP1 DUP2 MSTORE PUSH1 0x20 ADD PUSH1 0x0 KECCAK256 DUP2 SWAP1 SSTORE POP DUP2 PUSH20 0xFFFFFFFFFFFFFFFFFFFFFFFFFFFFFFFFFFFFFFFF AND DUP4 PUSH20 0xFFFFFFFFFFFFFFFFFFFFFFFFFFFFFFFFFFFFFFFF AND PUSH32 0x8C5BE1E5EBEC7D5BD14F71427D1E84F3DD0314C0F7B2291E5B200AC8C7C3B925 DUP4 PUSH1 0x40 MLOAD PUSH2 0xB39 SWAP2 SWAP1 PUSH2 0x1744 JUMP JUMPDEST PUSH1 0x40 MLOAD DUP1 SWAP2 SUB SWAP1 LOG3 POP POP POP JUMP JUMPDEST PUSH1 0x0 PUSH2 0xB52 DUP5 DUP5 PUSH2 0x7DB JUMP JUMPDEST SWAP1 POP PUSH32 0xFFFFFFFFFFFFFFFFFFFFFFFFFFFFFFFFFFFFFFFFFFFFFFFFFFFFFFFFFFFFFFFF DUP2 EQ PUSH2 0xBCC JUMPI DUP2 DUP2 LT ISZERO PUSH2 0xBBE JUMPI PUSH1 0x40 MLOAD PUSH32 0x8C379A000000000000000000000000000000000000000000000000000000000 DUP2 MSTORE PUSH1 0x4 ADD PUSH2 0xBB5 SWAP1 PUSH2 0x1624 JUMP JUMPDEST PUSH1 0x40 MLOAD DUP1 SWAP2 SUB SWAP1 REVERT JUMPDEST PUSH2 0xBCB DUP5 DUP5 DUP5 DUP5 SUB PUSH2 0x97B JUMP JUMPDEST JUMPDEST POP POP POP POP JUMP JUMPDEST PUSH1 0x0 PUSH20 0xFFFFFFFFFFFFFFFFFFFFFFFFFFFFFFFFFFFFFFFF AND DUP4 PUSH20 0xFFFFFFFFFFFFFFFFFFFFFFFFFFFFFFFFFFFFFFFF AND EQ ISZERO PUSH2 0xC42 JUMPI PUSH1 0x40 MLOAD PUSH32 0x8C379A000000000000000000000000000000000000000000000000000000000 DUP2 MSTORE PUSH1 0x4 ADD PUSH2 0xC39 SWAP1 PUSH2 0x16A4 JUMP JUMPDEST PUSH1 0x40 MLOAD DUP1 SWAP2 SUB SWAP1 REVERT JUMPDEST PUSH1 0x0 PUSH20 0xFFFFFFFFFFFFFFFFFFFFFFFFFFFFFFFFFFFFFFFF AND DUP3 PUSH20 0xFFFFFFFFFFFFFFFFFFFFFFFFFFFFFFFFFFFFFFFF AND EQ ISZERO PUSH2 0xCB2 JUMPI PUSH1 0x40 MLOAD PUSH32 0x8C379A000000000000000000000000000000000000000000000000000000000 DUP2 MSTORE PUSH1 0x4 ADD PUSH2 0xCA9 SWAP1 PUSH2 0x15C4 JUMP JUMPDEST PUSH1 0x40 MLOAD DUP1 SWAP2 SUB SWAP1 REVERT JUMPDEST PUSH2 0xCBD DUP4 DUP4 DUP4 PUSH2 0x118A JUMP JUMPDEST PUSH1 0x0 DUP1 PUSH1 0x0 DUP6 PUSH20 0xFFFFFFFFFFFFFFFFFFFFFFFFFFFFFFFFFFFFFFFF AND PUSH20 0xFFFFFFFFFFFFFFFFFFFFFFFFFFFFFFFFFFFFFFFF AND DUP2 MSTORE PUSH1 0x20 ADD SWAP1 DUP2 MSTORE PUSH1 0x20 ADD PUSH1 0x0 KECCAK256 SLOAD SWAP1 POP DUP2 DUP2 LT ISZERO PUSH2 0xD43 JUMPI PUSH1 0x40 MLOAD PUSH32 0x8C379A000000000000000000000000000000000000000000000000000000000 DUP2 MSTORE PUSH1 0x4 ADD PUSH2 0xD3A SWAP1 PUSH2 0x1644 JUMP JUMPDEST PUSH1 0x40 MLOAD DUP1 SWAP2 SUB SWAP1 REVERT JUMPDEST DUP2 DUP2 SUB PUSH1 0x0 DUP1 DUP7 PUSH20 0xFFFFFFFFFFFFFFFFFFFFFFFFFFFFFFFFFFFFFFFF AND PUSH20 0xFFFFFFFFFFFFFFFFFFFFFFFFFFFFFFFFFFFFFFFF AND DUP2 MSTORE PUSH1 0x20 ADD SWAP1 DUP2 MSTORE PUSH1 0x20 ADD PUSH1 0x0 KECCAK256 DUP2 SWAP1 SSTORE POP DUP2 PUSH1 0x0 DUP1 DUP6 PUSH20 0xFFFFFFFFFFFFFFFFFFFFFFFFFFFFFFFFFFFFFFFF AND PUSH20 0xFFFFFFFFFFFFFFFFFFFFFFFFFFFFFFFFFFFFFFFF AND DUP2 MSTORE PUSH1 0x20 ADD SWAP1 DUP2 MSTORE PUSH1 0x20 ADD PUSH1 0x0 KECCAK256 PUSH1 0x0 DUP3 DUP3 SLOAD PUSH2 0xDD6 SWAP2 SWAP1 PUSH2 0x1796 JUMP JUMPDEST SWAP3 POP POP DUP2 SWAP1 SSTORE POP DUP3 PUSH20 0xFFFFFFFFFFFFFFFFFFFFFFFFFFFFFFFFFFFFFFFF AND DUP5 PUSH20 0xFFFFFFFFFFFFFFFFFFFFFFFFFFFFFFFFFFFFFFFF AND PUSH32 0xDDF252AD1BE2C89B69C2B068FC378DAA952BA7F163C4A11628F55A4DF523B3EF DUP5 PUSH1 0x40 MLOAD PUSH2 0xE3A SWAP2 SWAP1 PUSH2 0x1744 JUMP JUMPDEST PUSH1 0x40 MLOAD DUP1 SWAP2 SUB SWAP1 LOG3 PUSH2 0xE4D DUP5 DUP5 DUP5 PUSH2 0x118F JUMP JUMPDEST POP POP POP POP JUMP JUMPDEST PUSH1 0x0 PUSH20 0xFFFFFFFFFFFFFFFFFFFFFFFFFFFFFFFFFFFFFFFF AND DUP3 PUSH20 0xFFFFFFFFFFFFFFFFFFFFFFFFFFFFFFFFFFFFFFFF AND EQ ISZERO PUSH2 0xEC3 JUMPI PUSH1 0x40 MLOAD PUSH32 0x8C379A000000000000000000000000000000000000000000000000000000000 DUP2 MSTORE PUSH1 0x4 ADD PUSH2 0xEBA SWAP1 PUSH2 0x1724 JUMP JUMPDEST PUSH1 0x40 MLOAD DUP1 SWAP2 SUB SWAP1 REVERT JUMPDEST PUSH2 0xECF PUSH1 0x0 DUP4 DUP4 PUSH2 0x118A JUMP JUMPDEST DUP1 PUSH1 0x2 PUSH1 0x0 DUP3 DUP3 SLOAD PUSH2 0xEE1 SWAP2 SWAP1 PUSH2 0x1796 JUMP JUMPDEST SWAP3 POP POP DUP2 SWAP1 SSTORE POP DUP1 PUSH1 0x0 DUP1 DUP5 PUSH20 0xFFFFFFFFFFFFFFFFFFFFFFFFFFFFFFFFFFFFFFFF AND PUSH20 0xFFFFFFFFFFFFFFFFFFFFFFFFFFFFFFFFFFFFFFFF AND DUP2 MSTORE PUSH1 0x20 ADD SWAP1 DUP2 MSTORE PUSH1 0x20 ADD PUSH1 0x0 KECCAK256 PUSH1 0x0 DUP3 DUP3 SLOAD PUSH2 0xF36 SWAP2 SWAP1 PUSH2 0x1796 JUMP JUMPDEST SWAP3 POP POP DUP2 SWAP1 SSTORE POP DUP2 PUSH20 0xFFFFFFFFFFFFFFFFFFFFFFFFFFFFFFFFFFFFFFFF AND PUSH1 0x0 PUSH20 0xFFFFFFFFFFFFFFFFFFFFFFFFFFFFFFFFFFFFFFFF AND PUSH32 0xDDF252AD1BE2C89B69C2B068FC378DAA952BA7F163C4A11628F55A4DF523B3EF DUP4 PUSH1 0x40 MLOAD PUSH2 0xF9B SWAP2 SWAP1 PUSH2 0x1744 JUMP JUMPDEST PUSH1 0x40 MLOAD DUP1 SWAP2 SUB SWAP1 LOG3 PUSH2 0xFAF PUSH1 0x0 DUP4 DUP4 PUSH2 0x118F JUMP JUMPDEST POP POP JUMP JUMPDEST PUSH1 0x0 PUSH20 0xFFFFFFFFFFFFFFFFFFFFFFFFFFFFFFFFFFFFFFFF AND DUP3 PUSH20 0xFFFFFFFFFFFFFFFFFFFFFFFFFFFFFFFFFFFFFFFF AND EQ ISZERO PUSH2 0x1023 JUMPI PUSH1 0x40 MLOAD PUSH32 0x8C379A000000000000000000000000000000000000000000000000000000000 DUP2 MSTORE PUSH1 0x4 ADD PUSH2 0x101A SWAP1 PUSH2 0x1684 JUMP JUMPDEST PUSH1 0x40 MLOAD DUP1 SWAP2 SUB SWAP1 REVERT JUMPDEST PUSH2 0x102F DUP3 PUSH1 0x0 DUP4 PUSH2 0x118A JUMP JUMPDEST PUSH1 0x0 DUP1 PUSH1 0x0 DUP5 PUSH20 0xFFFFFFFFFFFFFFFFFFFFFFFFFFFFFFFFFFFFFFFF AND PUSH20 0xFFFFFFFFFFFFFFFFFFFFFFFFFFFFFFFFFFFFFFFF AND DUP2 MSTORE PUSH1 0x20 ADD SWAP1 DUP2 MSTORE PUSH1 0x20 ADD PUSH1 0x0 KECCAK256 SLOAD SWAP1 POP DUP2 DUP2 LT ISZERO PUSH2 0x10B5 JUMPI PUSH1 0x40 MLOAD PUSH32 0x8C379A000000000000000000000000000000000000000000000000000000000 DUP2 MSTORE PUSH1 0x4 ADD PUSH2 0x10AC SWAP1 PUSH2 0x15E4 JUMP JUMPDEST PUSH1 0x40 MLOAD DUP1 SWAP2 SUB SWAP1 REVERT JUMPDEST DUP2 DUP2 SUB PUSH1 0x0 DUP1 DUP6 PUSH20 0xFFFFFFFFFFFFFFFFFFFFFFFFFFFFFFFFFFFFFFFF AND PUSH20 0xFFFFFFFFFFFFFFFFFFFFFFFFFFFFFFFFFFFFFFFF AND DUP2 MSTORE PUSH1 0x20 ADD SWAP1 DUP2 MSTORE PUSH1 0x20 ADD PUSH1 0x0 KECCAK256 DUP2 SWAP1 SSTORE POP DUP2 PUSH1 0x2 PUSH1 0x0 DUP3 DUP3 SLOAD PUSH2 0x110C SWAP2 SWAP1 PUSH2 0x17EC JUMP JUMPDEST SWAP3 POP POP DUP2 SWAP1 SSTORE POP PUSH1 0x0 PUSH20 0xFFFFFFFFFFFFFFFFFFFFFFFFFFFFFFFFFFFFFFFF AND DUP4 PUSH20 0xFFFFFFFFFFFFFFFFFFFFFFFFFFFFFFFFFFFFFFFF AND PUSH32 0xDDF252AD1BE2C89B69C2B068FC378DAA952BA7F163C4A11628F55A4DF523B3EF DUP5 PUSH1 0x40 MLOAD PUSH2 0x1171 SWAP2 SWAP1 PUSH2 0x1744 JUMP JUMPDEST PUSH1 0x40 MLOAD DUP1 SWAP2 SUB SWAP1 LOG3 PUSH2 0x1185 DUP4 PUSH1 0x0 DUP5 PUSH2 0x118F JUMP JUMPDEST POP POP POP JUMP JUMPDEST POP POP POP JUMP JUMPDEST POP POP POP JUMP JUMPDEST PUSH1 0x0 DUP2 CALLDATALOAD SWAP1 POP PUSH2 0x11A3 DUP2 PUSH2 0x1C90 JUMP JUMPDEST SWAP3 SWAP2 POP POP JUMP JUMPDEST PUSH1 0x0 DUP2 CALLDATALOAD SWAP1 POP PUSH2 0x11B8 DUP2 PUSH2 0x1CA7 JUMP JUMPDEST SWAP3 SWAP2 POP POP JUMP JUMPDEST PUSH1 0x0 DUP2 CALLDATALOAD SWAP1 POP PUSH2 0x11CD DUP2 PUSH2 0x1CBE JUMP JUMPDEST SWAP3 SWAP2 POP POP JUMP JUMPDEST PUSH1 0x0 PUSH1 0x20 DUP3 DUP5 SUB SLT ISZERO PUSH2 0x11E9 JUMPI PUSH2 0x11E8 PUSH2 0x1938 JUMP JUMPDEST JUMPDEST PUSH1 0x0 PUSH2 0x11F7 DUP5 DUP3 DUP6 ADD PUSH2 0x1194 JUMP JUMPDEST SWAP2 POP POP SWAP3 SWAP2 POP POP JUMP JUMPDEST PUSH1 0x0 DUP1 PUSH1 0x40 DUP4 DUP6 SUB SLT ISZERO PUSH2 0x1217 JUMPI PUSH2 0x1216 PUSH2 0x1938 JUMP JUMPDEST JUMPDEST PUSH1 0x0 PUSH2 0x1225 DUP6 DUP3 DUP7 ADD PUSH2 0x1194 JUMP JUMPDEST SWAP3 POP POP PUSH1 0x20 PUSH2 0x1236 DUP6 DUP3 DUP7 ADD PUSH2 0x1194 JUMP JUMPDEST SWAP2 POP POP SWAP3 POP SWAP3 SWAP1 POP JUMP JUMPDEST PUSH1 0x0 DUP1 PUSH1 0x0 PUSH1 0x60 DUP5 DUP7 SUB SLT ISZERO PUSH2 0x1259 JUMPI PUSH2 0x1258 PUSH2 0x1938 JUMP JUMPDEST JUMPDEST PUSH1 0x0 PUSH2 0x1267 DUP7 DUP3 DUP8 ADD PUSH2 0x1194 JUMP JUMPDEST SWAP4 POP POP PUSH1 0x20 PUSH2 0x1278 DUP7 DUP3 DUP8 ADD PUSH2 0x1194 JUMP JUMPDEST SWAP3 POP POP PUSH1 0x40 PUSH2 0x1289 DUP7 DUP3 DUP8 ADD PUSH2 0x11BE JUMP JUMPDEST SWAP2 POP POP SWAP3 POP SWAP3 POP SWAP3 JUMP JUMPDEST PUSH1 0x0 DUP1 PUSH1 0x40 DUP4 DUP6 SUB SLT ISZERO PUSH2 0x12AA JUMPI PUSH2 0x12A9 PUSH2 0x1938 JUMP JUMPDEST JUMPDEST PUSH1 0x0 PUSH2 0x12B8 DUP6 DUP3 DUP7 ADD PUSH2 0x1194 JUMP JUMPDEST SWAP3 POP POP PUSH1 0x20 PUSH2 0x12C9 DUP6 DUP3 DUP7 ADD PUSH2 0x11A9 JUMP JUMPDEST SWAP2 POP POP SWAP3 POP SWAP3 SWAP1 POP JUMP JUMPDEST PUSH1 0x0 DUP1 PUSH1 0x40 DUP4 DUP6 SUB SLT ISZERO PUSH2 0x12EA JUMPI PUSH2 0x12E9 PUSH2 0x1938 JUMP JUMPDEST JUMPDEST PUSH1 0x0 PUSH2 0x12F8 DUP6 DUP3 DUP7 ADD PUSH2 0x1194 JUMP JUMPDEST SWAP3 POP POP PUSH1 0x20 PUSH2 0x1309 DUP6 DUP3 DUP7 ADD PUSH2 0x11BE JUMP JUMPDEST SWAP2 POP POP SWAP3 POP SWAP3 SWAP1 POP JUMP JUMPDEST PUSH1 0x0 DUP1 PUSH1 0x40 DUP4 DUP6 SUB SLT ISZERO PUSH2 0x132A JUMPI PUSH2 0x1329 PUSH2 0x1938 JUMP JUMPDEST JUMPDEST PUSH1 0x0 PUSH2 0x1338 DUP6 DUP3 DUP7 ADD PUSH2 0x11BE JUMP JUMPDEST SWAP3 POP POP PUSH1 0x20 PUSH2 0x1349 DUP6 DUP3 DUP7 ADD PUSH2 0x1194 JUMP JUMPDEST SWAP2 POP POP SWAP3 POP SWAP3 SWAP1 POP JUMP JUMPDEST PUSH2 0x135C DUP2 PUSH2 0x1820 JUMP JUMPDEST DUP3 MSTORE POP POP JUMP JUMPDEST PUSH2 0x136B DUP2 PUSH2 0x1832 JUMP JUMPDEST DUP3 MSTORE POP POP JUMP JUMPDEST PUSH1 0x0 PUSH2 0x137C DUP3 PUSH2 0x177A JUMP JUMPDEST PUSH2 0x1386 DUP2 DUP6 PUSH2 0x1785 JUMP JUMPDEST SWAP4 POP PUSH2 0x1396 DUP2 DUP6 PUSH1 0x20 DUP7 ADD PUSH2 0x1875 JUMP JUMPDEST PUSH2 0x139F DUP2 PUSH2 0x193D JUMP JUMPDEST DUP5 ADD SWAP2 POP POP SWAP3 SWAP2 POP POP JUMP JUMPDEST PUSH1 0x0 PUSH2 0x13B7 PUSH1 0x23 DUP4 PUSH2 0x1785 JUMP JUMPDEST SWAP2 POP PUSH2 0x13C2 DUP3 PUSH2 0x194E JUMP JUMPDEST PUSH1 0x40 DUP3 ADD SWAP1 POP SWAP2 SWAP1 POP JUMP JUMPDEST PUSH1 0x0 PUSH2 0x13DA PUSH1 0x22 DUP4 PUSH2 0x1785 JUMP JUMPDEST SWAP2 POP PUSH2 0x13E5 DUP3 PUSH2 0x199D JUMP JUMPDEST PUSH1 0x40 DUP3 ADD SWAP1 POP SWAP2 SWAP1 POP JUMP JUMPDEST PUSH1 0x0 PUSH2 0x13FD PUSH1 0x22 DUP4 PUSH2 0x1785 JUMP JUMPDEST SWAP2 POP PUSH2 0x1408 DUP3 PUSH2 0x19EC JUMP JUMPDEST PUSH1 0x40 DUP3 ADD SWAP1 POP SWAP2 SWAP1 POP JUMP JUMPDEST PUSH1 0x0 PUSH2 0x1420 PUSH1 0x1D DUP4 PUSH2 0x1785 JUMP JUMPDEST SWAP2 POP PUSH2 0x142B DUP3 PUSH2 0x1A3B JUMP JUMPDEST PUSH1 0x20 DUP3 ADD SWAP1 POP SWAP2 SWAP1 POP JUMP JUMPDEST PUSH1 0x0 PUSH2 0x1443 PUSH1 0x26 DUP4 PUSH2 0x1785 JUMP JUMPDEST SWAP2 POP PUSH2 0x144E DUP3 PUSH2 0x1A64 JUMP JUMPDEST PUSH1 0x40 DUP3 ADD SWAP1 POP SWAP2 SWAP1 POP JUMP JUMPDEST PUSH1 0x0 PUSH2 0x1466 PUSH1 0x1D DUP4 PUSH2 0x1785 JUMP JUMPDEST SWAP2 POP PUSH2 0x1471 DUP3 PUSH2 0x1AB3 JUMP JUMPDEST PUSH1 0x20 DUP3 ADD SWAP1 POP SWAP2 SWAP1 POP JUMP JUMPDEST PUSH1 0x0 PUSH2 0x1489 PUSH1 0x21 DUP4 PUSH2 0x1785 JUMP JUMPDEST SWAP2 POP PUSH2 0x1494 DUP3 PUSH2 0x1ADC JUMP JUMPDEST PUSH1 0x40 DUP3 ADD SWAP1 POP SWAP2 SWAP1 POP JUMP JUMPDEST PUSH1 0x0 PUSH2 0x14AC PUSH1 0x25 DUP4 PUSH2 0x1785 JUMP JUMPDEST SWAP2 POP PUSH2 0x14B7 DUP3 PUSH2 0x1B2B JUMP JUMPDEST PUSH1 0x40 DUP3 ADD SWAP1 POP SWAP2 SWAP1 POP JUMP JUMPDEST PUSH1 0x0 PUSH2 0x14CF PUSH1 0x24 DUP4 PUSH2 0x1785 JUMP JUMPDEST SWAP2 POP PUSH2 0x14DA DUP3 PUSH2 0x1B7A JUMP JUMPDEST PUSH1 0x40 DUP3 ADD SWAP1 POP SWAP2 SWAP1 POP JUMP JUMPDEST PUSH1 0x0 PUSH2 0x14F2 PUSH1 0x26 DUP4 PUSH2 0x1785 JUMP JUMPDEST SWAP2 POP PUSH2 0x14FD DUP3 PUSH2 0x1BC9 JUMP JUMPDEST PUSH1 0x40 DUP3 ADD SWAP1 POP SWAP2 SWAP1 POP JUMP JUMPDEST PUSH1 0x0 PUSH2 0x1515 PUSH1 0x25 DUP4 PUSH2 0x1785 JUMP JUMPDEST SWAP2 POP PUSH2 0x1520 DUP3 PUSH2 0x1C18 JUMP JUMPDEST PUSH1 0x40 DUP3 ADD SWAP1 POP SWAP2 SWAP1 POP JUMP JUMPDEST PUSH1 0x0 PUSH2 0x1538 PUSH1 0x1F DUP4 PUSH2 0x1785 JUMP JUMPDEST SWAP2 POP PUSH2 0x1543 DUP3 PUSH2 0x1C67 JUMP JUMPDEST PUSH1 0x20 DUP3 ADD SWAP1 POP SWAP2 SWAP1 POP JUMP JUMPDEST PUSH2 0x1557 DUP2 PUSH2 0x185E JUMP JUMPDEST DUP3 MSTORE POP POP JUMP JUMPDEST PUSH2 0x1566 DUP2 PUSH2 0x1868 JUMP JUMPDEST DUP3 MSTORE POP POP JUMP JUMPDEST PUSH1 0x0 PUSH1 0x20 DUP3 ADD SWAP1 POP PUSH2 0x1581 PUSH1 0x0 DUP4 ADD DUP5 PUSH2 0x1353 JUMP JUMPDEST SWAP3 SWAP2 POP POP JUMP JUMPDEST PUSH1 0x0 PUSH1 0x20 DUP3 ADD SWAP1 POP PUSH2 0x159C PUSH1 0x0 DUP4 ADD DUP5 PUSH2 0x1362 JUMP JUMPDEST SWAP3 SWAP2 POP POP JUMP JUMPDEST PUSH1 0x0 PUSH1 0x20 DUP3 ADD SWAP1 POP DUP2 DUP2 SUB PUSH1 0x0 DUP4 ADD MSTORE PUSH2 0x15BC DUP2 DUP5 PUSH2 0x1371 JUMP JUMPDEST SWAP1 POP SWAP3 SWAP2 POP POP JUMP JUMPDEST PUSH1 0x0 PUSH1 0x20 DUP3 ADD SWAP1 POP DUP2 DUP2 SUB PUSH1 0x0 DUP4 ADD MSTORE PUSH2 0x15DD DUP2 PUSH2 0x13AA JUMP JUMPDEST SWAP1 POP SWAP2 SWAP1 POP JUMP JUMPDEST PUSH1 0x0 PUSH1 0x20 DUP3 ADD SWAP1 POP DUP2 DUP2 SUB PUSH1 0x0 DUP4 ADD MSTORE PUSH2 0x15FD DUP2 PUSH2 0x13CD JUMP JUMPDEST SWAP1 POP SWAP2 SWAP1 POP JUMP JUMPDEST PUSH1 0x0 PUSH1 0x20 DUP3 ADD SWAP1 POP DUP2 DUP2 SUB PUSH1 0x0 DUP4 ADD MSTORE PUSH2 0x161D DUP2 PUSH2 0x13F0 JUMP JUMPDEST SWAP1 POP SWAP2 SWAP1 POP JUMP JUMPDEST PUSH1 0x0 PUSH1 0x20 DUP3 ADD SWAP1 POP DUP2 DUP2 SUB PUSH1 0x0 DUP4 ADD MSTORE PUSH2 0x163D DUP2 PUSH2 0x1413 JUMP JUMPDEST SWAP1 POP SWAP2 SWAP1 POP JUMP JUMPDEST PUSH1 0x0 PUSH1 0x20 DUP3 ADD SWAP1 POP DUP2 DUP2 SUB PUSH1 0x0 DUP4 ADD MSTORE PUSH2 0x165D DUP2 PUSH2 0x1436 JUMP JUMPDEST SWAP1 POP SWAP2 SWAP1 POP JUMP JUMPDEST PUSH1 0x0 PUSH1 0x20 DUP3 ADD SWAP1 POP DUP2 DUP2 SUB PUSH1 0x0 DUP4 ADD MSTORE PUSH2 0x167D DUP2 PUSH2 0x1459 JUMP JUMPDEST SWAP1 POP SWAP2 SWAP1 POP JUMP JUMPDEST PUSH1 0x0 PUSH1 0x20 DUP3 ADD SWAP1 POP DUP2 DUP2 SUB PUSH1 0x0 DUP4 ADD MSTORE PUSH2 0x169D DUP2 PUSH2 0x147C JUMP JUMPDEST SWAP1 POP SWAP2 SWAP1 POP JUMP JUMPDEST PUSH1 0x0 PUSH1 0x20 DUP3 ADD SWAP1 POP DUP2 DUP2 SUB PUSH1 0x0 DUP4 ADD MSTORE PUSH2 0x16BD DUP2 PUSH2 0x149F JUMP JUMPDEST SWAP1 POP SWAP2 SWAP1 POP JUMP JUMPDEST PUSH1 0x0 PUSH1 0x20 DUP3 ADD SWAP1 POP DUP2 DUP2 SUB PUSH1 0x0 DUP4 ADD MSTORE PUSH2 0x16DD DUP2 PUSH2 0x14C2 JUMP JUMPDEST SWAP1 POP SWAP2 SWAP1 POP JUMP JUMPDEST PUSH1 0x0 PUSH1 0x20 DUP3 ADD SWAP1 POP DUP2 DUP2 SUB PUSH1 0x0 DUP4 ADD MSTORE PUSH2 0x16FD DUP2 PUSH2 0x14E5 JUMP JUMPDEST SWAP1 POP SWAP2 SWAP1 POP JUMP JUMPDEST PUSH1 0x0 PUSH1 0x20 DUP3 ADD SWAP1 POP DUP2 DUP2 SUB PUSH1 0x0 DUP4 ADD MSTORE PUSH2 0x171D DUP2 PUSH2 0x1508 JUMP JUMPDEST SWAP1 POP SWAP2 SWAP1 POP JUMP JUMPDEST PUSH1 0x0 PUSH1 0x20 DUP3 ADD SWAP1 POP DUP2 DUP2 SUB PUSH1 0x0 DUP4 ADD MSTORE PUSH2 0x173D DUP2 PUSH2 0x152B JUMP JUMPDEST SWAP1 POP SWAP2 SWAP1 POP JUMP JUMPDEST PUSH1 0x0 PUSH1 0x20 DUP3 ADD SWAP1 POP PUSH2 0x1759 PUSH1 0x0 DUP4 ADD DUP5 PUSH2 0x154E JUMP JUMPDEST SWAP3 SWAP2 POP POP JUMP JUMPDEST PUSH1 0x0 PUSH1 0x20 DUP3 ADD SWAP1 POP PUSH2 0x1774 PUSH1 0x0 DUP4 ADD DUP5 PUSH2 0x155D JUMP JUMPDEST SWAP3 SWAP2 POP POP JUMP JUMPDEST PUSH1 0x0 DUP2 MLOAD SWAP1 POP SWAP2 SWAP1 POP JUMP JUMPDEST PUSH1 0x0 DUP3 DUP3 MSTORE PUSH1 0x20 DUP3 ADD SWAP1 POP SWAP3 SWAP2 POP POP JUMP JUMPDEST PUSH1 0x0 PUSH2 0x17A1 DUP3 PUSH2 0x185E JUMP JUMPDEST SWAP2 POP PUSH2 0x17AC DUP4 PUSH2 0x185E JUMP JUMPDEST SWAP3 POP DUP3 PUSH32 0xFFFFFFFFFFFFFFFFFFFFFFFFFFFFFFFFFFFFFFFFFFFFFFFFFFFFFFFFFFFFFFFF SUB DUP3 GT ISZERO PUSH2 0x17E1 JUMPI PUSH2 0x17E0 PUSH2 0x18DA JUMP JUMPDEST JUMPDEST DUP3 DUP3 ADD SWAP1 POP SWAP3 SWAP2 POP POP JUMP JUMPDEST PUSH1 0x0 PUSH2 0x17F7 DUP3 PUSH2 0x185E JUMP JUMPDEST SWAP2 POP PUSH2 0x1802 DUP4 PUSH2 0x185E JUMP JUMPDEST SWAP3 POP DUP3 DUP3 LT ISZERO PUSH2 0x1815 JUMPI PUSH2 0x1814 PUSH2 0x18DA JUMP JUMPDEST JUMPDEST DUP3 DUP3 SUB SWAP1 POP SWAP3 SWAP2 POP POP JUMP JUMPDEST PUSH1 0x0 PUSH2 0x182B DUP3 PUSH2 0x183E JUMP JUMPDEST SWAP1 POP SWAP2 SWAP1 POP JUMP JUMPDEST PUSH1 0x0 DUP2 ISZERO ISZERO SWAP1 POP SWAP2 SWAP1 POP JUMP JUMPDEST PUSH1 0x0 PUSH20 0xFFFFFFFFFFFFFFFFFFFFFFFFFFFFFFFFFFFFFFFF DUP3 AND SWAP1 POP SWAP2 SWAP1 POP JUMP JUMPDEST PUSH1 0x0 DUP2 SWAP1 POP SWAP2 SWAP1 POP JUMP JUMPDEST PUSH1 0x0 PUSH1 0xFF DUP3 AND SWAP1 POP SWAP2 SWAP1 POP JUMP JUMPDEST PUSH1 0x0 JUMPDEST DUP4 DUP2 LT ISZERO PUSH2 0x1893 JUMPI DUP1 DUP3 ADD MLOAD DUP2 DUP5 ADD MSTORE PUSH1 0x20 DUP2 ADD SWAP1 POP PUSH2 0x1878 JUMP JUMPDEST DUP4 DUP2 GT ISZERO PUSH2 0x18A2 JUMPI PUSH1 0x0 DUP5 DUP5 ADD MSTORE JUMPDEST POP POP POP POP JUMP JUMPDEST PUSH1 0x0 PUSH1 0x2 DUP3 DIV SWAP1 POP PUSH1 0x1 DUP3 AND DUP1 PUSH2 0x18C0 JUMPI PUSH1 0x7F DUP3 AND SWAP2 POP JUMPDEST PUSH1 0x20 DUP3 LT DUP2 EQ ISZERO PUSH2 0x18D4 JUMPI PUSH2 0x18D3 PUSH2 0x1909 JUMP JUMPDEST JUMPDEST POP SWAP2 SWAP1 POP JUMP JUMPDEST PUSH32 0x4E487B7100000000000000000000000000000000000000000000000000000000 PUSH1 0x0 MSTORE PUSH1 0x11 PUSH1 0x4 MSTORE PUSH1 0x24 PUSH1 0x0 REVERT JUMPDEST PUSH32 0x4E487B7100000000000000000000000000000000000000000000000000000000 PUSH1 0x0 MSTORE PUSH1 0x22 PUSH1 0x4 MSTORE PUSH1 0x24 PUSH1 0x0 REVERT JUMPDEST PUSH1 0x0 DUP1 REVERT JUMPDEST PUSH1 0x0 PUSH1 0x1F NOT PUSH1 0x1F DUP4 ADD AND SWAP1 POP SWAP2 SWAP1 POP JUMP JUMPDEST PUSH32 0x45524332303A207472616E7366657220746F20746865207A65726F2061646472 PUSH1 0x0 DUP3 ADD MSTORE PUSH32 0x6573730000000000000000000000000000000000000000000000000000000000 PUSH1 0x20 DUP3 ADD MSTORE POP JUMP JUMPDEST PUSH32 0x45524332303A206275726E20616D6F756E7420657863656564732062616C616E PUSH1 0x0 DUP3 ADD MSTORE PUSH32 0x6365000000000000000000000000000000000000000000000000000000000000 PUSH1 0x20 DUP3 ADD MSTORE POP JUMP JUMPDEST PUSH32 0x45524332303A20617070726F766520746F20746865207A65726F206164647265 PUSH1 0x0 DUP3 ADD MSTORE PUSH32 0x7373000000000000000000000000000000000000000000000000000000000000 PUSH1 0x20 DUP3 ADD MSTORE POP JUMP JUMPDEST PUSH32 0x45524332303A20696E73756666696369656E7420616C6C6F77616E6365000000 PUSH1 0x0 DUP3 ADD MSTORE POP JUMP JUMPDEST PUSH32 0x45524332303A207472616E7366657220616D6F756E7420657863656564732062 PUSH1 0x0 DUP3 ADD MSTORE PUSH32 0x616C616E63650000000000000000000000000000000000000000000000000000 PUSH1 0x20 DUP3 ADD MSTORE POP JUMP JUMPDEST PUSH32 0x4F6E6C792061646D696E2063616E206368616E67652061646472657373000000 PUSH1 0x0 DUP3 ADD MSTORE POP JUMP JUMPDEST PUSH32 0x45524332303A206275726E2066726F6D20746865207A65726F20616464726573 PUSH1 0x0 DUP3 ADD MSTORE PUSH32 0x7300000000000000000000000000000000000000000000000000000000000000 PUSH1 0x20 DUP3 ADD MSTORE POP JUMP JUMPDEST PUSH32 0x45524332303A207472616E736665722066726F6D20746865207A65726F206164 PUSH1 0x0 DUP3 ADD MSTORE PUSH32 0x6472657373000000000000000000000000000000000000000000000000000000 PUSH1 0x20 DUP3 ADD MSTORE POP JUMP JUMPDEST PUSH32 0x45524332303A20617070726F76652066726F6D20746865207A65726F20616464 PUSH1 0x0 DUP3 ADD MSTORE PUSH32 0x7265737300000000000000000000000000000000000000000000000000000000 PUSH1 0x20 DUP3 ADD MSTORE POP JUMP JUMPDEST PUSH32 0x4F6E6C79207468652061646D696E2063616E20757064617465206D61726B6574 PUSH1 0x0 DUP3 ADD MSTORE PUSH32 0x706C616365730000000000000000000000000000000000000000000000000000 PUSH1 0x20 DUP3 ADD MSTORE POP JUMP JUMPDEST PUSH32 0x45524332303A2064656372656173656420616C6C6F77616E63652062656C6F77 PUSH1 0x0 DUP3 ADD MSTORE PUSH32 0x207A65726F000000000000000000000000000000000000000000000000000000 PUSH1 0x20 DUP3 ADD MSTORE POP JUMP JUMPDEST PUSH32 0x45524332303A206D696E7420746F20746865207A65726F206164647265737300 PUSH1 0x0 DUP3 ADD MSTORE POP JUMP JUMPDEST PUSH2 0x1C99 DUP2 PUSH2 0x1820 JUMP JUMPDEST DUP2 EQ PUSH2 0x1CA4 JUMPI PUSH1 0x0 DUP1 REVERT JUMPDEST POP JUMP JUMPDEST PUSH2 0x1CB0 DUP2 PUSH2 0x1832 JUMP JUMPDEST DUP2 EQ PUSH2 0x1CBB JUMPI PUSH1 0x0 DUP1 REVERT JUMPDEST POP JUMP JUMPDEST PUSH2 0x1CC7 DUP2 PUSH2 0x185E JUMP JUMPDEST DUP2 EQ PUSH2 0x1CD2 JUMPI PUSH1 0x0 DUP1 REVERT JUMPDEST POP JUMP INVALID LOG2 PUSH5 0x6970667358 0x22 SLT KECCAK256 0x2E 0x24 0x4E CALLVALUE 0xB3 SWAP1 MOD 0xEF 0x2C 0x2C PUSH14 0x1C8413EF799FB1047CC83871231 SMOD 0xC4 0xE9 SWAP9 0x27 INVALID DUP9 PUSH5 0x736F6C6343 STOP ADDMOD SMOD STOP CALLER "
				},
				"gasEstimates": {
					"creation": {
						"codeDepositCost": "1487000",
						"executionCost": "infinite",
						"totalCost": "infinite"
					},
					"external": {
						"admin()": "2624",
						"allowance(address,address)": "infinite",
						"approve(address,uint256)": "infinite",
						"balanceOf(address)": "2864",
						"burn(address,uint256)": "infinite",
						"decimals()": "388",
						"decreaseAllowance(address,uint256)": "infinite",
						"increaseAllowance(address,uint256)": "infinite",
						"marketplaces(address)": "2934",
						"mintReward(address,uint256)": "infinite",
						"name()": "infinite",
						"symbol()": "infinite",
						"totalSupply()": "2505",
						"transfer(address,uint256)": "infinite",
						"transferFrom(address,address,uint256)": "infinite",
						"updateAddress(uint256,address)": "27088",
						"updateMarketplaces(address,bool)": "27249"
					}
				},
				"methodIdentifiers": {
					"admin()": "f851a440",
					"allowance(address,address)": "dd62ed3e",
					"approve(address,uint256)": "095ea7b3",
					"balanceOf(address)": "70a08231",
					"burn(address,uint256)": "9dc29fac",
					"decimals()": "313ce567",
					"decreaseAllowance(address,uint256)": "a457c2d7",
					"increaseAllowance(address,uint256)": "39509351",
					"marketplaces(address)": "6a56b359",
					"mintReward(address,uint256)": "9a49090e",
					"name()": "06fdde03",
					"symbol()": "95d89b41",
					"totalSupply()": "18160ddd",
					"transfer(address,uint256)": "a9059cbb",
					"transferFrom(address,address,uint256)": "23b872dd",
					"updateAddress(uint256,address)": "2ab29df7",
					"updateMarketplaces(address,bool)": "efee4a8f"
				}
			},
			"storageLayout": {
				"storage": [
					{
						"astId": 15,
						"contract": "Meta4SwapToken.sol:Meta4SwapToken",
						"label": "_balances",
						"offset": 0,
						"slot": "0",
						"type": "t_mapping(t_address,t_uint256)"
					},
					{
						"astId": 21,
						"contract": "Meta4SwapToken.sol:Meta4SwapToken",
						"label": "_allowances",
						"offset": 0,
						"slot": "1",
						"type": "t_mapping(t_address,t_mapping(t_address,t_uint256))"
					},
					{
						"astId": 23,
						"contract": "Meta4SwapToken.sol:Meta4SwapToken",
						"label": "_totalSupply",
						"offset": 0,
						"slot": "2",
						"type": "t_uint256"
					},
					{
						"astId": 25,
						"contract": "Meta4SwapToken.sol:Meta4SwapToken",
						"label": "_name",
						"offset": 0,
						"slot": "3",
						"type": "t_string_storage"
					},
					{
						"astId": 27,
						"contract": "Meta4SwapToken.sol:Meta4SwapToken",
						"label": "_symbol",
						"offset": 0,
						"slot": "4",
						"type": "t_string_storage"
					},
					{
						"astId": 719,
						"contract": "Meta4SwapToken.sol:Meta4SwapToken",
						"label": "marketplaces",
						"offset": 0,
						"slot": "5",
						"type": "t_mapping(t_address,t_bool)"
					},
					{
						"astId": 721,
						"contract": "Meta4SwapToken.sol:Meta4SwapToken",
						"label": "admin",
						"offset": 0,
						"slot": "6",
						"type": "t_address"
					}
				],
				"types": {
					"t_address": {
						"encoding": "inplace",
						"label": "address",
						"numberOfBytes": "20"
					},
					"t_bool": {
						"encoding": "inplace",
						"label": "bool",
						"numberOfBytes": "1"
					},
					"t_mapping(t_address,t_bool)": {
						"encoding": "mapping",
						"key": "t_address",
						"label": "mapping(address => bool)",
						"numberOfBytes": "32",
						"value": "t_bool"
					},
					"t_mapping(t_address,t_mapping(t_address,t_uint256))": {
						"encoding": "mapping",
						"key": "t_address",
						"label": "mapping(address => mapping(address => uint256))",
						"numberOfBytes": "32",
						"value": "t_mapping(t_address,t_uint256)"
					},
					"t_mapping(t_address,t_uint256)": {
						"encoding": "mapping",
						"key": "t_address",
						"label": "mapping(address => uint256)",
						"numberOfBytes": "32",
						"value": "t_uint256"
					},
					"t_string_storage": {
						"encoding": "bytes",
						"label": "string",
						"numberOfBytes": "32"
					},
					"t_uint256": {
						"encoding": "inplace",
						"label": "uint256",
						"numberOfBytes": "32"
					}
				}
			},
			"userdoc": {
				"kind": "user",
				"methods": {},
				"version": 1
			}
		}
	}
}